:1000000060EF00F00000000000EF00F000000000D2
:0A0010000000000000000000F3D71C
:0E001C00ACB202D00000FCD72FC0ADFF120026
:10002A002E6A2BC0E9FF2CC0EAFFEECF2DF02D502F
:10003A00000A0DE02DC02FF0ECDF2E2A2E502B24C3
:10004A00E96E000E2C20EA6EEECF2DF0F0D71200EA
:10005A001C0E276E000E286E2F0E296E000E2A6EB9
:10006A00FF0E236EFF0E246E000E256E000E266E06
:10007A00FF0E1B6EFF0E1C6E000E1D6E000E1E6E16
:10008A00FF0E1F6EFF0E206E000E216E000E226EF6
:10009A00AC8A900EAB6E948E949C9EAA03D0AECF7F
:0600AA0000F0FBD712007C
:1000B0000900F5CFE6FF0006FBE10106F9E11200B9
:1000C000480E156E650E166E6C0E176E6C0E186E61
:1000D0006F0E196E1A6A700ED36E9B6AB886B06A7C
:1000E000CF0EAF6EAC84B9DF150E2B6E000E2C6EEA
:1000F0009CDF150E0B6E4B0E0C6EBE0E0D6E0D2E94
:10010000FED70C2EFCD70B2EFAD700000D0E2F6E4B
:0601100085DFEAD7FFD7EE
:020000040030CA
:0D00010028193CFFBF81FF0FC00FE00F402A
:00000001FF
