:1000000054EF3EF00000000000EF00F000000000A0
:0A0010000000000000000000F3D71C
:10001C00D6C86FFF6DB002D00000FCD76FCF00F0D8
:02002C001200C0
:10002E00D6C8C9FFC7B002D00000FCD7C9CF00F0B8
:02003E001200AE
:10004000F250026EF29E0500FF6A0150FE6E0050F3
:08005000FD6E02BEF28E1200EB
:100058008388E0C5E1FFE1C5E2FFFF0EE66EDEC57D
:0A00680000F0DFC501F0E8DF120030
:10007200E0C5E1FFE1C5E2FF4C0EE66EDEC500F031
:10008200DFC501F0DCDFE0C5E1FFE1C5E2FFE66AC2
:10009200DEC500F0DFC501F0D2DFE0C5E1FFE1C55A
:1000A200E2FFE66ADEC500F0DFC501F0C8DFE0C5A9
:1000B200E1FFE1C5E2FFE66ADEC500F0DFC501F05F
:1000C200BEDFE0C5E1FFE1C5E2FFE66ADEC500F0A2
:1000D200DFC501F0B4DFE0C5E1FFE1C5E2FFFF0EDD
:1000E200E66EDEC500F0DFC501F0A9DF0801CE6BC8
:1000F200CF6BE0C5E1FFE1C5E2FFFF0EE66EDEC5B4
:1001020000F0DFC501F09BDF00C0CDF80801CE4B47
:10011200CF2B800E0014016E0150000A07E0000E82
:10012200CF5D02E1640ECE5D01E2E3D7CDAF04D034
:1001320092DFCDC800F012D0E0C5E1FFE1C5E2FFD9
:10014200FF0EE66EDEC500F0DFC501F078DF00C00D
:0E015200CDF80050000AF0E07EDF006A1200D7
:04016000839812006E
:10016400400E0801CD25006EE0C5E1FFE1C5E2FFC8
:1001740000C0E6FFDEC500F0DFC501F05FDFE0C5CB
:10018400E1FFE1C5E2FFD1C8E6FFDEC500F0DFC54F
:1001940001F054DFE0C5E1FFE1C5E2FFD0C8E6FFAE
:1001A400DEC500F0DFC501F049DFE0C5E1FFE1C5D0
:1001B400E2FFCFC8E6FFDEC500F0DFC501F03EDF99
:1001C400E0C5E1FFE1C5E2FFCEC8E6FFDEC500F011
:1001D400DFC501F033DFE0C5E1FFE1C5E2FFD2C8CE
:1001E400E6FFDEC500F0DFC501F028DF0801D46BAF
:1001F400D56BE0C5E1FFE1C5E2FFFF0EE66EDEC5AB
:1002040000F0DFC501F01ADF00C0D3F80801D44BB9
:10021400D52B800E0014016E0150000A07E0000E79
:10022400D55D02E1640ED45D01E2E3D7D3C800F0EA
:020234001200B6
:100236001DDF0050000A03E0FF0E006E01D0006AC9
:020246001200A4
:100248008BDF000E000A03E1040E00017B1909E1AF
:10025800BFC8C7F8C0C8C8F8C1C8C9F8C2C8CAF872
:1002680014D0090E006EBFC8C7F8C0C8C8F8C1C806
:10027800C9F8C2C8CAF8005008E00801C737C791D2
:10028800C837C937CA37FF0FF7D70801110ECD6F26
:10029800C7C8CEF8C8C8CFF8C9C8D0F8CAC8D1F8F6
:1002A800FF0ED26F5BDF005204E0D2DE010E006E5B
:1002B8004BD0E0C5E1FFE1C5E2FFFF0EE66EDEC50B
:1002C80000F0DFC501F0B8DE0050FE0A01E0F1D70A
:1002D8000801C56BC66B020EC65D02E1000EC55D66
:1002E8001BE2C551C325CB6FC651C421CC6FE0C5F5
:1002F800E1FFE1C5E2FFFF0EE66EDEC500F0DFC5F7
:1003080001F09ADECBC8E1FFCCC8E2FF00C0E6FFEF
:100318000801C54BC62BDFD7E0C5E1FFE1C5E2FF09
:10032800FF0EE66EDEC500F0DFC501F085DEE0C534
:10033800E1FFE1C5E2FFFF0EE66EDEC500F0DFC5B6
:0A03480001F07ADE85DE006A120083
:1003520006010051000A04E00051020A01E002D045
:10036200006A0DD067DF000E001806E0FF0E0401E0
:10037200266FFF0E006E03D00601006B006A1200AA
:10038200B9C8BFF8BAC8C0F8BBC8C1F8BCC8C2F87F
:10039200BDC8C3F8BEC8C4F856DF0050000A03E067
:0A03A200FF0E006E01D0006A120089
:1003AC0006010051030A20E1CEDF0050000A06E0EE
:1003BC00FF0E0401266FFF0E006E5DD00101F5519A
:1003CC000801B8190EE10101F4510801B71909E14E
:1003DC000101F3510801B61904E10101F2510801C0
:1003EC00B51902E1006A47D006010051010A06E185
:1003FC00FF0E0401266FFF0E006E3DD00801B851B0
:10040C000101F5190EE10801B7510101F41909E1D7
:10041C000801B6510101F31904E10801B5510101BC
:10042C00F21928E0B5C8B9F8B6C8BAF8B7C8BBF81D
:10043C00B8C8BCF8F60E0801BD6F010EBE6F9BDF8D
:10044C00000E00180FE0FF0E0101F26FFF0EF36FAC
:10045C00FF0EF46FFF0EF56FFF0E0401266FFF0EFB
:10046C00006E09D0B5C8F2F1B6C8F3F1B7C8F4F113
:08047C00B8C8F5F1006A120096
:100484000801B1515A0806E3410EB15D03E3010EC0
:08049400006E01D0006A1200A5
:10049C00E0C5E1FFE1C5E2FFFF0EE66EDEC500F050
:1004AC00DFC501F0C7DD0050FE0A01E0F1D71200F4
:1004BC000801B1517A0806E3610EB15D03E3010E48
:0804CC00006E01D0006A12006D
:1004D400B1C805F0B2C806F0B3C807F0B4C808F054
:1004E40004011051055E1151065A1251075A135155
:1004F400085AD5C504F005C000F006C001F007C0D5
:1005040002F008C003F0045007E000360090013602
:1005140002360336FF0FF8D7165100261751012271
:0A052400185102221951032212009F
:10052E000801B151390806E3300EB15D03E3010E47
:08053E00006E01D0006A1200FA
:10054600026A110E025C17E2BD0E0224F66E7E0EE2
:10055600F76E000EF722000EF86E000EF822090064
:10056600F5CF01F001500801B11903E1010E006E4B
:0A05760003D0022AE6D7006A120043
:10058000040113510801B45D0EE104011251080188
:10059000B35D09E1040111510801B25D04E10401F8
:1005A00010510801B15D15E30101F1510801B45D7D
:1005B0000EE10101F0510801B35D09E10101EF51C4
:1005C0000801B25D04E10101EE510801B15D01E2F3
:1005D0000CD0F40E0401266FFF0E006EFF0E016EAC
:1005E000FF0E026E0F0E036E64D0FBC500F0B1C8A3
:1005F000B5F8B2C8B6F8B3C8B7F8B4C8B8F8005080
:1006000008E00801B833B733B633B533B89FFF0FEE
:10061000F7D704010C510801B52704010D51080159
:10062000B62304010E510801B72304010F5108013C
:10063000B823BCDE0050000A09E0FF0E006EFF0E7A
:10064000016EFF0E026E0F0E036E33D0F6C500F082
:10065000F7C501F0F8C502F0F9C503F0010E005E20
:10066000000E015A025A035A00500801B115046ED7
:100670000150B215056E0250B315066E0350B41545
:10068000076E04C000F005C001F00036009001368E
:10069000003600900136F60E0024E96E010E0120AE
:1006A000EA6EEECF00F0EECF01F0EECF02F0EECF2B
:0406B00003F0120041
:1006B4009AC8B1F83ADF005211E19AC8B1F8E0DE05
:1006C40000520CE19AC8B1F8F7DE005207E19AC86B
:1006D400B1F837DF005202E1006A02D0010E006E69
:0206E400120002
:1006E6009CC804F09DC805F09AC802F09BC803F0A8
:1006F6009EC800F09FC801F0010E08019E5F000E23
:100706009F5B005001100FE004C0E9FF05C0EAFF3F
:1007160002C0E1FF03C0E2FFEECFE6FF024A032A72
:10072600044A052AE5D79AC800F09BC801F01200D2
:10073600B2DE08019C6B9D6B020E9D5D02E1000E10
:100746009C5D1BE29C519A259E6F9D519B219F6F3C
:10075600E0C5E1FFE1C5E2FFFF0EE66EDEC500F093
:10076600DFC501F06ADC9EC8E1FF9FC8E2FF00C05A
:10077600E6FF08019C4B9D2BDFD7E0C5E1FFE1C5F5
:10078600E2FFFF0EE66EDEC500F0DFC501F055DCC8
:10079600E0C5E1FFE1C5E2FFFF0EE66EDEC500F053
:0807A600DFC501F04ADC12007E
:1007AE0008019A515A0804E3410E9A5DD8B09A8B0B
:0607BE009AC800F01200D1
:1007C400F2C1ACF8F3C1ADF8F4C1AEF8F5C1AFF8BD
:1007D4009AC8A4F89BC8A5F89CC8A6F89DC8A7F811
:1007E4000401135108019D5D0EE104011251080139
:1007F4009C5D09E10401115108019B5D04E10401C0
:10080400105108019A5D15E30101F1510801A75D3A
:100814000EE10101F0510801A65D09E10101EF516A
:100824000801A55D04E10101EE510801A45D01E2A6
:1008340006D0F40E0401266FFF0E006ECED0080120
:10084400B06B69C600F09EC801F09FC802F0A0C852
:1008540003F0A1C804F0005007E00432033202326E
:100864000132049EFF0FF8D70450000809E1035039
:10087400000806E10250000803E108010150B05DE0
:1008840055E2A4C8B1F8A5C8B2F8A6C8B3F8A7C879
:10089400B4F874DE00C0A4F801C0A5F802C0A6F83C
:1008A40003C0A7F803500F0A08E10250FF0A05E14C
:1008B4000150FF0A02E10050FF0A06E1F10E0401B3
:1008C400266FFF0E006E89D0040113510801A75D45
:1008D4000EE1040112510801A65D09E10401115160
:1008E4000801A55D04E1040110510801A45D15E3AC
:1008F4000101F1510801A75D0EE10101F051080168
:10090400A65D09E10101EF510801A55D04E10101C2
:10091400EE510801A45D01E206D0F40E0401266F35
:10092400FF0E006E5AD00801B02B8BD708012BC4E0
:1009340000F02CC401F02DC402F02EC403F0010E0B
:10094400005E000E015A025A035A00509E15A86F09
:1009540001509F15A96F0250A015AA6F0350A1154D
:10096400AB6FA4C8B1F8A5C8B2F8A6C8B3F8A7C8B5
:10097400B4F8AEDD6AC608F0A8C804F0A9C805F04A
:10098400AAC806F0ABC807F0085007E007320632E1
:1009940005320432079EFF0FF8D7A2C8E1FFA3C8AF
:1009A400E2FF04500024E66E05500120E66E065076
:1009B4000220E66E07500320E66EACC8B5F8ADC859
:1009C400B6F8AEC8B7F8AFC8B8F8EEDC0050000A05
:0C09D40003E0FF0E006E01D0006A12006C
:1009E000B0EC00F0000E000A03E1040E00017B19D8
:1009F00009E19AC89EF89BC89FF89CC8A0F89DC8BA
:100A0000A1F814D0090E006E9AC89EF89BC89FF8F2
:100A10009CC8A0F89DC8A1F8005008E008019E37C6
:100A20009E919F37A037A137FF0FF7D70801120E0D
:100A3000CD6F9EC8CEF89FC8CFF8A0C8D0F8A1C887
:100A4000D1F8FF0ED26FB2EC00F0005205E02CECB2
:0C0A500000F0010E006E01D0006A1200E0
:100A5C00056A046A0B0E055C22E2010E0414016E99
:100A6C00070E006E01C003F0005004E00336039043
:100A7C00FF0FFBD7FE0E0414026E02C000F0003212
:100A8C00009E00500310046E055008018625D96E97
:100A9C00000E8721DA6EDE500426052ADBD704C04F
:040AAC0000F0120044
:100AB000010E08018625E96E000E8721EA6E88C8BE
:100AC000E1FF89C8E2FFEECFE6FF010E8825E16E67
:100AD000000E8921E26E030E8625E96E000E872145
:100AE000EA6EEECFE6FF020E8825E16E000E892148
:100AF000E26E050E8625E96E000E8721EA6EEECFC6
:100B0000E6FF030E8825E16E000E8921E26E070ED6
:100B10008625E96E000E8721EA6EEECFE6FF040E11
:100B20008825E16E000E8921E26E090E8625E96EA8
:100B3000000E8721EA6EEECFE6FF050E8825E16EF6
:100B4000000E8921E26E0E0E8625E96E000E8721C9
:100B5000EA6EEECFE6FF060E8825E16E000E8921D3
:100B6000E26E100E8625E96E000E8721EA6EEECF4A
:100B7000E6FF070E8825E16E000E8921E26E120E57
:100B80008625E96E000E8721EA6EEECFE6FF080E9D
:100B90008825E16E000E8921E26E140E8625E96E2D
:100BA000000E8721EA6EEECFE6FF090E8825E16E82
:100BB000000E8921E26E160E8625E96E000E872151
:100BC000EA6EEECFE6FF0A0E8825E16E000E89215F
:100BD000E26E180E8625E96E000E8721EA6EEECFD2
:100BE000E6FF0B0E8825E16E000E8921E26E1C0ED9
:100BF0008625E96E000E8721EA6EEECFE6FF0C0E29
:100C00008825E16E000E8921E26E1E0E8625E96EB2
:0E0C1000000E8721EA6EEECFE6FF006A1200AA
:0E0C1E0086C89AF887C89BF887DD006A120026
:100C2C0086C89AF887C89BF888C89CF889C89DF82C
:100C3C00D1DE0050000A03E0FF0E006E01D0006A06
:020C4C00120094
:100C4E000B6A0A6A096A00500402F4CF09F0F3CF66
:100C5E0008F001500502F4CF0BF0F3CF0AF000506C
:100C6E000502F3500926F4500A22E86A0B220150BD
:100C7E000402F3500926F4500A22E86A0B2208C037
:100C8E0000F009C001F00AC002F00BC003F0120020
:100C9E00B0EC00F0000E000A03E1040E00017B1917
:100CAE0009E186C88EF887C88FF888C890F889C879
:100CBE0091F814D0090E006E86C88EF887C88FF88A
:100CCE0088C890F889C891F8005008E008018E375E
:100CDE008E918F3790379137FF0FF7D70801180E87
:100CEE00CD6F8EC8CEF88FC8CFF890C8D0F891C807
:100CFE00D1F8FF0ED26FB2EC00F0005205E02CECF2
:100D0E0000F0010E006E95D0E0C5E1FFE1C5E2FFF7
:100D1E00FF0EE66EDEC500F0DFC501F020EC00F040
:100D2E00E0C5E1FFE1C5E2FFFF0EE66EDEC500F0B5
:100D3E00DFC501F020EC00F0E0C5E1FFE1C5E2FF08
:100D4E00FE0EE66EDEC500F0DFC501F020EC00F011
:100D5E0008018C6B8D6B8D51010802E18C51FF08DF
:100D6E0016E38C518A25E96E8D518B21EA6EE0C512
:100D7E00E1FFE1C5E2FFEECFE6FFDEC500F0DFC525
:100D8E0001F020EC00F008018C4B8D2BE4D7E0C570
:100D9E00E1FFE1C5E2FFFF0EE66EDEC500F0DFC546
:100DAE0001F020EC00F0E0C5E1FFE1C5E2FFFF0E2F
:100DBE00E66EDEC500F0DFC501F020EC00F0E0C508
:100DCE00E1FFE1C5E2FFFF0EE66EDEC500F0DFC516
:100DDE0001F020EC00F000C08CF8000E08018D6FC1
:100DEE001F0E8C15016E8DC802F0000E021601C08A
:100DFE008CF802C08DF8000E021802E1050E0118E3
:100E0E0005E02CEC00F0020E006E13D0E0C5E1FF01
:100E1E00E1C5E2FFFF0EE66EDEC500F0DFC501F0B4
:100E2E0020EC00F00050FF0A01E0F0D72CEC00F0AF
:040E3E00006A120034
:100E420086C89AF887C89BF888C89CF889C89DF814
:100E52008AC89EF88BC89FF88CC8A0F88DC8A1F8E4
:100E62008EC8A2F88FC8A3F8ACDC0050000A03E0D9
:100E7200FF0E006E15D08EC8E9FF8FC8EAFFEECFD5
:100E8200B5F8EECFB6F8EECFB7F8EECFB8F8D6ECAD
:100E920001F00050000A03E0FF0E006E01D0006A6C
:020EA20012003C
:100EA4008D0E08019A6F080E9B6F86C89CF887C840
:100EB4009DF80B0E9E6F000E9F6F13DC8A6B0B0E5A
:100EC4008A5D3FE28C6B8D0EE96E080EEA6E8A51E4
:100ED400E926D8B0EA2AEECF9AF85AEC03F000508B
:100EE400010A03E1010E08018C6F08018D0EE96E01
:100EF400080EEA6E8A51E926D8B0EA2AEE50200A92
:100F040002E1010E8C6F8D0EE96E080EEA6E8A51B5
:100F1400E926D8B0EA2AEE502E0A02E1010E8C6FBF
:100F24008C51000A0BE188C8E1FF89C8E2FFE66A38
:100F3400C40E0401266FFF0E006EB4D008018A2B84
:100F4400BED78B6B8A6B080E8A5D42E28D0EE96E0A
:100F5400080EEA6E8A51E926D8B0EA2AEE50200A31
:100F640033E00C0E8625E96E000E8721EA6EEECF83
:100F740001F001A618D08B518825986F000E8921A5
:100F8400996F8D0EE96E080EEA6E8A51E926D8B083
:100F9400EA2AEECF9AF809DC98C8E1FF99C8E2FF83
:100FA40000C0E6FF10D08B518825E16E000E892128
:100FB400E26E8D0EE96E080EEA6E8A51E926D8B00B
:100FC400EA2AEECFE6FF01D003D08B2B8A2BBBD7C6
:100FD4009551200A09E18B518825E16E000E892183
:100FE400E26EE66A006A5ED08B518825E16E000EDF
:100FF4008921E26E2E0EE66E8B2B080E8A6F0B0E85
:101004008A5D47E28D0EE96E080EEA6E8A51E92682
:10101400D8B0EA2AEECF9AF85AEC03F00050000A4E
:1010240001E137D00C0E08018625E96E000E8721F8
:10103400EA6EEECF01F001A819D08B518825986F84
:10104400000E8921996F8D0EE96E080EEA6E8A51A1
:10105400E926D8B0EA2AEECF9AF8D7EC03F098C87C
:10106400E1FF99C8E2FF00C0E6FF10D08B5188254C
:10107400E16E000E8921E26E8D0EE96E080EEA6EB5
:101084008A51E926D8B0EA2AEECFE6FF8B2B8A2BC9
:10109400B6D708018B518825E16E000E8921E26ED6
:0610A400E66A006A12007A
:1010AA0006010051030A0BE1A9EC01F00050000A05
:1010BA0006E0FF0E0401266FFF0E006E50D00601F7
:1010CA000051010A06E1FF0E0401266FFF0E006EB1
:1010DA0046D00101F551080147190EE10101F45109
:1010EA000801461909E10101F3510801451904E112
:1010FA000101F2510801441905E1020E0601006FCF
:10110A00006A2DD044C886F845C887F846C888F8CA
:10111A0047C889F886DD0050000A06E0FF0E040180
:10112A00266FFF0E006E1BD0F60E0801866F010EA9
:10113A00876F70DD0050000A06E0FF0E0401266F7B
:10114A00FF0E006E0CD0010E0601006F44C8F2F1CA
:10115A0045C8F3F146C8F4F147C8F5F1006A120030
:10116A00026A080E025C17E2D70E0224F66E7E0EA1
:10117A00F76E000EF722000EF86E000EF822090034
:10118A00F5CF01F001500801441903E1010E006E88
:0A119A0003D0022AE6D7006A120013
:1011A400030E08014425E96E000E4521EA6EEECFD8
:1011B40009F0000E0A6E0B6E0C6E000E0A6E0B6EBA
:1011C4000C6E0BC003F00AC002F009C001F0006A03
:1011D40000C009F001C00AF002C00BF003C00CF01B
:1011E400020E4425D96E000E4521DA6EDE5000242D
:1011F400056E000E0120066E000E0220076E000E22
:101204000320086E05C009F006C00AF007C00BF001
:1012140008C00CF007C003F006C002F005C001F0DE
:10122400006A00C009F001C00AF002C00BF003C05C
:101234000CF0010E4425D96E000E4521DA6EDE5005
:101244000024056E000E0120066E000E0220076EBB
:10125400000E0320086E05C009F006C00AF007C09E
:101264000BF008C00CF007C003F006C002F005C084
:1012740001F0006A00C009F001C00AF002C00BF0DE
:1012840003C00CF044C8D9FF45C8DAFFDE5000267D
:10129400000E01220222032200C009F001C00AF05C
:1012A40002C00BF003C00CF000C009F001C00AF04A
:0A12B40002C00BF003C00CF01200A2
:1012BE00010E08014425E96E000E4521EA6EEECFBF
:1012CE0003F0000E046E000E046E03C001F0006AFF
:1012DE0000C003F001C004F044C8D9FF45C8DAFFCE
:1012EE00DE500026000E012200C003F001C004F003
:0A12FE0000C003F001C004F012006C
:0E13080044C8E9FF45C8EAFFEECF00F012002E
:1013160044C802F045C803F047C800F048C801F0C9
:10132600010E0801475F000E485B0050011009E0FE
:1013360002C0E1FF03C0E2FF46C8E6FF024A032AF5
:0C134600EBD744C800F045C801F01200CD
:1013520046C886F847C887F848C888F849C889F84F
:101362004AC88AF84BC88BF84CC88CF84DC88DF81F
:10137200820E08018E6F080E8F6F62DD0050000A28
:1013820003E0FF0E006E9DD1FCC500F0FDC501F02B
:10139200FEC502F0FFC503F0010E005E000E015A09
:1013A200025A035A005008014A15046E01504B15A7
:1013B200056E02504C15066E03504D15076E050E54
:1013C200026E04C000F005C001F0025005E00036D4
:1013D20000900136FF0FFAD70801F60E0024806F45
:1013E200010E0120816F010E4E6F080E4E5D0CE260
:1013F2004E518025E96E000E8121EA6EEE507E0A82
:1014020001E102D04E2BF1D74E51080A0AE180C801
:1014120086F881C887F844C888F845C889F841DD4C
:1014220050D1600E08019A6F080E9B6F80C89CF81D
:1014320081C89DF8200E9E6F000E9F6F73EC03F023
:1014420046C886F847C887F848C888F849C889F85E
:10145200010E4A5F000E4B5B4C5B4D5B4AC88AF83B
:101462004BC88BF84CC88CF84DC88DF8820E8E6F25
:10147200080E8F6FE5DC0050000A03E0FF0E006EDD
:1014820020D1FCC500F0FDC501F0FEC502F0FFC58C
:1014920003F0010E005E000E015A025A035A005078
:1014A20008014A15046E01504B15056E02504C1589
:1014B200066E03504D15076E050E026E04C000F055
:1014C20005C001F0025005E0003600900136FF0F22
:1014D200FAD7F60E0026010E012200C05EF801C006
:1014E2005FF80B0E0024E96E000E0120EA6E3F0E3B
:1014F200EE14016E01500F0A0BE00801600E866FB8
:10150200080E876F44C888F845C889F8CADCD9D064
:10151200600E0801866F080E876F2EEC05F000C082
:1015220050F8010E08014F6F0B0E5E25E96E000E9A
:101532005F21EA6E3F0EEE14016E01500F0A06E0C3
:10154200C00E0401266FFF0E006EBBD00D0E080107
:101552005E25E96E000E5F21EA6EEE50501906E03C
:10156200C10E0401266FFF0E006EABD05EC8E9FF0C
:101572005FC8EAFFEECF00F01F0E0014016E0150AB
:1015820008014F1906E0C20E0401266FFF0E006E1D
:1015920098D05EC886F85FC887F8510E0801886F38
:1015A200080E896F58EC05F04E6B4F05006E016A0C
:1015B200000E015A0D0E046E000E056E27EC06F0A9
:1015C2004E510026000E012200504425E16E0150CA
:1015D2004521E26E510EE96E080EEA6E4E51E92681
:1015E200D8B0EA2AEECFE6FF4E2B0D0E4E5D0CE28E
:1015F200510EE96E080EEA6E4E51E926D8B0EA2A7B
:10160200EE50000A01E0D1D75EC8E9FF5FC8EAFFE9
:10161200EECF01F001AC02D0006A53D04F2B46C886
:1016220086F847C887F848C888F849C889F8010E7B
:101632004A5F000E4B5B4C5B4D5B4AC88AF84BC855
:101642008BF84CC88CF84DC88DF8820E8E6F080E40
:101652008F6F21EC07F00050000A03E0FF0E006ECE
:1016620030D0FCC500F0FDC501F0FEC502F0FFC59B
:1016720003F0010E005E000E015A025A035A005096
:1016820008014A15046E01504B15056E02504C15A7
:10169200066E03504D15076E050E026E04C000F073
:1016A20005C001F0025005E0003600900136FF0F40
:1016B200FAD70801F60E00245E6F010E01205F6F5B
:0416C20033D7120008
:1016C60044C886F845C887F846C888F847C889F8E0
:1016D60048C88AF849C88BF84FEC06F00050000A53
:0C16E60003E0FF0E006E01D0006A12004D
:1016F2000801B56BB66BB76BB86BD6EC01F0005056
:10170200000A03E0FF0E006E27D1F60E0801336FC8
:10171200010E346FF60E356F010E366FFE0E332555
:10172200446F010E3421456FC9DD0150AA0A02E15E
:10173200550E001806E0FC0E0401266FFF0E006E27
:101742000BD135C8E9FF36C8EAFFEECF01F00150F0
:10175200E90A15E035C8E9FF36C8EAFFEECF01F025
:101762000150EB0A0BE1020E08013525E96E000E6D
:101772003621EA6EEE50900A01E101D006D0FB0E4E
:101782000401266FFF0E006EE7D00801326B010ED6
:10179200325DD8B0E0D00A0E006E000E016E32C883
:1017A20004F0000E056E27EC06F0F60E0026030E7E
:1017B200012200C037F801C038F8BE0E3325446F4D
:1017C200010E3421456F040E026E32C800F0000E85
:1017D200016E025005E0003600900136FF0FFAD785
:1017E20000504427015045238EDD37C8E1FF38C839
:1017F200E2FF00C0E6FF0A0E006E000E016E32C864
:1018020004F0000E056E27EC06F0F60E0026030E1D
:101812000122010E0024376F000E0120386FBE0E28
:101822003325446F010E3421456F040E026E32C817
:1018320000F0000E016E025005E000360090013605
:10184200FF0FFAD70050442701504523040E4427C6
:10185200000E452358DD37C8E1FF38C8E2FF00C05B
:10186200E6FF0A0E006E000E016E32C804F0000E92
:10187200056E27EC06F0F60E0026030E0122020E7C
:101882000024376F000E0120386FBE0E3325446FDF
:10189200010E3421456F040E026E32C800F0000EB4
:1018A200016E025005E0003600900136FF0FFAD7B4
:1018B2000050442701504523080E4427000E4523BB
:1018C20070DC37C8E1FF38C8E2FF00C0E6FF01C0A4
:1018D200E6FF02C0E6FF03C0E6FF0A0E006E000E3E
:1018E200016E32C804F0000E056E27EC06F0F60E0B
:1018F2000026030E0122060E0024376F000E01207F
:10190200386FBE0E3325446F010E3421456F040E2D
:10191200026E32C800F0000E016E025005E0003681
:1019220000900136FF0FFAD700504427015045239B
:101932000C0E4427000E452334DC37C8E1FF38C8BB
:10194200E2FF00C0E6FF01C0E6FF02C0E6FF03C0FF
:0A195200E6FF322B1CD7006A1200DA
:10195C000801336B346B270E345D02E1100E335DDE
:10196C00D8B0B0D0000E000A02E1000E321919E115
:10197C00B0EC00F0010ECD6FCE6BCF6BD06BD16B9A
:10198C00FF0ED26FB2EC00F000C035F82CEC00F07A
:10199C0008013551000A04E100017B6B006A94D008
:1019AC008DD0B0EC00F0370E0801CD6FCE6BCF6B45
:1019BC00D06BD16BFF0ED26FB2EC00F000C035F8DB
:1019CC002CEC00F008013551010AD8A476D0B0EC0B
:1019DC0000F0290ECD6F000ECE6F000ECF6F000EF3
:1019EC00D06F400ED16FFF0ED26FB2EC00F000C082
:1019FC0035F82CEC00F008013551000A5DE1000EC1
:101A0C00000A02E1020E321952E1B0EC00F03A0E7B
:101A1C00CD6FCE6BCF6BD06BD16BFF0ED26FB2ECA8
:101A2C0000F000C035F8E0C5E1FFE1C5E2FFFF0EB4
:101A3C00E66EDEC500F0DFC501F020EC00F000C062
:101A4C0036F8E0C5E1FFE1C5E2FFFF0EE66EDEC54C
:101A5C0000F0DFC501F020EC00F0E0C5E1FFE1C5CE
:101A6C00E2FFFF0EE66EDEC500F0DFC501F020ECF4
:101A7C0000F0E0C5E1FFE1C5E2FFFF0EE66EDEC55A
:101A8C0000F0DFC501F020EC00F02CEC00F00801B8
:101A9C003551000A0BE136AD04D0040E00017B6F0A
:101AAC0003D00001030E7B6F006A0ED005D000013D
:101ABC00010E7B6F006A08D001D004D00801334BB3
:0A1ACC00342B49D7010E006E120002
:101AD60006010051030A0BE1A9EC01F00050000ACF
:101AE60006E0FF0E0401266FFF0E006E33D00601DE
:101AF6000051010A06E1FE0E0401266FFF0E006E7C
:101B060029D032C844F833C845F834C846F835C831
:101B160047F8F60E0801486F010E496FD1DD000E39
:101B260000180FE0FF0E0101F26FFF0EF36FFF0EBC
:101B3600F46FFF0EF56FFE0E0401266FFF0E006EAA
:101B460009D032C8F2F133C8F3F134C8F4F135C81C
:061B5600F5F1006A120027
:101B5C00160E08013225446F000E3321456F5FECE1
:101B6C0009F00B0E046E00C002F001C003F004502B
:101B7C0005E003320232039EFF0FFAD71F0E021448
:101B8C00006E00C03AF4160E3225446F000E33215D
:101B9C00456F5FEC09F0050E046E00C002F001C049
:101BAC0003F0045005E003320232039EFF0FFAD714
:101BBC003F0E0214006E00C03BF4160E3225446F2B
:101BCC00000E3321456F5FEC09F000C002F00236C5
:101BDC0002903F0E0214006E00C03CF4180E322529
:101BEC00446F000E3321456F5FEC09F0090E046E53
:101BFC0000C002F001C003F0045005E003320232D1
:101C0C00039EFF0FFAD77F0E0214006E03C001F083
:101C1C00000E011600C036F401C037F4BC0E0026CD
:101C2C00070E012200C036F401C037F4180E32251D
:101C3C00446F000E3321456F5FEC09F0050E046E06
:101C4C0000C002F001C003F0045005E00332023280
:101C5C00039EFF0FFAD70F0E0214006E00C038F46B
:101C6C00180E3225446F000E3321456F5FEC09F0DE
:0E1C7C001F0E0014006E00C039F4006A120042
:101C8A00010E066E000E076E086E096E056A800E5A
:101C9A00006E800E000A005C02E1200E055C23E261
:101CAA00065008013211016E07503311026E0850B6
:101CBA003411036E09503511046E0450091808E1F5
:101CCA000350081805E10250071802E101500618EE
:101CDA0003E105C000F009D006360690073608363B
:0C1CEA000936052AD4D7FF0E006E120048
:101CF6000E0E08013225446F000E3321456F5FEC4E
:101D060009F00B0E046E00C002F001C003F004508F
:101D160005E003320232039EFF0FFAD71F0E0214AC
:101D2600006E00C033F40E0E3225446F000E3321D0
:101D3600456F5FEC09F0050E046E00C002F001C0AD
:101D460003F0045005E003320232039EFF0FFAD778
:101D56003F0E0214006E00C034F40E0E3225446F9E
:101D6600000E3321456F5FEC09F000C002F0023629
:101D760002903F0E0214006E00C035F4100E32259C
:101D8600446F000E3321456F5FEC09F0090E046EB7
:101D960000C002F001C003F0045005E00332023235
:101DA600039EFF0FFAD77F0E0214006E03C001F0E8
:101DB600000E011600C02FF401C030F4BC0E002640
:101DC600070E012200C02FF401C030F4100E322598
:101DD600446F000E3321456F5FEC09F0050E046E6B
:101DE60000C002F001C003F0045005E003320232E5
:101DF600039EFF0FFAD70F0E0214006E00C031F4D7
:101E0600100E3225446F000E3321456F5FEC09F04A
:0E1E16001F0E0014006E00C032F4006A1200AD
:101E24000134083609360450085E0550D8A0053C34
:101E3400095E003601360F0E0C6E01340836093681
:101E4400045000A006D0085E0550D8A0053C095EE9
:101E540005D008260550D8B0053C092600360136C1
:101E64000C2EEBD700B006D0045008260550D8B08D
:081E7400053C092600001200E4
:101E7C0036C801F037C802F0010E0801365F000EBB
:101E8C00375B000E021802E1000E01181FE032C889
:101E9C00E9FF33C8EAFF34C8D9FF35C8DAFFEE5082
:101EAC00DE180FE032C8E9FF33C8EAFF34C8D9FFA7
:101EBC0035C8DAFFDE50EE5C006E016A000E015A86
:101ECC0007D0324B332B344B352BD2D7006A016AF7
:021EDC001200F2
:101EDE0032C89AF85AEC03F0005208E132C844F8BE
:101EEE00B5EC08F0005202E1006A02D0010E006E5D
:021EFE001200D0
:101F00000B1E0A1E091E081E082AD8B4092AD8B4B6
:081F10000A2AD8B40B2A1200C2
:101F1800080132517A0804E3610E325DD8B0329B71
:061F280032C800F01200B7
:101F2E0032C802F033C803F002C000F003C001F063
:101F3E00024A032A00C0E9FF01C0EAFFEE5201E0A7
:101F4E00F3D708013251025C006E33510358016E13
:0A1F5E00010E005E000E015A120091
:101F68000450085E0550D8A0053C095E0650D8A06C
:101F7800063C0A5E0750D8A0073C0B5E0336070EE6
:101F88000C6E0334083609360A360B36045003A0A3
:101F98000ED0085E0550D8A0053C095E0650D8A0B2
:101FA800063C0A5E0750D8A0073C0B5E0DD00826F9
:101FB8000550D8B0053C09260650D8B0063C0A267C
:101FC8000750D8B0073C0B2603360C2EDAD702345C
:101FD800083609360A360B36045003A00ED0085EC0
:101FE8000550D8A0053C095E0650D8A0063C0A5EFC
:101FF8000750D8A0073C0B5E0DD008260550D8B076
:10200800053C09260650D8B0063C0A260750D8B029
:10201800073C0B260236070E0C6E023408360936CA
:102028000A360B36045002A00ED0085E0550D8A020
:10203800053C095E0650D8A0063C0A5E0750D8A0A9
:10204800073C0B5E0DD008260550D8B0053C092684
:102058000650D8B0063C0A260750D8B0073C0B26D5
:1020680002360C2EDAD70134083609360A360B3612
:10207800045002A00ED0085E0550D8A0053C095EA9
:102088000650D8A0063C0A5E0750D8A0073C0B5E55
:102098000DD008260550D8B0053C09260650D8B002
:1020A800063C0A260750D8B0073C0B260136070E17
:1020B8000C6E0134083609360A360B36045001A076
:1020C8000ED0085E0550D8A0053C095E0650D8A081
:1020D800063C0A5E0750D8A0073C0B5E0DD00826C8
:1020E8000550D8B0053C09260650D8B0063C0A264B
:1020F8000750D8B0073C0B2601360C2EDAD700342F
:10210800083609360A360B36045001A00ED0085E90
:102118000550D8A0053C095E0650D8A0063C0A5ECA
:102128000750D8A0073C0B5E0DD008260550D8B044
:10213800053C09260650D8B0063C0A260750D8B0F8
:10214800073C0B260036070E0C6E0034083609369D
:102158000A360B36045000A00ED0085E0550D8A0F1
:10216800053C095E0650D8A0063C0A5E0750D8A078
:10217800073C0B5E0DD008260550D8B0053C092653
:102188000650D8B0063C0A260750D8B0073C0B26A4
:1021980000360C2EDAD700B00ED0045008260550B1
:1021A800D8B0053C09260650D8B0063C0A26075088
:0821B800D8B0073C0B26120011
:1021C00006010051020A17E1010E0101F225080182
:1021D000446F000E0101F3210801456F000E01015B
:1021E000F4210801466F000E0101F5210801476F37
:1021F00055EC08F030D006010051000A06E1FF0E50
:102200000401266FFF0E006E26D0F60E0801866FC1
:10221000010E876F0FEC06F00050000A06E0FF0E7B
:102220000401266FFF0E006E16D0010E0101F2258B
:10223000006E000EF321016E000EF421026E000EFE
:10224000F521036E00C0F2F101C0F3F102C0F4F118
:0822500003C0F5F1006A120061
:10225800FF0E080134253E6F000E35213F6F0B0E2F
:102268003225446F000E3321456F84EC09F03EC8D7
:10227800E1FF3FC8E2FF00C0E6FF000E34253E6FD5
:10228800010E35213F6F1C0E3225446F000E33219D
:10229800456FD2EC08F03EC8E1FF3FC8E2FF00C03E
:1022A800E6FF01C0E6FF02C0E6FF03C0E6FF040E3A
:1022B8003425426F010E3521436F140E3225446FC9
:1022C800000E3321456F5FEC09F000C003F001C038
:1022D80004F0000E056E066E04C041F803C040F815
:1022E8003E6B3F6B1A0E3225446F000E3321456F4B
:1022F8005FEC09F0000E026E036E3E5100263F515E
:102308000122405102224151032242C8E1FF43C841
:10231800E2FF00C0E6FF01C0E6FF02C0E6FF03C01F
:10232800E6FF0B0E3225E96E000E3321EA6E3F0EF2
:10233800EE14016E01500F0A28E034C844F835C87D
:1023480045F8466BFF0E476F000E486F8BEC09F09F
:1023580034C844F835C845F836C846F837C847F889
:1023680038C848F839C849F83AC84AF83BC84BF859
:102378003CC84CF83DC84DF8A9EC09F00050000ADB
:1023880003E0FF0E006E07D005D034C8E1FF35C862
:08239800E2FFE66A006A120090
:1023A000050E00017B6F95982CEC00F00801116B75
:1023B000126B000E125D02E10A0E115D10E2E0C523
:1023C000E1FFE1C5E2FFFF0EE66EDEC500F0DFC50E
:1023D00001F020EC00F00801114B122BEAD7B0EC11
:1023E00000F0CD6BCE6BCF6BD06BD16B950ED26FF7
:1023F000B2EC00F000C013F82CEC00F0080113510F
:10240000010A03E0010E006E84D0B0EC00F0080E6B
:10241000CD6FAA0ECE6F010ECF6F000ED06FD16FB1
:10242000870ED26FB2EC00F000C013F8E0C5E1FFF8
:10243000E1C5E2FFFF0EE66EDEC500F0DFC501F08C
:1024400020EC00F0E0C5E1FFE1C5E2FFFF0EE66E23
:10245000DEC500F0DFC501F020EC00F0E0C5E1FFD3
:10246000E1C5E2FFFF0EE66EDEC500F0DFC501F05C
:1024700020EC00F0E0C5E1FFE1C5E2FFFF0EE66EF3
:10248000DEC500F0DFC501F020EC00F02CEC00F020
:1024900008011351010A0BE0010E326FAEEC0CF093
:1024A000005204E00801326BAEEC0CF005D0020ED5
:1024B0000801326FAEEC0CF0000E000A03E1050ECD
:1024C00000017B1903E1020E006E23D0000E000A0A
:1024D00003E10001040E7B191BE0B0EC00F0100ECC
:1024E0000801CD6F000ECE6F020ECF6F000ED06FC1
:1024F000D16FFF0ED26FB2EC00F000C013F82CECDD
:1025000000F008011351000A03E0030E006E01D031
:04251000006A12004B
:1025140022C411F823C412F824C413F825C414F8EF
:1025240004011351255D08E11251245D05E11151A7
:10253400235D02E11051225D15E30101F15108010F
:10254400145D0EE10101F0510801135D09E101017F
:10255400EF510801125D04E10101EE510801115D22
:1025640001E208D010C411F811C412F812C413F80F
:1025740013C414F811C815F812C816F813C817F8BC
:1025840014C818F8FBC504F011C800F012C801F013
:1025940013C802F014C803F0045007E003320232F7
:1025A40001320032039EFF0FF8D7005004010C25BE
:1025B4000801446F015004010D210801456F0250C8
:1025C40004010E210801466F035004010F21080184
:1025D400476FF6C500F0F7C501F0F8C502F0F9C57C
:1025E40003F0010E005E000E015A025A035A005015
:1025F4001115046E01501215056E02501315066E66
:1026040003501415076E04C000F005C001F0003635
:1026140000900136003600900136F60E0024196F42
:10262400010E01201A6F55EC08F00050000A09E071
:10263400FF0E006EFF0E016EFF0E026E0F0E036E94
:102644006CD108011B6B19C8E9FF1AC8EAFFEECF69
:1026540001F0EECF02F0EECF03F0EECF04F0045021
:10266400000A08E10350000A05E10250000A02E1F1
:102674000150000A04E10801010E1B6FBFD00801DC
:10268400040E1927000E1A23010E1127000E12231F
:10269400132314230101F1510801145D0EE101011A
:1026A400F0510801135D09E10101EF510801125DC8
:1026B40004E10101EE510801115D76E310C411F843
:1026C40011C412F812C413F813C414F8A9EC01F0DD
:1026D4000050000A09E0FF0E006EFF0E016EFF0EAF
:1026E400026E0F0E036E19D1FBC504F011C800F081
:1026F40012C801F013C802F014C803F0045007E034
:102704000332023201320032039EFF0FF8D7005029
:1027140004010C250801446F015004010D21080136
:10272400456F025004010E210801466F0350040155
:102734000F210801476FF6C500F0F7C501F0F8C591
:1027440002F0F9C503F0010E005E000E015A025AB0
:10275400035A00501115046E01501215056E0250F3
:102764001315066E03501415076E04C000F005C05F
:1027740001F0003600900136003600900136F60E66
:102784000024196F010E01201A6F55EC08F0005057
:10279400000A09E0FF0E006EFF0E016EFF0E026ECE
:1027A4000F0E036EBAD01BD008011A51040142194E
:1027B40003E141510801191912E10801F60E196FDC
:1027C400010E1A6FFBDC0050000A09E0FF0E006ED8
:1027D400FF0E016EFF0E026E0F0E036E9ED00801F7
:1027E4001451181908E11351171905E1125116195A
:1027F40002E11151151901E101D025D7A9EC01F02D
:102804000050000A09E0FF0E006EFF0E016EFF0E7D
:10281400026E0F0E036E81D008011B5309E1FF0EF7
:10282400006EFF0E016EFF0E026E0F0E036E75D06A
:1028340019C8E1FF1AC8E2FFFF0EE66EFF0EE66E4E
:10284400FF0EE66E0F0EE66EFBC504F011C800F035
:1028540012C801F013C802F014C803F0045007E0D2
:102864000332023201320032039EFF0FF8D70050C8
:1028740004010C250801326F015004010D210801E7
:10288400336F025004010E210801346F0350040118
:102894000F210801356F6BEC0DF00050000A07E0C2
:1028A400FF0E006EFF0E016E026E036E36D0040141
:1028B4002151FF0A08E12051FF0A05E11F51FF0AD7
:1028C40002E11E51FF0A16E01EC400F01FC401F00D
:1028D40020C402F021C403F0010E005E000E015A70
:1028E400025A035A00C01EF401C01FF402C020F4AF
:1028F40003C021F411C822F412C823F413C824F429
:1029040014C825F4010E0501FA6F11C800F012C8AD
:0C29140001F013C802F014C803F0120018
:1029200004014051FF0A08E13F51FF0A05E13E5111
:10293000FF0A02E13D51FF0A05E1F60E266FFF0E88
:10294000006E7BD227C413F828C414F829C415F8E4
:102950002AC416F813512A5D08E11251295D05E1D8
:102960001151285D02E11051275D15E30101F1517C
:102970000801165D0EE10101F0510801155D09E144
:102980000101EF510801145D04E10101EE5108015C
:10299000135D01E206D0F40E0401266FFF0E006EF7
:1029A0004CD208011D6B69C600F03DC401F03EC465
:1029B00002F03FC403F040C404F0005007E00432CA
:1029C000033202320132049EFF0FF8D70450000890
:1029D00009E10350000806E10250000803E1080184
:1029E00001501D5D56E213C8B1F814C8B2F815C8FD
:1029F000B3F816C8B4F8C0EC02F000C013F801C078
:102A000014F802C015F803C016F803500F0A08E1C5
:102A10000250FF0A05E10150FF0A02E10050FF0ADF
:102A200006E1F10E0401266FFF0E006E06D20401CE
:102A300013510801165D0EE1040112510801155DE4
:102A400009E1040111510801145D04E10401105170
:102A50000801135D15E30101F1510801165D0EE156
:102A60000101F0510801155D09E10101EF51080173
:102A7000145D04E10101EE510801135D01E206D08D
:102A8000F40E0401266FFF0E006ED7D108011D2B36
:102A90008AD72BC400F02CC401F02DC402F02EC440
:102AA00003F0010E005E000E015A025A035A005054
:102AB00004013D150801196F015004013E1508017C
:102AC0001A6F025004013F1508011B6F03500401E7
:102AD000401508011C6F13C8B1F814C8B2F815C826
:102AE000B3F816C8B4F86AEC02F06AC608F019C860
:102AF00004F01AC805F01BC806F01CC807F00850FF
:102B000007E00732063205320432079EFF0FF8D77E
:102B1000045000240801446F05500120456F065001
:102B20000220466F07500320476FFCC500F0FDC52B
:102B300001F0FEC502F0FFC503F0010E005E000EBD
:102B4000015A025A035A00501915046E01501A1501
:102B5000056E02501B15066E03501C15076E050E00
:102B6000026E04C000F005C001F0025005E000361E
:102B700000900136FF0FFAD70801F60E0024176FF8
:102B8000010E0120186F55EC08F00050000A03E018
:102B9000FF0E006E52D117C8E9FF18C8EAFFEECF4A
:102BA00001F00150E50A0AE017C8E9FF18C8EAFF7A
:102BB000EECF01F0200E015C01E318D017C8E9FF49
:102BC00018C8EAFFEECF01F0140E015C0EE20B0E06
:102BD00008011725E96E000E1821EA6E3F0EEE146B
:102BE000016E01500F0A01E101D096D0A9EC01F06D
:102BF0000050000A03E0FF0E006E1FD10B0E08010B
:102C00001725E96E000E1821EA6EEECF01F001A63D
:102C10002ED011C844F812C845F8466B100E476F05
:102C2000010E486F8BEC09F0FF0E11251E6F000E90
:102C300012211F6F0B0E1725446F000E1821456FD0
:102C400084EC09F01EC8E1FF1FC8E2FF00C0E6FFE8
:102C500011C89AF812C89BF817C89CF818C89DF8B4
:102C60000B0E9E6F000E9F6F73EC03F04BD0115153
:102C7000121148E017C832F818C833F811C834F8F0
:102C800012C835F827C436F828C437F829C438F8EC
:102C90002AC439F83DC43AF83EC43BF83FC43CF876
:102CA00040C43DF82CEC11F00050000A03E0FF0E88
:102CB000006EC3D017C832F818C833F87BEC0EF09A
:102CC00017C832F818C833F8AEEC0DF0080E11250D
:102CD000E16E010E1221E26E27C4E6FF28C4E6FF72
:102CE00029C4E6FF2AC4E6FF0C0E1125E16E010E91
:102CF0001221E26E3DC4E6FF3EC4E6FF3FC4E6FF9C
:102D000040C4E6FF010E04013D27000E3E233F2391
:102D10004023010E006E91D0010E08011927000E0C
:102D20001A231B231C23200E1725016E000E1821C9
:102D3000026E01C017F802C018F8010E04013D2709
:102D4000000E3E233F2340230250421902E141512D
:102D50000118D8A471D0F60E0801176F010E186F74
:102D60001C5104012E190EE108011B5104012D19FB
:102D700009E108011A5104012C1904E10801195153
:102D800004012B1951E1A9EC01F00050000A03E005
:102D9000FF0E006E52D00801196B1A6B1B6B1C6B77
:102DA00013C8B1F814C8B2F815C8B3F816C8B4F807
:102DB000C0EC02F000C013F801C014F802C015F80E
:102DC00003C016F803500F0A08E10250FF0A05E19C
:102DD0000150FF0A02E10050FF0A0BE1FF0E04015F
:102DE0003D6FFF0E3E6FFF0E3F6FFF0E406F006A9C
:102DF00024D013C8B1F814C8B2F815C8B3F816C86F
:102E0000B4F86AEC02F000C044F801C045F802C012
:102E100046F803C047F855EC08F00050000A03E0FC
:102E2000FF0E006E0AD008D0E0EC10F00050000A4F
:0C2E300003E0FF0E006E01D0AED61200D1
:102E3C00160E08011125006E000E1221016E010EF6
:102E4C000024E16E000E0120E26EDAC500F00036BF
:102E5C000090003600900036009000C0E6FF160E81
:102E6C001125006E000E1221016E010E0024026E5F
:102E7C00000E0120036EDBC500F00032009E003214
:102E8C00009E0032009E02C0E9FF03C0EAFFEE5034
:102E9C00002602C0E1FF03C0E2FF00C0E6FF160EF1
:102EAC001125E16E000E1221E26E050E016EDBC5DE
:102EBC0000F0015004E000360090FF0FFBD700C07B
:102ECC00E6FF160E1125026E000E1221036EDCC5F4
:102EDC0000F00032009E02C0E9FF03C0EAFFEE5092
:102EEC00002602C0E1FF03C0E2FF00C0E6FF180E9F
:102EFC001125006E000E1221016E010E0024E16EF0
:102F0C00000E0120E26EBC0E0501D65D026E02C001
:102F1C0000F00036009000C0E6FF180E08011125E5
:102F2C00006E000E1221016E010E0024026E000EC6
:102F3C000120036ED8C500F00032009E0032009EC6
:102F4C000032009E02C0E9FF03C0EAFFEE500026EB
:102F5C0002C0E1FF03C0E2FF00C0E6FF180E11251E
:102F6C00E16E000E1221E26E050E016ED8C500F066
:102F7C00015004E000360090FF0FFBD700C0E6FFC5
:102F8C00180E1125016E000E1221026E01C0E9FF10
:102F9C0002C0EAFF0501D951EE24006E01C0E1FF29
:0C2FAC0002C0E2FF00C0E6FF006A120055
:102FB80079EC0BF0F60E0801126F010E136F040185
:102FC8002651FF0A03E1FF0E006E79D22651FC0A52
:102FD80003E1FF0E006E73D22651000AD8A466D012
:102FE8000F0E0301F715016E01C014F801500B0A0A
:102FF8000AE0080114510C0A06E0F80E0401266FD5
:10300800FF0E006E5CD2F8C3B5F8F9C3B6F8FAC380
:10301800B7F8FBC3B8F8D6EC01F00050000A03E09B
:10302800FF0E006E4CD2F60E0801126F010E136FE0
:10303800FE0E1225446F010E1321456F5FEC09F057
:103048000150AA0A02E1550E001806E0FC0E040120
:10305800266FFF0E006E33D212C8E9FF13C8EAFFCD
:10306800EECF01F00150E90A16E012C8E9FF13C8D3
:10307800EAFFEECF01F00150EB0A0BE1020E080166
:103088001225E96E000E1321EA6EEE50900A01E156
:1030980002D0006A02D0010E006E005206E1FB0E5B
:1030A8000401266FFF0E006E0AD21ED004012651BD
:1030B800FB0A1AE1800E0301F66FF86BF96BFA6BE5
:1030C800FB6B200E08011225446F000E1321456F7B
:1030D800D2EC08F000C0FCF301C0FDF302C0FEF31F
:1030E80003C0FFF30401266B04012651000AD8A48B
:1030F800E1D10B0E08011225446F000E1321456F14
:103108005FEC09F000C000F401C001F40D0E1225B7
:10311800446F000E1321456F84EC09F000C002F4DF
:103128000E0E1225446F000E1321456F5FEC09F057
:1031380000C003F401C004F4100E1225446F000E01
:103148001321456F84EC09F000C005F4240E122504
:10315800446F000E1321456FD2EC08F000C006F44E
:1031680001C007F402C008F403C009F4280E1225B0
:10317800446F000E1321456F5FEC09F000C00AF49C
:1031880001C00BF4040103510301F825006E04018A
:1031980004510301F921016E000EFA21026E000E9E
:1031A800FB21036E00C00CF401C00DF402C00EF444
:1031B80003C00FF42C0E08011225446F000E1321D2
:1031C800456FD2EC08F000C010F401C011F402C041
:1031D80012F403C013F4110E1225446F000E1321CC
:1031E800456F5FEC09F000C014F401C015F4300E0F
:1031F8001225446F000E1321456F5FEC09F0000E95
:10320800026E036E0301F8510026F9510122FA51AA
:103218000222FB51032200C01AF401C01BF402C0B1
:103228001CF403C01DF40CC416F40DC417F40EC42A
:1032380018F40FC419F40801116B040105510801B1
:10324800115D18E2040106511625006E0751172179
:10325800016E08511821026E09511921036E00C030
:1032680016F401C017F402C018F403C019F40801D9
:10327800112BE3D7050E006E00C4FCF501C4FDF563
:10328800000E0501FE6FFF6F005005E0FD33FC33B3
:10329800FD9FFF0FFAD7000EFE6FFF6F00C4F6F513
:1032A80001C4F7F5000EF86FF96FF733F633F79F9F
:1032B800F733F633F79F000EF86FF96F00C432F852
:1032C80001C433F8000E0801346F356F45EC0EF079
:1032D80000C06BF602C432F8000E0801336F346F79
:1032E800356F45EC0EF000C0D5F5FCC532F8FDC5CC
:1032F80033F8FEC534F8FFC535F845EC0EF000C0CC
:103308006AF6F6C532F8F7C533F8F8C534F8F9C5E2
:1033180035F845EC0EF000C0FBF50501D551060166
:103328006B25006E00C06CF6010E6D6F000E6E6F9F
:10333800000E6F6F000E706F005007E06D376D91D3
:103348006E376F377037FF0FF8D7200E0801326FCE
:10335800000E336F346F356F45EC0EF000500601E8
:103368006C5D006E016A000E00BEFF0E015A00C0BF
:1033780004F0010E006E000E016E000E026E000ECB
:10338800036E045007E0003600900136023603361B
:10339800FF0FF8D700C02BF401C02CF402C02DF4A5
:1033A80003C02EF400C032F801C033F802C034F86C
:1033B80003C035F845EC0EF000C069F610C427F4D8
:1033C80011C428F412C429F413C42AF404013D6B6F
:1033D8003E6B3F6B406B16C400F017C401F018C475
:1033E80002F019C403F00301F851005EF951015AC3
:1033F800FA51025AFB51035AFCC3EEF1FDC3EFF137
:10340800FEC3F0F1FFC3F1F100500101EE5F01507E
:10341800EF5B0250F05B0350F15BD5C500F0005044
:1034280007E0F133F033EF33EE33F19FFF0FF8D7B6
:10343800020EEE27000EEF23F023F1230301F753CA
:1034480025E1000E0101F15D08E1000EF05D05E1E6
:10345800FF0EEF5D02E1F70EEE5D04E30B0E0301D4
:10346800F76F14D0000E0101F15D08E1000EF05D68
:1034780005E10F0EEF5D02E1F70EEE5D04E3060EC7
:103488000301F76F03D00301010EF76F0F0EF71555
:10349800016E01C014F801500B0A0AE0080114512A
:1034A8000C0A06E0F80E0401266FFF0E006E07D026
:1034B800006A05D00401FB0E266FFF0E006E120095
:1034C8001A0E08011125E16E000E1221E26E13C8D2
:1034D800E6FF1A0E1125006E000E1221016E010E74
:1034E8000024E16E000E0120E26E14C8E6FF140EFF
:1034F8001125E16E000E1221E26E15C8E6FF140ECA
:103508001125006E000E1221016E010E0024E16EDD
:0E351800000E0120E26E16C8E6FF006A1200E7
:10352600FBC504F015C800F016C801F017C802F074
:1035360018C803F0045007E00332023201320032A9
:10354600039EFF0FF8D700C01AF801C01BF802C08F
:103556001CF803C01DF804010C510024086E0D511F
:103566000120096E0E5102200A6E0F5103200B6EC8
:1035760008C01AF809C01BF80AC01CF80BC01DF8D1
:10358600F6C500F0F7C501F0F8C502F0F9C503F07D
:10359600010E005E000E015A025A035A005008013D
:1035A6001515046E01501615056E02501715066E98
:1035B60003501815076E04C000F005C001F0003670
:1035C60000900136003600900136F60E0024226F78
:1035D600010E0120236F08C0B5F809C0B6F80AC06D
:1035E600B7F80BC0B8F8D6EC01F00050000A03E0BB
:1035F600FF0E006E46D022C8E1FF23C8E2FF11C8C5
:10360600E6FF12C8E6FF13C8E6FF14C8E6FF1AC8AD
:103616001EF81BC81FF81CC820F81DC821F8080191
:10362600196B040105510801195D22E21EC832F822
:103636001FC833F820C834F821C835F86BEC0DF0F4
:103646000050000A03E0FF0E006E1BD00401065175
:1036560008011E270401075108011F230401085110
:10366600080120230401095108012123192BD9D768
:103676001AC8F2F11BC8F3F11CC8F4F11DC8F5F124
:04368600006A1200C4
:10368A000E0E08011125006E000E1221016E010EA8
:10369A000024E16E000E0120E26EDAC500F0003669
:1036AA000090003600900036009000C0E6FF0E0E33
:1036BA001125006E000E1221016E010E0024026E09
:1036CA00000E0120036EDBC500F00032009E0032BE
:1036DA00009E0032009E02C0E9FF03C0EAFFEE50DE
:1036EA00002602C0E1FF03C0E2FF00C0E6FF0E0EA3
:1036FA001125E16E000E1221E26E050E016EDBC588
:10370A0000F0015004E000360090FF0FFBD700C024
:10371A00E6FF0E0E1125026E000E1221036EDCC5A5
:10372A0000F00032009E02C0E9FF03C0EAFFEE503B
:10373A00002602C0E1FF03C0E2FF00C0E6FF100E50
:10374A001125006E000E1221016E010E0024E16E99
:10375A00000E0120E26EBC0E0501D65D026E02C0AB
:10376A0000F00036009000C0E6FF100E0801112597
:10377A00006E000E1221016E010E0024026E000E70
:10378A000120036ED8C500F00032009E0032009E70
:10379A000032009E02C0E9FF03C0EAFFEE50002695
:1037AA0002C0E1FF03C0E2FF00C0E6FF100E1125D0
:1037BA00E16E000E1221E26E050E016ED8C500F010
:1037CA00015004E000360090FF0FFBD700C0E6FF6F
:1037DA00100E1125016E000E1221026E01C0E9FFC2
:1037EA0002C0EAFF0501D951EE24006E01C0E1FFD3
:0C37FA0002C0E2FF00C0E6FF006A1200FF
:1038060027C415F828C416F829C417F82AC418F8C6
:1038160004013D6B3E6B3F6B406B04011351080185
:10382600185D0EE1040112510801175D09E104015A
:1038360011510801165D04E1040110510801155DDE
:1038460015E30101F1510801185D0EE10101F05186
:103856000801175D09E10101EF510801165D04E158
:103866000101EE510801155D01E206D0F40E0401D6
:10387600266FFF0E006EF7D0F60E08011D6F010EC3
:103886001E6F15C8B1F816C8B2F817C8B3F818C82D
:10389600B4F86AEC02F000C044F801C045F802C072
:1038A60046F803C047F855EC08F00050000A03E05C
:1038B600FF0E006ED8D00801196B1A6B1B6B1C6BC0
:1038C60004012E5108011C5D0EE104012D51080171
:1038D6001B5D09E104012C5108011A5D04E1040194
:1038E6002B510801195DD8B095D01E51040142191B
:1038F60003E1415108011D190DE10801F60E1D6F86
:10390600010E1E6FE0EC10F00050000A03E0FF0EFF
:10391600006EA9D01DC832F81EC833F811C834F895
:1039260012C835F80B0E0801366F000E376F3EECE5
:103936000FF0000E011802E1000E001858E1A9EC84
:1039460001F00050000A03E0FF0E006E8CD0080163
:10395600135114113DE01DC832F81EC833F813C8C0
:1039660034F814C835F827C436F828C437F829C4FB
:1039760038F82AC439F83DC43AF83EC43BF83FC487
:103986003CF840C43DF82CEC11F00050000A03E06E
:10399600FF0E006E68D0080E08011325E16E010EB9
:1039A6001421E26E27C4E6FF28C4E6FF29C4E6FF19
:1039B6002AC4E6FF0C0E1325E16E010E1421E26EF9
:1039C6003DC4E6FF3EC4E6FF3FC4E6FF40C4E6FF53
:1039D6001DC832F81EC833F87BEC0EF01DC832F84D
:1039E6001EC833F8AEEC0DF0010E006E3CD0080197
:1039F600200E1D27000E1E23010E1927000E1A2366
:103A06001B231C23010E04013D27000E3E233F23EA
:103A1600402356D7A9EC01F00050000A03E0FF0E40
:103A2600006E21D015C8B1F816C8B2F817C8B3F899
:103A360018C8B4F8C0EC02F000C015F801C016F8BA
:103A460002C017F803C018F803500F0A08E1025025
:103A5600FF0A05E10150FF0A02E10050FF0A02E1F8
:083A6600006A01D0DAD612005B
:103A6E003DC429F83EC42AF83FC42BF840C42CF8B4
:103A7E0027C486F828C487F829C488F82AC489F888
:103A8E003DC48AF83EC48BF83FC48CF840C48DF810
:103A9E002D0E08018E6F080E8F6F21EC07F000506F
:103AAE00000A03E0FF0E006E79D1FCC500F0FDC5E3
:103ABE0001F0FEC502F0FFC503F0010E005E000E20
:103ACE00015A025A035A005004013D15046E01506A
:103ADE003E15056E02503F15066E03504015076EDB
:103AEE0004C025F805C026F806C027F807C028F838
:103AFE00050E026E04C000F005C001F0025005E094
:103B0E00003600900136FF0FFAD7F60E002408019A
:103B1E00866F010E0120876F010E146F2EEC05F0DB
:103B2E0000C015F8010E04013D5F000E3E5B3F5BC9
:103B3E00405B000E006E0801281908E1005027199D
:103B4E0005E10050261902E12551000A2BE12BC494
:103B5E0025F82CC426F82DC427F82EC428F8010EFB
:103B6E00255F000E265B275B285B27C486F828C4DA
:103B7E0087F829C488F82AC489F83DC48AF83EC457
:103B8E008BF83FC48CF840C48DF82D0E8E6F080E46
:103B9E008F6F21EC07F00050000A03E0FF0E006E5D
:103BAE00FDD007D0010E0801255F000E265B275BB6
:103BBE00285B0801FCC500F0FDC501F0FEC502F052
:103BCE00FFC503F0010E005E000E015A025A035AA1
:103BDE0000502515046E01502615056E025027154E
:103BEE00066E03502815076E050E026E04C000F017
:103BFE0005C001F0025005E0003600900136FF0FBF
:103C0E00FAD7F60E0026010E012200C023F801C0DD
:103C1E0024F80B0E0024E96E000E0120EA6E3F0E12
:103C2E00EE14016E01500F0A06E0C00E0401266F5D
:103C3E00FF0E006EB3D00D0E08012325E96E000EA7
:103C4E002421EA6EEE50151906E0C10E0401266F0E
:103C5E00FF0E006EA3D023C8E9FF24C8EAFFEECF03
:103C6E0000F01F0E0014016E01500801141906E039
:103C7E00C20E0401266FFF0E006E90D023C886F888
:103C8E0024C887F8160E0801886F080E896F58EC45
:103C9E0005F0136B160EE96E080EEA6E1351E92647
:103CAE00D8B0EA2AEECF32F88CEC0FF000C031F823
:103CBE001405006E016A000E015A0D0E046E000E00
:103CCE00056E27EC06F013510026000E012200505F
:103CDE001125E96E01501221EA6EEECF32F88CEC0E
:103CEE000FF0315100180AE029C83DF42AC83EF4FD
:103CFE002BC83FF42CC840F4006A50D0132B0D0E85
:103D0E00135D0CE2160EE96E080EEA6E1351E926EB
:103D1E00D8B0EA2AEE50000A01E0BCD70D0E135DB2
:103D2E002AE2160EE96E080EEA6E1351E926D8B095
:103D3E00EA2A1405006E016A000E015A0D0E046E79
:103D4E00000E056E27EC06F013510026000E012220
:103D5E0000501125D96E01501221DA6EEE50DE1888
:103D6E000AE029C83DF42AC83EF42BC83FF42CC8FB
:103D7E0040F4006A13D0142B23C8E9FF24C8EAFFCD
:103D8E00EECF01F001ACCED629C83DF42AC83EF4E0
:0E3D9E002BC83FF42CC840F4010E006E12003A
:103DAC00010E0801156F166B176B186B196B1A6BDC
:103DBC001B6B11C8E9FF12C8EAFFEE50000A06E1BE
:103DCC00C40E0401266FFF0E006EEED011C832F83F
:103DDC0012C833F897EC0FF000C014F8136B11C82D
:103DEC0032F812C833F897EC0FF0800E026E800E8A
:103DFC000118025C02E10050135D15E2135111250C
:103E0C00E96E000E1221EA6EEECF32F86FEC0FF075
:103E1C00005206E1C30E0401266FFF0E006EC4D0E3
:103E2C000801132BDCD71405006E000E14BFFF0E17
:103E3C00016E000E015A00501125E96E015012213D
:103E4C00EA6EEE502E0A02E11407EDD7800E000A3E
:103E5C00006E800E1419005C06E3E20E0401266F5E
:103E6C00FF0E006EA1D011C832F812C833F897ECCF
:103E7C000FF0800E14BF7F0E026E800E0118025CD4
:103E8C0002E10050145D09E214511125E16E000E9F
:103E9C0014BFFF0E1221E26EE66A136B800E006EE9
:103EAC00800E14BF7F0E005C02E11451135D12E210
:103EBC0013511125E96E000E1221EA6EEECF44F873
:103ECC00B5EC08F0005203E0010E006E6DD0080155
:103EDC00132BE4D7800E0C0A006E800E1419005CB4
:103EEC0003E2010E006E60D0136B800E006E800E2C
:103EFC0014BF7F0E005C02E11451135D3FE21351BD
:103F0C001125E96E000E1221EA6EEECFB1F85EECCF
:103F1C0002F0005203E0010E166F29D01351112547
:103F2C00E96E000E1221EA6EEECFB1F842EC02F00F
:103F3C00005203E0010E176F1AD013511125E96ED0
:103F4C00000E1221EA6EEE502E0A11E119530CE10B
:103F5C00165304E0175302E0010E186F010E196F8F
:103F6C00156B166B176B08D0010E006E1DD0155318
:103F7C0002E01A2B01D01B2B132BB7D7165304E0DE
:103F8C00175302E0010E186F1A51080804E31B5175
:103F9C00030801E303D0010E006E06D0185303E0B2
:0A3FAC00020E006E01D0006A120040
:103FB60011C832F812C833F897EC0FF000C016F8A3
:103FC60001C017F813C832F814C833F897EC0FF08D
:103FD6001751011802E10050161902E0006A2FD0AD
:103FE600156B13C832F814C833F897EC0FF0800E2F
:103FF600026E800E0118025C02E10050155D1DE2A2
:1040060015511125E96E000E1221EA6EEECF32F837
:104016008CEC0FF000C016F815511325E96E000E52
:104026001421EA6EEECF32F88CEC0FF01651001820
:1040360002E0006A04D0152BD4D7010E006E1200E0
:10404600086A080E0C6E003408360450085ED8B0B4
:0E40560002D00826D89000360C2EF5D71200A6
:104064000450000A12E10550000A0FE10650000A4C
:104074000CE10750000A09E1FF0E006EFF0E016E0D
:10408400FF0E026E7F0E036E99D00C6A07BE0C2AD7
:104094000D6A0B6A0A6A096A086A03500210011061
:1040A4000010D8B485D0035007180E6E0EBE0D1E36
:1040B40007AE0BD0041E051E061E071E042AD8B424
:1040C400052AD8B4062AD8B4072A03AE0BD0001E9A
:1040D400011E021E031E002AD8B4012AD8B4022AE3
:1040E400D8B4032A035007100E6E0EBE1DD0B4ECD4
:1040F4000FF00CBE36D00DAE5BD0001E011E021EAA
:10410400031E002AD8B4012AD8B4022AD8B4032A38
:10411400081E091E0A1E0B1E082AD8B4092AD8B480
:104124000A2AD8B40B2A44D007AE15D003BE0DD04A
:1041340003500B6E02500A6E0150096E0050086E57
:10414400036A026A016A006AD6D7036A026A016ACC
:10415400006A002A000C031E021E011E001E0C8EA3
:10416400C6D7082AD8B4092AD8B40A2AD8B40B2A3C
:104174000450085CD8A4BFD70550095CD8A4BBD7A9
:1041840006500A5CD8A4B7D707500B5CD8A4B3D7A1
:104194000B6A0A6A096A086A002AD8B4012AD8B4E0
:1041A400022AD8B4032A03AEA6D70E6A0E88FF0CDF
:0E41B4000E6A0CA002D080EC0FF0000F12007B
:1041C2000450000A08E10550000A05E1FF0E006EE6
:1041D2007F0E016E58D00D6A096A086A01500010FC
:1041E200D8B4000C015005180A6E0ABE0D1E0B6AE7
:1041F20005AE05D0041E051E042AD8B4052A01AE58
:1042020005D0001E011E002AD8B4012A0150051053
:104212000A6E0ABE10D012EC0FF00BB020D00DAE19
:10422200000C001E011E002AD8B4012A081E091E15
:10423200082AD8B4092A000C05AE0DD001BE07D059
:104242000150096E0050086E016A006AE8D7016ADF
:10425200006A002A000C011E001E0B2ADDD7082A64
:10426200D8B4092A0450085CD8A4D9D70550095CEF
:10427200D8A4D5D7096A086A002AD8B4012A01AE9F
:08428200CED70000FF0C120072
:10428A001C0E0701F025E16E000EF121E26EF2C765
:10429A00E6FF1C0EF025006E000EF121016E010EE4
:1042AA000024E16E000E0120E26EF3C7E6FF1C0E49
:1042BA00F025006E000EF121016E020E0024E16E5F
:1042CA00000E0120E26EF4C7E6FF1C0EF025006E18
:1042DA00000EF121016E030E0024E16E000E012092
:0A42EA00E26EF5C7E6FF006A12005D
:0E42F400ACB202D00000FCD7F0C7ADFF120044
:104302000501FA5302E1006A65D0F60E0701F06F6B
:10431200010EF16FF60E0801446F010E456F466BF8
:10432200000E476F020E486F8BEC09F0F0C7E1FFF9
:10433200F1C7E2FF520EE66E520EE66E610EE66EB7
:10434200410EE66EE40E0701F025E16E010EF12149
:10435200E26E720EE66E720EE66E410EE66E610E51
:10436200E66EE80EF025E16E010EF121E26E1EC44A
:10437200E6FF1FC4E6FF20C4E6FF21C4E6FFEC0E01
:10438200F025E16E010EF121E26E22C4E6FF23C4A4
:10439200E6FF24C4E6FF25C4E6FFFE0EF025E16E2B
:1043A200010EF121E26E550EE66EAA0EE66E1AC4F9
:1043B20032F81BC433F81CC434F81DC435F86BEC56
:1043C2000DF00050000A03E0FF0E006E03D005015D
:0643D200FA6B006A120004
:1043D800DCEC17F0F60E0701F06F010EF16FF60E28
:1043E800F26F010EF36F04012651FF0A03E1FF0E7D
:1043F800006EB3D02651FC0A03E1FF0E006EADD06B
:104408002651000AD8A4A4D0300E0701F0250801CF
:10441800446F000E0701F1210801456F5FEC09F0B8
:1044280000500301F8250801B56F01500301F92177
:104438000801B66F000E0301FA210801B76F000EDC
:104448000301FB210801B86FD6EC01F00050000A07
:1044580003E0FF0E006E81D0F60E0701F26F010E29
:10446800F36FFE0EF2250801446F010E0701F321D8
:104478000801456F5FEC09F00150AA0A02E1550EE8
:10448800001806E0FC0E0401266FFF0E006E65D0D2
:10449800F2C744F8F3C745F8D2EC08F00350410AD4
:1044A80008E10250610A05E10150520A02E1005098
:1044B800520A06E0FA0E0401266FFF0E006E4DD078
:1044C800E40E0701F2250801446F010E0701F321EC
:1044D8000801456FD2EC08F00350610A08E1025068
:1044E800410A05E10150720A02E10050720A06E031
:1044F800FA0E0401266FFF0E006E2FD0E80E07019A
:10450800F2250801446F010E0701F3210801456FE8
:10451800D2EC08F000C01EF401C01FF402C020F461
:1045280003C021F4EC0E0701F2250801446F010EC7
:104538000701F3210801456FD2EC08F000C022F40E
:1045480001C023F402C024F403C025F4006A05D096
:0C455800FA0E0401266FFF0E006E120028
:10456400D60E0801446F050E456F466B070E476F64
:10457400000E486F8BEC09F02F0E446F040E456F4C
:10458400466B070E476F000E486F8BEC09F0360E32
:10459400446F040E456F466B070E476F000E486F5D
:1045A4008BEC09F0F60E446F030E456F466B300E2C
:1045B400476F000E486F8BEC09F0F20E446F010E4A
:1045C400456F466B040E476F020E486F8BEC09F083
:1045D400010E446F060E456F466B040E006E000E0E
:1045E400016E1A0E0002F3CF47F8F4CF48F88BECB3
:1045F40009F0C90E446F050E456F466B0C0E476FEC
:10460400000E486F8BEC09F0FF0E0101F26FFF0EF4
:10461400F36FFF0EF46FFF0EF56FF60E0401416F9A
:10462400030E426F0601006B0501FA6B0101EE6B8C
:10463400EF6BF06BF16B0401276B286B296B2A6B12
:104644003D6B3E6B3F6B406B0501DD6B430EC96FE9
:064654000401266B1200B8
:10465A00D0EC11F0000E001803E0FF0E006E01D03E
:04466A00006A1200D0
:10466E00F0C7E9FFF1C7EAFFEE50000A06E1C40EFB
:10467E000401266FFF0E006EB4D0040127C4F4F7B8
:10468E0028C4F5F729C4F6F72AC4F7F73D6B3E6B3D
:10469E003F6B406B0701FD6BF2C711F8F3C712F8C1
:1046AE0090EC14F00050010AD8A492D0FF0E07012E
:1046BE00F225E96E000EF321EA6E3F0EEE14016E46
:1046CE0001500F0A03E1010EFD6FE6D7010E040142
:1046DE003D5F000E3E5B3F5B405B0701FD533BE0E1
:1046EE00F0C711F8F1C712F837EC1DF000C0FCF757
:1046FE000050FF0A03E1FF0E006E73D00701FC515C
:10470E00010A28E127C486F828C487F829C488F846
:10471E002AC489F83DC48AF83EC48BF83FC48CF88D
:10472E0040C48DF8F80E08018E6F070E8F6F21ECC6
:10473E0007F00050000A03E0FF0E006E52D0F4C7DF
:10474E0027F4F5C728F4F6C729F4F7C72AF4010EA3
:10475E00006E47D033D0F2C711F8F3C712F8F0C786
:10476E0013F8F1C714F820DC0050010A27E127C422
:10477E0086F828C487F829C488F82AC489F83DC465
:10478E008AF83EC48BF83FC48CF840C48DF8F80EFE
:10479E008E6F070E8F6F21EC07F00050000A03E0BA
:1047AE00FF0E006E1ED0F4C727F4F5C728F4F6C727
:1047BE0029F4F7C72AF4010E006E13D0010E04017E
:1047CE003D27000E3E233F2340230701FD6B64D798
:1047DE00F4C727F4F5C728F4F6C729F4F7C72AF467
:0447EE00006A12004B
:0A47F2001D0E0D6E0D2EFED71200F5
:1047FC00086A096A100E0C6E01340836093604502A
:10480C00085E0550D8A0053C095ED8B007D004500E
:10481C0008260550D8B0053C0926D890003601363C
:06482C000C2EEAD7120079
:10483200800E0701F019006E800E000A005C0CE386
:10484200800EF0BF7F0E006E000E800A005C02E157
:10485200040EF05D01E206D0D80E0401266FFF0EB1
:10486200006E67D11A0E006E000E016EF0C704F0E2
:10487200000E0701F0BFFF0E056E27EC06F0010ED9
:104882000026060E012200C0F9F701C0FAF7180E41
:104892000024E96E000E0120EA6EEE50000A06E1E5
:1048A200DC0E0401266FFF0E006E43D1140E0701C9
:1048B200F925D96E000EFA21DA6EDECF01F0DECFD5
:1048C20002F0DECF03F0DECF04F0F451045C08E125
:1048D200F351035C05E1F251025C02E1F151015C2A
:1048E20006E2DB0E0401266FFF0E006E22D1100ECF
:1048F2000701F925E96E000EFA21EA6EEECF01F00A
:10490200EECF02F0EECF03F0EECF04F00450F41934
:1049120008E10350F31905E10250F21902E10150D6
:10492200F11902E1006A05D1100EF925E96E000EB7
:10493200FA21EA6EEECF01F0EECF02F0EECF03F0F5
:10494200EECF04F06CC600F001C005F002C006F024
:1049520003C007F004C008F0005007E00832073235
:1049620006320532089EFF0FF8D76CC600F0F1C779
:1049720001F0F2C702F0F3C703F0F4C704F00050ED
:1049820007E00432033202320132049EFF0FF8D7ED
:104992000850041808E10750031805E106500218F0
:1049A20002E10550011811E10701100EF925E16E2F
:1049B200000EFA21E26EF1C7E6FFF2C7E6FFF3C787
:1049C200E6FFF4C7E6FF006AB4D00701100EF9252E
:1049D200E16E000EFA21E26EF1C7E6FFF2C7E6FFD2
:1049E200F3C7E6FFF4C7E6FF100EF925E96E000EE5
:1049F200FA21EA6EEECF01F0EECF02F0EECF03F035
:104A0200EECF04F06CC600F001C0F5F702C0F6F775
:104A120003C0F7F704C0F8F7005007E0F833F733A4
:104A2200F633F533F89FFF0FF8D7040EF925E16E40
:104A3200000EFA21E26EF9C7E9FFFAC7EAFFEECFEC
:104A420000F0EECF01F0EECF02F0EECF03F000C0A7
:104A5200E6FF01C0E6FF02C0E6FF03C0E6FFF85131
:104A6200000808E1F751000805E1F651000802E1EB
:104A7200F55100085DE2040EF925FB6F000EFA21E4
:104A8200FC6FFBC7E9FFFCC7EAFFEECFB1F8EECF40
:104A9200B2F8EECFB3F8EECFB4F8C0EC02F0FBC739
:104AA200E1FFFCC7E2FF00C0E6FF01C0E6FF02C073
:104AB200E6FF03C0E6FF040E0701F925D96E000EDA
:104AC200FA21DA6EDECF01F0DECF02F0DECF03F0A4
:104AD200DECF04F00F0E041808E1FF0E031805E103
:104AE200FF0E021802E1FF0E01181AE1100EF9255D
:104AF200E16E000EFA21E26E140EF925E96E000E47
:104B0200FA21EA6EEECFE6FFEECFE6FFEECFE6FF4A
:104B1200EECFE6FFDB0E0401266FFF0E006E09D01A
:104B2200010E0701F55F000EF65BF75BF85B97D7A6
:044B3200006A120003
:104B3600F0C7E1FFF1C7E2FFF2C7E6FF006A120025
:104B4600F50E0801446F070E456FFF0E466F0D0EFA
:104B5600476F000E486F8BEC09F00701F46B0D0EE2
:104B6600F45D1CE2F50EE16E070EE26EF451E126ED
:104B7600D8B0E22AF451F225E96E000EF321EA6E6E
:104B8600EECFE6FFF451F225E96E000EF321EA6E50
:104B9600EE50000A01E102D0F42BE1D7010EF02518
:104BA600E16E000EF121E26EF5C7E6FF030EF02579
:104BB600E16E000EF121E26EF6C7E6FF050EF02566
:104BC600E16E000EF121E26EF7C7E6FF070EF02553
:104BD600E16E000EF121E26EF8C7E6FF090EF02540
:104BE600E16E000EF121E26EF9C7E6FF0E0EF0252A
:104BF600E16E000EF121E26EFAC7E6FF100EF02517
:104C0600E16E000EF121E26EFBC7E6FF120EF02503
:104C1600E16E000EF121E26EFCC7E6FF140EF025F0
:104C2600E16E000EF121E26EFDC7E6FF160EF025DD
:104C3600E16E000EF121E26EFEC7E6FF180EF025CA
:104C4600E16E000EF121E26EFFC7E6FF1C0EF025B5
:104C5600E16E000EF121E26E00C8E6FF1E0EF025A1
:104C6600E16E000EF121E26E01C8E6FFF451010F7C
:104C7600026E036A000E0322B7D0010EF025006E05
:104C8600000EF121016E010E0024E16E000E0120DE
:104C9600E26EFF0EE66E030EF025006E000EF121A9
:104CA600016E010E0024E16E000E0120E26EFF0E81
:104CB600E66E050EF025006E000EF121016E010E66
:104CC6000024E16E000E0120E26EFF0EE66E070E76
:104CD600F025006E000EF121016E010E0024E16E3A
:104CE600000E0120E26EFF0EE66E090EF025006E44
:104CF600000EF121016E010E0024E16E000E01206E
:104D0600E26EFF0EE66E0E0EF025006E000EF1212D
:104D1600016E010E0024E16E000E0120E26EFF0E10
:104D2600E66E100EF025006E000EF121016E010EEA
:104D36000024E16E000E0120E26EFF0EE66E120EFA
:104D4600F025006E000EF121016E010E0024E16EC9
:104D5600000E0120E26EFF0EE66E140EF025006EC8
:104D6600000EF121016E010E0024E16E000E0120FD
:104D7600E26EFF0EE66E160EF025006E000EF121B5
:104D8600016E010E0024E16E000E0120E26EFF0EA0
:104D9600E66E180EF025006E000EF121016E010E72
:104DA6000024E16E000E0120E26EFF0EE66E1C0E80
:104DB600F025006E000EF121016E010E0024E16E59
:104DC600000E0120E26EFF0EE66E1E0EF025006E4E
:104DD600000EF121016E010E0024E16E000E01208D
:104DE600E26EFF0EE66E58D0000E031802E1000ECA
:104DF6000218D8B442D7000E031802E1010E0218B9
:104E0600D8B449D7000E031802E1020E0218D8B42E
:104E160050D7000E031802E1030E0218D8B457D774
:104E2600000E031802E1040E0218D8B45ED7000E75
:104E3600031802E1050E0218D8B465D7000E031850
:104E460002E1060E0218D8B46CD7000E031802E170
:104E5600070E0218D8B473D7000E031802E1080E25
:104E66000218D8B47AD7000E031802E1090E021808
:104E760082E0000E031802E10A0E02188AE0000E14
:104E8600031802E10B0E021892E0000E031802E16D
:0C4E96000C0E02189AE0A7D7006A120068
:104EA2000D0E0701F025E16E000EF121E26EF2C750
:064EB200E6FF006A120099
:104EB8000B0E0701F025E16E000EF121E26EF2C73C
:064EC800E6FF006A120083
:104ECE00050151510701F025016E050152510701EF
:104EDE00F121026E0250010802E101500E0806E2B5
:104EEE00BE0E0401266FFF0E006E01D0006A120086
:104EFE00F0C7E9FFF1C7EAFFEE50000A07E1C40E62
:104F0E000401266FFF0E006E99EF2EF0F2C744F8E3
:104F1E00F3C745F8200E0801466F0B0E476F000EC3
:104F2E00486F8BEC09F0F0C7E9FFF1C7EAFFEE50CE
:104F3E002E0A13E1010E0701F025E96E000EF12194
:104F4E00EA6EEE50000A09E1F2C7E1FFF3C7E2FF95
:104F5E002E0EE66E006A99EF2EF0F0C7E9FFF1C74C
:104F6E00EAFFEE502E0A24E10701010EF025E96E4C
:104F7E00000EF121EA6EEE502E0A1AE1020EF02515
:104F8E00E96E000EF121EA6EEE50000A11E1F2C751
:104F9E00E1FFF3C7E2FF2E0EE66E010EF225E16E83
:104FAE00000EF321E26E2E0EE66E006A99EF2EF0E1
:104FBE00F0C7E9FFF1C7EAFFEE502E0A07E1E20E55
:104FCE000401266FFF0E006E99EF2EF0F0C732F837
:104FDE00F1C733F897EC0FF000C002F801C003F8E8
:104FEE00F0C711F8F1C712F8D6EC1EF000C0FFF7AB
:104FFE000050FF0A04E1FF0E006E99EF2EF0010E35
:10500E000801025D006E000E0359016E005007018B
:10501E00F025E96E0150F121EA6EEE502E0A12E0F3
:10502E00010E0801025D006E000E0359016E005064
:10503E000701F025E96E0150F121EA6EEE50200ACB
:10504E0001E01AD0800E006E800E08010319005C7C
:10505E0002E10251000810E202510701F025E16E53
:10506E00080103510701F121E26EE66A010E080103
:10507E00025F000E035BC3D70801000E031902E1A5
:10508E00000E021904E1FF0E006E99EF2EF0000ED5
:10509E000701FFBFFF0E006E000E001802E1000EAA
:1050AE00FF190BE0000EFFBFFF0E006E000E001882
:1050BE0002E1020EFF1901E097D0FA6BF96B080EB0
:1050CE00F95D32E2FA51F025E96E000EF121EA6E39
:1050DE00EE502E0A0AE0FA51F025E96E000EF1218B
:1050EE00EA6EEE50000A01E001D01ED0F951F22511
:1050FE000801046F000E0701F3210801056F070177
:10510E00FA51F025E96E000EF121EA6EEECF32F87B
:10511E008CEC0FF004C8E1FF05C8E2FF00C0E6FF0B
:10512E000701FA2BF92BCBD7FA51F025E96E000EB9
:10513E00F121EA6EEE50000A0BE1F2C711F8F3C747
:10514E0012F80801136B146B03EC1CF099EF2EF0A0
:10515E000701FA51F025E96E000EF121EA6EEE50CC
:10516E002E0A02E1FA2B07D0E20E0401266FFF0E83
:10517E00006E99EF2EF0080E0701F96F0B0EF95D18
:10518E0028E2FA51F025E96E000EF121EA6EEE509A
:10519E00000A01E11ED0F951F2250801046F000E3C
:1051AE000701F3210801056F0701FA51F025E96E99
:1051BE00000EF121EA6EEECF32F88CEC0FF004C83F
:1051CE00E1FF05C8E2FF00C0E6FF0701FA2BF92B4D
:1051DE00D5D7F2C711F8F3C712F80801136B146B89
:1051EE0003EC1CF099EF2EF0000E0701FFBFFF0E2F
:1051FE00006E000E001802E1010EFF19D8A496EF02
:10520E002EF002C8FCF7010E0801025D0701FD6FCA
:10521E00000E080103590701FE6FFD51F025E96EDE
:10522E00FE51F121EA6EEE502E0A0EE0800E006E57
:10523E00800EFE19005C02E1FD51000805E2010E30
:10524E00FD5F000EFE5BE9D7800E006E800EFE192C
:10525E00005C02E1FD51000852E2FDC7FCF7FD4B78
:10526E00FE2B080EF96F0B0EF95D49E2FD51F0258C
:10527E00E96EFE51F121EA6EEE50000A40E0FD515A
:10528E00F025E96EFE51F121EA6EEECF44F8B5EC51
:10529E0008F000521EE10701F951F2250801046FD2
:1052AE00000E0701F3210801056F0701FD51F025DE
:1052BE00E96EFE51F121EA6EEECF32F88CEC0FF072
:1052CE0004C8E1FF05C8E2FF00C0E6FF0701F92BA5
:1052DE0013D00701FD51F025E96EFE51F121EA6E62
:1052EE00EE50200A09E0F951F225E16E000EF3218D
:1052FE00E26E5F0EE66EF92BFD4BFE2BB4D7FCC7AC
:10530E00FDF7000EFE6FFA6BF96B080EF95D5BE2AE
:10531E00FA51F025E96E000EF121EA6EEE50000A08
:10532E0001E151D0000EFE1902E1FD51FA1901E121
:10533E004AD0FA51F025E96E000EF121EA6EEE50D8
:10534E002E0A0AE0FA51F025E96E000EF121EA6EFE
:10535E00EE50200A01E001D034D0FA51F025E96E6A
:10536E00000EF121EA6EEECF44F8B5EC08F00052D3
:10537E001EE10701F951F2250801046F000E070125
:10538E00F3210801056F0701FA51F025E96E000EB1
:10539E00F121EA6EEECF32F88CEC0FF004C8E1FF8B
:1053AE0005C8E2FF00C0E6FF0701F92B0AD007018E
:1053BE00F951F225E16E000EF321E26E5F0EE66EFC
:1053CE00F92BFA2BA2D7010E0801006F060E07016A
:1053DE00F95D03E2F9C7F4F702D0060EF46FF4C7D5
:1053EE00FCF7F451F225E16E000EF321E26E7E0E13
:1053FE00E66E010EFB6FFB5109083EE308010051FA
:10540E00000A3AE00701FC51010F006E016A000E1E
:10541E0001220050F225E16E0150F321E26E300EB2
:10542E00FB25006E00C0E6FFF2C711F8F3C712F8B5
:10543E000801136B146B03EC1CF000C000F8005055
:10544E00FF0A04E1FF0E006E99EF2EF008010051E5
:10545E00010A0FE1F0C711F8F1C712F837EC1DF091
:10546E0000C001F80050000A04E001C800F099EFF6
:10547E002EF00701FB2BBFD708010051000AD8B44C
:10548E007FD0050E0701F95D03E2F9C7F5F702D0EB
:10549E00050EF56FF5C7FCF7F551F225E16E000E1E
:1054AE00F321E26E7E0EE66E0A0EFB6FFB51630871
:1054BE0067E308010051000A63E00701FC51010F88
:1054CE00006E016A000E01220050F2250801046FE1
:1054DE0001500701F3210801056F0A0E046EFBC788
:1054EE0000F023EC20F0300E002604C8E1FF05C8C2
:1054FE00E2FF00C0E6FF020E0701FC25006E016A06
:10550E00000E01220050F2250801046F0150070120
:10551E00F3210801056F0A0E046EFBC700F023ECA1
:10552E0020F008C000F0300E002604C8E1FF05C8C8
:10553E00E2FF00C0E6FFF2C711F8F3C712F8136BD3
:10554E00146B03EC1CF000C000F80050FF0A03E1DE
:10555E00FF0E006EE7D308010051010A0EE1F0C7FD
:10556E0011F8F1C712F837EC1DF000C001F8005029
:10557E00000A03E001C800F0D5D30701FB2B96D734
:10558E0008010051000AD8B4ABD0040E0701F95D32
:10559E0003E2F9C7F6F702D0040EF66FF6C7FCF772
:1055AE00F651F225E16E000EF321E26E7E0EE66EEE
:1055BE00640EFB6F800E030A006E800E005C02E12B
:1055CE00FB51E708D8A08CD008010051000AD8B4CE
:1055DE0087D00701FC51010F006E016A000E0122F7
:1055EE000050F2250801046F01500701F321080154
:1055FE00056F640E046EFBC700F023EC20F0300E36
:10560E00002604C8E1FF05C8E2FF00C0E6FF020E57
:10561E000701FC25006E016A000E01220050F225E2
:10562E000801046F01500701F3210801056F0A0EEE
:10563E00046EFBC700F023EC20F00A0E046E23EC80
:10564E0020F008C000F0300E002604C8E1FF05C8A7
:10565E00E2FF00C0E6FF030E0701FC25006E016AA3
:10566E00000E01220050F2250801046F01500701BF
:10567E00F3210801056F0A0E046EFBC700F023EC40
:10568E0020F008C000F0300E002604C8E1FF05C867
:10569E00E2FF00C0E6FFF2C711F8F3C712F8136B72
:1056AE00146B03EC1CF000C000F80050FF0A03E17D
:1056BE00FF0E006E37D308010051010A0EE1F0C74C
:1056CE0011F8F1C712F837EC1DF000C001F80050C8
:1056DE00000A03E001C800F025D30701FB2B6AD7AF
:1056EE0008010051000AD8B4D3D0030E0701F95DAA
:1056FE0003E2F9C7F7F702D0030EF76FF7C7FCF70F
:10570E00F751F225E16E000EF321E26E7E0EE66E8B
:10571E00E80EFB6F800E270A006E800E005C02E121
:10572E00FB510F08D8A0B4D008010051000AD8B41C
:10573E00AFD00701FC51010F006E016A000E01226D
:10574E000050F2250801046F01500701F3210801F2
:10575E00056FE80E046E030E056EFBC700F0000E1B
:10576E00016EE1EC20F0300E002604C8E1FF05C802
:10577E00E2FF00C0E6FF020E0701FC25006E016A83
:10578E00000E01220050F2250801046F015007019E
:10579E00F3210801056F640E046EFBC700F023ECC5
:1057AE0020F00A0E046E23EC20F008C000F0300E3C
:1057BE00002604C8E1FF05C8E2FF00C0E6FF030EA5
:1057CE000701FC25006E016A000E01220050F22531
:1057DE000801046F01500701F3210801056F0A0E3D
:1057EE00046EFBC700F023EC20F00A0E046E23ECCF
:1057FE0020F008C000F0300E002604C8E1FF05C8F6
:10580E00E2FF00C0E6FF040E0701FC25006E016AF0
:10581E00000E01220050F2250801046F015007010D
:10582E00F3210801056F0A0E046EFBC700F023EC8E
:10583E0020F008C000F0300E002604C8E1FF05C8B5
:10584E00E2FF00C0E6FFF2C711F8F3C712F8136BC0
:10585E00146B03EC1CF000C000F80050FF0A03E1CB
:10586E00FF0E006E5FD208010051010A0EE1F0C773
:10587E0011F8F1C712F837EC1DF000C001F8005016
:10588E00000A03E001C800F04DD20701FB2B42D7FE
:10589E0008010051000AD8B405D1020E0701F95DC6
:1058AE0003E2F9C7F8F702D0020EF86FF8C7FCF75B
:1058BE00F851F225E16E000EF321E26E7E0EE66ED9
:1058CE00100EFB6F800E000A006E800E005C08E169
:1058DE00000E010805E1000E860802E1FB519F084B
:1058EE00D8A0E0D008010051000AD8B4DBD00701DF
:1058FE00FC51010F006E016A000E01220050F225CC
:10590E000801046F01500701F3210801056F100E05
:10591E00046E270E056EFBC700F0000E016EE1EC63
:10592E0020F0300E002604C8E1FF05C8E2FF00C0DB
:10593E00E6FF020E0701FC25006E016A000E012231
:10594E000050F2250801046F01500701F3210801F0
:10595E00056FE80E046E030E056EFBC700F0000E19
:10596E00016EE1EC20F00A0E046E000E056EE1EC05
:10597E0020F008C000F009C001F0300E002604C867
:10598E00E1FF05C8E2FF00C0E6FF030E0701FC259C
:10599E00006E016A000E01220050F2250801046F0C
:1059AE0001500701F3210801056F640E046EFBC759
:1059BE0000F023EC20F00A0E046E23EC20F008C059
:1059CE0000F0300E002604C8E1FF05C8E2FF00C05B
:1059DE00E6FF040E0701FC25006E016A000E01228F
:1059EE000050F2250801046F01500701F321080150
:1059FE00056F0A0E046EFBC700F023EC20F00A0EB2
:105A0E00046E23EC20F008C000F0300E002604C80F
:105A1E00E1FF05C8E2FF00C0E6FF050E0701FC2509
:105A2E00006E016A000E01220050F2250801046F7B
