:10000000B8EF41F00000000000EF00F00000000039
:0A0010000000000000000000F3D71C
:10001C00B7C96FFF6DB002D00000FCD76FCF00F0F6
:02002C001200C0
:10002E00B7C9C9FFC7B002D00000FCD7C9CF00F0D6
:02003E001200AE
:10004000F250026EF29E0500FF6A0150FE6E0050F3
:08005000FD6E02BEF28E1200EB
:10005800838843C7E1FF44C7E2FFFF0EE66E41C74E
:0A00680000F042C701F0E8DF1200CB
:10007200400E0901AE25006E43C7E1FF44C7E2FF0F
:1000820000C0E6FF41C700F042C701F0D8DF43C716
:10009200E1FF44C7E2FFB2C9E6FF41C700F042C731
:1000A20001F0CDDF43C7E1FF44C7E2FFB1C9E6FF7C
:1000B20041C700F042C701F0C2DF43C7E1FF44C7B6
:1000C200E2FFB0C9E6FF41C700F042C701F0B7DF67
:1000D20043C7E1FF44C7E2FFAFC9E6FF41C700F0F3
:1000E20042C701F0ACDF43C7E1FF44C7E2FFB3C937
:1000F200E6FF41C700F042C701F0A1DF0901B56B7D
:10010200B66B43C7E1FF44C7E2FFFF0EE66E41C78D
:1001120000F042C701F093DF00C0B4F90901B54B0A
:10012200B62B800E0014016E0150000A07E0000E8B
:10013200B65D02E1640EB55D01E2E3D7B4C900F039
:020142001200A9
:04014400839812008A
:1001480043C7E1FF44C7E2FF4C0EE66E41C700F02B
:1001580042C701F071DF43C7E1FF44C7E2FFE66A27
:1001680041C700F042C701F067DF43C7E1FF44C75A
:10017800E2FFE66A41C700F042C701F05DDF43C70E
:10018800E1FF44C7E2FFE66A41C700F042C701F059
:1001980053DF43C7E1FF44C7E2FFE66A41C700F007
:1001A80042C701F049DF43C7E1FF44C7E2FFFF0E42
:1001B800E66E41C700F042C701F03EDF0901AF6BB0
:1001C800B06B43C7E1FF44C7E2FFFF0EE66E41C7CD
:1001D80000F042C701F030DF00C0AEF90901AF4BB3
:1001E800B02B800E0014016E0150000A07E0000ECB
:1001F800B05D02E1640EAF5D01E2E3D7AEAF04D0BB
:1002080027DFAEC900F012D043C7E1FF44C7E2FFC1
:10021800FF0EE66E41C700F042C701F00DDF00C0D7
:0E022800AEF90050000AF0E013DF006A120089
:1002360086DF000E000A03E1040E0101FD1909E143
:10024600A0C9A8F9A1C9A9F9A2C9AAF9A3C9ABF974
:1002560014D0090E006EA0C9A8F9A1C9A9F9A2C9AE
:10026600AAF9A3C9ABF9005008E00901A837A8917B
:10027600A937AA37AB37FF0FF7D70901110EAE6FB3
:10028600A8C9AFF9A9C9B0F9AAC9B1F9ABC9B2F9F8
:10029600FF0EB36FEBDE005204E0DBDE010E006EF4
:1002A6004BD043C7E1FF44C7E2FFFF0EE66E41C7EE
:1002B60000F042C701F0C1DE0050FE0A01E0F1D7AE
:1002C6000901A66BA76B020EA75D02E1000EA65DF3
:1002D6001BE2A651A425AC6FA751A521AD6F43C75C
:1002E600E1FF44C7E2FFFF0EE66E41C700F042C7DA
:1002F60001F0A3DEACC9E1FFADC9E2FF00C0E6FF35
:100306000901A64BA72BDFD743C7E1FF44C7E2FF8E
:10031600FF0EE66E41C700F042C701F08EDE43C70E
:10032600E1FF44C7E2FFFF0EE66E41C700F042C799
:0A03360001F083DE8EDE006A120083
:1003400003DF0050000A03E0FF0E006E01D0006AD8
:02035000120099
:100352000601A851000A04E0A851020A01E002D0F5
:10036200006A0DD0ECDF000E001806E0FF0E03015C
:10037200446FFF0E006E03D00601A86B006A1200E4
:100382009AC9A0F99BC9A1F99CC9A2F99DC9A3F96F
:100392009EC9A4F99FC9A5F94DDF0050000A03E0E8
:0A03A200FF0E006E01D0006A120089
:1003AC000601A851030A20E1CEDF0050000A06E046
:1003BC00FF0E0301446FFF0E006E5CD00301485129
:1003CC00090199190EE1030147510901981909E135
:1003DC00030146510901971904E103014551090133
:1003EC00961902E1006A46D00601A851010A06E1FD
:1003FC00FF0E0301446FFF0E006E3CD009019951B2
:10040C00030148190EE1090198510301471909E14B
:10041C00090197510301461904E1090196510301A1
:10042C00451927E096C99AF997C99BF998C99CF97F
:10043C0099C99DF9490E09019E6F030E9F6F9BDFB1
:10044C00000E00180EE0FF0E0301456FFF0E466F05
:10045C00FF0E476FFF0E486FFF0E446FFF0E006ECE
:10046C0009D096C945F397C946F398C947F399C97A
:06047C0048F3006A1200C3
:10048200090192517A0806E3610E925D03E3010EBF
:08049200006E01D0006A1200A7
:10049A00026A110E025C17E25A0E0224F66E860EEA
:1004AA00F76E000EF722000EF86E000EF822090011
:1004BA00F5CF01F001500901921903E1010E006E16
:0A04CA0003D0022AE6D7006A1200F0
:1004D40043C7E1FF44C7E2FFFF0EE66E41C700F0E9
:1004E40042C701F0ABDD0050FE0A01E0F1D7120073
:1004F40092C905F093C906F094C907F095C908F0AC
:1005040005016B51055E6C51065A6D51075A6E51C7
:10051400085AABC604F005C000F006C001F007C0DD
:1005240002F008C003F0045007E0003600900136E2
:1005340002360336FF0FF8D771510026725101229B
:0A05440073510222745103221200C9
:10054E0009019251390806E3300E925D03E3010E64
:08055E00006E01D0006A1200DA
:10056600090192515A0806E3410E925D03E3010E1A
:08057600006E01D0006A1200C2
:10057E0005016E510901955D0EE105016D510901EF
:10058E00945D09E105016C510901935D04E10501DA
:10059E006B510901925D15E305014C510901955D01
:1005AE000EE105014B510901945D09E105014A5126
:1005BE000901935D04E1050149510901925D01E2D2
:1005CE000CD0F40E0301446FFF0E006EFF0E016E91
:1005DE00FF0E026E0F0E036E64D03FC300F092C981
:1005EE0096F993C997F994C998F995C999F9005054
:1005FE0008E009019933983397339633999FFF0F8B
:10060E00F7D70501675109019627050168510901C0
:10061E009723050169510901982305016A510901C2
:10062E009923BDDE0050000A09E0FF0E006EFF0E9A
:10063E00016EFF0E026E0F0E036E33D03BC300F041
:10064E003CC301F03DC302F03EC303F0010E005E59
:10065E00000E015A025A035A005009019215046EF7
:10066E0001509315056E02509415066E03509515A4
:10067E00076E04C000F005C001F000360090013690
:10068E00003600900136490E0024E96E030E01205B
:10069E00EA6EEECF00F0EECF01F0EECF02F0EECF2D
:0406AE0003F0120043
:1006B20048DD000E000A03E1040E0101FD1909E103
:1006C2007BC97FF97CC980F97DC981F97EC982F92C
:1006D20014D0090E006E7BC97FF97CC980F97DC9EF
:1006E20081F97EC982F9005008E009017F377F91C4
:1006F200803781378237FF0FF7D70901120EAE6FAD
:100702007FC9AFF980C9B0F981C9B1F982C9B2F91B
:10071200FF0EB36FADDC005204E09DDC010E006EF3
:0607220001D0006A120084
:100728007BC992F910DF005211E17BC992F917DFFA
:1007380000520CE17BC992F9A0DE005207E17BC9A7
:1007480092F9A7DE005202E1006A02D0010E006EA3
:0207580012008D
:10075A00BCDE09017D6B7E6B020E7E5D02E1000E3E
:10076A007D5D1BE27D517B257F6F7E517C21806FF1
:10077A0043C7E1FF44C7E2FFFF0EE66E41C700F040
:10078A0042C701F058DC7FC9E1FF80C9E2FF00C01F
:10079A00E6FF09017D4B7E2BDFD743C7E1FF44C744
:1007AA00E2FFFF0EE66E41C700F042C701F043DCEC
:1007BA0043C7E1FF44C7E2FFFF0EE66E41C700F000
:0807CA0042C701F038DC120007
:1007D20045C38DF946C38EF947C38FF948C390F9D3
:1007E2007BC985F97CC986F97DC987F97EC988F9F3
:1007F20005016E5109017E5D0EE105016D51090190
:100802007D5D09E105016C5109017C5D04E1050191
:100812006B5109017B5D15E305014C510901885DAE
:100822000EE105014B510901875D09E105014A51BC
:100832000901865D04E1050149510901855D01E275
:1008420006D0F40E0301446FFF0E006ECED00901F4
:10085200916BAAC600F07FC901F080C902F081C97C
:1008620003F082C904F0005007E00432033202327E
:100872000132049EFF0FF8D70450000809E103502B
:10088200000806E10250000803E109010150915DF0
:1008920055E285C992F986C993F987C994F988C93D
:1008A20095F96CDE00C085F901C086F902C087F9AE
:1008B20003C088F903500F0A08E10250FF0A05E15C
:1008C2000150FF0A02E10050FF0A06E1F10E0301A6
:1008D200446FFF0E006E89D005016E510901885DDB
:1008E2000EE105016D510901875D09E105016C51B8
:1008F2000901865D04E105016B510901855D15E37E
:1009020005014C510901885D0EE105014B510901B8
:10091200875D09E105014A510901865D04E105018E
:1009220049510901855D01E206D0F40E0301446FCD
:10093200FF0E006E5AD00901912B8BD7090137C3E4
:1009420000F038C301F039C302F03AC303F0010EDC
:10095200005E000E015A025A035A00507F15896F39
:10096200015080158A6F025081158B6F03508215DA
:100972008C6F85C992F986C993F987C994F988C998
:1009820095F9B7DDA9C608F089C904F08AC905F04E
:100992008BC906F08CC907F0085007E0073206320F
:1009A20005320432079EFF0FF8D783C9E1FF84C9DD
:1009B200E2FF04500024E66E05500120E66E065068
:1009C2000220E66E07500320E66E8DC996F98EC9A5
:1009D20097F98FC998F990C999F9E7DC0050000A94
:0C09E20003E0FF0E006E01D0006A12005E
:1009EE0009017B515A0804E3410E7B5DD8B07B8B25
:0609FE007BC900F01200AD
:100A04007DC904F07EC905F07BC902F07CC903F0FE
:100A14007FC900F080C901F0010E09017F5F000E5B
:100A2400805B005001100FE004C0E9FF05C0EAFF3D
:100A340002C0E1FF03C0E2FFEECFE6FF024A032A51
:100A4400044A052AE5D77BC900F07CC901F01200ED
:100A54000B6A0A6A096A00500402F4CF09F0F3CF62
:100A640008F001500502F4CF0BF0F3CF0AF0005068
:100A74000502F3500926F4500A22E86A0B220150B9
:100A84000402F3500926F4500A22E86A0B2208C033
:100A940000F009C001F00AC002F00BC003F012001C
:0E0AA40067C97BF968C97CF956DE006A12004A
:100AB200056A046A0B0E055C22E2010E0414016E43
:100AC200070E006E01C003F0005004E003360390ED
:100AD200FF0FFBD7FE0E0414026E02C000F00032BC
:100AE200009E00500310046E055009016725D96E5F
:100AF200000E6821DA6EDE500426052ADBD704C018
:040B020000F01200ED
:100B0600010E09016725E96E000E6821EA6E69C9C2
:100B1600E1FF6AC9E2FFEECFE6FF010E6925E16E4D
:100B2600000E6A21E26E030E6725E96E000E68214B
:100B3600EA6EEECFE6FF020E6925E16E000E6A212F
:100B4600E26E050E6725E96E000E6821EA6EEECFAD
:100B5600E6FF030E6925E16E000E6A21E26E070EBE
:100B66006725E96E000E6821EA6EEECFE6FF040EF9
:100B76006925E16E000E6A21E26E090E6725E96EAF
:100B8600000E6821EA6EEECFE6FF050E6925E16EDE
:100B9600000E6A21E26E0E0E6725E96E000E6821D0
:100BA600EA6EEECFE6FF060E6925E16E000E6A21BB
:100BB600E26E100E6725E96E000E6821EA6EEECF32
:100BC600E6FF070E6925E16E000E6A21E26E120E3F
:100BD6006725E96E000E6821EA6EEECFE6FF080E85
:100BE6006925E16E000E6A21E26E140E6725E96E34
:100BF600000E6821EA6EEECFE6FF090E6925E16E6A
:100C0600000E6A21E26E160E6725E96E000E682157
:100C1600EA6EEECFE6FF0A0E6925E16E000E6A2146
:100C2600E26E180E6725E96E000E6821EA6EEECFB9
:100C3600E6FF0B0E6925E16E000E6A21E26E1C0EC0
:100C46006725E96E000E6821EA6EEECFE6FF0C0E10
:100C56006925E16E000E6A21E26E1E0E6725E96EB9
:0E0C6600000E6821EA6EEECFE6FF006A120073
:100C740067C97BF968C97CF969C97DF96AC97EF9D4
:100C840016DD0050000A03E0FF0E006E01D0006A7A
:020C940012004C
:100C960067C97BF968C97CF969C97DF96AC97EF9B2
:100CA6006BC97FF96CC980F96DC981F96EC982F982
:100CB6006FC983F970C984F989DD0050000A03E021
:100CC600FF0E006E15D06FC9E9FF70C9EAFFEECFBF
:100CD60096F9EECF97F9EECF98F9EECF99F9D6ECD3
:100CE60001F00050000A03E0FF0E006E01D0006A1A
:020CF6001200EA
:100CF800A2EC00F0000E000A03E1040E0101FD1948
:100D080009E167C96FF968C970F969C971F96AC9F0
:100D180072F914D0090E006E67C96FF968C970F9C5
:100D280069C971F96AC972F9005008E009016F3799
:100D38006F91703771377237FF0FF7D70901180EA7
:100D4800AE6F6FC9AFF970C9B0F971C9B1F972C99D
:100D5800B2F9FF0EB36F39EC00F0005205E02CEC4D
:100D680000F0010E006E95D043C7E1FF44C7E2FFD3
:100D7800FF0EE66E41C700F042C701F020EC00F01C
:100D880043C7E1FF44C7E2FFFF0EE66E41C700F02C
:100D980042C701F020EC00F043C7E1FF44C7E2FF7F
:100DA800FE0EE66E41C700F042C701F020EC00F0ED
:100DB80009016D6B6E6B6E51010802E16D51FF0800
:100DC80016E36D516B25E96E6E516C21EA6E43C7CF
:100DD800E1FF44C7E2FFEECFE6FF41C700F042C79C
:100DE80001F020EC00F009016D4B6E2BE4D743C7EE
:100DF800E1FF44C7E2FFFF0EE66E41C700F042C7BD
:100E080001F020EC00F043C7E1FF44C7E2FFFF0E0A
:100E1800E66E41C700F042C701F020EC00F043C77E
:100E2800E1FF44C7E2FFFF0EE66E41C700F042C78C
:100E380001F020EC00F000C06DF9000E09016E6FA2
:100E48001F0E6D15016E6EC902F0000E021601C06C
:100E58006DF902C06EF9000E021802E1050E0118C4
:100E680005E02CEC00F0020E006E13D043C7E1FF42
:100E780044C7E2FFFF0EE66E41C700F042C701F02B
:100E880020EC00F00050FF0A01E0F0D72CEC00F055
:040E9800006A1200DA
:100E9C006E0E09017B6F090E7C6F67C97DF968C9FD
:100EAC007EF90B0E7F6F000E806FA6DD6B6B0B0E49
:100EBC006B5D3EE26D6B6E0EE96E090EEA6E6B5168
:100ECC00E926D8B0EA2AEECF7BF928DC0050010ADB
:100EDC0003E1010E09016D6F09016E0EE96E090E39
:100EEC00EA6E6B51E926D8B0EA2AEE50200A02E1EC
:100EFC00010E6D6F6E0EE96E090EEA6E6B51E926EE
:100F0C00D8B0EA2AEE502E0A02E1010E6D6F6D5137
:100F1C00000A0BE169C9E1FF6AC9E2FFE66AC40E87
:100F2C000301446FFF0E006EB3D009016B2BBFD7CA
:100F3C006C6B6B6B080E6B5D42E26E0EE96E090E0C
:100F4C00EA6E6B51E926D8B0EA2AEE50200A33E05B
:100F5C000C0E6725E96E000E6821EA6EEECF01F0EB
:100F6C0001A618D06C516925796F000E6A217A6F31
:100F7C006E0EE96E090EEA6E6B51E926D8B0EA2ABC
:100F8C00EECF7BF92EDD79C9E1FF7AC9E2FF00C013
:100F9C00E6FF10D06C516925E16E000E6A21E26EFD
:100FAC006E0EE96E090EEA6E6B51E926D8B0EA2A8C
:100FBC00EECFE6FF01D003D06C2B6B2BBBD7765159
:100FCC00200A09E16C516925E16E000E6A21E26E7E
:100FDC00E66A006A5DD06C516925E16E000E6A21EB
:100FEC00E26E2E0EE66E6C2B080E6B6F0B0E6B5DAD
:100FFC0046E26E0EE96E090EEA6E6B51E926D8B028
:10100C00EA2AEECF7BF994EC03F00050000A01E1E0
:10101C0036D00C0E09016725E96E000E6821EA6EC8
:10102C00EECF01F001A818D06C516925796F000E34
:10103C006A217A6F6E0EE96E090EEA6E6B51E92623
:10104C00D8B0EA2AEECF7BF9CCDC79C9E1FF7AC9BA
:10105C00E2FF00C0E6FF10D06C516925E16E000E76
:10106C006A21E26E6E0EE96E090EEA6E6B51E9268C
:10107C00D8B0EA2AEECFE6FF6C2B6B2BB7D7090161
:10108C006C516925E16E000E6A21E26EE66A006A17
:02109C00120040
:10109E00026A080E025C17E28C0E0224F66E860EB1
:1010AE00F76E000EF722000EF86E000EF822090001
:1010BE00F5CF01F001500901251903E1010E006E73
:0A10CE0003D0022AE6D7006A1200E0
:1010D8000601A851030A0BE1A9EC01F00050000A2F
:1010E80006E0FF0E0301446FFF0E006E50D00601AC
:1010F800A851010A06E1FF0E0301446FFF0E006EBE
:1011080046D003014851090128190EE1030147514E
:101118000901271909E1030146510901261904E1CA
:10112800030145510901251905E1020E0601A86FC1
:10113800006A2DD025C967F926C968F927C969F950
:1011480028C96AF993DD0050000A06E0FF0E030182
:10115800446FFF0E006E1BD0490E0901676F030E26
:10116800686F9CDC0050000A06E0FF0E0301446F24
:10117800FF0E006E0CD0010E0601A86F25C945F3BD
:1011880026C946F327C947F328C948F3006A12005D
:1011980025C967F926C968F927C969F928C96AF903
:1011A80029C96BF92AC96CF9A3DD0050000A03E0CC
:0A11B800FF0E006E01D0006A120065
:1011C20025C902F026C903F028C900F029C901F097
:1011D200010E0901285F000E295B0050011009E091
:1011E20002C0E1FF03C0E2FF27C9E6FF024A032A69
:0C11F200EBD725C900F026C901F012005F
:1011FE0027C967F928C968F929C969F92AC96AF995
:10120E002BC96BF92CC96CF92DC96DF92EC96EF964
:10121E00630E09016F6F090E706F36DD0050000A04
:10122E0003E0FF0E006E9DD181C500F082C501F076
:10123E0083C502F084C503F0010E005E000E015A54
:10124E00025A035A005009012B15046E01502C1539
:10125E00056E02502D15066E03502E15076E050EE7
:10126E00026E04C000F005C001F0025005E0003629
:10127E0000900136FF0FFAD70901490E0024616F65
:10128E00030E0120626F010E2F6F080E2F5D0CE210
:10129E002F516125E96E000E6221EA6EEE507E0A34
:1012AE0001E102D02F2BF1D72F51080A0AE161C9B3
:1012BE0067F962C968F925C969F926C96AF9E7DDCE
:1012CE0050D1410E09017B6F090E7C6F61C97DF90A
:1012DE0062C97EF9200E7F6F000E806F02EC05F062
:1012EE0027C967F928C968F929C969F92AC96AF9A4
:1012FE00010E2B5F000E2C5B2D5B2E5B2BC96BF949
:10130E002CC96CF92DC96DF92EC96EF9630E6F6F6C
:10131E00090E706FB9DC0050000A03E0FF0E006E7C
:10132E0020D181C500F082C501F083C502F084C5CD
:10133E0003F0010E005E000E015A025A035A0050CD
:10134E0009012B15046E01502C15056E02502D153A
:10135E00066E03502E15076E050E026E04C000F0C9
:10136E0005C001F0025005E0003600900136FF0F77
:10137E00FAD7490E0026030E012200C03FF901C024
:10138E0040F90B0E0024E96E000E0120EA6E3F0EAE
:10139E00EE14016E01500F0A0BE00901410E676F4A
:1013AE00090E686F25C969F926C96AF970DDD9D0A9
:1013BE00410E0901676F090E686F59EC05F000C008
:1013CE0031F9010E0901306F0B0E3F25E96E000E4B
:1013DE004021EA6E3F0EEE14016E01500F0A06E038
:1013EE00C00E0301446FFF0E006EBBD00D0E09013F
:1013FE003F25E96E000E4021EA6EEE50311906E0EF
:10140E00C10E0301446FFF0E006EABD03FC9E9FF62
:10141E0040C9EAFFEECF00F01F0E0014016E01501E
:10142E000901301906E0C20E0301446FFF0E006E73
:10143E0098D03FC967F940C968F9320E0901696F42
:10144E00090E6A6F83EC05F02F6B3005006E016A92
:10145E00000E015A0D0E046E000E056E2AEC05F0FC
:10146E002F510026000E012200502525E16E01505D
:10147E002621E26E320EE96E090EEA6E2F51E92632
:10148E00D8B0EA2AEECFE6FF2F2B0D0E2F5D0CE221
:10149E00320EE96E090EEA6E2F51E926D8B0EA2A0D
:1014AE00EE50000A01E0D1D73FC9E9FF40C9EAFF7B
:1014BE00EECF01F001AC02D0006A53D0302B27C919
:1014CE0067F928C968F929C969F92AC96AF9010EA3
:1014DE002B5F000E2C5B2D5B2E5B2BC96BF92CC981
:1014EE006CF92DC96DF92EC96EF9630E6F6F090E69
:1014FE00706F4BEC06F00050000A03E0FF0E006E1A
:10150E0030D081C500F082C501F083C502F084C5DC
:10151E0003F0010E005E000E015A025A035A0050EB
:10152E0009012B15046E01502C15056E02502D1558
:10153E00066E03502E15076E050E026E04C000F0E7
:10154E0005C001F0025005E0003600900136FF0F95
:10155E00FAD70901490E00243F6F030E0120406F98
:04156E0033D712005D
:0E15720025C9E9FF26C9EAFFEECF00F01200FE
:10158000010E09012525E96E000E2621EA6EEECF37
:1015900003F0000E046E000E046E03C001F0006A3A
:1015A00000C003F001C004F025C9D9FF26C9DAFF45
:1015B000DE500026000E012200C003F001C004F03E
:0A15C00000C003F001C004F01200A7
:1015CA00030E09012525E96E000E2621EA6EEECFEB
:1015DA0009F0000E0A6E0B6E0C6E000E0A6E0B6E90
:1015EA000C6E0BC003F00AC002F009C001F0006AD9
:1015FA0000C009F001C00AF002C00BF003C00CF0F1
:10160A00020E2525D96E000E2621DA6EDE50002440
:10161A00056E000E0120066E000E0220076E000EF7
:10162A000320086E05C009F006C00AF007C00BF0D7
:10163A0008C00CF007C003F006C002F005C001F0B4
:10164A00006A00C009F001C00AF002C00BF003C032
:10165A000CF0010E2525D96E000E2621DA6EDE5019
:10166A000024056E000E0120066E000E0220076E91
:10167A00000E0320086E05C009F006C00AF007C074
:10168A000BF008C00CF007C003F006C002F005C05A
:10169A0001F0006A00C009F001C00AF002C00BF0B4
:1016AA0003C00CF025C9D9FF26C9DAFFDE5000268F
:1016BA00000E01220222032200C009F001C00AF032
:1016CA0002C00BF003C00CF000C009F001C00AF020
:0A16DA0002C00BF003C00CF0120078
:1016E4000901966B976B986B996BD6EC01F00050DF
:1016F400000A03E0FF0E006E27D1490E0901146FA2
:10170400030E156F490E166F030E176FFE0E142588
:10171400256F010E1521266F31DF0150AA0A02E15F
:10172400550E001806E0FC0E0301446FFF0E006E18
:101734000BD116C9E9FF17C9EAFFEECF01F001503A
:10174400E90A15E016C9E9FF17C9EAFFEECF01F06F
:101754000150EB0A0BE1020E09011625E96E000E99
:101764001721EA6EEE50900A01E101D006D0FB0E7B
:101774000301446FFF0E006EE7D00901136B010EE5
:10178400135DD8B0E0D00A0E006E000E016E13C9CE
:1017940004F0000E056E2AEC05F0510E0026050E2D
:1017A400012200C018F901C019F9BE0E1425256FD5
:1017B400010E1521266F040E026E13C900F0000EEF
:1017C400016E025005E0003600900136FF0FFAD793
:1017D4000050252701502623CADE18C9E1FF19C984
:1017E400E2FF00C0E6FF0A0E006E000E016E13C990
:1017F40004F0000E056E2AEC05F0510E0026050ECD
:101804000122010E0024186F000E0120196FBE0E74
:101814001425256F010E1521266F040E026E13C9BF
:1018240000F0000E016E025005E000360090013613
:10183400FF0FFAD70050252701502623040E252731
:10184400000E262394DE18C9E1FF19C9E2FF00C087
:10185400E6FF0A0E006E000E016E13C904F0000EBE
:10186400056E2AEC05F0510E0026050E0122020E2B
:101874000024186F000E0120196FBE0E1425256F69
:10188400010E1521266F040E026E13C900F0000E1E
:10189400016E025005E0003600900136FF0FFAD7C2
:1018A4000050252701502623080E2527000E262345
:1018B4008ADE18C9E1FF19C9E2FF00C0E6FF01C0D2
:1018C400E6FF02C0E6FF03C0E6FF0A0E006E000E4C
:1018D400016E13C904F0000E056E2AEC05F0510EDA
:1018E4000026050E0122060E0024186F000E0120AA
:1018F400196FBE0E1425256F010E1521266F040ED7
:10190400026E13C900F0000E016E025005E00036AD
:1019140000900136FF0FFAD70050252701502623E7
:101924000C0E2527000E26234EDE18C9E1FF19C927
:10193400E2FF00C0E6FF01C0E6FF02C0E6FF03C00D
:0A194400E6FF132B1CD7006A120007
:10194E00010E066E000E076E086E096E056A800E99
:10195E00006E800E000A005C02E1200E055C23E2A0
:10196E00065009011311016E07501411026E085032
:10197E001511036E09501611046E0450091808E172
:10198E000350081805E10250071802E1015006182D
:10199E0003E105C000F009D006360690073608367A
:0C19AE000936052AD4D7FF0E006E120087
:1019BA000601A851030A0BE1A9EC01F00050000A44
:1019CA0006E0FF0E0301446FFF0E006E33D00601DE
:1019DA00A851010A06E1FE0E0301446FFF0E006ED4
:1019EA0029D013C925F914C926F915C927F916C921
:1019FA0028F9490E0901296F030E2A6FCCEC08F069
:101A0A00000E00180EE0FF0E0301456FFF0E466F31
:101A1A00FF0E476FFF0E486FFE0E446FFF0E006EFB
:101A2A0009D013C945F314C946F315C947F316C9B2
:061A3A0048F3006A1200EF
:101A40000901146B156B270E155D02E1100E145D74
:101A5000D8B0B0D0000E000A02E1000E131919E14F
:101A6000A2EC00F0010EAE6FAF6BB06BB16BB26B5E
:101A7000FF0EB36F39EC00F000C016F92CEC00F04B
:101A800009011651000A04E10101FD6B006A94D0BE
:101A90008DD0A2EC00F0370E0901AE6FAF6BB06BCA
:101AA000B16BB26BFF0EB36F39EC00F000C016F9EA
:101AB0002CEC00F009011651010AD8A476D0A2EC52
:101AC00000F0290EAE6F000EAF6F000EB06F000E6B
:101AD000B16F400EB26FFF0EB36F39EC00F000C073
:101AE00016F92CEC00F009011651000A5DE1000E18
:101AF000000A02E1020E131952E1A2EC00F03A0EC4
:101B0000AE6FAF6BB06BB16BB26BFF0EB36F39ECF6
:101B100000F000C016F943C7E1FF44C7E2FFFF0E23
:101B2000E66E41C700F042C701F020EC00F000C0B3
:101B300017F943C7E1FF44C7E2FFFF0EE66E41C756
:101B400000F042C701F020EC00F043C7E1FF44C7BA
:101B5000E2FFFF0EE66E41C700F042C701F020EC45
:101B600000F043C7E1FF44C7E2FFFF0EE66E41C746
:101B700000F042C701F020EC00F02CEC00F009016D
:101B80001651000A0BE117AD04D0040E0101FD6FE0
:101B900003D00101030EFD6F006A0ED005D00101D4
:101BA000010EFD6F006A08D001D004D00901144B6A
:0A1BB000152B49D7010E006E12003C
:101BBA00160E09011325256F000E1421266FDBDC92
:101BCA000B0E046E00C002F001C003F0045005E0E1
:101BDA0003320232039EFF0FFAD71F0E0214006E61
:101BEA0000C090F5160E1325256F000E1421266FDE
:101BFA00C2DC050E046E00C002F001C003F00450FE
:101C0A0005E003320232039EFF0FFAD73F0E021499
:101C1A00006E00C091F5160E1325256F000E1421D3
:101C2A00266FA9DC00C002F0023602903F0E0214B1
:101C3A00006E00C092F5180E1325256F000E1421B0
:101C4A00266F99DC090E046E00C002F001C003F091
:101C5A00045005E003320232039EFF0FFAD77F0ECB
:101C6A000214006E03C001F0000E011600C08CF5CC
:101C7A0001C08DF5BC0E0026070E012200C08CF5AE
:101C8A0001C08DF5180E1325256F000E1421266F3D
:101C9A0072DC050E046E00C002F001C003F00450AD
:101CAA0005E003320232039EFF0FFAD70F0E021429
:101CBA00006E00C08EF5180E1325256F000E142134
:101CCA00266F59DC1F0E0014006E00C08FF5006AE3
:021CDA001200F6
:101CDC000E0E09011325256F000E1421266F4ADC08
:101CEC000B0E046E00C002F001C003F0045005E0BE
:101CFC0003320232039EFF0FFAD71F0E0214006E3E
:101D0C0000C089F50E0E1325256F000E1421266FC9
:101D1C0031DC050E046E00C002F001C003F004506B
:101D2C0005E003320232039EFF0FFAD73F0E021476
:101D3C00006E00C08AF50E0E1325256F000E1421BF
:101D4C00266F18DC00C002F0023602903F0E02141F
:101D5C00006E00C08BF5100E1325256F000E14219C
:101D6C00266F08DC090E046E00C002F001C003F0FF
:101D7C00045005E003320232039EFF0FFAD77F0EA8
:101D8C000214006E03C001F0000E011600C085F5B0
:101D9C0001C086F5BC0E0026070E012200C085F599
:101DAC0001C086F5100E1325256F000E1421266F29
:101DBC00C0EC0AF0050E046E00C002F001C003F086
:101DCC00045005E003320232039EFF0FFAD70F0EC8
:101DDC000214006E00C087F5100E1325256F000E3F
:101DEC001421266FC0EC0AF01F0E0014006E00C008
:061DFC0088F5006A1200E8
:101E0200FF0E090115251F6F000E1621206F0B0E04
:101E12001325256F000E1421266FB9EC0AF01FC995
:101E2200E1FF20C9E2FF00C0E6FF000E15251F6F8B
:101E3200010E1621206F1C0E1325256F000E142192
:101E4200266FE5EC0AF01FC9E1FF20C9E2FF00C0DE
:101E5200E6FF01C0E6FF02C0E6FF03C0E6FF040E94
:101E62001525236F010E1621246F140E1325256FDD
:101E7200000E1421266FC0EC0AF000C003F001C06E
:101E820004F0000E056E066E04C022F903C021F9AB
:101E92001F6B206B1A0E1325256F000E1421266F5F
:101EA200C0EC0AF0000E026E036E1F510026205194
:101EB2000122215102222251032223C9E1FF24C916
:101EC200E2FF00C0E6FF01C0E6FF02C0E6FF03C07A
:101ED200E6FF0B0E1325E96E000E1421EA6E3F0E8B
:101EE200EE14016E01500F0A28E015C925F916C932
:101EF20026F9276BFF0E286F000E296FE1EC08F020
:101F020015C925F916C926F917C927F918C928F9D3
:101F120019C929F91AC92AF91BC92BF91CC92CF9A3
:101F22001DC92DF91EC92EF9FFEC08F00050000A58
:101F320003E0FF0E006E07D005D015C9E1FF16C9F8
:081F4200E2FFE66A006A1200EA
:101F4A0017C901F018C902F0010E0901175F000E46
:101F5A00185B000E021802E1000E01181FE013C9F7
:101F6A00E9FF14C9EAFF15C9D9FF16C9DAFFEE500D
:101F7A00DE180FE013C9E9FF14C9EAFF15C9D9FF32
:101F8A0016C9DAFFDE50EE5C006E016A000E015AD5
:101F9A0007D0134B142B154B162BD2D7006A016AA4
:021FAA00120023
:101FAC0013C97BF994EC03F0005208E113C925F92D
:101FBC004FEC08F0005202E1006A02D0010E006EF4
:021FCC00120001
:101FCE000B1E0A1E091E081E082AD8B4092AD8B4E8
:081FDE000A2AD8B40B2A1200F4
:101FE6000450085E0550D8A0053C095E0650D8A0EE
:101FF600063C0A5E0750D8A0073C0B5E0336070E68
:102006000C6E0334083609360A360B36045003A024
:102016000ED0085E0550D8A0053C095E0650D8A033
:10202600063C0A5E0750D8A0073C0B5E0DD008267A
:102036000550D8B0053C09260650D8B0063C0A26FD
:102046000750D8B0073C0B2603360C2EDAD70234DD
:10205600083609360A360B36045003A00ED0085E41
:102066000550D8A0053C095E0650D8A0063C0A5E7D
:102076000750D8A0073C0B5E0DD008260550D8B0F7
:10208600053C09260650D8B0063C0A260750D8B0AB
:10209600073C0B260236070E0C6E0234083609364C
:1020A6000A360B36045002A00ED0085E0550D8A0A2
:1020B600053C095E0650D8A0063C0A5E0750D8A02B
:1020C600073C0B5E0DD008260550D8B0053C092606
:1020D6000650D8B0063C0A260750D8B0073C0B2657
:1020E60002360C2EDAD70134083609360A360B3694
:1020F600045002A00ED0085E0550D8A0053C095E2B
:102106000650D8A0063C0A5E0750D8A0073C0B5ED6
:102116000DD008260550D8B0053C09260650D8B083
:10212600063C0A260750D8B0073C0B260136070E98
:102136000C6E0134083609360A360B36045001A0F7
:102146000ED0085E0550D8A0053C095E0650D8A002
:10215600063C0A5E0750D8A0073C0B5E0DD0082649
:102166000550D8B0053C09260650D8B0063C0A26CC
:102176000750D8B0073C0B2601360C2EDAD70034B0
:10218600083609360A360B36045001A00ED0085E12
:102196000550D8A0053C095E0650D8A0063C0A5E4C
:1021A6000750D8A0073C0B5E0DD008260550D8B0C6
:1021B600053C09260650D8B0063C0A260750D8B07A
:1021C600073C0B260036070E0C6E0034083609361F
:1021D6000A360B36045000A00ED0085E0550D8A073
:1021E600053C095E0650D8A0063C0A5E0750D8A0FA
:1021F600073C0B5E0DD008260550D8B0053C0926D5
:102206000650D8B0063C0A260750D8B0073C0B2625
:1022160000360C2EDAD700B00ED004500826055032
:10222600D8B0053C09260650D8B0063C0A26075009
:08223600D8B0073C0B26120092
:10223E000134083609360450085E0550D8A0053C16
:10224E00095E003601360F0E0C6E01340836093663
:10225E00045000A006D0085E0550D8A0053C095ECB
:10226E0005D008260550D8B0053C092600360136A3
:10227E000C2EEBD700B006D0045008260550D8B06F
:08228E00053C092600001200C6
:10229600090113517A0804E3610E135DD8B0139B4C
:0622A60013C900F0120054
:1022AC0013C902F014C903F002C000F003C001F01E
:1022BC00024A032A00C0E9FF01C0EAFFEE5201E026
:1022CC00F3D709011351025C006E14510358016ECF
:0A22DC00010E005E000E015A120010
:1022E6000601A851020A17E1010E0301452509015D
:1022F600256F000E030146210901266F000E03011A
:1023060047210901276F000E030148210901286FA3
:102316006CEC08F030D00601A851000A06E1FF0E69
:102326000301446FFF0E006E26D0490E0901676F48
:10233600030E686F52EC05F00050000A06E0FF0E2F
:102346000301446FFF0E006E16D00301010E4525F2
:10235600006E000E4621016E000E4721026E000E31
:102366004821036E00C045F301C046F302C047F39F
:0823760003C048F3006A1200E5
:10237E00050E0101FD6F95982CEC00F00801F26B33
:10238E00F36B000EF35D02E10A0EF25D10E243C73D
:10239E00E1FF44C7E2FFFF0EE66E41C700F042C701
:1023AE0001F020EC00F00801F24BF32BEAD7A2EC7F
:1023BE0000F00901AE6BAF6BB06BB16BB26B950EEB
:1023CE00B36F39EC00F000C0F4F82CEC00F008010B
:1023DE00F451010A03E0010E006E86D0A2EC00F06B
:1023EE00080E0901AE6FAA0EAF6F010EB06F000E90
:1023FE00B16FB26F870EB36F39EC00F000C0F4F816
:10240E0043C7E1FF44C7E2FFFF0EE66E41C700F08F
:10241E0042C701F020EC00F043C7E1FF44C7E2FFE2
:10242E00FF0EE66E41C700F042C701F020EC00F04F
:10243E0043C7E1FF44C7E2FFFF0EE66E41C700F05F
:10244E0042C701F020EC00F043C7E1FF44C7E2FFB2
:10245E00FF0EE66E41C700F042C701F020EC00F01F
:10246E002CEC00F00801F451010A0CE0010E0901F8
:10247E00136F20EC0DF0005204E00901136B20ECF9
:10248E000DF005D0020E0901136F20EC0DF0000EB9
:10249E00000A03E1050E0101FD1903E1020E006EB3
:1024AE0023D0000E000A03E10101040EFD191BE00A
:1024BE00A2EC00F0100E0901AE6F000EAF6F020E0F
:1024CE00B06F000EB16FB26FFF0EB36F39EC00F04C
:1024DE0000C0F4F82CEC00F00801F451000A03E0FF
:0A24EE00030E006E01D0006A120018
:1024F8007DC5F2F87EC5F3F87FC5F4F880C5F5F818
:1025080005016E51805D08E16D517F5D05E16C51FB
:102518007E5D02E16B517D5D14E34C510801F55D70
:102528000EE105014B510801F45D09E105014A512D
:102538000801F35D04E1050149510801F25D01E27A
:1025480008D06BC5F2F86CC5F3F86DC5F4F86EC524
:10255800F5F8F2C8F6F8F3C8F7F8F4C8F8F8F5C8CB
:10256800F9F83FC304F0F2C800F0F3C801F0F4C86A
:1025780002F0F5C803F0045007E0033202320132DA
:102588000032039EFF0FF8D70050050167250901A7
:10259800256F0150050168210901266F02500501C8
:1025A80069210901276F035005016A210901286F74
:1025B8003BC300F03CC301F03DC302F03EC303F04F
:1025C800010E005E000E015A025A035A005008011B
:1025D800F215046E0150F315056E0250F415066EDF
:1025E8000350F515076E04C000F005C001F0003671
:1025F80000900136003600900136490E0024FA6F2B
:10260800030E0120FB6F6CEC08F00050000A09E093
:10261800FF0E006EFF0E016EFF0E026E0F0E036EB0
:102628006DD10801FC6BFAC8E9FFFBC8EAFFEECFE1
:1026380001F0EECF02F0EECF03F0EECF04F004503D
:10264800000A08E10350000A05E10250000A02E10D
:102658000150000A04E10801010EFC6FC1D0080115
:10266800040EFA27000EFB23010EF227000EF323B7
:10267800F423F52305014C510801F55D0EE1050130
:102688004B510801F45D09E105014A510801F35D68
:1026980004E1050149510801F25DD8A077D06BC566
:1026A800F2F86CC5F3F86DC5F4F86EC5F5F8A9EC49
:1026B80001F00050000A09E0FF0E006EFF0E016EE7
:1026C800FF0E026E0F0E036E19D13FC304F0F2C85D
:1026D80000F0F3C801F0F4C802F0F5C803F00450A4
:1026E80007E00332023201320032039EFF0FF8D7AF
:1026F8000050050167250901256F01500501682172
:102708000901266F0250050169210901276F03504D
:1027180005016A210901286F3BC300F03CC301F0A1
:102728003DC302F03EC303F0010E005E000E015AE5
:10273800025A035A00500801F215046E0150F315AD
:10274800056E0250F415066E0350F515076E04C0A9
:1027580000F005C001F00036009001360036009008
:102768000136490E0024FA6F030E0120FB6F6CEC52
:1027780008F00050000A09E0FF0E006EFF0E016E1F
:10278800FF0E026E0F0E036EB9D01BD00801FB516D
:102798000301361903E135510801FA1912E108015C
:1027A800490EFA6F030EFB6F9ADD0050000A09E02C
:1027B800FF0E006EFF0E016EFF0E026E0F0E036E0F
:1027C8009DD00801F551F91908E1F451F81905E10E
:1027D800F351F71902E1F251F61901E101D023D7BB
:1027E800A9EC01F00050000A09E0FF0E006EFF0E90
:1027F800016EFF0E026E0F0E036E80D00801FC53AF
:1028080009E1FF0E006EFF0E016EFF0E026E0F0E45
:10281800036E74D0FAC8E1FFFBC8E2FFFF0EE66E54
:10282800FF0EE66EFF0EE66E0F0EE66E3FC304F077
:10283800F2C800F0F3C801F0F4C802F0F5C803F0DC
:10284800045007E00332023201320032039EFF0FC8
:10285800F8D70050050167250901136F01500501DC
:1028680068210901146F0250050169210901156FDA
:10287800035005016A210901166FDDEC0CF00050C8
:10288800000A07E0FF0E006EFF0E016E026E036E77
:1028980035D005017C51FF0A08E17B51FF0A05E1AB
:1028A8007A51FF0A02E17951FF0A16E079C500F072
:1028B8007AC501F07BC502F07CC503F0010E005E0D
:1028C800000E015A025A035A00C079F501C07AF580
:1028D80002C07BF503C07CF5F2C87DF5F3C87EF530
:1028E800F4C87FF5F5C880F5010E976FF2C800F0BF
:0E28F800F3C801F0F4C802F0F5C803F01200B6
:1029060005015051FF0A08E14F51FF0A05E14E51FA
:10291600FF0A02E14D51FF0A06E1F60E0301446F7C
:10292600FF0E006E8ED240C3F4F841C3F5F842C3E1
:10293600F6F843C3F7F805016E510301435D0EE156
:1029460005016D510301425D09E105016C51030169
:10295600415D04E105016B510301405D15E305018D
:102966004C510801F75D0EE105014B510801F65D7A
:1029760009E105014A510801F55D04E105014951E6
:102986000801F45D01E206D0F40E0301446FFF0E68
:10299600006E57D20801FE6BAAC600F04DC501F0C5
:1029A6004EC502F04FC503F050C504F0005007E0D5
:1029B6000432033202320132049EFF0FF8D704506C
:1029C600000809E10350000806E10250000803E18F
:1029D60008010150FE5D56E2F4C892F9F5C893F974
:1029E600F6C894F9F7C895F9BFEC02F000C0F4F800
:1029F60001C0F5F802C0F6F803C0F7F803500F0A55
:102A060008E10250FF0A05E10150FF0A02E1005009
:102A1600FF0A06E1F10E0301446FFF0E006E11D2AC
:102A260005016E510801F75D0EE105016D510801C2
:102A3600F65D09E105016C510801F55D04E105014A
:102A46006B510801F45D15E305014C510801F75D72
:102A56000EE105014B510801F65D09E105014A51F8
:102A66000801F55D04E1050149510801F45D01E243
:102A760006D0F40E0301446FFF0E006EE2D108018A
:102A8600FE2B8AD737C300F038C301F039C302F0F2
:102A96003AC303F0010E005E000E015A025A035AB1
:102AA600005005014D150801FA6F015005014E153C
:102AB6000801FB6F025005014F150801FC6F03501A
:102AC600050150150801FD6FF4C892F9F5C893F990
:102AD600F6C894F9F7C895F97AEC02F0A9C608F099
:102AE600FAC804F0FBC805F0FCC806F0FDC807F0FC
:102AF600085007E00732063205320432079EFF0F00
:102B0600F8D7045000240901256F05500120266FCF
:102B160006500220276F07500320286F81C500F05A
:102B260082C501F083C502F084C503F0010E005E84
:102B3600000E015A025A035A00500801FA15046E93
:102B46000150FB15056E0250FC15066E0350FD156F
:102B5600076E050E026E04C000F005C001F00250BB
:102B660005E0003600900136FF0FFAD70801490E3E
:102B76000024F86F030E0120F96F6CEC08F000508A
:102B8600000A03E0FF0E006E5CD1F8C8E9FFF9C841
:102B9600EAFFEECF01F00150E50A0AE0F8C8E9FFC6
:102BA600F9C8EAFFEECF01F0200E015C01E318D070
:102BB600F8C8E9FFF9C8EAFFEECF01F0140E015C90
:102BC6000EE20B0E0801F825E96E000EF921EA6EF9
:102BD6003F0EEE14016E01500F0A01E101D09FD0A5
:102BE600A9EC01F00050000A03E0FF0E006E29D1A7
:102BF6000B0E0801F825E96E000EF921EA6EEECFFC
:102C060001F001A635D0F2C825F9F3C826F9090165
:102C1600276B100E286F010E296FE1EC08F0FF0EEE
:102C26000801F225FF6F000EF3210901006F0B0E5C
:102C36000801F8250901256F000E0801F92109018F
:102C4600266FB9EC0AF0FFC8E1FF00C9E2FF00C039
:102C5600E6FFF2C87BF9F3C87CF9F8C87DF9F9C834
:102C66007EF90B0E7F6F000E806F02EC05F04DD0E3
:102C76000801F251F31149E0F8C813F9F9C814F93B
:102C8600F2C815F9F3C816F940C317F941C318F984
:102C960042C319F943C31AF94DC51BF94EC51CF9B0
:102CA6004FC51DF950C51EF901EC0FF00050000A82
:102CB60003E0FF0E006EC5D0F8C813F9F9C814F981
:102CC6006EEC0EF0F8C813F9F9C814F9DDEC0DF046
:102CD600080E0801F225E16E010EF321E26E40C3F3
:102CE600E6FF41C3E6FF42C3E6FF43C3E6FF0C0E21
:102CF600F225E16E010EF321E26E4DC5E6FF4EC5EB
:102D0600E6FF4FC5E6FF50C5E6FF010E05014D275C
:102D1600000E4E234F235023010E006E92D0010E5B
:102D26000801FA27000EFB23FC23FD23200EF825BD
:102D3600016E000EF921026E01C0F8F802C0F9F822
:102D4600010E05014D27000E4E234F23502302503E
:102D56000301361902E135510118D8A471D0490E84
:102D66000801F86F030EF96FFD5103013A190EE1E0
:102D76000801FC510301391909E10801FB5103015E
:102D8600381904E10801FA510301371951E1A9EC98
:102D960001F00050000A03E0FF0E006E52D0080159
:102DA600FA6BFB6BFC6BFD6BF4C892F9F5C893F9F3
:102DB600F6C894F9F7C895F9BFEC02F000C0F4F82C
:102DC60001C0F5F802C0F6F803C0F7F803500F0A81
:102DD60008E10250FF0A05E10150FF0A02E1005036
:102DE600FF0A0BE1FF0E05014D6FFF0E4E6FFF0E42
:102DF6004F6FFF0E506F006A24D0F4C892F9F5C8E1
:102E060093F9F6C894F9F7C895F97AEC02F000C080
:102E160025F901C026F902C027F903C028F96CEC90
:102E260008F00050000A03E0FF0E006E0AD008D03A
:102E360073EC11F00050000A03E0FF0E006E01D0A3
:042E4600A4D61200FC
:102E4A00160E0801F225006E000EF321016E010E26
:102E5A000024E16E000E0120E26EB0C600F00036DA
:102E6A000090003600900036009000C0E6FF160E73
:102E7A00F225006E000EF321016E010E0024026E8F
:102E8A00000E0120036EB1C600F00032009E00322F
:102E9A00009E0032009E02C0E9FF03C0EAFFEE5026
:102EAA00002602C0E1FF03C0E2FF00C0E6FF160EE3
:102EBA00F225E16E000EF321E26E050E016EB1C637
:102ECA0000F0015004E000360090FF0FFBD700C06D
:102EDA00E6FF160EF225026E000EF321036EB2C64D
:102EEA0000F00032009E02C0E9FF03C0EAFFEE5084
:102EFA00002602C0E1FF03C0E2FF00C0E6FF180E91
:102F0A00F225006E000EF321016E010E0024E16E1F
:102F1A00000E0120E26EBC0E0601AC5D026E02C01C
:102F2A0000F00036009000C0E6FF180E0801F225F6
:102F3A00006E000EF321016E010E0024026E000ED7
:102F4A000120036EAEC600F00032009E0032009EE1
:102F5A000032009E02C0E9FF03C0EAFFEE500026DD
:102F6A0002C0E1FF03C0E2FF00C0E6FF180EF2252F
:102F7A00E16E000EF321E26E050E016EAEC600F0A0
:102F8A00015004E000360090FF0FFBD700C0E6FFB7
:102F9A00180EF225016E000EF321026E01C0E9FF40
:102FAA0002C0EAFF0601AF51EE24006E01C0E1FF44
:0C2FBA0002C0E2FF00C0E6FF006A120047
:102FC60072EC0BF0490E0801F36F030EF46F030168
:102FD6004451FF0A03E1FF0E006E97D24451FC0AEA
:102FE60003E1FF0E006E91D24451000AD8A469D0C5
:102FF6000F0E05015215016E01C0F5F801500B0ABE
:103006000AE00801F5510C0A06E0F80E0301446FC8
:10301600FF0E006E7AD253C596F954C597F955C579
:1030260098F956C599F9D6EC01F00050000A03E06C
:10303600FF0E006E6AD2490E0801F36F030EF46F9D
:10304600FE0EF3250901256F010E0801F421090181
:10305600266FC0EC0AF00150AA0A02E1550E0018CC
:1030660006E0FC0E0301446FFF0E006E4ED2F3C85D
:10307600E9FFF4C8EAFFEECF01F00150E90A16E0D5
:10308600F3C8E9FFF4C8EAFFEECF01F00150EB0AFE
:103096000BE1020E0801F325E96E000EF421EA6E3B
:1030A600EE50900A01E102D0006A02D0010E006ED5
:1030B600005206E1FB0E0301446FFF0E006E25D29F
:1030C60021D003014451FB0A1DE1800E0501516F19
:1030D600536B546B556B566B200E0801F325090193
:1030E600256F000E0801F4210901266FE5EC0AF0B0
:1030F60000C057F501C058F502C059F503C05AF58E
:103106000301446B03014451000AD8A4F9D10B0E04
:103116000801F3250901256F000E0801F4210901B4
:10312600266FC0EC0AF000C05BF501C05CF50D0E21
:103136000801F3250901256F000E0801F421090194
:10314600266FB9EC0AF000C05DF50E0E0801F325F6
:103156000901256F000E0801F4210901266FC0EC54
:103166000AF000C05EF501C05FF5100E0801F325F8
:103176000901256F000E0801F4210901266FB9EC3B
:103186000AF000C060F5240E0801F3250901256F39
:10319600000E0801F4210901266FE5EC0AF000C0D3
:1031A60061F501C062F502C063F503C064F5280E3F
:1031B6000801F3250901256F000E0801F421090114
:1031C600266FC0EC0AF000C065F501C066F5050182
:1031D6005E515325006E5F515421016E000E55213C
:1031E600026E000E5621036E00C067F501C068F539
:1031F60002C069F503C06AF52C0E0801F325090122
:10320600256F000E0801F4210901266FE5EC0AF08E
:1032160000C06BF501C06CF502C06DF503C06EF51C
:10322600110E0801F3250901256F000E0801F4218E
:103236000901266FC0EC0AF000C06FF501C070F5F9
:10324600300E0801F3250901256F000E0801F4214F
:103256000901266FC0EC0AF0000E026E036E05012E
:103266005351002654510122555102225651032230
:1032760000C075F501C076F502C077F503C078F594
:1032860067C571F568C572F569C573F56AC574F5E4
:103296000801F26B050160510801F25D18E20501B3
:1032A60061517125006E62517221016E6351732165
:1032B600026E64517421036E00C071F501C072F58F
:1032C60002C073F503C074F50801F22BE3D7050EAF
:1032D600006E5BC581F55CC582F5000E0501836F46
:1032E600846F005005E082338133829FFF0FFAD747
:1032F600000E836F846F5BC53BF35CC53CF3000E29
:1033060003013D6F3E6F3C333B333C9F3C333B33C5
:103316003C9F000E3D6F3E6F5BC513F95CC514F90B
:10332600000E0901156F166FA7EC0CF000C01CF714
:103336005DC513F9000E0901146F156F166FA7EC22
:103346000CF000C0ABF681C513F982C514F983C52C
:1033560015F984C516F9A7EC0CF000C0A9F63BC315
:1033660013F93CC314F93DC315F93EC316F9A7EC8E
:103376000CF000C03FF30601AB5107011C25006E9F
:1033860000C0B3F6010E1D6F000E1E6F000E1F6FFC
:10339600000E206F005007E01D371D911E371F37A6
:1033A6002037FF0FF8D7200E0901136F000E146F98
:1033B600156F166FA7EC0CF000500601B35D006E9A
:1033C600016A000E00BEFF0E015A00C004F0010E95
:1033D600006E000E016E000E026E000E036E0450AB
:1033E60007E000360090013602360336FF0FF8D7A5
:1033F60000C037F301C038F302C039F303C03AF313
:1034060000C013F901C014F902C015F903C016F97A
:10341600A7EC0CF000C0AAF66BC540F36CC541F3EF
:103426006DC542F36EC543F305014D6B4E6B4F6B95
:10343600506B71C500F072C501F073C502F074C51A
:1034460003F05351005E5451015A5551025A5651D8
:10345600035A57C549F558C54AF559C54BF55AC5D6
:103466004CF50050495F01504A5B02504B5B0350DC
:103476004C5BABC600F0005007E04C334B334A338D
:1034860049334C9FFF0FF8D7020E4927000E4A23F7
:103496004B234C23525320E1000E4C5D08E1000EF5
:1034A6004B5D05E1FF0E4A5D02E1F70E495D03E360
:1034B6000B0E526F11D0000E4C5D08E1000E4B5DF5
:1034C60005E10F0E4A5D02E1F70E495D03E3060EC4
:1034D600526F02D0010E526F0F0E5215016E01C0CF
:1034E600F5F801500B0A0AE00801F5510C0A06E04E
:1034F600F80E0301446FFF0E006E07D0006A05D078
:0C3506000301FB0E446FFF0E006E12006C
:103512001A0E0801F225E16E000EF321E26EF4C8E4
:10352200E6FF1A0EF225006E000EF321016E010E67
:103532000024E16E000E0120E26EF5C8E6FF140ED3
:10354200F225E16E000EF321E26EF6C8E6FF140EDC
:10355200F225006E000EF321016E010E0024E16ED1
:0E356200000E0120E26EF7C8E6FF006A1200BC
:103570003FC304F0F6C800F0F7C801F0F8C802F045
:10358000F9C803F0045007E003320232013200327E
:10359000039EFF0FF8D700C0FBF801C0FCF802C083
:1035A000FDF803C0FEF8050167510024086E68515C
:1035B0000120096E695102200A6E6A5103200B6EC8
:1035C00008C0FBF809C0FCF80AC0FDF80BC0FEF803
:1035D0003BC300F03CC301F03DC302F03EC303F027
:1035E000010E005E000E015A025A035A00500801F3
:1035F000F615046E0150F715056E0250F815066EAB
:103600000350F915076E04C000F005C001F0003644
:1036100000900136003600900136490E0024090161
:10362000056F030E0120066F08C096F909C097F9CF
:103630000AC098F90BC099F9D6EC01F00050000AC5
:1036400003E0FF0E006E47D005C9E1FF06C9E2FFA7
:10365000F2C8E6FFF3C8E6FFF4C8E6FFF5C8E6FFE8
:10366000FBC801F9FCC802F9FDC803F9FEC804F95A
:103670000801FA6B050160510801FA5D23E201C9F6
:1036800013F902C914F903C915F904C916F9DDECD7
:103690000CF00050000A03E0FF0E006E1CD0050184
:1036A0006151090101270501625109010223050148
:1036B0006351090103230501645109010423080131
:1036C000FA2BD8D7FBC845F3FCC846F3FDC847F32F
:0836D000FEC848F3006A120075
:1036D8000E0E0801F225006E000EF321016E010E98
:1036E8000024E16E000E0120E26EB0C600F0003644
:1036F8000090003600900036009000C0E6FF0E0EE5
:10370800F225006E000EF321016E010E0024026EF8
:10371800000E0120036EB1C600F00032009E003298
:10372800009E0032009E02C0E9FF03C0EAFFEE508F
:10373800002602C0E1FF03C0E2FF00C0E6FF0E0E54
:10374800F225E16E000EF321E26E050E016EB1C6A0
:1037580000F0015004E000360090FF0FFBD700C0D6
:10376800E6FF0E0EF225026E000EF321036EB2C6BE
:1037780000F00032009E02C0E9FF03C0EAFFEE50ED
:10378800002602C0E1FF03C0E2FF00C0E6FF100E02
:10379800F225006E000EF321016E010E0024E16E89
:1037A800000E0120E26EBC0E0601AC5D026E02C086
:1037B80000F00036009000C0E6FF100E0801F22568
:1037C800006E000EF321016E010E0024026E000E41
:1037D8000120036EAEC600F00032009E0032009E4B
:1037E8000032009E02C0E9FF03C0EAFFEE50002647
:1037F80002C0E1FF03C0E2FF00C0E6FF100EF225A1
:10380800E16E000EF321E26E050E016EAEC600F009
:10381800015004E000360090FF0FFBD700C0E6FF20
:10382800100EF225016E000EF321026E01C0E9FFB1
:1038380002C0EAFF0601AF51EE24006E01C0E1FFAD
:0C38480002C0E2FF00C0E6FF006A1200B0
:10385400F2C813F9F3C814F956EC11F000C0F7F8E4
:1038640001C0F8F8F4C813F9F5C814F956EC11F0CE
:103874000801F851011802E10050F71902E0006A4A
:1038840033D0F66BF4C813F9F5C814F956EC11F0FB
:10389400800E026E800E0118025C03E100500801E4
:1038A400F65D20E20801F651F225E96E000EF321DF
:1038B400EA6EEECF13F94BEC11F000C0F7F80801F3
:1038C400F651F425E96E000EF521EA6EEECF13F9F8
:1038D4004BEC11F00801F751001802E0006A04D023
:0A38E400F62BD0D7010E006E120083
:1038EE00086A080E0C6E003408360450085ED8B014
:0E38FE0002D00826D89000360C2EF5D7120006
:10390C004DC50AF94EC50BF94FC50CF950C50DF94B
:10391C0040C367F941C368F942C369F943C36AF903
:10392C004DC56BF94EC56CF94FC56DF950C56EF9A7
:10393C000E0E09016F6F090E706F4BEC06F0005004
:10394C00000A03E0FF0E006E7ED181C500F082C537
:10395C0001F083C502F084C503F0010E005E000E79
:10396C00015A025A035A005005014D15046E0150BC
:10397C004E15056E02504F15066E03505015076E0E
:10398C0004C006F905C007F906C008F907C009F913
:10399C00050E026E04C000F005C001F0025005E0F7
:1039AC00003600900136FF0FFAD7490E00240901AA
:1039BC00676F030E0120686F010E0801F56F59EC5B
:1039CC0005F000C0F6F8010E05014D5F000E4E5BD0
:1039DC004F5B505B000E006E0901091908E10050A5
:1039EC00081905E10050071902E10651000A2BE104
:1039FC0037C306F938C307F939C308F93AC309F9CB
:103A0C00010E065F000E075B085B095B40C367F99C
:103A1C0041C368F942C369F943C36AF94DC56BF9EF
:103A2C004EC56CF94FC56DF950C56EF90E0E6F6F22
:103A3C00090E706F4BEC06F00050000A03E0FF0E0D
:103A4C00006E01D107D0010E0901065F000E075B65
:103A5C00085B095B090181C500F082C501F083C5D3
:103A6C0002F084C503F0010E005E000E015A025AEA
:103A7C00035A00500615046E01500715056E0250CE
:103A8C000815066E03500915076E050E026E04C06C
:103A9C0000F005C001F0025005E000360090013640
:103AAC00FF0FFAD7490E0026030E012200C004F9BD
:103ABC0001C005F90B0E0024E96E000E0120EA6E20
:103ACC003F0EEE14016E01500F0A06E0C00E03010A
:103ADC00446FFF0E006EB7D00D0E09010425E96E80
:103AEC00000E0521EA6EEE500801F61906E0C10E33
:103AFC000301446FFF0E006EA6D004C9E9FF05C98F
:103B0C00EAFFEECF00F01F0E0014016E0150080109
:103B1C00F51906E0C20E0301446FFF0E006E93D040
:103B2C0004C967F905C968F9F70E0901696F080E30
:103B3C006A6F83EC05F00801F46BF70EE96E080E62
:103B4C00EA6EF451E926D8B0EA2AEECF13F94BEC21
:103B5C0011F000C012F90801F505006E016A000EA3
:103B6C00015A0D0E046E000E056E2AEC05F0F45190
:103B7C000026000E01220050F225E96E0150F321BF
:103B8C00EA6EEECF13F94BEC11F0125100180AE06B
:103B9C000AC94DF50BC94EF50CC94FF50DC950F5B9
:103BAC00006A51D00801F42B0D0EF45D0CE2F70EF7
:103BBC00E96E080EEA6EF451E926D8B0EA2AEE5006
:103BCC00000A01E0BAD70D0EF45D2AE2F70EE96E99
:103BDC00080EEA6EF451E926D8B0EA2AF505006E13
:103BEC00016A000E015A0D0E046E000E056E2AECD1
:103BFC0005F0F4510026000E01220050F225D96E7A
:103C0C000150F321DA6EEE50DE180AE00AC94DF5C8
:103C1C000BC94EF50CC94FF50DC950F5006A13D000
:103C2C00F52B04C9E9FF05C9EAFFEECF01F001ACA1
:103C3C00CAD60AC94DF50BC94EF50CC94FF50DC9BD
:083C4C0050F5010E006E12009C
:103C540040C3F6F841C3F7F842C3F8F843C3F9F890
:103C640005014D6B4E6B4F6B506B05016E51080196
:103C7400F95D0EE105016D510801F85D09E10501E9
:103C84006C510801F75D04E105016B510801F65D13
:103C940015E305014C510801F95D0EE105014B5195
:103CA4000801F85D09E105014A510801F75D04E1E5
:103CB400050149510801F65D01E206D0F40E030145
:103CC400446FFF0E006EF7D0490E0801FE6F030E1D
:103CD400FF6FF6C892F9F7C893F9F8C894F9F9C8D0
:103CE40095F97AEC02F000C025F901C026F902C06A
:103CF40027F903C028F96CEC08F00050000A03E02F
:103D0400FF0E006ED8D00801FA6BFB6BFC6BFD6BE9
:103D140003013A510801FD5D0EE103013951080127
:103D2400FC5D09E1030138510801FB5D04E1030175
:103D340037510801FA5DD8B095D0FF510301361907
:103D440003E135510801FE190DE10801490EFE6F2A
:103D5400030EFF6F73EC11F00050000A03E0FF0E36
:103D6400006EA9D0FEC813F9FFC814F9F2C815F9FA
:103D7400F3C816F90B0E0901176F000E186FA5ECA6
:103D84000FF0000E011802E1000E001858E1A9EC32
:103D940001F00050000A03E0FF0E006E8CD0080111
:103DA400F451F5113DE0FEC813F9FFC814F9F4C845
:103DB40015F9F5C816F940C317F941C318F942C3F8
:103DC40019F943C31AF94DC51BF94EC51CF94FC562
:103DD4001DF950C51EF901EC0FF00050000A03E074
:103DE400FF0E006E68D0080E0801F425E16E010E86
:103DF400F521E26E40C3E6FF41C3E6FF42C3E6FF9E
:103E040043C3E6FF0C0EF425E16E010EF521E26ECC
:103E14004DC5E6FF4EC5E6FF4FC5E6FF50C5E6FFBC
:103E2400FEC813F9FFC814F96EEC0EF0FEC813F9BE
:103E3400FFC814F9DDEC0DF0010E006E3CD0200E2D
:103E44000801FE27000EFF23010EFA27000EFB23B4
:103E5400FC23FD23010E05014D27000E4E234F23A5
:103E6400502356D7A9EC01F00050000A03E0FF0EDE
:103E7400006E21D0F6C892F9F7C893F9F8C894F9FE
:103E8400F9C895F9BFEC02F000C0F6F801C0F7F8E4
:103E940002C0F8F803C0F9F803500F0A08E1025011
:103EA400FF0A05E10150FF0A02E10050FF0A02E1A6
:083EB400006A01D0DAD6120009
:103EBC00010E0801F66FF76BF86BF96BFA6BFB6B85
:103ECC00FC6BF2C8E9FFF3C8EAFFEE50000A06E10A
:103EDC00C40E0301446FFF0E006EF7D0F2C813F945
:103EEC00F3C814F956EC11F000C0F5F80801F46BA6
:103EFC00F2C813F9F3C814F956EC11F0800E026EE7
:103F0C00800E0118025C03E100500801F45D16E21A
:103F1C000801F451F225E96E000EF321EA6EEECFA2
:103F2C0013F9D6EC0FF0005206E1C30E0301446FF7
:103F3C00FF0E006ECAD00801F42BDAD70801F50584
:103F4C00006E000EF5BFFF0E016E000E015A005000
:103F5C00F225E96E0150F321EA6EEE502E0A02E1D1
:103F6C00F507ECD7800E000A006E800EF519005C88
:103F7C0006E3E20E0301446FFF0E006EA6D0F2C8FA
:103F8C0013F9F3C814F956EC11F0800E0801F5BFC3
:103F9C007F0E026E800E0118025C02E10050F55D8E
:103FAC0009E2F551F225E16E000EF5BFFF0EF3218B
:103FBC00E26EE66AF46B800E006E800EF5BF7F0E2B
:103FCC00005C02E1F551F45D12E2F451F225E96E68
:103FDC00000EF321EA6EEECF25F94FEC08F00052FB
:103FEC0003E0010E006E71D00801F42BE4D7800EB3
:103FFC000C0A006E800EF519005C03E2010E006ED7
:10400C0064D0F46B800E006E800EF5BF7F0E005CEA
:10401C0002E1F551F45D43E2F451F225E96E000E34
:10402C00F321EA6EEECF92F941EC02F0005204E07B
:10403C00010E0801F76F2CD00801F451F225E96E3E
:10404C00000EF321EA6EEECF92F9B3EC02F00052BF
:10405C0004E0010E0801F86F1BD00801F451F225A1
:10406C00E96E000EF321EA6EEE502E0A11E1FA53BE
:10407C000CE1F75304E0F85302E0010EF96F010E66
:10408C00FA6FF66BF76BF86B08D0010E006E1DD053
:10409C00F65302E0FB2B01D0FC2BF42BB3D7F753D8
:1040AC0004E0F85302E0010EF96FFB51080804E339
:1040BC00FC51030801E303D0010E006E06D0F95346
:0C40CC0003E0020E006E01D0006A12003A
:1040D8000450000A12E10550000A0FE10650000AD8
:1040E8000CE10750000A09E1FF0E006EFF0E016E99
:1040F800FF0E026E7F0E036E99D00C6A07BE0C2A63
:104108000D6A0B6A0A6A096A086A035002100110EC
:104118000010D8B485D0035007180E6E0EBE0D1EC1
:1041280007AE0BD0041E051E061E071E042AD8B4AF
:10413800052AD8B4062AD8B4072A03AE0BD0001E25
:10414800011E021E031E002AD8B4012AD8B4022A6E
:10415800D8B4032A035007100E6E0EBE1DD0F3EC20
:104168000FF00CBE36D00DAE5BD0001E011E021E35
:10417800031E002AD8B4012AD8B4022AD8B4032AC4
:10418800081E091E0A1E0B1E082AD8B4092AD8B40C
:104198000A2AD8B40B2A44D007AE15D003BE0DD0D6
:1041A80003500B6E02500A6E0150096E0050086EE3
:1041B800036A026A016A006AD6D7036A026A016A58
:1041C800006A002A000C031E021E011E001E0C8E2F
:1041D800C6D7082AD8B4092AD8B40A2AD8B40B2AC8
:1041E8000450085CD8A4BFD70550095CD8A4BBD735
:1041F80006500A5CD8A4B7D707500B5CD8A4B3D72D
:104208000B6A0A6A096A086A002AD8B4012AD8B46B
:10421800022AD8B4032A03AEA6D70E6A0E88FF0C6A
:0E4228000E6A0CA002D0E7EC0FF0000F12009F
:104236000450000A08E10550000A05E1FF0E006E71
:104246007F0E016E58D00D6A096A086A0150001087
:10425600D8B4000C015005180A6E0ABE0D1E0B6A72
:1042660005AE05D0041E051E042AD8B4052A01AEE3
:1042760005D0001E011E002AD8B4012A01500510DF
:104286000A6E0ABE10D01FEC11F00BB020D00DAE96
:10429600000C001E011E002AD8B4012A081E091EA1
:1042A600082AD8B4092A000C05AE0DD001BE07D0E5
:1042B6000150096E0050086E016A006AE8D7016A6B
:1042C600006A002A000C011E001E0B2ADDD7082AF0
:1042D600D8B4092A0450085CD8A4D9D70550095C7B
:1042E600D8A4D5D7096A086A002AD8B4012A01AE2B
:0842F600CED70000FF0C1200FE
:0E42FE00ACB202D00000FCD7D1C8ADFF120058
:10430C000501975302E1006A65D0490E0801D16F8F
:10431C00030ED26F490E0901256F030E266F276B12
:10432C00000E286F020E296FE1EC08F0D1C8E1FFF6
:10433C00D2C8E2FF520EE66E520EE66E610EE66ECB
:10434C00410EE66EE40E0801D125E16E010ED2217C
:10435C00E26E720EE66E720EE66E410EE66E610E47
:10436C00E66EE80ED125E16E010ED221E26E79C522
:10437C00E6FF7AC5E6FF7BC5E6FF7CC5E6FFEC0EE3
:10438C00D125E16E010ED221E26E7DC5E6FF7EC520
:10439C00E6FF7FC5E6FF80C5E6FFFE0ED125E16E88
:1043AC00010ED221E26E550EE66EAA0EE66E75C5B2
:1043BC0013F976C514F977C515F978C516F9DDEC3E
:1043CC000CF00050000A03E0FF0E006E03D0050154
:0643DC00976B006A12005D
:1043E200800E0801D119006E800E000A005C0CE3F9
:1043F200800ED1BF7F0E006E000E800A005C02E1CB
:10440200040ED15D01E206D0D80E0301446FFF0E07
:10441200006E67D11A0E006E000E016ED1C804F054
:10442200000E0801D1BFFF0E056E2AEC05F0B40E96
:104432000026060E012200C0DAF801C0DBF8180ED1
:104442000024E96E000E0120EA6EEE50000A06E139
:10445200DC0E0301446FFF0E006E43D1140E0801FF
:10446200DA25D96E000EDB21DA6EDECF01F0DECF67
:1044720002F0DECF03F0DECF04F0D551045C08E198
:10448200D451035C05E1D351025C02E1D251015CDB
:1044920006E2DB0E0301446FFF0E006E22D1100E06
:1044A2000801DA25E96E000EDB21EA6EEECF01F09B
:1044B200EECF02F0EECF03F0EECF04F00450D519A8
:1044C20008E10350D41905E10250D31902E1015069
:1044D200D21902E1006A05D1100EDA25E96E000E4A
:1044E200DB21EA6EEECF01F0EECF02F0EECF03F069
:1044F200EECF04F0B3C600F001C005F002C006F032
:1045020003C007F004C008F0005007E00832073289
:1045120006320532089EFF0FF8D7B3C600F0D2C8A4
:1045220001F0D3C802F0D4C803F0D5C804F000509B
:1045320007E00432033202320132049EFF0FF8D741
:104542000850041808E10750031805E10650021844
:1045520002E10550011811E10801100EDA25E16EA1
:10456200000EDB21E26ED2C8E6FFD3C8E6FFD4C854
:10457200E6FFD5C8E6FF006AB4D00801100EDA25BE
:10458200E16E000EDB21E26ED2C8E6FFD3C8E6FF81
:10459200D4C8E6FFD5C8E6FF100EDA25E96E000E94
:1045A200DB21EA6EEECF01F0EECF02F0EECF03F0A8
:1045B200EECF04F0B3C600F001C0D6F802C0D7F8BF
:1045C20003C0D8F804C0D9F8005007E0D933D83373
:1045D200D733D633D99FFF0FF8D7040EDA25E16E11
:1045E200000EDB21E26EDAC8E9FFDBC8EAFFEECF9C
:1045F20000F0EECF01F0EECF02F0EECF03F000C0FC
:10460200E6FF01C0E6FF02C0E6FF03C0E6FFD951A4
:10461200000808E1D851000805E1D751000802E17D
:10462200D65100085DE2040EDA25DC6F000EDB21B4
:10463200DD6FDCC8E9FFDDC8EAFFEECF92F9EECF0D
:1046420093F9EECF94F9EECF95F9BFEC02F0DCC806
:10465200E1FFDDC8E2FF00C0E6FF01C0E6FF02C0E5
:10466200E6FF03C0E6FF040E0801DA25D96E000E4C
:10467200DB21DA6EDECF01F0DECF02F0DECF03F017
:10468200DECF04F00F0E041808E1FF0E031805E157
:10469200FF0E021802E1FF0E01181AE1100EDA25D0
:1046A200E16E000EDB21E26E140EDA25E96E000ED9
:1046B200DB21EA6EEECFE6FFEECFE6FFEECFE6FFBE
:1046C200EECFE6FFDB0E0301446FFF0E006E09D052
:1046D200010E0801D65F000ED75BD85BD95B97D776
:0446E200006A120058
:1046E6001C0E0801D125E16E000ED221E26ED3C860
:1046F600E6FF1C0ED125006E000ED221016E010EC2
:104706000024E16E000E0120E26ED4C8E6FF1C0E06
:10471600D125006E000ED221016E020E0024E16E3C
:10472600000E0120E26ED5C8E6FF1C0ED125006EF4
:10473600000ED221016E030E0024E16E000E012050
:0A474600E26ED6C8E6FF006A12001A
:10475000E3EC17F0490E0801D16F030ED26F490E3A
:10476000D36F030ED46F03014451FF0A03E1FF0E20
:10477000006EB3D04451FC0A03E1FF0E006EADD0D1
:104780004451000AD8A4A4D0300E0801D125090153
:10479000256F000E0801D2210901266FC0EC0AF036
:1047A0000050050153250901966F01500501542160
:1047B0000901976F000E050155210901986F000E40
:1047C000050156210901996FD6EC01F00050000A4D
:1047D00003E0FF0E006E81D0490E0801D36F030E77
:1047E000D46FFE0ED3250901256F010E0801D421D7
:1047F0000901266FC0EC0AF00150AA0A02E1550E29
:10480000001806E0FC0E0301446FFF0E006E65D039
:10481000D3C825F9D4C826F9E5EC0AF00350410ABB
:1048200008E10250610A05E10150520A02E100501C
:10483000520A06E0FA0E0301446FFF0E006E4DD0DF
:10484000E40E0801D3250901256F010E0801D421CA
:104850000901266FE5EC0AF00350610A08E10250F5
:10486000410A05E10150720A02E10050720A06E0B5
:10487000FA0E0301446FFF0E006E2FD0E80E080100
:10488000D3250901256F010E0801D4210901266FE6
:10489000E5EC0AF000C079F501C07AF502C07BF5BD
:1048A00003C07CF5EC0E0801D3250901256F010E2C
:1048B0000801D4210901266FE5EC0AF000C07DF55E
:1048C00001C07EF502C07FF503C080F5006A05D007
:0C48D000FA0E0301446FFF0E006E120090
:1048DC00AC0E0901256F060E266F276B070E286F8D
:1048EC00000E296FE1EC08F0850E256F050E266F82
:1048FC00276B070E286F000E296FE1EC08F08C0E69
:10490C00256F050E266F276B070E286F000E296F7B
:10491C00E1EC08F0510E256F050E266F276B300E5B
:10492C00286F000E296FE1EC08F0450E256F030E81
:10493C00266F276B040E286F020E296FE1EC08F02E
:10494C00B40E256F060E266F276B040E006E000E3C
:10495C00016E1A0E0002F3CF28F9F4CF29F9E1EC1D
:10496C0008F0310E256F070E266F276B0C0E286F83
:10497C00000E296FE1EC08F0FF0E0301456FFF0EEE
:10498C00466FFF0E476FFF0E486F490E356F050ED1
:10499C00366F0601A86B0501976B496B4A6B4B6B25
:1049AC004C6B0301406B416B426B436B05014D6BD0
:1049BC004E6B4F6B506B0701456B430E316F030110
:0449CC00446B120026
:1049D000BFEC11F0000E001803E0FF0E006E01D0D6
:0449E000006A120057
:1049E400D1C8E9FFD2C8EAFFEE50000A06E1C40EBE
:1049F4000301446FFF0E006EB6D040C3D5F841C327
:104A0400D6F842C3D7F843C3D8F805014D6B4E6BB3
:104A14004F6B506B0801DE6BD3C8F2F8D4C8F3F8BF
:104A240083EC14F00050010AD8A494D0FF0E0801BE
:104A3400D325E96E000ED421EA6E3F0EEE14016E0A
:104A440001500F0A03E1010EDE6FE6D7010E0501E6
:104A54004D5F000E4E5B4F5B505B0801DE533BE045
:104A6400D1C8F2F8D2C8F3F886EC1CF000C0DDF827
:104A74000050FF0A03E1FF0E006E75D00801DD51FE
:104A8400010A28E140C367F941C368F942C369F9DF
:104A940043C36AF94DC56BF94EC56CF94FC56DF941
:104AA40050C56EF9D90E09016F6F080E706F4BEC8B
:104AB40006F00050000A03E0FF0E006E54D0D5C883
:104AC40040F3D6C841F3D7C842F3D8C843F3010E24
:104AD400006E49D035D0D3C8F2F8D4C8F3F8D1C8A1
:104AE400F4F8D2C8F5F82AEC1CF00050010A28E1C9
:104AF40040C367F941C368F942C369F943C36AF91A
:104B04004DC56BF94EC56CF94FC56DF950C56EF9BD
:104B1400D90E09016F6F080E706F4BEC06F0005050
:104B2400000A03E0FF0E006E1ED0D5C840F3D6C8BD
:104B340041F3D7C842F3D8C843F3010E006E13D033
:104B4400010E05014D27000E4E234F23502308016B
:104B5400DE6B62D7D5C840F3D6C841F3D7C842F359
:084B6400D8C843F3006A1200F7
:0A4B6C001D0E0D6E0D2EFED7120077
:104B7600086A096A100E0C6E0134083609360450AC
:104B8600085E0550D8A0053C095ED8B007D0045091
:104B960008260550D8B0053C0926D89000360136BF
:064BA6000C2EEAD71200FC
:104BAC00D1C8E1FFD2C8E2FFD3C8E6FF006A120009
:104BBC00D60E0901256F080E266FFF0E276F0D0EFE
:104BCC00286F000E296FE1EC08F00801D56B0D0E73
:104BDC00D55D1CE2D60EE16E080EE26ED551E126D3
:104BEC00D8B0E22AD551D325E96E000ED421EA6E55
:104BFC00EECFE6FFD551D325E96E000ED421EA6E37
:104C0C00EE50000A01E102D0D52BE1D7010ED125DF
:104C1C00E16E000ED221E26ED6C8E6FF030ED1255E
:104C2C00E16E000ED221E26ED7C8E6FF050ED1254B
:104C3C00E16E000ED221E26ED8C8E6FF070ED12538
:104C4C00E16E000ED221E26ED9C8E6FF090ED12525
:104C5C00E16E000ED221E26EDAC8E6FF0E0ED1250F
:104C6C00E16E000ED221E26EDBC8E6FF100ED125FC
:104C7C00E16E000ED221E26EDCC8E6FF120ED125E9
:104C8C00E16E000ED221E26EDDC8E6FF140ED125D6
:104C9C00E16E000ED221E26EDEC8E6FF160ED125C3
:104CAC00E16E000ED221E26EDFC8E6FF180ED125B0
:104CBC00E16E000ED221E26EE0C8E6FF1C0ED1259B
:104CCC00E16E000ED221E26EE1C8E6FF1E0ED12588
:104CDC00E16E000ED221E26EE2C8E6FFD551010F63
:104CEC00026E036A000E0322B7D0010ED125006EAE
:104CFC00000ED221016E010E0024E16E000E012087
:104D0C00E26EFF0EE66E030ED125006E000ED22170
:104D1C00016E010E0024E16E000E0120E26EFF0E0A
:104D2C00E66E050ED125006E000ED221016E010E2D
:104D3C000024E16E000E0120E26EFF0EE66E070EFF
:104D4C00D125006E000ED221016E010E0024E16E01
:104D5C00000E0120E26EFF0EE66E090ED125006EEC
:104D6C00000ED221016E010E0024E16E000E012016
:104D7C00E26EFF0EE66E0E0ED125006E000ED221F5
:104D8C00016E010E0024E16E000E0120E26EFF0E9A
:104D9C00E66E100ED125006E000ED221016E010EB2
:104DAC000024E16E000E0120E26EFF0EE66E120E84
:104DBC00D125006E000ED221016E010E0024E16E91
:104DCC00000E0120E26EFF0EE66E140ED125006E71
:104DDC00000ED221016E010E0024E16E000E0120A6
:104DEC00E26EFF0EE66E160ED125006E000ED2217D
:104DFC00016E010E0024E16E000E0120E26EFF0E2A
:104E0C00E66E180ED125006E000ED221016E010E39
:104E1C000024E16E000E0120E26EFF0EE66E1C0E09
:104E2C00D125006E000ED221016E010E0024E16E20
:104E3C00000E0120E26EFF0EE66E1E0ED125006EF6
:104E4C00000ED221016E010E0024E16E000E012035
:104E5C00E26EFF0EE66E58D0000E031802E1000E53
:104E6C000218D8B442D7000E031802E1010E021842
:104E7C00D8B449D7000E031802E1020E0218D8B4B8
:104E8C0050D7000E031802E1030E0218D8B457D7FE
:104E9C00000E031802E1040E0218D8B45ED7000EFF
:104EAC00031802E1050E0218D8B465D7000E0318DA
:104EBC0002E1060E0218D8B46CD7000E031802E1FA
:104ECC00070E0218D8B473D7000E031802E1080EAF
:104EDC000218D8B47AD7000E031802E1090E021892
:104EEC0082E0000E031802E10A0E02188AE0000E9E
:104EFC00031802E10B0E021892E0000E031802E1F7
:0C4F0C000C0E02189AE0A7D7006A1200F1
:104F18000D0E0801D125E16E000ED221E26ED3C834
:064F2800E6FF006A120022
:104F2E000B0E0801D125E16E000ED221E26ED3C820
:064F3E00E6FF006A12000C
:104F44000601A6510801D125016E0601A7510801E9
:104F5400D221026E0250010802E101500E0806E25D
:104F6400BE0E0301446FFF0E006E01D0006A1200F2
:104F7400D1C8E9FFD2C8EAFFEE50000A07E1C40E27
:104F84000301446FFF0E006E55EF2EF0D3C825F9D0
:104F9400D4C826F9200E0901276F0B0E286F000EC6
:104FA400296FE1EC08F0D1C8E9FFD2C8EAFFEE505E
:104FB4002E0A13E1010E0801D125E96E000ED2215B
:104FC400EA6EEE50000A09E1D3C8E1FFD4C8E2FF5B
:104FD4002E0EE66E006A55EF2EF0D1C8E9FFD2C856
:104FE400EAFFEE502E0A24E10801010ED125E96EF4
:104FF400000ED221EA6EEE502E0A1AE1020ED125DD
:10500400E96E000ED221EA6EEE50000A11E1D3C817
:10501400E1FFD4C8E2FF2E0EE66E010ED325E16E49
:10502400000ED421E26E2E0EE66E006A55EF2EF0CD
:10503400D1C8E9FFD2C8EAFFEE502E0A07E1E20E1A
:105044000301446FFF0E006E55EF2EF0D1C813F923
:10505400D2C814F956EC11F000C0E3F801C0E4F82A
:10506400D1C8F2F8D2C8F3F85EEC1FF000C0E0F843
:105074000050FF0A04E1FF0E006E55EF2EF0010E02
:105084000801E35D006E000EE459016E0050D12565
:10509400E96E0150D221EA6EEE502E0A10E0010EA4
:1050A400E35D006E000EE459016E0050D125E96EF7
:1050B4000150D221EA6EEE50200A01E015D0800E94
:1050C400006E800EE419005C02E1E35100080CE27A
:1050D400E351D125E16EE451D221E26EE66A010E7C
:1050E400E35F000EE45BCBD7000EE41902E1000E8F
:1050F400E31904E1FF0E006E55EF2EF0000EE0BF41
:10510400FF0E006E000E001802E1000EE0190BE025
:10511400000EE0BFFF0E006E000E001802E1020E4A
:10512400E01901E08DD0DB6BDA6B080EDA5D2EE25C
:10513400DB51D125E96E000ED221EA6EEE502E0A23
:105144000AE0DB51D125E96E000ED221EA6EEE5061
:10515400000A01E001D01AD0DA51D325E56F000E20
:10516400D421E66FDB51D125E96E000ED221EA6E1F
:10517400EECF13F94BEC11F0E5C8E1FFE6C8E2FF0E
:1051840000C0E6FF0801DB2BDA2BCFD7DB51D1259A
:10519400E96E000ED221EA6EEE50000A0AE1D3C88D
:1051A400F2F8D4C8F3F8F46BF56B2AEC1EF055EF63
:1051B4002EF00801DB51D125E96E000ED221EA6EF2
:1051C400EE502E0A02E1DB2B07D0E20E0301446FFE
:1051D400FF0E006E55EF2EF0080E0801DA6F0B0E6D
:1051E400DA5D24E2DB51D125E96E000ED221EA6EAC
:1051F400EE50000A01E11AD0DA51D325E56F000E12
:10520400D421E66FDB51D125E96E000ED221EA6E7E
:10521400EECF13F94BEC11F0E5C8E1FFE6C8E2FF6D
:1052240000C0E6FF0801DB2BDA2BD9D7D3C8F2F88C
:10523400D4C8F3F8F46BF56B2AEC1EF055EF2EF09E
:10524400000E0801E0BFFF0E006E000E001802E120
:10525400010EE019D8A452EF2EF0E3C8DDF8010ED8
:10526400E35DDE6F000EE459DF6FDE51D125E96E98
:10527400DF51D221EA6EEE502E0A0EE0800E006E4F
:10528400800EDF19005C02E1DE51000805E2010E28
:10529400DE5F000EDF5BE9D7800E006E800EDF1943
:1052A400005C02E1DE5100084EE2DEC8DDF8DE4BB0
:1052B400DF2B080EDA6F0B0EDA5D45E2DE51D125E5
:1052C400E96EDF51D221EA6EEE50000A3CE0DE5175
:1052D400D125E96EDF51D221EA6EEECF25F94FECEC
:1052E40008F000521AE10801DA51D325E56F000EE7
:1052F400D421E66FDE51D125E96EDF51D221EA6E69
:10530400EECF13F94BEC11F0E5C8E1FFE6C8E2FF7C
:1053140000C0E6FF0801DA2B13D00801DE51D125C5
:10532400E96EDF51D221EA6EEE50200A09E0DA512B
:10533400D325E16E000ED421E26E5F0EE66EDA2B09
:10534400DE4BDF2BB8D7DDC8DEF8000EDF6FDB6B7A
:10535400DA6B080EDA5D57E2DB51D125E96E000EF7
:10536400D221EA6EEE50000A01E14DD0000EDF19A1
:1053740002E1DE51DB1901E146D0DB51D125E96EB2
:10538400000ED221EA6EEE502E0A0AE0DB51D1253E
:10539400E96E000ED221EA6EEE50200A01E001D03F
:1053A40030D0DB51D125E96E000ED221EA6EEECF6A
:1053B40025F94FEC08F000521AE10801DA51D3251F
:1053C400E56F000ED421E66FDB51D125E96E000EA6
:1053D400D221EA6EEECF13F94BEC11F0E5C8E1FFF0
:1053E400E6C8E2FF00C0E6FF0801DA2B0AD0080194
:1053F400DA51D325E16E000ED421E26E5F0EE66E23
:10540400DA2BDB2BA6D7010EE16F060EDA5D03E281
:10541400DAC8D5F802D0060ED56FD5C8DDF8D55157
:10542400D325E16E000ED421E26E7E0EE66E010EEF
:10543400DC6FDC5109083BE3E151000A38E0DD513F
:10544400010F006E016A000E01220050D325E16EA7
:105454000150D421E26E300EDC25006E00C0E6FF60
:10546400D3C8F2F8D4C8F3F8F46BF56B2AEC1EF049
:1054740000C0E1F80050FF0A04E1FF0E006E55EF92
:105484002EF00801E151010A0FE1D1C8F2F8D2C8A7
:10549400F3F886EC1CF000C0E2F80050000A04E0C7
:1054A400E2C800F055EF2EF00801DC2BC2D7E15121
:1054B400000AD8B475D0050EDA5D03E2DAC8D6F86E
:1054C40002D0050ED66FD6C8DDF8D651D325E16ECD
:1054D400000ED421E26E7E0EE66E0A0EDC6FDC5105
:1054E40063085EE3E151000A5BE0DD51010F006EE9
:1054F400016A000E01220050D325E56F0150D4212A
:10550400E66F0A0E046EDCC800F077EC1CF0300E77
:105514000026E5C8E1FFE6C8E2FF00C0E6FF020E90
:10552400DD25006E016A000E01220050D325E56FCF
:105534000150D421E66F0A0E046EDCC800F077EC4B
:105544001CF008C000F0300E0026E5C8E1FFE6C8F4
:10555400E2FF00C0E6FFD3C8F2F8D4C8F3F8F46B56
:10556400F56B2AEC1EF000C0E1F80050FF0A03E1DD
:10557400FF0E006E98D30801E151010A0EE1D1C873
:10558400F2F8D2C8F3F886EC1CF000C0E2F8005040
:10559400000A03E0E2C800F086D30801DC2B9FD7A1
:1055A400E151000AD8B49DD0040EDA5D03E2DAC8F2
:1055B400D7F802D0040ED76FD7C8DDF8D751D3255A
:1055C400E16E000ED421E26E7E0EE66E640EDC6F98
:1055D400800E030A006E800E005C02E1DC51E708D5
:1055E400D8A07FD0E151000AD8B47BD0DD51010F9F
:1055F400006E016A000E01220050D325E56F0150B0
:10560400D421E66F640E046EDCC800F077EC1CF065
:10561400300E0026E5C8E1FFE6C8E2FF00C0E6FF61
:10562400020EDD25006E016A000E01220050D32512
:10563400E56F0150D421E66F0A0E046EDCC800F059
:1056440077EC1CF00A0E046E77EC1CF008C000F036
:10565400300E0026E5C8E1FFE6C8E2FF00C0E6FF21
:10566400030EDD25006E016A000E01220050D325D1
:10567400E56F0150D421E66F0A0E046EDCC800F019
:1056840077EC1CF008C000F0300E0026E5C8E1FFFE
:10569400E6C8E2FF00C0E6FFD3C8F2F8D4C8F3F8C6
:1056A400F46BF56B2AEC1EF000C0E1F80050FF0A21
:1056B40003E1FF0E006EF7D20801E151010A0EE189
:1056C400D1C8F2F8D2C8F3F886EC1CF000C0E2F8B6
:1056D4000050000A03E0E2C800F0E5D20801DC2B28
:1056E40077D7E151000AD8B4C2D0030EDA5D03E2E1
:1056F400DAC8D8F802D0030ED86FD8C8DDF8D8516C
:10570400D325E16E000ED421E26E7E0EE66EE80E25
:10571400DC6F800E270A006E800E005C02E1DC5113
:105724000F08D8A0A4D0E151000AD8B4A0D0DD510C
:10573400010F006E016A000E01220050D325E56FAF
:105744000150D421E66FE80E046E030E056EDCC82A
:1057540000F0000E016E1BEC21F0300E0026E5C8AF
:10576400E1FFE6C8E2FF00C0E6FF020E0801DD2506
:10577400006E016A000E01220050D325E56F01502E
:10578400D421E66F640E046EDCC800F077EC1CF0E4
:105794000A0E046E77EC1CF008C000F0300E0026F0
:1057A400E5C8E1FFE6C8E2FF00C0E6FF030EDD2521
:1057B400006E016A000E01220050D325E56F0150EE
:1057C400D421E66F0A0E046EDCC800F077EC1CF0FE
:1057D4000A0E046E77EC1CF008C000F0300E0026B0
:1057E400E5C8E1FFE6C8E2FF00C0E6FF040EDD25E0
:1057F400006E016A000E01220050D325E56F0150AE
:10580400D421E66F0A0E046EDCC800F077EC1CF0BD
:1058140008C000F0300E0026E5C8E1FFE6C8E2FF4C
:1058240000C0E6FFD3C8F2F8D4C8F3F8F46BF56B04
:105834002AEC1EF000C0E1F80050FF0A03E1FF0E5D
:10584400006E31D20801E151010A0EE1D1C8F2F82B
:10585400D2C8F3F886EC1CF000C0E2F80050000A4D
:1058640003E0E2C800F01FD20801DC2B52D7E1515B
:10587400000AD8B4F1D0020EDA5D03E2DAC8D9F82E
:1058840002D0020ED96FD9C8DDF8D951D325E16E03
:10589400000ED421E26E7E0EE66E100EDC6F800EDA
:1058A400000A006E800E005C08E1000E010805E1AC
:1058B400000E860802E1DC519F08D8A0CDD0E1514A
:1058C400000AD8B4C9D0DD51010F006E016A000E80
:1058D40001220050D325E56F0150D421E66F100E4C
:1058E400046E270E056EDCC800F0000E016E1BEC82
:1058F40021F0300E0026E5C8E1FFE6C8E2FF00C053
:10590400E6FF020E0801DD25006E016A000E012289
:105914000050D325E56F0150D421E66FE80E046EE4
:10592400030E056EDCC800F0000E016E1BEC21F0C6
:105934000A0E046E000E056E1BEC21F008C000F088
:1059440009C001F0300E0026E5C8E1FFE6C8E2FF19
:1059540000C0E6FF030E0801DD25006E016A000E9B
:1059640001220050D325E56F0150D421E66F640E67
:10597400046EDCC800F077EC1CF00A0E046E77ECC1
:105984001CF008C000F0300E0026E5C8E1FFE6C8B0
:10599400E2FF00C0E6FF040EDD25006E016A000E82
:1059A40001220050D325E56F0150D421E66F0A0E81
:1059B400046EDCC800F077EC1CF00A0E046E77EC81
:1059C4001CF008C000F0300E0026E5C8E1FFE6C870
:1059D400E2FF00C0E6FF050EDD25006E016A000E41
:1059E40001220050D325E56F0150D421E66F0A0E41
:1059F400046EDCC800F077EC1CF008C000F0300E38
:105A04000026E5C8E1FFE6C8E2FF00C0E6FFD3C810
:105A1400F2F8D4C8F3F8F46BF56B2AEC1EF000C06E
:105A2400E1F80050FF0A03E1FF0E006E3CD10801CB
