:1000000052EF40F00000000000EF00F000000000A0
:0A0010000000000000000000F3D71C
:0E001C00ACB202D00000FCD7F5C8ADFF120058
:0C002A0072B201D0FDD7F5C873FF1200C0
:10003600F5C8C9FFC7B002D00000FCD7C9CF00F091
:020046001200A6
:10004800F5C86FFF6DB002D00000FCD76FCF00F08D
:02005800120094
:10005A00F250026EF29E0500FF6A0150FE6E0050D9
:08006A00FD6E02BEF28E1200D1
:100072009E96EFC8C9FF88C0F0F889C0F1F88AC01F
:10008200F2F88BC0F3F8C7A422D00001885189117D
:100092008A118B111BE00801F051F111F211F311D9
:1000A2000EE142C6E1FF43C6E2FF040EE66E40C621
:1000B20000F041C601F0D0DF010E006E3BD0010E10
:1000C2000801F05F000EF15BF25BF35BDCD788C0E6
:1000D200F0F889C0F1F88AC0F2F88BC0F3F89EB646
:1000E20022D00001885189118A118B111BE008016D
:1000F200F051F111F211F3110EE142C6E1FF43C6D4
:10010200E2FF040EE66E40C600F041C601F0A4DF35
:10011200010E006E0FD0010E0801F05F000EF15BC0
:10012200F25BF35BDCD7C5BC02D0006A03D0C584A6
:06013200020E006E120037
:10013800EFC86FFF6DB002D00000FCD76FCF00F0A2
:020148001200A3
:10014A0088C0F1F889C0F2F88AC0F3F88BC0F4F8D5
:10015A009E96C5869EB620D00001885189118A11C3
:10016A008B1119E00801F151F211F311F4110CE1AC
:10017A0042C6E1FF43C6E2FF030EE66E40C600F048
:10018A0041C601F065DF08D0010E0801F15F000EDB
:10019A00F25BF35BF45BDED70801C9CFF0F8EF51ED
:1001AA00000A02E1C58A01D0C59A9E96C58888C010
:1001BA00F1F889C0F2F88AC0F3F88BC0F4F89EB659
:1001CA0020D00001885189118A118B1119E0080188
:1001DA00F151F211F311F4110CE142C6E1FF43C6E9
:1001EA00E2FF030EE66E40C600F041C601F030DFC2
:1001FA0008D0010E0801F15F000EF25BF35BF45BBD
:08020A00DED7F0C800F012007D
:10021200EFC8C9FFC7B002D00000FCD7C9CF00F0B9
:020222001200C8
:10022400A49EEFC86FFF8CC0F0F88DC0F1F88EC0AB
:10023400F2F88FC0F3F86DA422D000018C518D1117
:100244008E118F111BE00801F051F111F211F3111D
:100254000EE146C6E1FF47C6E2FF040EE66E44C661
:1002640000F045C601F0F7DE010E006E3BD0010E32
:100274000801F05F000EF15BF25BF35BDCD78CC02E
:10028400F0F88DC0F1F88EC0F2F88FC0F3F8A4BE78
:1002940022D000018C518D118E118F111BE00801A9
:1002A400F051F111F211F3110EE146C6E1FF47C618
:1002B400E2FF040EE66E44C600F045C601F0CBDE54
:1002C400010E006E0FD0010E0801F05F000EF15B0D
:1002D400F25BF35BDCD76BBC02D0006A03D06B84A7
:0602E400020E006E120084
:1002EA008CC0F1F88DC0F2F88EC0F3F88FC0F4F824
:1002FA00A49E6B86A4BE20D000018C518D118E1154
:10030A008F1119E00801F151F211F311F4110CE106
:10031A0046C6E1FF47C6E2FF030EE66E44C600F09A
:10032A0045C601F095DE08D0010E0801F15F000E06
:10033A00F25BF35BF45BDED708016FCFF0F8EF51A5
:10034A00000A02E16B8A01D06B9AA49E6B888CC06A
:10035A00F1F88DC0F2F88EC0F3F88FC0F4F8A4BE9D
:10036A0020D000018C518D118E118F1119E00801D6
:10037A00F151F211F311F4110CE146C6E1FF47C63F
:10038A00E2FF030EE66E44C600F045C601F060DEE9
:10039A0008D0010E0801F15F000EF25BF35BF45B1B
:0803AA00DED7F0C800F01200DC
:1003B20083884AC6E1FF4BC6E2FFFF0EE66E48C6DF
:0A03C20000F049C601F048DE120009
:1003CC004AC6E1FF4BC6E2FF4C0EE66E48C600F093
:1003DC0049C601F03CDE4AC6E1FF4BC6E2FFE66AC5
:1003EC0048C600F049C601F032DE4AC6E1FF4BC6F2
:1003FC00E2FFE66A48C600F049C601F028DE4AC6AC
:10040C00E1FF4BC6E2FFE66A48C600F049C601F0C0
:10041C001EDE4AC6E1FF4BC6E2FFE66A48C600F0A4
:10042C0049C601F014DE4AC6E1FF4BC6E2FFFF0EDF
:10043C00E66E48C600F049C601F009DE0801E76B1C
:10044C00E86B4AC6E1FF4BC6E2FFFF0EE66E48C6FC
:10045C0000F049C601F0FBDD00C0E6F80801E74BEF
:10046C00E82B800E0014016E0150000A07E0000E0C
:10047C00E85D02E1640EE75D01E2E3D7E6AF04D08C
:10048C0092DFE6C800F012D04AC6E1FF4BC6E2FF8D
:10049C00FF0EE66E48C600F049C601F0D8DD00C07C
:0E04AC00E6F80050000AF0E07EDF006A120061
:1004BA00400E0801E625006E4AC6E1FF4BC6E2FF80
:1004CA0000C0E6FF48C600F049C601F0C1DD4AC6D1
:1004DA00E1FF4BC6E2FFEAC8E6FF48C600F049C69C
:1004EA0001F0B6DD4AC6E1FF4BC6E2FFE9C8E6FF06
:1004FA0048C600F049C601F0ABDD4AC6E1FF4BC66B
:10050A00E2FFE8C8E6FF48C600F049C601F0A0DDF0
:10051A004AC6E1FF4BC6E2FFE7C8E6FF48C600F05D
:10052A0049C601F095DD4AC6E1FF4BC6E2FFEBC8BA
:10053A00E6FF48C600F049C601F08ADD0801ED6B06
:10054A00EE6B4AC6E1FF4BC6E2FFFF0EE66E48C6F7
:10055A0000F049C601F07CDD00C0ECF80801ED4B63
:10056A00EE2B800E0014016E0150000A07E0000E07
:10057A00EE5D02E1640EED5D01E2E3D7ECC800F046
:02058A0012005D
:04058C00839812003E
:10059000FDDF000E000A03E1040E0001871909E1E6
:1005A000D8C8E0F8D9C8E1F8DAC8E2F8DBC8E3F85F
:1005B00014D0090E006ED8C8E0F8D9C8E1F8DAC83E
:1005C000E2F8DBC8E3F8005008E00801E037E0910A
:1005D000E137E237E337FF0FF7D70801110EE66F77
:1005E000E0C8E7F8E1C8E8F8E2C8E9F8E3C8EAF8E3
:1005F000FF0EEB6F62DF005204E0DBDE010E006EE7
:100600004BD04AC6E1FF4BC6E2FFFF0EE66E48C67E
:1006100000F049C601F021DD0050FE0A01E0F1D7EB
:100620000801DE6BDF6B020EDF5D02E1000EDE5DB6
:100630001BE2DE51DC25E46FDF51DD21E56F4AC6A8
:10064000E1FF4BC6E2FFFF0EE66E48C600F049C66A
:1006500001F003DDE4C8E1FFE5C8E2FF00C0E6FF0A
:100660000801DE4BDF2BDFD74AC6E1FF4BC6E2FFB6
:10067000FF0EE66E48C600F049C601F0EEDC4AC641
:10068000E1FF4BC6E2FFFF0EE66E48C600F049C62A
:0A06900001F0E3DC8EDE006A1200C8
:10069A0098DE0050000A03E0FF0E006E01D0006AE7
:0206AA0012003C
:1006AC00D2C8D8F8D3C8D9F8D4C8DAF8D5C8DBF88A
:1006BC00D6C8DCF8D7C8DDF865DF0050000A03E0C7
:0A06CC00FF0E006E01D0006A12005C
:1006D60004014E51000A04E04E51020A01E002D024
:1006E600006A0DD0D7DF000E001806E0FF0E0501E8
:1006F600D16FFF0E006E03D004014E6B006A12002C
:1007060004014E51030A20E1E3DF0050000A06E02F
:10071600FF0E0501D16FFF0E006E5DD00101FD5188
:100726000801D1190EE10101FC510801D01909E1B6
:100736000101FB510801CF1904E10101FA51080139
:10074600CE1902E1006A47D004014E51010A06E1C2
:10075600FF0E0501D16FFF0E006E3DD00801D1518D
:100766000101FD190EE10801D0510101FC1909E151
:100776000801CF510101FB1904E10801CE51010125
:10078600FA1928E0CEC8D2F8CFC8D3F8D0C8D4F822
:10079600D1C8D5F8FE0E0801D66F010ED76F83DFDC
:1007A600000E00180FE0FF0E0101FA6FFF0EFB6F3F
:1007B600FF0EFC6FFF0EFD6FFF0E0501D16FFF0EE2
:1007C600006E09D0CEC8FAF1CFC8FBF1D0C8FCF153
:0807D600D1C8FDF1006A120018
:1007DE000801CA517A0806E3610ECA5D03E3010EF1
:0807EE00006E01D0006A120048
:1007F600026A110E025C17E2CB0E0224F66E820E1E
:10080600F76E000EF722000EF86E000EF8220900B1
:10081600F5CF01F001500801CA1903E1010E006E7F
:0A08260003D0022AE6D7006A120090
:100830000801CA515A0806E3410ECA5D03E3010EDE
:08084000006E01D0006A1200F5
:10084800CAC805F0CBC806F0CCC807F0CDC808F078
:1008580004011851055E1951065A1A51075A1B51BD
:10086800085A7CC604F005C000F006C001F007C0B5
:1008780002F008C003F0045007E00036009001368B
:1008880002360336FF0FF8D71E5100261F510122EA
:0A0898002051022221510322120018
:1008A2000801CA51390806E3300ECA5D03E3010E9E
:0808B200006E01D0006A120083
:1008BA004AC6E1FF4BC6E2FFFF0EE66E48C600F0ED
:1008CA0049C601F02DEC00F00050FE0A01E0F0D715
:0208DA0012000A
:1008DC0004011B510801CD5D0EE104011A51080100
:1008EC00CC5D09E1040119510801CB5D04E104015F
:1008FC0018510801CA5D15E30101F9510801CD5DDC
:10090C000EE10101F8510801CC5D09E10101F7513B
:10091C000801CB5D04E10101F6510801CA5D01E259
:10092C000CD0F40E0501D16FFF0E006EFF0E016EA0
:10093C00FF0E026E0F0E036E64D082C600F0CAC8A2
:10094C00CEF8CBC8CFF8CCC8D0F8CDC8D1F8005071
:10095C0008E00801D133D033CF33CE33D19FFF0F12
:10096C00F7D7040114510801CE27040115510801D1
:10097C00CF23040116510801D0230401175108019B
:10098C00D123BBDE0050000A09E0FF0E006EFF0E03
:10099C00016EFF0E026E0F0E036E33D07DC600F09B
:1009AC007EC601F07FC602F080C603F0010E005E29
:1009BC00000E015A025A035A00500801CA15046E5F
:1009CC000150CB15056E0250CC15066E0350CD159B
:1009DC00076E04C000F005C001F00036009001362F
:1009EC00003600900136FE0E0024E96E010E012047
:1009FC00EA6EEECF00F0EECF01F0EECF02F0EECFCC
:040A0C0003F01200E1
:100A1000B3C8CAF846DF005211E1B3C8CAF808DF0C
:100A200000520CE1B3C8CAF8DADE005207E1B3C8DD
:100A3000CAF8E1DE005202E1006A02D0010E006E47
:020A40001200A2
:100A4200B5C804F0B6C805F0B3C802F0B4C803F0E4
:100A5200B7C800F0B8C801F0010E0801B75F000E78
:100A6200B85B005001100FE004C0E9FF05C0EAFFC7
:100A720002C0E1FF03C0E2FFEECFE6FF024A032A13
:100A8200044A052AE5D7B3C800F0B4C801F0120041
:100A92000801B3515A0804E3410EB35DD8B0B38BD9
:060AA200B3C800F01200D1
:100AA80071DD000E000A03E1040E0001871909E157
:100AB800B3C8B7F8B4C8B8F8B5C8B9F8B6C8BAF87A
:100AC80014D0090E006EB3C8B7F8B4C8B8F8B5C8E2
:100AD800B9F8B6C8BAF8005008E00801B737B791B6
:100AE800B837B937BA37FF0FF7D70801120EE66FD4
:100AF800B7C8E7F8B8C8E8F8B9C8E9F8BAC8EAF86A
:100B0800FF0EEB6FD6DC005204E04FDC010E006EE6
:060B180001D0006A12008A
:100B1E00CDDE0801B56BB66B020EB65D02E1000EBE
:100B2E00B55D1CE2B551B325B76FB651B421B86FA0
:100B3E004AC6E1FF4BC6E2FFFF0EE66E48C600F066
:100B4E0049C601F02DEC00F0B7C8E1FFB8C8E2FFCE
:100B5E0000C0E6FF0801B54BB62BDED74AC6E1FF53
:100B6E004BC6E2FFFF0EE66E48C600F049C601F026
:100B7E002DEC00F04AC6E1FF4BC6E2FFFF0EE66E1B
:0E0B8E0048C600F049C601F02DEC00F0120040
:100B9C00FAC1C5F8FBC1C6F8FCC1C7F8FDC1C8F85D
:100BAC00B3C8BDF8B4C8BEF8B5C8BFF8B6C8C0F86D
:100BBC0004011B510801B65D0EE104011A51080134
:100BCC00B55D09E1040119510801B45D04E10401AA
:100BDC0018510801B35D15E30101F9510801C05D1D
:100BEC000EE10101F8510801BF5D09E10101F75166
:100BFC000801BE5D04E10101F6510801BD5D01E291
:100C0C0006D0F40E0501D16FFF0E006ECED0080198
:100C1C00C96B7AC600F0B7C801F0B8C802F0B9C801
:100C2C0003F0BAC804F0005007E004320332023279
:100C3C000132049EFF0FF8D70450000809E103505D
:100C4C00000806E10250000803E108010150C95DEB
:100C5C0055E2BDC8CAF8BEC8CBF8BFC8CCF8C0C8EE
:100C6C00CDF836DE00C0BDF801C0BEF802C0BFF83A
:100C7C0003C0C0F803500F0A08E10250FF0A05E157
:100C8C000150FF0A02E10050FF0A06E1F10E0501D6
:100C9C00D16FFF0E006E89D004011B510801C05D9D
:100CAC000EE104011A510801BF5D09E1040119515B
:100CBC000801BE5D04E1040118510801BD5D15E396
:100CCC000101F9510801C05D0EE10101F851080163
:100CDC00BF5D09E10101F7510801BE5D04E10101AD
:100CEC00F6510801BD5D01E206D0F40E0501D16F8D
:100CFC00FF0E006E5AD00801C92B8BD7080136C4E1
:100D0C0000F037C401F038C402F039C403F0010E0E
:100D1C00005E000E015A025A035A0050B715C16FFB
:100D2C000150B815C26F0250B915C36F0350BA15F4
:100D3C00C46FBDC8CAF8BEC8CBF8BFC8CCF8C0C811
:100D4C00CDF87CDD81C608F0C1C804F0C2C805F03E
:100D5C00C3C806F0C4C807F0085007E007320632D3
:100D6C0005320432079EFF0FF8D7BBC8E1FFBCC8A1
:100D7C00E2FF04500024E66E05500120E66E06509A
:100D8C000220E66E07500320E66EC5C8CEF8C6C832
:100D9C00CFF8C7C8D0F8C8C8D1F8AFDC0050000AEB
:0C0DAC0003E0FF0E006E01D0006A120090
:100DB8000B6A0A6A096A00500402F4CF09F0F3CFFB
:100DC80008F001500502F4CF0BF0F3CF0AF0005001
:100DD8000502F3500926F4500A22E86A0B22015052
:100DE8000402F3500926F4500A22E86A0B2208C0CC
:100DF80000F009C001F00AC002F00BC003F01200B5
:100E0800010E08019F25E96E000EA021EA6EA1C817
:100E1800E1FFA2C8E2FFEECFE6FF010EA125E16ED9
:100E2800000EA221E26E030E9F25E96E000EA0219E
:100E3800EA6EEECFE6FF020EA125E16E000EA221BA
:100E4800E26E050E9F25E96E000EA021EA6EEECF38
:100E5800E6FF030EA125E16E000EA221E26E070E49
:100E68009F25E96E000EA021EA6EEECFE6FF040E84
:100E7800A125E16E000EA221E26E090E9F25E96E02
:100E8800000EA021EA6EEECFE6FF050EA125E16E69
:100E9800000EA221E26E0E0E9F25E96E000EA02123
:100EA800EA6EEECFE6FF060EA125E16E000EA22146
:100EB800E26E100E9F25E96E000EA021EA6EEECFBD
:100EC800E6FF070EA125E16E000EA221E26E120ECA
:100ED8009F25E96E000EA021EA6EEECFE6FF080E10
:100EE800A125E16E000EA221E26E140E9F25E96E87
:100EF800000EA021EA6EEECFE6FF090EA125E16EF5
:100F0800000EA221E26E160E9F25E96E000EA021AA
:100F1800EA6EEECFE6FF0A0EA125E16E000EA221D1
:100F2800E26E180E9F25E96E000EA021EA6EEECF44
:100F3800E6FF0B0EA125E16E000EA221E26E1C0E4B
:100F48009F25E96E000EA021EA6EEECFE6FF0C0E9B
:100F5800A125E16E000EA221E26E1E0E9F25E96E0C
:0E0F6800000EA021EA6EEECFE6FF006A120036
:100F7600056A046A0B0E055C22E2010E0414016E7A
:100F8600070E006E01C003F0005004E00336039024
:100F9600FF0FFBD7FE0E0414026E02C000F00032F3
:100FA600009E00500310046E055008019F25D96E5F
:100FB600000EA021DA6EDE500426052ADBD704C017
:040FC60000F0120025
:0E0FCA009FC8B3F8A0C8B4F8A5DD006A1200F5
:100FD8009FC8B3F8A0C8B4F8A1C8B5F8A2C8B6F8B5
:100FE800A3C8B7F8A4C8B8F8A5C8B9F8A6C8BAF885
:100FF800A7C8BBF8A8C8BCF8CDDD0050000A03E0BC
:10100800FF0E006E15D0A7C8E9FFA8C8EAFFEECF0B
:10101800CEF8EECFCFF8EECFD0F8EECFD1F883EC04
:1010280003F00050000A03E0FF0E006E01D0006AD2
:021038001200A4
:10103A009FC8B3F8A0C8B4F8A1C8B5F8A2C8B6F852
:10104A002EDD0050000A03E0FF0E006E01D0006A98
:02105A00120082
:10105C00C6EC02F0000E000A03E1040E0001871931
:10106C0009E19FC8A7F8A0C8A8F8A1C8A9F8A2C808
:10107C00AAF814D0090E006E9FC8A7F8A0C8A8F84B
:10108C00A1C8A9F8A2C8AAF8005008E00801A7371F
:10109C00A791A837A937AA37FF0FF7D70801180E61
:1010AC00E66FA7C8E7F8A8C8E8F8A9C8E9F8AAC87D
:1010BC00EAF8FF0EEB6F5DEC02F0005205E0D9ECA4
:1010CC0001F0010E006E95D04AC6E1FF4BC6E2FF5F
:1010DC00FF0EE66E48C600F049C601F02DEC00F09C
:1010EC004AC6E1FF4BC6E2FFFF0EE66E48C600F0B3
:1010FC0049C601F02DEC00F04AC6E1FF4BC6E2FFF9
:10110C00FE0EE66E48C600F049C601F02DEC00F06C
:10111C000801A56BA66BA651010802E1A551FF08B9
:10112C0016E3A551A325E96EA651A421EA6E4AC681
:10113C00E1FF4BC6E2FFEECFE6FF48C600F049C622
:10114C0001F02DEC00F00801A54BA62BE4D74AC604
:10115C00E1FF4BC6E2FFFF0EE66E48C600F049C643
:10116C0001F02DEC00F04AC6E1FF4BC6E2FFFF0E8A
:10117C00E66E48C600F049C601F02DEC00F04AC6F8
:10118C00E1FF4BC6E2FFFF0EE66E48C600F049C613
:10119C0001F02DEC00F000C0A5F8000E0801A66FC0
:1011AC001F0EA515016EA6C802F0000E021601C096
:1011BC00A5F802C0A6F8000E021802E1050E0118EF
:1011CC0005E0D9EC01F0020E006E13D04AC6E1FF27
:1011DC004BC6E2FFFF0EE66E48C600F049C601F0B2
:1011EC002DEC00F00050FF0A01E0F0D7D9EC01F033
:0411FC00006A120073
:10120000A60E0801B36F080EB46F9FC8B5F8A0C84A
:10121000B6F80B0EB76F000EB86F13DCA36B0B0E96
:10122000A35D3FE2A56BA60EE96E080EEA6EA35120
:10123000E926D8B0EA2AEECFB3F808EC05F0005062
:10124000010A03E1010E0801A56F0801A60EE96E6F
:10125000080EEA6EA351E926D8B0EA2AEE50200A19
:1012600002E1010EA56FA60EE96E080EEA6EA3510B
:10127000E926D8B0EA2AEE502E0A02E1010EA56F47
:10128000A551000A0BE1A1C8E1FFA2C8E2FFE66A8E
:10129000C40E0501D16FFF0E006EB5D00801A32B5F
:1012A000BED7A46BA36B080EA35D43E2A60EE96E46
:1012B000080EEA6EA351E926D8B0EA2AEE50200AB9
:1012C00034E00C0E9F25E96E000EA021EA6EEECFF1
:1012D00001F001A619D0A451A125B16F000EA221E1
:1012E000B26FA60EE96E080EEA6EA351E926D8B0D9
:1012F000EA2AEECFB3F849EC05F0B1C8E1FFB2C875
:10130000E2FF00C0E6FF10D0A451A125E16E000E5F
:10131000A221E26EA60EE96E080EEA6EA351E9263E
:10132000D8B0EA2AEECFE6FF01D003D0A42BA32B3E
:10133000BAD7AE51200A09E1A451A125E16E000EF1
:10134000A221E26EE66A006A5ED0A451A125E16E98
:10135000000EA221E26E2E0EE66EA42B080EA36FE5
:101360000B0EA35D47E2A60EE96E080EEA6EA351CE
:10137000E926D8B0EA2AEECFB3F808EC05F0005021
:10138000000A01E137D00C0E08019F25E96E000E1E
:10139000A021EA6EEECF01F001A819D0A451A12539
:1013A000B16F000EA221B26FA60EE96E080EEA6EB2
:1013B000A351E926D8B0EA2AEECFB3F849EC05F0FC
:1013C000B1C8E1FFB2C8E2FF00C0E6FF10D0A451EF
:1013D000A125E16E000EA221E26EA60EE96E080EB6
:1013E000EA6EA351E926D8B0EA2AEECFE6FFA42B95
:1013F000A32BB6D70801A451A125E16E000EA221AE
:08140000E26EE66A006A1200C8
:10140800026A080E025C17E2E50E0224F66E820EEE
:10141800F76E000EF722000EF86E000EF822090093
:10142800F5CF01F0015008015D1903E1010E006ECE
:0A14380003D0022AE6D7006A120072
:101442005DC89FF85EC8A0F85FC8A1F860C8A2F89E
:1014520061C8A3F862C8A4F800DE0050000A03E0E5
:0A146200FF0E006E01D0006A1200B8
:10146C0004014E51030A0BE16BEC03F00050000A2F
:10147C0006E0FF0E0501D16FFF0E006E50D0040187
:10148C004E51010A06E1FF0E0501D16FFF0E006EF1
:10149C0046D00101FD51080160190EE10101FC511A
:1014AC0008015F1909E10101FB5108015E1904E112
:1014BC000101FA5108015D1905E1020E04014E6F9C
:1014CC00006A2DD05DC89FF85EC8A0F85FC8A1F86F
:1014DC0060C8A2F8ACDD0050000A06E0FF0E050162
:1014EC00D16FFF0E006E1BD0FE0E08019F6F010E18
:1014FC00A06F65DD0050000A06E0FF0E0501D16FFC
:10150C00FF0E006E0CD0010E04014E6F5DC8FAF197
:10151C005EC8FBF15FC8FCF160C8FDF1006A120007
:10152C005FC89FF860C8A0F861C8A1F862C8A2F8AB
:10153C0063C8A3F864C8A4F865C8A5F866C8A6F87B
:10154C009B0E0801A76F080EA86F40DD0050000A23
:10155C0003E0FF0E006E9CD148C400F049C401F0BA
:10156C004AC402F04BC403F0010E005E000E015A97
:10157C00025A035A005008016315046E0150641599
:10158C00056E02506515066E03506615076E050E46
:10159C00026E04C000F005C001F0025005E00036F8
:1015AC0000900136FF0FFAD70801FE0E0024996F48
:1015BC00010E01209A6F010E676F080E675D0CE239
:1015CC0067519925E96E000E9A21EA6EEE507E0A5B
:1015DC0001E102D0672BF1D76751080A0AE199C8DB
:1015EC009FF89AC8A0F85DC8A1F85EC8A2F802DE00
:1015FC004FD1790E0801B36F080EB46F99C8B5F8C6
:10160C009AC8B6F8200EB76F000EB86F21EC05F033
:10161C005FC89FF860C8A0F861C8A1F862C8A2F8BA
:10162C00010E635F000E645B655B665B63C8A3F8C9
:10163C0064C8A4F865C8A5F866C8A6F89B0EA76F81
:10164C00080EA86FC3DC0050000A03E0FF0E006E0A
:10165C001FD148C400F049C401F04AC402F04BC485
:10166C0003F0010E005E000E015A025A035A00509C
:10167C0008016315046E01506415056E0250651562
:10168C00066E03506615076E050E026E04C000F060
:10169C0005C001F0025005E0003600900136FF0F46
:1016AC00FAD7FE0E0026010E012200C077F801C009
:1016BC0078F80B0E0024E96E000E0120EA6E3F0E46
:1016CC00EE14016E01500F0A0BE00801790E9F6FAA
:1016DC00080EA06F5DC8A1F85EC8A2F88BDDD8D04B
:1016EC00790E08019F6F080EA06F3FDC00C069F8EF
:1016FC00010E0801686F0B0E7725E96E000E78213C
:10170C00EA6E3F0EEE14016E01500F0A06E0C00E99
:10171C000501D16FFF0E006EBBD00D0E08017725B1
:10172C00E96E000E7821EA6EEE50691906E0C10EE2
:10173C000501D16FFF0E006EABD077C8E9FF78C8FA
:10174C00EAFFEECF00F01F0E0014016E01500801ED
:10175C00681906E0C20E0501D16FFF0E006E98D01D
:10176C0077C89FF878C8A0F86A0E0801A16F080E18
:10177C00A26F04EC07F0676B6805006E016A000E3F
:10178C00015A0D0E046E000E056EDCEC06F067516E
:10179C000026000E012200505D25E16E01505E21F5
:1017AC00E26E6A0EE96E080EEA6E6751E926D8B051
:1017BC00EA2AEECFE6FF672B0D0E675D0CE26A0E90
:1017CC00E96E080EEA6E6751E926D8B0EA2AEE50A7
:1017DC00000A01E0D1D777C8E9FF78C8EAFFEECF5D
:1017EC0001F001AC02D0006A53D0682B5FC89FF89F
:1017FC0060C8A0F861C8A1F862C8A2F8010E635FC6
:10180C00000E645B655B665B63C8A3F864C8A4F8F0
:10181C0065C8A5F866C8A6F89B0EA76F080EA86F3A
:10182C00ECEC07F00050000A03E0FF0E006E30D025
:10183C0048C400F049C401F04AC402F04BC403F0A0
:10184C00010E005E000E015A025A035A00500801A4
:10185C006315046E01506415056E02506515066E15
:10186C0003506615076E050E026E04C000F005C02D
:10187C0001F0025005E0003600900136FF0FFAD758
:10188C000801FE0E0024776F010E0120786F33D70C
:02189C00120038
:10189E005DC802F05EC803F060C800F061C801F0D8
:1018AE00010E0801605F000E615B0050011009E03F
:1018BE0002C0E1FF03C0E2FF5FC8E6FF024A032A4F
:0C18CE00EBD75DC800F05EC801F012000E
:1018DA00030E08015D25E96E000E5E21EA6EEECF69
:1018EA0009F0000E0A6E0B6E0C6E000E0A6E0B6E7D
:1018FA000C6E0BC003F00AC002F009C001F0006AC6
:10190A0000C009F001C00AF002C00BF003C00CF0DD
:10191A00020E5D25D96E000E5E21DA6EDE500024BD
:10192A00056E000E0120066E000E0220076E000EE4
:10193A000320086E05C009F006C00AF007C00BF0C4
:10194A0008C00CF007C003F006C002F005C001F0A1
:10195A00006A00C009F001C00AF002C00BF003C01F
:10196A000CF0010E5D25D96E000E5E21DA6EDE5096
:10197A000024056E000E0120066E000E0220076E7E
:10198A00000E0320086E05C009F006C00AF007C061
:10199A000BF008C00CF007C003F006C002F005C047
:1019AA0001F0006A00C009F001C00AF002C00BF0A1
:1019BA0003C00CF05DC8D9FF5EC8DAFFDE5000260E
:1019CA00000E01220222032200C009F001C00AF01F
:1019DA0002C00BF003C00CF000C009F001C00AF00D
:0A19EA0002C00BF003C00CF0120065
:1019F400010E08015D25E96E000E5E21EA6EEECF50
:101A040003F0000E046E000E046E03C001F0006AC1
:101A140000C003F001C004F05DC8D9FF5EC8DAFF5E
:101A2400DE500026000E012200C003F001C004F0C5
:0A1A340000C003F001C004F012002E
:0E1A3E005DC8E9FF5EC8EAFFEECF00F01200BF
:101A4C0004014E51030A0BE16BEC03F00050000A49
:101A5C0006E0FF0E0501D16FFF0E006E33D00401BE
:101A6C004E51010A06E1FE0E0501D16FFF0E006E0C
:101A7C0029D04BC85DF84CC85EF84DC85FF84EC80D
:101A8C0060F8FE0E0801616F010E626FD4DC000E6F
:101A9C0000180FE0FF0E0101FA6FFF0EFB6FFF0E37
:101AAC00FC6FFF0EFD6FFE0E0501D16FFF0E006E79
:101ABC0009D04BC8FAF14CC8FBF14DC8FCF14EC82B
:061ACC00FDF1006A1200AA
:101AD2000134083609360450085E0550D8A0053C8A
:101AE200095E003601360F0E0C6E013408360936D7
:101AF200045000A006D0085E0550D8A0053C095E3F
:101B020005D008260550D8B0053C09260036013616
:101B12000C2EEBD700B006D0045008260550D8B0E2
:081B2200053C09260000120039
:101B2A00FF0E08014D25576F000E4E21586F0B0E00
:101B3A004B255D6F000E4C215E6F7CDF57C8E1FFBD
:101B4A0058C8E2FF00C0E6FF000E4D25576F010E90
:101B5A004E21586F1C0E4B255D6F000E4C215E6F97
:101B6A00B7DE57C8E1FF58C8E2FF00C0E6FF01C070
:101B7A00E6FF02C0E6FF03C0E6FF040E4D255B6FD9
:101B8A00010E4E215C6F140E4B255D6F000E4C2129
:101B9A005E6F2BDF00C003F001C004F0000E056E7B
:101BAA00066E04C05AF803C059F8576B586B1A0EE0
:101BBA004B255D6F000E4C215E6F17DF000E026E23
:101BCA00036E5751002658510122595102225A5187
:101BDA0003225BC8E1FF5CC8E2FF00C0E6FF01C068
:101BEA00E6FF02C0E6FF03C0E6FF0B0E4B25E96ED7
:101BFA00000E4C21EA6E3F0EEE14016E01500F0AE0
:101C0A0026E04DC85DF84EC85EF85F6BFF0E606F48
:101C1A00000E616F3FDE4DC85DF84EC85EF84FC8D2
:101C2A005FF850C860F851C861F852C862F853C8E2
:101C3A0063F854C864F855C865F856C866F871DC84
:101C4A000050000A03E0FF0E006E07D005D04DC811
:0C1C5A00E1FF4EC8E2FFE66A006A1200DB
:101C66000801CE6BCF6BD06BD16B83EC03F00050C9
:101C7600000A03E0FF0E006E27D1FE0E08014C6F2E
:101C8600010E4D6FFE0E4E6F010E4F6FFE0E4C2570
:101C96005D6F010E4D215E6FAADE0150AA0A02E1B8
:101CA600550E001806E0FC0E0501D16FFF0E006E02
:101CB6000BD14EC8E9FF4FC8EAFFEECF01F0015045
:101CC600E90A15E04EC8E9FF4FC8EAFFEECF01F07A
:101CD6000150EB0A0BE1020E08014E25E96E000EDB
:101CE6004F21EA6EEE50900A01E101D006D0FB0EBC
:101CF6000501D16FFF0E006EE7D008014B6B010E98
:101D06004B5DD8B0E0D00A0E006E000E016E4BC8D7
:101D160004F0000E056EDCEC06F0FE0E0026030E47
:101D2600012200C050F801C051F8BE0E4C255D6F6F
:101D3600010E4D215E6F040E026E4BC800F0000EC0
:101D4600016E025005E0003600900136FF0FFAD70B
:101D560000505D2701505E236FDE50C8E1FF51C879
:101D6600E2FF00C0E6FF0A0E006E000E016E4BC8D1
:101D760004F0000E056EDCEC06F0FE0E0026030EE7
:101D86000122010E0024506F000E0120516FBE0E7D
:101D96004C255D6F010E4D215E6F040E026E4BC821
:101DA60000F0000E016E025005E00036009001368C
:101DB600FF0FFAD700505D2701505E23040E5D2702
:101DC600000E5E2339DE50C8E1FF51C8E2FF00C0B5
:101DD600E6FF0A0E006E000E016E4BC804F0000E00
:101DE600056EDCEC06F0FE0E0026030E0122020E46
:101DF6000024506F000E0120516FBE0E4C255D6F02
:101E0600010E4D215E6F040E026E4BC800F0000EEF
:101E1600016E025005E0003600900136FF0FFAD73A
:101E260000505D2701505E23080E5D27000E5E23DD
:101E360051DD50C8E1FF51C8E2FF00C0E6FF01C016
:101E4600E6FF02C0E6FF03C0E6FF0A0E006E000EC4
:101E5600016E4BC804F0000E056EDCEC06F0FE0EBB
:101E66000026030E0122060E0024506F000E0120EC
:101E7600516FBE0E4C255D6F010E4D215E6F040E37
:101E8600026E4BC800F0000E016E025005E00036EF
:101E960000900136FF0FFAD700505D2701505E23F0
:101EA6000C0E5D27000E5E2315DD50C8E1FF51C8FC
:101EB600E2FF00C0E6FF01C0E6FF02C0E6FF03C086
:0A1EC600E6FF4B2B1CD7006A120048
:101ED00008014C6B4D6B270E4D5D02E1100E4C5D01
:101EE000D8B0B0D0000E000A02E1000E4B1919E183
:101EF000C6EC02F0010EE66FE76BE86BE96BEA6B8C
:101F0000FF0EEB6F5DEC02F000C04EF8D9EC01F073
:101F100008014E51000A04E10001876B006A94D069
:101F20008DD0C6EC02F0370E0801E66FE76BE86B68
:101F3000E96BEA6BFF0EEB6F5DEC02F000C04EF850
:101F4000D9EC01F008014E51010AD8A476D0C6ECB4
:101F500002F0290EE66F000EE76F000EE86F000E2C
:101F6000E96F400EEA6FFF0EEB6F5DEC02F000C010
:101F70004EF8D9EC01F008014E51000A5DE1000E67
:101F8000000A02E1020E4B1952E1C6EC02F03A0ED1
:101F9000E66FE76BE86BE96BEA6BFF0EEB6F5DECEE
:101FA00002F000C04EF84AC6E1FF4BC6E2FFFF0E4A
:101FB000E66E48C600F049C601F02DEC00F000C006
:101FC0004FF84AC6E1FF4BC6E2FFFF0EE66E48C679
:101FD00000F049C601F02DEC00F04AC6E1FF4BC607
:101FE000E2FFFF0EE66E48C600F049C601F02DEC98
:101FF00000F04AC6E1FF4BC6E2FFFF0EE66E48C6A0
:1020000000F049C601F02DEC00F0D9EC01F0080118
:102010004E51000A0BE14FAD04D0040E0001876F52
:1020200003D00001030E876F006A0ED005D00001B7
:10203000010E876F006A08D001D004D008014C4B14
:0A2040004D2B49D7010E006E12006F
:10204A0008014B517A0804E3610E4B5DD8B04B9BF3
:06205A004BC800F012006B
:102060004BC8B3F808EC05F0005208E14BC85DF826
:1020700004EC0AF0005202E1006A02D0010E006E88
:0220800012004C
:102082000B1E0A1E091E081E082AD8B4092AD8B433
:082092000A2AD8B40B2A12003F
:10209A004FC801F050C802F0010E08014F5F000E50
:1020AA00505B000E021802E1000E01181FE04BC837
:1020BA00E9FF4CC8EAFF4DC8D9FF4EC8DAFFEE5017
:1020CA00DE180FE04BC8E9FF4CC8EAFF4DC8D9FF3C
:1020DA004EC8DAFFDE50EE5C006E016A000E015A4D
:1020EA0007D04B4B4C2B4D4B4E2BD2D7006A016A73
:0220FA001200D2
:1020FC004BC802F04CC803F002C000F003C001F062
:10210C00024A032A00C0E9FF01C0EAFFEE5201E0D7
:10211C00F3D708014B51025C006E4C510358016E11
:0A212C00010E005E000E015A1200C1
:102136000450085E0550D8A0053C095E0650D8A09C
:10214600063C0A5E0750D8A0073C0B5E0336070E16
:102156000C6E0334083609360A360B36045003A0D3
:102166000ED0085E0550D8A0053C095E0650D8A0E2
:10217600063C0A5E0750D8A0073C0B5E0DD0082629
:102186000550D8B0053C09260650D8B0063C0A26AC
:102196000750D8B0073C0B2603360C2EDAD702348C
:1021A600083609360A360B36045003A00ED0085EF0
:1021B6000550D8A0053C095E0650D8A0063C0A5E2C
:1021C6000750D8A0073C0B5E0DD008260550D8B0A6
:1021D600053C09260650D8B0063C0A260750D8B05A
:1021E600073C0B260236070E0C6E023408360936FB
:1021F6000A360B36045002A00ED0085E0550D8A051
:10220600053C095E0650D8A0063C0A5E0750D8A0D9
:10221600073C0B5E0DD008260550D8B0053C0926B4
:102226000650D8B0063C0A260750D8B0073C0B2605
:1022360002360C2EDAD70134083609360A360B3642
:10224600045002A00ED0085E0550D8A0053C095ED9
:102256000650D8A0063C0A5E0750D8A0073C0B5E85
:102266000DD008260550D8B0053C09260650D8B032
:10227600063C0A260750D8B0073C0B260136070E47
:102286000C6E0134083609360A360B36045001A0A6
:102296000ED0085E0550D8A0053C095E0650D8A0B1
:1022A600063C0A5E0750D8A0073C0B5E0DD00826F8
:1022B6000550D8B0053C09260650D8B0063C0A267B
:1022C6000750D8B0073C0B2601360C2EDAD700345F
:1022D600083609360A360B36045001A00ED0085EC1
:1022E6000550D8A0053C095E0650D8A0063C0A5EFB
:1022F6000750D8A0073C0B5E0DD008260550D8B075
:10230600053C09260650D8B0063C0A260750D8B028
:10231600073C0B260036070E0C6E003408360936CD
:102326000A360B36045000A00ED0085E0550D8A021
:10233600053C095E0650D8A0063C0A5E0750D8A0A8
:10234600073C0B5E0DD008260550D8B0053C092683
:102356000650D8B0063C0A260750D8B0073C0B26D4
:1023660000360C2EDAD700B00ED0045008260550E1
:10237600D8B0053C09260650D8B0063C0A260750B8
:08238600D8B0073C0B26120041
:10238E00010E066E000E076E086E096E056A800E4F
:10239E00006E800E000A005C02E1200E055C23E256
:1023AE00065008014B11016E07504C11026E085079
:1023BE004D11036E09504E11046E0450091808E1B8
:1023CE000350081805E10250071802E101500618E3
:1023DE0003E105C000F009D0063606900736083630
:0C23EE000936052AD4D7FF0E006E12003D
:1023FA000E0E08014B255D6F000E4C215E6FFAEC44
:10240A000CF00B0E046E00C002F001C003F0045081
:10241A0005E003320232039EFF0FFAD71F0E0214A1
:10242A00006E00C03EF40E0E4B255D6F000E4C216F
:10243A005E6FFAEC0CF0050E046E00C002F001C0EB
:10244A0003F0045005E003320232039EFF0FFAD76D
:10245A003F0E0214006E00C03FF40E0E4B255D6F56
:10246A00000E4C215E6FFAEC0CF000C002F002364E
:10247A0002903F0E0214006E00C040F4100E4B256D
:10248A005D6F000E4C215E6FFAEC0CF0090E046EC3
:10249A0000C002F001C003F0045005E0033202322A
:1024AA00039EFF0FFAD77F0E0214006E03C001F0DD
:1024BA00000E011600C03AF401C03BF4BC0E00261F
:1024CA00070E012200C03AF401C03BF4100E4B255E
:1024DA005D6F000E4C215E6FFAEC0CF0050E046E77
:1024EA0000C002F001C003F0045005E003320232DA
:1024FA00039EFF0FFAD70F0E0214006E00C03CF4C1
:10250A00100E4B255D6F000E4C215E6FFAEC0CF03D
:0E251A001F0E0014006E00C03DF4006A120097
:1025280004014E51020A17E1010E0101FA250801C2
:102538005D6F000E0101FB2108015E6F000E0101B5
:10254800FC2108015F6F000E0101FD210801606F89
:1025580036EC0AF030D004014E51000A06E1FF0EB5
:102568000501D16FFF0E006E26D0FE0E08019F6F89
:10257800010EA06FE5EC07F00050000A06E0FF0E20
:102588000501D16FFF0E006E16D0010E0101FA256C
:10259800006E000EFB21016E000EFC21026E000E83
:1025A800FD21036E00C0FAF101C0FBF102C0FCF18D
:0825B80003C0FDF1006A1200EE
:1025C000160E08014B255D6F000E4C215E6FFAEC74
:1025D0000CF00B0E046E00C002F001C003F00450BA
:1025E00005E003320232039EFF0FFAD71F0E0214DA
:1025F000006E00C045F4160E4B255D6F000E4C2199
:102600005E6FFAEC0CF0050E046E00C002F001C023
:1026100003F0045005E003320232039EFF0FFAD7A5
:102620003F0E0214006E00C046F4160E4B255D6F7F
:10263000000E4C215E6FFAEC0CF000C002F0023686
:1026400002903F0E0214006E00C047F4180E4B2596
:102650005D6F000E4C215E6FFAEC0CF0090E046EFB
:1026600000C002F001C003F0045005E00332023262
:10267000039EFF0FFAD77F0E0214006E03C001F015
:10268000000E011600C041F401C042F4BC0E002649
:10269000070E012200C041F401C042F4180E4B2580
:1026A0005D6F000E4C215E6FFAEC0CF0050E046EAF
:1026B00000C002F001C003F0045005E00332023212
:1026C000039EFF0FFAD70F0E0214006E00C043F4F2
:1026D000180E4B255D6F000E4C215E6FFAEC0CF06E
:0E26E0001F0E0014006E00C044F4006A1200C9
:1026EE0033EC0EF0FE0E08012B6F010E2C6F050160
:1026FE00D151FF0A03E1FF0E006E70D2D151FC0AD8
:10270E0003E1FF0E006E6AD2D151000AD8A466D042
:10271E000F0E0301FF15016E01C02DF801500B0ABB
:10272E000AE008012D510C0A06E0F80E0501D16FE2
:10273E00FF0E006E53D200C4CEF801C4CFF802C40F
:10274E00D0F803C4D1F883EC03F00050000A03E084
:10275E00FF0E006E43D2FE0E08012B6F010E2C6F82
:10276E00FE0E2B255D6F010E2C215E6FFAEC0CF028
:10277E000150AA0A02E1550E001806E0FC0E0501F2
:10278E00D16FFF0E006E2AD22BC8E9FF2CC8EAFFCC
:10279E00EECF01F00150E90A16E02BC8E9FF2CC874
:1027AE00EAFFEECF01F00150EB0A0BE1020E080139
:1027BE002B25E96E000E2C21EA6EEE50900A01E1F7
:1027CE0002D0006A02D0010E006E005206E1FB0E2E
:1027DE000501D16FFF0E006E01D21FD00501D15140
:1027EE00FB0A1BE1800E0301FE6F0401006B016BFF
:1027FE00026B036B200E08012B255D6F000E2C2142
:10280E005E6F6DEC0CF000C004F401C005F402C064
:10281E0006F403C007F40501D16B0501D151000A7E
:10282E00D8A4D7D10B0E08012B255D6F000E2C21DD
:10283E005E6FFAEC0CF000C008F401C009F40D0E46
:10284E002B255D6F000E2C215E6F1FEC0DF000C06E
:10285E000AF40E0E2B255D6F000E2C215E6FFAEC26
:10286E000CF000C00BF401C00CF4100E2B255D6FA4
:10287E00000E2C215E6F1FEC0DF000C00DF4240E27
:10288E002B255D6F000E2C215E6F6DEC0CF000C0E1
:10289E000EF401C00FF402C010F403C011F4280EA0
:1028AE002B255D6F000E2C215E6FFAEC0CF000C034
:1028BE0012F401C013F404010B510025006E0C51EB
:1028CE000121016E000E0221026E000E0321036E25
:1028DE0000C014F401C015F402C016F403C017F4BE
:1028EE002C0E08012B255D6F000E2C215E6F6DECFA
:1028FE000CF000C018F401C019F402C01AF403C0A1
:10290E001BF4110E2B255D6F000E2C215E6FFAEC61
:10291E000CF000C01CF401C01DF4300E2B255D6FB1
:10292E00000E2C215E6FFAEC0CF0000E026E036EA0
:10293E0004010051002601510122025102220351CD
:10294E00032200C022F401C023F402C024F403C009
:10295E0025F414C41EF415C41FF416C420F417C4B1
:10296E0021F408012A6B04010D5108012A5D18E2B9
:10297E0004010E511E25006E0F511F21016E1051C4
:10298E002021026E11512121036E00C01EF401C0E0
:10299E001FF402C020F403C021F408012A2BE3D750
:1029AE00050E006E08C448F409C449F4000E040173
:1029BE004A6F4B6F005005E049334833499FFF0F74
:1029CE00FAD7000E4A6F4B6F08C47DF609C47EF627
:1029DE00000E06017F6F806F7E337D337E9F7E33C8
:1029EE007D337E9F000E7F6F806F08C44BF809C445
:1029FE004CF8000E08014D6F4E6FC2DC00C06CF635
:102A0E000AC44BF8000E08014C6F4D6F4E6FB8DCC8
:102A1E0000C07CF648C44BF849C44CF84AC44DF883
:102A2E004BC44EF8ADDC00C081F67DC64BF87EC6B9
:102A3E004CF87FC64DF880C64EF8A2DC00C082F678
:102A4E0006017C516C25006E00C072F6010E6E6F91
:102A5E00000E6F6F000E706F000E716F005007E06A
:102A6E006E376E916F3770377137FF0FF8D7200EB4
:102A7E0008014B6F000E4C6F4D6F4E6F81DC005096
:102A8E000601725D006E016A000E00BEFF0E015A55
:102A9E0000C004F0010E006E000E016E000E026EFC
:102AAE00000E036E045007E0003600900136023629
:102ABE000336FF0FF8D700C036F401C037F402C05A
:102ACE0038F403C039F400C04BF801C04CF802C012
:102ADE004DF803C04EF854DC00C07AF618C42EF43C
:102AEE0019C42FF41AC430F41BC431F40401326B30
:102AFE00336B346B356B1EC400F01FC401F020C461
:102B0E0002F021C403F00051005E0151015A02513E
:102B1E00025A0351035A04C4F6F105C4F7F106C470
:102B2E00F8F107C4F9F100500101F65F0150F75BAF
:102B3E000250F85B0350F95B7CC600F0005007E0D2
:102B4E00F933F833F733F633F99FFF0FF8D7020E48
:102B5E00F627000EF723F823F9230301FF5325E18F
:102B6E00000E0101F95D08E1000EF85D05E1FF0EB2
:102B7E00F75D02E1F70EF65D04E30B0E0301FF6F46
:102B8E0014D0000E0101F95D08E1000EF85D05E1BB
:102B9E000F0EF75D02E1F70EF65D04E3060E03017C
:102BAE00FF6F03D00301010EFF6F0F0EFF15016EB5
:102BBE0001C02DF801500B0A0AE008012D510C0A34
:102BCE0006E0F80E0501D16FFF0E006E07D0006A09
:0E2BDE0005D00501FB0ED16FFF0E006E120038
:102BEC002AC42AF82BC42BF82CC42CF82DC42DF88D
:102BFC0004011B512D5D08E11A512C5D05E11951A1
:102C0C002B5D02E118512A5D15E30101F951080110
:102C1C002D5D0EE10101F85108012C5D09E1010166
:102C2C00F75108012B5D04E10101F65108012A5D01
:102C3C0001E208D018C42AF819C42BF81AC42CF8CD
:102C4C001BC42DF82AC82EF82BC82FF82CC830F826
:102C5C002DC831F882C604F02AC800F02BC801F048
:102C6C002CC802F02DC803F0045007E003320232E6
:102C7C0001320032039EFF0FF8D7005004011425D7
:102C8C0008015D6F01500401152108015E6F0250AF
:102C9C000401162108015F6F03500401172108017C
:102CAC00606F7DC600F07EC601F07FC602F080C664
:102CBC0003F0010E005E000E015A025A035A005036
:102CCC002A15046E01502B15056E02502C15066E3C
:102CDC0003502D15076E04C000F005C001F000363E
:102CEC0000900136003600900136FE0E0024326F43
:102CFC00010E0120336F36EC0AF00050000A09E097
:102D0C00FF0E006EFF0E016EFF0E026E0F0E036EB5
:102D1C006DD10801346B32C8E9FF33C8EAFFEECF3E
:102D2C0001F0EECF02F0EECF03F0EECF04F0045042
:102D3C00000A08E10350000A05E10250000A02E112
:102D4C000150000A04E10801010E346FC0D00801E3
:102D5C00040E3227000E3323010E2A27000E2B23DC
:102D6C002C232D230101F95108012D5D0EE10101E8
:102D7C00F85108012C5D09E10101F75108012B5DA7
:102D8C0004E10101F65108012A5D76E318C42AF822
:102D9C0019C42BF81AC42CF81BC42DF86BEC03F0D7
:102DAC000050000A09E0FF0E006EFF0E016EFF0ED0
:102DBC00026E0F0E036E1AD182C604F02AC800F000
:102DCC002BC801F02CC802F02DC803F0045007E00A
:102DDC000332023201320032039EFF0FF8D700504B
:102DEC000401142508015D6F01500401152108012F
:102DFC005E6F02500401162108015F6F035004013D
:102E0C0017210801606F7DC600F07EC601F07FC6F9
:102E1C0002F080C603F0010E005E000E015A025A49
:102E2C00035A00502A15046E01502B15056E0250E2
:102E3C002C15066E03502D15076E04C000F005C04E
:102E4C0001F0003600900136003600900136FE0E7F
:102E5C000024326F010E0120336F36EC0AF0005063
:102E6C00000A09E0FF0E006EFF0E016EFF0E026EEF
:102E7C000F0E036EBBD01CD00801335104014D1949
:102E8C0003E14C510801321913E10801FE0E326FB7
:102E9C00010E336F94EC12F00050000A09E0FF0EA3
:102EAC00006EFF0E016EFF0E026E0F0E036E9ED0B3
:102EBC0008012D51311908E12C51301905E12B5124
:102ECC002F1902E12A512E1901E101D024D76BEC04
:102EDC0003F00050000A09E0FF0E006EFF0E016EB9
:102EEC00FF0E026E0F0E036E81D00801345309E100
:102EFC00FF0E006EFF0E016EFF0E026E0F0E036EC4
:102F0C0075D032C8E1FF33C8E2FFFF0EE66EFF0E4C
:102F1C00E66EFF0EE66E0F0EE66E82C604F02AC851
:102F2C0000F02BC801F02CC802F02DC803F004509F
:102F3C0007E00332023201320032039EFF0FF8D752
:102F4C0000500401142508014B6F01500401152198
:102F5C0008014C6F02500401162108014D6F0350FB
:102F6C000401172108014E6F26EC0DF00050000AE9
:102F7C0007E0FF0E006EFF0E016E026E036E36D080
:102F8C0004012951FF0A08E12851FF0A05E12751E4
:102F9C00FF0A02E12651FF0A16E026C400F027C4FE
:102FAC0001F028C402F029C403F0010E005E000EEB
:102FBC00015A025A035A00C026F401C027F402C079
:102FCC0028F403C029F42AC82AF42BC82BF42CC8E3
:102FDC002CF42DC82DF4010E06016D6F2AC800F0DB
:0E2FEC002BC801F02CC802F02DC803F0120013
:102FFA00160E08012A25006E000E2B21016E010E05
:10300A000024E16E000E0120E26E77C600F0003661
:10301A000090003600900036009000C0E6FF160EC1
:10302A002A25006E000E2B21016E010E0024026E6D
:10303A00000E0120036E78C600F00032009E0032B6
:10304A00009E0032009E02C0E9FF03C0EAFFEE5074
:10305A00002602C0E1FF03C0E2FF00C0E6FF160E31
:10306A002A25E16E000E2B21E26E050E016E78C64E
:10307A0000F0015004E000360090FF0FFBD700C0BB
:10308A00E6FF160E2A25026E000E2B21036E79C664
:10309A0000F00032009E02C0E9FF03C0EAFFEE50D2
:1030AA00002602C0E1FF03C0E2FF00C0E6FF180EDF
:1030BA002A25006E000E2B21016E010E0024E16EFE
:1030CA00000E0120E26EBC0E0601735D026E02C0A4
:1030DA0000F00036009000C0E6FF180E08012A250D
:1030EA00006E000E2B21016E010E0024026E000EEE
:1030FA000120036E75C600F00032009E0032009E69
:10310A000032009E02C0E9FF03C0EAFFEE5000262B
:10311A0002C0E1FF03C0E2FF00C0E6FF180E2A2545
:10312A00E16E000E2B21E26E050E016E75C600F0EF
:10313A00015004E000360090FF0FFBD700C0E6FF05
:10314A00180E2A25016E000E2B21026E01C0E9FF1E
:10315A0002C0EAFF06017651EE24006E01C0E1FFCB
:0C316A0002C0E2FF00C0E6FF006A120095
:103176000E0E08012A25006E000E2B21016E010E8F
:103186000024E16E000E0120E26E77C600F00036E4
:103196000090003600900036009000C0E6FF0E0E4C
:1031A6002A25006E000E2B21016E010E0024026EF0
:1031B600000E0120036E78C600F00032009E003239
:1031C600009E0032009E02C0E9FF03C0EAFFEE50F7
:1031D600002602C0E1FF03C0E2FF00C0E6FF0E0EBC
:1031E6002A25E16E000E2B21E26E050E016E78C6D1
:1031F60000F0015004E000360090FF0FFBD700C03E
:10320600E6FF0E0E2A25026E000E2B21036E79C6EE
:1032160000F00032009E02C0E9FF03C0EAFFEE5054
:10322600002602C0E1FF03C0E2FF00C0E6FF100E69
:103236002A25006E000E2B21016E010E0024E16E80
:10324600000E0120E26EBC0E0601735D026E02C026
:1032560000F00036009000C0E6FF100E08012A2597
:10326600006E000E2B21016E010E0024026E000E70
:103276000120036E75C600F00032009E0032009EEB
:103286000032009E02C0E9FF03C0EAFFEE500026AE
:1032960002C0E1FF03C0E2FF00C0E6FF100E2A25D0
:1032A600E16E000E2B21E26E050E016E75C600F072
:1032B600015004E000360090FF0FFBD700C0E6FF88
:1032C600100E2A25016E000E2B21026E01C0E9FFA9
:1032D60002C0EAFF06017651EE24006E01C0E1FF4E
:0C32E60002C0E2FF00C0E6FF006A120018
:1032F20004013551FF0A08E13451FF0A05E1335157
:10330200FF0A02E13251FF0A06E1F60E0501D16F12
:10331200FF0E006E7CD22EC42CF82FC42DF830C4C0
:103322002EF831C42FF804011B51315D08E11A5106
:10333200305D05E119512F5D02E118512E5D15E353
:103342000101F95108012F5D0EE10101F851080157
:103352002E5D09E10101F75108012D5D04E1010132
:10336200F65108012C5D01E206D0F40E0501D16F81
:10337200FF0E006E4CD20801366B7AC600F032C4E2
:1033820001F033C402F034C403F035C404F0005039
:1033920007E00432033202320132049EFF0FF8D7F3
:1033A2000450000809E10350000806E10250000839
:1033B20003E108010150365D56E22CC8CAF82DC857
:1033C200CBF82EC8CCF82FC8CDF86EEC04F000C0B4
:1033D2002CF801C02DF802C02EF803C02FF80350BC
:1033E2000F0A08E10250FF0A05E10150FF0A02E15B
:1033F2000050FF0A06E1F10E0501D16FFF0E006ECB
:1034020006D204011B5108012F5D0EE104011A517D
:1034120008012E5D09E10401195108012D5D04E145
:103422000401185108012C5D15E30101F95108014D
:103432002F5D0EE10101F85108012E5D09E1010144
:10344200F75108012D5D04E10101F65108012C5DDF
:1034520001E206D0F40E0501D16FFF0E006ED7D146
:103462000801362B8AD736C400F037C401F038C4BD
:1034720002F039C403F0010E005E000E015A025A36
:10348200035A0050040132150801326F0150040141
:1034920033150801336F0250040134150801346FEB
:1034A2000350040135150801356F2CC8CAF82DC820
:1034B200CBF82EC8CCF82FC8CDF824EC04F081C686
:1034C20008F032C804F033C805F034C806F035C835
:1034D20007F0085007E00732063205320432079E31
:1034E200FF0FF8D70450002408015D6F055001203A
:1034F2005E6F065002205F6F07500320606F48C462
:1035020000F049C401F04AC402F04BC403F0010EBA
:10351200005E000E015A025A035A00503215046E20
:1035220001503315056E02503415066E03503515E1
:10353200076E050E026E04C000F005C001F00250D5
:1035420005E0003600900136FF0FFAD70801FE0EA3
:103552000024306F010E0120316F36EC0AF000506A
:10356200000A03E0FF0E006E52D130C8E9FF31C8F5
:10357200EAFFEECF01F00150E50A0AE030C8E9FFA8
:1035820031C8EAFFEECF01F0200E015C01E318D052
:1035920030C8E9FF31C8EAFFEECF01F0140E015C3A
:1035A2000EE20B0E08013025E96E000E3121EA6EA3
:1035B2003F0EEE14016E01500F0A01E101D096D0C8
:1035C2006BEC03F00050000A03E0FF0E006E1FD107
:1035D2000B0E08013025E96E000E3121EA6EEECFA6
:1035E20001F001A62ED02AC85DF82BC85EF85F6BE9
:1035F200100E606F010E616F4FEC0CF0FF0E2A256A
:10360200376F000E2B21386F0B0E30255D6F000EC9
:1036120031215E6F1FEC0DF037C8E1FF38C8E2FFC1
:1036220000C0E6FF2AC8B3F82BC8B4F830C8B5F812
:1036320031C8B6F80B0EB76F000EB86F21EC05F06B
:103642004BD02A512B1148E030C84BF831C84CF806
:103652002AC84DF82BC84EF82EC44FF82FC450F884
:1036620030C451F831C452F832C453F833C454F858
:1036720034C455F835C456F895EC0DF00050000AE4
:1036820003E0FF0E006EC3D030C84BF831C84CF8CF
:10369200FDEC11F030C84BF831C84CF8E0EC12F0F8
:1036A200080E2A25E16E010E2B21E26E2EC4E6FFE2
:1036B2002FC4E6FF30C4E6FF31C4E6FF0C0E2A2514
:1036C200E16E010E2B21E26E32C4E6FF33C4E6FF47
:1036D20034C4E6FF35C4E6FF010E04013227000EB2
:1036E200332334233523010E006E91D0010E0801DD
:1036F2003227000E332334233523200E3025016E6A
:10370200000E3121026E01C030F802C031F8010E04
:1037120004013227000E33233423352302504D197E
:1037220002E14C510118D8A471D0FE0E0801306F8D
:10373200010E316F3551040139190EE1080134517E
:103742000401381909E1080133510401371904E170
:10375200080132510401361951E16BEC03F00050BB
:10376200000A03E0FF0E006E52D00801326B336B89
:10377200346B356B2CC8CAF82DC8CBF82EC8CCF8E0
:103782002FC8CDF86EEC04F000C02CF801C02DF863
:1037920002C02EF803C02FF803500F0A08E10250AE
:1037A200FF0A05E10150FF0A02E10050FF0A0BE1A6
:1037B200FF0E0401326FFF0E336FFF0E346FFF0EE8
:1037C200356F006A24D02CC8CAF82DC8CBF82EC891
:1037D200CCF82FC8CDF824EC04F000C05DF801C08D
:1037E2005EF802C05FF803C060F836EC0AF00050E1
:1037F200000A03E0FF0E006E0AD008D094EC12F02B
:103802000050000A03E0FF0E006E01D0AED6120097
:10381200050E0001876F9598D9EC01F008012A6B1B
:103822002B6B000E2B5D02E10A0E2A5D10E24AC6E6
:10383200E1FF4BC6E2FFFF0EE66E48C600F049C646
:1038420001F02DEC00F008012A4B2B2BEAD7C6EC35
:1038520002F0E66BE76BE86BE96BEA6B950EEB6FD8
:103862005DEC02F000C02CF8D9EC01F008012C51FB
:10387200010A03E0010E006E84D0C6EC02F0080ECD
:10388200E66FAA0EE76F010EE86F000EE96FEA6FAE
:10389200870EEB6F5DEC02F000C02CF84AC6E1FF28
:1038A2004BC6E2FFFF0EE66E48C600F049C601F0C5
:1038B2002DEC00F04AC6E1FF4BC6E2FFFF0EE66EBA
:1038C20048C600F049C601F02DEC00F04AC6E1FFFF
:1038D2004BC6E2FFFF0EE66E48C600F049C601F095
:1038E2002DEC00F04AC6E1FF4BC6E2FFFF0EE66E8A
:1038F20048C600F049C601F02DEC00F0D9EC01F009
:1039020008012C51010A0BE0010E4B6F68EC0FF01D
:10391200005204E008014B6B68EC0FF005D0020E78
:1039220008014B6F68EC0FF0000E000A03E1050E70
:103932000001871903E1020E006E23D0000E000A77
:1039420003E10001040E87191BE0C6EC02F0100E21
:103952000801E66F000EE76F020EE86F000EE96FD6
:10396200EA6FFF0EEB6F5DEC02F000C02CF8D9ECB1
:1039720001F008012C51000A03E0030E006E01D091
:04398200006A1200C5
:1039860082C604F02EC800F02FC801F030C802F03D
:1039960031C803F0045007E003320232013200322C
:1039A600039EFF0FF8D700C033F801C034F802C0F9
:1039B60035F803C036F8040114510024086E155179
:1039C6000120096E165102200A6E175103200B6E54
:1039D60008C033F809C034F80AC035F80BC036F809
:1039E6007DC600F07EC601F07FC602F080C603F0F9
:1039F600010E005E000E015A025A035A00500801D9
:103A06002E15046E01502F15056E02503015066EE8
:103A160003503115076E04C000F005C001F00036F2
:103A260000900136003600900136FE0E00243B6FF2
:103A3600010E01203C6F08C0CEF809C0CFF80AC0BD
:103A4600D0F80BC0D1F883EC03F00050000A03E075
:103A5600FF0E006E46D03BC8E1FF3CC8E2FF2AC815
:103A6600E6FF2BC8E6FF2CC8E6FF2DC8E6FF33C8E5
:103A760037F834C838F835C839F836C83AF808017E
:103A8600326B04010D510801325D22E237C84BF852
:103A960038C84CF839C84DF83AC84EF826EC0DF03F
:103AA6000050000A03E0FF0E006E1BD004010E5109
:103AB6000801372704010F5108013823040110516A
:103AC600080139230401115108013A23322BD9D7B1
:103AD60033C8FAF134C8FBF135C8FCF136C8FDF13C
:043AE600006A120060
:103AEA001A0E08012A25E16E000E2B21E26E2CC85F
:103AFA00E6FF1A0E2A25006E000E2B21016E010E1A
:103B0A000024E16E000E0120E26E2DC8E6FF140EBD
:103B1A002A25E16E000E2B21E26E2EC8E6FF140E56
:103B2A002A25006E000E2B21016E010E0024E16E83
:0E3B3A00000E0120E26E2FC8E6FF006A1200A6
:103B4800010E08012E6F2F6B306B316B326B336BAC
:103B5800346B2AC8E9FF2BC8EAFFEE50000A06E1D9
:103B6800C40E0501D16FFF0E006EEED02AC84BF8C7
:103B78002BC84CF87EEC10F000C02DF82C6B2AC82E
:103B88004BF82BC84CF87EEC10F0800E026E800EBD
:103B98000118025C02E100502C5D15E22C512A2527
:103BA800E96E000E2B21EA6EEECF4BF830EC10F0E8
:103BB800005206E1C30E0501D16FFF0E006EC4D09E
:103BC80008012C2BDCD72D05006E000E2DBFFF0E33
:103BD800016E000E015A00502A25E96E01502B2172
:103BE800EA6EEE502E0A02E12D07EDD7800E000A8C
:103BF800006E800E2D19005C06E3E20E0501D16F00
:103C0800FF0E006EA1D02AC84BF82BC84CF87EECEA
:103C180010F0800E2DBF7F0E026E800E0118025C20
:103C280002E100502D5D09E22D512A25E16E000EBA
:103C38002DBFFF0E2B21E26EE66A2C6B800E006E04
:103C4800800E2DBF7F0E005C02E12D512C5D12E22B
:103C58002C512A25E96E000E2B21EA6EEECF5DF875
:103C680004EC0AF0005203E0010E006E6DD008016A
:103C78002C2BE4D7800E0C0A006E800E2D19005CE8
:103C880003E2010E006E60D02C6B800E006E800E79
:103C98002DBF7F0E005C02E12D512C5D3FE22C51BF
:103CA8002A25E96E000E2B21EA6EEECFCAF8EFEC5A
:103CB80003F0005203E0010E2F6F29D02C512A2562
:103CC800E96E000E2B21EA6EEECFCAF818EC04F06C
:103CD800005203E0010E306F1AD02C512A25E96EEC
:103CE800000E2B21EA6EEE502E0A11E132530CE140
:103CF8002F5304E0305302E0010E316F010E326F92
:103D08002E6B2F6B306B08D0010E006E1DD02E531A
:103D180002E0332B01D0342B2C2BB7D72F5304E0E0
:103D2800305302E0010E316F3351080804E3345177
:103D3800030801E303D0010E006E06D0315303E0FF
:0A3D4800020E006E01D0006A1200A6
:103D52002EC42EF82FC42FF830C430F831C431F8F5
:103D62000401326B336B346B356B04011B51080158
:103D7200315D0EE104011A510801305D09E10401CF
:103D8200195108012F5D04E10401185108012E5D4B
:103D920015E30101F9510801315D0EE10101F8510C
:103DA2000801305D09E10101F75108012F5D04E1CD
:103DB2000101F65108012E5D01E206D0F40E050163
:103DC200D16FFF0E006EF7D0FE0E0801366F010EA6
:103DD200376F2EC8CAF82FC8CBF830C8CCF831C814
:103DE200CDF824EC04F000C05DF801C05EF802C01A
:103DF2005FF803C060F836EC0AF00050000A03E0F6
:103E0200FF0E006ED8D00801326B336B346B356B0A
:103E1200040139510801355D0EE1040138510801F0
:103E2200345D09E1040137510801335D04E1040105
:103E320036510801325DD8B095D0375104014D1981
:103E420003E14C51080136190DE10801FE0E366FEF
:103E5200010E376F94EC12F00050000A03E0FF0EDF
:103E6200006EA9D036C84BF837C84CF82AC84DF8AE
:103E72002BC84EF80B0E08014F6F000E506F4DEC21
:103E820010F0000E011802E1000E001858E16BEC70
:103E920003F00050000A03E0FF0E006E8CD0080110
:103EA2002C512D113DE036C84BF837C84CF82CC8C0
:103EB2004DF82DC84EF82EC44FF82FC450F830C418
:103EC20051F831C452F832C453F833C454F834C4EC
:103ED20055F835C456F895EC0DF00050000A03E091
:103EE200FF0E006E68D0080E08012C25E16E010E4F
:103EF2002D21E26E2EC4E6FF2FC4E6FF30C4E6FF9A
:103F020031C4E6FF0C0E2C25E16E010E2D21E26E6E
:103F120032C4E6FF33C4E6FF34C4E6FF35C4E6FF2D
:103F220036C84BF837C84CF8FDEC11F036C84BF8E0
:103F320037C84CF8E0EC12F0010E006E3CD00801DC
:103F4200200E3627000E3723010E3227000E3323B0
:103F520034233523010E04013227000E3323342388
:103F6200352356D76BEC03F00050000A03E0FF0E36
:103F7200006E21D02EC8CAF82FC8CBF830C8CCF8B2
:103F820031C8CDF86EEC04F000C02EF801C02FF855
:103F920002C030F803C031F803500F0A08E10250A2
:103FA200FF0A05E10150FF0A02E10050FF0A02E1A7
:083FB200006A01D0DAD612000A
:103FBA0032C442F833C443F834C444F835C445F82B
:103FCA002EC49FF82FC4A0F830C4A1F831C4A2F8B7
:103FDA0032C4A3F833C4A4F834C4A5F835C4A6F887
:103FEA00460E0801A76F080EA86FECEC07F0005008
:103FFA00000A03E0FF0E006E79D148C400F049C4FC
:10400A0001F04AC402F04BC403F0010E005E000E38
:10401A00015A025A035A005004013215046E015023
:10402A003315056E02503415066E03503515076EAA
:10403A0004C03EF805C03FF806C040F807C041F882
:10404A00050E026E04C000F005C001F0025005E042
:10405A00003600900136FF0FFAD7FE0E0024080141
:10406A009F6F010E0120A06F010E2D6FBBEC07F0B0
:10407A0000C02EF8010E0401325F000E335B345B80
:10408A00355B000E006E0801411908E10050401925
:10409A0005E100503F1902E13E51000A2BE136C406
:1040AA003EF837C43FF838C440F839C441F8010E25
:1040BA003E5F000E3F5B405B415B2EC49FF82FC4FE
:1040CA00A0F830C4A1F831C4A2F832C4A3F833C4AA
:1040DA00A4F834C4A5F835C4A6F8460EA76F080E8E
:1040EA00A86FECEC07F00050000A03E0FF0E006E28
:1040FA00FDD007D0010E08013E5F000E3F5B405B1A
:10410A00415B080148C400F049C401F04AC402F006
:10411A004BC403F0010E005E000E015A025A035A04
:10412A0000503E15046E01503F15056E02504015B1
:10413A00066E03504115076E050E026E04C000F0AC
:10414A0005C001F0025005E0003600900136FF0F6D
:10415A00FAD7FE0E0026010E012200C03CF801C06B
:10416A003DF80B0E0024E96E000E0120EA6E3F0EA8
:10417A00EE14016E01500F0A06E0C00E0501D16F60
:10418A00FF0E006EB3D00D0E08013C25E96E000E3D
:10419A003D21EA6EEE502E1906E0C10E0501D16FDF
:1041AA00FF0E006EA3D03CC8E9FF3DC8EAFFEECF80
:1041BA0000F01F0E0014016E015008012D1906E0CF
:1041CA00C20E0501D16FFF0E006E90D03CC89FF859
:1041DA003DC8A0F82F0E0801A16F080EA26F04ECCB
:1041EA0007F02C6B2F0EE96E080EEA6E2C51E926A9
:1041FA00D8B0EA2AEECF4BF825EC10F000C04AF806
:10420A002D05006E016A000E015A0D0E046E000E95
:10421A00056EDCEC06F02C510026000E012200503F
:10422A002A25E96E01502B21EA6EEECF4BF825ECD8
:10423A0010F04A5100180AE042C832F443C833F475
:10424A0044C834F445C835F4006A50D02C2B0D0EFE
:10425A002C5D0CE22F0EE96E080EEA6E2C51E9264F
:10426A00D8B0EA2AEE50000A01E0BCD70D0E2C5D48
:10427A002AE22F0EE96E080EEA6E2C51E926D8B012
:10428A00EA2A2D05006E016A000E015A0D0E046E0F
:10429A00000E056EDCEC06F02C510026000E012201
:1042AA0000502A25D96E01502B21DA6EEE50DE1805
:1042BA000AE042C832F443C833F444C834F445C867
:1042CA0035F4006A13D02D2B3CC8E9FF3DC8EAFF3C
:1042DA00EECF01F001ACCED642C832F443C833F473
:0E42EA0044C834F445C835F4010E006E1200CD
:1042F8002AC84BF82BC84CF87EEC10F000C02FF8F9
:1043080001C030F82CC84BF82DC84CF87EEC10F0E2
:104318003051011802E100502F1902E0006A2FD035
:104328002E6B2CC84BF82DC84CF87EEC10F0800E84
:10433800026E800E0118025C02E100502E5D1DE243
:104348002E512A25E96E000E2B21EA6EEECF4BF88E
:1043580025EC10F000C02FF82E512C25E96E000E28
:104368002D21EA6EEECF4BF825EC10F02F510018F6
:1043780002E0006A04D02E2BD4D7010E006E120082
:10438800086A080E0C6E003408360450085ED8B06F
:0E43980002D00826D89000360C2EF5D7120061
:1043A6000450000A12E10550000A0FE10650000A07
:1043B6000CE10750000A09E1FF0E006EFF0E016EC8
:1043C600FF0E026E7F0E036E99D00C6A07BE0C2A92
:1043D6000D6A0B6A0A6A096A086A0350021001101C
:1043E6000010D8B485D0035007180E6E0EBE0D1EF1
:1043F60007AE0BD0041E051E061E071E042AD8B4DF
:10440600052AD8B4062AD8B4072A03AE0BD0001E54
:10441600011E021E031E002AD8B4012AD8B4022A9D
:10442600D8B4032A035007100E6E0EBE1DD09BECA7
:1044360010F00CBE36D00DAE5BD0001E011E021E63
:10444600031E002AD8B4012AD8B4022AD8B4032AF3
:10445600081E091E0A1E0B1E082AD8B4092AD8B43B
:104466000A2AD8B40B2A44D007AE15D003BE0DD005
:1044760003500B6E02500A6E0150096E0050086E12
:10448600036A026A016A006AD6D7036A026A016A87
:10449600006A002A000C031E021E011E001E0C8E5E
:1044A600C6D7082AD8B4092AD8B40A2AD8B40B2AF7
:1044B6000450085CD8A4BFD70550095CD8A4BBD764
:1044C60006500A5CD8A4B7D707500B5CD8A4B3D75C
:1044D6000B6A0A6A096A086A002AD8B4012AD8B49B
:1044E600022AD8B4032A03AEA6D70E6A0E88FF0C9A
:0E44F6000E6A0CA002D041EC10F0000F120074
:104504000450000A08E10550000A05E1FF0E006EA0
:104514007F0E016E58D00D6A096A086A01500010B6
:10452400D8B4000C015005180A6E0ABE0D1E0B6AA1
:1045340005AE05D0041E051E042AD8B4052A01AE12
:1045440005D0001E011E002AD8B4012A015005100E
:104554000A6E0ABE10D069EC0DF00BB020D00DAE7F
:10456400000C001E011E002AD8B4012A081E091ED0
:10457400082AD8B4092A000C05AE0DD001BE07D014
:104584000150096E0050086E016A006AE8D7016A9A
:10459400006A002A000C011E001E0B2ADDD7082A1F
:1045A400D8B4092A0450085CD8A4D9D70550095CAA
:1045B400D8A4D5D7096A086A002AD8B4012A01AE5A
:0845C400CED70000FF0C12002D
:1045CC0009EC1CF0000E001803E0FF0E006E01D089
:0445DC00006A12005F
:1045E000086A096A100E0C6E013408360936045048
:1045F000085E0550D8A0053C095ED8B007D004502D
:1046000008260550D8B0053C0926D890003601365A
:064610000C2EEAD7120097
:1046160006016D5302E1006A63D0FE0E0801096FC0
:10462600010E0A6FFE0E5D6F010E5E6F5F6B000E70
:10463600606F020E616F4FEC0CF009C8E1FF0AC80B
:10464600E2FF520EE66E520EE66E610EE66E410E09
:10465600E66EE40E0925E16E010E0A21E26E720E87
:10466600E66E720EE66E410EE66E610EE66EE80EC0
:104676000925E16E010E0A21E26E26C4E6FF27C473
:10468600E6FF28C4E6FF29C4E6FFEC0E0925E16E25
:10469600010E0A21E26E2AC4E6FF2BC4E6FF2CC4F3
:1046A600E6FF2DC4E6FFFE0E0925E16E010E0A2186
:1046B600E26E550EE66EAA0EE66E22C44BF823C4D1
:1046C6004CF824C44DF825C44EF826EC0DF00050E5
:1046D600000A03E0FF0E006E03D006016D6B006A50
:0246E6001200C0
:1046E8001C0E08010925E16E000E0A21E26E0BC8B6
:1046F800E6FF1C0E0925006E000E0A21016E010E50
:104708000024E16E000E0120E26E0CC8E6FF1C0ECC
:104718000925006E000E0A21016E020E0024E16ECA
:10472800000E0120E26E0DC8E6FF1C0E0925006E82
:10473800000E0A21016E030E0024E16E000E012016
:0A474800E26E0EC8E6FF006A1200E0
:1047520009C8E9FF0AC8EAFFEE50000A06E1C40EE2
:104762000501D16FFF0E006EB3D02EC40DF82FC419
:104772000EF830C40FF831C410F80401326B336BF9
:10478200346B356B0801166B0BC82AF80CC82BF872
:1047920079EC19F00050010AD8A491D0FF0E08015B
:1047A2000B25E96E000E0C21EA6E3F0EEE14016E2F
:1047B20001500F0A03E1010E166FE6D7010E040144
:1047C200325F000E335B345B355B080116533AE00F
:1047D20009C82AF80AC82BF8DDEC1FF000C015F84A
:1047E2000050FF0A03E1FF0E006E72D0080115515E
:1047F200010A27E12EC49FF82FC4A0F830C4A1F803
:1048020031C4A2F832C4A3F833C4A4F834C4A5F85E
:1048120035C4A6F8110EA76F080EA86FECEC07F0CE
:104822000050000A03E0FF0E006E52D00DC82EF4B5
:104832000EC82FF40FC830F410C831F4010E006E08
:1048420047D033D00BC82AF80CC82BF809C82CF86B
:104852000AC82DF850DD0050010A27E12EC49FF846
:104862002FC4A0F830C4A1F831C4A2F832C4A3F80E
:1048720033C4A4F834C4A5F835C4A6F8110EA76F42
:10488200080EA86FECEC07F00050000A03E0FF0EE0
:10489200006E1ED00DC82EF40EC82FF40FC830F4CF
:1048A20010C831F4010E006E13D0010E040132273C
:1048B200000E3323342335230801166B65D70DC848
:1048C2002EF40EC82FF40FC830F410C831F4006A69
:0248D2001200D2
:1048D400730E08015D6F060E5E6F5F6B070E606FEF
:1048E400000E616F4FEC0CF03A0E5D6F040E5E6FBC
:1048F4005F6B070E606F000E616F4FEC0CF0410EA2
:104904005D6F040E5E6F5F6B070E606F000E616F6C
:104914004FEC0CF0FE0E5D6F030E5E6F5F6B300E9E
:10492400606F000E616F4FEC0CF0FA0E5D6F010EBC
:104934005E6F5F6B040E606F020E616F4FEC0CF0E4
:10494400D80E5D6F050E5E6F5F6B040E006E000E79
:10495400016E1A0E0002F3CF60F8F4CF61F84FEC49
:104964000CF0600E5D6F060E5E6F5F6B0C0E606F79
:10497400000E616F4FEC0CF0FF0E0101FA6FFF0E99
:10498400FB6FFF0EFC6FFF0EFD6FFE0E04014C6FFC
:10499400030E4D6F4E6B06016D6B0101F66BF76BE9
:1049A400F86BF96B04012E6B2F6B306B316B326B30
:1049B400336B346B356B06017B6B430E606F050103
:0449C400D16B1200A1
:1049C80077EC13F0FE0E0801096F010E0A6FFE0E58
:1049D8000B6F010E0C6F0501D151FF0A03E1FF0EA9
:1049E800006EA3D0D151FC0A03E1FF0E006E9DD0EA
:1049F800D151000AD8A494D0300E080109255D6F62
:104A0800000E0A215E6FFAEC0CF00050040100253C
:104A18000801CE6F0150040101210801CF6F000E7B
:104A2800040102210801D06F000E040103210801CE
:104A3800D16F83EC03F00050000A03E0FF0E006E14
:104A480074D0FE0E08010B6F010E0C6FFE0E0B25C5
:104A58005D6F010E0C215E6FFAEC0CF00150AA0A92
:104A680002E1550E001806E0FC0E0501D16FFF0E9D
:104A7800006E5BD00BC85DF80CC85EF86DEC0CF0EE
:104A88000350410A08E10250610A05E10150520A47
:104A980002E10050520A06E0FA0E0501D16FFF0E3E
:104AA800006E43D0E40E08010B255D6F010E0C214A
:104AB8005E6F6DEC0CF00350610A08E10250410A88
:104AC80005E10150720A02E10050720A06E0FA0E8E
:104AD8000501D16FFF0E006E28D0E80E08010B25E6
:104AE8005D6F010E0C215E6F6DEC0CF000C026F4BA
:104AF80001C027F402C028F403C029F4EC0E0B25EA
:104B08005D6F010E0C215E6F6DEC0CF000C02AF495
:104B180001C02BF402C02CF403C02DF4006A05D0A8
:0C4B2800FA0E0501D16FFF0E006E1200A6
:0A4B34001D0E0D6E0D2EFED71200AF
:104B3E006DB409D01F0E6B14016E0150000A03E113
:0A4B4E00010E006E01D0006A120093
:104B5800800E08010919006E800E000A005C0CE343
:104B6800800E09BF7F0E006E000E800A005C02E115
:104B7800040E095D01E206D0D80E0501D16FFF0EC3
:104B8800006E67D11A0E006E000E016E09C804F09F
:104B9800000E080109BFFF0E056EDCEC06F0D80E0A
:104BA8000026050E012200C012F801C013F8180EE5
:104BB8000024E96E000E0120EA6EEE50000A06E1BC
:104BC800DC0E0501D16FFF0E006E43D1140E0801F3
:104BD8001225D96E000E1321DA6EDECF01F0DECF7A
:104BE80002F0DECF03F0DECF04F00D51045C08E1E3
:104BF8000C51035C05E10B51025C02E10A51015CB6
:104C080006E2DB0E0501D16FFF0E006E22D1100EF9
:104C180008011225E96E000E1321EA6EEECF01F0AD
:104C2800EECF02F0EECF03F0EECF04F004500D19F2
:104C380008E103500C1905E102500B1902E101507B
:104C48000A1902E1006A05D1100E1225E96E000E5C
:104C58001321EA6EEECF01F0EECF02F0EECF03F0B3
:104C6800EECF04F072C600F001C005F002C006F0F5
:104C780003C007F004C008F0005007E0083207320C
:104C880006320532089EFF0FF8D772C600F00AC830
:104C980001F00BC802F00CC803F00DC804F0005076
:104CA80007E00432033202320132049EFF0FF8D7C4
:104CB8000850041808E10750031805E106500218C7
:104CC80002E10550011811E10801100E1225E16EEC
:104CD800000E1321E26E0AC8E6FF0BC8E6FF0CC8F7
:104CE800E6FF0DC8E6FF006AB4D00801100E1225D1
:104CF800E16E000E1321E26E0AC8E6FF0BC8E6FF5C
:104D08000CC8E6FF0DC8E6FF100E1225E96E000E6E
:104D18001321EA6EEECF01F0EECF02F0EECF03F0F2
:104D2800EECF04F072C600F001C00EF802C00FF812
:104D380003C010F804C011F8005007E01133103315
:104D48000F330E33119FFF0FF8D7040E1225E16EB3
:104D5800000E1321E26E12C8E9FF13C8EAFFEECF76
:104D680000F0EECF01F0EECF02F0EECF03F000C07E
:104D7800E6FF01C0E6FF02C0E6FF03C0E6FF1151EF
:104D8800000808E11051000805E10F51000802E190
:104D98000E5100085DE2040E1225146F000E132157
:104DA800156F14C8E9FF15C8EAFFEECFCAF8EECFB1
:104DB800CBF8EECFCCF8EECFCDF86EEC04F014C8FB
:104DC800E1FF15C8E2FF00C0E6FF01C0E6FF02C030
:104DD800E6FF03C0E6FF040E08011225D96E000E97
:104DE8001321DA6EDECF01F0DECF02F0DECF03F062
:104DF800DECF04F00F0E041808E1FF0E031805E1DA
:104E0800FF0E021802E1FF0E01181AE1100E12251A
:104E1800E16E000E1321E26E140E1225E96E000EEB
:104E28001321EA6EEECFE6FFEECFE6FFEECFE6FF08
:104E3800EECFE6FFDB0E0501D16FFF0E006E09D045
:104E4800010E08010E5F000E0F5B105B115B97D718
:044E5800006A1200DA
:104E5C0009C8E1FF0AC8E2FF0BC8E6FF006A1200AE
:104E6C000E0E08015D6F080E5E6FFF0E5F6F0D0E6C
:104E7C00606F000E616F4FEC0CF00D6B0D0E0D5D45
:104E8C001CE20E0EE16E080EE26E0D51E126D8B05A
:104E9C00E22A0D510B25E96E000E0C21EA6EEECFC5
:104EAC00E6FF0D510B25E96E000E0C21EA6EEE505B
:104EBC00000A01E102D00D2BE1D7010E0925E16EAC
:104ECC00000E0A21E26E0EC8E6FF030E0925E16E04
:104EDC00000E0A21E26E0FC8E6FF050E0925E16EF1
:104EEC00000E0A21E26E10C8E6FF070E0925E16EDE
:104EFC00000E0A21E26E11C8E6FF090E0925E16ECB
:104F0C00000E0A21E26E12C8E6FF0E0E0925E16EB4
:104F1C00000E0A21E26E13C8E6FF100E0925E16EA1
:104F2C00000E0A21E26E14C8E6FF120E0925E16E8E
:104F3C00000E0A21E26E15C8E6FF140E0925E16E7B
:104F4C00000E0A21E26E16C8E6FF160E0925E16E68
:104F5C00000E0A21E26E17C8E6FF180E0925E16E55
:104F6C00000E0A21E26E18C8E6FF1C0E0925E16E40
:104F7C00000E0A21E26E19C8E6FF1E0E0925E16E2D
:104F8C00000E0A21E26E1AC8E6FF0D51010F026EE7
:104F9C00036A000E0322B7D0010E0925006E000E25
:104FAC000A21016E010E0024E16E000E0120E26E5A
:104FBC00FF0EE66E030E0925006E000E0A21016E2F
:104FCC00010E0024E16E000E0120E26EFF0EE66E73
:104FDC00050E0925006E000E0A21016E010E00243B
:104FEC00E16E000E0120E26EFF0EE66E070E092543
:104FFC00006E000E0A21016E010E0024E16E000EFF
:10500C000120E26EFF0EE66E090E0925006E000E01
:10501C000A21016E010E0024E16E000E0120E26EE9
:10502C00FF0EE66E0E0E0925006E000E0A21016EB3
:10503C00010E0024E16E000E0120E26EFF0EE66E02
:10504C00100E0925006E000E0A21016E010E0024BF
:10505C00E16E000E0120E26EFF0EE66E120E0925C7
:10506C00006E000E0A21016E010E0024E16E000E8E
:10507C000120E26EFF0EE66E140E0925006E000E86
:10508C000A21016E010E0024E16E000E0120E26E79
:10509C00FF0EE66E160E0925006E000E0A21016E3B
:1050AC00010E0024E16E000E0120E26EFF0EE66E92
:1050BC00180E0925006E000E0A21016E010E002447
:1050CC00E16E000E0120E26EFF0EE66E1C0E09254D
:1050DC00006E000E0A21016E010E0024E16E000E1E
:1050EC000120E26EFF0EE66E1E0E0925006E000E0C
:1050FC000A21016E010E0024E16E000E0120E26E09
:10510C00FF0EE66E58D0000E031802E1000E0218D6
:10511C00D8B442D7000E031802E1010E0218D8B41D
:10512C0049D7000E031802E1020E0218D8B450D76A
:10513C00000E031802E1030E0218D8B457D7000E64
:10514C00031802E1040E0218D8B45ED7000E03183F
:10515C0002E1050E0218D8B465D7000E031802E15F
:10516C00060E0218D8B46CD7000E031802E1070E15
:10517C000218D8B473D7000E031802E1080E0218F7
:10518C00D8B47AD7000E031802E1090E021882E097
:10519C00000E031802E10A0E02188AE0000E031832
:1051AC0002E10B0E021892E0000E031802E10C0E45
:0A51BC0002189AE0A7D7006A12005B
:1051C6000D0E08010925E16E000E0A21E26E0BC8DC
:0651D600E6FF006A120072
:1051DC000B0E08010925E16E000E0A21E26E0BC8C8
:0651EC00E6FF006A12005C
:1051F20005015D5108010925016E05015E51080195
:105202000A21026E0250010802E101500E0806E274
:10521200BE0E0501D16FFF0E006E01D0006A1200B2
:1052220009C8E9FF0AC8EAFFEE50000A07E1C40E06
:105232000501D16FFF0E006EA6EF2FF00BC85DF8CF
:105242000CC85EF8200E08015F6F0B0E606F000E37
:10525200616F4FEC0CF009C8E9FF0AC8EAFFEE5093
:105262002E0A12E1010E0925E96E000E0A21EA6EEC
:10527200EE50000A09E10BC8E1FF0CC8E2FF2E0E56
:10528200E66E006AA6EF2FF009C8E9FF0AC8EAFF36
:10529200EE502E0A23E1010E0925E96E000E0A21C5
:1052A200EA6EEE502E0A1AE1020E0925E96E000E90
:1052B2000A21EA6EEE50000A11E10BC8E1FF0CC8A8
:1052C200E2FF2E0EE66E010E0B25E16E000E0C21A2
:1052D200E26E2E0EE66E006AA6EF2FF009C8E9FF15
:1052E2000AC8EAFFEE502E0A07E1E20E0501D16F6D
:1052F200FF0E006EA6EF2FF009C84BF80AC84CF853
:105302007EEC10F000C01BF801C01CF809C82AF896
:105312000AC82BF8A4EC1DF000C018F80050FF0AD0
:1053220004E1FF0E006EA6EF2FF0010E08011B5DD7
:10533200006E000E1C59016E00500925E96E0150E5
:105342000A21EA6EEE502E0A10E0010E1B5D006E7D
:10535200000E1C59016E00500925E96E01500A2108
:10536200EA6EEE50200A01E015D0800E006E800E2B
:105372001C19005C02E11B5100080CE21B510925BB
:10538200E16E1C510A21E26EE66A010E1B5F000EFD
:105392001C5BCBD7000E1C1902E1000E1B1904E1A5
:1053A200FF0E006EA6EF2FF0000E18BFFF0E006E6C
:1053B200000E001802E1000E18190BE0000E18BFD3
:1053C200FF0E006E000E001802E1020E181901E035
:1053D2008BD0136B126B080E125D2DE2135109254F
:1053E200E96E000E0A21EA6EEE502E0A0AE013510F
:1053F2000925E96E000E0A21EA6EEE50000A01E06C
:1054020001D019D012510B251D6F000E0C211E6FF9
:1054120013510925E96E000E0A21EA6EEECF4BF810
:1054220025EC10F01DC8E1FF1EC8E2FF00C0E6FF38
:10543200132B122BD0D713510925E96E000E0A2126
:10544200EA6EEE50000A0AE10BC82AF80CC82BF8E3
:105452002C6B2D6BA9EC1EF0A6EF2FF00801135157
:105462000925E96E000E0A21EA6EEE502E0A02E1CB
:10547200132B07D0E20E0501D16FFF0E006EA6EFCF
:105482002FF0080E0801126F0B0E125D23E213516A
:105492000925E96E000E0A21EA6EEE50000A01E1CA
:1054A20019D012510B251D6F000E0C211E6F1351C6
:1054B2000925E96E000E0A21EA6EEECF4BF825ECC3
:1054C20010F01DC8E1FF1EC8E2FF00C0E6FF132B6B
:1054D200122BDAD70BC82AF80CC82BF82C6B2D6BC1
:1054E200A9EC1EF0A6EF2FF0000E080118BFFF0E68
:1054F200006E000E001802E1010E1819D8A4A3EFE5
:105502002FF01BC815F8010E1B5D166F000E1C59FB
:10551200176F16510925E96E17510A21EA6EEE50EE
:105522002E0A0EE0800E006E800E1719005C02E15A
:105532001651000805E2010E165F000E175BE9D74F
:10554200800E006E800E1719005C02E116510008F1
:105552004DE216C815F8164B172B080E126F0B0EDC
:10556200125D44E216510925E96E17510A21EA6ECD
:10557200EE50000A3BE016510925E96E17510A2147
:10558200EA6EEECF5DF804EC0AF0005219E1080170
:1055920012510B251D6F000E0C211E6F165109258D
:1055A200E96E17510A21EA6EEECF4BF825EC10F0A6
:1055B2001DC8E1FF1EC8E2FF00C0E6FF122B13D098
:1055C200080116510925E96E17510A21EA6EEE50BB
:1055D200200A09E012510B25E16E000E0C21E26E49
:1055E2005F0EE66E122B164B172BB9D715C816F89D
:1055F200000E176F136B126B080E125D56E21351F9
:105602000925E96E000E0A21EA6EEE50000A01E158
:105612004CD0000E171902E11651131901E145D0C1
:1056220013510925E96E000E0A21EA6EEE502E0A88
:105632000AE013510925E96E000E0A21EA6EEE50C6
:10564200200A01E001D02FD013510925E96E000E86
:105652000A21EA6EEECF5DF804EC0AF0005219E17D
:10566200080112510B251D6F000E0C211E6F1351E4
:105672000925E96E000E0A21EA6EEECF4BF825EC01
:1056820010F01DC8E1FF1EC8E2FF00C0E6FF122BAA
:105692000AD0080112510B25E16E000E0C21E26EB8
:1056A2005F0EE66E122B132BA7D7010E196F060E93
:1056B200125D03E212C80DF802D0060E0D6F0DC87E
:1056C20015F80D510B25E16E000E0C21E26E7E0ED7
:1056D200E66E010E146F145109083BE31951000ADA
:1056E20038E01551010F006E016A000E01220050D0
:1056F2000B25E16E01500C21E26E300E1425006E76
:1057020000C0E6FF0BC82AF80CC82BF82C6B2D6BD7
:10571200A9EC1EF000C019F80050FF0A04E1FF0EC8
:10572200006EA6EF2FF008011951010A0FE109C816
:105732002AF80AC82BF8DDEC1FF000C01AF8005056
:10574200000A04E01AC800F0A6EF2FF00801142B9B
:10575200C2D71951000AD8B475D0050E125D03E202
:1057620012C80EF802D0050E0E6F0EC815F80E51B3
:105772000B25E16E000E0C21E26E7E0EE66E0A0E25
:10578200146F145163085EE31951000A5BE015516E
:10579200010F006E016A000E012200500B251D6FE1
:1057A20001500C211E6F0A0E046E14C800F0C4ECE6
:1057B20021F0300E00261DC8E1FF1EC8E2FF00C026
:1057C200E6FF020E1525006E016A000E012200504E
:1057D2000B251D6F01500C211E6F0A0E046E14C89A
:1057E20000F0C4EC21F008C000F0300E00261DC805
:1057F200E1FF1EC8E2FF00C0E6FF0BC82AF80CC892
:105802002BF82C6B2D6BA9EC1EF000C019F8005080
:10581200FF0A03E1FF0E006E98D308011951010A35
:105822000EE109C82AF80AC82BF8DDEC1FF000C007
:105832001AF80050000A03E01AC800F086D30801E3
:10584200142B9FD71951000AD8B49DD0040E125DB3
:1058520003E212C80FF802D0040E0F6F0FC815F83A
:105862000F510B25E16E000E0C21E26E7E0EE66EEC
:10587200640E146F800E030A006E800E005C02E15B
:105882001451E708D8A07FD01951000AD8B47BD0B0
:105892001551010F006E016A000E012200500B2506
:1058A2001D6F01500C211E6F640E046E14C800F0AF
:1058B200C4EC21F0300E00261DC8E1FF1EC8E2FF35
:1058C20000C0E6FF020E1525006E016A000E0122DD
:1058D20000500B251D6F01500C211E6F0A0E046E25
:1058E20014C800F0C4EC21F00A0E046EC4EC21F0DE
:1058F20008C000F0300E00261DC8E1FF1EC8E2FFFE
:1059020000C0E6FF030E1525006E016A000E01229B
:1059120000500B251D6F01500C211E6F0A0E046EE4
:1059220014C800F0C4EC21F008C000F0300E0026CC
:105932001DC8E1FF1EC8E2FF00C0E6FF0BC82AF83F
:105942000CC82BF82C6B2D6BA9EC1EF000C019F8BB
:105952000050FF0A03E1FF0E006EF7D20801195151
:10596200010A0EE109C82AF80AC82BF8DDEC1FF07B
:1059720000C01AF80050000A03E01AC800F0E5D28D
:105982000801142B77D71951000AD8B4C2D0030EDC
:10599200125D03E212C810F802D0030E106F10C895
:1059A20015F810510B25E16E000E0C21E26E7E0EF1
:1059B200E66EE80E146F800E270A006E800E005C01
:1059C20002E114510F08D8A0A4D01951000AD8B48A
:1059D200A0D01551010F006E016A000E0122005085
:1059E2000B251D6F01500C211E6FE80E046E030E75
:1059F200056E14C800F0000E016E82EC22F0300E2B
:105A020000261DC8E1FF1EC8E2FF00C0E6FF020E2D
:105A120008011525006E016A000E012200500B25B7
