:1000000020EF41F00000000000EF00F000000000D1
:0A0010000000000000000000F3D71C
:10001C00ADC96FFF6DB002D00000FCD76FCF00F000
:02002C001200C0
:10002E00ADC9C9FFC7B002D00000FCD7C9CF00F0E0
:02003E001200AE
:10004000F250026EF29E0500FF6A0150FE6E0050F3
:08005000FD6E02BEF28E1200EB
:1000580083889CC5E1FF9DC5E2FFFF0EE66E9AC549
:0A00680000F09BC501F0E8DF120074
:10007200400E0901A425006E9CC5E1FF9DC5E2FF6B
:1000820000C0E6FF9AC500F09BC501F0D8DF9CC511
:10009200E1FF9DC5E2FFA8C9E6FF9AC500F09BC536
:1000A20001F0CDDF9CC5E1FF9DC5E2FFA7C9E6FFD8
:1000B2009AC500F09BC501F0C2DF9CC5E1FF9DC55A
:1000C200E2FFA6C9E6FF9AC500F09BC501F0B7DFC3
:1000D2009CC5E1FF9DC5E2FFA5C9E6FF9AC500F0F8
:1000E2009BC501F0ACDF9CC5E1FF9DC5E2FFA9C93C
:1000F200E6FF9AC500F09BC501F0A1DF0901AB6BD9
:10010200AC6B9CC5E1FF9DC5E2FFFF0EE66E9AC592
:1001120000F09BC501F093DF00C0AAF90901AB4BC7
:10012200AC2B800E0014016E0150000A07E0000E95
:10013200AC5D02E1640EAB5D01E2E3D7AAC900F057
:020142001200A9
:04014400839812008A
:100148009CC5E1FF9DC5E2FF4C0EE66E9AC500F026
:100158009BC501F071DF9CC5E1FF9DC5E2FFE66A22
:100168009AC500F09BC501F067DF9CC5E1FF9DC5FE
:10017800E2FFE66A9AC500F09BC501F05DDF9CC509
:10018800E1FF9DC5E2FFE66A9AC500F09BC501F054
:1001980053DF9CC5E1FF9DC5E2FFE66A9AC500F002
:1001A8009BC501F049DF9CC5E1FF9DC5E2FFFF0E3D
:1001B800E66E9AC500F09BC501F03EDF0901A56B0C
:1001C800A66B9CC5E1FF9DC5E2FFFF0EE66E9AC5D2
:1001D80000F09BC501F030DF00C0A4F90901A54B70
:1001E800A62B800E0014016E0150000A07E0000ED5
:1001F800A65D02E1640EA55D01E2E3D7A4AF04D0D9
:1002080027DFA4C900F012D09CC5E1FF9DC5E2FF1D
:10021800FF0EE66E9AC500F09BC501F00DDF00C029
:0E022800A4F90050000AF0E013DF006A120093
:1002360086DF000E000A03E1040E0001EB1909E156
:1002460096C99EF997C99FF998C9A0F999C9A1F9C4
:1002560014D0090E006E96C99EF997C99FF998C9E0
:10026600A0F999C9A1F9005008E009019E379E91AD
:100276009F37A037A137FF0FF7D70901110EA46FDB
:100286009EC9A5F99FC9A6F9A0C9A7F9A1C9A8F948
:10029600FF0EA96FEBDE005204E0DBDE010E006EFE
:1002A6004BD09CC5E1FF9DC5E2FFFF0EE66E9AC5E9
:1002B60000F09BC501F0C1DE0050FE0A01E0F1D757
:1002C60009019C6B9D6B020E9D5D02E1000E9C5D1B
:1002D6001BE29C519A25A26F9D519B21A36F9CC541
:1002E600E1FF9DC5E2FFFF0EE66E9AC500F09BC5D5
:1002F60001F0A3DEA2C9E1FFA3C9E2FF00C0E6FF49
:1003060009019C4B9D2BDFD79CC5E1FF9DC5E2FFF4
:10031600FF0EE66E9AC500F09BC501F08EDE9CC509
:10032600E1FF9DC5E2FFFF0EE66E9AC500F09BC594
:0A03360001F083DE8EDE006A120083
:1003400003DF0050000A03E0FF0E006E01D0006AD8
:02035000120099
:1003520007013C51000A04E03C51020A01E002D0CC
:10036200006A0DD0ECDF000E001806E0FF0E02015D
:10037200C36FFF0E006E03D007013C6B006A1200D0
:1003820090C996F991C997F992C998F993C999F9BF
:1003920094C99AF995C99BF94DDF0050000A03E010
:0A03A200FF0E006E01D0006A120089
:1003AC0007013C51030A20E1CEDF0050000A06E0B1
:1003BC00FF0E0201C36FFF0E006E5CD00201C7512D
:1003CC0009018F190EE10201C65109018E1909E1CB
:1003DC000201C55109018D1904E10201C451090141
:1003EC008C1902E1006A46D007013C51010A06E172
:1003FC00FF0E0201C36FFF0E006E3CD009018F513E
:10040C000201C7190EE109018E510201C61909E159
:10041C0009018D510201C51904E109018C51020138
:10042C00C41927E08CC990F98DC991F98EC992F93C
:10043C008FC993F9C80E0901946F020E956F9BDF5B
:10044C00000E00180EE0FF0E0201C46FFF0EC56F08
:10045C00FF0EC66FFF0EC76FFF0EC36FFF0E006E51
:10046C0009D08CC9C4F28DC9C5F28EC9C6F28FC928
:06047C00C7F2006A120045
:10048200090188517A0806E3610E885D03E3010ED3
:08049200006E01D0006A1200A7
:10049A00026A110E025C17E2E00E0224F66E850E65
:1004AA00F76E000EF722000EF86E000EF822090011
:1004BA00F5CF01F001500901881903E1010E006E20
:0A04CA0003D0022AE6D7006A1200F0
:1004D4009CC5E1FF9DC5E2FFFF0EE66E9AC500F0E4
:1004E4009BC501F0ABDD0050FE0A01E0F1D712001C
:1004F40088C905F089C906F08AC907F08BC908F0D4
:100504000401EA51055EEB51065AEC51075AED51CC
:10051400085A00C504F005C000F006C001F007C089
:1005240002F008C003F0045007E0003600900136E2
:1005340002360336FF0FF8D7F0510026F15101229D
:0A054400F2510222F35103221200CB
:10054E0009018851390806E3300E885D03E3010E78
:08055E00006E01D0006A1200DA
:10056600090188515A0806E3410E885D03E3010E2E
:08057600006E01D0006A1200C2
:10057E000401ED5109018B5D0EE10401EC510901FD
:10058E008A5D09E10401EB510901895D04E1040171
:10059E00EA510901885D15E30501045109018B5DDE
:1005AE000EE10501035109018A5D09E105010251C0
:1005BE000901895D04E1050101510901885D01E22E
:1005CE000CD0F40E0201C36FFF0E006EFF0E016E13
:1005DE00FF0E026E0F0E036E64D0C5C600F088C902
:1005EE008CF989C98DF98AC98EF98BC98FF900509A
:1005FE0008E009018F338E338D338C338F9FFF0FBD
:10060E00F7D70401E65109018C270401E7510901CE
:10061E008D230401E85109018E230401E9510901DA
:10062E008F23BDDE0050000A09E0FF0E006EFF0EA4
:10063E00016EFF0E026E0F0E036E33D0C6C600F0B3
:10064E00C7C601F0C8C602F0C9C603F0010E005EAF
:10065E00000E015A025A035A005009018815046E01
:10066E0001508915056E02508A15066E03508B15C2
:10067E00076E04C000F005C001F000360090013690
:10068E00003600900136C80E0024E96E020E0120DD
:10069E00EA6EEECF00F0EECF01F0EECF02F0EECF2D
:0406AE0003F0120043
:1006B20048DD000E000A03E1040E0001EB1909E116
:1006C20071C975F972C976F973C977F974C978F97C
:1006D20014D0090E006E71C975F972C976F973C921
:1006E20077F974C978F9005008E0090175377591F6
:1006F200763777377837FF0FF7D70901120EA46FD5
:1007020075C9A5F976C9A6F977C9A7F978C9A8F96B
:10071200FF0EA96FADDC005204E09DDC010E006EFD
:0607220001D0006A120084
:10072800D5DE0901736B746B020E745D02E1000E75
:10073800735D1BE273517125756F74517221766F69
:100748009CC5E1FF9DC5E2FFFF0EE66E9AC500F06D
:100758009BC501F071DC75C9E1FF76C9E2FF00C0F5
:10076800E6FF0901734B742BDFD79CC5E1FF9DC5DC
:10077800E2FFFF0EE66E9AC500F09BC501F05CDC57
:100788009CC5E1FF9DC5E2FFFF0EE66E9AC500F02D
:080798009BC501F051DC1200C9
:1007A00073C904F074C905F071C902F072C903F08D
:1007B00075C900F076C901F0010E0901755F000EE0
:1007C000765B005001100FE004C0E9FF05C0EAFFAE
:1007D00002C0E1FF03C0E2FFEECFE6FF024A032AB8
:1007E000044A052AE5D771C900F072C901F0120068
:1007F000090171515A0804E3410E715DD8B0718B43
:0608000071C900F01200B6
:1008060071C988F9A1DE005211E171C988F9A8DE23
:1008160000520CE171C988F931DE005207E171C955
:1008260088F938DE005202E1006A02D0010E006E3D
:020836001200AE
:10083800C4C283F9C5C284F9C6C285F9C7C286F99C
:1008480071C97BF972C97CF973C97DF974C97EF9DC
:100858000401ED510901745D0EE10401EC51090137
:10086800735D09E10401EB510901725D04E10401C2
:10087800EA510901715D15E30501045109017E5D25
:100888000EE10501035109017D5D09E105010251F0
:1008980009017C5D04E10501015109017B5D01E26B
:1008A80006D0F40E0201C36FFF0E006ECED0090110
:1008B800876B85C500F075C901F076C902F077C964
:1008C80003F078C904F0005007E004320332023222
:1008D8000132049EFF0FF8D70450000809E10350C5
:1008E800000806E10250000803E109010150875D94
:1008F80055E27BC988F97CC989F97DC98AF97EC91D
:100908008BF939DE00C07BF901C07CF902C07DF9A2
:1009180003C07EF903500F0A08E10250FF0A05E1FF
:100928000150FF0A02E10050FF0A06E1F10E020140
:10093800C36FFF0E006E89D00401ED5109017E5D81
:100948000EE10401EC5109017D5D09E10401EB515F
:1009580009017C5D04E10401EA5109017B5D15E3AD
:100968000501045109017E5D0EE1050103510901EC
:100978007D5D09E10501025109017C5D04E1050184
:10098800015109017B5D01E206D0F40E0201C36F3B
:10099800FF0E006E5AD00901872B8BD70901C8C4F6
:1009A80000F0C9C401F0CAC402F0CBC403F0010EC0
:1009B800005E000E015A025A035A005075157F6FE7
:1009C80001507615806F02507715816F03507815A6
:1009D800826F7BC988F97CC989F97DC98AF97EC982
:1009E8008BF984DD86C508F07FC904F080C905F05D
:1009F80081C906F082C907F0085007E007320632BD
:100A080005320432079EFF0FF8D779C9E1FF7AC98A
:100A1800E2FF04500024E66E05500120E66E065001
:100A28000220E66E07500320E66E83C98CF984C95C
:100A38008DF985C98EF986C98FF9B4DC0050000A92
:0C0A480003E0FF0E006E01D0006A1200F7
:100A5400010E09015D25E96E000E5E21EA6E5FC993
:100A6400E1FF60C9E2FFEECFE6FF010E5F25E16E14
:100A7400000E6021E26E030E5D25E96E000E5E211C
:100A8400EA6EEECFE6FF020E5F25E16E000E6021F6
:100A9400E26E050E5D25E96E000E5E21EA6EEECF74
:100AA400E6FF030E5F25E16E000E6021E26E070E85
:100AB4005D25E96E000E5E21EA6EEECFE6FF040EC0
:100AC4005F25E16E000E6021E26E090E5D25E96E80
:100AD400000E5E21EA6EEECFE6FF050E5F25E16EA5
:100AE400000E6021E26E0E0E5D25E96E000E5E21A1
:100AF400EA6EEECFE6FF060E5F25E16E000E602182
:100B0400E26E100E5D25E96E000E5E21EA6EEECFF8
:100B1400E6FF070E5F25E16E000E6021E26E120E05
:100B24005D25E96E000E5E21EA6EEECFE6FF080E4B
:100B34005F25E16E000E6021E26E140E5D25E96E04
:100B4400000E5E21EA6EEECFE6FF090E5F25E16E30
:100B5400000E6021E26E160E5D25E96E000E5E2128
:100B6400EA6EEECFE6FF0A0E5F25E16E000E60210D
:100B7400E26E180E5D25E96E000E5E21EA6EEECF80
:100B8400E6FF0B0E5F25E16E000E6021E26E1C0E87
:100B94005D25E96E000E5E21EA6EEECFE6FF0C0ED7
:100BA4005F25E16E000E6021E26E1E0E5D25E96E8A
:0E0BB400000E5E21EA6EEECFE6FF006A120030
:100BC2000B6A0A6A096A00500402F4CF09F0F3CFF3
:100BD20008F001500502F4CF0BF0F3CF0AF00050F9
:100BE2000502F3500926F4500A22E86A0B2201504A
:100BF2000402F3500926F4500A22E86A0B2208C0C4
:100C020000F009C001F00AC002F00BC003F01200AC
:0E0C12005DC971F95EC972F986DD006A1200D3
:100C2000056A046A0B0E055C22E2010E0414016ED3
:100C3000070E006E01C003F0005004E0033603907D
:100C4000FF0FFBD7FE0E0414026E02C000F000324C
:100C5000009E00500310046E055009015D25D96EF9
:100C6000000E5E21DA6EDE500426052ADBD704C0B2
:040C700000F012007E
:100C74005DC971F95EC972F95FC973F960C974F924
:100C840061C975F962C976F963C977F964C978F9F4
:100C940065C979F966C97AF9CDDD0050000A03E027
:100CA400FF0E006E15D065C9E9FF66C9EAFFEECFF5
:100CB4008CF9EECF8DF9EECF8EF9EECF8FF9D6EC1D
:100CC40001F00050000A03E0FF0E006E01D0006A3C
:020CD40012000C
:100CD600A2EC00F0000E000A03E1040E0001EB197D
:100CE60009E15DC965F95EC966F95FC967F960C959
:100CF60068F914D0090E006E5DC965F95EC966F91A
:100D06005FC967F960C968F9005008E009016537ED
:100D16006591663767376837FF0FF7D70901180EF1
:100D2600A46F65C9A5F966C9A6F967C9A7F968C90F
:100D3600A8F9FF0EA96F39EC00F0005205E02CEC83
:100D460000F0010E006E95D09CC5E1FF9DC5E2FF47
:100D5600FF0EE66E9AC500F09BC501F020EC00F090
:100D66009CC5E1FF9DC5E2FFFF0EE66E9AC500F049
:100D76009BC501F020EC00F09CC5E1FF9DC5E2FF9C
:100D8600FE0EE66E9AC500F09BC501F020EC00F061
:100D96000901636B646B6451010802E16351FF084A
:100DA60016E363516125E96E64516221EA6E9CC5C2
:100DB600E1FF9DC5E2FFEECFE6FF9AC500F09BC5B9
:100DC60001F020EC00F00901634B642BE4D79CC5CD
:100DD600E1FF9DC5E2FFFF0EE66E9AC500F09BC5DA
:100DE60001F020EC00F09CC5E1FF9DC5E2FFFF0E7F
:100DF600E66E9AC500F09BC501F020EC00F09CC59C
:100E0600E1FF9DC5E2FFFF0EE66E9AC500F09BC5A9
:100E160001F020EC00F000C063F9000E0901646FD8
:100E26001F0E6315016E64C902F0000E021601C0A2
:100E360063F902C064F9000E021802E1050E0118FA
:100E460005E02CEC00F0020E006E13D09CC5E1FF0D
:100E56009DC5E2FFFF0EE66E9AC500F09BC501F048
:100E660020EC00F00050FF0A01E0F0D72CEC00F077
:040E7600006A1200FC
:100E7A00640E0901716F090E726F5DC973F95EC95B
:100E8A0074F90B0E756F000E766F85DC616B0B0EB5
:100E9A00615D3EE2636B640EE96E090EEA6E6151B2
:100EAA00E926D8B0EA2AEECF71F9A8DC0050010A87
:100EBA0003E1010E0901636F0901640EE96E090E6F
:100ECA00EA6E6151E926D8B0EA2AEE50200A02E118
:100EDA00010E636F640EE96E090EEA6E6151E9262E
:100EEA00D8B0EA2AEE502E0A02E1010E636F63516E
:100EFA00000A0BE15FC9E1FF60C9E2FFE66AC40EBE
:100F0A000201C36FFF0E006EB3D00901612BBFD778
:100F1A00626B616B080E615D42E2640EE96E090E56
:100F2A00EA6E6151E926D8B0EA2AEE50200A33E087
:100F3A000C0E5D25E96E000E5E21EA6EEECF01F021
:100F4A0001A618D062515F256F6F000E6021706F85
:100F5A00640EE96E090EEA6E6151E926D8B0EA2AF2
:100F6A00EECF71F940DC6FC9E1FF70C9E2FF00C042
:100F7A00E6FF10D062515F25E16E000E6021E26E3D
:100F8A00640EE96E090EEA6E6151E926D8B0EA2AC2
:100F9A00EECFE6FF01D003D0622B612BBBD76C5199
:100FAA00200A09E162515F25E16E000E6021E26EBE
:100FBA00E66A006A5DD062515F25E16E000E60212B
:100FCA00E26E2E0EE66E622B080E616F0B0E615DED
:100FDA0046E2640EE96E090EEA6E6151E926D8B05E
:100FEA00EA2AEECF71F90ADC0050000A01E137D093
:100FFA000C0E09015D25E96E000E5E21EA6EEECF48
:10100A0001F001A819D062515F256F6F000E6021AF
:10101A00706F640EE96E090EEA6E6151E926D8B066
:10102A00EA2AEECF71F9F8EC03F06FC9E1FF70C953
:10103A00E2FF00C0E6FF10D062515F25E16E000EAC
:10104A006021E26E640EE96E090EEA6E6151E926CC
:10105A00D8B0EA2AEECFE6FF622B612BB7D7090197
:10106A0062515F25E16E000E6021E26EE66A006A57
:02107A00120062
:10107C005DC971F95EC972F95FC973F960C974F918
:10108C0059EC03F00050000A03E0FF0E006E01D093
:04109C00006A1200D4
:1010A00007013C51030A0BE1A9EC01F00050000AD2
:1010B00006E0FF0E0201C36FFF0E006E50D0070165
:1010C0003C51010A06E1FF0E0201C36FFF0E006EE4
:1010D00046D00201C75109011E190EE10201C65195
:1010E00009011D1909E10201C55109011C1904E199
:1010F0000201C45109011B1905E1020E07013C6FF1
:10110000006A2DD01BC95DF91CC95EF91DC95FF9C4
:101110001EC960F9B3DF0050000A06E0FF0E0201AD
:10112000C36FFF0E006E1BD0C80E09015D6F020E6B
:101130005E6F6FDD0050000A06E0FF0E0201C36F14
:10114000FF0E006E0CD0010E07013C6F1BC9C4F2EC
:101150001CC9C5F21DC9C6F21EC9C7F2006A120039
:10116000026A080E025C17E2120E0224F66E860E68
:10117000F76E000EF722000EF86E000EF82209003E
:10118000F5CF01F0015009011B1903E1010E006EBA
:0A11900003D0022AE6D7006A12001D
:10119A001BC95DF91CC95EF91DC95FF91EC960F951
:1011AA001FC961F920C962F991DD0050000A03E004
:0A11BA00FF0E006E01D0006A120063
:1011C4001BC902F01CC903F01EC900F01FC901F0BD
:1011D400010E09011E5F000E1F5B0050011009E0A3
:1011E40002C0E1FF03C0E2FF1DC9E6FF024A032A71
:0C11F400EBD71BC900F01CC901F0120071
:101200001DC95DF91EC95EF91FC95FF920C960F9E2
:1012100021C961F922C962F923C963F924C964F9B2
:10122000590E0901656F090E666F24DD0050000A32
:1012300003E0FF0E006E9CD138C700F039C701F003
:101240003AC702F03BC703F0010E005E000E015AE0
:10125000025A035A005009012115046E015022154B
:10126000056E02502315066E03502415076E050EF9
:10127000026E04C000F005C001F0025005E0003627
:1012800000900136FF0FFAD70901C80E0024576FEE
:10129000020E0120586F010E256F080E255D0CE22D
:1012A00025515725E96E000E5821EA6EEE507E0A50
:1012B00001E102D0252BF1D72551080A0AE157C9CF
:1012C0005DF958C95EF91BC95FF91CC960F9D5DD24
:1012D0004FD1370E0901716F090E726F57C973F93B
:1012E00058C974F9200E756F000E766FD0EC03F0BC
:1012F0001DC95DF91EC95EF91FC95FF920C960F9F2
:10130000010E215F000E225B235B245B21C961F982
:1013100022C962F923C963F924C964F9590E656FBA
:10132000090E666FA7DC0050000A03E0FF0E006E96
:101330001FD138C700F039C701F03AC702F03BC7E8
:1013400003F0010E005E000E015A025A035A0050CB
:1013500009012115046E01502215056E0250231556
:10136000066E03502415076E050E026E04C000F0D1
:1013700005C001F0025005E0003600900136FF0F75
:10138000FAD7C80E0026020E012200C035F901C0AE
:1013900036F90B0E0024E96E000E0120EA6E3F0EB6
:1013A000EE14016E01500F0A0BE00901370E5D6F5C
:1013B000090E5E6F1BC95FF91CC960F95EDDD8D0EC
:1013C000370E09015D6F090E5E6F2ADC00C027F938
:1013D000010E0901266F0B0E3525E96E000E362130
:1013E000EA6E3F0EEE14016E01500F0A06E0C00EC9
:1013F0000201C36FFF0E006EBBD00D0E0901352533
:10140000E96E000E3621EA6EEE50271906E0C10E95
:101410000201C36FFF0E006EABD035C9E9FF36C9BC
:10142000EAFFEECF00F01F0E0014016E015009011B
:10143000261906E0C20E0201C36FFF0E006E98D09F
:1014400035C95DF936C95EF9280E09015F6F090ECD
:10145000606F2AEC05F0256B2605006E016A000E10
:10146000015A0D0E046E000E056EE1EC05F02551DB
:101470000026000E012200501B25E16E01501C21A8
:10148000E26E280EE96E090EEA6E2551E926D8B003
:10149000EA2AEECFE6FF252B0D0E255D0CE2280E85
:1014A000E96E090EEA6E2551E926D8B0EA2AEE5017
:1014B000000A01E0D1D735C9E9FF36C9EAFFEECF0E
:1014C00001F001AC02D0006A53D0262B1DC95DF992
:1014D0001EC95EF91FC95FF920C960F9010E215FBD
:1014E000000E225B235B245B21C961F922C962F9EA
:1014F00023C963F924C964F9590E656F090E666F33
:101500003AEC06F00050000A03E0FF0E006E30D007
:1015100038C700F039C701F03AC702F03BC703F003
:10152000010E005E000E015A025A035A00500901D2
:101530002115046E01502215056E02502315066E0A
:1015400003502415076E050E026E04C000F005C09E
:1015500001F0025005E0003600900136FF0FFAD787
:101560000901C80E0024356F020E0120366F33D7F3
:02157000120067
:0E1572001BC9E9FF1CC9EAFFEECF00F0120012
:10158000010E09011B25E96E000E1C21EA6EEECF4B
:1015900003F0000E046E000E046E03C001F0006A3A
:1015A00000C003F001C004F01BC9D9FF1CC9DAFF59
:1015B000DE500026000E012200C003F001C004F03E
:0A15C00000C003F001C004F01200A7
:1015CA00030E09011B25E96E000E1C21EA6EEECFFF
:1015DA0009F0000E0A6E0B6E0C6E000E0A6E0B6E90
:1015EA000C6E0BC003F00AC002F009C001F0006AD9
:1015FA0000C009F001C00AF002C00BF003C00CF0F1
:10160A00020E1B25D96E000E1C21DA6EDE50002454
:10161A00056E000E0120066E000E0220076E000EF7
:10162A000320086E05C009F006C00AF007C00BF0D7
:10163A0008C00CF007C003F006C002F005C001F0B4
:10164A00006A00C009F001C00AF002C00BF003C032
:10165A000CF0010E1B25D96E000E1C21DA6EDE502D
:10166A000024056E000E0120066E000E0220076E91
:10167A00000E0320086E05C009F006C00AF007C074
:10168A000BF008C00CF007C003F006C002F005C05A
:10169A0001F0006A00C009F001C00AF002C00BF0B4
:1016AA0003C00CF01BC9D9FF1CC9DAFFDE500026A3
:1016BA00000E01220222032200C009F001C00AF032
:1016CA0002C00BF003C00CF000C009F001C00AF020
:0A16DA0002C00BF003C00CF0120078
:1016E40009018C6B8D6B8E6B8F6BD6EC01F0005007
:1016F400000A03E0FF0E006E27D1C80E0901096F2E
:10170400020E0A6FC80E0B6F020E0C6FFE0E092537
:101714001B6F010E0A211C6F31DF0150AA0A02E17E
:10172400550E001806E0FC0E0201C36FFF0E006E9A
:101734000BD10BC9E9FF0CC9EAFFEECF01F0015050
:10174400E90A15E00BC9E9FF0CC9EAFFEECF01F085
:101754000150EB0A0BE1020E09010B25E96E000EA4
:101764000C21EA6EEE50900A01E101D006D0FB0E86
:101774000201C36FFF0E006EE7D00901006B010E7A
:10178400005DD8B0E0D00A0E006E000E016E00C9F4
:1017940004F0000E056EE1EC05F0D00E0026040EF8
:1017A400012200C00DF901C00EF9BE0E09251B6F00
:1017B400010E0A211C6F040E026E00C900F0000E17
:1017C400016E025005E0003600900136FF0FFAD793
:1017D40000501B2701501C23CADE0DC9E1FF0EC9AE
:1017E400E2FF00C0E6FF0A0E006E000E016E00C9A3
:1017F40004F0000E056EE1EC05F0D00E0026040E98
:101804000122010E00240D6F000E01200E6FBE0E8A
:1018140009251B6F010E0A211C6F040E026E00C9FC
:1018240000F0000E016E025005E000360090013613
:10183400FF0FFAD700501B2701501C23040E1B274F
:10184400000E1C2394DE0DC9E1FF0EC9E2FF00C0A7
:10185400E6FF0A0E006E000E016E00C904F0000ED1
:10186400056EE1EC05F0D00E0026040E0122020EF6
:1018740000240D6F000E01200E6FBE0E09251B6F94
:10188400010E0A211C6F040E026E00C900F0000E46
:10189400016E025005E0003600900136FF0FFAD7C2
:1018A40000501B2701501C23080E1B27000E1C236D
:1018B4008ADE0DC9E1FF0EC9E2FF00C0E6FF01C0E8
:1018C400E6FF02C0E6FF03C0E6FF0A0E006E000E4C
:1018D400016E00C904F0000E056EE1EC05F0D00EB7
:1018E4000026040E0122060E00240D6F000E0120B6
:1018F4000E6FBE0E09251B6F010E0A211C6F040E0C
:10190400026E00C900F0000E016E025005E00036C0
:1019140000900136FF0FFAD700501B2701501C23FB
:101924000C0E1B27000E1C234EDE0DC9E1FF0EC951
:10193400E2FF00C0E6FF01C0E6FF02C0E6FF03C00D
:0A194400E6FF002B1CD7006A12001A
:10194E00010E066E000E076E086E096E056A800E99
:10195E00006E800E000A005C02E1200E055C23E2A0
:10196E00065009010911016E07500A11026E085046
:10197E000B11036E09500C11046E0450091808E186
:10198E000350081805E10250071802E1015006182D
:10199E0003E105C000F009D006360690073608367A
:0C19AE000936052AD4D7FF0E006E120087
:1019BA0007013C51030A0BE1A9EC01F00050000AAF
:1019CA0006E0FF0E0201C36FFF0E006E33D007015F
:1019DA003C51010A06E1FE0E0201C36FFF0E006EC2
:1019EA0029D009C91BF90AC91CF90BC91DF90CC967
:1019FA001EF9C80E09011F6F020E206FCDEC08F008
:101A0A00000E00180EE0FF0E0201C46FFF0EC56F34
:101A1A00FF0EC66FFF0EC76FFE0EC36FFF0E006E7E
:101A2A0009D009C9C4F20AC9C5F20BC9C6F20CC960
:061A3A00C7F2006A120071
:101A40000E0E090109251B6F000E0A211C6F98DD7F
:101A50000B0E046E00C002F001C003F0045005E05C
:101A600003320232039EFF0FFAD71F0E0214006EDC
:101A700000C0BBF60E0E09251B6F000E0A211C6F5D
:101A80007FDD050E046E00C002F001C003F00450BB
:101A900005E003320232039EFF0FFAD73F0E021415
:101AA000006E00C0BCF60E0E09251B6F000E0A2149
:101AB0001C6F66DD00C002F0023602903F0E021479
:101AC000006E00C0BDF6100E09251B6F000E0A2126
:101AD0001C6F56DD090E046E00C002F001C003F059
:101AE000045005E003320232039EFF0FFAD77F0E47
:101AF0000214006E03C001F0000E011600C0B7F61C
:101B000001C0B8F6BC0E0026070E012200C0B7F6D1
:101B100001C0B8F6100E09251B6F000E0A211C6FBC
:101B20002FDD050E046E00C002F001C003F004506A
:101B300005E003320232039EFF0FFAD70F0E0214A4
:101B4000006E00C0B9F6100E09251B6F000E0A21A9
:101B50001C6F16DD1F0E0014006E00C0BAF6006A7E
:021B6000120071
:101B6200FF0E09010B25156F000E0C21166F0B0ECF
:101B720009251B6F000E0A211C6FFADC15C9E1FF53
:101B820016C9E2FF00C0E6FF000E0B25156F010E1D
:101B92000C21166F1C0E09251B6F000E0A211C6FEB
:101BA20013DD15C9E1FF16C9E2FF00C0E6FF01C05F
:101BB200E6FF02C0E6FF03C0E6FF040E0B25196F25
:101BC200010E0C211A6F140E09251B6F000E0A213B
:101BD2001C6FD5DC00C003F001C004F0000E056EDE
:101BE200066E04C018F903C017F9156B166B1A0EAE
:101BF20009251B6F000E0A211C6FC1DC000E026E4C
:101C0200036E155100261651012217510222185156
:101C1200032219C9E1FF1AC9E2FF00C0E6FF01C0B1
:101C2200E6FF02C0E6FF03C0E6FF0B0E0925E96EE0
:101C3200000E0A21EA6E3F0EEE14016E01500F0AE9
:101C420028E00BC91BF90CC91CF91D6BFF0E1E6F96
:101C5200000E1F6FE2EC08F00BC91BF90CC91CF94E
:101C62000DC91DF90EC91EF90FC91FF910C920F9B6
:101C720011C921F912C922F913C923F914C924F986
:101C820000EC09F00050000A03E0FF0E006E07D0DE
:101C920005D00BC9E1FF0CC9E2FFE66A006A120037
:101CA2000901096B0A6B270E0A5D02E1100E095D3C
:101CB200D8B0B0D0000E000A02E1000E001919E1FE
:101CC200A2EC00F0010EA46FA56BA66BA76BA86B2C
:101CD200FF0EA96F39EC00F000C00BF92CEC00F0FC
:101CE20009010B51000A04E10001EB6B006A94D078
:101CF2008DD0A2EC00F0370E0901A46FA56BA66B84
:101D0200A76BA86BFF0EA96F39EC00F000C00BF9AE
:101D12002CEC00F009010B51010AD8A476D0A2ECF8
:101D220000F0290EA46F000EA56F000EA66F000E24
:101D3200A76F400EA86FFF0EA96F39EC00F000C02C
:101D42000BF92CEC00F009010B51000A5DE1000EC9
:101D5200000A02E1020E001952E1A2EC00F03A0E72
:101D6200A46FA56BA66BA76BA86BFF0EA96F39ECCE
:101D720000F000C00BF99CC5E1FF9DC5E2FFFF0E1C
:101D8200E66E9AC500F09BC501F020EC00F000C0A1
:101D92000CF99CC5E1FF9DC5E2FFFF0EE66E9AC5F8
:101DA20000F09BC501F020EC00F09CC5E1FF9DC551
:101DB200E2FFFF0EE66E9AC500F09BC501F020EC33
:101DC20000F09CC5E1FF9DC5E2FFFF0EE66E9AC5DD
:101DD20000F09BC501F020EC00F02CEC00F00901B2
:101DE2000B51000A0BE10CAD04D0040E0001EB6FA5
:101DF20003D00001030EEB6F006A0ED005D0000184
:101E0200010EEB6F006A08D001D004D00901094B22
:0A1E12000A2B49D7010E006E1200E2
:101E1C000134083609360450085E0550D8A0053C3C
:101E2C00095E003601360F0E0C6E01340836093689
:101E3C00045000A006D0085E0550D8A0053C095EF1
:101E4C0005D008260550D8B0053C092600360136C9
:101E5C000C2EEBD700B006D0045008260550D8B095
:081E6C00053C092600001200EC
:101E74000DC901F00EC902F0010E09010D5F000E3B
:101E84000E5B000E021802E1000E01181FE009C9E2
:101E9400E9FF0AC9EAFF0BC9D9FF0CC9DAFFEE5002
:101EA400DE180FE009C9E9FF0AC9EAFF0BC9D9FF27
:101EB4000CC9DAFFDE50EE5C006E016A000E015AB6
:101EC40007D0094B0A2B0B4B0C2BD2D7006A016AA3
:021ED4001200FA
:101ED60000C971F903EC04F0005208E100C91BF9CE
:101EE600B0EC08F0005202E1006A02D0010E006E6A
:021EF6001200D8
:101EF8000B1E0A1E091E081E082AD8B4092AD8B4BF
:081F08000A2AD8B40B2A1200CA
:101F1000090100517A0804E3610E005DD8B0009B0E
:061F200000C900F01200F0
:101F260009C902F00AC903F002C000F003C001F0BB
:101F3600024A032A00C0E9FF01C0EAFFEE5201E0AF
:101F4600F3D709010951025C006E0A510358016E6C
:0A1F5600010E005E000E015A120099
:101F60000450085E0550D8A0053C095E0650D8A074
:101F7000063C0A5E0750D8A0073C0B5E0336070EEE
:101F80000C6E0334083609360A360B36045003A0AB
:101F90000ED0085E0550D8A0053C095E0650D8A0BA
:101FA000063C0A5E0750D8A0073C0B5E0DD0082601
:101FB0000550D8B0053C09260650D8B0063C0A2684
:101FC0000750D8B0073C0B2603360C2EDAD7023464
:101FD000083609360A360B36045003A00ED0085EC8
:101FE0000550D8A0053C095E0650D8A0063C0A5E04
:101FF0000750D8A0073C0B5E0DD008260550D8B07E
:10200000053C09260650D8B0063C0A260750D8B031
:10201000073C0B260236070E0C6E023408360936D2
:102020000A360B36045002A00ED0085E0550D8A028
:10203000053C095E0650D8A0063C0A5E0750D8A0B1
:10204000073C0B5E0DD008260550D8B0053C09268C
:102050000650D8B0063C0A260750D8B0073C0B26DD
:1020600002360C2EDAD70134083609360A360B361A
:10207000045002A00ED0085E0550D8A0053C095EB1
:102080000650D8A0063C0A5E0750D8A0073C0B5E5D
:102090000DD008260550D8B0053C09260650D8B00A
:1020A000063C0A260750D8B0073C0B260136070E1F
:1020B0000C6E0134083609360A360B36045001A07E
:1020C0000ED0085E0550D8A0053C095E0650D8A089
:1020D000063C0A5E0750D8A0073C0B5E0DD00826D0
:1020E0000550D8B0053C09260650D8B0063C0A2653
:1020F0000750D8B0073C0B2601360C2EDAD7003437
:10210000083609360A360B36045001A00ED0085E98
:102110000550D8A0053C095E0650D8A0063C0A5ED2
:102120000750D8A0073C0B5E0DD008260550D8B04C
:10213000053C09260650D8B0063C0A260750D8B000
:10214000073C0B260036070E0C6E003408360936A5
:102150000A360B36045000A00ED0085E0550D8A0F9
:10216000053C095E0650D8A0063C0A5E0750D8A080
:10217000073C0B5E0DD008260550D8B0053C09265B
:102180000650D8B0063C0A260750D8B0073C0B26AC
:1021900000360C2EDAD700B00ED0045008260550B9
:1021A000D8B0053C09260650D8B0063C0A26075090
:0821B000D8B0073C0B26120019
:1021B800160E090109251B6F000E0A211C6FC0ECC1
:1021C8000AF00B0E046E00C002F001C003F00450C8
:1021D80005E003320232039EFF0FFAD71F0E0214E6
:1021E800006E00C0C2F6160E09251B6F000E0A21EC
:1021F8001C6FC0EC0AF0050E046E00C002F001C0AE
:1022080003F0045005E003320232039EFF0FFAD7B1
:102218003F0E0214006E00C0C3F6160E09251B6F90
:10222800000E0A211C6FC0EC0AF000C002F0023652
:1022380002903F0E0214006E00C0C4F6180E092565
:102248001B6F000E0A211C6FC0EC0AF0090E046E09
:1022580000C002F001C003F0045005E0033202326E
:10226800039EFF0FFAD77F0E0214006E03C001F021
:10227800000E011600C0BEF601C0BFF6BC0E002657
:10228800070E012200C0BEF601C0BFF6180E0925D0
:102298001B6F000E0A211C6FC0EC0AF0050E046EBD
:1022A80000C002F001C003F0045005E0033202321E
:1022B800039EFF0FFAD70F0E0214006E00C0C0F67F
:1022C800180E09251B6F000E0A211C6FC0EC0AF0BE
:0E22D8001F0E0014006E00C0C1F6006A120056
:1022E60007013C51020A17E1010E0201C42509014A
:1022F6001B6F000E0201C52109011C6F000E0201B1
:10230600C62109011D6F000E0201C72109011E6FBA
:1023160050EC08F030D007013C51000A06E1FF0EF0
:102326000201C36FFF0E006E26D0C80E09015D6F55
:10233600020E5E6F09EC06F00050000A06E0FF0E82
:102346000201C36FFF0E006E16D00201010EC425F6
:10235600006E000EC521016E000EC621026E000E33
:10236600C721036E00C0C4F201C0C5F202C0C6F2A6
:0823760003C0C7F2006A120067
:10237E00050E0001EB6F95982CEC00F00801E76B51
:10238E00E86B000EE85D02E10A0EE75D10E29CC507
:10239E00E1FF9DC5E2FFFF0EE66E9AC500F09BC5FC
:1023AE0001F020EC00F00801E74BE82BEAD7A2EC95
:1023BE0000F00901A46BA56BA66BA76BA86B950E1D
:1023CE00A96F39EC00F000C0E9F82CEC00F0080120
:1023DE00E951010A03E0010E006E83D0A2EC00F079
:1023EE00080E0901A46FAA0EA56F010EA66F000EAE
:1023FE00A76FA86F870EA96F39EC00F000C0E9F83F
:10240E009CC5E1FF9DC5E2FFFF0EE66E9AC500F08A
:10241E009BC501F020EC00F09CC5E1FF9DC5E2FFDD
:10242E00FF0EE66E9AC500F09BC501F020EC00F0A1
:10243E009CC5E1FF9DC5E2FFFF0EE66E9AC500F05A
:10244E009BC501F020EC00F09CC5E1FF9DC5E2FFAD
:10245E00FF0EE66E9AC500F09BC501F020EC00F071
:10246E002CEC00F00801E951010A0AE0010E090105
:10247E00006F10DC005203E00901006B0BDC04D08E
:10248E00020E0901006F06DC000E000A03E1050EC4
:10249E000001EB1903E1020E006E23D0000E000ABC
:1024AE0003E10001040EEB191BE0A2EC00F0100E8C
:1024BE000901A46F000EA56F020EA66F000EA76F86
:1024CE00A86FFF0EA96F39EC00F000C0E9F82CECF4
:1024DE0000F00801E951000A03E0030E006E01D07E
:0424EE00006A12006E
:1024F200FCC4E7F8FDC4E8F8FEC4E9F8FFC4EAF852
:102502000401ED51FF5D08E1EC51FE5D05E1EB5187
:10251200FD5D02E1EA51FC5D15E30501045108018C
:10252200EA5D0EE1050103510801E95D09E10501DA
:1025320002510801E85D04E1050101510801E75D6E
:1025420001E208D0EAC4E7F8EBC4E8F8ECC4E9F821
:10255200EDC4EAF8E7C8EBF8E8C8ECF8E9C8EDF82A
:10256200EAC8EEF8C5C604F0E7C800F0E8C801F012
:10257200E9C802F0EAC803F0045007E0033202326D
:1025820001320032039EFF0FF8D700500401E62506
:1025920009011B6F01500401E72109011C6F025060
:1025A2000401E82109011D6F03500401E921090119
:1025B2001E6FC6C600F0C7C601F0C8C602F0C9C683
:1025C20003F0010E005E000E015A025A035A005037
:1025D2000801E715046E0150E815056E0250E91571
:1025E200066E0350EA15076E04C000F005C001F044
:1025F200003600900136003600900136C80E0024E5
:10260200EF6F020E0120F06F50EC08F00050000A4C
:1026120009E0FF0E006EFF0E016EFF0E026E0F0E3E
:10262200036E6ED10801F16BEFC8E9FFF0C8EAFF53
:10263200EECF01F0EECF02F0EECF03F0EECF04F0DA
:102642000450000A08E10350000A05E10250000AA2
:1026520002E10150000A04E10801010EF16FC1D04C
:102662000801040EEF27000EF023010EE727000EEB
:10267200E823E923EA23050104510801EA5D0EE19A
:10268200050103510801E95D09E105010251080153
:10269200E85D04E1050101510801E75DD8A077D0AA
:1026A200EAC4E7F8EBC4E8F8ECC4E9F8EDC4EAF8E8
:1026B200A9EC01F00050000A09E0FF0E006EFF0EC7
:1026C200016EFF0E026E0F0E036E1AD1C5C604F024
:1026D200E7C800F0E8C801F0E9C802F0EAC803F070
:1026E200045007E00332023201320032039EFF0F30
:1026F200F8D700500401E62509011B6F01500401BF
:10270200E72109011C6F02500401E82109011D6F34
:1027120003500401E92109011E6FC6C600F0C7C6B5
:1027220001F0C8C602F0C9C603F0010E005E000E39
:10273200015A025A035A00500801E715046E01506B
:10274200E815056E0250E915066E0350EA15076E8C
:1027520004C000F005C001F00036009001360036DA
:1027620000900136C80E0024EF6F020E0120F06FB8
:1027720050EC08F00050000A09E0FF0E006EFF0E58
:10278200016EFF0E026E0F0E036EBAD01BD008014F
:10279200F0510501781903E177510801EF1912E1AF
:1027A2000801C80EEF6F020EF06F9CDD0050000AA8
:1027B20009E0FF0E006EFF0E016EFF0E026E0F0E9D
:1027C200036E9ED00801EA51EE1908E1E951ED19B4
:1027D20005E1E851EC1902E1E751EB1901E101D001
:1027E20023D7A9EC01F00050000A09E0FF0E006EA9
:1027F200FF0E016EFF0E026E0F0E036E81D00801F6
:10280200F15309E1FF0E006EFF0E016EFF0E026E24
:102812000F0E036E75D0EFC8E1FFF0C8E2FFFF0EA6
:10282200E66EFF0EE66EFF0EE66E0F0EE66EC5C694
:1028320004F0E7C800F0E8C801F0E9C802F0EAC80D
:1028420003F0045007E00332023201320032039EE9
:10285200FF0FF8D700500401E6250901096F015066
:102862000401E72109010A6F02500401E82109016C
:102872000B6F03500401E92109010C6FDDEC0CF030
:102882000050000A07E0FF0E006EFF0E016E026E9E
:10289200036E36D00401FB51FF0A08E1FA51FF0A28
:1028A20005E1F951FF0A02E1F851FF0A16E0F8C406
:1028B20000F0F9C401F0FAC402F0FBC403F0010E07
:1028C200005E000E015A025A035A00C0F8F401C019
:1028D200F9F402C0FAF403C0FBF4E7C8FCF4E8C858
:1028E200FDF4E9C8FEF4EAC8FFF4010E0601CA6F5E
:1028F200E7C800F0E8C801F0E9C802F0EAC803F04E
:022902001200C1
:10290400160E0801E725006E000EE821016E010E87
:102914000024E16E000E0120E26E8BC500F000364B
:102924000090003600900036009000C0E6FF160EBE
:10293400E725006E000EE821016E010E0024026EF0
:10294400000E0120036E8CC500F00032009E0032A0
:10295400009E0032009E02C0E9FF03C0EAFFEE5071
:10296400002602C0E1FF03C0E2FF00C0E6FF160E2E
:10297400E725E16E000EE821E26E050E016E8CC5BE
:1029840000F0015004E000360090FF0FFBD700C0B8
:10299400E6FF160EE725026E000EE821036E8DC5D4
:1029A40000F00032009E02C0E9FF03C0EAFFEE50CF
:1029B400002602C0E1FF03C0E2FF00C0E6FF180EDC
:1029C400E725006E000EE821016E010E0024E16E81
:1029D400000E0120E26EBC0E0501875D026E02C08E
:1029E40000F00036009000C0E6FF180E0801E7254D
:1029F400006E000EE821016E010E0024026E000E2E
:102A04000120036E89C500F00032009E0032009E52
:102A14000032009E02C0E9FF03C0EAFFEE50002628
:102A240002C0E1FF03C0E2FF00C0E6FF180EE72585
:102A3400E16E000EE821E26E050E016E89C500F01C
:102A4400015004E000360090FF0FFBD700C0E6FF02
:102A5400180EE725016E000EE821026E01C0E9FFA1
:102A640002C0EAFF05018A51EE24006E01C0E1FFB5
:0C2A740002C0E2FF00C0E6FF006A120092
:102A80000E0E0801E725006E000EE821016E010E12
:102A90000024E16E000E0120E26E8BC500F00036CE
:102AA0000090003600900036009000C0E6FF0E0E49
:102AB000E725006E000EE821016E010E0024026E73
:102AC000000E0120036E8CC500F00032009E003223
:102AD000009E0032009E02C0E9FF03C0EAFFEE50F4
:102AE000002602C0E1FF03C0E2FF00C0E6FF0E0EB9
:102AF000E725E16E000EE821E26E050E016E8CC541
:102B000000F0015004E000360090FF0FFBD700C03A
:102B1000E6FF0E0EE725026E000EE821036E8DC55E
:102B200000F00032009E02C0E9FF03C0EAFFEE5051
:102B3000002602C0E1FF03C0E2FF00C0E6FF100E66
:102B4000E725006E000EE821016E010E0024E16E03
:102B5000000E0120E26EBC0E0501875D026E02C010
:102B600000F00036009000C0E6FF100E0801E725D7
:102B7000006E000EE821016E010E0024026E000EB0
:102B80000120036E89C500F00032009E0032009ED5
:102B90000032009E02C0E9FF03C0EAFFEE500026AB
:102BA00002C0E1FF03C0E2FF00C0E6FF100EE72510
:102BB000E16E000EE821E26E050E016E89C500F09F
:102BC000015004E000360090FF0FFBD700C0E6FF85
:102BD000100EE725016E000EE821026E01C0E9FF2C
:102BE00002C0EAFF05018A51EE24006E01C0E1FF38
:0C2BF00002C0E2FF00C0E6FF006A120015
:102BFC0072EC0BF0C80E0801E86F020EE96F0201CF
:102C0C00C351FF0A03E1FF0E006E9ED2C351FC0AB2
:102C1C0003E1FF0E006E98D2C351000AD8A469D00C
:102C2C000F0E0401D115016E01C0EAF801500B0A18
:102C3C000AE00801EA510C0A06E0F80E0201C36F23
:102C4C00FF0E006E81D2D2C48CF9D3C48DF9D4C4DA
:102C5C008EF9D5C48FF9D6EC01F00050000A03E0D0
:102C6C00FF0E006E71D2C80E0801E86F020EE96FFC
:102C7C00FE0EE82509011B6F010E0801E92109016F
:102C8C001C6FC0EC0AF00150AA0A02E1550E0018A4
:102C9C0006E0FC0E0201C36FFF0E006E55D2E8C8B1
:102CAC00E9FFE9C8EAFFEECF01F00150E90A16E0AE
:102CBC00E8C8E9FFE9C8EAFFEECF01F00150EB0AE2
:102CCC000BE1020E0801E825E96E000EE921EA6E1F
:102CDC00EE50900A01E102D0006A02D0010E006EA3
:102CEC00005206E1FB0E0201C36FFF0E006E2CD2E8
:102CFC0021D00201C351FB0A1DE1800E0401D06FEB
:102D0C00D26BD36BD46BD56B200E0801E82509016F
:102D1C001B6F000E0801E92109011C6FE5EC0AF09C
:102D2C0000C0D6F401C0D7F402C0D8F403C0D9F463
:102D3C000201C36B0201C351000AD8A400D20B0ECE
:102D4C000801E82509011B6F000E0801E9210901A2
:102D5C001C6FC0EC0AF000C0DAF401C0DBF40D0EFD
:102D6C000801E82509011B6F000E0801E921090182
:102D7C001C6FB9EC0AF000C0DCF40E0E0801E8255B
:102D8C0009011B6F000E0801E92109011C6FC0EC41
:102D9C000AF000C0DDF401C0DEF4100E0801E825D5
:102DAC0009011B6F000E0801E92109011C6FB9EC28
:102DBC000AF000C0DFF4240E0801E82509011B6F9E
:102DCC00000E0801E92109011C6FE5EC0AF000C0B6
:102DDC00E0F401C0E1F402C0E2F403C0E3F4280E15
:102DEC000801E82509011B6F000E0801E921090102
:102DFC001C6FC0EC0AF000C0E4F401C0E5F404015F
:102E0C00DD51D225006EDE51D321016E000ED4218E
:102E1C00026E000ED521036E00C0E6F401C0E7F48B
:102E2C0002C0E8F403C0E9F42C0E0801E8250901FE
:102E3C001B6F000E0801E92109011C6FE5EC0AF07B
:102E4C0000C0EAF401C0EBF402C0ECF403C0EDF4F2
:102E5C00110E0801E82509011B6F000E0801E9217C
:102E6C0009011C6FC0EC0AF000C0EEF401C0EFF4D5
:102E7C00300E0801E82509011B6F000E0801E9213D
:102E8C0009011C6FC0EC0AF0000E026E036E040107
:102E9C00D2510026D3510122D4510222D551032202
:102EAC0000C0F4F401C0F5F402C0F6F403C0F7F46A
:102EBC00E6C4F0F4E7C4F1F4E8C4F2F4E9C4F3F4C2
:102ECC000801E76B0401DF510801E75D18E204011A
:102EDC00E051F025006EE151F121016EE251F22139
:102EEC00026EE351F321036E00C0F0F401C0F1F463
:102EFC0002C0F2F403C0F3F40801E72BE3D7050E8C
:102F0C00006EDAC438F7DBC439F7000E07013A6FEC
:102F1C003B6F005005E039333833399FFF0FFAD738
:102F2C00000E3A6F3B6FDAC4C6F6DBC4C7F6000E70
:102F3C000601C86FC96FC733C633C79FC733C633C3
:102F4C00C79F000EC86FC96FDAC409F9DBC40AF950
:102F5C00000E09010B6F0C6FA7EC0CF000C0A6F56E
:102F6C00DCC409F9000E09010A6F0B6F0C6FA7EC9A
:102F7C000CF000C000F538C709F939C70AF93AC78F
:102F8C000BF93BC70CF9A7EC0CF000C086F5C6C6D4
:102F9C0009F9C7C60AF9C8C60BF9C9C60CF9A7ECDA
:102FAC000CF000C0C5F605010051A625006E00C04E
:102FBC0033F7010E0701346F000E356F000E366FBC
:102FCC00000E376F005007E0343734913537363701
:102FDC003737FF0FF8D7200E0901096F000E0A6F63
:102FEC000B6F0C6FA7EC0CF000500701335D006EFB
:102FFC00016A000E00BEFF0E015A00C004F0010E63
:10300C00006E000E016E000E026E000E036E045078
:10301C0007E000360090013602360336FF0FF8D772
:10302C0000C0C8F401C0C9F402C0CAF403C0CBF498
:10303C0000C009F901C00AF902C00BF903C00CF970
:10304C00A7EC0CF000C085F5EAC4BBF2EBC4BCF2F3
:10305C00ECC4BDF2EDC4BEF20401CC6BCD6BCE6BF7
:10306C00CF6BF0C400F0F1C401F0F2C402F0F3C471
:10307C0003F0D251005ED351015AD451025AD551AA
:10308C00035AD6C401F5D7C402F5D8C403F5D9C484
:10309C0004F500500501015F0150025B0250035B17
:1030AC000350045B00C500F0005007E00433033309
:1030BC0002330133049FFF0FF8D7020E0127000ED5
:1030CC000223032304230401D15325E1000E05013F
:1030DC00045D08E1000E035D05E1FF0E025D02E1F7
:1030EC00F70E015D04E30B0E0401D16F14D0000E3A
:1030FC000501045D08E1000E035D05E10F0E025DA4
:10310C0002E1F70E015D04E3060E0401D16F03D05A
:10311C000401010ED16F0F0ED115016E01C0EAF83A
:10312C0001500B0A0AE00801EA510C0A06E0F80EFD
:10313C000201C36FFF0E006E07D0006A05D00201BA
:0A314C00FB0EC36FFF0E006E1200B1
:103156000401CF51FF0A08E1CE51FF0A05E1CD5126
:10316600FF0A02E1CC51FF0A06E1F60E0201C36F27
:10317600FF0E006E8CD2BBC2E9F8BCC2EAF8BDC233
:10318600EBF8BEC2ECF80401ED510201BE5D0EE1A2
:103196000401EC510201BD5D09E10401EB5102019C
:1031A600BC5D04E10401EA510201BB5D15E30501C2
:1031B60004510801EC5D0EE1050103510801EB5DC8
:1031C60009E1050102510801EA5D04E10501015129
:1031D6000801E95D01E206D0F40E0201C36FFF0E9D
:1031E600006E55D20801F36B85C500F0CCC401F022
:1031F600CDC402F0CEC403F0CFC404F0005007E003
:103206000432033202320132049EFF0FF8D7045013
:10321600000809E10350000806E10250000803E136
:1032260008010150F35D56E2E9C888F9EAC889F950
:10323600EBC88AF9ECC88BF9BFEC02F000C0E9F8DC
:1032460001C0EAF802C0EBF803C0ECF803500F0A1D
:1032560008E10250FF0A05E10150FF0A02E10050B1
:10326600FF0A06E1F10E0201C36FFF0E006E0FD2D8
:103276000401ED510801EC5D0EE10401EC51080179
:10328600EB5D09E10401EB510801EA5D04E104018B
:10329600EA510801E95D15E3050104510801EC5DF9
:1032A6000EE1050103510801EB5D09E1050102513B
:1032B6000801EA5D04E1050101510801E95D01E249
:1032C60006D0F40E0201C36FFF0E006EE0D10801B6
:1032D600F32B8AD7C8C400F0C9C401F0CAC402F0EF
:1032E600CBC403F0010E005E000E015A025A035AC7
:1032F60000500401CC150801EF6F01500401CD15F3
:103306000801F06F02500401CE150801F16F035059
:103316000401CF150801F26FE9C888F9EAC889F9EE
:10332600EBC88AF9ECC88BF97AEC02F086C508F08E
:10333600EFC804F0F0C805F0F1C806F0F2C807F0CF
:10334600085007E00732063205320432079EFF0FA7
:10335600F8D70450002409011B6F055001201C6F8B
:10336600065002201D6F075003201E6F38C700F05D
:1033760039C701F03AC702F03BC703F0010E005E01
:10338600000E015A025A035A00500801EF15046E46
:103396000150F015056E0250F115066E0350F21538
:1033A600076E050E026E04C000F005C001F0025063
:1033B60005E0003600900136FF0FFAD70801C80E67
:1033C6000024ED6F020E0120EE6F50EC08F0005065
:1033D600000A03E0FF0E006E5AD1EDC8E9FFEEC801
:1033E600EAFFEECF01F00150E50A0AE0EDC8E9FF79
:1033F600EEC8EAFFEECF01F0200E015C01E318D023
:10340600EDC8E9FFEEC8EAFFEECF01F0140E015C4D
:103416000EE20B0E0801ED25E96E000EEE21EA6EB6
:103426003F0EEE14016E01500F0A01E101D09DD04E
:10343600A9EC01F00050000A03E0FF0E006E27D150
:103446000B0E0801ED25E96E000EEE21EA6EEECFB9
:1034560001F001A633D0E7C81BF9E8C81CF9090139
:103466001D6B100E1E6F010E1F6FE2EC08F0FF0EB3
:103476000801E725F46F000EE821F56F0B0EED2528
:1034860009011B6F000E0801EE2109011C6FB9EC42
:103496000AF0F4C8E1FFF5C8E2FF00C0E6FFE7C89E
:1034A60071F9E8C872F9EDC873F9EEC874F90B0E34
:1034B600756F000E766FD0EC03F04DD00801E75122
:1034C600E81149E0EDC809F9EEC80AF9E7C80BF9B1
:1034D600E8C80CF9BBC20DF9BCC20EF9BDC20FF9A2
:1034E600BEC210F9CCC411F9CDC412F9CEC413F979
:1034F600CFC414F9B1EC0DF00050000A03E0FF0E42
:10350600006EC5D0EDC809F9EEC80AF920EC0DF039
:10351600EDC809F9EEC80AF9DCEC10F0080E08014E
:10352600E725E16E010EE821E26EBBC2E6FFBCC2F2
:10353600E6FFBDC2E6FFBEC2E6FF0C0EE725E16E62
:10354600010EE821E26ECCC4E6FFCDC4E6FFCEC490
:10355600E6FFCFC4E6FF010E0401CC27000ECD2303
:10356600CE23CF23010E006E92D0010E0801EF2765
:10357600000EF023F123F223200EED25016E000E3E
:10358600EE21026E01C0EDF802C0EEF8010E040154
:10359600CC27000ECD23CE23CF2302500501781968
:1035A60002E177510118D8A471D0C80E0801ED6F59
:1035B600020EEE6FF2510401CB190EE10801F15132
:1035C6000401CA1909E10801F0510401C91904E10D
:1035D6000801EF510401C81951E1A9EC01F00050AE
:1035E600000A03E0FF0E006E52D00801EF6BF06B8D
:1035F600F16BF26BE9C888F9EAC889F9EBC88AF970
:10360600ECC88BF9BFEC02F000C0E9F801C0EAF89B
:1036160002C0EBF803C0ECF803500F0A08E10250B1
:10362600FF0A05E10150FF0A02E10050FF0A0BE123
:10363600FF0E0401CC6FFF0ECD6FFF0ECE6FFF0E97
:10364600CF6F006A24D0E9C888F9EAC889F9EBC8BF
:103656008AF9ECC88BF97AEC02F000C01BF901C0BC
:103666001CF902C01DF903C01EF950EC08F0005009
:10367600000A03E0FF0E006E0AD008D073EC11F0CA
:103686000050000A03E0FF0E006E01D0A6D612001D
:10369600C5C604F0EBC800F0ECC801F0EDC802F0B6
:1036A600EEC803F0045007E0033202320132003262
:1036B600039EFF0FF8D700C0F0F801C0F1F802C072
:1036C600F2F803C0F3F80401E6510024086EE7514E
:1036D6000120096EE85102200A6EE95103200B6EA3
:1036E60008C0F0F809C0F1F80AC0F2F80BC0F3F808
:1036F600C6C600F0C7C601F0C8C602F0C9C603F0C8
:10370600010E005E000E015A025A035A00500801CB
:10371600EB15046E0150EC15056E0250ED15066EA4
:103726000350EE15076E04C000F005C001F0003628
:1037360000900136003600900136C80E0024F86F5E
:10374600020E0120F96F08C08CF909C08DF90AC074
:103756008EF90BC08FF9D6EC01F00050000A03E099
:10376600FF0E006E46D0F8C8E1FFF9C8E2FFE7C8D1
:10377600E6FFE8C8E6FFE9C8E6FFEAC8E6FFF0C8E4
:10378600F4F8F1C8F5F8F2C8F6F8F3C8F7F8080146
:10379600EF6B0401DF510801EF5D22E2F4C809F97D
:1037A600F5C80AF9F6C80BF9F7C80CF9DDEC0CF008
:1037B6000050000A03E0FF0E006E1BD00401E0512A
:1037C6000801F4270401E1510801F5230401E2513F
:1037D6000801F6230401E3510801F723EF2BD9D79B
:1037E600F0C8C4F2F1C8C5F2F2C8C6F2F3C8C7F20F
:0437F600006A120053
:1037FA001A0E0801E725E16E000EE821E26EE9C81B
:10380A00E6FF1A0EE725006E000EE821016E010E92
:10381A000024E16E000E0120E26EEAC8E6FF140EF3
:10382A00E725E16E000EE821E26EEBC8E6FF140E12
:10383A00E725006E000EE821016E010E0024E16EFC
:0E384A00000E0120E26EECC8E6FF006A1200DC
:10385800010E0801EB6FEC6BED6BEE6BEF6BF06B31
:10386800F16BE7C8E9FFE8C8EAFFEE50000A06E195
:10387800C40E0201C36FFF0E006EF7D0E7C809F946
:10388800E8C80AF993EC0FF000C0EAF80801E96B00
:10389800E7C809F9E8C80AF993EC0FF0800E026E40
:1038A800800E0118025C03E100500801E95D16E290
:1038B8000801E951E725E96E000EE821EA6EEECF2E
:1038C80000F96BEC0FF0005206E1C30E0201C36F62
:1038D800FF0E006ECAD00801E92BDAD70801EA0505
:1038E800006E000EEABFFF0E016E000E015A005076
:1038F800E725E96E0150E821EA6EEE502E0A02E152
:10390800EA07ECD7800E000A006E800EEA19005C08
:1039180006E3E20E0201C36FFF0E006EA6D0E7C8F1
:1039280009F9E8C80AF993EC0FF0800E0801EABF1C
:103938007F0E026E800E0118025C02E10050EA5D03
:1039480009E2EA51E725E16E000EEABFFF0EE82121
:10395800E26EE66AE96B800E006E800EEABF7F0EAB
:10396800005C02E1EA51E95D12E2E951E725E96EFE
:10397800000EE821EA6EEECF1BF9B0EC08F0005219
:1039880003E0010E006E71D00801E92BE4D7800E28
:103998000C0A006E800EEA19005C03E2010E006E4C
:1039A80064D0E96B800E006E800EEABF7F0E005C6B
:1039B80002E1EA51E95D43E2E951E725E96E000ECB
:1039C800E821EA6EEECF88F941EC02F0005204E0FB
:1039D800010E0801EC6F2CD00801E951E725E96ECA
:1039E800000EE821EA6EEECF88F9B3EC02F000523F
:1039F80004E0010E0801ED6F1BD00801E951E7252D
:103A0800E96E000EE821EA6EEE502E0A11E1EF533E
:103A18000CE1EC5304E0ED5302E0010EEE6F010EF1
:103A2800EF6FEB6BEC6BED6B08D0010E006E1DD0E9
:103A3800EB5302E0F02B01D0F12BE92BB3D7EC5379
:103A480004E0ED5302E0010EEE6FF051080804E3C4
:103A5800F151030801E303D0010E006E06D0EE53C6
:0C3A680003E0020E006E01D0006A1200A4
:103A7400BBC2EBF8BCC2ECF8BDC2EDF8BEC2EEF8B6
:103A84000401CC6BCD6BCE6BCF6B0401ED510801FF
:103A9400EE5D0EE10401EC510801ED5D09E1040164
:103AA400EB510801EC5D04E10401EA510801EB5D0E
:103AB40015E3050104510801EE5D0EE10501035112
:103AC4000801ED5D09E1050102510801EC5D04E125
:103AD400050101510801EB5D01E206D0F40E02017B
:103AE400C36FFF0E006EF7D0C80E0801F36F020E0D
:103AF400F46FEBC888F9ECC889F9EDC88AF9EEC807
:103B04008BF97AEC02F000C01BF901C01CF902C069
:103B14001DF903C01EF950EC08F00050000A03E040
:103B2400FF0E006ED8D00801EF6BF06BF16BF26BF7
:103B34000401CB510801F25D0EE10401CA510801F0
:103B4400F15D09E10401C9510801F05D04E10401DA
:103B5400C8510801EF5DD8B095D0F451050178192A
:103B640003E177510801F3190DE10801C80EF36F61
:103B7400020EF46F73EC11F00050000A03E0FF0E24
:103B8400006EA9D0F3C809F9F4C80AF9E7C80BF91B
:103B9400E8C80CF90B0E09010D6F000E0E6F3AEC1C
:103BA4000FF0000E011802E1000E001858E1A9EC14
:103BB40001F00050000A03E0FF0E006E8CD00801F3
:103BC400E951EA113DE0F3C809F9F4C80AF9E9C872
:103BD4000BF9EAC80CF9BBC20DF9BCC20EF9BDC29F
:103BE4000FF9BEC210F9CCC411F9CDC412F9CEC478
:103BF40013F9CFC414F9B1EC0DF00050000A03E03E
:103C0400FF0E006E68D0080E0801E925E16E010E72
:103C1400EA21E26EBBC2E6FFBCC2E6FFBDC2E6FF1C
:103C2400BEC2E6FF0C0EE925E16E010EEA21E26E4A
:103C3400CCC4E6FFCDC4E6FFCEC4E6FFCFC4E6FFA6
:103C4400F3C809F9F4C80AF920EC0DF0F3C809F92E
:103C5400F4C80AF9DCEC10F0010E006E3CD0200E22
:103C64000801F327000EF423010EEF27000EF023C2
:103C7400F123F223010E0401CC27000ECD23CE2321
:103C8400CF2356D7A9EC01F00050000A03E0FF0E41
:103C9400006E21D0EBC888F9ECC889F9EDC88AF91F
:103CA400EEC88BF9BFEC02F000C0EBF801C0ECF8F1
:103CB40002C0EDF803C0EEF803500F0A08E1025009
:103CC400FF0A05E10150FF0A02E10050FF0A02E188
:083CD400006A01D0DAD61200EB
:103CDC00CCC401F9CDC402F9CEC403F9CFC404F9A4
:103CEC00BBC25DF9BCC25EF9BDC25FF9BEC260F970
:103CFC00CCC461F9CDC462F9CEC463F9CFC464F904
:103D0C00050E0901656F090E666F3AEC06F000505E
:103D1C00000A03E0FF0E006E7ED138C700F039C7F1
:103D2C0001F03AC702F03BC703F0010E005E000E33
:103D3C00015A025A035A00500401CC15046E01506A
:103D4C00CD15056E0250CE15066E0350CF15076EBD
:103D5C0004C0FBF805C0FCF806C0FDF807C0FEF86F
:103D6C00050E026E04C000F005C001F0025005E023
:103D7C00003600900136FF0FFAD7C80E0024090157
:103D8C005D6F020E01205E6F010E0801EA6F10ECF0
:103D9C0006F000C0EBF8010E0401CC5F000ECD5B09
:103DAC00CE5BCF5B000E006E0801FE1908E10050DF
:103DBC00FD1905E10050FC1902E1FB51000A2CE150
:103DCC00C8C4FBF8C9C4FCF8CAC4FDF8CBC4FEF8DF
:103DDC00010EFB5F000EFC5BFD5BFE5BBBC25DF985
:103DEC00BCC25EF9BDC25FF9BEC260F9CCC461F958
:103DFC00CDC462F9CEC463F9CFC464F9050E0901D0
:103E0C00656F090E666F3AEC06F00050000A03E08D
:103E1C00FF0E006E00D107D0010E0801FB5F000EF3
:103E2C00FC5BFD5BFE5B080138C700F039C701F095
:103E3C003AC702F03BC703F0010E005E000E015AB8
:103E4C00025A035A0050FB15046E0150FC15056E06
:103E5C000250FD15066E0350FE15076E050E026E20
:103E6C0004C000F005C001F0025005E000360090DF
:103E7C000136FF0FFAD7C80E0026020E012200C031
:103E8C00F9F801C0FAF80B0E0024E96E000E0120BF
:103E9C00EA6E3F0EEE14016E01500F0A06E0C00EE2
:103EAC000201C36FFF0E006EB6D00D0E0801F9258E
:103EBC00E96E000EFA21EA6EEE50EB1906E0C10E27
:103ECC000201C36FFF0E006EA6D0F9C8E9FFFAC855
:103EDC00EAFFEECF00F01F0E0014016E0150080136
:103EEC00EA1906E0C20E0201C36FFF0E006E93D0FA
:103EFC00F9C85DF9FAC85EF9EC0E09015F6F080E9E
:103F0C00606F2AEC05F00801E96BEC0EE96E080E07
:103F1C00EA6EE951E926D8B0EA2AEECF00F988EC2E
:103F2C000FF000C0FFF80801EA05006E016A000EF0
:103F3C00015A0D0E046E000E056EE1EC05F0E95110
:103F4C000026000E01220050E725E96E0150E82101
:103F5C00EA6EEECF00F988EC0FF00801FF51001863
:103F6C000AE001C9CCF402C9CDF403C9CEF404C9EA
:103F7C00CFF4006A50D0E92B0D0EE95D0CE2EC0E8B
:103F8C00E96E080EEA6EE951E926D8B0EA2AEE503D
:103F9C00000A01E0BAD70D0EE95D2AE2EC0EE96EDB
:103FAC00080EEA6EE951E926D8B0EA2AEA05006E55
:103FBC00016A000E015A0D0E046E000E056EE1EC46
:103FCC0005F0E9510026000E01220050E725D96EBC
:103FDC000150E821DA6EEE50DE180AE001C9CCF48B
:103FEC0002C9CDF403C9CEF404C9CFF4006A13D0CE
:103FFC00EA2BF9C8E9FFFAC8EAFFEECF01F001ACF1
:10400C00CAD601C9CCF402C9CDF403C9CEF404C993
:08401C00CFF4010E006E12004A
:10402400E7C809F9E8C80AF993EC0FF000C0ECF806
:1040340001C0EDF8E9C809F9EAC80AF993EC0FF0F0
:104044000801ED51011802E10050EC1902E0006A88
:1040540033D0EB6BE9C809F9EAC80AF993EC0FF01D
:10406400800E026E800E0118025C03E1005008010C
:10407400EB5D20E20801EB51E725E96E000EE82133
:10408400EA6EEECF00F988EC0FF000C0ECF80801FE
:10409400EB51E925E96E000EEA21EA6EEECF00F954
:1040A40088EC0FF00801EC51001802E0006A04D01B
:0A40B400EB2BD0D7010E006E1200B6
:1040BE00086A080E0C6E003408360450085ED8B03C
:0E40CE0002D00826D89000360C2EF5D712002E
:1040DC000450000A12E10550000A0FE10650000AD4
:1040EC000CE10750000A09E1FF0E006EFF0E016E95
:1040FC00FF0E026E7F0E036E99D00C6A07BE0C2A5F
:10410C000D6A0B6A0A6A096A086A035002100110E8
:10411C000010D8B485D0035007180E6E0EBE0D1EBD
:10412C0007AE0BD0041E051E061E071E042AD8B4AB
:10413C00052AD8B4062AD8B4072A03AE0BD0001E21
:10414C00011E021E031E002AD8B4012AD8B4022A6A
:10415C00D8B4032A035007100E6E0EBE1DD0B0EC5F
:10416C000FF00CBE36D00DAE5BD0001E011E021E31
:10417C00031E002AD8B4012AD8B4022AD8B4032AC0
:10418C00081E091E0A1E0B1E082AD8B4092AD8B408
:10419C000A2AD8B40B2A44D007AE15D003BE0DD0D2
:1041AC0003500B6E02500A6E0150096E0050086EDF
:1041BC00036A026A016A006AD6D7036A026A016A54
:1041CC00006A002A000C031E021E011E001E0C8E2B
:1041DC00C6D7082AD8B4092AD8B40A2AD8B40B2AC4
:1041EC000450085CD8A4BFD70550095CD8A4BBD731
:1041FC0006500A5CD8A4B7D707500B5CD8A4B3D729
:10420C000B6A0A6A096A086A002AD8B4012AD8B467
:10421C00022AD8B4032A03AEA6D70E6A0E88FF0C66
:0E422C000E6A0CA002D07CEC0FF0000F120006
:10423A000450000A08E10550000A05E1FF0E006E6D
:10424A007F0E016E58D00D6A096A086A0150001083
:10425A00D8B4000C015005180A6E0ABE0D1E0B6A6E
:10426A0005AE05D0041E051E042AD8B4052A01AEDF
:10427A0005D0001E011E002AD8B4012A01500510DB
:10428A000A6E0ABE10D00EEC0FF00BB020D00DAEA5
:10429A00000C001E011E002AD8B4012A081E091E9D
:1042AA00082AD8B4092A000C05AE0DD001BE07D0E1
:1042BA000150096E0050086E016A006AE8D7016A67
:1042CA00006A002A000C011E001E0B2ADDD7082AEC
:1042DA00D8B4092A0450085CD8A4D9D70550095C77
:1042EA00D8A4D5D7096A086A002AD8B4012A01AE27
:0842FA00CED70000FF0C1200FA
:10430200800E0801C619006E800E000A005C0CE3E4
:10431200800EC6BF7F0E006E000E800A005C02E1B6
:10432200040EC65D01E206D0D80E0201C36FFF0E75
:10433200006E67D11A0E006E000E016EC6C804F040
:10434200000E0801C6BFFF0E056EE1EC05F0CB0EB4
:104352000026060E012200C0CFF801C0D0F8180EC8
:104362000024E96E000E0120EA6EEE50000A06E11A
:10437200DC0E0201C36FFF0E006E43D1140E080162
:10438200CF25D96E000ED021DA6EDECF01F0DECF5E
:1043920002F0DECF03F0DECF04F0CA51045C08E184
:1043A200C951035C05E1C851025C02E1C751015CDD
:1043B20006E2DB0E0201C36FFF0E006E22D1100E69
:1043C2000801CF25E96E000ED021EA6EEECF01F092
:1043D200EECF02F0EECF03F0EECF04F00450CA1994
:1043E20008E10350C91905E10250C81902E1015060
:1043F200C71902E1006A05D1100ECF25E96E000E41
:10440200D021EA6EEECF01F0EECF02F0EECF03F054
:10441200EECF04F033C700F001C005F002C006F091
:1044220003C007F004C008F0005007E0083207326A
:1044320006320532089EFF0FF8D733C700F0C7C80F
:1044420001F0C8C802F0C9C803F0CAC804F000509D
:1044520007E00432033202320132049EFF0FF8D722
:104462000850041808E10750031805E10650021825
:1044720002E10550011811E10801100ECF25E16E8D
:10448200000ED021E26EC7C8E6FFC8C8E6FFC9C861
:10449200E6FFCAC8E6FF006AB4D00801100ECF25B5
:1044A200E16E000ED021E26EC7C8E6FFC8C8E6FF83
:1044B200C9C8E6FFCAC8E6FF100ECF25E96E000E96
:1044C200D021EA6EEECF01F0EECF02F0EECF03F094
:1044D200EECF04F033C700F001C0CBF802C0CCF835
:1044E20003C0CDF804C0CEF8005007E0CE33CD3380
:1044F200CC33CB33CE9FFF0FF8D7040ECF25E16E1E
:10450200000ED021E26ECFC8E9FFD0C8EAFFEECF9D
:1045120000F0EECF01F0EECF02F0EECF03F000C0DC
:10452200E6FF01C0E6FF02C0E6FF03C0E6FFCE5190
:10453200000808E1CD51000805E1CC51000802E174
:10454200CB5100085DE2040ECF25D16F000ED021C1
:10455200D26FD1C8E9FFD2C8EAFFEECF88F9EECF19
:1045620089F9EECF8AF9EECF8BF9BFEC02F0D1C810
:10457200E1FFD2C8E2FF00C0E6FF01C0E6FF02C0D1
:10458200E6FF03C0E6FF040E0801CF25D96E000E38
:10459200D021DA6EDECF01F0DECF02F0DECF03F003
:1045A200DECF04F00F0E041808E1FF0E031805E138
:1045B200FF0E021802E1FF0E01181AE1100ECF25BC
:1045C200E16E000ED021E26E140ECF25E96E000ED0
:1045D200D021EA6EEECFE6FFEECFE6FFEECFE6FFAA
:1045E200EECFE6FFDB0E0201C36FFF0E006E09D0B5
:1045F200010E0801CB5F000ECC5BCD5BCE5B97D783
:04460200006A120038
:10460600BFEC11F0000E001803E0FF0E006E01D0A3
:04461600006A120024
:10461A000601CA5302E1006A65D0C80E0801C66FD6
:10462A00020EC76FC80E09011B6F020E1C6F1D6BAD
:10463A00000E1E6F020E1F6FE2EC08F0C6C8E1FF03
:10464A00C7C8E2FF520EE66E520EE66E610EE66EC5
:10465A00410EE66EE40E0801C625E16E010EC72181
:10466A00E26E720EE66E720EE66E410EE66E610E36
:10467A00E66EE80EC625E16E010EC721E26EF8C4A9
:10468A00E6FFF9C4E6FFFAC4E6FFFBC4E6FFEC0E58
:10469A00C625E16E010EC721E26EFCC4E6FFFDC429
:1046AA00E6FFFEC4E6FFFFC4E6FFFE0EC625E16E86
:1046BA00010EC721E26E550EE66EAA0EE66EF4C42E
:1046CA0009F9F5C40AF9F6C40BF9F7C40CF9DDECDB
:1046DA000CF00050000A03E0FF0E006E03D0060142
:0646EA00CA6B006A120019
:1046F000C6C802F0C7C803F0C8C8F6FFC9C8F7FFAC
:10470000CAC8F8FF0900F5CF00F0C6C8E1FFC7C866
:10471000E2FF00C0E6FFC8C8F6FFC9C8F7FFCAC875
:10472000F8FF0900F5CF01F00150000A01E109D0BE
:10473000010E0801C827000EC923CA23C64BC72B88
:0C474000DBD702C000F003C001F0120043
:10474C00870E09011B6F050E1C6F1D6B070E1E6F6C
:10475C00000E1F6FE2EC08F0B70E1B6F060E1C6FFD
:10476C001D6B070E1E6F000E1F6FE2EC08F0BE0EE5
:10477C001B6F060E1C6F1D6B070E1E6F000E1F6F3E
:10478C00E2EC08F0D00E1B6F040E1C6F1D6B300E8C
:10479C001E6F000E1F6FE2EC08F0C40E1B6F020EB2
:1047AC001C6F1D6B040E1E6F020E1F6FE2EC08F0E7
:1047BC00CB0E1B6F060E1C6F1D6B040E006E000ED5
:1047CC00016E1A0E0002F3CF1EF9F4CF1FF9E2ECC2
:1047DC0008F0790E1B6F050E1C6F1D6B0C0E1E6FF7
:1047EC00000E1F6FE2EC08F0FF0E0201C46FFF0E0B
:1047FC00C56FFF0EC66FFF0EC76FC80E0501776F32
:10480C00040E786F07013C6B0601CA6B0501016B46
:10481C00026B036B046B0201BB6BBC6BBD6BBE6BA1
:10482C000401CC6BCD6BCE6BCF6B07013D6B430E94
:0A483C000501796F0201C36B120041
:10484600C6C8E9FFC7C8EAFFEE50000A06E1C40E73
:104856000201C36FFF0E006EB6D0BBC2CAF8BCC25F
:10486600CBF8BDC2CCF8BEC2CDF80401CC6BCD6B83
:10487600CE6BCF6B0801D36BC8C8E7F8C9C8E8F898
:10488600ABEC18F00050010AD8A494D0FF0E080132
:10489600C825E96E000EC921EA6E3F0EEE14016EC0
:1048A60001500F0A03E1010ED36FE6D7010E040192
:1048B600CC5F000ECD5BCE5BCF5B0801D3533BE0F4
:1048C600C6C8E7F8C7C8E8F86EEC1EF000C0D2F814
:1048D6000050FF0A03E1FF0E006E75D00801D251A9
:1048E600010A28E1BBC25DF9BCC25EF9BDC25FF92F
:1048F600BEC260F9CCC461F9CDC462F9CEC463F915
:10490600CFC464F9CE0E0901656F080E666F3AECE6
:1049160006F00050000A03E0FF0E006E54D0CAC82D
:10492600BBF2CBC8BCF2CCC8BDF2CDC8BEF2010EFC
:10493600006E49D035D0C8C8E7F8C9C8E8F8C6C877
:10494600E9F8C7C8EAF812EC20F00050010A28E19D
:10495600BBC25DF9BCC25EF9BDC25FF9BEC260F9F9
:10496600CCC461F9CDC462F9CEC463F9CFC464F98D
:10497600CE0E0901656F080E666F3AEC06F0005020
:10498600000A03E0FF0E006E1ED0CAC8BBF2CBC8F9
:10499600BCF2CCC8BDF2CDC8BEF2010E006E13D07B
:1049A600010E0401CC27000ECD23CE23CF23080110
:1049B600D36B62D7CAC8BBF2CBC8BCF2CCC8BDF2B7
:0849C600CDC8BEF2006A120028
:1049CE00FEEC15F0C80E0801C66F020EC76FC80EBA
:1049DE00C86F020EC96F0201C351FF0A03E1FF0E39
:1049EE00006EB3D0C351FC0A03E1FF0E006EADD0D2
:1049FE00C351000AD8A4A4D0300E0801C62509015F
:104A0E001B6F000E0801C72109011C6FC0EC0AF0D4
:104A1E0000500401D22509018C6F01500401D321ED
:104A2E0009018D6F000E0401D42109018E6F000E55
:104A3E000401D52109018F6FD6EC01F00050000A58
:104A4E0003E0FF0E006E81D0C80E0801C86F020E83
:104A5E00C96FFE0EC82509011B6F010E0801C92181
:104A6E0009011C6FC0EC0AF00150AA0A02E1550EB2
:104A7E00001806E0FC0E0201C36FFF0E006E65D03B
:104A8E00C8C81BF9C9C81CF9E5EC0AF00350410A65
:104A9E0008E10250610A05E10150520A02E100509C
:104AAE00520A06E0FA0E0201C36FFF0E006E4DD0E1
:104ABE00E40E0801C82509011B6F010E0801C9216A
:104ACE0009011C6FE5EC0AF00350610A08E102507F
:104ADE00410A05E10150720A02E10050720A06E035
:104AEE00FA0E0201C36FFF0E006E2FD0E80E080102
:104AFE00C82509011B6F010E0801C92109011C6F90
:104B0E00E5EC0AF000C0F8F401C0F9F402C0FAF4C2
:104B1E0003C0FBF4EC0E0801C82509011B6F010E42
:104B2E000801C92109011C6FE5EC0AF000C0FCF474
:104B3E0001C0FDF402C0FEF403C0FFF4006A05D00C
:0C4B4E00FA0E0201C36FFF0E006E120091
:0E4B5A00ACB202D00000FCD7C6C8ADFF1200FE
:104B68001C0E0801C625E16E000EC721E26EC8C8FA
:104B7800E6FF1C0EC625006E000EC721016E010E51
:104B88000024E16E000E0120E26EC9C8E6FF1C0E8B
:104B9800C625006E000EC721016E020E0024E16ECC
:104BA800000E0120E26ECAC8E6FF1C0EC625006E84
:104BB800000EC721016E030E0024E16E000E0120D5
:0A4BC800E26ECBC8E6FF006A12009F
:104BD200CB0E09011B6F080E1C6FFF0E1D6F0D0E11
:104BE2001E6F000E1F6FE2EC08F00801CA6B0D0E7B
:104BF200CA5D1CE2CB0EE16E080EE26ECA51E126DE
:104C0200D8B0E22ACA51C825E96E000EC921EA6E5F
:104C1200EECFE6FFCA51C825E96E000EC921EA6E41
:104C2200EE50000A01E102D0CA2BE1D7010EC625DF
:104C3200E16E000EC721E26ECBC8E6FF030EC62569
:104C4200E16E000EC721E26ECCC8E6FF050EC62556
:104C5200E16E000EC721E26ECDC8E6FF070EC62543
:104C6200E16E000EC721E26ECEC8E6FF090EC62530
:104C7200E16E000EC721E26ECFC8E6FF0E0EC6251A
:104C8200E16E000EC721E26ED0C8E6FF100EC62507
:104C9200E16E000EC721E26ED1C8E6FF120EC625F4
:104CA200E16E000EC721E26ED2C8E6FF140EC625E1
:104CB200E16E000EC721E26ED3C8E6FF160EC625CE
:104CC200E16E000EC721E26ED4C8E6FF180EC625BB
:104CD200E16E000EC721E26ED5C8E6FF1C0EC625A6
:104CE200E16E000EC721E26ED6C8E6FF1E0EC62593
:104CF200E16E000EC721E26ED7C8E6FFCA51010F6E
:104D0200026E036A000E0322B7D0010EC625006EA2
:104D1200000EC721016E010E0024E16E000E01207B
:104D2200E26EFF0EE66E030EC625006E000EC72170
:104D3200016E010E0024E16E000E0120E26EFF0EF4
:104D4200E66E050EC625006E000EC721016E010E2D
:104D52000024E16E000E0120E26EFF0EE66E070EE9
:104D6200C625006E000EC721016E010E0024E16E01
:104D7200000E0120E26EFF0EE66E090EC625006EE1
:104D8200000EC721016E010E0024E16E000E01200B
:104D9200E26EFF0EE66E0E0EC625006E000EC721F5
:104DA200016E010E0024E16E000E0120E26EFF0E84
:104DB200E66E100EC625006E000EC721016E010EB2
:104DC2000024E16E000E0120E26EFF0EE66E120E6E
:104DD200C625006E000EC721016E010E0024E16E91
:104DE200000E0120E26EFF0EE66E140EC625006E66
:104DF200000EC721016E010E0024E16E000E01209B
:104E0200E26EFF0EE66E160EC625006E000EC7217C
:104E1200016E010E0024E16E000E0120E26EFF0E13
:104E2200E66E180EC625006E000EC721016E010E39
:104E32000024E16E000E0120E26EFF0EE66E1C0EF3
:104E4200C625006E000EC721016E010E0024E16E20
:104E5200000E0120E26EFF0EE66E1E0EC625006EEB
:104E6200000EC721016E010E0024E16E000E01202A
:104E7200E26EFF0EE66E58D0000E031802E1000E3D
:104E82000218D8B442D7000E031802E1010E02182C
:104E9200D8B449D7000E031802E1020E0218D8B4A2
:104EA20050D7000E031802E1030E0218D8B457D7E8
:104EB200000E031802E1040E0218D8B45ED7000EE9
:104EC200031802E1050E0218D8B465D7000E0318C4
:104ED20002E1060E0218D8B46CD7000E031802E1E4
:104EE200070E0218D8B473D7000E031802E1080E99
:104EF2000218D8B47AD7000E031802E1090E02187C
:104F020082E0000E031802E10A0E02188AE0000E87
:104F1200031802E10B0E021892E0000E031802E1E0
:0C4F22000C0E02189AE0A7D7006A1200DB
:104F2E00C6C8E1FFC7C8E2FFC8C8E6FF006A1200A4
:104F3E000B0E0801C625E16E000EC721E26EC8C831
:064F4E00E6FF006A1200FC
:104F5400BBC2D5F8BCC2D6F8BDC2D7F8BEC2D8F819
:104F64000801E56B0401ED510801D85D0EE104016F
:104F7400EC510801D75D09E10401EB510801D65D4C
:104F840004E10401EA510801D55D15E3050104516A
:104F94000801D85D0EE1050103510801D75D09E15F
:104FA400050102510801D65D04E105010151080122
:104FB400D55D01E206D0F40E0201C36FFF0E006E50
:104FC4009BD1C80E0801CB6F020ECC6FD5C888F9EF
:104FD400D6C889F9D7C88AF9D8C88BF97AEC02F00F
:104FE40000C0E1F801C0E2F802C0E3F803C0E4F84D
:104FF40000C08CF901C08DF902C08EF903C08FF98D
:10500400D6EC01F00050000A03E0FF0E006E74D1EC
:105014000801CD6BCE6BCF6BD06B0401CB51080173
:10502400D05D0EE10401CA510801CF5D09E104011C
:10503400C9510801CE5D04E10401C8510801CD5DE8
:10504400D8B08ED0CC510501781903E1775108010D
:10505400CB191BE10801010EE127000EE223E32333
:10506400E423C80ECB6F020ECC6FE1C88CF9E2C802
:105074008DF9E3C88EF9E4C88FF9D6EC01F000503D
:10508400000A03E0FF0E006E37D1CBC8E9FFCCC89D
:10509400EAFFEECF01F00150E50A0AE0CBC8E9FFD0
:1050A400CCC8EAFFEECF01F0200E015C01E318D07A
:1050B400CBC8E9FFCCC8EAFFEECF01F0140E015CC7
:1050C4000EE20B0E0801CB25E96E000ECC21EA6E30
:1050D4003F0EEE14016E01500F0A01E101D003D01E
:1050E4000801E56B32D00801E551000A10E1CDC892
:1050F400D1F8CEC8D2F8CFC8D3F8D0C8D4F8D5C820
:10510400DDF8D6C8DEF8D7C8DFF8D8C8E0F8E52B54
:10511400E551C6191AE1C9C8E1FFCAC8E2FFD1C8FE
:10512400E6FFD2C8E6FFD3C8E6FFD4C8E6FFC7C887
:10513400E1FFC8C8E2FFDDC8E6FFDEC8E6FFDFC85E
:10514400E6FFE0C8E6FF006AD7D0200ECB27000EAA
:10515400CC23010ECD27000ECE23CF23D0235DD741
:10516400D5C888F9D6C889F9D7C88AF9D8C88BF9B7
:10517400BFEC02F000C0D9F801C0DAF802C0DBF8D5
:1051840003C0DCF803500F0A08E10250FF0A05E1EE
:105194000150FF0A02E10050FF0AD8A4A4D079EC20
:1051A40012F000C0D9F801C0DAF802C0DBF803C07D
:1051B400DCF803500F0A08E10250FF0A05E1015030
:1051C400FF0A02E10050FF0A06E1F20E0201C36F7A
:1051D400FF0E006E91D0D9C8E7F8DAC8E8F8DBC84A
:1051E400E9F8DCC8EAF8D5C8EBF8D6C8ECF8D7C8B3
:1051F400EDF8D8C8EEF84BEC1BF00050000A03E0C1
:10520400FF0E006E79D0C80E09011B6F020E1C6FD1
:105214001D6B000E1E6F020E1F6FE2EC08F0D9C862
:1052240088F9DAC889F9DBC88AF9DCC88BF97AEC21
:1052340002F000C0E1F801C0E2F802C0E3F803C0E4
:10524400E4F80801E66B0401DC510801E65D19E2AB
:10525400E1C809F9E2C80AF9E3C80BF9E4C80CF992
:10526400010EE127000EE223E323E423DDEC0CF03E
:105274000050000A03E0FF0E006E3ED00801E62B4A
:10528400E2D7E551000A15E1C9C8E1FFCAC8E2FF47
:10529400E66AE66AE66AE66AC7C8E1FFC8C8E2FFEA
:1052A400D9C8E6FFDAC8E6FFDBC8E6FFDCC8E6FFDC
:1052B40018D0C9C8E1FFCAC8E2FFD1C8E6FFD2C806
:1052C400E6FFD3C8E6FFD4C8E6FFC7C8E1FFC8C8F5
:1052D400E2FFDDC8E6FFDEC8E6FFDFC8E6FFE0C8A0
:1052E400E6FF006A09D0D9C8D5F8DAC8D6F8DBC811
:0A52F400D7F8DCC8D8F836D612004F
:1052FE00C6C8E9FFC7C8EAFFEE50000A07E1C40EB0
:10530E000201C36FFF0E006E1AEF30F0C8C81BF912
:10531E00C9C81CF9200E09011D6F0B0E1E6F000E61
:10532E001F6FE2EC08F0C6C8E9FFC7C8EAFFEE50EF
:10533E002E0A13E1010E0801C625E96E000EC721E3
:10534E00EA6EEE50000A09E1C8C8E1FFC9C8E2FFE3
:10535E002E0EE66E006A1AEF30F0C6C8E9FFC7C817
:10536E00EAFFEE502E0A24E10801010EC625E96E71
:10537E00000EC721EA6EEE502E0A1AE1020EC62565
:10538E00E96E000EC721EA6EEE50000A11E1C8C8A0
:10539E00E1FFC9C8E2FF2E0EE66E010EC825E16ED2
:1053AE00000EC921E26E2E0EE66E006A1AEF30F084
:1053BE00C6C8E9FFC7C8EAFFEE502E0A07E1E20EA3
:1053CE000201C36FFF0E006E1AEF30F0C6C809F966
:1053DE00C7C80AF993EC0FF000C0D8F801C0D9F88D
:1053EE00C6C8E7F8C7C8E8F82CEC1CF000C0D5F822
:1053FE000050FF0A04E1FF0E006E1AEF30F0010EAE
:10540E000801D85D006E000ED959016E0050C625F8
:10541E00E96E0150C721EA6EEE502E0A10E0010E21
:10542E00D85D006E000ED959016E0050C625E96E8A
:10543E000150C721EA6EEE50200A01E015D0800E11
:10544E00006E800ED919005C02E1D85100080CE202
:10545E00D851C625E16ED951C721E26EE66A010E1A
:10546E00D85F000ED95BCBD7000ED91902E1000E22
:10547E00D81904E1FF0E006E1AEF30F0000ED5BF02
:10548E00FF0E006E000E001802E1000ED5190BE0A3
:10549E00000ED5BFFF0E006E000E001802E1020EC8
:1054AE00D51901E08DD0D06BCF6B080ECF5D2EE2FB
:1054BE00D051C625E96E000EC721EA6EEE502E0AB7
:1054CE000AE0D051C625E96E000EC721EA6EEE50F5
:1054DE00000A01E001D01AD0CF51C825DA6F000EB4
:1054EE00C921DB6FD051C625E96E000EC721EA6EC9
:1054FE00EECF00F988EC0FF0DAC8E1FFDBC8E2FF6F
:10550E0000C0E6FF0801D02BCF2BCFD7D051C62538
:10551E00E96E000EC721EA6EEE50000A0AE1C8C815
:10552E00E7F8C9C8E8F8E96BEA6B3AEC1DF01AEF38
:10553E0030F00801D051C625E96E000EC721EA6E83
:10554E00EE502E0A02E1D02B07D0E20E0201C36FFD
:10555E00FF0E006E1AEF30F0080E0801CF6F0B0E23
:10556E00CF5D24E2D051C625E96E000EC721EA6E4A
:10557E00EE50000A01E11AD0CF51C825DA6F000EA5
:10558E00C921DB6FD051C625E96E000EC721EA6E28
:10559E00EECF00F988EC0FF0DAC8E1FFDBC8E2FFCE
:1055AE0000C0E6FF0801D02BCF2BD9D7C8C8E7F82B
:1055BE00C9C8E8F8E96BEA6B3AEC1DF01AEF30F067
:1055CE00000E0801D5BFFF0E006E000E001802E19E
:1055DE00010ED519D8A417EF30F0D8C8D2F8010EA5
:1055EE00D85DD36F000ED959D46FD351C625E96E4D
:1055FE00D451C721EA6EEE502E0A0EE0800E006ED8
:10560E00800ED419005C02E1D351000805E2010EB0
:10561E00D35F000ED45BE9D7800E006E800ED419D6
:10562E00005C02E1D35100084EE2D3C8D2F8D34B4E
:10563E00D42B080ECF6F0B0ECF5D45E2D351C6258E
:10564E00E96ED451C721EA6EEE50000A3CE0D35108
:10565E00C625E96ED451C721EA6EEECF1BF9B0EC28
:10566E0008F000521AE10801CF51C825DA6F000E7A
:10567E00C921DB6FD351C625E96ED451C721EA6E1D
:10568E00EECF00F988EC0FF0DAC8E1FFDBC8E2FFDD
:10569E0000C0E6FF0801CF2B13D00801D351C62559
:1056AE00E96ED451C721EA6EEE50200A09E0CF51BF
:1056BE00C825E16E000EC921E26E5F0EE66ECF2B9D
:1056CE00D34BD42BB8D7D2C8D3F8000ED46FD06B2F
:1056DE00CF6B080ECF5D57E2D051C625E96E000E96
:1056EE00C721EA6EEE50000A01E14DD0000ED4192A
:1056FE0002E1D351D01901E146D0D051C625E96E51
:10570E00000EC721EA6EEE502E0A0AE0D051C625D1
:10571E00E96E000EC721EA6EEE50200A01E001D0BC
:10572E0030D0D051C625E96E000EC721EA6EEECFFD
:10573E001BF9B0EC08F000521AE10801CF51C82550
:10574E00DA6F000EC921DB6FD051C625E96E000E4F
:10575E00C721EA6EEECF00F988EC0FF0DAC8E1FF50
:10576E00DBC8E2FF00C0E6FF0801CF2B0AD008011C
:10577E00CF51C825E16E000EC921E26E5F0EE66EB6
:10578E00CF2BD02BA6D7010ED66F060ECF5D03E220
:10579E00CFC8CAF802D0060ECA6FCAC8D2F8CA510C
:1057AE00C825E16E000EC921E26E7E0EE66E010E78
:1057BE00D16FD15109083BE3D651000A38E0D251DE
:1057CE00010F006E016A000E01220050C825E16E25
:1057DE000150C921E26E300ED125006E00C0E6FFE9
:1057EE00C8C8E7F8C9C8E8F8E96BEA6B3AEC1DF0EF
:1057FE0000C0D6F80050FF0A04E1FF0E006E1AEF4B
:10580E0030F00801D651010A0FE1C6C8E7F8C7C843
:10581E00E8F86EEC1EF000C0D7F80050000A04E065
:10582E00D7C800F01AEF30F00801D12BC2D7D651ED
:10583E00000AD8B475D0050ECF5D03E2CFC8CBF801
:10584E0002D0050ECB6FCBC8D2F8CB51C825E16E76
:10585E00000EC921E26E7E0EE66E0A0ED16FD15198
:10586E0063085EE3D651000A5BE0D251010F006E71
:10587E00016A000E01220050C825DA6F0150C921BD
:10588E00DB6F0A0E046ED1C800F05FEC20F0300E14
:10589E000026DAC8E1FFDBC8E2FF00C0E6FF020E19
:1058AE00D225006E016A000E01220050C825DA6F63
:1058BE000150C921DB6F0A0E046ED1C800F05FECF7
:1058CE0020F008C000F0300E0026DAC8E1FFDBC879
:1058DE00E2FF00C0E6FFC8C8E7F8C9C8E8F8E96B00
:1058EE00EA6B3AEC1DF000C0D6F80050FF0A03E157
:1058FE00FF0E006E98D30801D651010A0EE1C6C8FC
:10590E00E7F8C7C8E8F86EEC1EF000C0D7F80050F4
:10591E00000A03E0D7C800F086D30801D12B9FD729
:10592E00D651000AD8B49DD0040ECF5D03E2CFC885
:10593E00CCF802D0040ECC6FCCC8D2F8CC51C8250E
:10594E00E16E000EC921E26E7E0EE66E640ED16F20
:10595E00800E030A006E800E005C02E1D151E70852
:10596E00D8A07FD0D651000AD8B47BD0D251010F27
:10597E00006E016A000E01220050C825DA6F015038
:10598E00C921DB6F640E046ED1C800F05FEC20F00D
:10599E00300E0026DAC8E1FFDBC8E2FF00C0E6FFEA
:1059AE00020ED225006E016A000E01220050C8259B
:1059BE00DA6F0150C921DB6F0A0E046ED1C800F0F8
:1059CE005FEC20F00A0E046E5FEC20F008C000F0D1
:1059DE00300E0026DAC8E1FFDBC8E2FF00C0E6FFAA
:1059EE00030ED225006E016A000E01220050C8255A
:1059FE00DA6F0150C921DB6F0A0E046ED1C800F0B8
:105A0E005FEC20F008C000F0300E0026DAC8E1FF8F
:105A1E00DBC8E2FF00C0E6FFC8C8E7F8C9C8E8F86F
:105A2E00E96BEA6B3AEC1DF000C0D6F80050FF0AA5
