:1000000092EF00F00000000000EF00F000000000A0
:0A0010000000000000000000F3D71C
:0E001C00ACB202D00000FCD727C0ADFF12002E
:0A002A001D0E0D6E0D2EFED7120004
:10003400266A23C0E9FF24C0EAFFEECF25F025504D
:10004400000A0DE025C027F0E7DF262A26502324E6
:10005400E96E000E2420EA6EEECF25F0F0D71200F0
:10006400830EC21623C000F00036009000360090C4
:100074000050C212D8DFC282C2A201D0FDD7C4CFC1
:1000840001F0006A00C024F001C025F0C350001242
:10009400000E011200C024F001C025F0000E00146F
:1000A400026E0150800B036E000E031802E1000E75
:1000B400021802E0246A256A24C000F025C001F079
:0200C400120028
:1000C6000900F5CFE6FF0006FBE10106F9E11200A3
:1000D600640E1D6E000E1E6E230E1F6E000E206E29
:1000E600C26A16502314006E0AE0165023140F013C
:1000F600426F428F42BD02D00000FCD702D00F01F2
:10010600426B151C006E0050C11615502314006E6C
:0E0116000050C1120F0EC012C08EC280120027
:10012400CFEC00F0700ED36E9B6A0F013A6B3B6B01
:10013400380E236ECEDF236A93DF00C021F001C0A6
:1001440022F0150E0B6E4B0E0C6EBE0E0D6E0D2EA8
:10015400FED70C2EFCD70B2EFAD70000170E236EF9
:10016400000E246E65DF150E0B6E4B0E0C6EBE0E6C
:100174000D6E0D2EFED70C2EFCD70B2EFAD70000D9
:0A01840021C027F049DFD7D7FFD7CD
:10019E0010EE15F0080E006E010E016E8E0EF66E4C
:0E01AE00010EF76E000EF86E63EC00F012000A
:01018E000F61
:01018F00303F
:0601900048656C6C6F0075
:08019600332E322E322E300010
:020000040030CA
:0D00010028193CFFBF81FF0FC00FE00F402A
:00000001FF
