:100000007AEF41F00000000000EF00F00000000077
:0A0010000000000000000000F3D71C
:10001C00A9C96FFF6DB002D00000FCD76FCF00F004
:02002C001200C0
:10002E00A9C9C9FFC7B002D00000FCD7C9CF00F0E4
:02003E001200AE
:10004000F250026EF29E0500FF6A0150FE6E0050F3
:08005000FD6E02BEF28E1200EB
:10005800838838C7E1FF39C7E2FFFF0EE66E36C76F
:0A00680000F037C701F0E8DF1200D6
:10007200400E0901A025006E38C7E1FF39C7E2FF33
:1000820000C0E6FF36C700F037C701F0D8DF38C737
:10009200E1FF39C7E2FFA4C9E6FF36C700F037C760
:1000A20001F0CDDF38C7E1FF39C7E2FFA3C9E6FFA0
:1000B20036C700F037C701F0C2DF38C7E1FF39C7E2
:1000C200E2FFA2C9E6FF36C700F037C701F0B7DF8B
:1000D20038C7E1FF39C7E2FFA1C9E6FF36C700F022
:1000E20037C701F0ACDF38C7E1FF39C7E2FFA5C966
:1000F200E6FF36C700F037C701F0A1DF0901A76BA1
:10010200A86B38C7E1FF39C7E2FFFF0EE66E36C7BC
:1001120000F037C701F093DF00C0A6F90901A74B31
:10012200A82B800E0014016E0150000A07E0000E99
:10013200A85D02E1640EA75D01E2E3D7A6C900F063
:020142001200A9
:04014400839812008A
:1001480038C7E1FF39C7E2FF4C0EE66E36C700F04C
:1001580037C701F071DF38C7E1FF39C7E2FFE66A48
:1001680036C700F037C701F067DF38C7E1FF39C786
:10017800E2FFE66A36C700F037C701F05DDF38C72F
:10018800E1FF39C7E2FFE66A36C700F037C701F07A
:1001980053DF38C7E1FF39C7E2FFE66A36C700F028
:1001A80037C701F049DF38C7E1FF39C7E2FFFF0E63
:1001B800E66E36C700F037C701F03EDF0901A16BD4
:1001C800A26B38C7E1FF39C7E2FFFF0EE66E36C7FC
:1001D80000F037C701F030DF00C0A0F90901A14BDA
:1001E800A22B800E0014016E0150000A07E0000ED9
:1001F800A25D02E1640EA15D01E2E3D7A0AF04D0E5
:1002080027DFA0C900F012D038C7E1FF39C7E2FFE5
:10021800FF0EE66E36C700F037C701F00DDF00C0ED
:0E022800A0F90050000AF0E013DF006A120097
:1002360086DF000E000A03E1040E0101671909E1D9
:1002460092C99AF993C99BF994C99CF995C99DF9E4
:1002560014D0090E006E92C99AF993C99BF994C9F4
:100266009CF995C99DF9005008E009019A379A91C1
:100276009B379C379D37FF0FF7D70901110EA06FEB
:100286009AC9A1F99BC9A2F99CC9A3F99DC9A4F968
:10029600FF0EA56FEBDE005204E0DBDE010E006E02
:1002A6004BD038C7E1FF39C7E2FFFF0EE66E36C70F
:1002B60000F037C701F0C1DE0050FE0A01E0F1D7B9
:1002C6000901986B996B020E995D02E1000E985D2B
:1002D6001BE2985196259E6F995197219F6F38C7BB
:1002E600E1FF39C7E2FFFF0EE66E36C700F037C7FB
:1002F60001F0A3DE9EC9E1FF9FC9E2FF00C0E6FF51
:100306000901984B992BDFD738C7E1FF39C7E2FFC0
:10031600FF0EE66E36C700F037C701F08EDE38C72F
:10032600E1FF39C7E2FFFF0EE66E36C700F037C7BA
:0A03360001F083DE8EDE006A120083
:1003400003DF0050000A03E0FF0E006E01D0006AD8
:02035000120099
:1003520006010B51000A04E00B51020A01E002D02F
:10036200006A0DD0ECDF000E001806E0FF0E060159
:100372000A6FFF0E006E03D006010B6B006A1200BB
:100382008CC992F98DC993F98EC994F98FC995F9DF
:1003920090C996F991C997F94DDF0050000A03E020
:0A03A200FF0E006E01D0006A120089
:1003AC0006010B51030A1FE1CEDF0050000A05E0E5
:1003BC00FF0E0A6FFF0E006E5CD00301CF510901D6
:1003CC008B190EE10301CE5109018A1909E10301D0
:1003DC00CD510901891904E10301CC510901881996
:1003EC0002E1006A46D006010B51010A05E1FF0E3D
:1003FC000A6FFF0E006E3DD009018B510301CF191E
:10040C000EE109018A510301CE1909E10901895153
:10041C000301CD1904E1090188510301CC1928E02D
:10042C0088C98CF989C98DF98AC98EF98BC98FF95C
:10043C00D00E0901906F030E916F9DDF000E001816
:10044C000FE0FF0E0301CC6FFF0ECD6FFF0ECE6FD2
:10045C00FF0ECF6FFF0E06010A6FFF0E006E09D064
:10046C0088C9CCF389C9CDF38AC9CEF38BC9CFF334
:04047C00006A120000
:10048000090184517A0806E3610E845D03E3010EDD
:08049000006E01D0006A1200A9
:10049800026A110E025C17E2D90E0224F66E850E6E
:1004A800F76E000EF722000EF86E000EF822090013
:1004B800F5CF01F001500901841903E1010E006E26
:0A04C80003D0022AE6D7006A1200F2
:1004D20038C7E1FF39C7E2FFFF0EE66E36C700F00C
:1004E20037C701F0ACDD0050FE0A01E0F1D712007F
:1004F20084C905F085C906F086C907F087C908F0E6
:100502000501F051055EF151065AF251075AF351B5
:10051200085ABCC304F005C000F006C001F007C0D1
:1005220002F008C003F0045007E0003600900136E4
:1005320002360336FF0FF8D7F6510026F751012293
:0A054200F8510222F95103221200C1
:10054C0009018451390806E3300E845D03E3010E82
:08055C00006E01D0006A1200DC
:10056400090184515A0806E3410E845D03E3010E38
:08057400006E01D0006A1200C4
:10057C000501F3510901875D0EE10501F2510901F5
:10058C00865D09E10501F1510901855D04E1050173
:10059C00F0510901845D15E3060109510901875DDC
:1005AC000EE1060108510901865D09E106010751BA
:1005BC000901855D04E1060106510901845D01E232
:1005CC000CD0F40E06010A6FFF0E006EFF0E016ECA
:1005DC00FF0E026E0F0E036E64D023C700F084C9A9
:1005EC0088F985C989F986C98AF987C98BF90050B8
:1005FC0008E009018B338A33893388338B9FFF0FD3
:10060C00F7D70501EC51090188270501ED510901C6
:10061C0089230501EE5109018A230501EF510901D6
:10062C008B23BEDE0050000A09E0FF0E006EFF0EA9
:10063C00016EFF0E026E0F0E036E33D024C700F056
:10064C0025C701F026C702F027C703F0010E005E94
:10065C00000E015A025A035A005009018415046E07
:10066C0001508515056E02508615066E03508715D0
:10067C00076E04C000F005C001F000360090013692
:10068C00003600900136D00E0024E96E030E0120D6
:10069C00EA6EEECF00F0EECF01F0EECF02F0EECF2F
:0406AC0003F0120045
:1006B00049DD000E000A03E1040E0101671909E19A
:1006C0006DC971F96EC972F96FC973F970C974F99E
:1006D00014D0090E006E6DC971F96EC972F96FC937
:1006E00073F970C974F9005008E00901713771910C
:1006F000723773377437FF0FF7D70901120EA06FE7
:1007000071C9A1F972C9A2F973C9A3F974C9A4F98D
:10071000FF0EA56FAEDC005204E09EDC010E006E01
:0607200001D0006A120086
:100726006DC984F910DF005211E16DC984F917DF34
:1007360000520CE16DC984F9A0DE005207E16DC9D3
:1007460084F9A7DE005202E1006A02D0010E006EB3
:0207560012008F
:10075800BCDE09016F6B706B020E705D02E1000E6A
:100768006F5D1BE26F516D25716F70516E21726F55
:1007780038C7E1FF39C7E2FFFF0EE66E36C700F063
:1007880037C701F059DC71C9E1FF72C9E2FF00C047
:10079800E6FF09016F4B702BDFD738C7E1FF39C778
:1007A800E2FFFF0EE66E36C700F037C701F044DC03
:1007B80038C7E1FF39C7E2FFFF0EE66E36C700F023
:0807C80037C701F039DC120013
:1007D000CCC37FF9CDC380F9CEC381F9CFC382F9F1
:1007E0006DC977F96EC978F96FC979F970C97AF965
:1007F0000501F3510901705D0EE10501F251090196
:100800006F5D09E10501F15109016E5D04E105012A
:10081000F05109016D5D15E30601095109017A5D89
:100820000EE1060108510901795D09E10601075150
:100830000901785D04E1060106510901775D01E2D5
:1008400006D0F40E06010A6FFF0E006ECED009012D
:10085000836BCAC300F071C901F072C902F073C999
:1008600003F074C904F0005007E00432033202328E
:100870000132049EFF0FF8D70450000809E103502D
:10088000000806E10250000803E109010150835D00
:1008900055E277C984F978C985F979C986F97AC9A1
:1008A00087F96CDE00C077F901C078F902C079F9E8
:1008B00003C07AF903500F0A08E10250FF0A05E16C
:1008C0000150FF0A02E10050FF0A06E1F10E0601A5
:1008D0000A6FFF0E006E89D00501F35109017A5DA0
:1008E0000EE10501F2510901795D09E10501F151BE
:1008F0000901785D04E10501F0510901775D15E317
:100900000601095109017A5D0EE10601085109014C
:10091000795D09E1060107510901785D04E10601ED
:1009200006510901775D01E206D0F40E06010A6F57
:10093000FF0E006E5AD00901832B8BD70901D0C559
:1009400000F0D1C501F0D2C502F0D3C503F0010E0D
:10095000005E000E015A025A035A005071157B6F57
:10096000015072157C6F025073157D6F0350741522
:100970007E6F77C984F978C985F979C986F97AC90A
:1009800087F9B7DDCBC308F07BC904F07CC905F05B
:100990007DC906F07EC907F0085007E0073206322D
:1009A00005320432079EFF0FF8D775C9E1FF76C9FB
:1009B000E2FF04500024E66E05500120E66E06506A
:1009C0000220E66E07500320E66E7FC988F980C9D1
:1009D00089F981C98AF982C98BF9E8DC0050000ADB
:0C09E00003E0FF0E006E01D0006A120060
:1009EC0009016D515A0804E3410E6D5DD8B06D8B51
:0609FC006DC900F01200BD
:100A02006FC904F070C905F06DC902F06EC903F038
:100A120071C900F072C901F0010E0901715F000E87
:100A2200725B005001100FE004C0E9FF05C0EAFF4D
:100A320002C0E1FF03C0E2FFEECFE6FF024A032A53
:100A4200044A052AE5D76DC900F06EC901F012000B
:100A52000B6A0A6A096A00500402F4CF09F0F3CF64
:100A620008F001500502F4CF0BF0F3CF0AF000506A
:100A72000502F3500926F4500A22E86A0B220150BB
:100A82000402F3500926F4500A22E86A0B2208C035
:100A920000F009C001F00AC002F00BC003F012001E
:0E0AA20059C96DF95AC96EF956DE006A120084
:100AB000056A046A0B0E055C22E2010E0414016E45
:100AC000070E006E01C003F0005004E003360390EF
:100AD000FF0FFBD7FE0E0414026E02C000F00032BE
:100AE000009E00500310046E055009015925D96E6F
:100AF000000E5A21DA6EDE500426052ADBD704C028
:040B000000F01200EF
:100B0400010E09015925E96E000E5A21EA6E5BC9EE
:100B1400E1FF5CC9E2FFEECFE6FF010E5B25E16E6B
:100B2400000E5C21E26E030E5925E96E000E5A2177
:100B3400EA6EEECFE6FF020E5B25E16E000E5C214D
:100B4400E26E050E5925E96E000E5A21EA6EEECFCB
:100B5400E6FF030E5B25E16E000E5C21E26E070EDC
:100B64005925E96E000E5A21EA6EEECFE6FF040E17
:100B74005B25E16E000E5C21E26E090E5925E96EDB
:100B8400000E5A21EA6EEECFE6FF050E5B25E16EFC
:100B9400000E5C21E26E0E0E5925E96E000E5A21FC
:100BA400EA6EEECFE6FF060E5B25E16E000E5C21D9
:100BB400E26E100E5925E96E000E5A21EA6EEECF50
:100BC400E6FF070E5B25E16E000E5C21E26E120E5D
:100BD4005925E96E000E5A21EA6EEECFE6FF080EA3
:100BE4005B25E16E000E5C21E26E140E5925E96E60
:100BF400000E5A21EA6EEECFE6FF090E5B25E16E88
:100C0400000E5C21E26E160E5925E96E000E5A2183
:100C1400EA6EEECFE6FF0A0E5B25E16E000E5C2164
:100C2400E26E180E5925E96E000E5A21EA6EEECFD7
:100C3400E6FF0B0E5B25E16E000E5C21E26E1C0EDE
:100C44005925E96E000E5A21EA6EEECFE6FF0C0E2E
:100C54005B25E16E000E5C21E26E1E0E5925E96EE5
:0E0C6400000E5A21EA6EEECFE6FF006A120083
:100C720059C96DF95AC96EF95BC96FF95CC970F946
:100C820016DD0050000A03E0FF0E006E01D0006A7C
:020C920012004E
:100C940059C96DF95AC96EF95BC96FF95CC970F924
:100CA4005DC971F95EC972F95FC973F960C974F9F4
:100CB40061C975F962C976F989DD0050000A03E05B
:100CC400FF0E006E15D061C9E9FF62C9EAFFEECFDD
:100CD40088F9EECF89F9EECF8AF9EECF8BF9D6EC0D
:100CE40001F00050000A03E0FF0E006E01D0006A1C
:020CF4001200EC
:100CF600A2EC00F0000E000A03E1040E01016719E0
:100D060009E159C961F95AC962F95BC963F95CC954
:100D160064F914D0090E006E59C961F95AC962F90D
:100D26005BC963F95CC964F9005008E009016137E1
:100D36006191623763376437FF0FF7D70901180EE1
:100D4600A06F61C9A1F962C9A2F963C9A3F964C90F
:100D5600A4F9FF0EA56F39EC00F0005205E02CEC6B
:100D660000F0010E006E95D038C7E1FF39C7E2FFEB
:100D7600FF0EE66E36C700F037C701F020EC00F034
:100D860038C7E1FF39C7E2FFFF0EE66E36C700F04F
:100D960037C701F020EC00F038C7E1FF39C7E2FFA2
:100DA600FE0EE66E36C700F037C701F020EC00F005
:100DB60009015F6B606B6051010802E15F51FF083A
:100DC60016E35F515D25E96E60515E21EA6E38C714
:100DD600E1FF39C7E2FFEECFE6FF36C700F037C7BF
:100DE60001F020EC00F009015F4B602BE4D738C717
:100DF600E1FF39C7E2FFFF0EE66E36C700F037C7E0
:100E060001F020EC00F038C7E1FF39C7E2FFFF0E22
:100E1600E66E36C700F037C701F020EC00F038C7A1
:100E2600E1FF39C7E2FFFF0EE66E36C700F037C7AF
:100E360001F020EC00F000C05FF9000E0901606FC0
:100E46001F0E5F15016E60C902F0000E021601C08A
:100E56005FF902C060F9000E021802E1050E0118E2
:100E660005E02CEC00F0020E006E13D038C7E1FF4F
:100E760039C7E2FFFF0EE66E36C700F037C701F04E
:100E860020EC00F00050FF0A01E0F0D72CEC00F057
:040E9600006A1200DC
:100E9A00600E09016D6F090E6E6F59C96FF95AC953
:100EAA0070F90B0E716F000E726FA6DD5D6B0B0E83
:100EBA005D5D3EE25F6B600EE96E090EEA6E5D51A2
:100ECA00E926D8B0EA2AEECF6DF928DC0050010AEB
:100EDA0003E1010E09015F6F0901600EE96E090E57
:100EEA00EA6E5D51E926D8B0EA2AEE50200A02E1FC
:100EFA00010E5F6F600EE96E090EEA6E5D51E9261A
:100F0A00D8B0EA2AEE502E0A02E1010E5F6F5F5155
:100F1A00000A0BE15BC9E1FF5CC9E2FFE66AC40EA5
:100F2A0006010A6FFF0E006EB3D009015D2BBFD711
:100F3A005E6B5D6B080E5D5D42E2600EE96E090E46
:100F4A00EA6E5D51E926D8B0EA2AEE50200A33E06B
:100F5A000C0E5925E96E000E5A21EA6EEECF01F009
:100F6A0001A618D05E515B256B6F000E5C216C6F79
:100F7A00600EE96E090EEA6E5D51E926D8B0EA2ADA
:100F8A00EECF6DF92EDD6BC9E1FF6CC9E2FF00C03F
:100F9A00E6FF10D05E515B25E16E000E5C21E26E29
:100FAA00600EE96E090EEA6E5D51E926D8B0EA2AAA
:100FBA00EECFE6FF01D003D05E2B5D2BBBD7685185
:100FCA00200A09E15E515B25E16E000E5C21E26EAA
:100FDA00E66A006A5DD05E515B25E16E000E5C2117
:100FEA00E26E2E0EE66E5E2B080E5D6F0B0E5D5DD9
:100FFA0046E2600EE96E090EEA6E5D51E926D8B046
:10100A00EA2AEECF6DF993EC03F00050000A01E1F1
:10101A0036D00C0E09015925E96E000E5A21EA6EE6
:10102A00EECF01F001A818D05E515B256B6F000E60
:10103A005C216C6F600EE96E090EEA6E5D51E9265D
:10104A00D8B0EA2AEECF6DF9CCDC6BC9E1FF6CC9E6
:10105A00E2FF00C0E6FF10D05E515B25E16E000E94
:10106A005C21E26E600EE96E090EEA6E5D51E926B8
:10107A00D8B0EA2AEECFE6FF5E2B5D2BB7D709017F
:10108A005E515B25E16E000E5C21E26EE66A006A43
:02109A00120042
:10109C00026A080E025C17E20B0E0224F66E860E34
:1010AC00F76E000EF722000EF86E000EF822090003
:1010BC00F5CF01F001500901171903E1010E006E83
:0A10CC0003D0022AE6D7006A1200E2
:1010D60006010B51030A0AE1A9EC01F00050000ACF
:1010E60005E0FF0E0A6FFF0E006E4ED00B51010A8F
:1010F60005E1FF0E0A6FFF0E006E46D00301CF51C9
:1011060009011A190EE10301CE510901191909E164
:101116000301CD510901181904E10301CC5109015C
:10112600171905E1020E06010B6F006A2DD017C9CB
:1011360059F918C95AF919C95BF91AC95CF996DD42
:101146000050000A06E0FF0E06010A6FFF0E006E51
:101156001BD0D00E0901596F030E5A6F9FDC005049
:10116600000A06E0FF0E06010A6FFF0E006E0CD0A5
:101176000601010E0B6F17C9CCF318C9CDF319C9B7
:0A118600CEF31AC9CFF3006A12007D
:1011900017C959F918C95AF919C95BF91AC95CF97B
:1011A0001BC95DF91CC95EF9A6DD0050000A03E009
:0A11B000FF0E006E01D0006A12006D
:1011BA0017C902F018C903F01AC900F01BC901F0D7
:1011CA00010E09011A5F000E1B5B0050011009E0B5
:1011DA0002C0E1FF03C0E2FF19C9E6FF024A032A7F
:0C11EA00EBD717C900F018C901F0120083
:1011F60019C959F91AC95AF91BC95BF91CC95CF90D
:101206001DC95DF91EC95EF91FC95FF920C960F9DC
:10121600550E0901616F090E626F39DD0050000A33
:1012260003E0FF0E006E9DD1B0C300F0B1C301F024
:10123600B2C302F0B3C303F0010E005E000E015A02
:10124600025A035A005009011D15046E01501E155D
:10125600056E02501F15066E03502015076E050E0B
:10126600026E04C000F005C001F0025005E0003631
:1012760000900136FF0FFAD70901D00E0024536FF4
:10128600030E0120546F010E216F080E215D0CE242
:1012960021515325E96E000E5421EA6EEE507E0A66
:1012A60001E102D0212BF1D72151080A0AE153C9E5
:1012B60059F954C95AF917C95BF918C95CF9EADD35
:1012C60050D1330E09016D6F090E6E6F53C96FF958
:1012D60054C970F9200E716F000E726F01EC05F0A3
:1012E60019C959F91AC95AF91BC95BF91CC95CF91C
:1012F600010E1D5F000E1E5B1F5B205B1DC95DF9A5
:101306001EC95EF91FC95FF920C960F9550E616FE4
:10131600090E626FBCDC0050000A03E0FF0E006E8F
:1013260020D1B0C300F0B1C301F0B2C302F0B3C321
:1013360003F0010E005E000E015A025A035A0050D5
:1013460009011D15046E01501E15056E02501F156C
:10135600066E03502015076E050E026E04C000F0DF
:1013660005C001F0025005E0003600900136FF0F7F
:10137600FAD7D00E0026030E012200C031F901C0B3
:1013860032F90B0E0024E96E000E0120EA6E3F0EC4
:10139600EE14016E01500F0A0BE00901330E596F6E
:1013A600090E5A6F17C95BF918C95CF973DDD9D0F4
:1013B600330E0901596F090E5A6F58EC05F000C03B
:1013C60023F9010E0901226F0B0E3125E96E000E7D
:1013D6003221EA6E3F0EEE14016E01500F0A06E04E
:1013E600C00E06010A6FFF0E006EBBD00D0E09017E
:1013F6003125E96E000E3221EA6EEE50231906E021
:10140600C10E06010A6FFF0E006EABD031C9E9FFAF
:1014160032C9EAFFEECF00F01F0E0014016E015034
:101426000901221906E0C20E06010A6FFF0E006EC0
:1014360098D031C959F932C95AF9240E09015B6F9E
:10144600090E5C6F82EC05F0216B2205006E016AC5
:10145600000E015A0D0E046E000E056E29EC05F005
:1014660021510026000E012200501725E16E015081
:101476001821E26E240EE96E090EEA6E2151E92664
:10148600D8B0EA2AEECFE6FF212B0D0E215D0CE245
:10149600240EE96E090EEA6E2151E926D8B0EA2A31
:1014A600EE50000A01E0D1D731C9E9FF32C9EAFF9F
:1014B600EECF01F001AC02D0006A53D0222B19C93D
:1014C60059F91AC95AF91BC95BF91CC95CF9010E0D
:1014D6001D5F000E1E5B1F5B205B1DC95DF91EC9EB
:1014E6005EF91FC95FF920C960F9550E616F090ED3
:1014F600626F4AEC06F00050000A03E0FF0E006E31
:1015060030D0B0C300F0B1C301F0B2C302F0B3C330
:1015160003F0010E005E000E015A025A035A0050F3
:1015260009011D15046E01501E15056E02501F158A
:10153600066E03502015076E050E026E04C000F0FD
:1015460005C001F0025005E0003600900136FF0F9D
:10155600FAD70901D00E0024316F030E0120326F35
:0415660033D7120065
:0E156A0017C9E9FF18C9EAFFEECF00F0120022
:10157800010E09011725E96E000E1821EA6EEECF5B
:1015880003F0000E046E000E046E03C001F0006A42
:1015980000C003F001C004F017C9D9FF18C9DAFF69
:1015A800DE500026000E012200C003F001C004F046
:0A15B80000C003F001C004F01200AF
:1015C200030E09011725E96E000E1821EA6EEECF0F
:1015D20009F0000E0A6E0B6E0C6E000E0A6E0B6E98
:1015E2000C6E0BC003F00AC002F009C001F0006AE1
:1015F20000C009F001C00AF002C00BF003C00CF0F9
:10160200020E1725D96E000E1821DA6EDE50002464
:10161200056E000E0120066E000E0220076E000EFF
:101622000320086E05C009F006C00AF007C00BF0DF
:1016320008C00CF007C003F006C002F005C001F0BC
:10164200006A00C009F001C00AF002C00BF003C03A
:101652000CF0010E1725D96E000E1821DA6EDE503D
:101662000024056E000E0120066E000E0220076E99
:10167200000E0320086E05C009F006C00AF007C07C
:101682000BF008C00CF007C003F006C002F005C062
:1016920001F0006A00C009F001C00AF002C00BF0BC
:1016A20003C00CF017C9D9FF18C9DAFFDE500026B3
:1016B200000E01220222032200C009F001C00AF03A
:1016C20002C00BF003C00CF000C009F001C00AF028
:0A16D20002C00BF003C00CF0120080
:1016DC000901886B896B8A6B8B6BD6EC01F000501F
:1016EC00000A03E0FF0E006E27D1D00E0901056F32
:1016FC00030E066FD00E076F030E086FFE0E052546
:10170C00176F010E0621186F31DF0150AA0A02E192
:10171C00550E001806E0FC0E06010A6FFF0E006E57
:10172C000BD107C9E9FF08C9EAFFEECF01F0015060
:10173C00E90A15E007C9E9FF08C9EAFFEECF01F095
:10174C000150EB0A0BE1020E09010725E96E000EB0
:10175C000821EA6EEE50900A01E101D006D0FB0E92
:10176C0006010A6FFF0E006EE7D00901006B010E37
:10177C00005DD8B0E0D00A0E006E000E016E00C9FC
:10178C0004F0000E056E29EC05F0D60E0026050EB1
:10179C00012200C009F901C00AF9BE0E0525176F18
:1017AC00010E0621186F040E026E00C900F0000E27
:1017BC00016E025005E0003600900136FF0FFAD79B
:1017CC000050172701501823CADE09C9E1FF0AC9C6
:1017DC00E2FF00C0E6FF0A0E006E000E016E00C9AB
:1017EC0004F0000E056E29EC05F0D60E0026050E51
:1017FC000122010E0024096F000E01200A6FBE0E9B
:10180C000525176F010E0621186F040E026E00C914
:10181C0000F0000E016E025005E00036009001361B
:10182C00FF0FFAD70050172701501823040E172763
:10183C00000E182394DE09C9E1FF0AC9E2FF00C0BB
:10184C00E6FF0A0E006E000E016E00C904F0000ED9
:10185C00056E29EC05F0D60E0026050E0122020EAF
:10186C000024096F000E01200A6FBE0E0525176FAC
:10187C00010E0621186F040E026E00C900F0000E56
:10188C00016E025005E0003600900136FF0FFAD7CA
:10189C000050172701501823080E1727000E182385
:1018AC008ADE09C9E1FF0AC9E2FF00C0E6FF01C0F8
:1018BC00E6FF02C0E6FF03C0E6FF0A0E006E000E54
:1018CC00016E00C904F0000E056E29EC05F0D60E71
:1018DC000026050E0122060E0024096F000E0120C1
:1018EC000A6FBE0E0525176F010E0621186F040E28
:1018FC00026E00C900F0000E016E025005E00036C9
:10190C0000900136FF0FFAD700501727015018230B
:10191C000C0E1727000E18234EDE09C9E1FF0AC969
:10192C00E2FF00C0E6FF01C0E6FF02C0E6FF03C015
:0A193C00E6FF002B1CD7006A120022
:10194600010E066E000E076E086E096E056A800EA1
:10195600006E800E000A005C02E1200E055C23E2A8
:10196600065009010511016E07500611026E085056
:101976000711036E09500811046E0450091808E196
:101986000350081805E10250071802E10150061835
:1019960003E105C000F009D0063606900736083682
:0C19A6000936052AD4D7FF0E006E12008F
:1019B20006010B51030A0AE1A9EC01F00050000AEA
:1019C20005E0FF0E0A6FFF0E006E32D00B51010AC6
:1019D20005E1FE0E0A6FFF0E006E2AD005C917F947
:1019E20006C918F907C919F908C91AF9D00E090167
:1019F2001B6F030E1C6FC8EC08F0000E00180FE0FE
:101A0200FF0E0301CC6FFF0ECD6FFF0ECE6FFF0EE8
:101A1200CF6FFE0E06010A6FFF0E006E09D005C9D8
:101A2200CCF306C9CDF307C9CEF308C9CFF3006AD8
:021A32001200A0
:101A34000901056B066B270E065D02E1100E055DBC
:101A4400D8B0B0D0000E000A02E1000E001919E16E
:101A5400A2EC00F0010EA06FA16BA26BA36BA46BB0
:101A6400FF0EA56F39EC00F000C007F92CEC00F074
:101A740009010751000A04E10101676B006A94D06F
:101A84008DD0A2EC00F0370E0901A06FA16BA26B00
:101A9400A36BA46BFF0EA56F39EC00F000C007F92F
:101AA4002CEC00F009010751010AD8A476D0A2EC6D
:101AB40000F0290EA06F000EA16F000EA26F000EA1
:101AC400A36F400EA46FFF0EA56F39EC00F000C0A9
:101AD40007F92CEC00F009010751000A5DE1000E42
:101AE400000A02E1020E001952E1A2EC00F03A0EE3
:101AF400A06FA16BA26BA36BA46BFF0EA56F39EC57
:101B040000F000C007F938C7E1FF39C7E2FFFF0E54
:101B1400E66E36C700F037C701F020EC00F000C0D5
:101B240008F938C7E1FF39C7E2FFFF0EE66E36C792
:101B340000F037C701F020EC00F038C7E1FF39C7E7
:101B4400E2FFFF0EE66E36C700F037C701F020EC67
:101B540000F038C7E1FF39C7E2FFFF0EE66E36C773
:101B640000F037C701F020EC00F02CEC00F0090184
:101B74000751000A0BE108AD04D0040E0101676FA0
:101B840003D00101030E676F006A0ED005D0010176
:101B9400010E676F006A08D001D004D00901054B1B
:0A1BA400062B49D7010E006E120057
:101BAE00160E09010525176F000E0621186FDDDCD4
:101BBE000B0E046E00C002F001C003F0045005E0ED
:101BCE0003320232039EFF0FFAD71F0E0214006E6D
:101BDE0000C020F7160E0525176F000E0621186F90
:101BEE00C4DC050E046E00C002F001C003F0045008
:101BFE0005E003320232039EFF0FFAD73F0E0214A6
:101C0E00006E00C021F7160E0525176F000E062177
:101C1E00186FABDC00C002F0023602903F0E0214C9
:101C2E00006E00C022F7180E0525176F000E062154
:101C3E00186F9BDC090E046E00C002F001C003F0A9
:101C4E00045005E003320232039EFF0FFAD77F0ED7
:101C5E000214006E03C001F0000E011600C01CF746
:101C6E0001C01DF7BC0E0026070E012200C01CF796
:101C7E0001C01DF7180E0525176F000E0621186FEF
:101C8E0074DC050E046E00C002F001C003F00450B7
:101C9E0005E003320232039EFF0FFAD70F0E021435
:101CAE00006E00C01EF7180E0525176F000E0621D8
:101CBE00186F5BDC1F0E0014006E00C01FF7006A69
:021CCE00120002
:101CD0000E0E09010525176F000E0621186F4CDC4A
:101CE0000B0E046E00C002F001C003F0045005E0CA
:101CF00003320232039EFF0FFAD71F0E0214006E4A
:101D000000C0ADF30E0E0525176F000E0621186FEB
:101D100033DC050E046E00C002F001C003F0045075
:101D200005E003320232039EFF0FFAD73F0E021482
:101D3000006E00C0AEF30E0E0525176F000E0621D3
:101D4000186F1ADC00C002F0023602903F0E021437
:101D5000006E00C0AFF3100E0525176F000E0621B0
:101D6000186F0ADC090E046E00C002F001C003F017
:101D7000045005E003320232039EFF0FFAD77F0EB4
:101D80000214006E03C001F0000E011600C0A9F39A
:101D900001C0AAF3BC0E0026070E012200C0A9F361
:101DA00001C0AAF3100E0525176F000E0621186F4B
:101DB000BCEC0AF0050E046E00C002F001C003F096
:101DC000045005E003320232039EFF0FFAD70F0ED4
:101DD0000214006E00C0ABF3100E0525176F000E45
:101DE0000621186FBCEC0AF01F0E0014006E00C034
:061DF000ACF3006A1200D2
:101DF600FF0E09010725116F000E0821126F0B0E49
:101E06000525176F000E0621186FB5EC0AF011C9EB
:101E1600E1FF12C9E2FF00C0E6FF000E0725116FC1
:101E2600010E0821126F1C0E0525176F000E0621E4
:101E3600186FE1EC0AF011C9E1FF12C9E2FF00C018
:101E4600E6FF01C0E6FF02C0E6FF03C0E6FF040EA0
:101E56000725156F010E0821166F140E0525176F3D
:101E6600000E0621186FBCEC0AF000C003F001C09A
:101E760004F0000E056E066E04C014F903C013F9D3
:101E8600116B126B1A0E0525176F000E0621186FBF
:101E9600BCEC0AF0000E026E036E115100261251C0
:101EA6000122135102221451032215C9E1FF16C95A
:101EB600E2FF00C0E6FF01C0E6FF02C0E6FF03C086
:101EC600E6FF0B0E0525E96E000E0621EA6E3F0EB3
:101ED600EE14016E01500F0A28E007C917F908C968
:101EE60018F9196BFF0E1A6F000E1B6FDDEC08F068
:101EF60007C917F908C918F909C919F90AC91AF950
:101F06000BC91BF90CC91CF90DC91DF90EC91EF91F
:101F16000FC91FF910C920F9FBEC08F00050000AA0
:101F260003E0FF0E006E07D005D007C9E1FF08C920
:081F3600E2FFE66A006A1200F6
:101F3E0009C901F00AC902F0010E0901095F000E7C
:101F4E000A5B000E021802E1000E01181FE005C91F
:101F5E00E9FF06C9EAFF07C9D9FF08C9DAFFEE5043
:101F6E00DE180FE005C9E9FF06C9EAFF07C9D9FF68
:101F7E0008C9DAFFDE50EE5C006E016A000E015AEF
:101F8E0007D0054B062B074B082BD2D7006A016AE8
:021F9E0012002F
:101FA00000C96DF993EC03F0005208E100C917F97C
:101FB0004EEC08F0005202E1006A02D0010E006E01
:021FC00012000D
:101FC2000B1E0A1E091E081E082AD8B4092AD8B4F4
:081FD2000A2AD8B40B2A120000
:101FDA000450085E0550D8A0053C095E0650D8A0FA
:101FEA00063C0A5E0750D8A0073C0B5E0336070E74
:101FFA000C6E0334083609360A360B36045003A031
:10200A000ED0085E0550D8A0053C095E0650D8A03F
:10201A00063C0A5E0750D8A0073C0B5E0DD0082686
:10202A000550D8B0053C09260650D8B0063C0A2609
:10203A000750D8B0073C0B2603360C2EDAD70234E9
:10204A00083609360A360B36045003A00ED0085E4D
:10205A000550D8A0053C095E0650D8A0063C0A5E89
:10206A000750D8A0073C0B5E0DD008260550D8B003
:10207A00053C09260650D8B0063C0A260750D8B0B7
:10208A00073C0B260236070E0C6E02340836093658
:10209A000A360B36045002A00ED0085E0550D8A0AE
:1020AA00053C095E0650D8A0063C0A5E0750D8A037
:1020BA00073C0B5E0DD008260550D8B0053C092612
:1020CA000650D8B0063C0A260750D8B0073C0B2663
:1020DA0002360C2EDAD70134083609360A360B36A0
:1020EA00045002A00ED0085E0550D8A0053C095E37
:1020FA000650D8A0063C0A5E0750D8A0073C0B5EE3
:10210A000DD008260550D8B0053C09260650D8B08F
:10211A00063C0A260750D8B0073C0B260136070EA4
:10212A000C6E0134083609360A360B36045001A003
:10213A000ED0085E0550D8A0053C095E0650D8A00E
:10214A00063C0A5E0750D8A0073C0B5E0DD0082655
:10215A000550D8B0053C09260650D8B0063C0A26D8
:10216A000750D8B0073C0B2601360C2EDAD70034BC
:10217A00083609360A360B36045001A00ED0085E1E
:10218A000550D8A0053C095E0650D8A0063C0A5E58
:10219A000750D8A0073C0B5E0DD008260550D8B0D2
:1021AA00053C09260650D8B0063C0A260750D8B086
:1021BA00073C0B260036070E0C6E0034083609362B
:1021CA000A360B36045000A00ED0085E0550D8A07F
:1021DA00053C095E0650D8A0063C0A5E0750D8A006
:1021EA00073C0B5E0DD008260550D8B0053C0926E1
:1021FA000650D8B0063C0A260750D8B0073C0B2632
:10220A0000360C2EDAD700B00ED00450082605503E
:10221A00D8B0053C09260650D8B0063C0A26075015
:08222A00D8B0073C0B2612009E
:102232000134083609360450085E0550D8A0053C22
:10224200095E003601360F0E0C6E0134083609366F
:10225200045000A006D0085E0550D8A0053C095ED7
:1022620005D008260550D8B0053C092600360136AF
:102272000C2EEBD700B006D0045008260550D8B07B
:08228200053C092600001200D2
:10228A00090100517A0804E3610E005DD8B0009B91
:06229A0000C900F0120073
:1022A00005C902F006C903F002C000F003C001F046
:1022B000024A032A00C0E9FF01C0EAFFEE5201E032
:1022C000F3D709010551025C006E06510358016EF7
:0A22D000010E005E000E015A12001C
:1022DA0006010B51020A17E1010E0301CC2509017F
:1022EA00176F000E0301CD210901186F000E0301BB
:1022FA00CE210901196F000E0301CF2109011A6FBE
:10230A006BEC08F02ED00B51000A05E1FF0E0A6FA4
:10231A00FF0E006E26D0D00E0901596F030E5A6FB8
:10232A0051EC05F00050000A06E0FF0E06010A6FA4
:10233A00FF0E006E16D0010E0301CC25006E000EB2
:10234A00CD21016E000ECE21026E000ECF21036E4A
:10235A0000C0CCF301C0CDF302C0CEF303C0CFF36B
:04236A00006A1200F3
:10236E00050E0101676F95982CEC00F00801E36BE8
:10237E00E46B000EE45D02E10A0EE35D10E238C785
:10238E00E1FF39C7E2FFFF0EE66E36C700F037C732
:10239E0001F020EC00F00801E34BE42BEAD7A2ECAD
:1023AE0000F00901A06BA16BA26BA36BA46B950E41
:1023BE00A56F39EC00F000C0E5F82CEC00F0080138
:1023CE00E551010A03E0010E006E86D0A2EC00F08A
:1023DE00080E0901A06FAA0EA16F010EA26F000ECA
:1023EE00A36FA46F870EA56F39EC00F000C0E5F85F
:1023FE0038C7E1FF39C7E2FFFF0EE66E36C700F0C1
:10240E0037C701F020EC00F038C7E1FF39C7E2FF13
:10241E00FF0EE66E36C700F037C701F020EC00F075
:10242E0038C7E1FF39C7E2FFFF0EE66E36C700F090
:10243E0037C701F020EC00F038C7E1FF39C7E2FFE3
:10244E00FF0EE66E36C700F037C701F020EC00F045
:10245E002CEC00F00801E551010A0CE0010E090117
:10246E00006F1AEC0DF0005204E00901006B1AEC3B
:10247E000DF005D0020E0901006F1AEC0DF0000EE2
:10248E00000A03E1050E0101671903E1020E006E59
:10249E0023D0000E000A03E10101040E67191BE0B0
:1024AE00A2EC00F0100E0901A06F000EA16F020E3B
:1024BE00A26F000EA36FA46FFF0EA56F39EC00F094
:1024CE0000C0E5F82CEC00F00801E551000A03E02D
:0A24DE00030E006E01D0006A120028
:1024E80002C6E3F803C6E4F804C6E5F805C6E6F84C
:1024F8000501F3510601055D0EE10501F2510601E2
:10250800045D09E10501F1510601035D04E10501DE
:10251800F0510601025D14E309510801E65D0EE180
:10252800060108510801E55D09E1060107510801A6
:10253800E45D04E1060106510801E35D01E208D00B
:10254800F0C5E3F8F1C5E4F8F2C5E5F8F3C5E6F837
:10255800E3C8E7F8E4C8E8F8E5C8E9F8E6C8EAF83F
:1025680023C704F0E3C800F0E4C801F0E5C802F0AE
:10257800E6C803F0045007E00332023201320032A9
:10258800039EFF0FF8D700500501EC250901176FCE
:1025980001500501ED210901186F02500501EE21D6
:1025A8000901196F03500501EF2109011A6F24C7AA
:1025B80000F025C701F026C702F027C703F0010E77
:1025C800005E000E015A025A035A00500801E31532
:1025D800046E0150E415056E0250E515066E0350B1
:1025E800E615076E04C000F005C001F00036009043
:1025F8000136003600900136D00E0024EB6F030E32
:102608000120EC6F6BEC08F00050000A09E0FF0EA7
:10261800006EFF0E016EFF0E026E0F0E036E6FD17D
:102628000801ED6BEBC8E9FFECC8EAFFEECF01F05B
:10263800EECF02F0EECF03F0EECF04F00450000A24
:1026480008E10350000A05E10250000A02E10150C6
:10265800000A04E10801010EED6FC1D00801040E63
:10266800EB27000EEC23010EE327000EE423E523FD
:10267800E623060109510801E65D0EE1060108514D
:102688000801E55D09E1060107510801E45D04E17F
:10269800060106510801E35DD8A077D0F0C5E3F83C
:1026A800F1C5E4F8F2C5E5F8F3C5E6F8A9EC01F0E0
:1026B8000050000A09E0FF0E006EFF0E016EFF0ECB
:1026C800026E0F0E036E1BD123C704F0E3C800F09F
:1026D800E4C801F0E5C802F0E6C803F0045007E0DA
:1026E8000332023201320032039EFF0FF8D7005046
:1026F8000501EC250901176F01500501ED210901BC
:10270800186F02500501EE210901196F03500501E8
:10271800EF2109011A6F24C700F025C701F026C769
:1027280002F027C703F0010E005E000E015A025A9C
:10273800035A00500801E315046E0150E415056EB4
:102748000250E515066E0350E615076E04C000F04A
:1027580005C001F0003600900136003600900136C1
:10276800D00E0024EB6F030E0120EC6F6BEC08F029
:102778000050000A09E0FF0E006EFF0E016EFF0E0A
:10278800026E0F0E036EBBD01BD00801EC51050181
:10279800D51903E1D4510801EB1912E10801D00E53
:1027A800EB6F030EEC6F95DD0050000A09E0FF0E99
:1027B800006EFF0E016EFF0E026E0F0E036E9FD0AD
:1027C8000801E651EA1908E1E551E91905E1E45182
:1027D800E81902E1E351E71901E101D023D7A9EC97
:1027E80001F00050000A09E0FF0E006EFF0E016EB6
:1027F800FF0E026E0F0E036E82D00801ED5309E141
:10280800FF0E006EFF0E016EFF0E026E0F0E036EBE
:1028180076D0EBC8E1FFECC8E2FFFF0EE66EFF0ED4
:10282800E66EFF0EE66E0F0EE66E23C704F0E3C8F1
:1028380000F0E4C801F0E5C802F0E6C803F004506F
:1028480007E00332023201320032039EFF0FF8D74D
:1028580000500501EC250901056F01500501ED2126
:102868000901066F02500501EE210901076F0350A7
:102878000501EF210901086FD9EC0CF00050000A9E
:1028880007E0FF0E006EFF0E016E026E036E37D07A
:1028980006010151FF0A09E10051FF0A06E105019D
:1028A800FF51FF0A02E1FE51FF0A16E0FEC500F0E3
:1028B800FFC501F000C602F001C603F0010E005E7C
:1028C800000E015A025A035A00C0FEF501C0FFF576
:1028D80002C000F603C001F6E3C802F6E4C803F636
:1028E800E5C804F6E6C805F6010E0701286FE3C837
:1028F80000F0E4C801F0E5C802F0E6C803F01200F1
:102908000201C551FF0A08E1C451FF0A05E1C3519C
:10291800FF0A02E1C251FF0A06E1F60E06010A6F3C
:10292800FF0E006E8CD2BEC2E5F8BFC2E6F8C0C288
:10293800E7F8C1C2E8F80501F3510201C15D0EE1F3
:102948000501F2510201C05D09E10501F1510201E1
:10295800BF5D04E10501F0510201BE5D15E306010A
:1029680009510801E85D0EE1060108510801E75D1B
:1029780009E1060107510801E65D04E10601065177
:102988000801E55D01E206D0F40E06010A6FFF0EAC
:10299800006E55D20801EF6BCAC300F0C2C201F045
:1029A800C3C202F0C4C203F0C5C204F0005007E07D
:1029B8000432033202320132049EFF0FF8D704506A
:1029C800000809E10350000806E10250000803E18D
:1029D80008010150EF5D56E2E5C884F9E6C885F9BB
:1029E800E7C886F9E8C887F9BEEC02F000C0E5F848
:1029F80001C0E6F802C0E7F803C0E8F803500F0A80
:102A080008E10250FF0A05E10150FF0A02E1005007
:102A1800FF0A06E1F10E06010A6FFF0E006E0FD2E3
:102A28000501F3510801E85D0EE10501F2510801C5
:102A3800E75D09E10501F1510801E65D04E10501E1
:102A4800F0510801E55D15E3060109510801E85D4B
:102A58000EE1060108510801E75D09E10601075189
:102A68000801E65D04E1060106510801E55D01E2A1
:102A780006D0F40E06010A6FFF0E006EE0D10801C1
:102A8800EF2B8AD7D0C500F0D1C501F0D2C502F02E
:102A9800D3C503F0010E005E000E015A025A035A14
:102AA80000500201C2150801EB6F01500201C31565
:102AB8000801EC6F02500201C4150801ED6F0350C4
:102AC8000201C5150801EE6FE5C884F9E6C885F965
:102AD800E7C886F9E8C887F979EC02F0CBC308F0B3
:102AE800EBC804F0ECC805F0EDC806F0EEC807F036
:102AF800085007E00732063205320432079EFF0FFE
:102B0800F8D7045000240901176F05500120186FE9
:102B180006500220196F075003201A6FB0C300F047
:102B2800B1C301F0B2C302F0B3C303F0010E005EFB
:102B3800000E015A025A035A00500801EB15046EA0
:102B48000150EC15056E0250ED15066E0350EE159A
:102B5800076E050E026E04C000F005C001F00250B9
:102B680005E0003600900136FF0FFAD70801D00EB5
:102B78000024E96F030E0120EA6F6BEC08F00050A7
:102B8800000A03E0FF0E006E5AD1E9C8E9FFEAC85F
:102B9800EAFFEECF01F00150E50A0AE0E9C8E9FFD3
:102BA800EAC8EAFFEECF01F0200E015C01E318D07D
:102BB800E9C8E9FFEAC8EAFFEECF01F0140E015CAC
:102BC8000EE20B0E0801E925E96E000EEA21EA6E15
:102BD8003F0EEE14016E01500F0A01E101D09DD0A5
:102BE800A9EC01F00050000A03E0FF0E006E27D1A7
:102BF8000B0E0801E925E96E000EEA21EA6EEECF18
:102C080001F001A633D0E3C817F9E4C818F909019F
:102C1800196B100E1A6F010E1B6FDDEC08F0FF0E1A
:102C28000801E325F06F000EE421F16F0B0EE92592
:102C38000901176F000E0801EA210901186FB5ECA8
:102C48000AF0F0C8E1FFF1C8E2FF00C0E6FFE3C800
:102C58006DF9E4C86EF9E9C86FF9EAC870F90B0EA6
:102C6800716F000E726F01EC05F04DD00801E35151
:102C7800E41149E0E9C805F9EAC806F9E3C807F923
:102C8800E4C808F9BEC209F9BFC20AF9C0C20BF903
:102C9800C1C20CF9C2C20DF9C3C20EF9C4C20FF900
:102CA800C5C210F9FBEC0EF00050000A03E0FF0E5D
:102CB800006EC5D0E9C805F9EAC806F968EC0EF057
:102CC800E9C805F9EAC806F9D7EC0DF0080E0801BD
:102CD800E325E16E010EE421E26EBEC2E6FFBFC24B
:102CE800E6FFC0C2E6FFC1C2E6FF0C0EE325E16EB7
:102CF800010EE421E26EC2C2E6FFC3C2E6FFC4C20F
:102D0800E6FFC5C2E6FF010E0201C227000EC3237B
:102D1800C423C523010E006E92D0010E0801EB27D3
:102D2800000EEC23ED23EE23200EE925016E000EA4
:102D3800EA21026E01C0E9F802C0EAF8010E0201B8
:102D4800C227000EC323C423C52302500501D51989
:102D580002E1D4510118D8A471D0D00E0801E96F4E
:102D6800030EEA6FEE510501D3190EE10801ED518A
:102D78000501D21909E10801EC510501D11904E155
:102D88000801EB510501D01951E1A9EC01F00050FF
:102D9800000A03E0FF0E006E52D00801EB6BEC6BEB
:102DA800ED6BEE6BE5C884F9E6C885F9E7C886F9E6
:102DB800E8C887F9BEEC02F000C0E5F801C0E6F803
:102DC80002C0E7F803C0E8F803500F0A08E1025010
:102DD800FF0A05E10150FF0A02E10050FF0A0BE17A
:102DE800FF0E0201C26FFF0EC36FFF0EC46FFF0E0E
:102DF800C56F006A24D0E5C884F9E6C885F9E7C834
:102E080086F9E8C887F979EC02F000C017F901C023
:102E180018F902C019F903C01AF96BEC08F0005050
:102E2800000A03E0FF0E006E0AD008D06DEC11F026
:102E38000050000A03E0FF0E006E01D0A6D6120073
:102E4800160E0801E325006E000EE421016E010E46
:102E58000024E16E000E0120E26EB9C300F00036D6
:102E68000090003600900036009000C0E6FF160E75
:102E7800E325006E000EE421016E010E0024026EAF
:102E8800000E0120036EBAC300F00032009E00322B
:102E9800009E0032009E02C0E9FF03C0EAFFEE5028
:102EA800002602C0E1FF03C0E2FF00C0E6FF160EE5
:102EB800E325E16E000EE421E26E050E016EBAC351
:102EC80000F0015004E000360090FF0FFBD700C06F
:102ED800E6FF160EE325026E000EE421036EBBC367
:102EE80000F00032009E02C0E9FF03C0EAFFEE5086
:102EF800002602C0E1FF03C0E2FF00C0E6FF180E93
:102F0800E325006E000EE421016E010E0024E16E3F
:102F1800000E0120E26EBC0E0301B55D026E02C018
:102F280000F00036009000C0E6FF180E0801E32507
:102F3800006E000EE421016E010E0024026E000EE8
:102F48000120036EB7C300F00032009E0032009EDD
:102F58000032009E02C0E9FF03C0EAFFEE500026DF
:102F680002C0E1FF03C0E2FF00C0E6FF180EE32540
:102F7800E16E000EE421E26E050E016EB7C300F0AB
:102F8800015004E000360090FF0FFBD700C0E6FFB9
:102F9800180EE325016E000EE421026E01C0E9FF60
:102FA80002C0EAFF0301B851EE24006E01C0E1FF40
:0C2FB80002C0E2FF00C0E6FF006A120049
:102FC4006EEC0BF0D00E0801E46F030EE56F060102
:102FD4000A51FF0A03E1FF0E006E9ED20A51FC0A59
:102FE40003E1FF0E006E98D20A51000AD8A469D0FA
:102FF4000F0E0501D715016E01C0E6F801500B0A4A
:103004000AE00801E6510C0A06E0F80E06010A6F10
:10301400FF0E006E81D2D8C588F9D9C589F9DAC501
:103024008AF9DBC58BF9D6EC01F00050000A03E005
:10303400FF0E006E71D2D00E0801E46F030EE56F2F
:10304400FE0EE4250901176F010E0801E5210901AF
:10305400186FBCEC0AF00150AA0A02E1550E0018E0
:1030640006E0FC0E06010A6FFF0E006E55D2E4C89E
:10307400E9FFE5C8EAFFEECF01F00150E90A16E0E6
:10308400E4C8E9FFE5C8EAFFEECF01F00150EB0A1E
:103094000BE1020E0801E425E96E000EE521EA6E5B
:1030A400EE50900A01E102D0006A02D0010E006ED7
:1030B400005206E1FB0E06010A6FFF0E006E2CD2D1
:1030C40021D006010A51FB0A1DE1800E0501D66FCD
:1030D400D86BD96BDA6BDB6B200E0801E425090190
:1030E400176F000E0801E5210901186FE1EC0AF0E1
:1030F40000C0DCF501C0DDF502C0DEF503C0DFF57C
:1031040006010A6B06010A51000AD8A400D20B0E6C
:103114000801E4250901176F000E0801E5210901E2
:10312400186FBCEC0AF000C0E0F501C0E1F50D0E2B
:103134000801E4250901176F000E0801E5210901C2
:10314400186FB5EC0AF000C0E2F50E0E0801E42594
:103154000901176F000E0801E5210901186FBCEC85
:103164000AF000C0E3F501C0E4F5100E0801E425FF
:103174000901176F000E0801E5210901186FB5EC6C
:103184000AF000C0E5F5240E0801E4250901176FD3
:10319400000E0801E5210901186FE1EC0AF000C0F6
:1031A400E6F501C0E7F502C0E8F503C0E9F5280E2D
:1031B4000801E4250901176F000E0801E521090142
:1031C400186FBCEC0AF000C0EAF501C0EBF505018C
:1031D400E351D825006EE451D921016E000EDA21A5
:1031E400026E000EDB21036E00C0ECF501C0EDF5AC
:1031F40002C0EEF503C0EFF52C0E0801E425090129
:10320400176F000E0801E5210901186FE1EC0AF0BF
:1032140000C0F0F501C0F1F502C0F2F503C0F3F50A
:10322400110E0801E4250901176F000E0801E521BC
:103234000901186FBCEC0AF000C0F4F501C0F5F503
:10324400300E0801E4250901176F000E0801E5217D
:103254000901186FBCEC0AF0000E026E036E050142
:10326400D8510026D9510122DA510222DB5103221E
:1032740000C0FAF501C0FBF502C0FCF503C0FDF582
:10328400ECC5F6F5EDC5F7F5EEC5F8F5EFC5F9F5BE
:103294000801E36B0501E5510801E35D18E205014E
:1032A400E651F625006EE751F721016EE851F82149
:1032B400026EE951F921036E00C0F6F501C0F7F57D
:1032C40002C0F8F503C0F9F50801E32BE3D7050EB6
:1032D400006EE0C5B0F3E1C5B1F3000E0301B26FB7
:1032E400B36F005005E0B133B033B19FFF0FFAD78D
:1032F400000EB26FB36FE0C524F7E1C525F7000EE9
:103304000701266F276F25332433259F2533243364
:10331400259F000E266F276FE0C505F9E1C506F964
:10332400000E0901076F086FA3EC0CF000C0C9F38D
:10333400E2C505F9000E0901066F076F086FA3ECDB
:103344000CF000C0BCF3B0C305F9B1C306F9B2C3B5
:1033540007F9B3C308F9A3EC0CF000C0CBF324C7FE
:1033640005F925C706F926C707F927C708F9A3EC05
:103374000CF000C023F70301BC51C925006E00C046
:10338400A4F3010EA56F000EA66F000EA76F000E2A
:10339400A86F005007E0A537A591A637A737A8372F
:1033A400FF0FF8D7200E0901056F000E066F076F97
:1033B400086FA3EC0CF000500301A45D006E016AD9
:1033C400000E00BEFF0E015A00C004F0010E006E94
:1033D400000E016E000E026E000E036E045007E034
:1033E40000360090013602360336FF0FF8D700C0CE
:1033F400D0F501C0D1F502C0D2F503C0D3F500C0A9
:1034040005F901C006F902C007F903C008F9A3ECE5
:103414000CF000C0CAF3F0C5BEF2F1C5BFF2F2C5AC
:10342400C0F2F3C5C1F20201C26BC36BC46BC56BBE
:10343400F6C500F0F7C501F0F8C502F0F9C503F0D0
:103444000501D851005ED951015ADA51025ADB51B3
:10345400035ADCC506F6DDC507F6DEC508F6DFC58A
:1034640009F600500601065F0150075B0250085B35
:103474000350095BBCC300F0005007E00933083374
:1034840007330633099FFF0FF8D7020E0627000EF5
:103494000723082309230501D75325E1000E06015C
:1034A400095D08E1000E085D05E1FF0E075D02E11C
:1034B400F70E065D04E30B0E0501D76F14D0000E62
:1034C4000601095D08E1000E085D05E10F0E075DC8
:1034D40002E1F70E065D04E3060E0501D76F03D083
:1034E4000501010ED76F0F0ED715016E01C0E6F866
:1034F40001500B0A0AE00801E6510C0A06E0F80E36
:1035040006010A6FFF0E006E07D0006A05D006019F
:0A351400FB0E0A6FFF0E006E12009E
:10351E001A0E0801E325E16E000EE421E26EE5C805
:10352E00E6FF1A0EE325006E000EE421016E010E79
:10353E000024E16E000E0120E26EE6C8E6FF140ED6
:10354E00E325E16E000EE421E26EE7C8E6FF140EFD
:10355E00E325006E000EE421016E010E0024E16EE3
:0E356E00000E0120E26EE8C8E6FF006A1200BF
:10357C0023C704F0E7C800F0E8C801F0E9C802F07E
:10358C00EAC803F0045007E0033202320132003281
:10359C00039EFF0FF8D700C0ECF801C0EDF802C095
:1035AC00EEF803C0EFF80501EC510024086EED5164
:1035BC000120096EEE5102200A6EEF5103200B6EB2
:1035CC0008C0ECF809C0EDF80AC0EEF80BC0EFF833
:1035DC0024C700F025C701F026C702F027C703F067
:1035EC00010E005E000E015A025A035A00500801E7
:1035FC00E715046E0150E815056E0250E915066ECC
:10360C000350EA15076E04C000F005C001F0003647
:10361C0000900136003600900136D00E0024F46F75
:10362C00030E0120F56F08C088F909C089F90AC09A
:10363C008AF90BC08BF9D6EC01F00050000A03E0BC
:10364C00FF0E006E46D0F4C8E1FFF5C8E2FFE3C8F8
:10365C00E6FFE4C8E6FFE5C8E6FFE6C8E6FFECC80F
:10366C00F0F8EDC8F1F8EEC8F2F8EFC8F3F808017D
:10367C00EB6B0501E5510801EB5D22E2F0C805F9A1
:10368C00F1C806F9F2C807F9F3C808F9D9EC0CF03F
:10369C000050000A03E0FF0E006E1BD00501E6513E
:1036AC000801F0270501E7510801F1230501E85154
:1036BC000801F2230501E9510801F323EB2BD9D7BB
:1036CC00ECC8CCF3EDC8CDF3EEC8CEF3EFC8CFF316
:0436DC00006A12006E
:1036E0000E0E0801E325006E000EE421016E010EAE
:1036F0000024E16E000E0120E26EB9C300F0003636
:103700000090003600900036009000C0E6FF0E0EDC
:10371000E325006E000EE421016E010E0024026E0E
:10372000000E0120036EBAC300F00032009E00328A
:10373000009E0032009E02C0E9FF03C0EAFFEE5087
:10374000002602C0E1FF03C0E2FF00C0E6FF0E0E4C
:10375000E325E16E000EE421E26E050E016EBAC3B0
:1037600000F0015004E000360090FF0FFBD700C0CE
:10377000E6FF0E0EE325026E000EE421036EBBC3CE
:1037800000F00032009E02C0E9FF03C0EAFFEE50E5
:10379000002602C0E1FF03C0E2FF00C0E6FF100EFA
:1037A000E325006E000EE421016E010E0024E16E9F
:1037B000000E0120E26EBC0E0301B55D026E02C078
:1037C00000F00036009000C0E6FF100E0801E3256F
:1037D000006E000EE421016E010E0024026E000E48
:1037E0000120036EB7C300F00032009E0032009E3D
:1037F0000032009E02C0E9FF03C0EAFFEE5000263F
:1038000002C0E1FF03C0E2FF00C0E6FF100EE325A7
:10381000E16E000EE421E26E050E016EB7C300F00A
:10382000015004E000360090FF0FFBD700C0E6FF18
:10383000100EE325016E000EE421026E01C0E9FFC7
:1038400002C0EAFF0301B851EE24006E01C0E1FF9F
:0C38500002C0E2FF00C0E6FF006A1200A8
:10385C00E3C805F9E4C806F950EC11F000C0E8F82B
:10386C0001C0E9F8E5C805F9E6C806F950EC11F015
:10387C000801E951011802E10050E81902E0006A60
:10388C0033D0E76BE5C805F9E6C806F950EC11F042
:10389C00800E026E800E0118025C03E100500801DC
:1038AC00E75D20E20801E751E325E96E000EE42113
:1038BC00EA6EEECF00F945EC11F000C0E8F8080113
:1038CC00E751E525E96E000EE621EA6EEECF00F930
:1038DC0045EC11F00801E851001802E0006A04D030
:0A38EC00E72BD0D7010E006E12008A
:1038F600086A080E0C6E003408360450085ED8B00C
:0E39060002D00826D89000360C2EF5D71200FD
:10391400C2C2FBF8C3C2FCF8C4C2FDF8C5C2FEF8BB
:10392400BEC259F9BFC25AF9C0C25BF9C1C25CF93F
:10393400C2C25DF9C3C25EF9C4C25FF9C5C260F90F
:10394400010E0901616F090E626F4AEC06F0005026
:10395400000A03E0FF0E006E7ED1B0C300F0B1C3D5
:1039640001F0B2C302F0B3C303F0010E005E000E17
:10397400015A025A035A00500201C215046E015042
:10398400C315056E0250C415066E0350C515076EA7
:1039940004C0F7F805C0F8F806C0F9F807C0FAF84B
:1039A400050E026E04C000F005C001F0025005E0EF
:1039B400003600900136FF0FFAD7D00E002409011B
:1039C400596F030E01205A6F010E0801E66F58EC7F
:1039D40005F000C0E7F8010E0201C25F000EC35BF0
:1039E400C45BC55B000E006E0801FA1908E10050C3
:1039F400F91905E10050F81902E1F751000A2CE128
:103A0400D0C5F7F8D1C5F8F8D2C5F9F8D3C5FAF896
:103A1400010EF75F000EF85BF95BFA5BBEC259F961
:103A2400BFC25AF9C0C25BF9C1C25CF9C2C25DF936
:103A3400C3C25EF9C4C25FF9C5C260F9010E0901CF
:103A4400616F090E626F4AEC06F00050000A03E051
:103A5400FF0E006E00D107D0010E0801F75F000EC3
:103A6400F85BF95BFA5B0801B0C300F0B1C301F085
:103A7400B2C302F0B3C303F0010E005E000E015A9C
:103A8400025A035A0050F715046E0150F815056EDA
:103A94000250F915066E0350FA15076E050E026EF4
:103AA40004C000F005C001F0025005E000360090AB
:103AB4000136FF0FFAD7D00E0026030E012200C0F4
:103AC400F5F801C0F6F80B0E0024E96E000E012093
:103AD400EA6E3F0EEE14016E01500F0A06E0C00EAE
:103AE40006010A6FFF0E006EB6D00D0E0801F52513
:103AF400E96E000EF621EA6EEE50E71906E0C10EFB
:103B040006010A6FFF0E006EA6D0F5C8E9FFF6C8DD
:103B1400EAFFEECF00F01F0E0014016E0150080101
:103B2400E61906E0C20E06010A6FFF0E006E93D07E
:103B3400F5C859F9F6C85AF9E80E09015B6F080E81
:103B44005C6F82EC05F00801E56BE80EE96E080E87
:103B5400EA6EE551E926D8B0EA2AEECF00F945EC41
:103B640011F000C0FFF80801E605006E016A000EBE
:103B7400015A0D0E046E000E056E29EC05F0E55198
:103B84000026000E01220050E325E96E0150E421D5
:103B9400EA6EEECF00F945EC11F00801FF51001870
:103BA4000AE0FBC8C2F2FCC8C3F2FDC8C4F2FEC8F6
:103BB400C5F2006A50D0E52B0D0EE55D0CE2E80E6F
:103BC400E96E080EEA6EE551E926D8B0EA2AEE500D
:103BD400000A01E0BAD70D0EE55D2AE2E80EE96EAF
:103BE400080EEA6EE551E926D8B0EA2AE605006E29
:103BF400016A000E015A0D0E046E000E056E29ECCA
:103C040005F0E5510026000E01220050E325D96E8F
:103C14000150E421DA6EEE50DE180AE0FBC8C2F26D
:103C2400FCC8C3F2FDC8C4F2FEC8C5F2006A13D0D2
:103C3400E62BF5C8E9FFF6C8EAFFEECF01F001ACC8
:103C4400CAD6FBC8C2F2FCC8C3F2FDC8C4F2FEC89F
:083C5400C5F2010E006E120022
:103C5C00BEC2E7F8BFC2E8F8C0C2E9F8C1C2EAF8D0
:103C6C000201C26BC36BC46BC56B0501F351080138
:103C7C00EA5D0EE10501F2510801E95D09E105017A
:103C8C00F1510801E85D04E10501F0510801E75D1F
:103C9C0015E3060109510801EA5D0EE10601085120
:103CAC000801E95D09E1060107510801E85D04E13D
:103CBC00060106510801E75D01E206D0F40E06018B
:103CCC000A6FFF0E006EF7D0D00E0801EF6F030ED7
:103CDC00F06FE7C884F9E8C885F9E9C886F9EAC83D
:103CEC0087F979EC02F000C017F901C018F902C08D
:103CFC0019F903C01AF96BEC08F00050000A03E044
:103D0C00FF0E006ED8D00801EB6BEC6BED6BEE6B1D
:103D1C000501D3510801EE5D0EE10501D2510801F8
:103D2C00ED5D09E10501D1510801EC5D04E10501EE
:103D3C00D0510801EB5DD8B095D0F0510501D519E3
:103D4C0003E1D4510801EF190DE10801D00EEF6F1A
:103D5C00030EF06F6DEC11F00050000A03E0FF0E43
:103D6C00006EA9D0EFC805F9F0C806F9E3C807F949
:103D7C00E4C808F90B0E0901096F000E0A6F9FECDD
:103D8C000FF0000E011802E1000E001858E1A9EC2A
:103D9C0001F00050000A03E0FF0E006E8CD0080109
:103DAC00E551E6113DE0EFC805F9F0C806F9E5C8A4
:103DBC0007F9E6C808F9BEC209F9BFC20AF9C0C2C0
:103DCC000BF9C1C20CF9C2C20DF9C3C20EF9C4C2BF
:103DDC000FF9C5C210F9FBEC0EF00050000A03E01D
:103DEC00FF0E006E68D0080E0801E525E16E010E8D
:103DFC00E621E26EBEC2E6FFBFC2E6FFC0C2E6FF2E
:103E0C00C1C2E6FF0C0EE525E16E010EE621E26E65
:103E1C00C2C2E6FFC3C2E6FFC4C2E6FFC5C2E6FFEC
:103E2C00EFC805F9F0C806F968EC0EF0EFC805F913
:103E3C00F0C806F9D7EC0DF0010E006E3CD0200E48
:103E4C000801EF27000EF023010EEB27000EEC23E8
:103E5C00ED23EE23010E0201C227000EC323C4235F
:103E6C00C52356D7A9EC01F00050000A03E0FF0E61
:103E7C00006E21D0E7C884F9E8C885F9E9C886F94D
:103E8C00EAC887F9BEEC02F000C0E7F801C0E8F818
:103E9C0002C0E9F803C0EAF803500F0A08E1025027
:103EAC00FF0A05E10150FF0A02E10050FF0A02E19E
:083EBC00006A01D0DAD6120001
:103EC400010E0801E76FE86BE96BEA6BEB6BEC6BD7
:103ED400ED6BE3C8E9FFE4C8EAFFEE50000A06E12F
:103EE400C40E06010A6FFF0E006EF7D0E3C805F991
:103EF400E4C806F950EC11F000C0E6F80801E56BDF
:103F0400E3C805F9E4C806F950EC11F0800E026E1E
:103F1400800E0118025C03E100500801E55D16E221
:103F24000801E551E325E96E000EE421EA6EEECFC7
:103F340000F9D0EC0FF0005206E1C30E06010A6F3F
:103F4400FF0E006ECAD00801E52BDAD70801E6059A
:103F5400006E000EE6BFFF0E016E000E015A005007
:103F6400E325E96E0150E421EA6EEE502E0A02E1E7
:103F7400E607ECD7800E000A006E800EE619005C9E
:103F840006E3E20E06010A6FFF0E006EA6D0E3C838
:103F940005F9E4C806F950EC11F0800E0801E6BFFB
:103FA4007F0E026E800E0118025C02E10050E65D95
:103FB40009E2E651E325E16E000EE6BFFF0EE421BF
:103FC400E26EE66AE56B800E006E800EE6BF7F0E41
:103FD400005C02E1E651E55D12E2E551E325E96E9C
:103FE400000EE421EA6EEECF17F94EEC08F0005211
:103FF40003E0010E006E71D00801E52BE4D7800EBA
:104004000C0A006E800EE619005C03E2010E006EDD
:1040140064D0E56B800E006E800EE6BF7F0E005C00
:1040240002E1E651E55D43E2E551E325E96E000E68
:10403400E421EA6EEECF84F940EC02F0005204E091
:10404400010E0801E86F2CD00801E551E325E96E63
:10405400000EE421EA6EEECF84F9B2EC02F00052D5
:1040640004E0010E0801E96F1BD00801E551E325C6
:10407400E96E000EE421EA6EEE502E0A11E1EB53D4
:104084000CE1E85304E0E95302E0010EEA6F010E8B
:10409400EB6FE76BE86BE96B08D0010E006E1DD087
:1040A400E75302E0EC2B01D0ED2BE52BB3D7E8531B
:1040B40004E0E95302E0010EEA6FEC51080804E35E
:1040C400ED51030801E303D0010E006E06D0EA535C
:0C40D40003E0020E006E01D0006A120032
:1040E0000450000A12E10550000A0FE10650000AD0
:1040F0000CE10750000A09E1FF0E006EFF0E016E91
:10410000FF0E026E7F0E036E99D00C6A07BE0C2A5A
:104110000D6A0B6A0A6A096A086A035002100110E4
:104120000010D8B485D0035007180E6E0EBE0D1EB9
:1041300007AE0BD0041E051E061E071E042AD8B4A7
:10414000052AD8B4062AD8B4072A03AE0BD0001E1D
:10415000011E021E031E002AD8B4012AD8B4022A66
:10416000D8B4032A035007100E6E0EBE1DD0EDEC1E
:104170000FF00CBE36D00DAE5BD0001E011E021E2D
:10418000031E002AD8B4012AD8B4022AD8B4032ABC
:10419000081E091E0A1E0B1E082AD8B4092AD8B404
:1041A0000A2AD8B40B2A44D007AE15D003BE0DD0CE
:1041B00003500B6E02500A6E0150096E0050086EDB
:1041C000036A026A016A006AD6D7036A026A016A50
:1041D000006A002A000C031E021E011E001E0C8E27
:1041E000C6D7082AD8B4092AD8B40A2AD8B40B2AC0
:1041F0000450085CD8A4BFD70550095CD8A4BBD72D
:1042000006500A5CD8A4B7D707500B5CD8A4B3D724
:104210000B6A0A6A096A086A002AD8B4012AD8B463
:10422000022AD8B4032A03AEA6D70E6A0E88FF0C62
:0E4230000E6A0CA002D0E1EC0FF0000F12009D
:10423E000450000A08E10550000A05E1FF0E006E69
:10424E007F0E016E58D00D6A096A086A015000107F
:10425E00D8B4000C015005180A6E0ABE0D1E0B6A6A
:10426E0005AE05D0041E051E042AD8B4052A01AEDB
:10427E0005D0001E011E002AD8B4012A01500510D7
:10428E000A6E0ABE10D019EC11F00BB020D00DAE94
:10429E00000C001E011E002AD8B4012A081E091E99
:1042AE00082AD8B4092A000C05AE0DD001BE07D0DD
:1042BE000150096E0050086E016A006AE8D7016A63
:1042CE00006A002A000C011E001E0B2ADDD7082AE8
:1042DE00D8B4092A0450085CD8A4D9D70550095C73
:1042EE00D8A4D5D7096A086A002AD8B4012A01AE23
:0842FE00CED70000FF0C1200F6
:0E430600ACB202D00000FCD7C2C8ADFF12005E
:104314000701285302E1006A65D0D00E0801C26F7C
:10432400030EC36FD00E0901176F030E186F196BBC
:10433400000E1A6F020E1B6FDDEC08F0C2C8E1FF1D
:10434400C3C8E2FF520EE66E520EE66E610EE66ED2
:10435400410EE66EE40E0801C225E16E010EC32192
:10436400E26E720EE66E720EE66E410EE66E610E3F
:10437400E66EE80EC225E16E010EC321E26EFEC5B3
:10438400E6FFFFC5E6FF00C6E6FF01C6E6FFEC0E4A
:10439400C225E16E010EC321E26E02C6E6FF03C62A
:1043A400E6FF04C6E6FF05C6E6FFFE0EC225E16E83
:1043B400010EC321E26E550EE66EAA0EE66EFAC534
:1043C40005F9FBC506F9FCC507F9FDC508F9D9ECE3
:1043D4000CF00050000A03E0FF0E006E03D007014A
:0643E400286B006A1200C4
:1043EA00800E0801C219006E800E000A005C0CE300
:1043FA00800EC2BF7F0E006E000E800A005C02E1D2
:10440A00040EC25D01E206D0D80E06010A6FFF0E45
:10441A00006E67D11A0E006E000E016EC2C804F05B
:10442A00000E0801C2BFFF0E056E29EC05F03C0E16
:10443A000026030E012200C0CBF801C0CCF8180EEA
:10444A000024E96E000E0120EA6EEE50000A06E131
:10445A00DC0E06010A6FFF0E006E43D1140E08012E
:10446A00CB25D96E000ECC21DA6EDECF01F0DECF7D
:10447A0002F0DECF03F0DECF04F0C651045C08E19F
:10448A00C551035C05E1C451025C02E1C351015C00
:10449A0006E2DB0E06010A6FFF0E006E22D1100E35
:1044AA000801CB25E96E000ECC21EA6EEECF01F0B1
:1044BA00EECF02F0EECF03F0EECF04F00450C619AF
:1044CA0008E10350C51905E10250C41902E101507F
:1044DA00C31902E1006A05D1100ECB25E96E000E60
:1044EA00CC21EA6EEECF01F0EECF02F0EECF03F070
:1044FA00EECF04F0A4C300F001C005F002C006F03C
:10450A0003C007F004C008F0005007E00832073281
:10451A0006320532089EFF0FF8D7A4C300F0C3C8BD
:10452A0001F0C4C802F0C5C803F0C6C804F00050C0
:10453A0007E00432033202320132049EFF0FF8D739
:10454A000850041808E10750031805E1065002183C
:10455A0002E10550011811E10801100ECB25E16EA8
:10456A00000ECC21E26EC3C8E6FFC4C8E6FFC5C888
:10457A00E6FFC6C8E6FF006AB4D00801100ECB25D4
:10458A00E16E000ECC21E26EC3C8E6FFC4C8E6FFA6
:10459A00C5C8E6FFC6C8E6FF100ECB25E96E000EB9
:1045AA00CC21EA6EEECF01F0EECF02F0EECF03F0AF
:1045BA00EECF04F0A4C300F001C0C7F802C0C8F8E7
:1045CA0003C0C9F804C0CAF8005007E0CA33C933A7
:1045DA00C833C733CA9FFF0FF8D7040ECB25E16E45
:1045EA00000ECC21E26ECBC8E9FFCCC8EAFFEECFC1
:1045FA0000F0EECF01F0EECF02F0EECF03F000C0F4
:10460A00E6FF01C0E6FF02C0E6FF03C0E6FFCA51AB
:10461A00000808E1C951000805E1C851000802E193
:10462A00C75100085DE2040ECB25CD6F000ECC21E8
:10463A00CE6FCDC8E9FFCEC8EAFFEECF84F9EECF40
:10464A0085F9EECF86F9EECF87F9BEEC02F0CDC838
:10465A00E1FFCEC8E2FF00C0E6FF01C0E6FF02C0EC
:10466A00E6FF03C0E6FF040E0801CB25D96E000E53
:10467A00CC21DA6EDECF01F0DECF02F0DECF03F01E
:10468A00DECF04F00F0E041808E1FF0E031805E14F
:10469A00FF0E021802E1FF0E01181AE1100ECB25D7
:1046AA00E16E000ECC21E26E140ECB25E96E000EEF
:1046BA00CC21EA6EEECFE6FFEECFE6FFEECFE6FFC5
:1046CA00EECFE6FFDB0E06010A6FFF0E006E09D081
:1046DA00010E0801C75F000EC85BC95BCA5B97D7AA
:0446EA00006A120050
:1046EE001C0E0801C225E16E000EC321E26EC4C885
:1046FE00E6FF1C0EC225006E000EC321016E010ED8
:10470E000024E16E000E0120E26EC5C8E6FF1C0E0D
:10471E00C225006E000EC321016E020E0024E16E52
:10472E00000E0120E26EC6C8E6FF1C0EC225006E0A
:10473E00000EC321016E030E0024E16E000E012057
:0A474E00E26EC7C8E6FF006A120021
:10475800E2EC17F0D00E0801C26F030EC36FD00E43
:10476800C46F030EC56F06010A51FF0A03E1FF0E6D
:10477800006EB3D00A51FC0A03E1FF0E006EADD003
:104788000A51000AD8A4A4D0300E0801C225090194
:10479800176F000E0801C3210901186FBCEC0AF05D
:1047A80000500501D8250901886F01500501D9215C
:1047B8000901896F000E0501DA2109018A6F000ECF
:1047C8000501DB2109018B6FD6EC01F00050000ACE
:1047D80003E0FF0E006E81D0D00E0801C46F030EF7
:1047E800C56FFE0EC4250901176F010E0801C5210A
:1047F8000901186FBCEC0AF00150AA0A02E1550E33
:10480800001806E0FC0E06010A6FFF0E006E65D068
:10481800C4C817F9C5C818F9E1EC0AF00350410AF1
:1048280008E10250610A05E10150520A02E1005014
:10483800520A06E0FA0E06010A6FFF0E006E4DD00E
:10484800E40E0801C4250901176F010E0801C521EE
:104858000901186FE1EC0AF00350610A08E10250FF
:10486800410A05E10150720A02E10050720A06E0AD
:10487800FA0E06010A6FFF0E006E2FD0E80E08012F
:10488800C4250901176F010E0801C5210901186F18
:10489800E1EC0AF000C0FEF501C0FFF502C000F629
:1048A80003C001F6EC0E0801C4250901176F010EBB
:1048B8000801C5210901186FE1EC0AF000C002F6F1
:1048C80001C003F602C004F603C005F6006A05D06D
:0C48D800FA0E06010A6FFF0E006E1200BF
:1048E400B50E0901176F030E186F196B070E1A6FB7
:1048F400000E1B6FDDEC08F0A90E176F030E186F86
:10490400196B070E1A6F000E1B6FDDEC08F01C0EFE
:10491400176F070E186F196B070E1A6F000E1B6FB7
:10492400DDEC08F0D60E176F050E186F196B300EFC
:104934001A6F000E1B6FDDEC08F0CC0E176F030E20
:10494400186F196B040E1A6F020E1B6FDDEC08F062
:104954003C0E176F030E186F196B040E006E000ED9
:10496400016E1A0E0002F3CF1AF9F4CF1BF9DDEC35
:1049740008F0BD0E176F030E186F196B0C0E1A6F2B
:10498400000E1B6FDDEC08F0FF0E0301CC6FFF0E71
:10499400CD6FFF0ECE6FFF0ECF6FD00E0501D46F1B
:1049A400050ED56F06010B6B0701286B0601066B1C
:1049B400076B086B096B0201BE6BBF6BC06BC16BED
:1049C400C26BC36BC46BC56B0301B46B430EBD6F89
:0649D40006010A6B12004F
:1049DA00B7EC11F0000E001803E0FF0E006E01D0D4
:0449EA00006A12004D
:1049EE00C2C8E9FFC3C8EAFFEE50000A06E1C40ED2
:1049FE0006010A6FFF0E006EB6D0BEC2C6F8BFC269
:104A0E00C7F8C0C2C8F8C1C2C9F80201C26BC36BF5
:104A1E00C46BC56B0801CF6BC4C8E3F8C5C8E4F816
:104A2E0084EC14F00050010AD8A494D0FF0E0801B3
:104A3E00C425E96E000EC521EA6E3F0EEE14016E1E
:104A4E0001500F0A03E1010ECF6FE6D7010E0201EE
:104A5E00C25F000EC35BC45BC55B0801CF533BE076
:104A6E00C2C8E3F8C3C8E4F88AEC1CF000C0CEF864
:104A7E000050FF0A03E1FF0E006E75D00801CE5103
:104A8E00010A28E1BEC259F9BFC25AF9C0C25BF988
:104A9E00C1C25CF9C2C25DF9C3C25EF9C4C25FF99C
:104AAE00C5C260F9CA0E0901616F080E626F4AEC49
:104ABE0006F00050000A03E0FF0E006E54D0C6C888
:104ACE00BEF2C7C8BFF2C8C8C0F2C9C8C1F2010E53
:104ADE00006E49D035D0C4C8E3F8C5C8E4F8C2C8E2
:104AEE00E5F8C3C8E6F82EEC1CF00050010A28E1E8
:104AFE00BEC259F9BFC25AF9C0C25BF9C1C25CF954
:104B0E00C2C25DF9C3C25EF9C4C25FF9C5C260F923
:104B1E00CA0E0901616F080E626F4AEC06F0005072
:104B2E00000A03E0FF0E006E1ED0C6C8BEF2C7C854
:104B3E00BFF2C8C8C0F2C9C8C1F2010E006E13D0D0
:104B4E00010E0201C227000EC323C423C523080190
:104B5E00CF6B62D7C6C8BEF2C7C8BFF2C8C8C0F214
:084B6E00C9C8C1F2006A12007F
:0A4B76001D0E0D6E0D2EFED712006D
:104B8000086A096A100E0C6E0134083609360450A2
:104B9000085E0550D8A0053C095ED8B007D0045087
:104BA00008260550D8B0053C0926D89000360136B5
:064BB0000C2EEAD71200F2
:104BB600C2C8E1FFC3C8E2FFC4C8E6FF006A12002C
:104BC600C70E0901176F080E186FFF0E196F0D0E2D
:104BD6001A6F000E1B6FDDEC08F00801C66B0D0E98
:104BE600C65D1CE2C70EE16E080EE26EC651E126F6
:104BF600D8B0E22AC651C425E96E000EC521EA6E78
:104C0600EECFE6FFC651C425E96E000EC521EA6E59
:104C1600EE50000A01E102D0C62BE1D7010EC225F3
:104C2600E16E000EC321E26EC7C8E6FF030EC22581
:104C3600E16E000EC321E26EC8C8E6FF050EC2256E
:104C4600E16E000EC321E26EC9C8E6FF070EC2255B
:104C5600E16E000EC321E26ECAC8E6FF090EC22548
:104C6600E16E000EC321E26ECBC8E6FF0E0EC22532
:104C7600E16E000EC321E26ECCC8E6FF100EC2251F
:104C8600E16E000EC321E26ECDC8E6FF120EC2250C
:104C9600E16E000EC321E26ECEC8E6FF140EC225F9
:104CA600E16E000EC321E26ECFC8E6FF160EC225E6
:104CB600E16E000EC321E26ED0C8E6FF180EC225D3
:104CC600E16E000EC321E26ED1C8E6FF1C0EC225BE
:104CD600E16E000EC321E26ED2C8E6FF1E0EC225AB
:104CE600E16E000EC321E26ED3C8E6FFC651010F86
:104CF600026E036A000E0322B7D0010EC225006EB3
:104D0600000EC321016E010E0024E16E000E01208B
:104D1600E26EFF0EE66E030EC225006E000EC32184
:104D2600016E010E0024E16E000E0120E26EFF0E00
:104D3600E66E050EC225006E000EC321016E010E41
:104D46000024E16E000E0120E26EFF0EE66E070EF5
:104D5600C225006E000EC321016E010E0024E16E15
:104D6600000E0120E26EFF0EE66E090EC225006EF1
:104D7600000EC321016E010E0024E16E000E01201B
:104D8600E26EFF0EE66E0E0EC225006E000EC32109
:104D9600016E010E0024E16E000E0120E26EFF0E90
:104DA600E66E100EC225006E000EC321016E010EC6
:104DB6000024E16E000E0120E26EFF0EE66E120E7A
:104DC600C225006E000EC321016E010E0024E16EA5
:104DD600000E0120E26EFF0EE66E140EC225006E76
:104DE600000EC321016E010E0024E16E000E0120AB
:104DF600E26EFF0EE66E160EC225006E000EC32191
:104E0600016E010E0024E16E000E0120E26EFF0E1F
:104E1600E66E180EC225006E000EC321016E010E4D
:104E26000024E16E000E0120E26EFF0EE66E1C0EFF
:104E3600C225006E000EC321016E010E0024E16E34
:104E4600000E0120E26EFF0EE66E1E0EC225006EFB
:104E5600000EC321016E010E0024E16E000E01203A
:104E6600E26EFF0EE66E58D0000E031802E1000E49
:104E76000218D8B442D7000E031802E1010E021838
:104E8600D8B449D7000E031802E1020E0218D8B4AE
:104E960050D7000E031802E1030E0218D8B457D7F4
:104EA600000E031802E1040E0218D8B45ED7000EF5
:104EB600031802E1050E0218D8B465D7000E0318D0
:104EC60002E1060E0218D8B46CD7000E031802E1F0
:104ED600070E0218D8B473D7000E031802E1080EA5
:104EE6000218D8B47AD7000E031802E1090E021888
:104EF60082E0000E031802E10A0E02188AE0000E94
:104F0600031802E10B0E021892E0000E031802E1EC
:0C4F16000C0E02189AE0A7D7006A1200E7
:104F22000D0E0801C225E16E000EC321E26EC4C857
:064F3200E6FF006A120018
:104F38000B0E0801C225E16E000EC321E26EC4C843
:064F4800E6FF006A120002
:104F4E0007011A510801C225016E07011B51080104
:104F5E00C321026E0250010802E101500E0806E262
:104F6E00BE0E06010A6FFF0E006E01D0006A12001F
:104F7E00C2C8E9FFC3C8EAFFEE50000A07E1C40E3B
:104F8E0006010A6FFF0E006E5AEF2EF0C4C817F915
:104F9E00C5C818F9200E0901196F0B0E1A6F000EF5
:104FAE001B6FDDEC08F0C2C8E9FFC3C8EAFFEE5084
:104FBE002E0A13E1010E0801C225E96E000EC3216F
:104FCE00EA6EEE50000A09E1C4C8E1FFC5C8E2FF6F
:104FDE002E0EE66E006A5AEF2EF0C2C8E9FFC3C865
:104FEE00EAFFEE502E0A24E10801010EC225E96EF9
:104FFE00000EC321EA6EEE502E0A1AE1020EC225F1
:10500E00E96E000EC321EA6EEE50000A11E1C4C82B
:10501E00E1FFC5C8E2FF2E0EE66E010EC425E16E5D
:10502E00000EC521E26E2E0EE66E006A5AEF2EF0CD
:10503E00C2C8E9FFC3C8EAFFEE502E0A07E1E20E2E
:10504E0006010A6FFF0E006E5AEF2EF0C2C805F968
:10505E00C3C806F950EC11F000C0D4F801C0D5F861
:10506E00C2C8E3F8C3C8E4F862EC1FF000C0D1F880
:10507E000050FF0A04E1FF0E006E5AEF2EF0010EF3
:10508E000801D45D006E000ED559016E0050C22588
:10509E00E96E0150C321EA6EEE502E0A10E0010EA9
:1050AE00D45D006E000ED559016E0050C225E96E1A
:1050BE000150C321EA6EEE50200A01E015D0800E99
:1050CE00006E800ED519005C02E1D45100080CE28E
:1050DE00D451C225E16ED551C321E26EE66A010EAE
:1050EE00D45F000ED55BCBD7000ED51902E1000EB2
:1050FE00D41904E1FF0E006E5AEF2EF0000ED1BF50
:10510E00FF0E006E000E001802E1000ED1190BE02A
:10511E00000ED1BFFF0E006E000E001802E1020E4F
:10512E00D11901E08DD0CC6BCB6B080ECB5D2EE28E
:10513E00CC51C225E96E000EC321EA6EEE502E0A46
:10514E000AE0CC51C225E96E000EC321EA6EEE5084
:10515E00000A01E001D01AD0CB51C425D66F000E43
:10516E00C521D76FCC51C225E96E000EC321EA6E60
:10517E00EECF00F945EC11F0D6C8E1FFD7C8E2FF3B
:10518E0000C0E6FF0801CC2BCB2BCFD7CC51C225CC
:10519E00E96E000EC321EA6EEE50000A0AE1C4C8A1
:1051AE00E3F8C5C8E4F8E56BE66B2EEC1EF05AEF9B
:1051BE002EF00801CC51C225E96E000EC321EA6E15
:1051CE00EE502E0A02E1CC2B07D0E20E06010A6F3A
:1051DE00FF0E006E5AEF2EF0080E0801CB6F0B0E6D
:1051EE00CB5D24E2CC51C225E96E000EC321EA6EDE
:1051FE00EE50000A01E11AD0CB51C425D66F000E35
:10520E00C521D76FCC51C225E96E000EC321EA6EBF
:10521E00EECF00F945EC11F0D6C8E1FFD7C8E2FF9A
:10522E0000C0E6FF0801CC2BCB2BD9D7C4C8E3F8BE
:10523E00C5C8E4F8E56BE66B2EEC1EF05AEF2EF0C7
:10524E00000E0801D1BFFF0E006E000E001802E125
:10525E00010ED119D8A457EF2EF0D4C8CEF8010EF6
:10526E00D45DCF6F000ED559D06FCF51C225E96EE8
:10527E00D051C321EA6EEE502E0A0EE0800E006E63
:10528E00800ED019005C02E1CF51000805E2010E3C
:10529E00CF5F000ED05BE9D7800E006E800ED01966
:1052AE00005C02E1CF5100084EE2CFC8CEF8CF4BE2
:1052BE00D02B080ECB6F0B0ECB5D45E2CF51C22526
:1052CE00E96ED051C321EA6EEE50000A3CE0CF5198
:1052DE00C225E96ED051C321EA6EEECF17F94EEC1E
:1052EE0008F000521AE10801CB51C425D66F000E0A
:1052FE00C521D76FCF51C225E96ED051C321EA6EB9
:10530E00EECF00F945EC11F0D6C8E1FFD7C8E2FFA9
:10531E0000C0E6FF0801CB2B13D00801CF51C225E8
:10532E00E96ED051C321EA6EEE50200A09E0CB514E
:10533E00C425E16E000EC521E26E5F0EE66ECB2B2C
:10534E00CF4BD02BB8D7CEC8CFF8000ED06FCC6BCA
:10535E00CB6B080ECB5D57E2CC51C225E96E000E29
:10536E00C321EA6EEE50000A01E14DD0000ED019B5
:10537E0002E1CF51CC1901E146D0CC51C225E96EE4
:10538E00000EC321EA6EEE502E0A0AE0CC51C22561
:10539E00E96E000EC321EA6EEE50200A01E001D044
:1053AE0030D0CC51C225E96E000EC321EA6EEECF8D
:1053BE0017F94EEC08F000521AE10801CB51C42542
:1053CE00D66F000EC521D76FCC51C225E96E000EE7
:1053DE00C321EA6EEECF00F945EC11F0D6C8E1FF1D
:1053EE00D7C8E2FF00C0E6FF0801CB2B0AD00801A8
:1053FE00CB51C425E16E000EC521E26E5F0EE66E46
:10540E00CB2BCC2BA6D7010ED26F060ECB5D03E2B3
:10541E00CBC8C6F802D0060EC66FC6C8CEF8C651A7
:10542E00C425E16E000EC521E26E7E0EE66E010E03
:10543E00CD6FCD5109083BE3D251000A38E0CE5171
:10544E00010F006E016A000E01220050C425E16EAC
:10545E000150C521E26E300ECD25006E00C0E6FF74
:10546E00C4C8E3F8C5C8E4F8E56BE66B2EEC1EF095
:10547E0000C0D2F80050FF0A04E1FF0E006E5AEF92
:10548E002EF00801D251010A0FE1C2C8E3F8C3C8D9
:10549E00E4F88AEC1CF000C0D3F80050000A04E0D7
:1054AE00D3C800F05AEF2EF00801CD2BC2D7D2513F
:1054BE00000AD8B475D0050ECB5D03E2CBC8C7F891
:1054CE0002D0050EC76FC7C8CEF8C751C425E16E0E
:1054DE00000EC521E26E7E0EE66E0A0ECD6FCD5128
:1054EE0063085EE3D251000A5BE0CE51010F006EFD
:1054FE00016A000E01220050C425D66F0150C5214D
:10550E00D76F0A0E046ECDC800F07BEC1CF0300E87
:10551E000026D6C8E1FFD7C8E2FF00C0E6FF020EA4
:10552E00CE25006E016A000E01220050C425D66FF2
:10553E000150C521D76F0A0E046ECDC800F07BEC6A
:10554E001CF008C000F0300E0026D6C8E1FFD7C808
:10555E00E2FF00C0E6FFC4C8E3F8C5C8E4F8E56B97
:10556E00E66B2EEC1EF000C0D2F80050FF0A03E1ED
:10557E00FF0E006E98D30801D251010A0EE1C2C887
:10558E00E3F8C3C8E4F88AEC1CF000C0D3F800506E
:10559E00000A03E0D3C800F086D30801CD2B9FD7B5
:1055AE00D251000AD8B49DD0040ECB5D03E2CBC815
:1055BE00C8F802D0040EC86FC8C8CEF8C851C425AA
:1055CE00E16E000EC521E26E7E0EE66E640ECD6FAC
:1055DE00800E030A006E800E005C02E1CD51E708DA
:1055EE00D8A07FD0D251000AD8B47BD0CE51010FB3
:1055FE00006E016A000E01220050C425D66F0150C4
:10560E00C521D76F640E046ECDC800F07BEC1CF084
:10561E00300E0026D6C8E1FFD7C8E2FF00C0E6FF75
:10562E00020ECE25006E016A000E01220050C42526
:10563E00D66F0150C521D76F0A0E046ECDC800F08B
:10564E007BEC1CF00A0E046E7BEC1CF008C000F024
:10565E00300E0026D6C8E1FFD7C8E2FF00C0E6FF35
:10566E00030ECE25006E016A000E01220050C425E5
:10567E00D66F0150C521D76F0A0E046ECDC800F04B
:10568E007BEC1CF008C000F0300E0026D6C8E1FFFF
:10569E00D7C8E2FF00C0E6FFC4C8E3F8C5C8E4F807
:1056AE00E56BE66B2EEC1EF000C0D2F80050FF0A40
:1056BE0003E1FF0E006EF7D20801D251010A0EE18E
:1056CE00C2C8E3F8C3C8E4F88AEC1CF000C0D3F8F3
:1056DE000050000A03E0D3C800F0E5D20801CD2B3C
:1056EE0077D7D251000AD8B4C2D0030ECB5D03E2F5
:1056FE00CBC8C9F802D0030EC96FC9C8CEF8C951BC
:10570E00C425E16E000EC521E26E7E0EE66EE80E39
:10571E00CD6F800E270A006E800E005C02E1CD5127
:10572E000F08D8A0A4D0D251000AD8B4A0D0CE5120
:10573E00010F006E016A000E01220050C425D66FC3
:10574E000150C521D76FE80E046E030E056ECDC84D
:10575E0000F0000E016E1FEC21F0300E0026D6C8B0
:10576E00E1FFD7C8E2FF00C0E6FF020E0801CE251A
:10577E00006E016A000E01220050C425D66F015042
:10578E00C521D76F640E046ECDC800F07BEC1CF003
:10579E000A0E046E7BEC1CF008C000F0300E0026E2
:1057AE00D6C8E1FFD7C8E2FF00C0E6FF030ECE2544
:1057BE00006E016A000E01220050C425D66F015002
:1057CE00C521D76F0A0E046ECDC800F07BEC1CF01D
:1057DE000A0E046E7BEC1CF008C000F0300E0026A2
:1057EE00D6C8E1FFD7C8E2FF00C0E6FF040ECE2503
:1057FE00006E016A000E01220050C425D66F0150C2
:10580E00C521D76F0A0E046ECDC800F07BEC1CF0DC
:10581E0008C000F0300E0026D6C8E1FFD7C8E2FF60
:10582E0000C0E6FFC4C8E3F8C5C8E4F8E56BE66B54
:10583E002EEC1EF000C0D2F80050FF0A03E1FF0E5E
:10584E00006E31D20801D251010A0EE1C2C8E3F84E
:10585E00C3C8E4F88AEC1CF000C0D3F80050000A6C
:10586E0003E0D3C800F01FD20801CD2B52D7D2517E
:10587E00000AD8B4F1D0020ECB5D03E2CBC8CAF851
:10588E0002D0020ECA6FCAC8CEF8CA51C425E16E44
:10589E00000EC521E26E7E0EE66E100ECD6F800EEE
:1058AE00000A006E800E005C08E1000E010805E1A2
:1058BE00000E860802E1CD519F08D8A0CDD0D2515E
:1058CE00000AD8B4C9D0CE51010F006E016A000E85
:1058DE0001220050C425D66F0150C521D76F100E7E
:1058EE00046E270E056ECDC800F0000E016E1FEC83
:1058FE0021F0300E0026D6C8E1FFD7C8E2FF00C067
:10590E00E6FF020E0801CE25006E016A000E01228E
:10591E000050C425D66F0150C521D76FE80E046E16
:10592E00030E056ECDC800F0000E016E1FEC21F0C7
:10593E000A0E046E000E056E1FEC21F008C000F07A
:10594E0009C001F0300E0026D6C8E1FFD7C8E2FF2D
:10595E0000C0E6FF030E0801CE25006E016A000EA0
:10596E0001220050C425D66F0150C521D76F640E99
:10597E00046ECDC800F07BEC1CF00A0E046E7BECBE
:10598E001CF008C000F0300E0026D6C8E1FFD7C8C4
:10599E00E2FF00C0E6FF040ECE25006E016A000E87
:1059AE0001220050C425D66F0150C521D76F0A0EB3
:1059BE00046ECDC800F07BEC1CF00A0E046E7BEC7E
:1059CE001CF008C000F0300E0026D6C8E1FFD7C884
:1059DE00E2FF00C0E6FF050ECE25006E016A000E46
:1059EE0001220050C425D66F0150C521D76F0A0E73
:1059FE00046ECDC800F07BEC1CF008C000F0300E39
:105A0E000026D6C8E1FFD7C8E2FF00C0E6FFC4C833
:105A1E00E3F8C5C8E4F8E56BE66B2EEC1EF000C0AB
