:1000000007EF40F00000000000EF00F000000000EB
:0A0010000000000000000000F3D71C
:10001C0084C96FFF6DB002D00000FCD76FCF00F029
:02002C001200C0
:10002E0084C9C9FFC7B002D00000FCD7C9CF00F009
:02003E001200AE
:10004000F250026EF29E0500FF6A0150FE6E0050F3
:08005000FD6E02BEF28E1200EB
:100058008388B4C6E1FFB5C6E2FFFF0EE66EB2C6FE
:0A00680000F0B3C601F0E8DF12005B
:10007200B4C6E1FFB5C6E2FF4C0EE66EB2C600F0B2
:10008200B3C601F0DCDFB4C6E1FFB5C6E2FFE66A43
:10009200B2C600F0B3C601F0D2DFB4C6E1FFB5C606
:1000A200E2FFE66AB2C600F0B3C601F0C8DFB4C62A
:1000B200E1FFB5C6E2FFE66AB2C600F0B3C601F0E0
:1000C200BEDFB4C6E1FFB5C6E2FFE66AB2C600F023
:1000D200B3C601F0B4DFB4C6E1FFB5C6E2FFFF0E5E
:1000E200E66EB2C600F0B3C601F0A9DF09017C6B6F
:1000F2007D6BB4C6E1FFB5C6E2FFFF0EE66EB2C687
:1001020000F0B3C601F09BDF00C07BF909017C4B14
:100112007D2B800E0014016E0150000A07E0000ED4
:100122007D5D02E1640E7C5D01E2E3D77BAF04D02A
:1001320092DF7BC900F012D0B4C6E1FFB5C6E2FF80
:10014200FF0EE66EB2C600F0B3C601F078DF00C063
:0E0152007BF90050000AF0E07EDF006A120028
:04016000839812006E
:10016400400E09017B25006EB4C6E1FFB5C6E2FF6F
:1001740000C0E6FFB2C600F0B3C601F05FDFB4C64C
:10018400E1FFB5C6E2FF7FC9E6FFB2C600F0B3C621
:1001940001F054DFB4C6E1FFB5C6E2FF7EC9E6FF55
:1001A400B2C600F0B3C601F049DFB4C6E1FFB5C67C
:1001B400E2FF7DC9E6FFB2C600F0B3C601F03EDF40
:1001C400B4C6E1FFB5C6E2FF7CC9E6FFB2C600F0E3
:1001D400B3C601F033DFB4C6E1FFB5C6E2FF80C9A0
:1001E400E6FFB2C600F0B3C601F028DF0901826B56
:1001F400836BB4C6E1FFB5C6E2FFFF0EE66EB2C67E
:1002040000F0B3C601F01ADF00C081F90901824B86
:10021400832B800E0014016E0150000A07E0000ECB
:10022400835D02E1640E825D01E2E3D781C900F0DF
:020234001200B6
:100236001DDF0050000A03E0FF0E006E01D0006AC9
:020246001200A4
:100248008BDF000E000A03E1040E0201081909E120
:100258006DC975F96EC976F96FC977F970C978F9FA
:1002680014D0090E006E6DC975F96EC976F96FC99B
:1002780077F970C978F9005008E009017537759168
:10028800763777377837FF0FF7D70901110E7B6F6D
:1002980075C97CF976C97DF977C97EF978C97FF97E
:1002A800FF0E806F5BDF005204E0D2DE010E006EAD
:1002B8004BD0B4C6E1FFB5C6E2FFFF0EE66EB2C68C
:1002C80000F0B3C601F0B8DE0050FE0A01E0F1D735
:1002D8000901736B746B020E745D02E1000E735DAD
:1002E8001BE273517125796F745172217A6FB4C60C
:1002F800E1FFB5C6E2FFFF0EE66EB2C600F0B3C678
:1003080001F09ADE79C9E1FF7AC9E2FF00C0E6FF91
:100318000901734B742BDFD7B4C6E1FFB5C6E2FF02
:10032800FF0EE66EB2C600F0B3C601F085DEB4C6B5
:10033800E1FFB5C6E2FFFF0EE66EB2C600F0B3C637
:0A03480001F07ADE85DE006A120083
:1003520005016351000A04E06351020A01E002D080
:10036200006A0DD067DF000E001806E0FF0E0601DE
:10037200786FFF0E006E03D00501636B006A1200F6
:1003820067C96DF968C96EF969C96FF96AC970F907
:100392006BC971F96CC972F956DF0050000A03E0AB
:0A03A200FF0E006E01D0006A120089
:1003AC0005016351030A20E1CEDF0050000A06E08C
:1003BC00FF0E0601786FFF0E006E5DD003011E511B
:1003CC00090166190EE103011D510901651909E1C5
:1003DC0003011C510901641904E103011B510901BA
:1003EC00631902E1006A47D005016351010A06E175
:1003FC00FF0E0601786FFF0E006E3DD009016651AD
:10040C0003011E190EE10901655103011D1909E1D2
:10041C000901645103011C1904E109016351030131
:10042C001B1928E063C967F964C968F965C969F9DA
:10043C0066C96AF91F0E09016B6F030E6C6F9BDFA7
:10044C00000E00180FE0FF0E03011B6FFF0E1C6F58
:10045C00FF0E1D6FFF0E1E6FFF0E0601786FFF0E55
:10046C00006E09D063C91BF364C91CF365C91DF385
:08047C0066C91EF3006A1200BC
:1004840009015F51390806E3300E5F5D03E3010E95
:08049400006E01D0006A1200A5
:10049C0009015F517A0806E3610E5F5D03E3010E0B
:0804AC00006E01D0006A12008D
:1004B40009015F515A0806E3410E5F5D03E3010E33
:0804C400006E01D0006A120075
:1004CC005FC905F060C906F061C907F062C908F0A0
:1004DC0005013951055E3A51065A3B51075A3C51B8
:1004EC00085A9AC604F005C000F006C001F007C017
:1004FC0002F008C003F0045007E00036009001360B
:10050C0002360336FF0FF8D73F5100264051012227
:0A051C004151022242510322120055
:1005260005013C510901625D0EE105013B510901DE
:10053600615D09E105013A510901605D04E10501CA
:10054600395109015F5D15E303011A510901625D25
:100556000EE1030119510901615D09E10301185119
:100566000901605D04E10301175109015F5D01E2C4
:100576000CD0F40E0601786FFF0E006EFF0E016EB2
:10058600FF0E026E0F0E036E64D05CC500F05FC9ED
:1005960063F960C964F961C965F962C966F9005011
:1005A60008E009016633653364336333669FFF0FE2
:1005B600F7D70501355109016327050136510901B0
:1005C60064230501375109016523050138510901E5
:1005D6006623E9DE0050000A09E0FF0E006EFF0EFA
:1005E600016EFF0E026E0F0E036E33D057C500F07C
:1005F60058C501F059C502F05AC503F0010E005E58
:10060600000E015A025A035A005009015F15046E82
:1006160001506015056E02506115066E0350621595
:10062600076E04C000F005C001F0003600900136E8
:100636000036009001361F0E0024E96E030E0120DD
:10064600EA6EEECF00F0EECF01F0EECF02F0EECF85
:0406560003F012009B
:10065A00026A110E025C17E2FF0E0224F66E820E87
:10066A00F76E000EF722000EF86E000EF82209004F
:10067A00F5CF01F0015009015F1903E1010E006E87
:0A068A0003D0022AE6D7006A12002E
:10069400B4C6E1FFB5C6E2FFFF0EE66EB2C600F0D7
:1006A400B3C601F0CBDC0050FE0A01E0F1D7120022
:1006B400090148515A0804E3410E485DD8B0488BFB
:0606C40048C900F012001D
:1006CA0048C95FF9DADE005211E148C95FF9EDDE87
:1006DA0000520CE148C95FF9DCDE005207E148C963
:1006EA005FF9B6DF005202E1006A02D0010E006E25
:0206FA001200EC
:1006FC0031DD000E000A03E1040E0201081909E1C4
:10070C0048C94CF949C94DF94AC94EF94BC94FF979
:10071C0014D0090E006E48C94CF949C94DF94AC9A3
:10072C004EF94BC94FF9005008E009014C374C9178
:10073C004D374E374F37FF0FF7D70901120E7B6F2E
:10074C004CC97CF94DC97DF94EC97EF94FC97FF969
:10075C00FF0E806F01DD005204E078DC010E006EAC
:06076C0001D0006A12003A
:1007720090DF09014A6B4B6B020E4B5D02E1000EEA
:100782004A5D1BE24A5148254C6F4B5149214D6F3E
:10079200B4C6E1FFB5C6E2FFFF0EE66EB2C600F0D8
:1007A200B3C601F04CDC4CC9E1FF4DC9E2FF00C009
:1007B200E6FF09014A4B4B2BDFD7B4C6E1FFB5C6B2
:1007C200E2FFFF0EE66EB2C600F0B3C601F037DC00
:1007D200B4C6E1FFB5C6E2FFFF0EE66EB2C600F098
:0807E200B3C601F02CDC12008B
:1007EA004AC904F04BC905F048C902F049C903F0E7
:1007FA004CC900F04DC901F0010E09014C5F000E11
:10080A004D5B005001100FE004C0E9FF05C0EAFF8C
:10081A0002C0E1FF03C0E2FFEECFE6FF024A032A6D
:10082A00044A052AE5D748C900F049C901F012006F
:10083A001BC35AF91CC35BF91DC35CF91EC35DF9DE
:10084A0048C952F949C953F94AC954F94BC955F922
:10085A0005013C5109014B5D0EE105013B510901BE
:10086A004A5D09E105013A510901495D04E10501C1
:10087A0039510901485D15E303011A510901555D12
:10088A000EE1030119510901545D09E103011851EF
:10089A000901535D04E1030117510901525D01E2A7
:1008AA0006D0F40E0601786FFF0E006ECED0090155
:1008BA005E6BA1C600F04CC901F04DC902F04EC9E9
:1008CA0003F04FC904F0005007E004320332023249
:1008DA000132049EFF0FF8D70450000809E10350C3
:1008EA00000806E10250000803E1090101505E5DBB
:1008FA0055E252C95FF953C960F954C961F955C93A
:10090A0062F90CDE00C052F901C053F902C054F971
:10091A0003C055F903500F0A08E10250FF0A05E126
:10092A000150FF0A02E10050FF0A06E1F10E06013A
:10093A00786FFF0E006E89D005013C510901555DA3
:10094A000EE105013B510901545D09E105013A51E6
:10095A000901535D04E1050139510901525D15E3AD
:10096A0003011A510901555D0EE1030119510901EB
:10097A00545D09E1030118510901535D04E10301C2
:10098A0017510901525D01E206D0F40E0601786F93
:10099A00FF0E006E5AD009015E2B8BD709015DC587
:1009AA0000F05EC501F05FC502F060C503F0010EFC
:1009BA00005E000E015A025A035A00504C15566F37
:1009CA0001504D15576F02504E15586F03504F1571
:1009DA00596F52C95FF953C960F954C961F955C9C8
:1009EA0062F96FDD9BC608F056C904F057C905F0D5
:1009FA0058C906F059C907F0085007E0073206320D
:100A0A0005320432079EFF0FF8D750C9E1FF51C9DA
:100A1A00E2FF04500024E66E05500120E66E0650FF
:100A2A000220E66E07500320E66E5AC963F95BC9D5
:100A3A0064F95CC965F95DC966F9B3DC0050000A5E
:0C0A4A0003E0FF0E006E01D0006A1200F5
:100A560034C948F935C949F936C94AF937C94BF98C
:100A66004ADE0050000A03E0FF0E006E01D0006A65
:020A760012006C
:0E0A780034C948F935C949F978DE006A120020
:100A86000B6A0A6A096A00500402F4CF09F0F3CF30
:100A960008F001500502F4CF0BF0F3CF0AF0005036
:100AA6000502F3500926F4500A22E86A0B22015087
:100AB6000402F3500926F4500A22E86A0B2208C001
:100AC60000F009C001F00AC002F00BC003F01200EA
:100AD600056A046A0B0E055C22E2010E0414016E1F
:100AE600070E006E01C003F0005004E003360390C9
:100AF600FF0FFBD7FE0E0414026E02C000F0003298
:100B0600009E00500310046E055009013425D96E6D
:100B1600000E3521DA6EDE500426052ADBD704C026
:040B260000F01200C9
:100B2A00010E09013425E96E000E3521EA6E36C937
:100B3A00E1FF37C9E2FFEECFE6FF010E3625E16E8F
:100B4A00000E3721E26E030E3425E96E000E3521C0
:100B5A00EA6EEECFE6FF020E3625E16E000E372171
:100B6A00E26E050E3425E96E000E3521EA6EEECFEF
:100B7A00E6FF030E3625E16E000E3721E26E070E00
:100B8A003425E96E000E3521EA6EEECFE6FF040E3B
:100B9A003625E16E000E3721E26E090E3425E96E24
:100BAA00000E3521EA6EEECFE6FF050E3625E16E20
:100BBA00000E3721E26E0E0E3425E96E000E352145
:100BCA00EA6EEECFE6FF060E3625E16E000E3721FD
:100BDA00E26E100E3425E96E000E3521EA6EEECF74
:100BEA00E6FF070E3625E16E000E3721E26E120E81
:100BFA003425E96E000E3521EA6EEECFE6FF080EC7
:100C0A003625E16E000E3721E26E140E3425E96EA8
:100C1A00000E3521EA6EEECFE6FF090E3625E16EAB
:100C2A00000E3721E26E160E3425E96E000E3521CC
:100C3A00EA6EEECFE6FF0A0E3625E16E000E372188
:100C4A00E26E180E3425E96E000E3521EA6EEECFFB
:100C5A00E6FF0B0E3625E16E000E3721E26E1C0E02
:100C6A003425E96E000E3521EA6EEECFE6FF0C0E52
:100C7A003625E16E000E3721E26E1E0E3425E96E2E
:0E0C8A00000E3521EA6EEECFE6FF006A120082
:100C980034C948F935C949F936C94AF937C94BF948
:100CA80038C94CF939C94DF93AC94EF93BC94FF918
:100CB8003CC950F93DC951F9BCDD0050000A03E0B8
:100CC800FF0E006E15D03CC9E9FF3DC9EAFFEECF23
:100CD80063F9EECF64F9EECF65F9EECF66F9D6EC9D
:100CE80001F00050000A03E0FF0E006E01D0006A18
:020CF8001200E8
:100CFA00B0EC00F0000E000A03E1040E020108192C
:100D0A0009E134C93CF935C93DF936C93EF937C953
:100D1A003FF914D0090E006E34C93CF935C93DF9C2
:100D2A0036C93EF937C93FF9005008E009013C3796
:100D3A003C913D373E373F37FF0FF7D70901180E71
:100D4A007B6F3CC97CF93DC97DF93EC97EF93FC933
:100D5A007FF9FF0E806FB2EC00F0005205E02CEC38
:100D6A0000F0010E006E95D0B4C6E1FFB5C6E2FFF1
:100D7A00FF0EE66EB2C600F0B3C601F020EC00F03A
:100D8A00B4C6E1FFB5C6E2FFFF0EE66EB2C600F0DA
:100D9A00B3C601F020EC00F0B4C6E1FFB5C6E2FF2D
:100DAA00FE0EE66EB2C600F0B3C601F020EC00F00B
:100DBA0009013A6B3B6B3B51010802E13A51FF08CA
:100DCA0016E33A513825E96E3B513921EA6EB4C629
:100DDA00E1FFB5C6E2FFEECFE6FFB2C600F0B3C64A
:100DEA0001F020EC00F009013A4B3B2BE4D7B4C6E2
:100DFA00E1FFB5C6E2FFFF0EE66EB2C600F0B3C66B
:100E0A0001F020EC00F0B4C6E1FFB5C6E2FFFF0E28
:100E1A00E66EB2C600F0B3C601F020EC00F0B4C62C
:100E2A00E1FFB5C6E2FFFF0EE66EB2C600F0B3C63A
:100E3A0001F020EC00F000C03AF9000E09013B6F06
:100E4A001F0E3A15016E3BC902F0000E021601C0D0
:100E5A003AF902C03BF9000E021802E1050E011828
:100E6A0005E02CEC00F0020E006E13D0B4C6E1FFD0
:100E7A00B5C6E2FFFF0EE66EB2C600F0B3C601F0D9
:100E8A0020EC00F00050FF0A01E0F0D72CEC00F053
:040E9A00006A1200D8
:100E9E003B0E0901486F090E496F34C94AF935C92D
:100EAE004BF90B0E4C6F000E4D6F98DC386B0B0E22
:100EBE00385D3FE23A6B3B0EE96E090EEA6E385131
:100ECE00E926D8B0EA2AEECF48F965EC03F00050D7
:100EDE00010A03E1010E09013A6F09013B0EE96EA9
:100EEE00090EEA6E3851E926D8B0EA2AEE50200AE9
:100EFE0002E1010E3A6F3B0EE96E090EEA6E3851B1
:100F0E00E926D8B0EA2AEE502E0A02E1010E3A6F17
:100F1E003A51000A0BE136C9E1FF37C9E2FFE66A32
:100F2E00C40E0601786FFF0E006EB5D00901382B86
:100F3E00BED7396B386B080E385D43E23B0EE96E57
:100F4E00090EEA6E3851E926D8B0EA2AEE50200A88
:100F5E0034E00C0E3425E96E000E3521EA6EEECF2C
:100F6E0001F001A619D039513625466F000E3721F2
:100F7E00476F3B0EE96E090EEA6E3851E926D8B07E
:100F8E00EA2AEECF48F95AEC03F046C9E1FF47C909
:100F9E00E2FF00C0E6FF10D039513625E16E000E9B
:100FAE003721E26E3B0EE96E090EEA6E3851E926E4
:100FBE00D8B0EA2AEECFE6FF01D003D0392B382B7A
:100FCE00BAD74351200A09E139513625E16E000E98
:100FDE003721E26EE66A006A5ED039513625E16E3F
:100FEE00000E3721E26E2E0EE66E392B080E386F8C
:100FFE000B0E385D47E23B0EE96E090EEA6E385174
:10100E00E926D8B0EA2AEECF48F965EC03F0005095
:10101E00000A01E137D00C0E09013425E96E000EED
:10102E003521EA6EEECF01F001A819D039513625DF
:10103E00466F000E3721476F3B0EE96E090EEA6EC2
:10104E003851E926D8B0EA2AEECF48F95AEC03F027
:10105E0046C9E1FF47C9E2FF00C0E6FF10D0395193
:10106E003625E16E000E3721E26E3B0EE96E090E5B
:10107E00EA6E3851E926D8B0EA2AEECFE6FF392BD0
:10108E00382BB6D7090139513625E16E000E3721BE
:08109E00E26EE66A006A12002E
:0E10A600F2C8E9FFF3C8EAFFEECF00F0120037
:1010B40005016351030A0BE1A9EC01F00050000A99
:1010C40006E0FF0E0601786FFF0E006E50D005019A
:1010D4006351010A06E1FF0E0601786FFF0E006EF0
:1010E40046D003011E510801F5190EE103011D51FB
:1010F4000801F41909E103011C510801F31904E181
:1011040003011B510801F21905E1020E0501636F89
:10111400006A2DD0F2C834F9F3C835F9F4C836F9A9
:10112400F5C837F996DC0050000A06E0FF0E060108
:10113400786FFF0E006E1BD01F0E0901346F030E73
:10114400356F98DC0050000A06E0FF0E0601786F48
:10115400FF0E006E0CD0010E0501636FF2C81BF385
:10116400F3C81CF3F4C81DF3F5C81EF3006A12009B
:10117400030E0801F225E96E000EF321EA6EEECFAC
:1011840009F0000E0A6E0B6E0C6E000E0A6E0B6EEA
:101194000C6E0BC003F00AC002F009C001F0006A33
:1011A40000C009F001C00AF002C00BF003C00CF04B
:1011B400020EF225D96E000EF321DA6EDE50002401
:1011C400056E000E0120066E000E0220076E000E52
:1011D4000320086E05C009F006C00AF007C00BF032
:1011E40008C00CF007C003F006C002F005C001F00F
:1011F400006A00C009F001C00AF002C00BF003C08D
:101204000CF0010EF225D96E000EF321DA6EDE50D9
:101214000024056E000E0120066E000E0220076EEB
:10122400000E0320086E05C009F006C00AF007C0CE
:101234000BF008C00CF007C003F006C002F005C0B4
:1012440001F0006A00C009F001C00AF002C00BF00E
:1012540003C00CF0F2C8D9FFF3C8DAFFDE50002651
:10126400000E01220222032200C009F001C00AF08C
:1012740002C00BF003C00CF000C009F001C00AF07A
:0A12840002C00BF003C00CF01200D2
:10128E00026A080E025C17E2310E0224F66E830E1D
:10129E00F76E000EF722000EF86E000EF82209000F
:1012AE00F5CF01F001500801F21903E1010E006EB5
:0A12BE0003D0022AE6D7006A1200EE
:1012C800F4C834F9F5C835F9F6C836F9F7C837F966
:1012D800F8C838F9F9C839F9FAC83AF9FBC83BF936
:1012E800300E09013C6F090E3D6FD2DC0050000A38
:1012F80003E0FF0E006EA7D164C500F065C501F0DC
:1013080066C502F067C503F0010E005E000E015AC3
:10131800025A035A00500801F815046E0150F915D5
:10132800056E0250FA15066E0350FB15076E050E82
:10133800026E04C000F005C001F0025005E000365E
:1013480000900136FF0FFAD71F0E002409012E6FF7
:10135800030E01202F6F010E0801FC6F080EFC5DC3
:101368000EE2FC5109012E25E96E000E2F21EA6ECE
:10137800EE507E0A01E103D00801FC2BEFD70801EB
:10138800FC51080A0AE12EC934F92FC935F9F2C807
:1013980036F9F3C837F97FDD56D10E0E0901486FCB
:1013A800090E496F2EC94AF92FC94BF9200E4C6F07
:1013B800000E4D6FF5EC03F0F4C834F9F5C835F9B3
:1013C800F6C836F9F7C837F9010E0801F85F000EBC
:1013D800F95BFA5BFB5BF8C838F9F9C839F9FAC860
:1013E8003AF9FBC83BF9300E09013C6F090E3D6F15
:1013F8004FDC0050000A03E0FF0E006E24D164C5E4
:1014080000F065C501F066C502F067C503F0010E7E
:10141800005E000E015A025A035A00500801F815DE
:10142800046E0150F915056E0250FA15066E035048
:10143800FB15076E050E026E04C000F005C001F032
:10144800025005E0003600900136FF0FFAD71F0E54
:101458000026030E012200C00CF901C00DF90B0E85
:101468000024E96E000E0120EA6E3F0EEE14016EB4
:1014780001500F0A0BE00E0E0901346F090E356F8B
:10148800F2C836F9F3C837F906DDDDD00E0E0901CA
:10149800346F090E356F6BEC05F000C0FEF8010ED5
:1014A8000801FD6F0B0E09010C25E96E000E0D21D8
:1014B800EA6E3F0EEE14016E01500F0A06E0C00EF0
:1014C8000601786FFF0E006EBED00D0E09010C25C7
:1014D800E96E000E0D21EA6EEE500801FE1906E0D5
:1014E800C10E0601786FFF0E006EADD00CC9E9FF82
:1014F8000DC9EAFFEECF00F01F0E0014016E015077
:101508000801FD1906E0C20E0601786FFF0E006E95
:101518009AD00CC934F90DC935F9FF0E0901366F97
:10152800080E376F95EC05F00801FC6BFD05006EA1
:10153800016A000E015A0D0E046E000E056E43EC92
:1015480005F0FC510026000E01220050F225E16E44
:101558000150F321E26EFF0EE96E080EEA6EFC51AF
:10156800E926D8B0EA2AEECFE6FFFC2B0D0EFC5D8B
:101578000CE2FF0EE96E080EEA6EFC51E926D8B0BF
:10158800EA2AEE50000A01E0D1D70CC9E9FF0DC9DB
:10159800EAFFEECF01F001AC02D0006A54D0FD2B77
:1015A800F4C834F9F5C835F9F6C836F9F7C837F983
:1015B800010EF85F000EF95BFA5BFB5BF8C838F9BF
:1015C800F9C839F9FAC83AF9FBC83BF9300E0901EC
:1015D8003C6F090E3D6F4CEC06F00050000A03E02A
:1015E800FF0E006E30D064C500F065C501F066C519
:1015F80002F067C503F0010E005E000E015A025AA0
:10160800035A00500801F815046E0150F915056ECB
:101618000250FA15066E0350FB15076E050E026E92
:1016280004C000F005C001F0025005E0003600904B
:101638000136FF0FFAD71F0E002409010C6F030EA5
:0816480001200D6F2FD71200E5
:10165000F2C802F0F3C803F0F5C800F0F6C801F0D4
:10166000010E0801F55F000EF65B0050011009E065
:1016700002C0E1FF03C0E2FFF4C8E6FF024A032A0A
:0C168000EBD7F2C800F0F3C801F0120034
:10168C00010E0801F225E96E000EF321EA6EEECF91
:10169C0003F0000E046E000E046E03C001F0006A2D
:1016AC0000C003F001C004F0F2C8D9FFF3C8DAFFA0
:1016BC00DE500026000E012200C003F001C004F031
:0A16CC0000C003F001C004F012009A
:1016D600F2C834F9F3C835F9F4C836F9F5C837F95C
:1016E600F6C838F9F7C839F97DEC06F00050000A5B
:0C16F60003E0FF0E006E01D0006A12003D
:101702000134083609360450085E0550D8A0053C5D
:10171200095E003601360F0E0C6E013408360936AA
:10172200045000A006D0085E0550D8A0053C095E12
:1017320005D008260550D8B0053C092600360136EA
:101742000C2EEBD700B006D0045008260550D8B0B6
:08175200053C0926000012000D
:10175A0005016351030A0BE1A9EC01F00050000AEC
:10176A0006E0FF0E0601786FFF0E006E33D005010A
:10177A006351010A06E1FE0E0601786FFF0E006E44
:10178A0029D0E0C8F2F8E1C8F3F8E2C8F4F8E3C8EF
:10179A00F5F81F0E0801F66F030EF76F97DF000EBC
:1017AA0000180FE0FF0E03011B6FFF0E1C6FFF0EE8
:1017BA001D6FFF0E1E6FFE0E0601786FFF0E006E84
:1017CA0009D0E0C81BF3E1C81CF3E2C81DF3E3C863
:0617DA001EF3006A12007C
:1017E0000901636B646B656B666BD6EC01F00050AE
:1017F000000A03E0FF0E006E2BD11F0E0801E16FFF
:10180000030EE26F1F0EE36F030EE46FFE0EE12581
:10181000F26F010EE221F36F39DF0150AA0A02E1F3
:10182000550E001806E0FC0E0601786FFF0E006EE4
:101830000FD1E3C8E9FFE4C8EAFFEECF01F00150A1
:10184000E90A15E0E3C8E9FFE4C8EAFFEECF01F0DA
:101850000150EB0A0BE1020E0801E325E96E000ED0
:10186000E421EA6EEE50900A01E101D006D0FB0EB1
:101870000601786FFF0E006EEBD00801E06B010EE1
:10188000E05DD8B0E4D00A0E006E000E016EE0C834
:1018900004F0000E056E43EC05F01F0E0026050E49
:1018A000012200C0E5F801C0E6F8BE0EE125F26FA6
:1018B000010EE221F36F040E026EE0C800F0000E8C
:1018C000016E025005E0003600900136FF0FFAD796
:1018D0000050F2270150F32353EC08F0E5C8E1FF74
:1018E000E6C8E2FF00C0E6FF0A0E006E000E016EC1
:1018F000E0C804F0000E056E43EC05F01F0E002654
:10190000050E0122010E0024E56F000E0120E66F96
:10191000BE0EE125F26F010EE221F36F040E026E9E
:10192000E0C800F0000E016E025005E000360090A5
:101930000136FF0FFAD70050F2270150F323040EAF
:10194000F227000EF32353EC08F0E5C8E1FFE6C8E8
:10195000E2FF00C0E6FF0A0E006E000E016EE0C856
:1019600004F0000E056E43EC05F01F0E0026050E78
:101970000122020E0024E56F000E0120E66FBE0E6C
:10198000E125F26F010EE221F36F040E026EE0C852
:1019900000F0000E016E025005E0003600900136A6
:1019A000FF0FFAD70050F2270150F323080EF22759
:1019B000000EF323BAEC08F0E5C8E1FFE6C8E2FF49
:1019C00000C0E6FF01C0E6FF02C0E6FF03C0E6FF7D
:1019D0000A0E006E000E016EE0C804F0000E056EE7
:1019E00043EC05F01F0E0026050E0122060E002412
:1019F000E56F000E0120E66FBE0EE125F26F010ECD
:101A0000E221F36F040E026EE0C800F0000E016EDA
:101A1000025005E0003600900136FF0FFAD7005063
:101A2000F2270150F3230C0EF227000EF323BAEC39
:101A300008F0E5C8E1FFE6C8E2FF00C0E6FF01C02C
:101A4000E6FF02C0E6FF03C0E6FFE02B18D7006AFE
:021A5000120082
:101A5200010E066E000E076E086E096E056A800E94
:101A6200006E800E000A005C02E1200E055C23E29B
:101A720006500801E011016E0750E111026E085094
:101A8200E211036E0950E311046E0450091808E1D3
:101A92000350081805E10250071802E10150061828
:101AA20003E105C000F009D0063606900736083675
:0C1AB2000936052AD4D7FF0E006E120082
:101ABE00FF0E0801E225EC6F000EE321ED6F0B0E19
:101ACE00E025F26F000EE121F36F53EC08F0ECC845
:101ADE00E1FFEDC8E2FF00C0E6FF000EE225EC6F6D
:101AEE00010EE321ED6F1C0EE025F26F000EE121D9
:101AFE00F36FBAEC08F0ECC8E1FFEDC8E2FF00C0EE
:101B0E00E6FF01C0E6FF02C0E6FF03C0E6FF040EDB
:101B1E00E225F06F010EE321F16F140EE025F26F56
:101B2E00000EE121F36FABDD00C003F001C004F045
:101B3E00000E056E066E04C0EFF803C0EEF8EC6BF7
:101B4E00ED6B1A0EE025F26F000EE121F36F97DDBB
:101B5E00000E026E036EEC510026ED510122EE5185
:101B6E000222EF510322F0C8E1FFF1C8E2FF00C0EC
:101B7E00E6FF01C0E6FF02C0E6FF03C0E6FF0B0E64
:101B8E00E025E96E000EE121EA6E3F0EEE14016EC5
:101B9E0001500F0A27E0E2C8F2F8E3C8F3F8F46B3D
:101BAE00FF0EF56F000EF66F4CDDE2C8F2F8E3C8DB
:101BBE00F3F8E4C8F4F8E5C8F5F8E6C8F6F8E7C8AF
:101BCE00F7F8E8C8F8F8E9C8F9F8EAC8FAF8EBC87F
:101BDE00FBF864EC09F00050000A03E0FF0E006E03
:101BEE0007D005D0E2C8E1FFE3C8E2FFE66A006A6B
:021BFE001200D3
:101C0000E0C802F0E1C803F002C000F003C001F038
:101C1000024A032A00C0E9FF01C0EAFFEE5201E0D8
:101C2000F3D70801E051025C006EE1510358016EE8
:0A1C3000010E005E000E015A1200C2
:101C3A00E0C848F965EC03F0005208E1E0C8F2F8A0
:101C4A0047EC09F0005202E1006A02D0010E006E70
:021C5A00120076
:101C5C000B1E0A1E091E081E082AD8B4092AD8B45D
:081C6C000A2AD8B40B2A120069
:101C7400E4C801F0E5C802F0010E0801E45F000EBB
:101C8400E55B000E021802E1000E01181FE0E0C837
:101C9400E9FFE1C8EAFFE2C8D9FFE3C8DAFFEE5082
:101CA400DE180FE0E0C8E9FFE1C8EAFFE2C8D9FFA7
:101CB400E3C8DAFFDE50EE5C006E016A000E015AE2
:101CC40007D0E04BE12BE24BE32BD2D7006A016A49
:021CD4001200FC
:101CD6000801E0517A0804E3610EE05DD8B0E09BAC
:061CE600E0C800F012004E
:101CEC000450085E0550D8A0053C095E0650D8A0EB
:101CFC00063C0A5E0750D8A0073C0B5E0336070E65
:101D0C000C6E0334083609360A360B36045003A021
:101D1C000ED0085E0550D8A0053C095E0650D8A030
:101D2C00063C0A5E0750D8A0073C0B5E0DD0082677
:101D3C000550D8B0053C09260650D8B0063C0A26FA
:101D4C000750D8B0073C0B2603360C2EDAD70234DA
:101D5C00083609360A360B36045003A00ED0085E3E
:101D6C000550D8A0053C095E0650D8A0063C0A5E7A
:101D7C000750D8A0073C0B5E0DD008260550D8B0F4
:101D8C00053C09260650D8B0063C0A260750D8B0A8
:101D9C00073C0B260236070E0C6E02340836093649
:101DAC000A360B36045002A00ED0085E0550D8A09F
:101DBC00053C095E0650D8A0063C0A5E0750D8A028
:101DCC00073C0B5E0DD008260550D8B0053C092603
:101DDC000650D8B0063C0A260750D8B0073C0B2654
:101DEC0002360C2EDAD70134083609360A360B3691
:101DFC00045002A00ED0085E0550D8A0053C095E28
:101E0C000650D8A0063C0A5E0750D8A0073C0B5ED3
:101E1C000DD008260550D8B0053C09260650D8B080
:101E2C00063C0A260750D8B0073C0B260136070E95
:101E3C000C6E0134083609360A360B36045001A0F4
:101E4C000ED0085E0550D8A0053C095E0650D8A0FF
:101E5C00063C0A5E0750D8A0073C0B5E0DD0082646
:101E6C000550D8B0053C09260650D8B0063C0A26C9
:101E7C000750D8B0073C0B2601360C2EDAD70034AD
:101E8C00083609360A360B36045001A00ED0085E0F
:101E9C000550D8A0053C095E0650D8A0063C0A5E49
:101EAC000750D8A0073C0B5E0DD008260550D8B0C3
:101EBC00053C09260650D8B0063C0A260750D8B077
:101ECC00073C0B260036070E0C6E0034083609361C
:101EDC000A360B36045000A00ED0085E0550D8A070
:101EEC00053C095E0650D8A0063C0A5E0750D8A0F7
:101EFC00073C0B5E0DD008260550D8B0053C0926D2
:101F0C000650D8B0063C0A260750D8B0073C0B2622
:101F1C0000360C2EDAD700B00ED00450082605502F
:101F2C00D8B0053C09260650D8B0063C0A26075006
:081F3C00D8B0073C0B2612008F
:101F440005016351020A17E1010E03011B25080173
:101F5400F26F000E03011C210801F36F000E030150
:101F64001D210801F46F000E03011E210801F56F05
:101F74005AEC08F030D005016351000A06E1FF0E67
:101F84000601786FFF0E006E26D01F0E0901346F14
:101F9400030E356F3CEC05F00050000A06E0FF0E1E
:101FA4000601786FFF0E006E16D0010E03011B258B
:101FB400006E000E1C21016E000E1D21026E000E2B
:101FC4001E21036E00C01BF301C01CF302C01DF3ED
:081FD40003C01EF3006A1200B5
:101FDC000E0E0801E025F26F000EE121F36F46ECC6
:101FEC000BF00B0E046E00C002F001C003F00450A5
:101FFC0005E003320232039EFF0FFAD71F0E0214C4
:10200C00006E00C084F60E0EE025F26F000EE1218A
:10201C00F36F46EC0BF0050E046E00C002F001C02D
:10202C0003F0045005E003320232039EFF0FFAD78F
:10203C003F0E0214006E00C085F60E0EE025F26F06
:10204C00000EE121F36F46EC0BF000C002F00236FB
:10205C0002903F0E0214006E00C086F6100EE025B2
:10206C00F26F000EE121F36F46EC0BF0090E046EDB
:10207C0000C002F001C003F0045005E0033202324C
:10208C00039EFF0FFAD77F0E0214006E03C001F0FF
:10209C00000E011600C080F601C081F6BC0E0026B1
:1020AC00070E012200C080F601C081F6100EE0255B
:1020BC00F26F000EE121F36F46EC0BF0050E046E8F
:1020CC0000C002F001C003F0045005E003320232FC
:1020DC00039EFF0FFAD70F0E0214006E00C082F69B
:1020EC00100EE025F26F000EE121F36F46EC0BF0C1
:0E20FC001F0E0014006E00C083F6006A120072
:10210A000801E16BE26B270EE25D02E1100EE15D70
:10211A00D8B0B3D0000E000A02E1000EE0191AE1AD
:10212A00B0EC00F0010E09017B6F7C6B7D6B7E6B5E
:10213A007F6BFF0E806FB2EC00F000C0E3F82CEC6E
:10214A0000F00801E351000A04E10201086B006A89
:10215A0096D08FD0B0EC00F0370E09017B6F7C6B04
:10216A007D6B7E6B7F6BFF0E806FB2EC00F000C060
:10217A00E3F82CEC00F00801E351010AD8A478D066
:10218A00B0EC00F0290E09017B6F000E7C6F000E87
:10219A007D6F000E7E6F400E7F6FFF0E806FB2EC78
:1021AA0000F000C0E3F82CEC00F00801E351000A4B
:1021BA005EE1000E000A02E1020EE01953E1B0EC02
:1021CA0000F03A0E09017B6F7C6B7D6B7E6B7F6B37
:1021DA00FF0E806FB2EC00F000C0E3F8B4C6E1FF76
:1021EA00B5C6E2FFFF0EE66EB2C600F0B3C601F056
:1021FA0020EC00F000C0E4F8B4C6E1FFB5C6E2FF87
:10220A00FF0EE66EB2C600F0B3C601F020EC00F095
:10221A00B4C6E1FFB5C6E2FFFF0EE66EB2C600F035
:10222A00B3C601F020EC00F0B4C6E1FFB5C6E2FF88
:10223A00FF0EE66EB2C600F0B3C601F020EC00F065
:10224A002CEC00F00801E351000A0BE1E4AD04D0E4
:10225A00040E0201086F03D00201030E086F006A20
:10226A000ED005D00201010E086F006A08D001D015
:10227A0004D00801E14BE22B46D7010E006E120092
:10228A00160E0801E025F26F000EE121F36F46EC0D
:10229A000BF00B0E046E00C002F001C003F00450F4
:1022AA0005E003320232039EFF0FFAD71F0E021413
:1022BA00006E00C07DF6160EE025F26F000EE121D9
:1022CA00F36F46EC0BF0050E046E00C002F001C07D
:1022DA0003F0045005E003320232039EFF0FFAD7DF
:1022EA003F0E0214006E00C07EF6160EE025F26F55
:1022FA00000EE121F36F46EC0BF000C002F002364B
:10230A0002903F0E0214006E00C07FF6180EE02500
:10231A00F26F000EE121F36F46EC0BF0090E046E2A
:10232A0000C002F001C003F0045005E0033202329B
:10233A00039EFF0FFAD77F0E0214006E03C001F04E
:10234A00000E011600C079F601C07AF6BC0E00260E
:10235A00070E012200C079F601C07AF6180EE025B0
:10236A00F26F000EE121F36F46EC0BF0050E046EDE
:10237A0000C002F001C003F0045005E0033202324B
:10238A00039EFF0FFAD70F0E0214006E00C07BF6F1
:10239A00180EE025F26F000EE121F36F46EC0BF008
:0E23AA001F0E0014006E00C07CF6006A1200C8
:1023B800160E0801BF25006E000EC021016E010E29
:1023C8000024E16E000E0120E26E8BC600F000369C
:1023D8000090003600900036009000C0E6FF160E10
:1023E800BF25006E000EC021016E010E0024026E92
:1023F800000E0120036E8CC600F00032009E0032F1
:10240800009E0032009E02C0E9FF03C0EAFFEE50C2
:10241800002602C0E1FF03C0E2FF00C0E6FF160E7F
:10242800BF25E16E000EC021E26E050E016E8CC65E
:1024380000F0015004E000360090FF0FFBD700C009
:10244800E6FF160EBF25026E000EC021036E8DC674
:1024580000F00032009E02C0E9FF03C0EAFFEE5020
:10246800002602C0E1FF03C0E2FF00C0E6FF180E2D
:10247800BF25006E000EC021016E010E0024E16E22
:10248800000E0120E26EBC0E0601875D026E02C0DE
:1024980000F00036009000C0E6FF180E0801BF25C6
:1024A800006E000EC021016E010E0024026E000EA7
:1024B8000120036E89C600F00032009E0032009EA3
:1024C8000032009E02C0E9FF03C0EAFFEE5000267A
:1024D80002C0E1FF03C0E2FF00C0E6FF180EBF25FF
:1024E800E16E000EC021E26E050E016E89C600F095
:1024F800015004E000360090FF0FFBD700C0E6FF54
:10250800180EBF25016E000EC021026E01C0E9FF42
:1025180002C0EAFF06018A51EE24006E01C0E1FF05
:0C25280002C0E2FF00C0E6FF006A1200E3
:10253400F0EC0BF01F0E0801C06F030EC16F060113
:102544007851FF0A03E1FF0E006E74D27851FC0A41
:1025540003E1FF0E006E6ED27851000AD8A466D053
:102564000F0E05012015016E01C0C2F801500B0ABF
:102574000AE00801C2510C0A06E0F80E0601786F61
:10258400FF0E006E57D221C563F922C564F923C535
:1025940065F924C566F9D6EC01F00050000A03E0A1
:1025A400FF0E006E47D21F0E0801C06F030EC16FED
:1025B400FE0EC025F26F010EC121F36F46EC0BF045
:1025C4000150AA0A02E1550E001806E0FC0E0601AD
:1025D400786FFF0E006E2ED2C0C8E9FFC1C8EAFFB3
:1025E400EECF01F00150E90A16E0C0C8E9FFC1C806
:1025F400EAFFEECF01F00150EB0A0BE1020E0801F5
:10260400C025E96E000EC121EA6EEE50900A01E188
:1026140002D0006A02D0010E006E005206E1FB0EE9
:102624000601786FFF0E006E05D21ED006017851A8
:10263400FB0A1AE1800E05011F6F216B226B236BCD
:10264400246B200E0801C025F26F000EC121F36F28
:10265400BAEC08F000C025F501C026F502C027F544
:1026640003C028F50601786B06017851000AD8A446
:10267400DCD10B0E0801C025F26F000EC121F36FEF
:1026840046EC0BF000C029F501C02AF50D0EC0255B
:10269400F26F000EC121F36F53EC08F000C02BF56C
:1026A4000E0EC025F26F000EC121F36F46EC0BF045
:1026B40000C02CF501C02DF5100EC025F26F000EE0
:1026C400C121F36F53EC08F000C02EF5240EC02591
:1026D400F26F000EC121F36FBAEC08F000C02FF5C1
:1026E40001C030F502C031F503C032F5280EC02513
:1026F400F26F000EC121F36F46EC0BF000C033F50E
:1027040001C034F505012C512125006E2D512221E3
:10271400016E000E2321026E000E2421036E00C000
:1027240035F501C036F502C037F503C038F52C0E77
:102734000801C025F26F000EC121F36FBAEC08F056
:1027440000C039F501C03AF502C03BF503C03CF5C1
:10275400110EC025F26F000EC121F36F46EC0BF091
:1027640000C03DF501C03EF5300EC025F26F000EED
:10277400C121F36F46EC0BF0000E026E036E0501EF
:1027840021510026225101222351022224510322E5
:1027940000C043F501C044F502C045F503C046F549
:1027A40035C53FF536C540F537C541F538C542F561
:1027B4000801BF6B05012E510801BF5D18E2050138
:1027C4002F513F25006E30514021016E315141217E
:1027D400026E32514221036E00C03FF501C040F544
:1027E40002C041F503C042F50801BF2BE3D7050E33
:1027F400006E29C564F52AC565F5000E0501666FEE
:10280400676F005005E065336433659FFF0FFAD7A7
:10281400000E666F676F29C557F52AC558F5000E77
:10282400596F5A6F58335733589F58335733589FFB
:10283400000E596F5A6F29C5E0F82AC5E1F8000E59
:102844000801E26FE36F29EC0DF000C0A0F62BC580
:10285400E0F8000E0801E16FE26FE36F29EC0DF080
:1028640000C09AF664C5E0F865C5E1F866C5E2F80B
:1028740067C5E3F829EC0DF000C09BF657C5E0F8F6
:1028840058C5E1F859C5E2F85AC5E3F829EC0DF04A
:1028940000C05CF506019A51A025006E00C023F724
:1028A400010E9C6F000E9D6F000E9E6F000E9F6FB9
:1028B400005007E09C379C919D379E379F37FF0F50
:1028C400F8D7200E0801E06F000EE16FE26FE36FAE
:1028D40029EC0DF000500701235D006E016A000E23
:1028E40000BEFF0E015A00C004F0010E006E000E7F
:1028F400016E000E026E000E036E045007E00036F7
:102904000090013602360336FF0FF8D700C05DF59C
:1029140001C05EF502C05FF503C060F500C0E0F8D9
:1029240001C0E1F802C0E2F803C0E3F829EC0DF0BD
:1029340000C0A1F639C54FF53AC550F53BC551F570
:102944003CC552F50501536B546B556B566B3FC533
:1029540000F040C501F041C502F042C503F0215129
:10296400005E2251015A2351025A2451035A25C5AB
:1029740017F326C518F327C519F328C51AF3005011
:102984000301175F0150185B0250195B03501A5B77
:102994009AC600F0005007E01A331933183317337E
:1029A4001A9FFF0FF8D7020E1727000E18231923BA
:1029B4001A230501205325E1000E03011A5D08E1E5
:1029C400000E195D05E1FF0E185D02E1F70E175DBB
:1029D40004E30B0E0501206F14D0000E03011A5DF1
:1029E40008E1000E195D05E10F0E185D02E1F70E16
:1029F400175D04E3060E0501206F03D00501010EE7
:102A0400206F0F0E2015016E01C0C2F801500B0A91
:102A14000AE00801C2510C0A06E0F80E0601786FBC
:102A2400FF0E006E07D0006A05D00601FB0E786F1A
:062A3400FF0E006E12000F
:102A3A004BC5BFF84CC5C0F84DC5C1F84EC5C2F864
:102A4A0005013C514E5D08E13B514D5D05E13A51AE
:102A5A004C5D02E139514B5D15E303011A5108013E
:102A6A00C25D0EE1030119510801C15D09E10301CB
:102A7A0018510801C05D04E1030117510801BF5D47
:102A8A0001E208D039C5BFF83AC5C0F83BC5C1F85C
:102A9A003CC5C2F8BFC8C3F8C0C8C4F8C1C8C5F8A5
:102AAA00C2C8C6F85CC504F0BFC800F0C0C801F0CF
:102ABA00C1C802F0C2C803F0045007E00332023270
:102ACA0001320032039EFF0FF8D700500501352569
:102ADA000801F26F0150050136210801F36F025017
:102AEA00050137210801F46F035005013821080157
:102AFA00F56F57C500F058C501F059C502F05AC51F
:102B0A0003F0010E005E000E015A025A035A0050E9
:102B1A00BF15046E0150C015056E0250C115066E30
:102B2A000350C215076E04C000F005C001F000365C
:102B3A00009001360036009001361F0E0024C76F40
:102B4A00030E0120C86F5AEC08F00050000A09E091
:102B5A00FF0E006EFF0E016EFF0E026E0F0E036E69
:102B6A006CD10801C96BC7C8E9FFC8C8EAFFEECF34
:102B7A0001F0EECF02F0EECF03F0EECF04F00450F6
:102B8A00000A08E10350000A05E10250000A02E1C6
:102B9A000150000A04E10801010EC96FC0D0080102
:102BAA00040EC727000EC823010EBF27000EC0233C
:102BBA00C123C22303011A510801C25D0EE10301B8
:102BCA0019510801C15D09E1030118510801C05DED
:102BDA0004E1030117510801BF5D76E339C5BFF867
:102BEA003AC5C0F83BC5C1F83CC5C2F8A9EC01F02A
:102BFA000050000A09E0FF0E006EFF0E016EFF0E84
:102C0A00026E0F0E036E19D15CC504F0BFC800F046
:102C1A00C0C801F0C1C802F0C2C803F0045007E0FE
:102C2A000332023201320032039EFF0FF8D70050FE
:102C3A00050135250801F26F015005013621080109
:102C4A00F36F0250050137210801F46F03500501A3
:102C5A0038210801F56F57C500F058C501F059C56C
:102C6A0002F05AC503F0010E005E000E015A025A24
:102C7A00035A0050BF15046E0150C015056E02506C
:102C8A00C115066E0350C215076E04C000F005C0D8
:102C9A0001F00036009001360036009001361F0E12
:102CAA000024C76F030E0120C86F5AEC08F00050C9
:102CBA00000A09E0FF0E006EFF0E016EFF0E026EA3
:102CCA000F0E036EBAD01CD00801C8510501621953
:102CDA0003E161510801C71913E108011F0EC76F0B
:102CEA00030EC86FA2EC0FF00050000A09E0FF0EB5
:102CFA00006EFF0E016EFF0E026E0F0E036E9DD068
:102D0A000801C251C61908E1C151C51905E1C051EE
:102D1A00C41902E1BF51C31901E101D024D7A9ECBA
:102D2A0001F00050000A09E0FF0E006EFF0E016E6E
:102D3A00FF0E026E0F0E036E80D00801C95309E11F
:102D4A00FF0E006EFF0E016EFF0E026E0F0E036E77
:102D5A0074D0C7C8E1FFC8C8E2FFFF0EE66EFF0ED7
:102D6A00E66EFF0EE66E0F0EE66E5CC504F0BFC897
:102D7A0000F0C0C801F0C1C802F0C2C803F0045094
:102D8A0007E00332023201320032039EFF0FF8D706
:102D9A000050050135250801E06F01500501362173
:102DAA000801E16F0250050137210801E26F035063
:102DBA00050138210801E36FADEC0BF00050000A61
:102DCA0007E0FF0E006EFF0E016E026E036E35D035
:102DDA0005014A51FF0A08E14951FF0A05E1485134
:102DEA00FF0A02E14751FF0A16E047C500F048C54D
:102DFA0001F049C502F04AC503F0010E005E000E5B
:102E0A00015A025A035A00C047F501C048F502C0E8
:102E1A0049F503C04AF5BFC84BF5C0C84CF5C1C84F
:102E2A004DF5C2C84EF5010E5B6FBFC800F0C0C8B1
:0C2E3A0001F0C1C802F0C2C803F0120091
:102E4600050E0201086F95982CEC00F00801BF6B87
:102E5600C06B000EC05D02E10A0EBF5D10E2B4C693
:102E6600E1FFB5C6E2FFFF0EE66EB2C600F0B3C6DE
:102E760001F020EC00F00801BF4BC02BEAD7B0EC04
:102E860000F009017B6B7C6B7D6B7E6B7F6B950E17
:102E9600806FB2EC00F000C0C1F82CEC00F0080125
:102EA600C151010A03E0010E006E85D0B0EC00F0BE
:102EB600080E09017B6FAA0E7C6F010E7D6F000E56
:102EC6007E6F7F6F870E806FB2EC00F000C0C1F896
:102ED600B4C6E1FFB5C6E2FFFF0EE66EB2C600F06D
:102EE600B3C601F020EC00F0B4C6E1FFB5C6E2FFC0
:102EF600FF0EE66EB2C600F0B3C601F020EC00F09D
:102F0600B4C6E1FFB5C6E2FFFF0EE66EB2C600F03C
:102F1600B3C601F020EC00F0B4C6E1FFB5C6E2FF8F
:102F2600FF0EE66EB2C600F0B3C601F020EC00F06C
:102F36002CEC00F00801C151010A0BE0010EE06F14
:102F460085EC10F0005204E00801E06B85EC10F00F
:102F560005D0020E0801E06F85EC10F0000E000AA5
:102F660003E1050E0201081903E1020E006E23D0EB
:102F7600000E000A03E10201040E08191BE0B0EC82
:102F860000F0100E09017B6F000E7C6F020E7D6F44
:102F9600000E7E6F7F6FFF0E806FB2EC00F000C0F8
:102FA600C1F82CEC00F00801C151000A03E0030E41
:082FB600006E01D0006A120058
:102FBE001A0E0801BF25E16E000EC021E26EC1C8D7
:102FCE00E6FF1A0EBF25006E000EC021016E010E27
:102FDE000024E16E000E0120E26EC2C8E6FF140E60
:102FEE00BF25E16E000EC021E26EC3C8E6FF140ECF
:102FFE00BF25006E000EC021016E010E0024E16E91
:0E300E00000E0120E26EC4C8E6FF006A120048
:10301C0005015651FF0A08E15551FF0A05E15451CB
:10302C00FF0A02E15351FF0A06E1F60E0601786F22
:10303C00FF0E006E7ED24FC5C1F850C5C2F851C507
:10304C00C3F852C5C4F805013C51525D08E13B512F
:10305C00515D05E13A51505D02E139514F5D15E387
:10306C0003011A510801C45D0EE103011951080155
:10307C00C35D09E1030118510801C25D04E10301BC
:10308C0017510801C15D01E206D0F40E0601786FFC
:10309C00FF0E006E4ED20801CB6BA1C600F053C5DB
:1030AC0001F054C502F055C503F056C504F00050AC
:1030BC0007E00432033202320132049EFF0FF8D7CC
:1030CC000450000809E10350000806E10250000812
:1030DC0003E108010150CB5D56E2C1C85FF9C2C8DB
:1030EC0060F9C3C861F9C4C862F993EC02F000C07E
:1030FC00C1F801C0C2F802C0C3F803C0C4F8035041
:10310C000F0A08E10250FF0A05E10150FF0A02E133
:10311C000050FF0A06E1F10E0601786FFF0E006EFB
:10312C0008D205013C510801C45D0EE105013B517B
:10313C000801C35D09E105013A510801C25D04E1D2
:10314C00050139510801C15D15E303011A5108014C
:10315C00C45D0EE1030119510801C35D09E10301CE
:10316C0018510801C25D04E1030117510801C15D4A
:10317C0001E206D0F40E0601786FFF0E006ED9D175
:10318C000801CB2B8AD75DC500F05EC501F05FC589
:10319C0002F060C503F0010E005E000E015A025AE7
:1031AC00035A0050050153150801C76F0150050162
:1031BC0054150801C86F0250050155150801C96F57
:1031CC000350050156150801CA6FC1C85FF9C2C882
:1031DC0060F9C3C861F9C4C862F966EC02F09BC619
:1031EC0008F0C7C804F0C8C805F0C9C806F0CAC8BA
:1031FC0007F0085007E00732063205320432079E0A
:10320C00FF0FF8D7045000240801F26F055001207D
:10321C00F36F06500220F46F07500320F56F64C55E
:10322C0000F065C501F066C502F067C503F0010E3C
:10323C00005E000E015A025A035A0050C715046E64
:10324C000150C815056E0250C915066E0350CA15FB
:10325C00076E050E026E04C000F005C001F00250AE
:10326C0005E0003600900136FF0FFAD708011F0E5B
:10327C000024C56F030E0120C66F5AEC08F00050F5
:10328C00000A03E0FF0E006E54D1C5C8E9FFC6C8A2
:10329C00EAFFEECF01F00150E50A0AE0C5C8E9FFEC
:1032AC00C6C8EAFFEECF01F0200E015C01E318D096
:1032BC00C5C8E9FFC6C8EAFFEECF01F0140E015CE9
:1032CC000EE20B0E0801C525E96E000EC621EA6E52
:1032DC003F0EEE14016E01500F0A01E101D098D09F
:1032EC00A9EC01F00050000A03E0FF0E006E21D1A2
:1032FC000B0E0801C525E96E000EC621EA6EEECF55
:10330C0001F001A62FD0BFC8F2F8C0C8F3F8F46BD7
:10331C00100EF56F010EF66F28EC0BF0FF0EBF25AB
:10332C00CC6F000EC021CD6F0B0EC525F26F000EB9
:10333C00C621F36F53EC08F0CCC8E1FFCDC8E2FF17
:10334C0000C0E6FFBFC848F9C0C849F9C5C84AF96A
:10335C00C6C84BF90B0E09014C6F000E4D6FF5EC06
:10336C0003F04CD00801BF51C01148E0C5C8E0F8CB
:10337C00C6C8E1F8BFC8E2F8C0C8E3F84FC5E4F826
:10338C0050C5E5F851C5E6F852C5E7F853C5E8F85D
:10339C0054C5E9F855C5EAF856C5EBF85FEC0DF0E5
:1033AC000050000A03E0FF0E006EC3D0C5C8E0F861
:1033BC00C6C8E1F8EEEC0FF0C5C8E0F8C6C8E1F8F5
:1033CC0045EC11F0080EBF25E16E010EC021E26E36
:1033DC004FC5E6FF50C5E6FF51C5E6FF52C5E6FFF7
:1033EC000C0EBF25E16E010EC021E26E53C5E6FF47
:1033FC0054C5E6FF55C5E6FF56C5E6FF010E0501AF
:10340C005327000E542355235623010E006E91D0E2
:10341C00010E0801C727000EC823C923CA23200E9A
:10342C00C525016E000EC621026E01C0C5F802C092
:10343C00C6F8010E05015327000E542355235623BD
:10344C000250621902E161510118D8A471D01F0E0B
:10345C000801C56F030EC66FCA51050160190EE154
:10346C000801C95105015F1909E10801C85105019D
:10347C005E1904E10801C75105015D1951E1A9EC80
:10348C0001F00050000A03E0FF0E006E52D008015C
:10349C00C76BC86BC96BCA6BC1C85FF9C2C860F98E
:1034AC00C3C861F9C4C862F993EC02F000C0C1F85A
:1034BC0001C0C2F802C0C3F803C0C4F803500F0A1D
:1034CC0008E10250FF0A05E10150FF0A02E1005039
:1034DC00FF0A0BE1FF0E0501536FFF0E546FFF0E39
:1034EC00556FFF0E566F006A24D0C1C85FF9C2C871
:1034FC0060F9C3C861F9C4C862F966EC02F000C097
:10350C00F2F801C0F3F802C0F4F803C0F5F85AEC75
:10351C0008F00050000A03E0FF0E006E0AD008D03D
:10352C00A2EC0FF00050000A03E0FF0E006E01D079
:04353C00ACD61200F7
:103540000E0E0801BF25006E000EC021016E010E97
:103550000024E16E000E0120E26E8BC600F0003602
:103560000090003600900036009000C0E6FF0E0E7E
:10357000BF25006E000EC021016E010E0024026EF8
:10358000000E0120036E8CC600F00032009E003257
:10359000009E0032009E02C0E9FF03C0EAFFEE5029
:1035A000002602C0E1FF03C0E2FF00C0E6FF0E0EEE
:1035B000BF25E16E000EC021E26E050E016E8CC6C5
:1035C00000F0015004E000360090FF0FFBD700C070
:1035D000E6FF0E0EBF25026E000EC021036E8DC6E3
:1035E00000F00032009E02C0E9FF03C0EAFFEE5087
:1035F000002602C0E1FF03C0E2FF00C0E6FF100E9C
:10360000BF25006E000EC021016E010E0024E16E88
:10361000000E0120E26EBC0E0601875D026E02C044
:1036200000F00036009000C0E6FF100E0801BF2534
:10363000006E000EC021016E010E0024026E000E0D
:103640000120036E89C600F00032009E0032009E09
:103650000032009E02C0E9FF03C0EAFFEE500026E0
:1036600002C0E1FF03C0E2FF00C0E6FF100EBF256D
:10367000E16E000EC021E26E050E016E89C600F0FB
:10368000015004E000360090FF0FFBD700C0E6FFBA
:10369000100EBF25016E000EC021026E01C0E9FFB1
:1036A00002C0EAFF06018A51EE24006E01C0E1FF6C
:0C36B00002C0E2FF00C0E6FF006A12004A
:1036BC005CC504F0C3C800F0C4C801F0C5C802F072
:1036CC00C6C803F0045007E0033202320132003264
:1036DC00039EFF0FF8D700C0C8F801C0C9F802C09C
:1036EC00CAF803C0CBF8050135510024086E3651D9
:1036FC000120096E375102200A6E385103200B6EDF
:10370C0008C0C8F809C0C9F80AC0CAF80BC0CBF881
:10371C0057C500F058C501F059C502F05AC503F061
:10372C00010E005E000E015A025A035A00500801A5
:10373C00C315046E0150C415056E0250C515066EF6
:10374C000350C615076E04C000F005C001F000362A
:10375C00009001360036009001361F0E0024D06F09
:10376C00030E0120D16F08C063F909C064F90AC0C7
:10377C0065F90BC066F9D6EC01F00050000A03E0C5
:10378C00FF0E006E46D0D0C8E1FFD1C8E2FFBFC823
:10379C00E6FFC0C8E6FFC1C8E6FFC2C8E6FFC8C85E
:1037AC00CCF8C9C8CDF8CAC8CEF8CBC8CFF8080138
:1037BC00C76B05012E510801C75D22E2CCC8E0F8A9
:1037CC00CDC8E1F8CEC8E2F8CFC8E3F8ADEC0BF009
:1037DC000050000A03E0FF0E006E1BD005012F51B4
:1037EC000801CC27050130510801CD2305013151C9
:1037FC000801CE23050132510801CF23C72BD9D79D
:10380C00C8C81BF3C9C81CF3CAC81DF3CBC81EF328
:04381C00006A12002C
:103820000450000A08E10550000A05E1FF0E006E91
:103830007F0E016E58D00D6A096A086A01500010A7
:10384000D8B4000C015005180A6E0ABE0D1E0B6A92
:1038500005AE05D0041E051E042AD8B4052A01AE03
:1038600005D0001E011E002AD8B4012A01500510FF
:103870000A6E0ABE10D081EC0BF00BB020D00DAE5A
:10388000000C001E011E002AD8B4012A081E091EC1
:10389000082AD8B4092A000C05AE0DD001BE07D005
:1038A0000150096E0050086E016A006AE8D7016A8B
:1038B000006A002A000C011E001E0B2ADDD7082A10
:1038C000D8B4092A0450085CD8A4D9D70550095C9B
:1038D000D8A4D5D7096A086A002AD8B4012A01AE4B
:0838E000CED70000FF0C12001E
:1038E800BFC8E0F8C0C8E1F800EC0EF000C0C4F8AA
:1038F80001C0C5F8C1C8E0F8C2C8E1F800EC0EF094
:10390800C551011802E10050C41902E0006A2FD025
:10391800C36BC1C8E0F8C2C8E1F800EC0EF0800E35
:10392800026E800E0118025C02E10050C35D1DE2C8
:10393800C351BF25E96E000EC021EA6EEECFE0F854
:103948006BEC0EF000C0C4F8C351C125E96E000E3F
:10395800C221EA6EEECFE0F86BEC0EF0C45100180D
:1039680002E0006A04D0C32BD4D7010E006E120007
:10397800010E0801C36FC46BC56BC66BC76BC86B00
:10398800C96BBFC8E9FFC0C8EAFFEE50000A06E1EC
:10399800C40E0601786FFF0E006EF2D0BFC8E0F8C3
:1039A800C0C8E1F800EC0EF000C0C2F8C16BBFC897
:1039B800E0F8C0C8E1F800EC0EF0800E026E800E50
:1039C8000118025C02E10050C15D15E2C151BF253A
:1039D800E96E000EC021EA6EEECFE0F81DEC0EF0A5
:1039E800005206E1C30E0601786FFF0E006EC8D0C4
:1039F8000801C12BDCD7C205006E000EC2BFFF0E46
:103A0800016E000E015A0050BF25E96E0150C02119
:103A1800EA6EEE502E0A02E1C207EDD7800E000AC8
:103A2800006E800EC219005C06E3E20E0601786F94
:103A3800FF0E006EA5D0BFC8E0F8C0C8E1F800ECE2
:103A48000EF0800EC2BF7F0E026E800E0118025C5F
:103A580002E10050C25D09E2C251BF25E16E000ECD
:103A6800C2BFFF0EC021E26EE66AC16B800E006E17
:103A7800800EC2BF7F0E005C02E1C251C15D12E23E
:103A8800C151BF25E96E000EC021EA6EEECFF2F8F3
:103A980047EC09F0005203E0010E006E71D00801F6
:103AA800C12BE4D7800E0C0A006E800EC219005C90
:103AB80003E2010E006E64D0C16B800E006E800EB2
:103AC800C2BF7F0E005C02E1C251C15D43E2C15139
:103AD800BF25E96E000EC021EA6EEECF5FF94EEC0D
:103AE80002F0005204E0010E0801C46F2CD0080156
:103AF800C151BF25E96E000EC021EA6EEECF5FF915
:103B08005AEC02F0005204E0010E0801C56F1BD008
:103B18000801C151BF25E96E000EC021EA6EEE50C2
:103B28002E0A11E1C7530CE1C45304E0C55302E067
:103B3800010EC66F010EC76FC36BC46BC56B08D08F
:103B4800010E006E1DD0C35302E0C82B01D0C92B53
:103B5800C12BB3D7C45304E0C55302E0010EC66FAE
:103B6800C851080804E3C951030801E303D0010E52
:103B7800006E06D0C65303E0020E006E01D0006A44
:023B8800120029
:103B8A000450000A12E10550000A0FE10650000A2B
:103B9A000CE10750000A09E1FF0E006EFF0E016EEC
:103BAA00FF0E026E7F0E036E99D00C6A07BE0C2AB6
:103BBA000D6A0B6A0A6A096A086A03500210011040
:103BCA000010D8B485D0035007180E6E0EBE0D1E15
:103BDA0007AE0BD0041E051E061E071E042AD8B403
:103BEA00052AD8B4062AD8B4072A03AE0BD0001E79
:103BFA00011E021E031E002AD8B4012AD8B4022AC2
:103C0A00D8B4032A035007100E6E0EBE1DD076ECF0
:103C1A000EF00CBE36D00DAE5BD0001E011E021E89
:103C2A00031E002AD8B4012AD8B4022AD8B4032A17
:103C3A00081E091E0A1E0B1E082AD8B4092AD8B45F
:103C4A000A2AD8B40B2A44D007AE15D003BE0DD029
:103C5A0003500B6E02500A6E0150096E0050086E36
:103C6A00036A026A016A006AD6D7036A026A016AAB
:103C7A00006A002A000C031E021E011E001E0C8E82
:103C8A00C6D7082AD8B4092AD8B40A2AD8B40B2A1B
:103C9A000450085CD8A4BFD70550095CD8A4BBD788
:103CAA0006500A5CD8A4B7D707500B5CD8A4B3D780
:103CBA000B6A0A6A096A086A002AD8B4012AD8B4BF
:103CCA00022AD8B4032A03AEA6D70E6A0E88FF0CBE
:0E3CDA000E6A0CA002D02EEC0EF0000F1200AD
:103CE800086A080E0C6E003408360450085ED8B016
:0E3CF80002D00826D89000360C2EF5D7120008
:103D06004FC5C3F850C5C4F851C5C5F852C5C6F865
:103D16000501536B546B556B566B05013C510801FD
:103D2600C65D0EE105013B510801C55D09E10501CE
:103D36003A510801C45D04E1050139510801C35D2A
:103D460015E303011A510801C65D0EE1030119517D
:103D56000801C55D09E1030118510801C45D04E1CC
:103D6600030117510801C35D01E206D0F40E0601F6
:103D7600786FFF0E006EF7D01F0E0801CB6F030E93
:103D8600CC6FC3C85FF9C4C860F9C5C861F9C6C8B5
:103D960062F966EC02F000C0F2F801C0F3F802C066
:103DA600F4F803C0F5F85AEC08F00050000A03E0F6
:103DB600FF0E006ED8D00801C76BC86BC96BCA6B03
:103DC600050160510801CA5D0EE105015F51080158
:103DD600C95D09E105015E510801C85D04E10501FF
:103DE6005D510801C75DD8B095D0CC510501621967
:103DF60003E161510801CB190DE108011F0ECB6FDC
:103E0600030ECC6FA2EC0FF00050000A03E0FF0E89
:103E1600006EA9D0CBC8E0F8CCC8E1F8BFC8E2F87C
:103E2600C0C8E3F80B0E0801E46F000EE56F3AEC2C
:103E36000EF0000E011802E1000E001858E1A9EC80
:103E460001F00050000A03E0FF0E006E8CD008015E
:103E5600C151C2113DE0CBC8E0F8CCC8E1F8C1C8F9
:103E6600E2F8C2C8E3F84FC5E4F850C5E5F851C515
:103E7600E6F852C5E7F853C5E8F854C5E9F855C55C
:103E8600EAF856C5EBF85FEC0DF00050000A03E0C7
:103E9600FF0E006E68D0080E0801C125E16E010E06
:103EA600C221E26E4FC5E6FF50C5E6FF51C5E6FFEB
:103EB60052C5E6FF0C0EC125E16E010EC221E26E6F
:103EC60053C5E6FF54C5E6FF55C5E6FF56C5E6FFF2
:103ED600CBC8E0F8CCC8E1F8EEEC0FF0CBC8E0F8C0
:103EE600CCC8E1F845EC11F0010E006E3CD008019B
:103EF600200ECB27000ECC23010EC727000EC823A9
:103F0600C923CA23010E05015327000E5423552346
:103F1600562356D7A9EC01F00050000A03E0FF0E25
:103F2600006E21D0C3C85FF9C4C860F9C5C861F97D
:103F3600C6C862F993EC02F000C0C3F801C0C4F829
:103F460002C0C5F803C0C6F803500F0A08E10250C4
:103F5600FF0A05E10150FF0A02E10050FF0A02E1F3
:083F6600006A01D0DAD6120056
:103F6E0053C5D7F854C5D8F855C5D9F856C5DAF89B
:103F7E004FC534F950C535F951C536F952C537F923
:103F8E0053C538F954C539F955C53AF956C53BF9F3
:103F9E00DB0E09013C6F080E3D6F4CEC06F0005035
:103FAE00000A03E0FF0E006E7CD164C500F065C50B
:103FBE0001F066C502F067C503F0010E005E000E4B
:103FCE00015A025A035A005005015315046E01504E
:103FDE005415056E02505515066E03505615076E94
:103FEE0004C0D3F805C0D4F806C0D5F807C0D6F87B
:103FFE00050E026E04C000F005C001F0025005E08F
:10400E00003600900136FF0FFAD71F0E002409016B
:10401E00346F030E0120356F010E0801C26F6BEC79
:10402E0005F000C0C3F8010E0501535F000E545B8E
:10403E00555B565B000E006E0801D61908E1005064
:10404E00D51905E10050D41902E1D351000A2CE133
:10405E005DC5D3F85EC5D4F85FC5D5F860C5D6F892
:10406E00010ED35F000ED45BD55BD65B4FC534F922
:10407E0050C535F951C536F952C537F953C538F91A
:10408E0054C539F955C53AF956C53BF9DB0E090148
:10409E003C6F080E3D6F4CEC06F00050000A03E03A
:1040AE00FF0E006EFED007D0010E0801D35F000E8A
:1040BE00D45BD55BD65B080164C500F065C501F025
:1040CE0066C502F067C503F0010E005E000E015AD0
:1040DE00025A035A0050D315046E0150D415056EC2
:1040EE000250D515066E0350D615076E050E026EDC
:1040FE0004C000F005C001F0025005E0003600904B
:10410E000136FF0FFAD71F0E0026030E012200C044
:10411E00D1F801C0D2F80B0E0024E96E000E01207A
:10412E00EA6E3F0EEE14016E01500F0A06E0C00E4D
:10413E000601786FFF0E006EB4D00D0E0801D1256A
:10414E00E96E000ED221EA6EEE50C31906E0C10EE2
:10415E000601786FFF0E006EA4D0D1C8E9FFD2C859
:10416E00EAFFEECF00F01F0E0014016E01500801A1
:10417E00C21906E0C20E0601786FFF0E006E91D0D6
:10418E00D1C834F9D2C835F9C40E0901366F080EFC
:10419E00376F95EC05F00801C16BC40EE96E080E81
:1041AE00EA6EC151E926D8B0EA2AEECFE0F86BEC00
:1041BE000EF000C0DFF8C205006E016A000E015A53
:1041CE000D0E046E000E056E43EC05F0C151002677
:1041DE00000E01220050BF25E96E0150C021EA6E8B
:1041EE00EECFE0F86BEC0EF0DF5100180AE0D7C806
:1041FE0053F5D8C854F5D9C855F5DAC856F5006A3E
:10420E0050D0C12B0D0EC15D0CE2C40EE96E080E2E
:10421E00EA6EC151E926D8B0EA2AEE50000A01E052
:10422E00BCD70D0EC15D2AE2C40EE96E080EEA6E11
:10423E00C151E926D8B0EA2AC205006E016A000E05
:10424E00015A0D0E046E000E056E43EC05F0C151C1
:10425E000026000E01220050BF25D96E0150C0214C
:10426E00DA6EEE50DE180AE0D7C853F5D8C854F50A
:10427E00D9C855F5DAC856F5006A13D0C22BD1C885
:10428E00E9FFD2C8EAFFEECF01F001ACCCD6D7C819
:10429E0053F5D8C854F5D9C855F5DAC856F5010EF8
:0442AE00006E12008C
:1042B20005015B5302E1006A63D01F0E08019E6F85
:1042C200030E9F6F1F0EF26F030EF36FF46B000E5F
:1042D200F56F020EF66F28EC0BF09EC8E1FF9FC847
:1042E200E2FF520EE66E520EE66E610EE66E410E71
:1042F200E66EE40E9E25E16E010E9F21E26E720EC5
:10430200E66E720EE66E410EE66E610EE66EE80E27
:104312009E25E16E010E9F21E26E47C5E6FF48C56C
:10432200E6FF49C5E6FF4AC5E6FFEC0E9E25E16EB3
:10433200010E9F21E26E4BC5E6FF4CC5E6FF4DC55F
:10434200E6FF4EC5E6FFFE0E9E25E16E010E9F21A1
:10435200E26E550EE66EAA0EE66E43C5E0F844C55F
:10436200E1F845C5E2F846C5E3F8ADEC0BF00050C4
:10437200000A03E0FF0E006E03D005015B6B006ACA
:02438200120027
:104384009EC8E9FF9FC8EAFFEE50000A07E1C40E89
:104394000601786FFF0E006E57EF28F0A0C8F2F800
:1043A400A1C8F3F8200E0801F46F0B0EF56F000E90
:1043B400F66F28EC0BF09EC8E9FF9FC8EAFFEE50A9
:1043C4002E0A12E1010E9E25E96E000E9F21EA6E6F
:1043D400EE50000A09E1A0C8E1FFA1C8E2FF2E0ED9
:1043E400E66E006A57EF28F09EC8E9FF9FC8EAFF0F
:1043F400EE502E0A23E1010E9E25E96E000E9F2148
:10440400EA6EEE502E0A1AE1020E9E25E96E000EA7
:104414009F21EA6EEE50000A11E1A0C8E1FFA1C895
:10442400E2FF2E0EE66E010EA025E16E000EA12124
:10443400E26E2E0EE66E006A57EF28F09EC8E9FF82
:104444009FC8EAFFEE502E0A07E1E20E0601786FDC
:10445400FF0E006E57EF28F09EC8E0F89FC8E1F801
:1044640000EC0EF000C0B0F801C0B1F89EC8BFF86F
:104474009FC8C0F8BCEC1CF000C0ADF80050FF0AA7
:1044840004E1FF0E006E57EF28F0010E0801B05D45
:10449400006E000EB159016E00509E25E96E015068
:1044A4009F21EA6EEE502E0A10E0010EB05D006E00
:1044B400000EB159016E00509E25E96E01509F21F6
:1044C400EA6EEE50200A01E015D0800E006E800ED8
:1044D400B119005C02E1B05100080CE2B0519E2514
:1044E400E16EB1519F21E26EE66A010EB05F000EEB
:1044F400B15BCBD7000EB11902E1000EB01904E193
:10450400FF0E006E57EF28F0000EADBFFF0E006ED9
:10451400000E001802E1000EAD190BE0000EADBF55
:10452400FF0E006E000E001802E1020EAD1901E04C
:104534008BD0A86BA76B080EA75D2DE2A8519E2512
:10454400E96E000E9F21EA6EEE502E0A0AE0A85191
:104554009E25E96E000E9F21EA6EEE50000A01E0EE
:1045640001D019D0A751A025B26F000EA121B36FBD
:10457400A8519E25E96E000E9F21EA6EEECFE0F869
:104584006BEC0EF0B2C8E1FFB3C8E2FF00C0E6FF77
:10459400A82BA72BD0D7A8519E25E96E000E9F21EA
:1045A400EA6EEE50000A0AE1A0C8BFF8A1C8C0F83C
:1045B400C16BC26B83EC1EF057EF28F00801A851C1
:1045C4009E25E96E000E9F21EA6EEE502E0A02E14E
:1045D400A82B07D0E20E0601786FFF0E006E57EF8E
:1045E40028F0080E0801A76F0B0EA75D23E2A8515F
:1045F4009E25E96E000E9F21EA6EEE50000A01E14D
:1046040019D0A751A025B26F000EA121B36FA851F4
:104614009E25E96E000E9F21EA6EEECFE0F86BEC6A
:104624000EF0B2C8E1FFB3C8E2FF00C0E6FFA82B5A
:10463400A72BDAD7A0C8BFF8A1C8C0F8C16BC26B5A
:1046440083EC1EF057EF28F0000E0801ADBFFF0EFB
:10465400006E000E001802E1010EAD19D8A454EF4B
:1046640028F0B0C8AAF8010EB05DAB6F000EB159C6
:10467400AC6FAB519E25E96EAC519F21EA6EEE50B2
:104684002E0A0EE0800E006E800EAC19005C02E172
:10469400AB51000805E2010EAB5F000EAC5BE9D73D
:1046A400800E006E800EAC19005C02E1AB51000874
:1046B4004DE2ABC8AAF8AB4BAC2B080EA76F0B0EA0
:1046C400A75D44E2AB519E25E96EAC519F21EA6E91
:1046D400EE50000A3BE0AB519E25E96EAC519F21A0
:1046E400EA6EEECFF2F847EC09F0005219E1080146
:1046F400A751A025B26F000EA121B36FAB519E2527
:10470400E96EAC519F21EA6EEECFE0F86BEC0EF04F
:10471400B2C8E1FFB3C8E2FF00C0E6FFA72B13D085
:104724000801AB519E25E96EAC519F21EA6EEE5013
:10473400200A09E0A751A025E16E000EA121E26E36
:104744005F0EE66EA72BAB4BAC2BB9D7AAC8ABF860
:10475400000EAC6FA86BA76B080EA75D56E2A851BC
:104764009E25E96E000E9F21EA6EEE50000A01E1DB
:104774004CD0000EAC1902E1AB51A81901E145D0AF
:10478400A8519E25E96E000E9F21EA6EEE502E0A76
:104794000AE0A8519E25E96E000E9F21EA6EEE50B4
:1047A400200A01E001D02FD0A8519E25E96E000E09
:1047B4009F21EA6EEECFF2F847EC09F0005219E1BE
:1047C4000801A751A025B26F000EA121B36FA85113
:1047D4009E25E96E000E9F21EA6EEECFE0F86BECA9
:1047E4000EF0B2C8E1FFB3C8E2FF00C0E6FFA72B9A
:1047F4000AD00801A751A025E16E000EA121E26EA6
:104804005F0EE66EA72BA82BA7D7010EAE6F060E80
:10481400A75D03E2A7C8A2F802D0060EA26FA2C841
:10482400AAF8A251A025E16E000EA121E26E7E0E2F
:10483400E66E010EA96FA95109083BE3AE51000AC7
:1048440038E0AA51010F006E016A000E01220050E7
:10485400A025E16E0150A121E26E300EA925006E63
:1048640000C0E6FFA0C8BFF8A1C8C0F8C16BC26B06
:1048740083EC1EF000C0AEF80050FF0A04E1FF0E06
:10488400006E57EF28F00801AE51010A0FE19EC8EF
:10489400BFF89FC8C0F8B7EC1FF000C0AFF80050D5
:1048A400000A04E0AFC800F057EF28F00801A92B74
:1048B400C2D7AE51000AD8B475D0050EA75D03E285
:1048C400A7C8A3F802D0050EA36FA3C8AAF8A351E2
:1048D400A025E16E000EA121E26E7E0EE66E0A0EA8
:1048E400A96FA95163085EE3AE51000A5BE0AA51C7
:1048F400010F006E016A000E01220050A025B26F64
:104904000150A121B36F0A0E046EA9C800F074EC23
:104914001EF0300E0026B2C8E1FFB3C8E2FF00C0AB
:10492400E6FF020EAA25006E016A000E0122005065
:10493400A025B26F0150A121B36F0A0E046EA9C85D
:1049440000F074EC1EF008C000F0300E0026B2C86F
:10495400E1FFB3C8E2FF00C0E6FFA0C8BFF8A1C8EA
:10496400C0F8C16BC26B83EC1EF000C0AEF80050FF
:10497400FF0A03E1FF0E006E98D30801AE51010A4D
:104984000EE19EC8BFF89FC8C0F8B7EC1FF000C086
:10499400AFF80050000A03E0AFC800F086D3080166
:1049A400A92B9FD7AE51000AD8B49DD0040EA75DA1
:1049B40003E2A7C8A4F802D0040EA46FA4C8AAF8FE
:1049C400A451A025E16E000EA121E26E7E0EE66EDA
:1049D400640EA96F800E030A006E800E005C02E173
:1049E400A951E708D8A07FD0AE51000AD8B47BD033
:1049F400AA51010F006E016A000E01220050A02589
:104A0400B26F0150A121B36F640E046EA9C800F007
:104A140074EC1EF0300E0026B2C8E1FFB3C8E2FF0A
:104A240000C0E6FF020EAA25006E016A000E0122F4
:104A34000050A025B26F0150A121B36F0A0E046E7D
:104A4400A9C800F074EC1EF00A0E046E74EC1EF09B
:104A540008C000F0300E0026B2C8E1FFB3C8E2FF80
:104A640000C0E6FF030EAA25006E016A000E0122B3
:104A74000050A025B26F0150A121B36F0A0E046E3D
:104A8400A9C800F074EC1EF008C000F0300E002637
:104A9400B2C8E1FFB3C8E2FF00C0E6FFA0C8BFF898
:104AA400A1C8C0F8C16BC26B83EC1EF000C0AEF8A5
:104AB4000050FF0A03E1FF0E006EF7D20801AE5169
:104AC400010A0EE19EC8BFF89FC8C0F8B7EC1FF0FA
:104AD40000C0AFF80050000A03E0AFC800F0E5D210
:104AE4000801A92B77D7AE51000AD8B4C2D0030E5F
:104AF400A75D03E2A7C8A5F802D0030EA56FA5C859
:104B0400AAF8A551A025E16E000EA121E26E7E0E49
:104B1400E66EE80EA96F800E270A006E800E005C18
:104B240002E1A9510F08D8A0A4D0AE51000AD8B40C
:104B3400A0D0AA51010F006E016A000E012200509C
:104B4400A025B26F0150A121B36FE80E046E030ECD
:104B5400056EA9C800F0000E016E10EC1CF0300EBA
:104B64000026B2C8E1FFB3C8E2FF00C0E6FF020EB0
:104B74000801AA25006E016A000E01220050A0253A
:104B8400B26F0150A121B36F640E046EA9C800F086
:104B940074EC1EF00A0E046E74EC1EF008C000F0F3
:104BA400300E0026B2C8E1FFB3C8E2FF00C0E6FF42
:104BB400030EAA25006E016A000E01220050A025F2
:104BC400B26F0150A121B36F0A0E046EA9C800F0A0
:104BD40074EC1EF00A0E046E74EC1EF008C000F0B3
:104BE400300E0026B2C8E1FFB3C8E2FF00C0E6FF02
:104BF400040EAA25006E016A000E01220050A025B1
:104C0400B26F0150A121B36F0A0E046EA9C800F05F
:104C140074EC1EF008C000F0300E0026B2C8E1FFAC
:104C2400B3C8E2FF00C0E6FFA0C8BFF8A1C8C0F83F
:104C3400C16BC26B83EC1EF000C0AEF80050FF0ADB
:104C440003E1FF0E006E31D20801AE51010A0EE1FC
:104C54009EC8BFF89FC8C0F8B7EC1FF000C0AFF8FB
:104C64000050000A03E0AFC800F01FD20801A92BCE
:104C740052D7AE51000AD8B4F1D0020EA75D03E2B8
:104C8400A7C8A6F802D0020EA66FA6C8AAF8A65115
:104C9400A025E16E000EA121E26E7E0EE66E100EDE
:104CA400A96F800E000A006E800E005C08E1000E01
:104CB400010805E1000E860802E1A9519F08D8A069
:104CC400CDD0AE51000AD8B4C9D0AA51010F006E9C
:104CD400016A000E01220050A025B26F0150A121EB
:104CE400B36F100E046E270E056EA9C800F0000EF7
:104CF400016E10EC1CF0300E0026B2C8E1FFB3C800
:104D0400E2FF00C0E6FF020E0801AA25006E016A58
:104D1400000E01220050A025B26F0150A121B36FF3
:104D2400E80E046E030E056EA9C800F0000E016EB5
:104D340010EC1CF00A0E046E000E056E10EC1CF054
:104D440008C000F009C001F0300E0026B2C8E1FF2F
:104D5400B3C8E2FF00C0E6FF030E0801AA25006EF7
:104D6400016A000E01220050A025B26F0150A1215A
:104D7400B36F640E046EA9C800F074EC1EF00A0E42
:104D8400046E74EC1EF008C000F0300E0026B2C8A9
:104D9400E1FFB3C8E2FF00C0E6FF040EAA25006EDF
:104DA400016A000E01220050A025B26F0150A1211A
:104DB400B36F0A0E046EA9C800F074EC1EF00A0E5C
:104DC400046E74EC1EF008C000F0300E0026B2C869
:104DD400E1FFB3C8E2FF00C0E6FF050EAA25006E9E
:104DE400016A000E01220050A025B26F0150A121DA
:104DF400B36F0A0E046EA9C800F074EC1EF008C06C
:104E040000F0300E0026B2C8E1FFB3C8E2FF00C0D4
:104E1400E6FFA0C8BFF8A1C8C0F8C16BC26B83ECA1
:104E24001EF000C0AEF80050FF0A03E1FF0E006E52
:104E34003CD10801AE51010A0EE19EC8BFF89FC8DB
:104E4400C0F8B7EC1FF000C0AFF80050000A03E050
:104E5400AFC800F02AD10801A92B23D7AE51000A0C
:104E6400D8B416D1010EA025E16E000EA121E26E88
:104E74007E0EE66EA00EA96F800E000A006E800EF4
:104E8400005C08E1000E0F0805E1000E420802E193
:104E9400A9513F08D8A0FCD0AE51000AD8B4F8D02C
:104EA400020EAA25006E016A000E01220050A02500
:104EB400B26F0150A121B36FA00E046E860E056E71
:104EC400010E066E000E076EA9C800F0000E016EFA
:104ED400026E036EC5EC1DF0300E0026B2C8E1FF71
:104EE400B3C8E2FF00C0E6FF030E0801AA25006E66
:104EF400016A000E01220050A025B26F0150A121C9
:104F0400B36F100E046E270E056EA9C800F0000ED4
:104F1400016E10EC1CF00A0E046E000E056E10EC0F
:104F24001CF008C000F009C001F0300E0026B2C821
:104F3400E1FFB3C8E2FF00C0E6FF040E0801AA25A2
:104F4400006E016A000E01220050A025B26F0150CC
:104F5400A121B36FE80E046E030E056EA9C800F01C
:104F6400000E016E10EC1CF00A0E046E000E056EAD
:104F740010EC1CF008C000F009C001F0300E00264F
:104F8400B2C8E1FFB3C8E2FF00C0E6FF050E0801A6
:104F9400AA25006E016A000E01220050A025B26FFE
:104FA4000150A121B36F640E046EA9C800F074EC23
:104FB4001EF00A0E046E74EC1EF008C000F0300EF1
:104FC4000026B2C8E1FFB3C8E2FF00C0E6FF060E48
:104FD400AA25006E016A000E01220050A025B26FBE
:104FE4000150A121B36F0A0E046EA9C800F074EC3D
:104FF4001EF00A0E046E74EC1EF008C000F0300EB1
:105004000026B2C8E1FFB3C8E2FF00C0E6FF070E06
:10501400AA25006E016A000E01220050A025B26F7D
:105024000150A121B36F0A0E046EA9C800F074ECFC
:105034001EF008C000F0300E0026B2C8E1FFB3C86D
:10504400E2FF00C0E6FFA0C8BFF8A1C8C0F8C16B6A
:10505400C26B83EC1EF000C0AEF80050FF0A03E1FF
:10506400FF0E006E22D00801AE51010A0EE19EC867
:10507400BFF89FC8C0F8B7EC1FF000C0AFF80050ED
:10508400000A03E0AFC800F010D00801A92BF4D641
:10509400AE51000A06E0BF0E0601786FFF0E006EE7
:0C50A40004D003D0FF0E006E00D01200FC
:1050B0009EC8E9FF9FC8EAFFEE50000A06E1C40E51
:1050C0000601786FFF0E006EB6D04FC5A2F850C52E
:1050D000A3F851C5A4F852C5A5F80501536B546B4C
:1050E000556B566B0801AB6BA0C8BFF8A1C8C0F8E0
:1050F0000EEC18F00050010AD8A494D0FF0E08015D
:10510000A025E96E000EA121EA6E3F0EEE14016E9D
:1051100001500F0A03E1010EAB6FE6D7010E050146
:10512000535F000E545B555B565B0801AB533BE08D
:105130009EC8BFF89FC8C0F8B7EC1FF000C0AAF81F
:105140000050FF0A03E1FF0E006E75D00801AA515E
:10515000010A28E14FC534F950C535F951C536F972
:1051600052C537F953C538F954C539F955C53AF917
:1051700056C53BF9A60E09013C6F080E3D6F4CEC7D
:1051800006F00050000A03E0FF0E006E54D0A2C8E3
:105190004FF5A3C850F5A4C851F5A5C852F5010EA6
:1051A000006E49D035D0A0C8BFF8A1C8C0F89EC8CD
:1051B000C1F89FC8C2F874EC1CF00050010A28E145
:1051C0004FC534F950C535F951C536F952C537F9CF
:1051D00053C538F954C539F955C53AF956C53BF99F
:1051E000A60E09013C6F080E3D6F4CEC06F0005016
:1051F000000A03E0FF0E006E1ED0A2C84FF5A3C840
:1052000050F5A4C851F5A5C852F5010E006E13D093
:10521000010E05015327000E542355235623080180
:10522000AB6B62D7A2C84FF5A3C850F5A4C851F51F
:08523000A5C852F5006A120046
:10523800870E0801F26F060EF36FF46B070EF56F19
:10524800000EF66F28EC0BF0800EF26F060EF36F6F
:10525800F46B070EF56F000EF66F28EC0BF0790E65
:10526800F26F060EF36FF46B070EF56F000EF66F14
:1052780028EC0BF01F0EF26F050EF36FF46B300E77
:10528800F56F000EF66F28EC0BF01B0EF26F030E95
:10529800F36FF46B040EF56F020EF66F28EC0BF04B
:1052A800BB0EF26F060EF36FF46B040E006E000E69
:1052B800016E1A0E0002F3CFF5F8F4CFF6F828ECD9
:1052C8000BF08E0EF26F060EF36FF46B0C0EF56F8B
:1052D800000EF66F28EC0BF0FF0E03011B6FFF0E9C
:1052E8001C6FFF0E1D6FFF0E1E6F1F0E0501616FF5
:1052F800050E626F636B5B6B0301176B186B196BA1
:105308001A6B05014F6B506B516B526B536B546B9F
:10531800556B566B0701246B430E06018E6F786B35
:02532800120071
:10532A0023EC17F0000E001803E0FF0E006E01D008
:04533A00006A1200F3
:0E533E00ACB202D00000FCD79EC8ADFF12003A
:10534C00800E08019E19006E800E000A005C0CE3B2
:10535C00800E9EBF7F0E006E000E800A005C02E184
:10536C00040E9E5D01E206D0D80E0601786FFF0E8A
:10537C00006E67D11A0E006E000E016E9EC804F00E
:10538C00000E08019EBFFF0E056E43EC05F0BB0E30
:10539C000026060E012200C0A7F801C0A8F8180EBE
:1053AC000024E96E000E0120EA6EEE50000A06E1C0
:1053BC00DC0E0601786FFF0E006E43D1140E08014F
:1053CC00A725D96E000EA821DA6EDECF01F0DECF54
:1053DC0002F0DECF03F0DECF04F0A251045C08E152
:1053EC00A151035C05E1A051025C02E19F51015CFB
:1053FC0006E2DB0E0601786FFF0E006E22D1100E56
:10540C000801A725E96E000EA821EA6EEECF01F087
:10541C00EECF02F0EECF03F0EECF04F00450A21961
:10542C0008E10350A11905E10250A01902E1015055
:10543C009F1902E1006A05D1100EA725E96E000E36
:10544C00A821EA6EEECF01F0EECF02F0EECF03F022
:10545C00EECF04F023C700F001C005F002C006F047
:10546C0003C007F004C008F0005007E00832073210
:10547C0006320532089EFF0FF8D723C700F09FC8ED
:10548C0001F0A0C802F0A1C803F0A2C804F00050BB
:10549C0007E00432033202320132049EFF0FF8D7C8
:1054AC000850041808E10750031805E106500218CB
:1054BC0002E10550011811E10801100EA725E16E5B
:1054CC00000EA821E26E9FC8E6FFA0C8E6FFA1C8A7
:1054DC00E6FFA2C8E6FF006AB4D00801100EA725AB
:1054EC00E16E000EA821E26E9FC8E6FFA0C8E6FFA1
:1054FC00A1C8E6FFA2C8E6FF100EA725E96E000EB4
:10550C00A821EA6EEECF01F0EECF02F0EECF03F061
:10551C00EECF04F023C700F001C0A3F802C0A4F83A
:10552C0003C0A5F804C0A6F8005007E0A633A533C5
:10553C00A433A333A69FFF0FF8D7040EA725E16E63
:10554C00000EA821E26EA7C8E9FFA8C8EAFFEECFBB
:10555C0000F0EECF01F0EECF02F0EECF03F000C082
:10556C00E6FF01C0E6FF02C0E6FF03C0E6FFA6515E
:10557C00000808E1A551000805E1A451000802E16A
:10558C00A35100085DE2040EA725A96F000EA82107
:10559C00AA6FA9C8E9FFAAC8EAFFEECF5FF9EECF60
:1055AC0060F9EECF61F9EECF62F993EC02F0A9C885
:1055BC00E1FFAAC8E2FF00C0E6FF01C0E6FF02C09F
:1055CC00E6FF03C0E6FF040E0801A725D96E000E06
:1055DC00A821DA6EDECF01F0DECF02F0DECF03F0D1
:1055EC00DECF04F00F0E041808E1FF0E031805E1DE
:1055FC00FF0E021802E1FF0E01181AE1100EA7258A
:10560C00E16E000EA821E26E140EA725E96E000EC5
:10561C00A821EA6EEECFE6FFEECFE6FFEECFE6FF77
:10562C00EECFE6FFDB0E0601786FFF0E006E09D0A1
:10563C00010E0801A35F000EA45BA55BA65B97D7C8
:04564C00006A1200DE
:105650001C0E08019E25E16E000E9F21E26EA0C87F
:10566000E6FF1C0E9E25006E000E9F21016E010EAE
:105670000024E16E000E0120E26EA1C8E6FF1C0EC0
:105680009E25006E000E9F21016E020E0024E16E29
:10569000000E0120E26EA2C8E6FF1C0E9E25006EE1
:1056A000000E9F21016E030E0024E16E000E01200A
:0A56B000E26EA3C8E6FF006A1200D4
:1056BA009AEC12F01F0E08019E6F030E9F6F1F0EC9
:1056CA00A06F030EA16F06017851FF0A03E1FF0ED6
:1056DA00006EA3D07851FC0A03E1FF0E006E9DD044
:1056EA007851000AD8A494D0300E08019E25F26F92
:1056FA00000E9F21F36F46EC0BF0005005012125A7
:10570A000901636F0150050122210901646F000E2E
:10571A00050123210901656F000E050124210901F4
:10572A00666FD6EC01F00050000A03E0FF0E006E2F
:10573A0074D01F0E0801A06F030EA16FFE0EA025E4
:10574A00F26F010EA121F36F46EC0BF00150AA0A89
:10575A0002E1550E001806E0FC0E0601786FFF0EF6
:10576A00006E5BD0A0C8F2F8A1C8F3F8BAEC08F052
:10577A000350410A08E10250610A05E10150520A48
:10578A0002E10050520A06E0FA0E0601786FFF0E97
:10579A00006E43D0E40E0801A025F26F010EA1218C
:1057AA00F36FBAEC08F00350610A08E10250410AAB
:1057BA0005E10150720A02E10050720A06E0FA0E8F
:1057CA000601786FFF0E006E28D0E80E0801A025AA
:1057DA00F26F010EA121F36FBAEC08F000C047F591
:1057EA0001C048F502C049F503C04AF5EC0EA025F0
:1057FA00F26F010EA121F36FBAEC08F000C04BF56D
:10580A0001C04CF502C04DF503C04EF5006A05D043
:0C581A00FA0E0601786FFF0E006E1200FF
:105826009EC802F09FC803F0A0C8F6FFA1C8F7FF04
:10583600A2C8F8FF0900F5CF00F09EC8E1FF9FC897
:10584600E2FF00C0E6FFA0C8F6FFA1C8F7FFA2C8A6
:10585600F8FF0900F5CF01F00150000A01E109D077
:10586600010E0801A027000EA123A2239E4B9F2B09
:0C587600DBD702C000F003C001F01200FC
:105882009EC8E1FF9FC8E2FFA0C8E6FF006A1200BF
:105892000B0E08019E25E16E000E9F21E26EA0C84C
:0658A200E6FF006A12009F
:1058A8000D0E08019E25E16E000E9F21E26EA0C834
:0658B800E6FF006A120089
:1058BE00A30E0801F26F080EF36FFF0EF46F0D0EBC
:1058CE00F56F000EF66F28EC0BF0A26B0D0EA25DBD
:1058DE001CE2A30EE16E080EE26EA251E126D8B0D4
:1058EE00E22AA251A025E96E000EA121EA6EEECFAA
:1058FE00E6FFA251A025E96E000EA121EA6EEE5040
:10590E00000A01E102D0A22BE1D7010E9E25E16E25
:10591E00000E9F21E26EA3C8E6FF030E9E25E16EE8
:10592E00000E9F21E26EA4C8E6FF050E9E25E16ED5
:10593E00000E9F21E26EA5C8E6FF070E9E25E16EC2
:10594E00000E9F21E26EA6C8E6FF090E9E25E16EAF
:10595E00000E9F21E26EA7C8E6FF0E0E9E25E16E99
:10596E00000E9F21E26EA8C8E6FF100E9E25E16E86
:10597E00000E9F21E26EA9C8E6FF120E9E25E16E73
:10598E00000E9F21E26EAAC8E6FF140E9E25E16E60
:10599E00000E9F21E26EABC8E6FF160E9E25E16E4D
:1059AE00000E9F21E26EACC8E6FF180E9E25E16E3A
:1059BE00000E9F21E26EADC8E6FF1C0E9E25E16E25
:1059CE00000E9F21E26EAEC8E6FF1E0E9E25E16E12
:1059DE00000E9F21E26EAFC8E6FFA251010F026ECC
:1059EE00036A000E0322B7D0010E9E25006E000E34
:1059FE009F21016E010E0024E16E000E0120E26E69
:105A0E00FF0EE66E030E9E25006E000E9F21016EA8
:105A1E00010E0024E16E000E0120E26EFF0EE66E16
:105A2E00050E9E25006E000E9F21016E010E0024B4
