:100000005FEF41F00000000000EF00F00000000092
:0A0010000000000000000000F3D71C
:10001C00B3C96FFF6DB002D00000FCD76FCF00F0FA
:02002C001200C0
:10002E00B3C9C9FFC7B002D00000FCD7C9CF00F0DA
:02003E001200AE
:10004000F250026EF29E0500FF6A0150FE6E0050F3
:08005000FD6E02BEF28E1200EB
:100058008388D5C6E1FFD6C6E2FFFF0EE66ED3C69B
:0A00680000F0D4C601F0E8DF12003A
:10007200400E0901AA25006ED5C6E1FFD6C6E2FFF1
:1000820000C0E6FFD3C600F0D4C601F0D8DFD5C663
:10009200E1FFD6C6E2FFAEC9E6FFD3C600F0D4C682
:1000A20001F0CDDFD5C6E1FFD6C6E2FFADC9E6FF5E
:1000B200D3C600F0D4C601F0C2DFD5C6E1FFD6C672
:1000C200E2FFACC9E6FFD3C600F0D4C601F0B7DF49
:1000D200D5C6E1FFD6C6E2FFABC9E6FFD3C600F044
:1000E200D4C601F0ACDFD5C6E1FFD6C6E2FFAFC988
:1000F200E6FFD3C600F0D4C601F0A1DF0901B16B5F
:10010200B26BD5C6E1FFD6C6E2FFFF0EE66ED3C6DE
:1001120000F0D4C601F093DF00C0B0F90901B14B81
:10012200B22B800E0014016E0150000A07E0000E8F
:10013200B25D02E1640EB15D01E2E3D7B0C900F045
:020142001200A9
:04014400839812008A
:10014800D5C6E1FFD6C6E2FF4C0EE66ED3C600F078
:10015800D4C601F071DFD5C6E1FFD6C6E2FFE66A74
:10016800D3C600F0D4C601F067DFD5C6E1FFD6C616
:10017800E2FFE66AD3C600F0D4C601F05DDFD5C65B
:10018800E1FFD6C6E2FFE66AD3C600F0D4C601F0A6
:1001980053DFD5C6E1FFD6C6E2FFE66AD3C600F054
:1001A800D4C601F049DFD5C6E1FFD6C6E2FFFF0E8F
:1001B800E66ED3C600F0D4C601F03EDF0901AB6B92
:1001C800AC6BD5C6E1FFD6C6E2FFFF0EE66ED3C61E
:1001D80000F0D4C601F030DF00C0AAF90901AB4B2A
:1001E800AC2B800E0014016E0150000A07E0000ECF
:1001F800AC5D02E1640EAB5D01E2E3D7AAAF04D0C7
:1002080027DFAAC900F012D0D5C6E1FFD6C6E2FFA3
:10021800FF0EE66ED3C600F0D4C601F00DDF00C0B5
:0E022800AAF90050000AF0E013DF006A12008D
:1002360086DF000E000A03E1040E0101F81909E148
:100246009CC9A4F99DC9A5F99EC9A6F99FC9A7F994
:1002560014D0090E006E9CC9A4F99DC9A5F99EC9C2
:10026600A6F99FC9A7F9005008E00901A437A4918F
:10027600A537A637A737FF0FF7D70901110EAA6FC3
:10028600A4C9ABF9A5C9ACF9A6C9ADF9A7C9AEF918
:10029600FF0EAF6FEBDE005204E0DBDE010E006EF8
:1002A6004BD0D5C6E1FFD6C6E2FFFF0EE66ED3C63B
:1002B60000F0D4C601F0C1DE0050FE0A01E0F1D71D
:1002C6000901A26BA36B020EA35D02E1000EA25D03
:1002D6001BE2A251A025A86FA351A121A96FD5C6E3
:1002E600E1FFD6C6E2FFFF0EE66ED3C600F0D4C627
:1002F60001F0A3DEA8C9E1FFA9C9E2FF00C0E6FF3D
:100306000901A24BA32BDFD7D5C6E1FFD6C6E2FF74
:10031600FF0EE66ED3C600F0D4C601F08EDED5C65B
:10032600E1FFD6C6E2FFFF0EE66ED3C600F0D4C6E6
:0A03360001F083DE8EDE006A120083
:1003400003DF0050000A03E0FF0E006E01D0006AD8
:02035000120099
:100352000601A651000A04E0A651020A01E002D0F9
:10036200006A0DD0ECDF000E001806E0FF0E03015C
:100372003E6FFF0E006E03D00601A66B006A1200EC
:1003820096C99CF997C99DF998C99EF999C99FF98F
:100392009AC9A0F99BC9A1F94DDF0050000A03E0F8
:0A03A200FF0E006E01D0006A120089
:1003AC000601A651030A20E1CEDF0050000A06E048
:1003BC00FF0E03013E6FFF0E006E5CD00301425135
:1003CC00090195190EE1030141510901941909E143
:1003DC00030140510901931904E103013F51090143
:1003EC00921902E1006A46D00601A651010A06E103
:1003FC00FF0E03013E6FFF0E006E3CD009019551BC
:10040C00030142190EE1090194510301411909E15B
:10041C00090193510301401904E1090192510301AF
:10042C003F1927E092C996F993C997F994C998F99D
:10043C0095C999F9430E09019A6F030E9B6F9BDFC7
:10044C00000E00180EE0FF0E03013F6FFF0E406F11
:10045C00FF0E416FFF0E426FFF0E3E6FFF0E006EE0
:10046C0009D092C93FF393C940F394C941F395C99C
:06047C0042F3006A1200C9
:1004820009018E517A0806E3610E8E5D03E3010EC7
:08049200006E01D0006A1200A7
:10049A00026A110E025C17E2D60E0224F66E850E6F
:1004AA00F76E000EF722000EF86E000EF822090011
:1004BA00F5CF01F0015009018E1903E1010E006E1A
:0A04CA0003D0022AE6D7006A1200F0
:1004D400D5C6E1FFD6C6E2FFFF0EE66ED3C600F036
:1004E400D4C601F0ABDD0050FE0A01E0F1D71200E2
:1004F4008EC905F08FC906F090C907F091C908F0BC
:1005040005016551055E6651065A6751075A6851DF
:10051400085AAFC604F005C000F006C001F007C0D9
:1005240002F008C003F0045007E0003600900136E2
:1005340002360336FF0FF8D76B5100266C510122A7
:0A0544006D5102226E5103221200D5
:10054E0009018E51390806E3300E8E5D03E3010E6C
:08055E00006E01D0006A1200DA
:1005660009018E515A0806E3410E8E5D03E3010E22
:08057600006E01D0006A1200C2
:10057E00050168510901915D0EE1050167510901FF
:10058E00905D09E10501665109018F5D04E10501E8
:10059E00655109018E5D15E3050146510901915D15
:1005AE000EE1050145510901905D09E10501445136
:1005BE0009018F5D04E10501435109018E5D01E2E0
:1005CE000CD0F40E03013E6FFF0E006EFF0E016E97
:1005DE00FF0E026E0F0E036E64D03DC300F08EC987
:1005EE0092F98FC993F990C994F991C995F9005070
:1005FE0008E009019533943393339233959FFF0F9F
:10060E00F7D70501615109019227050162510901D0
:10061E0093230501635109019423050164510901D6
:10062E009523BDDE0050000A09E0FF0E006EFF0E9E
:10063E00016EFF0E026E0F0E036E33D07BC500F0FF
:10064E007CC501F07DC502F07EC503F0010E005E93
:10065E00000E015A025A035A005009018E15046EFB
:10066E0001508F15056E02509015066E03509115B0
:10067E00076E04C000F005C001F000360090013690
:10068E00003600900136430E0024E96E030E012061
:10069E00EA6EEECF00F0EECF01F0EECF02F0EECF2D
:0406AE0003F0120043
:1006B20048DD000E000A03E1040E0101F81909E108
:1006C20077C97BF978C97CF979C97DF97AC97EF94C
:1006D20014D0090E006E77C97BF978C97CF979C903
:1006E2007DF97AC97EF9005008E009017B377B91D8
:1006F2007C377D377E37FF0FF7D70901120EAA6FBD
:100702007BC9ABF97CC9ACF97DC9ADF97EC9AEF93B
:10071200FF0EAF6FADDC005204E09DDC010E006EF7
:0607220001D0006A120084
:1007280077C98EF910DF005211E177C98EF917DF0A
:1007380000520CE177C98EF9A0DE005207E177C9B3
:100748008EF9A7DE005202E1006A02D0010E006EA7
:0207580012008D
:10075A00BCDE0901796B7A6B020E7A5D02E1000E4A
:10076A00795D1BE2795177257B6F7A5178217C6F0D
:10077A00D5C6E1FFD6C6E2FFFF0EE66ED3C600F08D
:10078A00D4C601F058DC7BC9E1FF7CC9E2FF00C096
:10079A00E6FF0901794B7A2BDFD7D5C6E1FFD6C62A
:1007AA00E2FFFF0EE66ED3C600F0D4C601F043DCCA
:1007BA00D5C6E1FFD6C6E2FFFF0EE66ED3C600F04D
:0807CA00D4C601F038DC120076
:1007D2003FC389F940C38AF941C38BF942C38CF9FB
:1007E20077C981F978C982F979C983F97AC984F913
:1007F2000501685109017A5D0EE1050167510901A0
:10080200795D09E1050166510901785D04E105019F
:1008120065510901775D15E3050146510901845DC2
:100822000EE1050145510901835D09E105014451CC
:100832000901825D04E1050143510901815D01E283
:1008420006D0F40E03013E6FFF0E006ECED00901FA
:100852008D6BB0C600F07BC901F07CC902F07DC986
:1008620003F07EC904F0005007E004320332023282
:100872000132049EFF0FF8D70450000809E103502B
:10088200000806E10250000803E1090101508D5DF4
:1008920055E281C98EF982C98FF983C990F984C959
:1008A20091F96CDE00C081F901C082F902C083F9BE
:1008B20003C084F903500F0A08E10250FF0A05E160
:1008C2000150FF0A02E10050FF0A06E1F10E0301A6
:1008D2003E6FFF0E006E89D0050168510901845DEB
:1008E2000EE1050167510901835D09E105016651C8
:1008F2000901825D04E1050165510901815D15E38C
:10090200050146510901845D0EE1050145510901C8
:10091200835D09E1050144510901825D04E105019C
:1009220043510901815D01E206D0F40E03013E6FDD
:10093200FF0E006E5AD009018D2B8BD7090133C3EC
:1009420000F034C301F035C302F036C303F0010EE8
:10095200005E000E015A025A035A00507B15856F41
:1009620001507C15866F02507D15876F03507E15EE
:10097200886F81C98EF982C98FF983C990F984C9B8
:1009820091F9B7DDA7C608F085C904F086C905F05C
:1009920087C906F088C907F0085007E00732063217
:1009A20005320432079EFF0FF8D77FC9E1FF80C9E5
:1009B200E2FF04500024E66E05500120E66E065068
:1009C2000220E66E07500320E66E89C992F98AC9B1
:1009D20093F98BC994F98CC995F9E7DC0050000AA8
:0C09E20003E0FF0E006E01D0006A12005E
:1009EE00090177515A0804E3410E775DD8B0778B31
:0609FE0077C900F01200B1
:100A040079C904F07AC905F077C902F078C903F00E
:100A14007BC900F07CC901F0010E09017B5F000E67
:100A24007C5B005001100FE004C0E9FF05C0EAFF41
:100A340002C0E1FF03C0E2FFEECFE6FF024A032A51
:100A4400044A052AE5D777C900F078C901F01200F5
:100A54000B6A0A6A096A00500402F4CF09F0F3CF62
:100A640008F001500502F4CF0BF0F3CF0AF0005068
:100A74000502F3500926F4500A22E86A0B220150B9
:100A84000402F3500926F4500A22E86A0B2208C033
:100A940000F009C001F00AC002F00BC003F012001C
:0E0AA40063C977F964C978F956DE006A12005A
:100AB200056A046A0B0E055C22E2010E0414016E43
:100AC200070E006E01C003F0005004E003360390ED
:100AD200FF0FFBD7FE0E0414026E02C000F00032BC
:100AE200009E00500310046E055009016325D96E63
:100AF200000E6421DA6EDE500426052ADBD704C01C
:040B020000F01200ED
:100B0600010E09016325E96E000E6421EA6E65C9CE
:100B1600E1FF66C9E2FFEECFE6FF010E6525E16E55
:100B2600000E6621E26E030E6325E96E000E642157
:100B3600EA6EEECFE6FF020E6525E16E000E662137
:100B4600E26E050E6325E96E000E6421EA6EEECFB5
:100B5600E6FF030E6525E16E000E6621E26E070EC6
:100B66006325E96E000E6421EA6EEECFE6FF040E01
:100B76006525E16E000E6621E26E090E6325E96EBB
:100B8600000E6421EA6EEECFE6FF050E6525E16EE6
:100B9600000E6621E26E0E0E6325E96E000E6421DC
:100BA600EA6EEECFE6FF060E6525E16E000E6621C3
:100BB600E26E100E6325E96E000E6421EA6EEECF3A
:100BC600E6FF070E6525E16E000E6621E26E120E47
:100BD6006325E96E000E6421EA6EEECFE6FF080E8D
:100BE6006525E16E000E6621E26E140E6325E96E40
:100BF600000E6421EA6EEECFE6FF090E6525E16E72
:100C0600000E6621E26E160E6325E96E000E642163
:100C1600EA6EEECFE6FF0A0E6525E16E000E66214E
:100C2600E26E180E6325E96E000E6421EA6EEECFC1
:100C3600E6FF0B0E6525E16E000E6621E26E1C0EC8
:100C46006325E96E000E6421EA6EEECFE6FF0C0E18
:100C56006525E16E000E6621E26E1E0E6325E96EC5
:0E0C6600000E6421EA6EEECFE6FF006A120077
:100C740063C977F964C978F965C979F966C97AF9F4
:100C840016DD0050000A03E0FF0E006E01D0006A7A
:020C940012004C
:100C960063C977F964C978F965C979F966C97AF9D2
:100CA60067C97BF968C97CF969C97DF96AC97EF9A2
:100CB6006BC97FF96CC980F989DD0050000A03E031
:100CC600FF0E006E15D06BC9E9FF6CC9EAFFEECFC7
:100CD60092F9EECF93F9EECF94F9EECF95F9D6ECE3
:100CE60001F00050000A03E0FF0E006E01D0006A1A
:020CF6001200EA
:100CF800A2EC00F0000E000A03E1040E0101F8194D
:100D080009E163C96BF964C96CF965C96DF966C90C
:100D18006EF914D0090E006E63C96BF964C96CF9D9
:100D280065C96DF966C96EF9005008E009016B37AD
:100D38006B916C376D376E37FF0FF7D70901180EB7
:100D4800AA6F6BC9ABF96CC9ACF96DC9ADF96EC9BD
:100D5800AEF9FF0EAF6F39EC00F0005205E02CEC55
:100D680000F0010E006E95D0D5C6E1FFD6C6E2FFB1
:100D7800FF0EE66ED3C600F0D4C601F020EC00F0FA
:100D8800D5C6E1FFD6C6E2FFFF0EE66ED3C600F079
:100D9800D4C601F020EC00F0D5C6E1FFD6C6E2FFCC
:100DA800FE0EE66ED3C600F0D4C601F020EC00F0CB
:100DB8000901696B6A6B6A51010802E16951FF0810
:100DC80016E369516725E96E6A516821EA6ED5C64E
:100DD800E1FFD6C6E2FFEECFE6FFD3C600F0D4C6E9
:100DE80001F020EC00F00901694B6A2BE4D7D5C665
:100DF800E1FFD6C6E2FFFF0EE66ED3C600F0D4C60A
:100E080001F020EC00F0D5C6E1FFD6C6E2FFFF0EE8
:100E1800E66ED3C600F0D4C601F020EC00F0D5C6CB
:100E2800E1FFD6C6E2FFFF0EE66ED3C600F0D4C6D9
:100E380001F020EC00F000C069F9000E09016A6FAA
:100E48001F0E6915016E6AC902F0000E021601C074
:100E580069F902C06AF9000E021802E1050E0118CC
:100E680005E02CEC00F0020E006E13D0D5C6E1FFB1
:100E7800D6C6E2FFFF0EE66ED3C600F0D4C601F078
:100E880020EC00F00050FF0A01E0F0D72CEC00F055
:040E9800006A1200DA
:100E9C006A0E0901776F090E786F63C979F964C915
:100EAC007AF90B0E7B6F000E7C6FA6DD676B0B0E59
:100EBC00675D3EE2696B6A0EE96E090EEA6E675178
:100ECC00E926D8B0EA2AEECF77F928DC0050010ADF
:100EDC0003E1010E0901696F09016A0EE96E090E41
:100EEC00EA6E6751E926D8B0EA2AEE50200A02E1F0
:100EFC00010E696F6A0EE96E090EEA6E6751E926FA
:100F0C00D8B0EA2AEE502E0A02E1010E696F69513F
:100F1C00000A0BE165C9E1FF66C9E2FFE66AC40E8F
:100F2C0003013E6FFF0E006EB3D00901672BBFD7D4
:100F3C00686B676B080E675D42E26A0EE96E090E1C
:100F4C00EA6E6751E926D8B0EA2AEE50200A33E05F
:100F5C000C0E6325E96E000E6421EA6EEECF01F0F3
:100F6C0001A618D068516525756F000E6621766F45
:100F7C006A0EE96E090EEA6E6751E926D8B0EA2AC4
:100F8C00EECF77F92EDD75C9E1FF76C9E2FF00C01F
:100F9C00E6FF10D068516525E16E000E6621E26E09
:100FAC006A0EE96E090EEA6E6751E926D8B0EA2A94
:100FBC00EECFE6FF01D003D0682B672BBBD7725165
:100FCC00200A09E168516525E16E000E6621E26E8A
:100FDC00E66A006A5DD068516525E16E000E6621F7
:100FEC00E26E2E0EE66E682B080E676F0B0E675DB9
:100FFC0046E26A0EE96E090EEA6E6751E926D8B030
:10100C00EA2AEECF77F994EC03F00050000A01E1E4
:10101C0036D00C0E09016325E96E000E6421EA6ED0
:10102C00EECF01F001A818D068516525756F000E40
:10103C006621766F6A0EE96E090EEA6E6751E92633
:10104C00D8B0EA2AEECF77F9CCDC75C9E1FF76C9C6
:10105C00E2FF00C0E6FF10D068516525E16E000E7E
:10106C006621E26E6A0EE96E090EEA6E6751E92698
:10107C00D8B0EA2AEECFE6FF682B672BB7D7090169
:10108C0068516525E16E000E6621E26EE66A006A23
:02109C00120040
:10109E00026A080E025C17E2080E0224F66E860E35
:1010AE00F76E000EF722000EF86E000EF822090001
:1010BE00F5CF01F001500901211903E1010E006E77
:0A10CE0003D0022AE6D7006A1200E0
:1010D8000601A651030A0BE1A9EC01F00050000A31
:1010E80006E0FF0E03013E6FFF0E006E50D00601B2
:1010F800A651010A06E1FF0E03013E6FFF0E006EC6
:1011080046D003014251090124190EE1030141515E
:101118000901231909E1030140510901221904E1D8
:1011280003013F510901211905E1020E0601A66FCD
:10113800006A2DD021C963F922C964F923C965F968
:1011480024C966F993DD0050000A06E0FF0E03018A
:101158003E6FFF0E006E1BD0430E0901636F030E36
:10116800646F9CDC0050000A06E0FF0E03013E6F2E
:10117800FF0E006E0CD0010E0601A66F21C93FF3C9
:1011880022C940F323C941F324C942F3006A12007B
:1011980021C963F922C964F923C965F924C966F923
:1011A80025C967F926C968F9A3DD0050000A03E0DC
:0A11B800FF0E006E01D0006A120065
:1011C20021C902F022C903F024C900F025C901F0A7
:1011D200010E0901245F000E255B0050011009E099
:1011E20002C0E1FF03C0E2FF23C9E6FF024A032A6D
:0C11F200EBD721C900F022C901F0120067
:1011FE0023C963F924C964F925C965F926C966F9B5
:10120E0027C967F928C968F929C969F92AC96AF984
:10121E005F0E09016B6F090E6C6F36DD0050000A10
:10122E0003E0FF0E006E9DD18DC500F08EC501F05E
:10123E008FC502F090C503F0010E005E000E015A3C
:10124E00025A035A005009012715046E0150281541
:10125E00056E02502915066E03502A15076E050EEF
:10126E00026E04C000F005C001F0025005E0003629
:10127E0000900136FF0FFAD70901430E00245D6F6F
:10128E00030E01205E6F010E2B6F080E2B5D0CE21C
:10129E002B515D25E96E000E5E21EA6EEE507E0A40
:1012AE0001E102D02B2BF1D72B51080A0AE15DC9BF
:1012BE0063F95EC964F921C965F922C966F9E7DDEA
:1012CE0050D13D0E0901776F090E786F5DC979F91E
:1012DE005EC97AF9200E7B6F000E7C6F02EC05F072
:1012EE0023C963F924C964F925C965F926C966F9C4
:1012FE00010E275F000E285B295B2A5B27C967F961
:10130E0028C968F929C969F92AC96AF95F0E6B6F8C
:10131E00090E6C6FB9DC0050000A03E0FF0E006E80
:10132E0020D18DC500F08EC501F08FC502F090C59D
:10133E0003F0010E005E000E015A025A035A0050CD
:10134E0009012715046E01502815056E0250291546
:10135E00066E03502A15076E050E026E04C000F0CD
:10136E0005C001F0025005E0003600900136FF0F77
:10137E00FAD7430E0026030E012200C03BF901C02E
:10138E003CF90B0E0024E96E000E0120EA6E3F0EB2
:10139E00EE14016E01500F0A0BE009013D0E636F52
:1013AE00090E646F21C965F922C966F970DDD9D0BD
:1013BE003D0E0901636F090E646F59EC05F000C014
:1013CE002DF9010E09012C6F0B0E3B25E96E000E57
:1013DE003C21EA6E3F0EEE14016E01500F0A06E03C
:1013EE00C00E03013E6FFF0E006EBBD00D0E090145
:1013FE003B25E96E000E3C21EA6EEE502D1906E0FB
:10140E00C10E03013E6FFF0E006EABD03BC9E9FF6C
:10141E003CC9EAFFEECF00F01F0E0014016E015022
:10142E0009012C1906E0C20E03013E6FFF0E006E7D
:10143E0098D03BC963F93CC964F92E0E0901656F5A
:10144E00090E666F83EC05F02B6B2C05006E016A9E
:10145E00000E015A0D0E046E000E056E2AEC05F0FC
:10146E002B510026000E012200502125E16E015065
:10147E002221E26E2E0EE96E090EEA6E2B51E9263E
:10148E00D8B0EA2AEECFE6FF2B2B0D0E2B5D0CE229
:10149E002E0EE96E090EEA6E2B51E926D8B0EA2A15
:1014AE00EE50000A01E0D1D73BC9E9FF3CC9EAFF83
:1014BE00EECF01F001AC02D0006A53D02C2B23C921
:1014CE0063F924C964F925C965F926C966F9010EBF
:1014DE00275F000E285B295B2A5B27C967F928C99D
:1014EE0068F929C969F92AC96AF95F0E6B6F090E85
:1014FE006C6F4BEC06F00050000A03E0FF0E006E1E
:10150E0030D08DC500F08EC501F08FC502F090C5AC
:10151E0003F0010E005E000E015A025A035A0050EB
:10152E0009012715046E01502815056E0250291564
:10153E00066E03502A15076E050E026E04C000F0EB
:10154E0005C001F0025005E0003600900136FF0F95
:10155E00FAD70901430E00243B6F030E01203C6FA6
:04156E0033D712005D
:0E15720021C9E9FF22C9EAFFEECF00F0120006
:10158000010E09012125E96E000E2221EA6EEECF3F
:1015900003F0000E046E000E046E03C001F0006A3A
:1015A00000C003F001C004F021C9D9FF22C9DAFF4D
:1015B000DE500026000E012200C003F001C004F03E
:0A15C00000C003F001C004F01200A7
:1015CA00030E09012125E96E000E2221EA6EEECFF3
:1015DA0009F0000E0A6E0B6E0C6E000E0A6E0B6E90
:1015EA000C6E0BC003F00AC002F009C001F0006AD9
:1015FA0000C009F001C00AF002C00BF003C00CF0F1
:10160A00020E2125D96E000E2221DA6EDE50002448
:10161A00056E000E0120066E000E0220076E000EF7
:10162A000320086E05C009F006C00AF007C00BF0D7
:10163A0008C00CF007C003F006C002F005C001F0B4
:10164A00006A00C009F001C00AF002C00BF003C032
:10165A000CF0010E2125D96E000E2221DA6EDE5021
:10166A000024056E000E0120066E000E0220076E91
:10167A00000E0320086E05C009F006C00AF007C074
:10168A000BF008C00CF007C003F006C002F005C05A
:10169A0001F0006A00C009F001C00AF002C00BF0B4
:1016AA0003C00CF021C9D9FF22C9DAFFDE50002697
:1016BA00000E01220222032200C009F001C00AF032
:1016CA0002C00BF003C00CF000C009F001C00AF020
:0A16DA0002C00BF003C00CF0120078
:1016E4000901926B936B946B956BD6EC01F00050EF
:1016F400000A03E0FF0E006E27D1430E09010F6FAD
:10170400030E106F430E116F030E126FFE0E0F25A2
:10171400216F010E1021226F31DF0150AA0A02E16C
:10172400550E001806E0FC0E03013E6FFF0E006E1E
:101734000BD111C9E9FF12C9EAFFEECF01F0015044
:10174400E90A15E011C9E9FF12C9EAFFEECF01F079
:101754000150EB0A0BE1020E09011125E96E000E9E
:101764001221EA6EEE50900A01E101D006D0FB0E80
:1017740003013E6FFF0E006EE7D00901006B010EFE
:10178400005DD8B0E0D00A0E006E000E016E00C9F4
:1017940004F0000E056E2AEC05F04B0E0026050E33
:1017A400012200C013F901C014F9BE0E0F25216FE8
:1017B400010E1021226F040E026E00C900F0000E0B
:1017C400016E025005E0003600900136FF0FFAD793
:1017D4000050212701502223CADE13C9E1FF14C996
:1017E400E2FF00C0E6FF0A0E006E000E016E00C9A3
:1017F40004F0000E056E2AEC05F04B0E0026050ED3
:101804000122010E0024136F000E0120146FBE0E7E
:101814000F25216F010E1021226F040E026E00C9E4
:1018240000F0000E016E025005E000360090013613
:10183400FF0FFAD70050212701502223040E21273D
:10184400000E222394DE13C9E1FF14C9E2FF00C095
:10185400E6FF0A0E006E000E016E00C904F0000ED1
:10186400056E2AEC05F04B0E0026050E0122020E31
:101874000024136F000E0120146FBE0E0F25216F7C
:10188400010E1021226F040E026E00C900F0000E3A
:10189400016E025005E0003600900136FF0FFAD7C2
:1018A4000050212701502223080E2127000E222355
:1018B4008ADE13C9E1FF14C9E2FF00C0E6FF01C0DC
:1018C400E6FF02C0E6FF03C0E6FF0A0E006E000E4C
:1018D400016E00C904F0000E056E2AEC05F04B0EF3
:1018E4000026050E0122060E0024136F000E0120AF
:1018F400146FBE0E0F25216F010E1021226F040EEE
:10190400026E00C900F0000E016E025005E00036C0
:1019140000900136FF0FFAD70050212701502223EF
:101924000C0E2127000E22234EDE13C9E1FF14C939
:10193400E2FF00C0E6FF01C0E6FF02C0E6FF03C00D
:0A194400E6FF002B1CD7006A12001A
:10194E00010E066E000E076E086E096E056A800E99
:10195E00006E800E000A005C02E1200E055C23E2A0
:10196E00065009010F11016E07501011026E08503A
:10197E001111036E09501211046E0450091808E17A
:10198E000350081805E10250071802E1015006182D
:10199E0003E105C000F009D006360690073608367A
:0C19AE000936052AD4D7FF0E006E120087
:1019BA000601A651030A0BE1A9EC01F00050000A46
:1019CA0006E0FF0E03013E6FFF0E006E33D00601E4
:1019DA00A651010A06E1FE0E03013E6FFF0E006EDC
:1019EA0029D00FC921F910C922F911C923F912C93D
:1019FA0024F9430E0901256F030E266FCCEC08F07B
:101A0A00000E00180EE0FF0E03013F6FFF0E406F3D
:101A1A00FF0E416FFF0E426FFE0E3E6FFF0E006E0D
:101A2A0009D00FC93FF310C940F311C941F312C9D4
:061A3A0042F3006A1200F5
:101A400009010F6B106B270E105D02E1100E0F5D88
:101A5000D8B0B0D0000E000A02E1000E001919E162
:101A6000A2EC00F0010EAA6FAB6BAC6BAD6BAE6B72
:101A7000FF0EAF6F39EC00F000C011F92CEC00F054
:101A800009011151000A04E10101F86B006A94D0C8
:101A90008DD0A2EC00F0370E0901AA6FAB6BAC6BD6
:101AA000AD6BAE6BFF0EAF6F39EC00F000C011F9FB
:101AB0002CEC00F009011151010AD8A476D0A2EC57
:101AC00000F0290EAA6F000EAB6F000EAC6F000E77
:101AD000AD6F400EAE6FFF0EAF6F39EC00F000C07F
:101AE00011F92CEC00F009011151000A5DE1000E22
:101AF000000A02E1020E001952E1A2EC00F03A0ED7
:101B0000AA6FAB6BAC6BAD6BAE6BFF0EAF6F39EC0E
:101B100000F000C011F9D5C6E1FFD6C6E2FFFF0E06
:101B2000E66ED3C600F0D4C601F020EC00F000C091
:101B300012F9D5C6E1FFD6C6E2FFFF0EE66ED3C6A8
:101B400000F0D4C601F020EC00F0D5C6E1FFD6C607
:101B5000E2FFFF0EE66ED3C600F0D4C601F020EC23
:101B600000F0D5C6E1FFD6C6E2FFFF0EE66ED3C693
:101B700000F0D4C601F020EC00F02CEC00F00901DC
:101B80001151000A0BE112AD04D0040E0101F86FEF
:101B900003D00101030EF86F006A0ED005D00101D9
:101BA000010EF86F006A08D001D004D009010F4B74
:0A1BB000102B49D7010E006E120041
:101BBA00160E09010F25216F000E1021226FDBDCA2
:101BCA000B0E046E00C002F001C003F0045005E0E1
:101BDA0003320232039EFF0FFAD71F0E0214006E61
:101BEA0000C08AF5160E0F25216F000E1021226FF4
:101BFA00C2DC050E046E00C002F001C003F00450FE
:101C0A0005E003320232039EFF0FFAD73F0E021499
:101C1A00006E00C08BF5160E0F25216F000E1021E5
:101C2A00226FA9DC00C002F0023602903F0E0214B5
:101C3A00006E00C08CF5180E0F25216F000E1021C2
:101C4A00226F99DC090E046E00C002F001C003F095
:101C5A00045005E003320232039EFF0FFAD77F0ECB
:101C6A000214006E03C001F0000E011600C086F5D2
:101C7A0001C087F5BC0E0026070E012200C086F5BA
:101C8A0001C087F5180E0F25216F000E1021226F53
:101C9A0072DC050E046E00C002F001C003F00450AD
:101CAA0005E003320232039EFF0FFAD70F0E021429
:101CBA00006E00C088F5180E0F25216F000E102146
:101CCA00226F59DC1F0E0014006E00C089F5006AED
:021CDA001200F6
:101CDC000E0E09010F25216F000E1021226F4ADC18
:101CEC000B0E046E00C002F001C003F0045005E0BE
:101CFC0003320232039EFF0FFAD71F0E0214006E3E
:101D0C0000C083F50E0E0F25216F000E1021226FDF
:101D1C0031DC050E046E00C002F001C003F004506B
:101D2C0005E003320232039EFF0FFAD73F0E021476
:101D3C00006E00C084F50E0E0F25216F000E1021D1
:101D4C00226F18DC00C002F0023602903F0E021423
:101D5C00006E00C085F5100E0F25216F000E1021AE
:101D6C00226F08DC090E046E00C002F001C003F003
:101D7C00045005E003320232039EFF0FFAD77F0EA8
:101D8C000214006E03C001F0000E011600C07FF5B6
:101D9C0001C080F5BC0E0026070E012200C07FF5A5
:101DAC0001C080F5100E0F25216F000E1021226F3F
:101DBC00C0EC0AF0050E046E00C002F001C003F086
:101DCC00045005E003320232039EFF0FFAD70F0EC8
:101DDC000214006E00C081F5100E0F25216F000E4D
:101DEC001021226FC0EC0AF01F0E0014006E00C010
:061DFC0082F5006A1200EE
:101E0200FF0E090111251B6F000E12211C6F0B0E14
:101E12000F25216F000E1021226FB9EC0AF01BC9A9
:101E2200E1FF1CC9E2FF00C0E6FF000E11251B6F97
:101E3200010E12211C6F1C0E0F25216F000E1021A6
:101E4200226FE5EC0AF01BC9E1FF1CC9E2FF00C0EA
:101E5200E6FF01C0E6FF02C0E6FF03C0E6FF040E94
:101E620011251F6F010E1221206F140E0F25216FF5
:101E7200000E1021226FC0EC0AF000C003F001C076
:101E820004F0000E056E066E04C01EF903C01DF9B3
:101E92001B6B1C6B1A0E0F25216F000E1021226F77
:101EA200C0EC0AF0000E026E036E1B5100261C519C
:101EB20001221D5102221E5103221FC9E1FF20C926
:101EC200E2FF00C0E6FF01C0E6FF02C0E6FF03C07A
:101ED200E6FF0B0E0F25E96E000E1021EA6E3F0E93
:101EE200EE14016E01500F0A28E011C921F912C93E
:101EF20022F9236BFF0E246F000E256FE1EC08F030
:101F020011C921F912C922F913C923F914C924F9F3
:101F120015C925F916C926F917C927F918C928F9C3
:101F220019C929F91AC92AF9FFEC08F00050000A68
:101F320003E0FF0E006E07D005D011C9E1FF12C900
:081F4200E2FFE66A006A1200EA
:101F4A0013C901F014C902F0010E0901135F000E52
:101F5A00145B000E021802E1000E01181FE00FC9FF
:101F6A00E9FF10C9EAFF11C9D9FF12C9DAFFEE5019
:101F7A00DE180FE00FC9E9FF10C9EAFF11C9D9FF3E
:101F8A0012C9DAFFDE50EE5C006E016A000E015AD9
:101F9A0007D00F4B102B114B122BD2D7006A016AB4
:021FAA00120023
:101FAC0000C977F994EC03F0005208E100C921F95B
:101FBC004FEC08F0005202E1006A02D0010E006EF4
:021FCC00120001
:101FCE000B1E0A1E091E081E082AD8B4092AD8B4E8
:081FDE000A2AD8B40B2A1200F4
:101FE6000450085E0550D8A0053C095E0650D8A0EE
:101FF600063C0A5E0750D8A0073C0B5E0336070E68
:102006000C6E0334083609360A360B36045003A024
:102016000ED0085E0550D8A0053C095E0650D8A033
:10202600063C0A5E0750D8A0073C0B5E0DD008267A
:102036000550D8B0053C09260650D8B0063C0A26FD
:102046000750D8B0073C0B2603360C2EDAD70234DD
:10205600083609360A360B36045003A00ED0085E41
:102066000550D8A0053C095E0650D8A0063C0A5E7D
:102076000750D8A0073C0B5E0DD008260550D8B0F7
:10208600053C09260650D8B0063C0A260750D8B0AB
:10209600073C0B260236070E0C6E0234083609364C
:1020A6000A360B36045002A00ED0085E0550D8A0A2
:1020B600053C095E0650D8A0063C0A5E0750D8A02B
:1020C600073C0B5E0DD008260550D8B0053C092606
:1020D6000650D8B0063C0A260750D8B0073C0B2657
:1020E60002360C2EDAD70134083609360A360B3694
:1020F600045002A00ED0085E0550D8A0053C095E2B
:102106000650D8A0063C0A5E0750D8A0073C0B5ED6
:102116000DD008260550D8B0053C09260650D8B083
:10212600063C0A260750D8B0073C0B260136070E98
:102136000C6E0134083609360A360B36045001A0F7
:102146000ED0085E0550D8A0053C095E0650D8A002
:10215600063C0A5E0750D8A0073C0B5E0DD0082649
:102166000550D8B0053C09260650D8B0063C0A26CC
:102176000750D8B0073C0B2601360C2EDAD70034B0
:10218600083609360A360B36045001A00ED0085E12
:102196000550D8A0053C095E0650D8A0063C0A5E4C
:1021A6000750D8A0073C0B5E0DD008260550D8B0C6
:1021B600053C09260650D8B0063C0A260750D8B07A
:1021C600073C0B260036070E0C6E0034083609361F
:1021D6000A360B36045000A00ED0085E0550D8A073
:1021E600053C095E0650D8A0063C0A5E0750D8A0FA
:1021F600073C0B5E0DD008260550D8B0053C0926D5
:102206000650D8B0063C0A260750D8B0073C0B2625
:1022160000360C2EDAD700B00ED004500826055032
:10222600D8B0053C09260650D8B0063C0A26075009
:08223600D8B0073C0B26120092
:10223E000134083609360450085E0550D8A0053C16
:10224E00095E003601360F0E0C6E01340836093663
:10225E00045000A006D0085E0550D8A0053C095ECB
:10226E0005D008260550D8B0053C092600360136A3
:10227E000C2EEBD700B006D0045008260550D8B06F
:08228E00053C092600001200C6
:10229600090100517A0804E3610E005DD8B0009B85
:0622A60000C900F0120067
:1022AC000FC902F010C903F002C000F003C001F026
:1022BC00024A032A00C0E9FF01C0EAFFEE5201E026
:1022CC00F3D709010F51025C006E10510358016ED7
:0A22DC00010E005E000E015A120010
:1022E6000601A651020A17E1010E03013F25090165
:1022F600216F000E030140210901226F000E030128
:1023060041210901236F000E030142210901246FB7
:102316006CEC08F030D00601A651000A06E1FF0E6B
:1023260003013E6FFF0E006E26D0430E0901636F58
:10233600030E646F52EC05F00050000A06E0FF0E33
:1023460003013E6FFF0E006E16D00301010E3F25FE
:10235600006E000E4021016E000E4121026E000E3D
:102366004221036E00C03FF301C040F302C041F3B7
:0823760003C042F3006A1200EB
:10237E00050E0101F86F95982CEC00F00801ED6B3D
:10238E00EE6B000EEE5D02E10A0EED5D10E2D5C6BB
:10239E00E1FFD6C6E2FFFF0EE66ED3C600F0D4C64E
:1023AE0001F020EC00F00801ED4BEE2BEAD7A2EC89
:1023BE0000F00901AA6BAB6BAC6BAD6BAE6B950EFF
:1023CE00AF6F39EC00F000C0EFF82CEC00F0080114
:1023DE00EF51010A03E0010E006E86D0A2EC00F070
:1023EE00080E0901AA6FAA0EAB6F010EAC6F000E9C
:1023FE00AD6FAE6F870EAF6F39EC00F000C0EFF827
:10240E00D5C6E1FFD6C6E2FFFF0EE66ED3C600F0DC
:10241E00D4C601F020EC00F0D5C6E1FFD6C6E2FF2F
:10242E00FF0EE66ED3C600F0D4C601F020EC00F02D
:10243E00D5C6E1FFD6C6E2FFFF0EE66ED3C600F0AC
:10244E00D4C601F020EC00F0D5C6E1FFD6C6E2FFFF
:10245E00FF0EE66ED3C600F0D4C601F020EC00F0FD
:10246E002CEC00F00801EF51010A0CE0010E0901FD
:10247E00006F20EC0DF0005204E00901006B20EC1F
:10248E000DF005D0020E0901006F20EC0DF0000ECC
:10249E00000A03E1050E0101F81903E1020E006EB8
:1024AE0023D0000E000A03E10101040EF8191BE00F
:1024BE00A2EC00F0100E0901AA6F000EAB6F020E17
:1024CE00AC6F000EAD6FAE6FFF0EAF6F39EC00F05C
:1024DE0000C0EFF82CEC00F00801EF51000A03E009
:0A24EE00030E006E01D0006A120018
:1024F80077C5EDF878C5EEF879C5EFF87AC5F0F844
:10250800050168517A5D08E16751795D05E1665119
:10251800785D02E16551775D14E346510801F05D8D
:102528000EE1050145510801EF5D09E1050144513E
:102538000801EE5D04E1050143510801ED5D01E28A
:1025480008D065C5EDF866C5EEF867C5EFF868C54B
:10255800F0F8EDC8F1F8EEC8F2F8EFC8F3F8F0C8F3
:10256800F4F83DC304F0EDC800F0EEC801F0EFC880
:1025780002F0F0C803F0045007E0033202320132DF
:102588000032039EFF0FF8D70050050161250901AD
:10259800216F0150050162210901226F02500501D6
:1025A80063210901236F0350050164210901246F88
:1025B8007BC500F07CC501F07DC502F07EC503F047
:1025C800010E005E000E015A025A035A005008011B
:1025D800ED15046E0150EE15056E0250EF15066EEE
:1025E8000350F015076E04C000F005C001F0003676
:1025F80000900136003600900136430E0024F56F36
:10260800030E0120F66F6CEC08F00050000A09E098
:10261800FF0E006EFF0E016EFF0E026E0F0E036EB0
:102628006DD10801F76BF5C8E9FFF6C8EAFFEECFF0
:1026380001F0EECF02F0EECF03F0EECF04F004503D
:10264800000A08E10350000A05E10250000A02E10D
:102658000150000A04E10801010EF76FC1D008011A
:10266800040EF527000EF623010EED27000EEE23CB
:10267800EF23F023050146510801F05D0EE1050145
:1026880045510801EF5D09E1050144510801EE5D7E
:1026980004E1050143510801ED5DD8A077D065C577
:1026A800EDF866C5EEF867C5EFF868C5F0F8A9EC6F
:1026B80001F00050000A09E0FF0E006EFF0E016EE7
:1026C800FF0E026E0F0E036E19D13DC304F0EDC864
:1026D80000F0EEC801F0EFC802F0F0C803F00450B3
:1026E80007E00332023201320032039EFF0FF8D7AF
:1026F8000050050161250901216F01500501622182
:102708000901226F0250050163210901236F03505B
:10271800050164210901246F7BC500F07CC501F027
:102728007DC502F07EC503F0010E005E000E015A61
:10273800025A035A00500801ED15046E0150EE15B7
:10274800056E0250EF15066E0350F015076E04C0B3
:1027580000F005C001F00036009001360036009008
:102768000136430E0024F56F030E0120F66F6CEC62
:1027780008F00050000A09E0FF0E006EFF0E016E1F
:10278800FF0E026E0F0E036EB9D01BD00801F65172
:1027980003013C1903E13B510801F51912E1080155
:1027A800430EF56F030EF66F9ADD0050000A09E03C
:1027B800FF0E006EFF0E016EFF0E026E0F0E036E0F
:1027C8009DD00801F051F41908E1EF51F31905E122
:1027D800EE51F21902E1ED51F11901E101D023D7CF
:1027E800A9EC01F00050000A09E0FF0E006EFF0E90
:1027F800016EFF0E026E0F0E036E80D00801F753B4
:1028080009E1FF0E006EFF0E016EFF0E026E0F0E45
:10281800036E74D0F5C8E1FFF6C8E2FFFF0EE66E5E
:10282800FF0EE66EFF0EE66E0F0EE66E3DC304F079
:10283800EDC800F0EEC801F0EFC802F0F0C803F0F0
:10284800045007E00332023201320032039EFF0FC8
:10285800F8D700500501612509010F6F01500501E6
:1028680062210901106F0250050163210901116FEE
:102878000350050164210901126FDDEC0CF00050D2
:10288800000A07E0FF0E006EFF0E016E026E036E77
:1028980035D005017651FF0A08E17551FF0A05E1B7
:1028A8007451FF0A02E17351FF0A16E073C500F084
:1028B80074C501F075C502F076C503F0010E005E1F
:1028C800000E015A025A035A00C073F501C074F58C
:1028D80002C075F503C076F5EDC877F5EEC878F552
:1028E800EFC879F5F0C87AF5010E956FEDC800F0DC
:0E28F800EEC801F0EFC802F0F0C803F01200C5
:10290600160E0801ED25006E000EEE21016E010E79
:102916000024E16E000E0120E26EACC600F0003627
:102926000090003600900036009000C0E6FF160EBC
:10293600ED25006E000EEE21016E010E0024026EE2
:10294600000E0120036EADC600F00032009E00327C
:10295600009E0032009E02C0E9FF03C0EAFFEE506F
:10296600002602C0E1FF03C0E2FF00C0E6FF160E2C
:10297600ED25E16E000EEE21E26E050E016EADC68E
:1029860000F0015004E000360090FF0FFBD700C0B6
:10299600E6FF160EED25026E000EEE21036EAEC6A4
:1029A60000F00032009E02C0E9FF03C0EAFFEE50CD
:1029B600002602C0E1FF03C0E2FF00C0E6FF180EDA
:1029C600ED25006E000EEE21016E010E0024E16E73
:1029D600000E0120E26EBC0E0601A85D026E02C06A
:1029E60000F00036009000C0E6FF180E0801ED2545
:1029F600006E000EEE21016E010E0024026E000E26
:102A06000120036EAAC600F00032009E0032009E2E
:102A16000032009E02C0E9FF03C0EAFFEE50002626
:102A260002C0E1FF03C0E2FF00C0E6FF180EED257D
:102A3600E16E000EEE21E26E050E016EAAC600F0F2
:102A4600015004E000360090FF0FFBD700C0E6FF00
:102A5600180EED25016E000EEE21026E01C0E9FF93
:102A660002C0EAFF0601AB51EE24006E01C0E1FF91
:0C2A760002C0E2FF00C0E6FF006A120090
:102A82000E0E0801ED25006E000EEE21016E010E04
:102A92000024E16E000E0120E26EACC600F00036AA
:102AA2000090003600900036009000C0E6FF0E0E47
:102AB200ED25006E000EEE21016E010E0024026E65
:102AC200000E0120036EADC600F00032009E0032FF
:102AD200009E0032009E02C0E9FF03C0EAFFEE50F2
:102AE200002602C0E1FF03C0E2FF00C0E6FF0E0EB7
:102AF200ED25E16E000EEE21E26E050E016EADC611
:102B020000F0015004E000360090FF0FFBD700C038
:102B1200E6FF0E0EED25026E000EEE21036EAEC62E
:102B220000F00032009E02C0E9FF03C0EAFFEE504F
:102B3200002602C0E1FF03C0E2FF00C0E6FF100E64
:102B4200ED25006E000EEE21016E010E0024E16EF5
:102B5200000E0120E26EBC0E0601A85D026E02C0EC
:102B620000F00036009000C0E6FF100E0801ED25CF
:102B7200006E000EEE21016E010E0024026E000EA8
:102B82000120036EAAC600F00032009E0032009EB1
:102B92000032009E02C0E9FF03C0EAFFEE500026A9
:102BA20002C0E1FF03C0E2FF00C0E6FF100EED2508
:102BB200E16E000EEE21E26E050E016EAAC600F075
:102BC200015004E000360090FF0FFBD700C0E6FF83
:102BD200100EED25016E000EEE21026E01C0E9FF1E
:102BE20002C0EAFF0601AB51EE24006E01C0E1FF14
:0C2BF20002C0E2FF00C0E6FF006A120013
:102BFE0072EC0BF0430E0801EE6F030EEF6F030144
:102C0E003E51FF0A03E1FF0E006E95D23E51FC0AC3
:102C1E0003E1FF0E006E8FD23E51000AD8A469D098
:102C2E000F0E05014C15016E01C0F0F801500B0A94
:102C3E000AE00801F0510C0A06E0F80E03013E6F9F
:102C4E00FF0E006E78D24DC592F94EC593F94FC561
:102C5E0094F950C595F9D6EC01F00050000A03E046
:102C6E00FF0E006E68D2430E0801EE6F030EEF6F7B
:102C7E00FE0EEE250901216F010E0801EF2109015B
:102C8E00226FC0EC0AF00150AA0A02E1550E00189C
:102C9E0006E0FC0E03013E6FFF0E006E4CD2EEC836
:102CAE00E9FFEFC8EAFFEECF01F00150E90A16E0A6
:102CBE00EEC8E9FFEFC8EAFFEECF01F00150EB0AD4
:102CCE000BE1020E0801EE25E96E000EEF21EA6E11
:102CDE00EE50900A01E102D0006A02D0010E006EA1
:102CEE00005206E1FB0E03013E6FFF0E006E23D273
:102CFE0021D003013E51FB0A1DE1800E05014B6FF1
:102D0E004D6B4E6B4F6B506B200E0801EE2509017B
:102D1E00216F000E0801EF210901226FE5EC0AF088
:102D2E0000C051F501C052F502C053F503C054F571
:102D3E0003013E6B03013E51000AD8A4F7D10B0EDE
:102D4E000801EE250901216F000E0801EF2109018E
:102D5E00226FC0EC0AF000C055F501C056F50D0EFD
:102D6E000801EE250901216F000E0801EF2109016E
:102D7E00226FB9EC0AF000C057F50E0E0801EE25D1
:102D8E000901216F000E0801EF210901226FC0EC2D
:102D9E000AF000C058F501C059F5100E0801EE25D5
:102DAE000901216F000E0801EF210901226FB9EC14
:102DBE000AF000C05AF5240E0801EE250901216F14
:102DCE00000E0801EF210901226FE5EC0AF000C0A8
:102DDE005BF501C05CF502C05DF503C05EF5280E23
:102DEE000801EE250901216F000E0801EF210901EE
:102DFE00226FC0EC0AF000C05FF501C060F505015E
:102E0E0058514D25006E59514E21016E000E4F2125
:102E1E00026E000E5021036E00C061F501C062F516
:102E2E0002C063F503C064F52C0E0801EE250901FE
:102E3E00216F000E0801EF210901226FE5EC0AF067
:102E4E0000C065F501C066F502C067F503C068F500
:102E5E00110E0801EE250901216F000E0801EF2168
:102E6E000901226FC0EC0AF000C069F501C06AF5D5
:102E7E00300E0801EE250901216F000E0801EF2129
:102E8E000901226FC0EC0AF0000E026E036E0501FE
:102E9E004D5100264E5101224F5102225051032214
:102EAE0000C06FF501C070F502C071F503C072F578
:102EBE0061C56BF562C56CF563C56DF564C56EF5E0
:102ECE000801ED6B05015A510801ED5D18E205018F
:102EDE005B516B25006E5C516C21016E5D516D2155
:102EEE00026E5E516E21036E00C06BF501C06CF573
:102EFE0002C06DF503C06EF50801ED2BE3D7050E8C
:102F0E00006E55C58DF556C58EF5000E05018F6FF9
:102F1E00906F005005E08E338D338E9FFF0FFAD7E2
:102F2E00000E8F6F906F55C57BF556C57CF5000E64
:102F3E007D6F7E6F7C337B337C9F7C337B337C9FBA
:102F4E00000E7D6F7E6F55C50FF956C510F9000E38
:102F5E000901116F126FA7EC0CF000C0B6F657C541
:102F6E000FF9000E0901106F116F126FA7EC0CF024
:102F7E0000C0AFF68DC50FF98EC510F98FC511F9CA
:102F8E0090C512F9A7EC0CF000C0A7F67BC50FF99F
:102F9E007CC510F97DC511F97EC512F9A7EC0CF0B0
:102FAE0000C03DF30601AF51B625006E00C0B1F66C
:102FBE00010EB26F000EB36F000EB46F000EB56F40
:102FCE00005007E0B237B291B337B437B537FF0FC1
:102FDE00F8D7200E09010F6F000E106F116F126FD0
:102FEE00A7EC0CF000500601B15D006E016A000EF8
:102FFE0000BEFF0E015A00C004F0010E006E000E5E
:10300E00016E000E026E000E036E045007E00036D5
:10301E000090013602360336FF0FF8D700C033F3A7
:10302E0001C034F302C035F303C036F300C00FF90C
:10303E0001C010F902C011F903C012F9A7EC0CF08F
:10304E0000C0B0F665C537F366C538F367C539F30A
:10305E0068C53AF30501476B486B496B4A6B6BC504
:10306E0000F06CC501F06DC502F06EC503F04D5158
:10307E00005E4E51015A4F51025A5051035A51C5DA
:10308E0043F552C544F553C545F554C546F50050B4
:10309E00435F0150445B0250455B0350465BAFC635
:1030AE0000F0005007E04633453344334333469F28
:1030BE00FF0FF8D7020E4327000E44234523462365
:1030CE004C5320E1000E465D08E1000E455D05E122
:1030DE00FF0E445D02E1F70E435D03E30B0E4C6FF2
:1030EE0011D0000E465D08E1000E455D05E10F0EA4
:1030FE00445D02E1F70E435D03E3060E4C6F02D012
:10310E00010E4C6F0F0E4C15016E01C0F0F8015000
:10311E000B0A0AE00801F0510C0A06E0F80E030152
:10312E003E6FFF0E006E07D0006A05D00301FB0E46
:08313E003E6FFF0E006E12004F
:1031460005014A51FF0A08E14951FF0A05E14851C4
:10315600FF0A02E14751FF0A06E1F60E03013E6F40
:10316600FF0E006E8CD237C3EFF838C3F0F839C3C0
:10317600F1F83AC3F2F80501685103013A5D0EE130
:10318600050167510301395D09E105016651030136
:10319600385D04E1050165510301375D15E305015D
:1031A60046510801F25D0EE1050145510801F15D48
:1031B60009E1050144510801F05D04E105014351AF
:1031C6000801EF5D01E206D0F40E03013E6FFF0E2B
:1031D600006E55D20801F96BB0C600F047C501F084
:1031E60048C502F049C503F04AC504F0005007E09F
:1031F6000432033202320132049EFF0FF8D7045024
:10320600000809E10350000806E10250000803E146
:1032160008010150F95D56E2EFC88EF9F0C88FF942
:10322600F1C890F9F2C891F9BFEC02F000C0EFF8CE
:1032360001C0F0F802C0F1F803C0F2F803500F0A1B
:1032460008E10250FF0A05E10150FF0A02E10050C1
:10325600FF0A06E1F10E03013E6FFF0E006E0FD26C
:10326600050168510801F25D0EE10501675108018B
:10327600F15D09E1050166510801F05D04E1050112
:1032860065510801EF5D15E3050146510801F25D40
:103296000EE1050145510801F15D09E105014451C1
:1032A6000801F05D04E1050143510801EF5D01E20B
:1032B60006D0F40E03013E6FFF0E006EE0D108014A
:1032C600F92B8AD733C300F034C301F035C302F0BB
:1032D60036C303F0010E005E000E015A025A035A6D
:1032E6000050050147150801F56F01500501481505
:1032F6000801F66F0250050149150801F76F0350E2
:1033060005014A150801F86FEFC88EF9F0C88FF964
:10331600F1C890F9F2C891F97AEC02F0A7C608F064
:10332600F5C804F0F6C805F0F7C806F0F8C807F0C7
:10333600085007E00732063205320432079EFF0FB7
:10334600F8D7045000240901216F05500120226F8F
:1033560006500220236F07500320246F8DC500F00E
:103366008EC501F08FC502F090C503F0010E005E18
:10337600000E015A025A035A00500801F515046E50
:103386000150F615056E0250F715066E0350F81536
:10339600076E050E026E04C000F005C001F0025073
:1033A60005E0003600900136FF0FFAD70801430EFC
:1033B6000024F36F030E0120F46F6CEC08F000504C
:1033C600000A03E0FF0E006E5AD1F3C8E9FFF4C805
:1033D600EAFFEECF01F00150E50A0AE0F3C8E9FF83
:1033E600F4C8EAFFEECF01F0200E015C01E318D02D
:1033F600F3C8E9FFF4C8EAFFEECF01F0140E015C52
:103406000EE20B0E0801F325E96E000EF421EA6EBA
:103416003F0EEE14016E01500F0A01E101D09DD05E
:10342600A9EC01F00050000A03E0FF0E006E27D160
:103436000B0E0801F325E96E000EF421EA6EEECFBD
:1034460001F001A633D0EDC821F9EEC822F9090131
:10345600236B100E246F010E256FE1EC08F0FF0EB2
:103466000801ED25FA6F000EEE21FB6F0B0EF3251A
:103476000901216F000E0801F4210901226FB9EC40
:103486000AF0FAC8E1FFFBC8E2FF00C0E6FFEDC89C
:1034960077F9EEC878F9F3C879F9F4C87AF90B0E1A
:1034A6007B6F000E7C6F02EC05F04DD00801ED51EC
:1034B600EE1149E0F3C80FF9F4C810F9EDC811F997
:1034C600EEC812F937C313F938C314F939C315F91D
:1034D6003AC316F947C517F948C518F949C519F980
:1034E6004AC51AF901EC0FF00050000A03E0FF0E7E
:1034F600006EC5D0F3C80FF9F4C810F96EEC0EF0E3
:10350600F3C80FF9F4C810F9DDEC0DF0080E080148
:10351600ED25E16E010EEE21E26E37C3E6FF38C3FC
:10352600E6FF39C3E6FF3AC3E6FF0C0EED25E16E72
:10353600010EEE21E26E47C5E6FF48C5E6FF49C526
:10354600E6FF4AC5E6FF010E05014727000E4823A0
:1035560049234A23010E006E92D0010E0801F52779
:10356600000EF623F723F823200EF325016E000E36
:10357600F421026E01C0F3F802C0F4F8010E050151
:103586004727000E482349234A23025003013C19CA
:1035960002E13B510118D8A471D0430E0801F36F24
:1035A600030EF46FF851030136190EE10801F751C5
:1035B6000301351909E10801F6510301341904E143
:1035C6000801F5510301331951E1A9EC01F000504E
:1035D600000A03E0FF0E006E52D00801F56BF66B91
:1035E600F76BF86BEFC88EF9F0C88FF9F1C890F950
:1035F600F2C891F9BFEC02F000C0EFF801C0F0F894
:1036060002C0F1F803C0F2F803500F0A08E10250B5
:10361600FF0A05E10150FF0A02E10050FF0A0BE133
:10362600FF0E0501476FFF0E486FFF0E496FFF0E35
:103636004A6F006A24D0EFC88EF9F0C88FF9F1C836
:1036460090F9F2C891F97AEC02F000C021F901C0B4
:1036560022F902C023F903C024F96CEC08F00050EB
:10366600000A03E0FF0E006E0AD008D073EC11F0DA
:103676000050000A03E0FF0E006E01D0A6D612002D
:103686003DC304F0F1C800F0F2C801F0F3C802F03F
:10369600F4C803F0045007E003320232013200326C
:1036A600039EFF0FF8D700C0F6F801C0F7F802C076
:1036B600F8F803C0F9F8050161510024086E62515B
:1036C6000120096E635102200A6E645103200B6EBD
:1036D60008C0F6F809C0F7F80AC0F8F80BC0F9F800
:1036E6007BC500F07CC501F07DC502F07EC503F008
:1036F600010E005E000E015A025A035A00500801DC
:10370600F115046E0150F215056E0250F315066EA2
:103716000350F415076E04C000F005C001F0003632
:1037260000900136003600900136430E0024FE6FED
:10373600030E0120FF6F08C092F909C093F90AC071
:1037460094F90BC095F9D6EC01F00050000A03E09D
:10375600FF0E006E46D0FEC8E1FFFFC8E2FFEDC8CF
:10376600E6FFEEC8E6FFEFC8E6FFF0C8E6FFF6C8DC
:10377600FAF8F7C8FBF8F8C8FCF8F9C8FDF808012C
:10378600F56B05015A510801F55D22E2FAC80FF9F9
:10379600FBC810F9FCC811F9FDC812F9DDEC0CF0F4
:1037A6000050000A03E0FF0E006E1BD005015B51BE
:1037B6000801FA2705015C510801FB2305015D514B
:1037C6000801FC2305015E510801FD23F52BD9D71D
:1037D600F6C83FF3F7C840F3F8C841F3F9C842F317
:0437E600006A120063
:1037EA001A0E0801ED25E16E000EEE21E26EEFC819
:1037FA00E6FF1A0EED25006E000EEE21016E010E97
:10380A000024E16E000E0120E26EF0C8E6FF140EFD
:10381A00ED25E16E000EEE21E26EF1C8E6FF140E10
:10382A00ED25006E000EEE21016E010E0024E16E00
:0E383A00000E0120E26EF2C8E6FF006A1200E6
:10384800010E0801F16FF26BF36BF46BF56BF66B1D
:10385800F76BEDC8E9FFEEC8EAFFEE50000A06E193
:10386800C40E03013E6FFF0E006EF7D0EDC80FF9CE
:10387800EEC810F956EC11F000C0F0F80801EF6B33
:10388800EDC80FF9EEC810F956EC11F0800E026E73
:10389800800E0118025C03E100500801EF5D16E29A
:1038A8000801EF51ED25E96E000EEE21EA6EEECF2C
:1038B80000F9D6EC0FF0005206E1C30E03013E6F8B
:1038C800FF0E006ECAD00801EF2BDAD70801F00509
:1038D800006E000EF0BFFF0E016E000E015A005080
:1038E800ED25E96E0150EE21EA6EEE502E0A02E156
:1038F800F007ECD7800E000A006E800EF019005C0D
:1039080006E3E20E03013E6FFF0E006EA6D0EDC87F
:103918000FF9EEC810F956EC11F0800E0801F0BF4F
:103928007F0E026E800E0118025C02E10050F05D0D
:1039380009E2F051ED25E16E000EF0BFFF0EEE2119
:10394800E26EE66AEF6B800E006E800EF0BF7F0EAF
:10395800005C02E1F051EF5D12E2EF51ED25E96EF6
:10396800000EEE21EA6EEECF21F94FEC08F000527E
:1039780003E0010E006E71D00801EF2BE4D7800E32
:103988000C0A006E800EF019005C03E2010E006E56
:1039980064D0EF6B800E006E800EF0BF7F0E005C6F
:1039A80002E1F051EF5D43E2EF51ED25E96E000EC3
:1039B800EE21EA6EEECF8EF941EC02F0005204E0FF
:1039C800010E0801F26F2CD00801EF51ED25E96EC8
:1039D800000EEE21EA6EEECF8EF9B3EC02F0005243
:1039E80004E0010E0801F36F1BD00801EF51ED252B
:1039F800E96E000EEE21EA6EEE502E0A11E1F55343
:103A08000CE1F25304E0F35302E0010EF46F010EEF
:103A1800F56FF16BF26BF36B08D0010E006E1DD0E1
:103A2800F15302E0F62B01D0F72BEF2BB3D7F2536B
:103A380004E0F35302E0010EF46FF651080804E3C2
:103A4800F751030801E303D0010E006E06D0F453CA
:0C3A580003E0020E006E01D0006A1200B4
:103A640037C3F1F838C3F2F839C3F3F83AC3F4F8BA
:103A74000501476B486B496B4A6B050168510801A6
:103A8400F45D0EE1050167510801F35D09E10501EB
:103A940066510801F25D04E1050165510801F15D1B
:103AA40015E3050146510801F45D0EE10501455198
:103AB4000801F35D09E1050144510801F25D04E1E7
:103AC400050143510801F15D01E206D0F40E030142
:103AD4003E6FFF0E006EF7D0430E0801F96F030E20
:103AE400FA6FF1C88EF9F2C88FF9F3C890F9F4C8E7
:103AF40091F97AEC02F000C021F901C022F902C068
:103B040023F903C024F96CEC08F00050000A03E028
:103B1400FF0E006ED8D00801F56BF66BF76BF86BEF
:103B2400030136510801F85D0EE103013551080126
:103B3400F75D09E1030134510801F65D04E1030175
:103B440033510801F55DD8B095D0FA5103013C1901
:103B540003E13B510801F9190DE10801430EF96F26
:103B6400030EFA6F73EC11F00050000A03E0FF0E2D
:103B7400006EA9D0F9C80FF9FAC810F9EDC811F907
:103B8400EEC812F90B0E0901136F000E146FA5ECA9
:103B94000FF0000E011802E1000E001858E1A9EC24
:103BA40001F00050000A03E0FF0E006E8CD0080103
:103BB400EF51F0113DE0F9C80FF9FAC810F9EFC858
:103BC40011F9F0C812F937C313F938C314F939C31A
:103BD40015F93AC316F947C517F948C518F949C57F
:103BE40019F94AC51AF901EC0FF00050000A03E074
:103BF400FF0E006E68D0080E0801EF25E16E010E7D
:103C0400F021E26E37C3E6FF38C3E6FF39C3E6FFAF
:103C14003AC3E6FF0C0EEF25E16E010EF021E26ED1
:103C240047C5E6FF48C5E6FF49C5E6FF4AC5E6FFC6
:103C3400F9C80FF9FAC810F96EEC0EF0F9C80FF9CB
:103C4400FAC810F9DDEC0DF0010E006E3CD0200E28
:103C54000801F927000EFA23010EF527000EF623BA
:103C6400F723F823010E05014727000E48234923B3
:103C74004A2356D7A9EC01F00050000A03E0FF0ED6
:103C8400006E21D0F1C88EF9F2C88FF9F3C890F90B
:103C9400F4C891F9BFEC02F000C0F1F801C0F2F8E9
:103CA40002C0F3F803C0F4F803500F0A08E102500D
:103CB400FF0A05E10150FF0A02E10050FF0A02E198
:083CC400006A01D0DAD61200FB
:103CCC0047C507F948C508F949C509F94AC50AF9AC
:103CDC0037C363F938C364F939C365F93AC366F974
:103CEC0047C567F948C568F949C569F94AC56AF90C
:103CFC000B0E09016B6F090E6C6F4BEC06F000504C
:103D0C00000A03E0FF0E006E7ED18DC500F08EC55B
:103D1C0001F08FC502F090C503F0010E005E000E9D
:103D2C00015A025A035A005005014715046E0150FE
:103D3C004815056E02504915066E03504A15076E5C
:103D4C0004C003F905C004F906C005F907C006F95B
:103D5C00050E026E04C000F005C001F0025005E033
:103D6C00003600900136FF0FFAD7430E00240901EC
:103D7C00636F030E0120646F010E0801F06F59ECA4
:103D8C0005F000C0F1F8010E0501475F000E485B1D
:103D9C00495B4A5B000E006E0901061908E10050F0
:103DAC00051905E10050041902E10351000A2BE149
:103DBC0033C303F934C304F935C305F936C306F923
:103DCC00010E035F000E045B055B065B37C363F9F2
:103DDC0038C364F939C365F93AC366F947C567F95D
:103DEC0048C568F949C569F94AC56AF90B0E6B6F84
:103DFC00090E6C6F4BEC06F00050000A03E0FF0E4E
:103E0C00006E01D107D0010E0901035F000E045BA7
:103E1C00055B065B09018DC500F08EC501F08FC5F1
:103E2C0002F090C503F0010E005E000E015A025A1A
:103E3C00035A00500315046E01500415056E025010
:103E4C000515066E03500615076E050E026E04C0AE
:103E5C0000F005C001F0025005E00036009001367C
:103E6C00FF0FFAD7430E0026030E012200C001F902
:103E7C0001C002F90B0E0024E96E000E0120EA6E5F
:103E8C003F0EEE14016E01500F0A06E0C00E030146
:103E9C003E6FFF0E006EB7D00D0E09010125E96EC5
:103EAC00000E0221EA6EEE500801F11906E0C10E77
:103EBC0003013E6FFF0E006EA6D001C9E9FF02C9D7
:103ECC00EAFFEECF00F01F0E0014016E0150080146
:103EDC00F01906E0C20E03013E6FFF0E006E93D088
:103EEC0001C963F902C964F9F20E0901656F080E84
:103EFC00666F83EC05F00801EF6BF20EE96E080EAD
:103F0C00EA6EEF51E926D8B0EA2AEECF00F94BEC75
:103F1C0011F000C0FFF80801F005006E016A000EF8
:103F2C00015A0D0E046E000E056E2AEC05F0EF51D1
:103F3C000026000E01220050ED25E96E0150EE2105
:103F4C00EA6EEECF00F94BEC11F00801FF510018AE
:103F5C000AE007C947F508C948F509C949F50AC96E
:103F6C004AF5006A50D0EF2B0D0EEF5D0CE2F20E0D
:103F7C00E96E080EEA6EEF51E926D8B0EA2AEE5047
:103F8C00000A01E0BAD70D0EEF5D2AE2F20EE96EDF
:103F9C00080EEA6EEF51E926D8B0EA2AF005006E59
:103FAC00016A000E015A0D0E046E000E056E2AEC0D
:103FBC0005F0EF510026000E01220050ED25D96EC0
:103FCC000150EE21DA6EEE50DE180AE007C947F513
:103FDC0008C948F509C949F50AC94AF5006A13D058
:103FEC00F02B01C9E9FF02C9EAFFEECF01F001ACE9
:103FFC00CAD607C947F508C948F509C949F50AC918
:08400C004AF5010E006E1200DE
:10401400EDC80FF9EEC810F956EC11F000C0F2F833
:1040240001C0F3F8EFC80FF9F0C810F956EC11F01D
:104034000801F351011802E10050F21902E0006A8C
:1040440033D0F16BEFC80FF9F0C810F956EC11F04A
:10405400800E026E800E0118025C03E1005008011C
:10406400F15D20E20801F151ED25E96E000EEE212B
:10407400EA6EEECF00F94BEC11F000C0F2F8080143
:10408400F151EF25E96E000EF021EA6EEECF00F952
:104094004BEC11F00801F251001802E0006A04D060
:0A40A400F12BD0D7010E006E1200C0
:1040AE00086A080E0C6E003408360450085ED8B04C
:0E40BE0002D00826D89000360C2EF5D712003E
:1040CC000450000A12E10550000A0FE10650000AE4
:1040DC000CE10750000A09E1FF0E006EFF0E016EA5
:1040EC00FF0E026E7F0E036E99D00C6A07BE0C2A6F
:1040FC000D6A0B6A0A6A096A086A035002100110F9
:10410C000010D8B485D0035007180E6E0EBE0D1ECD
:10411C0007AE0BD0041E051E061E071E042AD8B4BB
:10412C00052AD8B4062AD8B4072A03AE0BD0001E31
:10413C00011E021E031E002AD8B4012AD8B4022A7A
:10414C00D8B4032A035007100E6E0EBE1DD0F3EC2C
:10415C000FF00CBE36D00DAE5BD0001E011E021E41
:10416C00031E002AD8B4012AD8B4022AD8B4032AD0
:10417C00081E091E0A1E0B1E082AD8B4092AD8B418
:10418C000A2AD8B40B2A44D007AE15D003BE0DD0E2
:10419C0003500B6E02500A6E0150096E0050086EEF
:1041AC00036A026A016A006AD6D7036A026A016A64
:1041BC00006A002A000C031E021E011E001E0C8E3B
:1041CC00C6D7082AD8B4092AD8B40A2AD8B40B2AD4
:1041DC000450085CD8A4BFD70550095CD8A4BBD741
:1041EC0006500A5CD8A4B7D707500B5CD8A4B3D739
:1041FC000B6A0A6A096A086A002AD8B4012AD8B478
:10420C00022AD8B4032A03AEA6D70E6A0E88FF0C76
:0E421C000E6A0CA002D0E7EC0FF0000F1200AB
:10422A000450000A08E10550000A05E1FF0E006E7D
:10423A007F0E016E58D00D6A096A086A0150001093
:10424A00D8B4000C015005180A6E0ABE0D1E0B6A7E
:10425A0005AE05D0041E051E042AD8B4052A01AEEF
:10426A0005D0001E011E002AD8B4012A01500510EB
:10427A000A6E0ABE10D01FEC11F00BB020D00DAEA2
:10428A00000C001E011E002AD8B4012A081E091EAD
:10429A00082AD8B4092A000C05AE0DD001BE07D0F1
:1042AA000150096E0050086E016A006AE8D7016A77
:1042BA00006A002A000C011E001E0B2ADDD7082AFC
:1042CA00D8B4092A0450085CD8A4D9D70550095C87
:1042DA00D8A4D5D7096A086A002AD8B4012A01AE37
:0842EA00CED70000FF0C12000A
:1042F200800E0801CC19006E800E000A005C0CE3EF
:10430200800ECCBF7F0E006E000E800A005C02E1C0
:10431200040ECC5D01E206D0D80E03013E6FFF0E03
:10432200006E67D11A0E006E000E016ECCC804F04A
:10433200000E0801CCBFFF0E056E2AEC05F0DB0E65
:104342000026060E012200C0D5F801C0D6F8180ECC
:104352000024E96E000E0120EA6EEE50000A06E12A
:10436200DC0E03013E6FFF0E006E43D1140E0801F6
:10437200D525D96E000ED621DA6EDECF01F0DECF62
:1043820002F0DECF03F0DECF04F0D051045C08E18E
:10439200CF51035C05E1CE51025C02E1CD51015CDB
:1043A20006E2DB0E03013E6FFF0E006E22D1100EFD
:1043B2000801D525E96E000ED621EA6EEECF01F096
:1043C200EECF02F0EECF03F0EECF04F00450D0199E
:1043D20008E10350CF1905E10250CE1902E1015064
:1043E200CD1902E1006A05D1100ED525E96E000E45
:1043F200D621EA6EEECF01F0EECF02F0EECF03F05F
:10440200EECF04F0B1C600F001C005F002C006F024
:1044120003C007F004C008F0005007E0083207327A
:1044220006320532089EFF0FF8D7B1C600F0CDC89C
:1044320001F0CEC802F0CFC803F0D0C804F000509B
:1044420007E00432033202320132049EFF0FF8D732
:104452000850041808E10750031805E10650021835
:1044620002E10550011811E10801100ED525E16E97
:10447200000ED621E26ECDC8E6FFCEC8E6FFCFC859
:10448200E6FFD0C8E6FF006AB4D00801100ED525B9
:10449200E16E000ED621E26ECDC8E6FFCEC8E6FF81
:1044A200CFC8E6FFD0C8E6FF100ED525E96E000E94
:1044B200D621EA6EEECF01F0EECF02F0EECF03F09E
:1044C200EECF04F0B1C600F001C0D1F802C0D2F8BC
:1044D20003C0D3F804C0D4F8005007E0D433D33378
:1044E200D233D133D49FFF0FF8D7040ED525E16E16
:1044F200000ED621E26ED5C8E9FFD6C8EAFFEECF9C
:1045020000F0EECF01F0EECF02F0EECF03F000C0EC
:10451200E6FF01C0E6FF02C0E6FF03C0E6FFD4519A
:10452200000808E1D351000805E1D251000802E178
:10453200D15100085DE2040ED525D76F000ED621B9
:10454200D86FD7C8E9FFD8C8EAFFEECF8EF9EECF11
:104552008FF9EECF90F9EECF91F9BFEC02F0D7C808
:10456200E1FFD8C8E2FF00C0E6FF01C0E6FF02C0DB
:10457200E6FF03C0E6FF040E0801D525D96E000E42
:10458200D621DA6EDECF01F0DECF02F0DECF03F00D
:10459200DECF04F00F0E041808E1FF0E031805E148
:1045A200FF0E021802E1FF0E01181AE1100ED525C6
:1045B200E16E000ED621E26E140ED525E96E000ED4
:1045C200D621EA6EEECFE6FFEECFE6FFEECFE6FFB4
:1045D200EECFE6FFDB0E03013E6FFF0E006E09D049
:1045E200010E0801D15F000ED25BD35BD45B97D77B
:0445F200006A120049
:1045F600BFEC11F0000E001803E0FF0E006E01D0B4
:04460600006A120034
:10460A000501955302E1006A65D0430E0801CC6F9B
:10461A00030ECD6F430E0901216F030E226F236B28
:10462A00000E246F020E256FE1EC08F0CCC8E1FF02
:10463A00CDC8E2FF520EE66E520EE66E610EE66ECF
:10464A00410EE66EE40E0801CC25E16E010ECD2185
:10465A00E26E720EE66E720EE66E410EE66E610E46
:10466A00E66EE80ECC25E16E010ECD21E26E73C531
:10467A00E6FF74C5E6FF75C5E6FF76C5E6FFEC0EF4
:10468A00CC25E16E010ECD21E26E77C5E6FF78C535
:10469A00E6FF79C5E6FF7AC5E6FFFE0ECC25E16E98
:1046AA00010ECD21E26E550EE66EAA0EE66E6FC5BC
:1046BA000FF970C510F971C511F972C512F9DDEC5F
:1046CA000CF00050000A03E0FF0E006E03D0050153
:0646DA00956B006A12005E
:1046E000CCC802F0CDC803F0CEC8F6FFCFC8F7FFA4
:1046F000D0C8F8FF0900F5CF00F0CCC8E1FFCDC865
:10470000E2FF00C0E6FFCEC8F6FFCFC8F7FFD0C873
:10471000F8FF0900F5CF01F00150000A01E109D0CE
:10472000010E0801CE27000ECF23D023CC4BCD2B7A
:0C473000DBD702C000F003C001F0120053
:10473C00A80E0901216F060E226F236B070E246F42
:10474C00000E256FE1EC08F07F0E216F050E226F35
:10475C00236B070E246F000E256FE1EC08F0860E1C
:10476C00216F050E226F236B070E246F000E256F31
:10477C00E1EC08F04B0E216F050E226F236B300E0F
:10478C00246F000E256FE1EC08F03F0E216F030E35
:10479C00226F236B040E246F020E256FE1EC08F0E0
:1047AC00DB0E216F060E226F236B040E006E000EC3
:1047BC00016E1A0E0002F3CF24F9F4CF25F9E1ECC7
:1047CC0008F0B70E216F060E226F236B0C0E246FB0
:1047DC00000E256FE1EC08F0FF0E03013F6FFF0E9A
:1047EC00406FFF0E416FFF0E426F430E3B6F050E85
:1047FC003C6F0601A66B0501956B436B446B456BD7
:10480C00466B0301376B386B396B3A6B0501476BA1
:10481C00486B496B4A6B0701436B430E0601B76F3C
:06482C0003013E6B1200C7
:10483200CCC8E9FFCDC8EAFFEE50000A06E1C40E7B
:1048420003013E6FFF0E006EB6D037C3D0F838C3F7
:10485200D1F839C3D2F83AC3D3F80501476B486B94
:10486200496B4A6B0801D96BCEC8EDF8CFC8EEF898
:10487200A3EC18F00050010AD8A494D0FF0E08014E
:10488200CE25E96E000ECF21EA6E3F0EEE14016EC8
:1048920001500F0A03E1010ED96FE6D7010E05019F
:1048A200475F000E485B495B4A5B0801D9533BE016
:1048B200CCC8EDF8CDC8EEF866EC1EF000C0D8F812
:1048C2000050FF0A03E1FF0E006E75D00801D851B7
:1048D200010A28E137C363F938C364F939C365F9BA
:1048E2003AC366F947C567F948C568F949C569F920
:1048F2004AC56AF9D40E09016B6F080E6C6F4BEC56
:1049020006F00050000A03E0FF0E006E54D0D0C83B
:1049120037F3D1C838F3D2C839F3D3C83AF3010E0A
:10492200006E49D035D0CEC8EDF8CFC8EEF8CCC86D
:10493200EFF8CDC8F0F80AEC20F00050010A28E1A7
:1049420037C363F938C364F939C365F93AC366F901
:1049520047C567F948C568F949C569F94AC56AF999
:10496200D40E09016B6F080E6C6F4BEC06F0005011
:10497200000A03E0FF0E006E1ED0D0C837F3D1C884
:1049820038F3D2C839F3D3C83AF3010E006E13D00C
:10499200010E05014727000E482349234A23080137
:1049A200D96B62D7D0C837F3D1C838F3D2C839F33C
:0849B200D3C83AF3006A1200B9
:1049BA00FFEC15F0430E0801CC6F030ECD6F430ECA
:1049CA00CE6F030ECF6F03013E51FF0A03E1FF0EC4
:1049DA00006EB3D03E51FC0A03E1FF0E006EADD06B
:1049EA003E51000AD8A4A4D0300E0801CC250901F2
:1049FA00216F000E0801CD210901226FC0EC0AF0D7
:104A0A00005005014D250901926F015005014E2103
:104A1A000901936F000E05014F210901946F000EE1
:104A2A00050150210901956FD6EC01F00050000AEA
:104A3A0003E0FF0E006E81D0430E0801CE6F030E15
:104A4A00CF6FFE0ECE250901216F010E0801CF217D
:104A5A000901226FC0EC0AF00150AA0A02E1550EC0
:104A6A00001806E0FC0E03013E6FFF0E006E65D0D3
:104A7A00CEC821F9CFC822F9E5EC0AF00350410A61
:104A8A0008E10250610A05E10150520A02E10050B0
:104A9A00520A06E0FA0E03013E6FFF0E006E4DD079
:104AAA00E40E0801CE250901216F010E0801CF216C
:104ABA000901226FE5EC0AF00350610A08E102508D
:104ACA00410A05E10150720A02E10050720A06E049
:104ADA00FA0E03013E6FFF0E006E2FD0E80E08019A
:104AEA00CE250901216F010E0801CF210901226F8C
:104AFA00E5EC0AF000C073F501C074F502C075F563
:104B0A0003C076F5EC0E0801CE250901216F010ECE
:104B1A000801CF210901226FE5EC0AF000C077F500
:104B2A0001C078F502C079F503C07AF5006A05D0AC
:0C4B3A00FA0E03013E6FFF0E006E120029
:0E4B4600ACB202D00000FCD7CCC8ADFF12000C
:104B54001C0E0801CC25E16E000ECD21E26ECEC8FC
:104B6400E6FF1C0ECC25006E000ECD21016E010E59
:104B74000024E16E000E0120E26ECFC8E6FF1C0E99
:104B8400CC25006E000ECD21016E020E0024E16ED4
:104B9400000E0120E26ED0C8E6FF1C0ECC25006E8C
:104BA400000ECD21016E030E0024E16E000E0120E3
:0A4BB400E26ED1C8E6FF006A1200AD
:104BBE000D0E0801CC25E16E000ECD21E26ECEC8A1
:064BCE00E6FF006A120080
:104BD400CCC8E1FFCDC8E2FFCEC8E6FF006A1200F0
:104BE400D2C88EF9D3C88FF9D4C890F9D5C891F931
:104BF4007AEC02F0A7C608F0D6C804F0D7C805F0CE
:104C0400D8C806F0D9C807F0085007E007320632C2
:104C140005320432079EFF0FF8D704500024086EB3
:104C240005500120096E065002200A6E0750032029
:104C34000B6E08C0DCF809C0DDF80AC0DEF80BC052
:104C4400DFF88DC500F08EC501F08FC502F090C568
:104C540003F0010E005E000E015A025A035A00507E
:104C64000801D615046E0150D715056E0250D815EB
:104C7400066E0350D915076E050E026E04C000F0CF
:104C840005C001F0025005E0003600900136FF0F28
:104C9400FAD70801430E0024DA6F030E0120DB6FFC
:104CA40008C092F909C093F90AC094F90BC095F9A8
:104CB400D6EC01F00050000A03E0FF0E006E3DD078
:104CC400DAC877F9DBC878F9CCC879F9CDC87AF9AC
:104CD400200E09017B6F000E7C6F02EC05F00701CA
:104CE40043531AE1DAC8EDF8DBC8EEF8CEC8EFF8A2
:104CF400CFC8F0F8D0C8F1F8D1C8F2F8F5EC1BF041
:104D0400DAC8EDF8DBC8EEF841EC15F0DAC8EDF8D6
:104D1400DBC8EEF883EC14F0DCC80FF9DDC810F939
:104D2400DEC811F9DFC812F9DDEC0CF00050000AFE
:0C4D340003E0FF0E006E01D0006A1200C8
:104D4000D10E0901216F080E226FFF0E236F0D0E89
:104D5000246F000E256FE1EC08F00801D06B0D0EFA
:104D6000D05D1CE2D10EE16E080EE26ED051E1265C
:104D7000D8B0E22AD051CE25E96E000ECF21EA6EDE
:104D8000EECFE6FFD051CE25E96E000ECF21EA6EC0
:104D9000EE50000A01E102D0D02BE1D7010ECC2564
:104DA000E16E000ECD21E26ED1C8E6FF030ECC25E8
:104DB000E16E000ECD21E26ED2C8E6FF050ECC25D5
:104DC000E16E000ECD21E26ED3C8E6FF070ECC25C2
:104DD000E16E000ECD21E26ED4C8E6FF090ECC25AF
:104DE000E16E000ECD21E26ED5C8E6FF0E0ECC2599
:104DF000E16E000ECD21E26ED6C8E6FF100ECC2586
:104E0000E16E000ECD21E26ED7C8E6FF120ECC2572
:104E1000E16E000ECD21E26ED8C8E6FF140ECC255F
:104E2000E16E000ECD21E26ED9C8E6FF160ECC254C
:104E3000E16E000ECD21E26EDAC8E6FF180ECC2539
:104E4000E16E000ECD21E26EDBC8E6FF1C0ECC2524
:104E5000E16E000ECD21E26EDCC8E6FF1E0ECC2511
:104E6000E16E000ECD21E26EDDC8E6FFD051010FEC
:104E7000026E036A000E0322B7D0010ECC25006E2D
:104E8000000ECD21016E010E0024E16E000E012006
:104E9000E26EFF0EE66E030ECC25006E000ECD21F5
:104EA000016E010E0024E16E000E0120E26EFF0E85
:104EB000E66E050ECC25006E000ECD21016E010EB2
:104EC0000024E16E000E0120E26EFF0EE66E070E7A
:104ED000CC25006E000ECD21016E010E0024E16E86
:104EE000000E0120E26EFF0EE66E090ECC25006E6C
:104EF000000ECD21016E010E0024E16E000E012096
:104F0000E26EFF0EE66E0E0ECC25006E000ECD2179
:104F1000016E010E0024E16E000E0120E26EFF0E14
:104F2000E66E100ECC25006E000ECD21016E010E36
:104F30000024E16E000E0120E26EFF0EE66E120EFE
:104F4000CC25006E000ECD21016E010E0024E16E15
:104F5000000E0120E26EFF0EE66E140ECC25006EF0
:104F6000000ECD21016E010E0024E16E000E012025
:104F7000E26EFF0EE66E160ECC25006E000ECD2101
:104F8000016E010E0024E16E000E0120E26EFF0EA4
:104F9000E66E180ECC25006E000ECD21016E010EBE
:104FA0000024E16E000E0120E26EFF0EE66E1C0E84
:104FB000CC25006E000ECD21016E010E0024E16EA5
:104FC000000E0120E26EFF0EE66E1E0ECC25006E76
:104FD000000ECD21016E010E0024E16E000E0120B5
:104FE000E26EFF0EE66E58D0000E031802E1000ECE
:104FF0000218D8B442D7000E031802E1010E0218BD
:10500000D8B449D7000E031802E1020E0218D8B432
:1050100050D7000E031802E1030E0218D8B457D778
:10502000000E031802E1040E0218D8B45ED7000E79
:10503000031802E1050E0218D8B465D7000E031854
:1050400002E1060E0218D8B46CD7000E031802E174
:10505000070E0218D8B473D7000E031802E1080E29
:105060000218D8B47AD7000E031802E1090E02180C
:1050700082E0000E031802E10A0E02188AE0000E18
:10508000031802E10B0E021892E0000E031802E171
:0C5090000C0E02189AE0A7D7006A12006C
:10509C0037C3DBF838C3DCF839C3DDF83AC3DEF8C4
:1050AC000801EB6B050168510801DE5D0EE105019D
:1050BC0067510801DD5D09E1050166510801DC5D00
:1050CC0004E1050165510801DB5D15E3050146515D
:1050DC000801DE5D0EE1050145510801DD5D09E1C8
:1050EC00050144510801DC5D04E10501435108014F
:1050FC00DB5D01E206D0F40E03013E6FFF0E006E85
:10510C009BD1430E0801D16F030ED26FDBC88EF911
:10511C00DCC88FF9DDC890F9DEC891F97AEC02F0A1
:10512C0000C0E7F801C0E8F802C0E9F803C0EAF8EB
:10513C0000C092F901C093F902C094F903C095F92B
:10514C00D6EC01F00050000A03E0FF0E006E74D1A3
:10515C000801D36BD46BD56BD66B030136510801A8
:10516C00D65D0EE1030135510801D55D09E103015E
:10517C0034510801D45D04E1030133510801D35DBE
:10518C00D8B08ED0D25103013C1903E13B51080138
:10519C00D1191BE10801010EE727000EE823E923D2
:1051AC00EA23430ED16F030ED26FE7C892F9E8C819
:1051BC0093F9E9C894F9EAC895F9D6EC01F00050D6
:1051CC00000A03E0FF0E006E37D1D1C8E9FFD2C848
:1051DC00EAFFEECF01F00150E50A0AE0D1C8E9FF81
:1051EC00D2C8EAFFEECF01F0200E015C01E318D02B
:1051FC00D1C8E9FFD2C8EAFFEECF01F0140E015C72
:10520C000EE20B0E0801D125E96E000ED221EA6EDA
:10521C003F0EEE14016E01500F0A01E101D003D0D4
:10522C000801EB6B32D00801EB51000A10E1D3C836
:10523C00D7F8D4C8D8F8D5C8D9F8D6C8DAF8DBC8A6
:10524C00E3F8DCC8E4F8DDC8E5F8DEC8E6F8EB2BDB
:10525C00EB51CC191AE1CFC8E1FFD0C8E2FFD7C897
:10526C00E6FFD8C8E6FFD9C8E6FFDAC8E6FFCDC826
:10527C00E1FFCEC8E2FFE3C8E6FFE4C8E6FFE5C8FD
:10528C00E6FFE6C8E6FF006AD7D0200ED127000E55
:10529C00D223010ED327000ED423D523D6235DD7DA
:1052AC00DBC88EF9DCC88FF9DDC890F9DEC891F93E
:1052BC00BFEC02F000C0DFF801C0E0F802C0E1F87A
:1052CC0003C0E2F803500F0A08E10250FF0A05E19F
:1052DC000150FF0A02E10050FF0AD8A4A4D07CECD4
:1052EC0012F000C0DFF801C0E0F802C0E1F803C022
:1052FC00E2F803500F0A08E10250FF0A05E10150E1
:10530C00FF0A02E10050FF0A06E1F20E03013E6FB4
:10531C00FF0E006E91D0DFC8EDF8E0C8EEF8E1C8E2
:10532C00EFF8E2C8F0F8DBC8F1F8DCC8F2F8DDC839
:10533C00F3F8DEC8F4F843EC1BF00050000A03E06D
:10534C00FF0E006E79D0430E0901216F030E226F00
:10535C00236B000E246F020E256FE1EC08F0DFC802
:10536C008EF9E0C88FF9E1C890F9E2C891F97AECAE
:10537C0002F000C0E7F801C0E8F802C0E9F803C089
:10538C00EAF80801EC6B050157510801EC5D19E2D4
:10539C00E7C80FF9E8C810F9E9C811F9EAC812F919
:1053AC00010EE727000EE823E923EA23DDEC0CF0DD
:1053BC000050000A03E0FF0E006E3ED00801EC2BFB
:1053CC00E2D7EB51000A15E1CFC8E1FFD0C8E2FFEC
:1053DC00E66AE66AE66AE66ACDC8E1FFCEC8E2FF95
:1053EC00DFC8E6FFE0C8E6FFE1C8E6FFE2C8E6FF7B
:1053FC0018D0CFC8E1FFD0C8E2FFD7C8E6FFD8C8A5
:10540C00E6FFD9C8E6FFDAC8E6FFCDC8E1FFCEC893
:10541C00E2FFE3C8E6FFE4C8E6FFE5C8E6FFE6C83E
:10542C00E6FF006A09D0DFC8DBF8E0C8DCF8E1C8A9
:0A543C00DDF8E2C8DEF836D61200F3
:105446000B0E0801CC25E16E000ECD21E26ECEC812
:06545600E6FF006A1200EF
:10545C00CCC8E9FFCDC8EAFFEE50000A07E1C40E44
:10546C0003013E6FFF0E006EC9EF30F0CEC821F97C
:10547C00CFC822F9200E0901236F0B0E246F000EEA
:10548C00256FE1EC08F0CCC8E9FFCDC8EAFFEE507F
:10549C002E0A13E1010E0801CC25E96E000ECD2178
:1054AC00EA6EEE50000A09E1CEC8E1FFCFC8E2FF78
:1054BC002E0EE66E006AC9EF30F0CCC8E9FFCDC8FD
:1054CC00EAFFEE502E0A24E10801010ECC25E96E0C
:1054DC00000ECD21EA6EEE502E0A1AE1020ECC25FA
:1054EC00E96E000ECD21EA6EEE50000A11E1CEC835
:1054FC00E1FFCFC8E2FF2E0EE66E010ECE25E16E67
:10550C00000ECF21E26E2E0EE66E006AC9EF30F06F
:10551C00CCC8E9FFCDC8EAFFEE502E0A07E1E20E37
:10552C0003013E6FFF0E006EC9EF30F0CCC80FF9CF
:10553C00CDC810F956EC11F000C0DEF801C0DFF850
:10554C00CCC8EDF8CDC8EEF824EC1CF000C0DBF8AC
:10555C000050FF0A04E1FF0E006EC9EF30F0010E9F
:10556C000801DE5D006E000EDF59016E0050CC2587
:10557C00E96E0150CD21EA6EEE502E0A10E0010EBC
:10558C00DE5D006E000EDF59016E0050CC25E96E19
:10559C000150CD21EA6EEE50200A01E015D0800EAC
:1055AC00006E800EDF19005C02E1DE5100080CE297
:1055BC00DE51CC25E16EDF51CD21E26EE66A010EA3
:1055CC00DE5F000EDF5BCBD7000EDF1902E1000EB1
:1055DC00DE1904E1FF0E006EC9EF30F0000EDBBFE8
:1055EC00FF0E006E000E001802E1000EDB190BE03E
:1055FC00000EDBBFFF0E006E000E001802E1020E63
:10560C00DB1901E08DD0D66BD56B080ED55D2EE283
:10561C00D651CC25E96E000ECD21EA6EEE502E0A45
:10562C000AE0D651CC25E96E000ECD21EA6EEE5083
:10563C00000A01E001D01AD0D551CE25E06F000E42
:10564C00CF21E16FD651CC25E96E000ECD21EA6E4B
:10565C00EECF00F94BEC11F0E0C8E1FFE1C8E2FF3E
:10566C0000C0E6FF0801D62BD52BCFD7D651CC25C1
:10567C00E96E000ECD21EA6EEE50000A0AE1CEC8AA
:10568C00EDF8CFC8EEF8EF6BF06B32EC1DF0C9EF14
:10569C0030F00801D651CC25E96E000ECD21EA6E12
:1056AC00EE502E0A02E1D62B07D0E20E03013E6F1C
:1056BC00FF0E006EC9EF30F0080E0801D56F0B0E0F
:1056CC00D55D24E2D651CC25E96E000ECD21EA6ED3
:1056DC00EE50000A01E11AD0D551CE25E06F000E34
:1056EC00CF21E16FD651CC25E96E000ECD21EA6EAB
:1056FC00EECF00F94BEC11F0E0C8E1FFE1C8E2FF9E
:10570C0000C0E6FF0801D62BD52BD9D7CEC8EDF8B3
:10571C00CFC8EEF8EF6BF06B32EC1DF0C9EF30F048
:10572C00000E0801DBBFFF0E006E000E001802E138
:10573C00010EDB19D8A4C6EF30F0DEC8D8F8010E84
:10574C00DE5DD96F000EDF59DA6FD951CC25E96EC9
:10575C00DA51CD21EA6EEE502E0A0EE0800E006E6C
:10576C00800EDA19005C02E1D951000805E2010E45
:10577C00D95F000EDA5BE9D7800E006E800EDA1965
:10578C00005C02E1D95100084EE2D9C8D8F8D94BD7
:10579C00DA2B080ED56F0B0ED55D45E2D951CC2511
:1057AC00E96EDA51CD21EA6EEE50000A3CE0D95197
:1057BC00CC25E96EDA51CD21EA6EEECF21F94FEC12
:1057CC0008F000521AE10801D551CE25E06F000E09
:1057DC00CF21E16FD951CC25E96EDA51CD21EA6E9A
:1057EC00EECF00F94BEC11F0E0C8E1FFE1C8E2FFAD
:1057FC0000C0E6FF0801D52B13D00801D951CC25E8
:10580C00E96EDA51CD21EA6EEE50200A09E0D5514D
:10581C00CE25E16E000ECF21E26E5F0EE66ED52B2B
:10582C00D94BDA2BB8D7D8C8D9F8000EDA6FD66BAB
:10583C00D56B080ED55D57E2D651CC25E96E000E1E
:10584C00CD21EA6EEE50000A01E14DD0000EDA19BE
:10585C0002E1D951D61901E146D0D651CC25E96ED9
:10586C00000ECD21EA6EEE502E0A0AE0D651CC2560
:10587C00E96E000ECD21EA6EEE50200A01E001D057
:10588C0030D0D651CC25E96E000ECD21EA6EEECF8C
:10589C0021F94FEC08F000521AE10801D551CE2540
:1058AC00E06F000ECF21E16FD651CC25E96E000ED2
:1058BC00CD21EA6EEECF00F94BEC11F0E0C8E1FF20
:1058CC00E1C8E2FF00C0E6FF0801D52B0AD00801B1
:1058DC00D551CE25E16E000ECF21E26E5F0EE66E45
:1058EC00D52BD62BA6D7010EDC6F060ED55D03E2A9
:1058FC00D5C8D0F802D0060ED06FD0C8D8F8D05189
:10590C00CE25E16E000ECF21E26E7E0EE66E010E0C
:10591C00D76FD75109083BE3DC51000A38E0D85166
:10592C00010F006E016A000E01220050CE25E16EBF
:10593C000150CF21E26E300ED725006E00C0E6FF7D
:10594C00CEC8EDF8CFC8EEF8EF6BF06B32EC1DF073
:10595C0000C0DCF80050FF0A04E1FF0E006EC9EF36
:10596C0030F00801DC51010A0FE1CCC8EDF8CDC8CC
:10597C00EEF866EC1EF000C0DDF80050000A04E002
:10598C00DDC800F0C9EF30F00801D72BC2D7DC51CD
:10599C00000AD8B475D0050ED55D03E2D5C8D1F890
:1059AC0002D0050ED16FD1C8D8F8D151CE25E16EF9
:1059BC00000ECF21E26E7E0EE66E0A0ED76FD75127
:1059CC0063085EE3DC51000A5BE0D851010F006E06
:1059DC00016A000E01220050CE25E06F0150CF214C
:1059EC00E16F0A0E046ED7C800F057EC20F0300EB1
:1059FC000026E0C8E1FFE1C8E2FF00C0E6FF020EAE
:105A0C00D825006E016A000E01220050CE25E06FF1
:105A1C000150CF21E16F0A0E046ED7C800F057EC8D
:105A2C0020F008C000F0300E0026E0C8E1FFE1C80D
