:10000000B7EF40F00000000000EF00F0000000003B
:0A0010000000000000000000F3D71C
:0E001C00ACB202D00000FCD70BC9ADFF120041
:0C002A0072B201D0FDD70BC973FF1200A9
:100036000BC9C9FFC7B002D00000FCD7C9CF00F07A
:020046001200A6
:100048000BC96FFF6DB002D00000FCD76FCF00F076
:02005800120094
:10005A00F250026EF29E0500FF6A0150FE6E0050D9
:08006A00FD6E02BEF28E1200D1
:100072009E96FFC8C9FF46C007F947C008F948C0A5
:1000820009F949C00AF9C7A421D0465047104810BF
:1000920049101BE009010751081109110A110EE16B
:1000A2001EC6E1FF1FC6E2FF040EE66E1CC600F08C
:1000B2001DC601F0D1DF010E006E3AD0010E09011A
:1000C200075F000E085B095B0A5BDDD746C007F9D4
:1000D20047C008F948C009F949C00AF99EB621D0BB
:1000E20046504710481049101BE0090107510811FA
:1000F20009110A110EE11EC6E1FF1FC6E2FF040E3E
:10010200E66E1CC600F01DC601F0A6DF010E006EF1
:100112000FD0010E0901075F000E085B095B0A5B45
:10012200DDD7C5BC02D0006A03D0C584020E006EC2
:020132001200B9
:10013400FFC86FFF6DB002D00000FCD76FCF00F096
:020144001200A7
:1001460046C007F947C008F948C009F949C00AF985
:100156009E96C5869EB61FD0465047104810491039
:1001660019E009010751081109110A110CE11EC60F
:10017600E1FF1FC6E2FF030EE66E1CC600F01DC6B9
:1001860001F068DF08D0010E0901075F000E085B69
:10019600095B0A5BDFD7C9CF00F90801FF51000AE6
:1001A60002E1C58A01D0C59A9E96C58846C007F960
:1001B60047C008F948C009F949C00AF99EB61FD0D8
:1001C600465047104810491019E009010751081117
:1001D60009110A110CE11EC6E1FF1FC6E2FF030E5C
:1001E600E66E1CC600F01DC601F034DF08D0010E15
:1001F6000901075F000E085B095B0A5BDFD700C9D0
:0402060000F01200F2
:10020A00FFC8C9FFC7B002D00000FCD7C9CF00F0B1
:02021A001200D0
:10021C00A49EFFC86FFF42C007F943C008F944C051
:10022C0009F945C00AF96DA421D04250431044107D
:10023C0045101BE009010751081109110A110EE1C3
:10024C00E6C5E1FFE7C5E2FF040EE66EE4C500F08B
:10025C00E5C501F0FCDE010E006E3AD0010E09017D
:10026C00075F000E085B095B0A5BDDD742C007F92C
:10027C0043C008F944C009F945C00AF9A4BE21D00D
:10028C0042504310441045101BE00901075108115E
:10029C0009110A110EE1E6C5E1FFE7C5E2FF040E04
:1002AC00E66EE4C500F0E5C501F0D1DE010E006E8E
:1002BC000FD0010E0901075F000E085B095B0A5B9A
:1002CC00DDD76BBC02D0006A03D06B84020E006ECB
:0202DC0012000E
:1002DE0042C007F943C008F944C009F945C00AF9FC
:1002EE00A49E6B86A4BE1FD04250431044104510EE
:1002FE0019E009010751081109110A110CE1E6C5AF
:10030E00E1FFE7C5E2FF030EE66EE4C500F0E5C5CA
:10031E0001F09CDE08D0010E0901075F000E085B9C
:10032E00095B0A5BDFD76FCF00F90801FF51000AA6
:10033E0002E16B8A01D06B9AA49E6B8842C007F9CA
:10034E0043C008F944C009F945C00AF9A4BE1FD03C
:10035E00425043104410451019E00901075108118D
:10036E0009110A110CE1E6C5E1FFE7C5E2FF030E34
:10037E00E66EE4C500F0E5C501F068DE08D0010EBA
:10038E000901075F000E085B095B0A5BDFD700C936
:04039E0000F0120059
:1003A2008388F2C5E1FFF3C5E2FFFF0EE66EF0C5FA
:0A03B20000F0F1C501F050DE12006A
:1003BC00F2C5E1FFF3C5E2FF4C0EE66EF0C500F0AE
:1003CC00F1C501F044DEF2C5E1FFF3C5E2FFE66AD8
:1003DC00F0C500F0F1C501F03ADEF2C5E1FFF3C55E
:1003EC00E2FFE66AF0C500F0F1C501F030DEF2C5BF
:1003FC00E1FFF3C5E2FFE66AF0C500F0F1C501F0DC
:10040C0026DEF2C5E1FFF3C5E2FFE66AF0C500F0B7
:10041C00F1C501F01CDEF2C5E1FFF3C5E2FFFF0EF2
:10042C00E66EF0C500F0F1C501F011DE0801FD6BC0
:10043C00FE6BF2C5E1FFF3C5E2FFFF0EE66EF0C501
:10044C0000F0F1C501F003DE00C0FCF80801FD4B23
:10045C00FE2B800E0014016E0150000A07E0000E06
:10046C00FE5D02E1640EFD5D01E2E3D7FCAF04D05A
:10047C0092DFFCC800F012D0F2C5E1FFF3C5E2FF39
:10048C00FF0EE66EF0C500F0F1C501F0E0DD00C036
:0E049C00FCF80050000AF0E07EDF006A12005B
:1004AA00400E09010125006EF2C5E1FFF3C5E2FF26
:1004BA0000C0E6FFF0C500F0F1C501F0C9DDF2C5E4
:1004CA00E1FFF3C5E2FF05C9E6FFF0C500F0F1C59B
:1004DA0001F0BEDDF2C5E1FFF3C5E2FF04C9E6FFA4
:1004EA00F0C500F0F1C501F0B3DDF2C5E1FFF3C5D7
:1004FA00E2FF03C9E6FFF0C500F0F1C501F0A8DD8F
:10050A00F2C5E1FFF3C5E2FF02C9E6FFF0C500F05C
:10051A00F1C501F09DDDF2C5E1FFF3C5E2FF06C9B1
:10052A00E6FFF0C500F0F1C501F092DD0801FD6BB0
:10053A00FE6BF2C5E1FFF3C5E2FFFF0EE66EF0C502
:10054A0000F0F1C501F084DD00C0FCF80801FD4BA4
:10055A00FE2B800E0014016E0150000A07E0000E07
:10056A00FE5D02E1640EFD5D01E2E3D7FCC800F026
:02057A0012006D
:04057C00839812004E
:10058000FDDF000E000A02E1040E411809E1EEC889
:10059000F6F8EFC8F7F8F0C8F8F8F1C8F9F814D091
:1005A000090E006EEEC8F6F8EFC8F7F8F0C8F8F8D4
:1005B000F1C8F9F8005008E00801F637F691F7376E
:1005C000F837F937FF0FF7D7110E0901016FF6C899
:1005D00002F9F7C803F9F8C804F9F9C805F9FF0EDC
:1005E000066F63DF005204E0DCDE010E006E4BD0CC
:1005F000F2C5E1FFF3C5E2FFFF0EE66EF0C500F0C5
:10060000F1C501F02ADD0050FE0A01E0F1D7080132
:10061000F46BF56B020EF55D02E1000EF45D1BE27A
:10062000F451F225FA6FF551F321FB6FF2C5E1FFAA
:10063000F3C5E2FFFF0EE66EF0C500F0F1C501F074
:100640000CDDFAC8E1FFFBC8E2FF00C0E6FF0801CD
:10065000F44BF52BDFD7F2C5E1FFF3C5E2FFFF0E48
:10066000E66EF0C500F0F1C501F0F7DCF2C5E1FF80
:10067000F3C5E2FFFF0EE66EF0C500F0F1C501F034
:08068000ECDC8FDE006A1200C1
:1006880099DE0050000A03E0FF0E006E01D0006AF8
:0206980012004E
:10069A00E8C8EEF8E9C8EFF8EAC8F0F8EBC8F1F8EC
:1006AA00ECC8F2F8EDC8F3F866DF0050000A03E080
:0A06BA00FF0E006E01D0006A12006E
:1006C40004010051000A04E00051020A01E002D0D2
:1006D400006A0DD0D7DF000E001806E0FF0E0401FB
:1006E400C26FFF0E006E03D00401006B006A12009B
:1006F40004010051030A1FE1E3DF0050000A05E092
:10070400FF0EC26FFF0E006E5CD00101F9510801AB
:10071400E7190EE10101F8510801E61909E10101A7
:10072400F7510801E51904E10101F6510801E41942
:1007340002E1006A46D004010051010A05E1FF0EFE
:10074400C26FFF0E006E3DD00801E7510101F91997
:100754000EE10801E6510101F81909E10801E5512A
:100764000101F71904E10801E4510101F61928E037
:10077400E4C8E8F8E5C8E9F8E6C8EAF8E7C8EBF839
:10078400FA0E0801EC6F010EED6F85DF000E001804
:100794000FE0FF0E0101F66FFF0EF76FFF0EF86F0B
:1007A400FF0EF96FFF0E0401C26FFF0E006E09D039
:1007B400E4C8F6F1E5C8F7F1E6C8F8F1E7C8F9F1DD
:0407C400006A1200B5
:1007C8000801E0517A0806E3610EE05D03E3010EDB
:0807D800006E01D0006A12005E
:1007E000026A110E025C17E2790E0224F66E840E84
:1007F000F76E000EF722000EF86E000EF8220900C8
:10080000F5CF01F001500801E01903E1010E006E7F
:0A08100003D0022AE6D7006A1200A6
:10081A000801E0515A0806E3410EE05D03E3010EC8
:08082A00006E01D0006A12000B
:10083200E0C805F0E1C806F0E2C807F0E3C808F036
:1008420004011F51055E2051065A2151075A2251B7
:10085200085A21C604F005C000F006C001F007C026
:1008620002F008C003F0045007E0003600900136A1
:1008720002360336FF0FF8D72551002626510122F2
:0A0882002751022228510322120020
:10088C000801E051390806E3300EE05D03E3010E88
:08089C00006E01D0006A120099
:1008A400F2C5E1FFF3C5E2FFFF0EE66EF0C500F00E
:1008B400F1C501F02DEC00F00050FE0A01E0F0D784
:0208C400120020
:1008C600040122510801E35D0EE1040121510801F2
:1008D600E25D09E1040120510801E15D04E1040142
:1008E6001F510801E05D15E3040138510801E35D7D
:1008F6000EE1040137510801E25D09E104013651B8
:100906000801E15D04E1040135510801E05D01E201
:100916000CD0F40E0401C26FFF0E006EFF0E016EC6
:10092600FF0E026E0F0E036E64D010C600F0E0C814
:10093600E4F8E1C8E5F8E2C8E6F8E3C8E7F80050ED
:1009460008E00801E733E633E533E433E79FFF0FBA
:10095600F7D704011B510801E42704011C510801C3
:10096600E52304011D510801E62304011E51080177
:10097600E723BDDE0050000A09E0FF0E006EFF0E01
:10098600016EFF0E026E0F0E036E33D014C600F01A
:1009960015C601F016C602F017C603F0010E005E7A
:1009A600000E015A025A035A00500801E015046E5F
:1009B6000150E115056E0250E215066E0350E3156F
:1009C600076E04C000F005C001F000360090013645
:1009D600003600900136FA0E0024E96E010E012061
:1009E600EA6EEECF00F0EECF01F0EECF02F0EECFE2
:0409F60003F01200F8
:1009FA00CBC804F0CCC805F0C9C802F0CAC803F0D5
:100A0A00CDC800F0CEC801F0010E0801CD5F000E7E
:100A1A00CE5B005001100FE004C0E9FF05C0EAFFF9
:100A2A0002C0E1FF03C0E2FFEECFE6FF024A032A5B
:100A3A00044A052AE5D7C9C800F0CAC801F012005D
:100A4A000801C9515A0804E3410EC95DD8B0C98BDF
:060A5A00C9C800F0120003
:100A6000C9C8E0F813DF005211E1C9C8E0F8D5DECB
:100A700000520CE1C9C8E0F8A7DE005207E1C9C87E
:100A8000E0F8AEDE005202E1006A02D0010E006E14
:020A9000120052
:100A920008DF0801CB6BCC6B020ECC5D02E1000ECD
:100AA200CB5D1CE2CB51C925CD6FCC51CA21CE6F93
:100AB200F2C5E1FFF3C5E2FFFF0EE66EF0C500F0FE
:100AC200F1C501F02DEC00F0CDC8E1FFCEC8E2FF88
:100AD20000C0E6FF0801CB4BCC2BDED7F2C5E1FF0D
:100AE200F3C5E2FFFF0EE66EF0C500F0F1C501F0BE
:100AF2002DEC00F0F2C5E1FFF3C5E2FFFF0EE66E5A
:0E0B0200F0C500F0F1C501F02DEC00F012007E
:100B100035DD000E000A02E1040E411809E1C9C8E2
:100B2000CDF8CAC8CEF8CBC8CFF8CCC8D0F814D00E
:100B3000090E006EC9C8CDF8CAC8CEF8CBC8CFF828
:100B4000CCC8D0F8005008E00801CD37CD91CE37A1
:100B5000CF37D037FF0FF7D7120E0901016FCDC87D
:100B600002F9CEC803F9CFC804F9D0C805F9FF0EC1
:100B7000066F9BDC005204E014DC010E006E01D015
:040B8000006A1200F5
:100B8400F6C1DBF8F7C1DCF8F8C1DDF8F9C1DEF82D
:100B9400C9C8D3F8CAC8D4F8CBC8D5F8CCC8D6F8D5
:100BA400040122510801CC5D0EE104012151080128
:100BB400CB5D09E1040120510801CA5D04E104018F
:100BC4001F510801C95D15E3040138510801D65DC0
:100BD4000EE1040137510801D55D09E104013651E4
:100BE4000801D45D04E1040135510801D35D01E23B
:100BF40006D0F40E0401C26FFF0E006ECED00801C1
:100C0400DF6B13C600F0CDC801F0CEC802F0CFC828
:100C140003F0D0C804F0005007E00432033202327B
:100C24000132049EFF0FF8D70450000809E1035075
:100C3400000806E10250000803E108010150DF5DED
:100C440055E2D3C8E0F8D4C8E1F8D5C8E2F8D6C86C
:100C5400E3F837DE00C0D3F801C0D4F802C0D5F8F9
:100C640003C0D6F803500F0A08E10250FF0A05E159
:100C74000150FF0A02E10050FF0A06E1F10E0401EF
:100C8400C26FFF0E006E89D0040122510801D65DA7
:100C94000EE1040121510801D55D09E1040120514F
:100CA4000801D45D04E104011F510801D35D15E37B
:100CB400040138510801D65D0EE1040137510801E1
:100CC400D55D09E1040136510801D45D04E1040154
:100CD40035510801D35D01E206D0F40E0401C26F60
:100CE400FF0E006E5AD00801DF2B8BD70801FAC320
:100CF40000F0FBC301F0FCC302F0FDC303F0010EDE
:100D0400005E000E015A025A035A0050CD15D76FE7
:100D14000150CE15D86F0250CF15D96F0350D0159E
:100D2400DA6FD3C8E0F8D4C8E1F8D5C8E2F8D6C879
:100D3400E3F87DDD00C608F0D7C804F0D8C805F094
:100D4400D9C806F0DAC807F0085007E007320632BF
:100D540005320432079EFF0FF8D7D1C8E1FFD2C88D
:100D6400E2FF04500024E66E05500120E66E0650B2
:100D74000220E66E07500320E66EDBC8E4F8DCC808
:100D8400E5F8DDC8E6F8DEC8E7F8B2DC0050000A92
:0C0D940003E0FF0E006E01D0006A1200A8
:100DA0000B6A0A6A096A00500402F4CF09F0F3CF13
:100DB00008F001500502F4CF0BF0F3CF0AF0005019
:100DC0000502F3500926F4500A22E86A0B2201506A
:100DD0000402F3500926F4500A22E86A0B2208C0E4
:100DE00000F009C001F00AC002F00BC003F01200CD
:100DF000010E0801B525E96E000EB621EA6EB7C8EE
:100E0000E1FFB8C8E2FFEECFE6FF010EB725E16EC5
:100E1000000EB821E26E030EB525E96E000EB62174
:100E2000EA6EEECFE6FF020EB725E16E000EB821A6
:100E3000E26E050EB525E96E000EB621EA6EEECF24
:100E4000E6FF030EB725E16E000EB821E26E070E35
:100E5000B525E96E000EB621EA6EEECFE6FF040E70
:100E6000B725E16E000EB821E26E090EB525E96ED8
:100E7000000EB621EA6EEECFE6FF050EB725E16E55
:100E8000000EB821E26E0E0EB525E96E000EB621F9
:100E9000EA6EEECFE6FF060EB725E16E000EB82132
:100EA000E26E100EB525E96E000EB621EA6EEECFA9
:100EB000E6FF070EB725E16E000EB821E26E120EB6
:100EC000B525E96E000EB621EA6EEECFE6FF080EFC
:100ED000B725E16E000EB821E26E140EB525E96E5D
:100EE000000EB621EA6EEECFE6FF090EB725E16EE1
:100EF000000EB821E26E160EB525E96E000EB62181
:100F0000EA6EEECFE6FF0A0EB725E16E000EB821BD
:100F1000E26E180EB525E96E000EB621EA6EEECF30
:100F2000E6FF0B0EB725E16E000EB821E26E1C0E37
:100F3000B525E96E000EB621EA6EEECFE6FF0C0E87
:100F4000B725E16E000EB821E26E1E0EB525E96EE2
:0E0F5000000EB621EA6EEECFE6FF006A120038
:100F5E00056A046A0B0E055C22E2010E0414016E92
:100F6E00070E006E01C003F0005004E0033603903C
:100F7E00FF0FFBD7FE0E0414026E02C000F000320B
:100F8E00009E00500310046E05500801B525D96E61
:100F9E00000EB621DA6EDE500426052ADBD704C019
:040FAE0000F012003D
:100FB200B5C8C9F8B6C8CAF8B7C8CBF8B8C8CCF82B
:100FC200B9C8CDF8BAC8CEF8BBC8CFF8BCC8D0F8FB
:100FD200BDC8D1F8BEC8D2F8D4DD0050000A03E083
:100FE200FF0E006E15D0BDC8E9FFBEC8EAFFEECF06
:100FF200E4F8EECFE5F8EECFE6F8EECFE7F87AECDC
:1010020003F00050000A03E0FF0E006E01D0006AF8
:021012001200CA
:0E101400B5C8C9F8B6C8CAF83ADD006A1200BD
:10102200B5C8C9F8B6C8CAF8B7C8CBF8B8C8CCF8BA
:101032006EDD0050000A03E0FF0E006E01D0006A70
:0210420012009A
:10104400BC0E0801C96F080ECA6FB5C8CBF8B6C884
:10105400CCF80B0ECD6F000ECE6FCDDCB96B0B0E42
:10106400B95D3EE2BB6BBC0EE96E080EEA6EB95187
:10107400E926D8B0EA2AEECFC9F8F0DC0050010A1C
:1010840003E1010E0801BB6F0801BC0EE96E080EF6
:10109400EA6EB951E926D8B0EA2AEE50200A02E1F4
:1010A400010EBB6FBC0EE96E080EEA6EB951E9265B
:1010B400D8B0EA2AEE502E0A02E1010EBB6FBB51F2
:1010C400000A0BE1B7C8E1FFB8C8E2FFE66AC40E44
:1010D4000401C26FFF0E006EB2D00801B92BBFD756
:1010E400BA6BB96B080EB95D42E2BC0EE96E080E2C
:1010F400EA6EB951E926D8B0EA2AEE50200A33E064
:101104000C0EB525E96E000EB621EA6EEECF01F0A5
:1011140001A618D0BA51B725C76F000EB821C86F01
:10112400BC0EE96E080EEA6EB951E926D8B0EA2A77
:10113400EECFC9F888DCC7C8E1FFC8C8E2FF00C029
:10114400E6FF10D0BA51B725E16E000EB821E26E69
:10115400BC0EE96E080EEA6EB951E926D8B0EA2A47
:10116400EECFE6FF01D003D0BA2BB92BBBD7C451C5
:10117400200A09E1BA51B725E16E000EB821E26EEA
:10118400E66A006A5CD0BA51B725E16E000EB82158
:10119400E26E2E0EE66EBA2B080EB96F0B0EB95D19
:1011A40045E2BC0EE96E080EEA6EB951E926D8B0E4
:1011B400EA2AEECFC9F852DC0050000A01E136D029
:1011C4000C0E0801B525E96E000EB621EA6EEECFCD
:1011D40001F001A818D0BA51B725C76F000EB82185
:1011E400C86FBC0EE96E080EEA6EB951E926D8B094
:1011F400EA2AEECFC9F827DCC7C8E1FFC8C8E2FF76
:1012040000C0E6FF10D0BA51B725E16E000EB82138
:10121400E26EBC0EE96E080EEA6EB951E926D8B04A
:10122400EA2AEECFE6FFBA2BB92BB8D70801BA5198
:10123400B725E16E000EB821E26EE66A006A12007C
:10124400BEEC02F0000E000A02E1040E411809E1AE
:10125400B5C8BDF8B6C8BEF8B7C8BFF8B8C8C0F8B6
:1012640014D0090E006EB5C8BDF8B6C8BEF8B7C82C
:10127400BFF8B8C8C0F8005008E00801BD37BD91F8
:10128400BE37BF37C037FF0FF7D7180E0901016FFC
:10129400BDC802F9BEC803F9BFC804F9C0C805F93E
:1012A400FF0E066F55EC02F0005205E0D1EC01F0A0
:1012B400010E006E95D0F2C5E1FFF3C5E2FFFF0E0B
:1012C400E66EF0C500F0F1C501F02DEC00F0F2C5BA
:1012D400E1FFF3C5E2FFFF0EE66EF0C500F0F1C5D5
:1012E40001F02DEC00F0F2C5E1FFF3C5E2FFFE0EC4
:1012F400E66EF0C500F0F1C501F02DEC00F0080138
:10130400BB6BBC6BBC51010802E1BB51FF0816E387
:10131400BB51B925E96EBC51BA21EA6EF2C5E1FFB1
:10132400F3C5E2FFEECFE6FFF0C500F0F1C501F032
:101334002DEC00F00801BB4BBC2BE4D7F2C5E1FF58
:10134400F3C5E2FFFF0EE66EF0C500F0F1C501F053
:101354002DEC00F0F2C5E1FFF3C5E2FFFF0EE66EEF
:10136400F0C500F0F1C501F02DEC00F0F2C5E1FF8D
:10137400F3C5E2FFFF0EE66EF0C500F0F1C501F023
:101384002DEC00F000C0BBF8000E0801BC6F1F0E6E
:10139400BB15016EBCC802F0000E021601C0BBF8FA
:1013A40002C0BCF8000E021802E1050E011805E0A7
:1013B400D1EC01F0020E006E13D0F2C5E1FFF3C5CB
:1013C400E2FFFF0EE66EF0C500F0F1C501F02DEC72
:1013D40000F00050FF0A01E0F0D7D1EC01F0006A00
:0213E4001200F5
:1013E60075C8B5F876C8B6F877C8B7F878C8B8F843
:1013F60079C8B9F87AC8BAF87BC8BBF87CC8BCF813
:10140600B10E0801BD6F080EBE6FD0DD0050000A98
:1014160003E0FF0E006E9BD1A6C400F0A7C401F046
:10142600A8C402F0A9C403F0010E005E000E015A22
:10143600025A035A005008017915046E01507A15B4
:10144600056E02507B15066E03507C15076E050E61
:10145600026E04C000F005C001F0025005E000363F
:1014660000900136FF0FFAD70801FA0E0024AF6F7D
:10147600010E0120B06F010E7D6F080E7D5D0CE23E
:101486007D51AF25E96E000EB021EA6EEE507E0A60
:1014960001E102D07D2BF1D77D51080A0AE1AFC8E0
:1014A600B5F8B0C8B6F873C8B7F874C8B8F8C7DDE9
:1014B6004ED18F0E0801C96F080ECA6FAFC8CBF8A0
:1014C600B0C8CCF8200ECD6F000ECE6FFDEC04F048
:1014D60075C8B5F876C8B6F877C8B7F878C8B8F852
:1014E600010E795F000E7A5B7B5B7C5B79C8B9F88D
:1014F6007AC8BAF87BC8BBF87CC8BCF8B10EBD6F19
:10150600080EBE6F53DD0050000A03E0FF0E006EAA
:101516001ED1A6C400F0A7C401F0A8C402F0A9C455
:1015260003F0010E005E000E015A025A035A0050E3
:1015360008017915046E01507A15056E02507B1567
:10154600066E03507C15076E050E026E04C000F091
:1015560005C001F0025005E0003600900136FF0F8D
:10156600FAD7FA0E0026010E012200C08DF801C03E
:101576008EF80B0E0024E96E000E0120EA6E3F0E77
:10158600EE14016E01500F0A0BE008018F0EB56FC5
:10159600080EB66F73C8B7F874C8B8F850DDD7D060
:1015A6008F0E0801B56F080EB66FD6DC00C07FF847
:1015B600010E08017E6F0B0E8D25E96E000E8E2141
:1015C600EA6E3F0EEE14016E01500F0A06E0C00EE1
:1015D6000401C26FFF0E006EBAD00D0E08018D25F4
:1015E600E96E000E8E21EA6EEE507F1906E0C10EFE
:1015F6000401C26FFF0E006EAAD08DC8E9FF8EC827
:10160600EAFFEECF00F01F0E0014016E0150080134
:101616007E1906E0C20E0401C26FFF0E006E97D05F
:101626008DC8B5F88EC8B6F8800E0801B76F080EDB
:10163600B86FF8EC06F07D6B7E05006E016A000E51
:10164600015A0D0E046E000E056ED0EC06F07D51AB
:101656000026000E012200507325E16E0150742110
:10166600E26E800EE96E080EEA6E7D51E926D8B06C
:10167600EA2AEECFE6FF7D2B0D0E7D5D0CE2800E95
:10168600E96E080EEA6E7D51E926D8B0EA2AEE50D8
:10169600000A01E0D1D78DC8E9FF8EC8EAFFEECF78
:1016A60001F001AC02D0006A52D07E2B75C8B5F8A5
:1016B60076C8B6F877C8B7F878C8B8F8010E795F73
:1016C600000E7A5B7B5B7C5B79C8B9F87AC8BAF89E
:1016D6007BC8BBF87CC8BCF8B10EBD6F080EBE6FE8
:1016E60065DC0050000A03E0FF0E006E30D0A6C491
:1016F60000F0A7C401F0A8C402F0A9C403F0010ECB
:10170600005E000E015A025A035A0050080179156C
:10171600046E01507A15056E02507B15066E035055
:101726007C15076E050E026E04C000F005C001F0C0
:10173600025005E0003600900136FF0FFAD7080187
:10174600FA0E00248D6F010E01208E6F34D7120021
:1017560073C8B5F874C8B6F875C8B7F876C8B8F8D7
:1017660077C8B9F878C8BAF86ADD0050000A03E00D
:0A177600FF0E006E01D0006A1200A1
:1017800004010051030A0AE162EC03F00050000A70
:1017900005E0FF0EC26FFF0E006E4ED00051010A31
:1017A00005E1FF0EC26FFF0E006E46D00101F95138
:1017B000080176190EE10101F8510801751909E1D6
:1017C0000101F7510801741904E10101F651080102
:1017D000731905E1020E0401006F006A2DD073C871
:1017E000B5F874C8B6F875C8B7F876C8B8F819DC93
:1017F0000050000A06E0FF0E0401C26FFF0E006EEB
:101800001BD0FA0E0801B56F010EB66F03DC005055
:10181000000A06E0FF0E0401C26FFF0E006E0CD03E
:101820000401010E006F73C8F6F174C8F7F175C8B2
:0A183000F8F176C8F9F1006A120021
:10183A00026A080E025C17E2930E0224F66E840E08
:10184A00F76E000EF722000EF86E000EF82209005D
:10185A00F5CF01F001500801731903E1010E006E82
:0A186A0003D0022AE6D7006A12003C
:1018740073C802F074C803F076C800F077C801F0AA
:10188400010E0801765F000E775B0050011009E03D
:1018940002C0E1FF03C0E2FF75C8E6FF024A032A63
:0C18A400EBD773C800F074C801F012000C
:1018B000030E08017325E96E000E7421EA6EEECF67
:1018C00009F0000E0A6E0B6E0C6E000E0A6E0B6EA7
:1018D0000C6E0BC003F00AC002F009C001F0006AF0
:1018E00000C009F001C00AF002C00BF003C00CF008
:1018F000020E7325D96E000E7421DA6EDE500024BC
:10190000056E000E0120066E000E0220076E000E0E
:101910000320086E05C009F006C00AF007C00BF0EE
:1019200008C00CF007C003F006C002F005C001F0CB
:10193000006A00C009F001C00AF002C00BF003C049
:101940000CF0010E7325D96E000E7421DA6EDE5094
:101950000024056E000E0120066E000E0220076EA8
:10196000000E0320086E05C009F006C00AF007C08B
:101970000BF008C00CF007C003F006C002F005C071
:1019800001F0006A00C009F001C00AF002C00BF0CB
:1019900003C00CF073C8D9FF74C8DAFFDE5000260C
:1019A000000E01220222032200C009F001C00AF049
:1019B00002C00BF003C00CF000C009F001C00AF037
:0A19C00002C00BF003C00CF012008F
:0E19CA0073C8E9FF74C8EAFFEECF00F0120008
:1019D800010E08017325E96E000E7421EA6EEECF40
:1019E80003F0000E046E000E046E03C001F0006ADE
:1019F80000C003F001C004F073C8D9FF74C8DAFF4F
:101A0800DE500026000E012200C003F001C004F0E1
:0A1A180000C003F001C004F012004A
:101A22000801E46BE56BE66BE76B7AEC03F00050C0
:101A3200000A03E0FF0E006E27D1FA0E0801626F62
:101A4200010E636FFA0E646F010E656FFE0E622562
:101A5200736F010E6321746FBEDF0150AA0A02E1A7
:101A6200550E001806E0FC0E0401C26FFF0E006E58
:101A72000BD164C8E9FF65C8EAFFEECF01F001505F
:101A8200E90A15E064C8E9FF65C8EAFFEECF01F094
:101A92000150EB0A0BE1020E08016425E96E000E0B
:101AA2006521EA6EEE50900A01E101D006D0FB0EEC
:101AB2000401C26FFF0E006EE7D00801616B010ED8
:101AC200615DD8B0E0D00A0E006E000E016E61C8F2
:101AD20004F0000E056ED0EC06F0050E0026040E92
:101AE200012200C066F801C067F8BE0E6225736F5E
:101AF200010E6321746F040E026E61C800F0000EC5
:101B0200016E025005E0003600900136FF0FFAD751
:101B1200005073270150742357DF66C8E1FF67C87E
:101B2200E2FF00C0E6FF0A0E006E000E016E61C801
:101B320004F0000E056ED0EC06F0050E0026040E31
:101B42000122010E0024666F000E0120676FBE0E97
:101B52006225736F010E6321746F040E026E61C8F9
:101B620000F0000E016E025005E0003600900136D2
:101B7200FF0FFAD70050732701507423040E732706
:101B8200000E742321DF66C8E1FF67C8E2FF00C0D0
:101B9200E6FF0A0E006E000E016E61C804F0000E30
:101BA200056ED0EC06F0050E0026040E0122020E90
:101BB2000024666F000E0120676FBE0E6225736FF0
:101BC200010E6321746F040E026E61C800F0000EF4
:101BD200016E025005E0003600900136FF0FFAD781
:101BE2000050732701507423080E7327000E7423CC
:101BF2005EDE66C8E1FF67C8E2FF00C0E6FF01C023
:101C0200E6FF02C0E6FF03C0E6FF0A0E006E000E0A
:101C1200016E61C804F0000E056ED0EC06F0050EF0
:101C22000026040E0122060E0024666F000E01201B
:101C3200676FBE0E6225736F010E6321746F040E0F
:101C4200026E61C800F0000E016E025005E000361F
:101C520000900136FF0FFAD700507327015074230A
:101C62000C0E7327000E742322DE66C8E1FF67C8DC
:101C7200E2FF00C0E6FF01C0E6FF02C0E6FF03C0CC
:0A1C8200E6FF612B1CD7006A120078
:101C8C00FF0E080163256D6F000E64216E6F0B0E45
:101C9C006125736F000E6221746F91DE6DC8E1FFD8
:101CAC006EC8E2FF00C0E6FF000E63256D6F010EEB
:101CBC0064216E6F1C0E6125736F000E6221746FB0
:101CCC00F1DD6DC8E1FF6EC8E2FF00C0E6FF01C0A8
:101CDC00E6FF02C0E6FF03C0E6FF040E6325716F4A
:101CEC00010E6421726F140E6125736F000E622158
:101CFC00746F6CDE00C003F001C004F0000E056EC2
:101D0C00066E04C070F803C06FF86D6B6E6B1A0E24
:101D1C006125736F000E6221746F58DE000E026E27
:101D2C00036E6D5100266E5101226F5102227051CB
:101D3C00032271C8E1FF72C8E2FF00C0E6FF01C0D8
:101D4C00E6FF02C0E6FF03C0E6FF0B0E6125E96E5D
:101D5C00000E6221EA6E3F0EEE14016E01500F0A66
:101D6C0027E063C873F864C874F8756BFF0E766F60
:101D7C00000E776F79DD63C873F864C874F865C8B2
:101D8C0075F866C876F867C877F868C878F869C8CF
:101D9C0079F86AC87AF86BC87BF86CC87CF8F3ECF5
:101DAC0009F00050000A03E0FF0E006E07D005D0CA
:0E1DBC0063C8E1FF64C8E2FFE66A006A120035
:101DCA00080161517A0804E3610E615DD8B0619B34
:061DDA0061C800F01200D8
:101DE0000801626B636B270E635D02E1100E625D9A
:101DF000D8B0AED0000E000A02E1000E611919E160
:101E0000BEEC02F0010E0901016F026B036B046B63
:101E1000056BFF0E066F55EC02F000C064F8D1ECC4
:101E200001F008016451000A03E1416A006A92D09E
:101E30008CD0BEEC02F0370E0901016F026B036B10
:101E4000046B056BFF0E066F55EC02F000C064F8E2
:101E5000D1EC01F008016451010AD8A475D0BEECA0
:101E600002F0290E0901016F000E026F000E036FD0
:101E7000000E046F400E056FFF0E066F55EC02F06A
:101E800000C064F8D1EC01F008016451000A5BE184
:101E9000000E000A02E1020E611951E1BEEC02F0EF
:101EA0003A0E0901016F026B036B046B056BFF0EA9
:101EB000066F55EC02F000C064F8F2C5E1FFF3C50F
:101EC000E2FFFF0EE66EF0C500F0F1C501F02DEC6B
:101ED00000F000C065F8F2C5E1FFF3C5E2FFFF0EB8
:101EE000E66EF0C500F0F1C501F02DEC00F0F2C592
:101EF000E1FFF3C5E2FFFF0EE66EF0C500F0F1C5AD
:101F000001F02DEC00F0F2C5E1FFF3C5E2FFFF0E9A
:101F1000E66EF0C500F0F1C501F02DEC00F0D1EC5B
:101F200001F008016451000A09E165AD03D0040E17
:101F3000416E02D0030E416E006A0CD004D0010E37
:101F4000416E006A07D001D003D0624B632B4BD7A0
:061F5000010E006E1200FC
:101F560004010051020A17E1010E0101F6250801EC
:101F6600736F000E0101F7210801746F000E010165
:101F7600F8210801756F000E0101F9210801766F3D
:101F8600C0EC0BF02ED00051000A05E1FF0EC26F27
:101F9600FF0E006E26D0FA0E0801B56F010EB66F61
:101FA6000AEC08F00050000A06E0FF0E0401C26FBA
:101FB600FF0E006E16D0010E0101F625006E000E12
:101FC600F721016E000EF821026E000EF921036E54
:101FD60000C0F6F101C0F7F102C0F8F103C0F9F153
:041FE600006A12007B
:101FEA00160E08016125736F000E6221746FEFDC13
:101FFA000B0E046E00C002F001C003F0045005E0AD
:10200A0003320232039EFF0FFAD71F0E0214006E2C
:10201A0000C0B5F4160E6125736F000E6221746F4D
:10202A00D6DC050E046E00C002F001C003F00450B5
:10203A0005E003320232039EFF0FFAD73F0E021465
:10204A00006E00C0B6F4160E6125736F000E622191
:10205A00746FBDDC00C002F0023602903F0E02141B
:10206A00006E00C0B7F4180E6125736F000E62216E
:10207A00746FADDC090E046E00C002F001C003F0FB
:10208A00045005E003320232039EFF0FFAD77F0E97
:10209A000214006E03C001F0000E011600C0B1F474
:1020AA0001C0B2F4BC0E0026070E012200C0B1F432
:1020BA0001C0B2F4180E6125736F000E6221746FAD
:1020CA0086DC050E046E00C002F001C003F0045065
:1020DA0005E003320232039EFF0FFAD70F0E0214F5
:1020EA00006E00C0B3F4180E6125736F000E6221F2
:1020FA00746F6DDC1F0E0014006E00C0B4F4006A29
:02210A001200C1
:10210C00010E066E000E076E086E096E056A800ED3
:10211C00006E800E000A005C02E1200E055C23E2DA
:10212C00065008016111016E07506211026E0850D1
:10213C006311036E09506411046E0450091808E110
:10214C000350081805E10250071802E10150061867
:10215C0003E105C000F009D00636069007360836B4
:0C216C000936052AD4D7FF0E006E1200C1
:1021780004010051030A0AE162EC03F00050000A6E
:1021880005E0FF0EC26FFF0E006E32D00051010A4B
:1021980005E1FE0EC26FFF0E006E2AD061C873F80B
:1021A80062C874F863C875F864C876F8FA0E08014E
:1021B800776F010E786FABEC0BF0000E00180FE094
:1021C800FF0E0101F66FFF0EF76FFF0EF86FFF0E9F
:1021D800F96FFE0E0401C26FFF0E006E09D061C8D0
:1021E800F6F162C8F7F163C8F8F164C8F9F1006A5A
:0221F8001200D3
:1021FA0065C801F066C802F0010E0801655F000EAD
:10220A00665B000E021802E1000E01181FE061C8A9
:10221A00E9FF62C8EAFF63C8D9FF64C8DAFFEE5073
:10222A00DE180FE061C8E9FF62C8EAFF63C8D9FF98
:10223A0064C8DAFFDE50EE5C006E016A000E015AD5
:10224A0007D0614B622B634B642BD2D7006A016AB9
:02225A00120070
:10225C000134083609360450085E0550D8A0053CF8
:10226C00095E003601360F0E0C6E01340836093645
:10227C00045000A006D0085E0550D8A0053C095EAD
:10228C0005D008260550D8B0053C09260036013685
:10229C000C2EEBD700B006D0045008260550D8B051
:0822AC00053C092600001200A8
:1022B4000B1E0A1E091E081E082AD8B4092AD8B4FF
:0822C4000A2AD8B40B2A12000B
:1022CC000450085E0550D8A0053C095E0650D8A005
:1022DC00063C0A5E0750D8A0073C0B5E0336070E7F
:1022EC000C6E0334083609360A360B36045003A03C
:1022FC000ED0085E0550D8A0053C095E0650D8A04B
:10230C00063C0A5E0750D8A0073C0B5E0DD0082691
:10231C000550D8B0053C09260650D8B0063C0A2614
:10232C000750D8B0073C0B2603360C2EDAD70234F4
:10233C00083609360A360B36045003A00ED0085E58
:10234C000550D8A0053C095E0650D8A0063C0A5E94
:10235C000750D8A0073C0B5E0DD008260550D8B00E
:10236C00053C09260650D8B0063C0A260750D8B0C2
:10237C00073C0B260236070E0C6E02340836093663
:10238C000A360B36045002A00ED0085E0550D8A0B9
:10239C00053C095E0650D8A0063C0A5E0750D8A042
:1023AC00073C0B5E0DD008260550D8B0053C09261D
:1023BC000650D8B0063C0A260750D8B0073C0B266E
:1023CC0002360C2EDAD70134083609360A360B36AB
:1023DC00045002A00ED0085E0550D8A0053C095E42
:1023EC000650D8A0063C0A5E0750D8A0073C0B5EEE
:1023FC000DD008260550D8B0053C09260650D8B09B
:10240C00063C0A260750D8B0073C0B260136070EAF
:10241C000C6E0134083609360A360B36045001A00E
:10242C000ED0085E0550D8A0053C095E0650D8A019
:10243C00063C0A5E0750D8A0073C0B5E0DD0082660
:10244C000550D8B0053C09260650D8B0063C0A26E3
:10245C000750D8B0073C0B2601360C2EDAD70034C7
:10246C00083609360A360B36045001A00ED0085E29
:10247C000550D8A0053C095E0650D8A0063C0A5E63
:10248C000750D8A0073C0B5E0DD008260550D8B0DD
:10249C00053C09260650D8B0063C0A260750D8B091
:1024AC00073C0B260036070E0C6E00340836093636
:1024BC000A360B36045000A00ED0085E0550D8A08A
:1024CC00053C095E0650D8A0063C0A5E0750D8A011
:1024DC00073C0B5E0DD008260550D8B0053C0926EC
:1024EC000650D8B0063C0A260750D8B0073C0B263D
:1024FC0000360C2EDAD700B00ED00450082605504A
:10250C00D8B0053C09260650D8B0063C0A26075020
:08251C00D8B0073C0B261200A9
:1025240061C8C9F830EC05F0005208E161C873F8DD
:102534001DEC0CF0005202E1006A02D0010E006EA4
:02254400120083
:1025460061C802F062C803F002C000F003C001F0E7
:10255600024A032A00C0E9FF01C0EAFFEE5201E089
:10256600F3D708016151025C006E62510358016E97
:0A257600010E005E000E015A120073
:102580000E0E08016125736F000E6221746FECEC72
:102590000CF00B0E046E00C002F001C003F00450FA
:1025A00005E003320232039EFF0FFAD71F0E02141A
:1025B000006E00C0AEF40E0E6125736F000E622136
:1025C000746FECEC0CF0050E046E00C002F001C05C
:1025D00003F0045005E003320232039EFF0FFAD7E6
:1025E0003F0E0214006E00C0AFF40E0E6125736F33
:1025F000000E6221746FECEC0CF000C002F00236A9
:1026000002903F0E0214006E00C0B0F4100E61255F
:10261000736F000E6221746FECEC0CF0090E046E07
:1026200000C002F001C003F0045005E003320232A2
:10263000039EFF0FFAD77F0E0214006E03C001F055
:10264000000E011600C0AAF401C0ABF4BC0E0026B7
:10265000070E012200C0AAF401C0ABF4100E6125E0
:10266000736F000E6221746FECEC0CF0050E046EBB
:1026700000C002F001C003F0045005E00332023252
:10268000039EFF0FFAD70F0E0214006E00C0ACF4C9
:10269000100E6125736F000E6221746FECEC0CF06C
:0E26A0001F0E0014006E00C0ADF4006A1200A0
:1026AE0031C440F832C441F833C442F834C443F85C
:1026BE0004012251345D08E12151335D05E12051C1
:1026CE00325D02E11F51315D14E338510801435D63
:1026DE000EE1040137510801425D09E10401365152
:1026EE000801415D04E1040135510801405D01E23C
:1026FE0008D01FC440F820C441F821C442F822C4B7
:10270E0043F840C844F841C845F842C846F843C8A3
:10271E0047F810C604F040C800F041C801F042C8A6
:10272E0002F043C803F0045007E0033202320132D4
:10273E000032039EFF0FF8D7005004011B2508013D
:10274E00736F015004011C210801746F02500401C3
:10275E001D210801756F035004011E210801766FBB
:10276E0014C600F015C601F016C602F017C603F027
:10277E00010E005E000E015A025A035A0050401517
:10278E00046E01504115056E02504215066E03503F
:10279E004315076E04C000F005C001F0003600902E
:1027AE000136003600900136FA0E0024486F010EF5
:1027BE000120496FC0EC0BF00050000A09E0FF0E3B
:1027CE00006EFF0E016EFF0E026E0F0E036E6DD1C8
:1027DE0008014A6B48C8E9FF49C8EAFFEECF01F08D
:1027EE00EECF02F0EECF03F0EECF04F00450000A6D
:1027FE0008E10350000A05E10250000A02E101500F
:10280E00000A04E10801010E4A6FC0D00801040E4F
:10281E004827000E4923010E4027000E4123422374
:10282E004323040138510801435D0EE10401375181
:10283E000801425D09E1040136510801415D04E1E0
:10284E00040135510801405D76E31FC440F820C4F1
:10285E0041F821C442F822C443F862EC03F0005060
:10286E00000A09E0FF0E006EFF0E016EFF0E026EF3
:10287E000F0E036E1AD110C604F040C800F041C806
:10288E0001F042C802F043C803F0045007E00332DF
:10289E00023201320032039EFF0FF8D704010050BE
:1028AE001B250801736F015004011C210801746F70
:1028BE00025004011D210801756F035004011E21F1
:1028CE000801766F14C600F015C601F016C602F0A8
:1028DE0017C603F0010E005E000E015A025A035A8B
:1028EE0000504015046E01504115056E0250421500
:1028FE00066E03504315076E04C000F005C001F0CC
:10290E00003600900136003600900136FA0E002493
:10291E00486F010E0120496FC0EC0BF00050000A09
:10292E0009E0FF0E006EFF0E016EFF0E026E0F0E1F
:10293E00036EBBD01CD0080149510301FF1903E1FE
:10294E00FE510801481913E10801FA0E486F010EF5
:10295E00496FABEC0FF00050000A09E0FF0E006E5D
:10296E00FF0E016EFF0E026E0F0E036E9ED008015B
:10297E004351471908E14251461905E141514519A4
:10298E0002E14051441901E101D024D762EC03F079
:10299E000050000A09E0FF0E006EFF0E016EFF0EE2
:1029AE00026E0F0E036E81D008014A5309E1FF0E2D
:1029BE00006EFF0E016EFF0E026E0F0E036E75D0CF
:1029CE0048C8E1FF49C8E2FFFF0EE66EFF0EE66E55
:1029DE00FF0EE66E0F0EE66E10C604F040C800F055
:1029EE0041C801F042C802F043C803F0045007E0AA
:1029FE000332023201320032039EFF0FF8D700502D
:102A0E0004011B250801616F015004011C210801FE
:102A1E00626F025004011D210801636F035004010F
:102A2E001E210801646FBCEC10F00050000A07E094
:102A3E00FF0E006EFF0E016E026E036E36D00401A5
:102A4E003051FF0A08E12F51FF0A05E12E51FF0A0E
:102A5E0002E12D51FF0A16E02DC400F02EC401F044
:102A6E002FC402F030C403F0010E005E000E015AB6
:102A7E00025A035A00C02DF401C02EF402C02FF4E6
:102A8E0003C030F440C831F441C832F442C833F4C4
:102A9E0043C834F4010E0601126F40C800F041C85D
:0C2AAE0001F042C802F043C803F012001F
:102ABA000E0E08014025006E000E4121016E010E26
:102ACA000024E16E000E0120E26E0DC600F0003611
:102ADA000090003600900036009000C0E6FF0E0E0F
:102AEA004025006E000E4121016E010E0024026E87
:102AFA00000E0120036E0EC600F00032009E003266
:102B0A00009E0032009E02C0E9FF03C0EAFFEE50B9
:102B1A00002602C0E1FF03C0E2FF00C0E6FF0E0E7E
:102B2A004025E16E000E4121E26E050E016E0EC6D1
:102B3A0000F0015004E000360090FF0FFBD700C000
:102B4A00E6FF0E0E4025026E000E4121036E0FC6EF
:102B5A0000F00032009E02C0E9FF03C0EAFFEE5017
:102B6A00002602C0E1FF03C0E2FF00C0E6FF100E2C
:102B7A004025006E000E4121016E010E0024E16E17
:102B8A00000E0120E26EBC0E0601095D026E02C053
:102B9A0000F00036009000C0E6FF100E0801402544
:102BAA00006E000E4121016E010E0024026E000E1D
:102BBA000120036E0BC600F00032009E0032009E18
:102BCA000032009E02C0E9FF03C0EAFFEE50002671
:102BDA0002C0E1FF03C0E2FF00C0E6FF100E40257D
:102BEA00E16E000E4121E26E050E016E0BC600F089
:102BFA00015004E000360090FF0FFBD700C0E6FF4B
:102C0A00100E4025016E000E4121026E01C0E9FF3F
:102C1A0002C0EAFF06010C51EE24006E01C0E1FF7A
:0C2C2A0002C0E2FF00C0E6FF006A1200DA
:102C3600160E08014025006E000E4121016E010EA0
:102C46000024E16E000E0120E26E0DC600F0003693
:102C56000090003600900036009000C0E6FF160E89
:102C66004025006E000E4121016E010E0024026E09
:102C7600000E0120036E0EC600F00032009E0032E8
:102C8600009E0032009E02C0E9FF03C0EAFFEE503C
:102C9600002602C0E1FF03C0E2FF00C0E6FF160EF9
:102CA6004025E16E000E4121E26E050E016E0EC654
:102CB60000F0015004E000360090FF0FFBD700C083
:102CC600E6FF160E4025026E000E4121036E0FC66A
:102CD60000F00032009E02C0E9FF03C0EAFFEE509A
:102CE600002602C0E1FF03C0E2FF00C0E6FF180EA7
:102CF6004025006E000E4121016E010E0024E16E9A
:102D0600000E0120E26EBC0E0601095D026E02C0D5
:102D160000F00036009000C0E6FF180E08014025BE
:102D2600006E000E4121016E010E0024026E000E9F
:102D36000120036E0BC600F00032009E0032009E9A
:102D46000032009E02C0E9FF03C0EAFFEE500026F3
:102D560002C0E1FF03C0E2FF00C0E6FF180E4025F7
:102D6600E16E000E4121E26E050E016E0BC600F00B
:102D7600015004E000360090FF0FFBD700C0E6FFCD
:102D8600180E4025016E000E4121026E01C0E9FFBA
:102D960002C0EAFF06010C51EE24006E01C0E1FFFD
:0C2DA60002C0E2FF00C0E6FF006A12005D
:102DB20011EC0DF0FA0E0801416F010E426F040191
:102DC200C251FF0A03E1FF0E006E6CD2C251FC0A2F
:102DD20003E1FF0E006E66D2C251000A65E10F0EDA
:102DE2000615016E01C043F801500B0A0AE0080102
:102DF20043510C0A06E0F80E0401C26FFF0E006E8A
:102E020051D207C4E4F808C4E5F809C4E6F80AC4D4
:102E1200E7F87AEC03F00050000A03E0FF0E006EC0
:102E220041D2FA0E0801416F010E426FFE0E41259A
:102E3200736F010E4221746FECEC0CF00150AA0A80
:102E420002E1550E001806E0FC0E0401C26FFF0EEF
:102E5200006E28D241C8E9FF42C8EAFFEECF01F076
:102E62000150E90A16E041C8E9FF42C8EAFFEECF85
:102E720001F00150EB0A0BE1020E08014125E96E57
:102E8200000E4221EA6EEE50900A01E102D0006A81
:102E920002D0010E006E005206E1FB0E0401C26F69
:102EA200FF0E006EFFD11DD00401C251FB0A19E1D1
:102EB200800E056F076B086B096B0A6B200E080109
:102EC2004125736F000E4221746F58EC0CF000C064
:102ED2000BF401C00CF402C00DF403C00EF40401A3
:102EE200C26B0401C251000AD8A4D7D10B0E08014B
:102EF2004125736F000E4221746FECEC0CF000C0A0
:102F02000FF401C010F40D0E4125736F000E422123
:102F1200746FE5EC0CF000C011F40E0E4125736FD6
:102F2200000E4221746FECEC0CF000C012F401C0F0
:102F320013F4100E4125736F000E4221746FE5ECFD
:102F42000CF000C014F4240E4125736F000E4221D0
:102F5200746F58EC0CF000C015F401C016F402C0F6
:102F620017F403C018F4280E4125736F000E422196
:102F7200746FECEC0CF000C019F401C01AF40401F7
:102F820012510725006E13510821016E000E09210E
:102F9200026E000E0A21036E00C01BF401C01CF475
:102FA20002C01DF403C01EF42C0E08014125736FEC
:102FB200000E4221746F58EC0CF000C01FF401C0E7
:102FC20020F402C021F403C022F4110E4125736FD4
:102FD200000E4221746FECEC0CF000C023F401C02F
:102FE20024F4300E4125736F000E4221746FECEC15
:102FF2000CF0000E026E036E040107510026085108
:103002000122095102220A51032200C029F401C0FF
:103012002AF402C02BF403C02CF41BC425F41CC4F4
:1030220026F41DC427F41EC428F40801406B0401D1
:1030320014510801405D18E2040115512525006E66
:1030420016512621016E17512721026E185128218F
:10305200036E00C025F401C026F402C027F403C0A9
:1030620028F40801402BE3D7050E006E0FC4A6F426
:1030720010C4A7F4000E0401A86FA96F005005E068
:10308200A733A633A79FFF0FFAD7000EA86FA96F29
:103092000FC414F610C415F6000E0601166F176F52
:1030A20015331433159F15331433159F000E166F05
:1030B200176F0FC461F810C462F8000E0801636F45
:1030C200646F86EC10F000C011F611C461F8000EB6
:1030D2000801626F636F646F86EC10F000C021F626
:1030E200A6C461F8A7C462F8A8C463F8A9C464F8C6
:1030F20086EC10F000C000F614C661F815C662F83E
:1031020016C663F817C664F886EC10F000C010F615
:10311200060121511125006E00C0A1F4010E040127
:10312200A26F000EA36F000EA46F000EA56F0050D9
:1031320007E0A237A291A337A437A537FF0FF8D72C
:10314200200E0801616F000E626F636F646F86EC80
:1031520010F000500401A15D006E016A000E00BE75
:10316200FF0E015A00C004F0010E006E000E016E47
:10317200000E026E000E036E045007E0003600904F
:10318200013602360336FF0FF8D700C0FAF301C04A
:10319200FBF302C0FCF303C0FDF300C061F801C001
:1031A20062F802C063F803C064F886EC10F000C055
:1031B20013F61FC4B8F420C4B9F421C4BAF422C46B
:1031C200BBF40401016B026B036B046B25C400F0BA
:1031D20026C401F027C402F028C403F00751005EA0
:1031E2000851015A0951025A0A51035A0BC435F4C3
:1031F2000CC436F40DC437F40EC438F40050355FF5
:103202000150365B0250375B0350385B21C600F039
:10321200005007E03833373336333533389FFF0FEA
:10322200F8D7020E3527000E3623372338230653EC
:1032320020E1000E385D08E1000E375D05E1FF0E6A
:10324200365D02E1F70E355D03E30B0E066F11D01A
:10325200000E385D08E1000E375D05E10F0E365DA8
:1032620002E1F70E355D03E3060E066F02D0010E92
:10327200066F0F0E0615016E01C043F801500B0ACE
:103282000AE0080143510C0A06E0F80E0401C26F7D
:10329200FF0E006E07D0006A05D00401FB0EC26F5C
:0632A200FF0E006E120099
:1032A80004010451FF0A08E10351FF0A05E1025134
:1032B800FF0A02E10151FF0A05E1F60EC26FFF0E97
:1032C800006E7BD2B8C442F8B9C443F8BAC444F813
:1032D800BBC445F82251BB5D08E12151BA5D05E147
:1032E8002051B95D02E11F51B85D14E3385108015E
:1032F800455D0EE1040137510801445D09E104010F
:1033080036510801435D04E1040135510801425D6D
:1033180001E206D0F40E0401C26FFF0E006E4DD21A
:1033280008014C6B13C600F001C401F002C402F09E
:1033380003C403F004C404F0005007E0043203326D
:1033480002320132049EFF0FF8D70450000809E149
:103358000350000806E10250000803E1080101508B
:103368004C5D56E242C8E0F843C8E1F844C8E2F8C8
:1033780045C8E3F863EC04F000C042F801C043F824
:1033880002C044F803C045F803500F0A08E1025090
:10339800FF0A05E10150FF0A02E10050FF0A06E1B9
:1033A800F10E0401C26FFF0E006E07D20401225114
:1033B8000801455D0EE1040121510801445D09E160
:1033C800040120510801435D04E104011F51080173
:1033D800425D15E3040138510801455D0EE1040121
:1033E80037510801445D09E1040136510801435D84
:1033F80004E1040135510801425D01E206D0F40EF2
:103408000401C26FFF0E006ED8D108014C2B8AD779
:10341800FAC300F0FBC301F0FCC302F0FDC303F0E4
:10342800010E005E000E015A025A035A00500401B0
:1034380001150801486F0150040102150801496F80
:1034480002500401031508014A6F035004010415D2
:1034580008014B6F42C8E0F843C8E1F844C8E2F8F5
:1034680045C8E3F819EC04F000C608F048C804F0B1
:1034780049C805F04AC806F04BC807F0085007E0ED
:103488000732063205320432079EFF0FF8D7045080
:1034980000240801736F05500120746F0650022044
:1034A800756F07500320766FA6C400F0A7C401F01B
:1034B800A8C402F0A9C403F0010E005E000E015A70
:1034C800025A035A00504815046E01504915056EFA
:1034D80002504A15066E03504B15076E050E026E14
:1034E80004C000F005C001F0025005E0003600906D
:1034F8000136FF0FFAD70801FA0E0024466F010EB5
:103508000120476FC0EC0BF00050000A03E0FF0EEB
:10351800006E53D146C8E9FF47C8EAFFEECF01F075
:103528000150E50A0AE046C8E9FF47C8EAFFEECFBE
:1035380001F0200E015C01E318D046C8E9FF47C836
:10354800EAFFEECF01F0140E015C0EE20B0E08014B
:103558004625E96E000E4721EA6E3F0EEE14016E15
:1035680001500F0A01E101D096D062EC03F000503F
:10357800000A03E0FF0E006E20D10B0E080146255D
:10358800E96E000E4721EA6EEECF01F001A62ED0BB
:1035980040C873F841C874F8756B100E766F010E49
:1035A800776F3AEC0CF0FF0E40254D6F000E41216D
:1035B8004E6F0B0E4625736F000E4721746FE5ECB6
:1035C8000CF04DC8E1FF4EC8E2FF00C0E6FF40C85E
:1035D800C9F841C8CAF846C8CBF847C8CCF80B0E9A
:1035E800CD6F000ECE6FFDEC04F04BD04051411171
:1035F80048E046C861F847C862F840C863F841C85F
:1036080064F8B8C465F8B9C466F8BAC467F8BBC446
:1036180068F801C469F802C46AF803C46BF804C402
:103628006CF846EC0EF00050000A03E0FF0E006E46
:10363800C4D046C861F847C862F8C0EC12F046C862
:1036480061F847C862F8F5EC0FF0080E4025E16E06
:10365800010E4121E26EB8C4E6FFB9C4E6FFBAC460
:10366800E6FFBBC4E6FF0C0E4025E16E010E4121CA
:10367800E26E01C4E6FF02C4E6FF03C4E6FF04C429
:10368800E6FF010E04010127000E02230323042391
:10369800010E006E92D0010E08014827000E492342
:1036A8004A234B23200E4625016E000E4721026E49
:1036B80001C046F802C047F8010E04010127000EB8
:1036C80002230323042302500301FF1902E1FE51E0
:1036D8000118D8A471D0FA0E0801466F010E476F81
:1036E8004B510301FD190EE108014A510301FC1970
:1036F80009E1080149510301FB1904E10801485196
:103708000301FA1951E162EC03F00050000A03E0EA
:10371800FF0E006E52D00801486B496B4A6B4B6B29
:1037280042C8E0F843C8E1F844C8E2F845C8E3F8FD
:1037380063EC04F000C042F801C043F802C044F84A
:1037480003C045F803500F0A08E10250FF0A05E1DB
:103758000150FF0A02E10050FF0A0BE1FF0E0401CD
:10376800016FFF0E026FFF0E036FFF0E046F006AFA
:1037780024D042C8E0F843C8E1F844C8E2F845C894
:10378800E3F819EC04F000C073F801C074F802C043
:1037980075F803C076F8C0EC0BF00050000A03E09F
:1037A800FF0E006E0AD008D0ABEC0FF00050000AF4
:0C37B80003E0FF0E006E01D0ADD6120041
:1037C40010C604F044C800F045C801F046C802F031
:1037D40047C803F0045007E00332023201320032DA
:1037E400039EFF0FF8D700C049F801C04AF802C091
:1037F4004BF803C04CF804011B510024086E1C5103
:103804000120096E1D5102200A6E1E5103200B6E09
:1038140008C049F809C04AF80AC04BF80BC04CF874
:1038240014C600F015C601F016C602F017C603F060
:10383400010E005E000E015A025A035A005008019C
:103844004415046E01504515056E02504615066E6A
:1038540003504715076E04C000F005C001F00036A0
:1038640000900136003600900136FA0E0024516FA4
:10387400010E0120526F08C0E4F809C0E5F80AC03F
:10388400E6F80BC0E7F87AEC03F00050000A03E016
:10389400FF0E006E46D051C8E1FF52C8E2FF40C897
:1038A400E6FF41C8E6FF42C8E6FF43C8E6FF49C851
:1038B4004DF84AC84EF84BC84FF84CC850F80801A8
:1038C400486B040114510801485D22E24DC861F8B7
:1038D4004EC862F84FC863F850C864F8BCEC10F0E6
:1038E4000050000A03E0FF0E006E1BD004011551C6
:1038F40008014D270401165108014E2304011751F4
:1039040008014F230401185108015023482BD9D72B
:1039140049C8F6F14AC8F7F14BC8F8F14CC8F9F1B7
:04392400006A120023
:103928001A0E08014025E16E000E4121E26E42C8E0
:10393800E6FF1A0E4025006E000E4121016E010EB1
:103948000024E16E000E0120E26E43C8E6FF140E6B
:103958004025E16E000E4121E26E44C8E6FF140ED8
:103968004025006E000E4121016E010E0024E16E1B
:0E397800000E0120E26E45C8E6FF006A120054
:10398600050E416E9598D1EC01F00801406B416B34
:10399600000E415D02E10A0E405D10E2F2C5E1FF54
:1039A600F3C5E2FFFF0EE66EF0C500F0F1C501F0CB
:1039B6002DEC00F00801404B412BEAD7BEEC02F09B
:1039C6000901016B026B036B046B056B950E066FA9
:1039D60055EC02F000C042F8D1EC01F0080142516A
:1039E600010A03E0010E006E81D0BEEC02F0080E63
:1039F6000901016FAA0E026F010E036F000E046F1C
:103A0600056F870E066F55EC02F000C042F8F2C54E
:103A1600E1FFF3C5E2FFFF0EE66EF0C500F0F1C56B
:103A260001F02DEC00F0F2C5E1FFF3C5E2FFFF0E59
:103A3600E66EF0C500F0F1C501F02DEC00F0F2C520
:103A4600E1FFF3C5E2FFFF0EE66EF0C500F0F1C53B
:103A560001F02DEC00F0F2C5E1FFF3C5E2FFFF0E29
:103A6600E66EF0C500F0F1C501F02DEC00F0D1ECEA
:103A760001F008014251010A0AE0010E616FF0EC03
:103A86000EF0005203E0616BF0EC0EF004D0020E73
:103A9600616FF0EC0EF0000E000A02E1050E41180F
:103AA60003E1020E006E22D0000E000A02E1040EAF
:103AB60041181BE0BEEC02F0100E0901016F000E6A
:103AC600026F020E036F000E046F056FFF0E066F86
:103AD60055EC02F000C042F8D1EC01F00801425169
:0E3AE600000A03E0030E006E01D0006A120019
:103AF400010E0801446F456B466B476B486B496B7D
:103B04004A6B40C8E9FF41C8EAFFEE50000A06E1EB
:103B1400C40E0401C26FFF0E006EEED040C861F8FF
:103B240041C862F8A3EC12F000C043F8426B40C8ED
:103B340061F841C862F8A3EC12F0800E026E800EA8
:103B44000118025C02E10050425D15E24251402539
:103B5400E96E000E4121EA6EEECF61F892EC12F0AC
:103B6400005206E1C30E0401C26FFF0E006EC4D002
:103B74000801422BDCD74305006E000E43BFFF0E45
:103B8400016E000E015A00504025E96E015041219A
:103B9400EA6EEE502E0A02E14307EDD7800E000ACA
:103BA400006E800E4319005C06E3E20E0401C26F4E
:103BB400FF0E006EA1D040C861F841C862F8A3ECC2
:103BC40012F0800E43BF7F0E026E800E0118025C5D
:103BD40002E10050435D09E243514025E16E000ECD
:103BE40043BFFF0E4121E26EE66A426B800E006E17
:103BF400800E43BF7F0E005C02E14351425D12E23E
:103C040042514025E96E000E4121EA6EEECF73F871
:103C14001DEC0CF0005203E0010E006E6DD00801A3
:103C2400422BE4D7800E0C0A006E800E4319005C10
:103C340003E2010E006E60D0426B800E006E800EB7
:103C440043BF7F0E005C02E14351425D3FE24251BB
:103C54004025E96E000E4121EA6EEECFE0F8E4EC77
:103C640003F0005203E0010E456F29D04251402574
:103C7400E96E000E4121EA6EEECFE0F80DEC04F09F
:103C8400005203E0010E466F1AD042514025E96EFE
:103C9400000E4121EA6EEE502E0A11E148530CE168
:103CA400455304E0465302E0010E476F010E486F8E
:103CB400446B456B466B08D0010E006E1DD0445317
:103CC40002E0492B01D04A2B422BB7D7455304E0DD
:103CD400465302E0010E476F4951080804E34A5174
:103CE400030801E303D0010E006E06D0475303E03E
:0A3CF400020E006E01D0006A1200FB
:103CFE00B8C444F8B9C445F8BAC446F8BBC447F8CA
:103D0E000401016B026B036B046B04012251080169
:103D1E00475D0EE1040121510801465D09E10401F0
:103D2E0020510801455D04E104011F510801445D65
:103D3E0015E3040138510801475D0EE104013751C6
:103D4E000801465D09E1040136510801455D04E1B3
:103D5E00040135510801445D01E206D0F40E040160
:103D6E00C26FFF0E006EF7D0FA0E08014C6F010EF7
:103D7E004D6F44C8E0F845C8E1F846C8E2F847C8B8
:103D8E00E3F819EC04F000C073F801C074F802C037
:103D9E0075F803C076F8C0EC0BF00050000A03E093
:103DAE00FF0E006ED8D00801486B496B4A6B4B6B07
:103DBE000301FD5108014B5D0EE10301FC510801A9
:103DCE004A5D09E10301FB510801495D04E103016C
:103DDE00FA510801485DD8B095D04D510301FF1935
:103DEE0003E1FE5108014C190DE10801FA0E4C6F6A
:103DFE00010E4D6FABEC0FF00050000A03E0FF0E0A
:103E0E00006EA9D04CC861F84DC862F840C863F87E
:103E1E0041C864F80B0E0801656F000E666FFDEC6D
:103E2E0010F0000E011802E1000E001858E162ECCD
:103E3E0003F00050000A03E0FF0E006E8CD0080164
:103E4E00425143113DE04CC861F84DC862F842C87A
:103E5E0063F843C864F8B8C465F8B9C466F8BAC460
:103E6E0067F8BBC468F801C469F802C46AF803C4F1
:103E7E006BF804C46CF846EC0EF00050000A03E038
:103E8E00FF0E006E68D0080E08014225E16E010E8D
:103E9E004321E26EB8C4E6FFB9C4E6FFBAC4E6FF3A
:103EAE00BBC4E6FF0C0E4225E16E010E4321E26E0D
:103EBE0001C4E6FF02C4E6FF03C4E6FF04C4E6FF46
:103ECE004CC861F84DC862F8C0EC12F04CC861F8ED
:103EDE004DC862F8F5EC0FF0010E006E3CD00801F3
:103EEE00200E4C27000E4D23010E4827000E4923AD
:103EFE004A234B23010E04010127000E0223032344
:103F0E00042356D762EC03F00050000A03E0FF0EC4
:103F1E00006E21D044C8E0F845C8E1F846C8E2F882
:103F2E0047C8E3F863EC04F000C044F801C045F85C
:103F3E0002C046F803C047F803500F0A08E10250CA
:103F4E00FF0A05E10150FF0A02E10050FF0A02E1FB
:083F5E00006A01D0DAD612005E
:103F660001C458F802C459F803C45AF804C45BF8EB
:103F7600B8C4B5F8B9C4B6F8BAC4B7F8BBC4B8F88B
:103F860001C4B9F802C4BAF803C4BBF804C4BCF847
:103F96005C0E0801BD6F080EBE6FD9EC07F000502D
:103FA600000A03E0FF0E006E79D1A6C400F0A7C494
:103FB60001F0A8C402F0A9C403F0010E005E000ED1
:103FC600015A025A035A005004010115046E0150A9
:103FD6000215056E02500315066E03500415076E92
:103FE60004C054F805C055F806C056F807C057F87F
:103FF600050E026E04C000F005C001F0025005E097
:10400600003600900136FF0FFAD7FA0E0024080199
:10401600B56F010E0120B66F010E436FAFEC07F0CE
:1040260000C044F8010E0401015F000E025B035B51
:10403600045B000E006E0801571908E1005056197E
:1040460005E10050551902E15451000A2BE1FAC36B
:1040560054F8FBC355F8FCC356F8FDC357F8010ED8
:10406600545F000E555B565B575BB8C4B5F8B9C4D0
:10407600B6F8BAC4B7F8BBC4B8F801C4B9F802C4F4
:10408600BAF803C4BBF804C4BCF85C0EBD6F080ED6
:10409600BE6FD9EC07F00050000A03E0FF0E006E79
:1040A600FDD007D0010E0801545F000E555B565B2C
:1040B600575B0801A6C400F0A7C401F0A8C402F02B
:1040C600A9C403F0010E005E000E015A025A035AFB
:1040D60000505415046E01505515056E02505615C4
:1040E600066E03505715076E050E026E04C000F0EB
:1040F60005C001F0025005E0003600900136FF0FC2
:10410600FAD7FA0E0026010E012200C052F801C0AD
:1041160053F80B0E0024E96E000E0120EA6E3F0EE6
:10412600EE14016E01500F0A06E0C00E0401C26FC4
:10413600FF0E006EB3D00D0E08015225E96E000E7B
:104146005321EA6EEE50441906E0C10E0401C26F17
:10415600FF0E006EA3D052C8E9FF53C8EAFFEECFA8
:1041660000F01F0E0014016E01500801431906E00D
:10417600C20E0401C26FFF0E006E90D052C8B5F891
:1041860053C8B6F8450E0801B76F080EB86FF8ECBD
:1041960006F0426B450EE96E080EEA6E4251E926BC
:1041A600D8B0EA2AEECF61F8E5EC0EF000C060F870
:1041B6004305006E016A000E015A0D0E046E000ED4
:1041C600056ED0EC06F042510026000E012200508A
:1041D6004025E96E01504121EA6EEECF61F8E5EC2B
:1041E6000EF0605100180AE058C801F459C802F4EC
:1041F6005AC803F45BC804F4006A50D0422B0D0E73
:10420600425D0CE2450EE96E080EEA6E4251E92661
:10421600D8B0EA2AEE50000A01E0BCD70D0E425D86
:104226002AE2450EE96E080EEA6E4251E926D8B03A
:10423600EA2A4305006E016A000E015A0D0E046E4D
:10424600000E056ED0EC06F042510026000E01224B
:1042560000504025D96E01504121DA6EEE50DE182D
:104266000AE058C801F459C802F45AC803F45BC8F6
:1042760004F4006A13D0432B52C8E9FF53C8EAFF7F
:10428600EECF01F001ACCED658C801F459C802F4FD
:0E4296005AC803F45BC804F4010E006E120057
:1042A40040C861F841C862F8A3EC12F000C045F8B8
:1042B40001C046F842C861F843C862F8A3EC12F0A2
:1042C4004651011802E10050451902E0006A2FD05E
:1042D400446B42C861F843C862F8A3EC12F0800E44
:1042E400026E800E0118025C02E10050445D1DE282
:1042F40044514025E96E000E4121EA6EEECF61F88B
:10430400E5EC0EF000C045F844514225E96E000E7C
:104314004321EA6EEECF61F8E5EC0EF0455100184A
:1043240002E0006A04D0442BD4D7010E006E1200C0
:10433400086A080E0C6E003408360450085ED8B0C3
:0E43440002D00826D89000360C2EF5D71200B5
:104352000450000A12E10550000A0FE10650000A5B
:104362000CE10750000A09E1FF0E006EFF0E016E1C
:10437200FF0E026E7F0E036E99D00C6A07BE0C2AE6
:104382000D6A0B6A0A6A096A086A03500210011070
:104392000010D8B485D0035007180E6E0EBE0D1E45
:1043A20007AE0BD0041E051E061E071E042AD8B433
:1043B200052AD8B4062AD8B4072A03AE0BD0001EA9
:1043C200011E021E031E002AD8B4012AD8B4022AF2
:1043D200D8B4032A035007100E6E0EBE1DD066EC31
:1043E20011F00CBE36D00DAE5BD0001E011E021EB7
:1043F200031E002AD8B4012AD8B4022AD8B4032A48
:10440200081E091E0A1E0B1E082AD8B4092AD8B48F
:104412000A2AD8B40B2A44D007AE15D003BE0DD059
:1044220003500B6E02500A6E0150096E0050086E66
:10443200036A026A016A006AD6D7036A026A016ADB
:10444200006A002A000C031E021E011E001E0C8EB2
:10445200C6D7082AD8B4092AD8B40A2AD8B40B2A4B
:104462000450085CD8A4BFD70550095CD8A4BBD7B8
:1044720006500A5CD8A4B7D707500B5CD8A4B3D7B0
:104482000B6A0A6A096A086A002AD8B4012AD8B4EF
:10449200022AD8B4032A03AEA6D70E6A0E88FF0CEE
:0E44A2000E6A0CA002D05AEC11F0000F1200AE
:1044B0000450000A08E10550000A05E1FF0E006EF5
:1044C0007F0E016E58D00D6A096A086A015000100B
:1044D000D8B4000C015005180A6E0ABE0D1E0B6AF6
:1044E00005AE05D0041E051E042AD8B4052A01AE67
:1044F00005D0001E011E002AD8B4012A0150051063
:104500000A6E0ABE10D02EEC11F00BB020D00DAE0A
:10451000000C001E011E002AD8B4012A081E091E24
:10452000082AD8B4092A000C05AE0DD001BE07D068
:104530000150096E0050086E016A006AE8D7016AEE
:10454000006A002A000C011E001E0B2ADDD7082A73
:10455000D8B4092A0450085CD8A4D9D70550095CFE
:10456000D8A4D5D7096A086A002AD8B4012A01AEAE
:08457000CED70000FF0C120081
:04457800C5841200E4
:10457C0042C01FF843C020F844C021F845C022F8BF
:10458C006B826BA220D042504310441045101AE0AD
:10459C0008011F512011211122110DE1E6C5E1FF87
:1045AC00E7C5E2FF060EE66EE4C500F0E5C501F0D6
:1045BC002DEC00F008D0010E08011F5F000E205BEF
:0845CC00215B225BDED7120027
:0445D4006B841200E2
:1045D8000601125302E1006A63D0FA0E08011F6F48
:1045E800010E206FFA0E736F010E746F756B000E5B
:1045F800766F020E776F3AEC0CF01FC8E1FF20C807
:10460800E2FF520EE66E520EE66E610EE66E410E47
:10461800E66EE40E1F25E16E010E2021E26E720E99
:10462800E66E720EE66E410EE66E610EE66EE80EFE
:104638001F25E16E010E2021E26E2DC4E6FF2EC477
:10464800E6FF2FC4E6FF30C4E6FFEC0E1F25E16E3F
:10465800010E2021E26E31C4E6FF32C4E6FF33C406
:10466800E6FF34C4E6FFFE0E1F25E16E010E202191
:10467800E26E550EE66EAA0EE66E29C461F82AC4EB
:1046880062F82BC463F82CC464F8BCEC10F000503A
:10469800000A03E0FF0E006E03D00601126B006AE9
:0246A8001200FE
:1046AA0046C01FF847C020F848C021F849C022F880
:1046BA00C582C5A220D046504710481049101AE0BA
:1046CA0008011F512011211122110DE11EC6E1FF1F
:1046DA001FC6E2FF060EE66E1CC600F01DC601F0FC
:1046EA002DEC00F008D0010E08011F5F000E205BC0
:0846FA00215B225BDED71200F8
:104702001C0E08011F25E16E000E2021E26E21C859
:10471200E6FF1C0E1F25006E000E2021016E010E09
:104722000024E16E000E0120E26E22C8E6FF1C0E9C
:104732001F25006E000E2021016E020E0024E16E84
:10474200000E0120E26E23C8E6FF1C0E1F25006E3C
:10475200000E2021016E030E0024E16E000E0120E6
:0A476200E26E24C8E6FF006A1200B0
:10476C001FC8E9FF20C8EAFFEE50000A06E1C40E9C
:10477C000401C26FFF0E006EB3D00401B8C423F85D
:10478C00B9C424F8BAC425F8BBC426F8016B026B73
:10479C00036B046B08012C6B21C840F822C841F84C
:1047AC0054EC19F00050010AD8A491D0FF0E080166
:1047BC002125E96E000E2221EA6E3F0EEE14016EE9
:1047CC0001500F0A03E1010E2C6FE6D7010E040114
:1047DC00015F000E025B035B045B08012C533AE0A3
:1047EC001FC840F820C841F8B3EC1FF000C02BF8EC
:1047FC000050FF0A03E1FF0E006E72D008012B512E
:10480C00010A27E1B8C4B5F8B9C4B6F8BAC4B7F808
:10481C00BBC4B8F801C4B9F802C4BAF803C4BBF8F5
:10482C0004C4BCF8270EBD6F080EBE6FD9EC07F0A0
:10483C000050000A03E0FF0E006E52D023C8B8F4FB
:10484C0024C8B9F425C8BAF426C8BBF4010E006E0E
:10485C0047D033D021C840F822C841F81FC842F8CD
:10486C0020C843F819DD0050010A27E1B8C4B5F897
:10487C00B9C4B6F8BAC4B7F8BBC4B8F801C4B9F82F
:10488C0002C4BAF803C4BBF804C4BCF8270EBD6F4D
:10489C00080EBE6FD9EC07F00050000A03E0FF0EC3
:1048AC00006E1ED023C8B8F424C8B9F425C8BAF4D5
:1048BC0026C8BBF4010E006E13D0010E04010127B3
:1048CC00000E02230323042308012C6B65D723C895
:1048DC00B8F424C8B9F425C8BAF426C8BBF4006AE5
:0248EC001200B8
:0A48EE001D0E0D6E0D2EFED71200F8
:1048F800086A096A100E0C6E01340836093604502D
:10490800085E0550D8A0053C095ED8B007D0045011
:1049180008260550D8B0053C0926D890003601363F
:064928000C2EEAD712007C
:10492E00090E0801736F060E746F756B070E766FA6
:10493E00000E776F3AEC0CF0AA0E736F040E746FC4
:10494E00756B070E766F000E776F3AEC0CF0B10EAA
:10495E00736F040E746F756B070E766F000E776FA4
:10496E003AEC0CF0050E736F040E746F756B300E0F
:10497E00766F000E776F3AEC0CF0F60E736F010E39
:10498E00746F756B040E766F020E776F3AEC0CF047
:10499E00390E736F040E746F756B040E006E000E7D
:1049AE00016E1A0E0002F3CF76F8F4CF77F83AECD8
:1049BE000CF0220E736F060E746F756B0C0E766F05
:1049CE00000E776F3AEC0CF0FF0E0101F66FFF0E42
:1049DE00F76FFF0EF86FFF0EF96FFA0E0301FE6F01
:1049EE00030EFF6F0401006B0601126B0401356BA1
:1049FE00366B376B386BB86BB96BBA6BBB6B016BC5
:104A0E00026B036B046B0601206B430E226F0401D5
:044A1E00C26B120055
:104A2200D9EC16F0FA0E08011F6F010E206FFA0E74
:104A3200216F010E226F0401C251FF0A03E1FF0E32
:104A4200006EA3D0C251FC0A03E1FF0E006E9DD09E
:104A5200C251000AD8A494D0300E08011F25736FEA
:104A6200000E2021746FECEC0CF0005004010725BD
:104A72000801E46F0150040108210801E56F000EEE
:104A8200040109210801E66F000E04010A21080150
:104A9200E76F7AEC03F00050000A03E0FF0E006EAD
:104AA20074D0FA0E0801216F010E226FFE0E21252D
:104AB200736F010E2221746FECEC0CF00150AA0A04
:104AC20002E1550E001806E0FC0E0401C26FFF0E53
:104AD200006E5BD021C873F822C874F858EC0CF051
:104AE2000350410A08E10250610A05E10150520AED
:104AF20002E10050520A06E0FA0E0401C26FFF0EF4
:104B0200006E43D0E40E08012125736F010E2221AD
:104B1200746F58EC0CF00350610A08E10250410A2C
:104B220005E10150720A02E10050720A06E0FA0E33
:104B32000401C26FFF0E006E28D0E80E0801212585
:104B4200736F010E2221746F58EC0CF000C02DF42B
:104B520001C02EF402C02FF403C030F4EC0E212564
:104B6200736F010E2221746F58EC0CF000C031F407
:104B720001C032F402C033F403C034F4006A05D039
:0C4B8200FA0E0401C26FFF0E006E12005C
:104B8E00C3EC1CF0000E001803E0FF0E006E01D007
:044B9E00006A120097
:104BA2000801236B0C0E1F25E16E000E2021E26E20
:104BB200E66A23512125E96E000E2221EA6EEE50AB
:104BC2002E0A2AE023512125E96E000E2221EA6EE7
:104BD200EE50000A21E023512125E96E000E222128
:104BE200EA6EEECFE0F8E4EC03F0005213E00C0EB4
:104BF2001F25016E000E2021026E01C0E9FF02C0D6
:104C0200EAFF080EEE10006E01C0E1FF02C0E2FFF3
:104C120000C0E6FF232BCDD7232B23512125E96E9C
:104C2200000E2221EA6EEE50000A21E023512125D6
:104C3200E96E000E2221EA6EEECFE0F8E4EC03F01A
:104C4200005213E00C0E1F25016E000E2021026E91
:104C520001C0E9FF02C0EAFF100EEE10006E01C0B3
:104C6200E1FF02C0E2FF00C0E6FF232BD6D7006AB5
:024C720012002E
:104C74001FC8C9F820C8CAF821C8CBF822C8CCF884
:104C84000B0E0801CD6F000ECE6FFDEC04F0006A30
:024C940012000C
:104C9600800E08011F19006E800E000A005C0CE3EE
:104CA600800E1FBF7F0E006E000E800A005C02E1C0
:104CB600040E1F5D01E206D0D80E0401C26FFF0E7E
:104CC600006E67D11A0E006E000E016E1FC804F04A
:104CD600000E08011FBFFF0E056ED0EC06F0390E60
:104CE6000026040E012200C028F801C029F8180E7B
:104CF6000024E96E000E0120EA6EEE50000A06E17D
:104D0600DC0E0401C26FFF0E006E43D1140E0801C3
:104D16002825D96E000E2921DA6EDECF01F0DECF0E
:104D260002F0DECF03F0DECF04F02351045C08E18D
:104D36002251035C05E12151025C02E12051015C34
:104D460006E2DB0E0401C26FFF0E006E22D1100ECA
:104D560008012825E96E000E2921EA6EEECF01F042
:104D6600EECF02F0EECF03F0EECF04F0045023199D
:104D760008E10350221905E10250211902E1015010
:104D8600201902E1006A05D1100E2825E96E000EF1
:104D96002921EA6EEECF01F0EECF02F0EECF03F05E
:104DA600EECF04F0A1C400F001C005F002C006F089
:104DB60003C007F004C008F0005007E008320732CD
:104DC60006320532089EFF0FF8D7A1C400F020C8AE
:104DD60001F021C802F022C803F023C804F00050F5
:104DE60007E00432033202320132049EFF0FF8D785
:104DF6000850041808E10750031805E10650021888
:104E060002E10550011811E10801100E2825E16E96
:104E1600000E2921E26E20C8E6FF21C8E6FF22C85F
:104E2600E6FF23C8E6FF006AB4D00801100E282565
:104E3600E16E000E2921E26E20C8E6FF21C8E6FFDA
:104E460022C8E6FF23C8E6FF100E2825E96E000EED
:104E56002921EA6EEECF01F0EECF02F0EECF03F09D
:104E6600EECF04F0A1C400F001C024F802C025F87A
:104E760003C026F804C027F8005007E0273326337E
:104E860025332433279FFF0FF8D7040E2825E16E1C
:104E9600000E2921E26E28C8E9FF29C8EAFFEECFF5
:104EA60000F0EECF01F0EECF02F0EECF03F000C03F
:104EB600E6FF01C0E6FF02C0E6FF03C0E6FF27519A
:104EC600000808E12651000805E12551000802E125
:104ED600245100085DE2040E28252A6F000E2921C0
:104EE6002B6F2AC8E9FF2BC8EAFFEECFE0F8EECF1A
:104EF600E1F8EECFE2F8EECFE3F863EC04F02AC86F
:104F0600E1FF2BC8E2FF00C0E6FF01C0E6FF02C0DA
:104F1600E6FF03C0E6FF040E08012825D96E000E41
:104F26002921DA6EDECF01F0DECF02F0DECF03F00C
:104F3600DECF04F00F0E041808E1FF0E031805E19A
:104F4600FF0E021802E1FF0E01181AE1100E2825C5
:104F5600E16E000E2921E26E140E2825E96E000E80
:104F66002921EA6EEECFE6FFEECFE6FFEECFE6FFB3
:104F7600EECFE6FFDB0E0401C26FFF0E006E09D016
:104F8600010E0801245F000E255B265B275B97D781
:044F9600006A12009B
:104F9A000B0E08011F25E16E000E2021E26E21C8CA
:064FAA00E6FF006A1200A0
:104FB0000D0E08011F25E16E000E2021E26E21C8B2
:064FC000E6FF006A12008A
:104FC6000B0E08011F25E16E000E2021E26E21C89E
:064FD600E6FF006A120074
:104FDC001FC8E1FF20C8E2FF21C8E6FF006A1200EB
:104FEC0025C8E0F826C8E1F827C8E2F828C8E3F895
:104FFC0019EC04F000C608F029C804F02AC805F022
:10500C002BC806F02CC807F0085007E00732063210
:10501C0005320432079EFF0FF8D704500024086EA7
:10502C0005500120096E065002200A6E075003201D
:10503C000B6E08C02FF809C030F80AC031F80BC04D
:10504C0032F8A6C400F0A7C401F0A8C402F0A9C4A9
:10505C0003F0010E005E000E015A025A035A005072
:10506C0008012915046E01502A15056E02502B15E6
:10507C00066E03502C15076E050E026E04C000F070
:10508C0005C001F0025005E0003600900136FF0F1C
:10509C00FAD70801FA0E00242D6F010E01202E6F95
:1050AC0008C0E4F809C0E5F80AC0E6F80BC0E7F858
:1050BC007AEC03F00050000A03E0FF0E006E3DD0C6
:1050CC002DC8C9F82EC8CAF81FC8CBF820C8CCF810
:1050DC00200E0801CD6F000ECE6FFDEC04F0060122
:1050EC0020531AE12DC840F82EC841F821C842F8C7
:1050FC0022C843F823C844F824C845F894EC1CF0A3
:10510C002DC840F82EC841F85DEC15F02DC840F8BC
:10511C002EC841F81BEC16F02FC861F830C862F8A5
:10512C0031C863F832C864F8BCEC10F00050000AC7
:0C513C0003E0FF0E006E01D0006A1200BC
:10514800240E0801736F080E746FFF0E756F0D0E35
:10515800766F000E776F3AEC0CF0236B0D0E235D23
:105168001CE2240EE16E080EE26E2351E126D8B04F
:10517800E22A23512125E96E000E2221EA6EEECFA4
:10518800E6FF23512125E96E000E2221EA6EEE503A
:10519800000A01E102D0232BE1D7010E1F25E16EA1
:1051A800000E2021E26E24C8E6FF030E1F25E16EE3
:1051B800000E2021E26E25C8E6FF050E1F25E16ED0
:1051C800000E2021E26E26C8E6FF070E1F25E16EBD
:1051D800000E2021E26E27C8E6FF090E1F25E16EAA
:1051E800000E2021E26E28C8E6FF0E0E1F25E16E94
:1051F800000E2021E26E29C8E6FF100E1F25E16E81
:10520800000E2021E26E2AC8E6FF120E1F25E16E6D
:10521800000E2021E26E2BC8E6FF140E1F25E16E5A
:10522800000E2021E26E2CC8E6FF160E1F25E16E47
:10523800000E2021E26E2DC8E6FF180E1F25E16E34
:10524800000E2021E26E2EC8E6FF1C0E1F25E16E1F
:10525800000E2021E26E2FC8E6FF1E0E1F25E16E0C
:10526800000E2021E26E30C8E6FF2351010F026EC6
:10527800036A000E0322B7D0010E1F25006E000E30
:105288002021016E010E0024E16E000E0120E26E65
:10529800FF0EE66E030E1F25006E000E2021016E24
:1052A800010E0024E16E000E0120E26EFF0EE66E94
:1052B800050E1F25006E000E2021016E010E002430
:1052C800E16E000E0120E26EFF0EE66E070E1F254E
:1052D800006E000E2021016E010E0024E16E000E0A
:1052E8000120E26EFF0EE66E090E1F25006E000E0D
:1052F8002021016E010E0024E16E000E0120E26EF5
:10530800FF0EE66E0E0E1F25006E000E2021016EA8
:10531800010E0024E16E000E0120E26EFF0EE66E23
:10532800100E1F25006E000E2021016E010E0024B4
:10533800E16E000E0120E26EFF0EE66E120E1F25D2
:10534800006E000E2021016E010E0024E16E000E99
:105358000120E26EFF0EE66E140E1F25006E000E91
:105368002021016E010E0024E16E000E0120E26E84
:10537800FF0EE66E160E1F25006E000E2021016E30
:10538800010E0024E16E000E0120E26EFF0EE66EB3
:10539800180E1F25006E000E2021016E010E00243C
:1053A800E16E000E0120E26EFF0EE66E1C0E1F2558
:1053B800006E000E2021016E010E0024E16E000E29
:1053C8000120E26EFF0EE66E1E0E1F25006E000E17
:1053D8002021016E010E0024E16E000E0120E26E14
:1053E800FF0EE66E58D0000E031802E1000E0218F8
:1053F800D8B442D7000E031802E1010E0218D8B43F
:1054080049D7000E031802E1020E0218D8B450D78B
:10541800000E031802E1030E0218D8B457D7000E85
:10542800031802E1040E0218D8B45ED7000E031860
:1054380002E1050E0218D8B465D7000E031802E180
:10544800060E0218D8B46CD7000E031802E1070E36
:105458000218D8B473D7000E031802E1080E021818
:10546800D8B47AD7000E031802E1090E021882E0B8
:10547800000E031802E10A0E02188AE0000E031853
:1054880002E10B0E021892E0000E031802E10C0E66
:0A54980002189AE0A7D7006A12007C
:1054A2000501D15108011F25016E0501D2510801E4
:1054B2002021026E0250010802E101500E0806E2AC
:1054C200BE0E0401C26FFF0E006E01D0006A120010
:1054D2001FC8E9FF20C8EAFFEE50000A07E1C40E28
:1054E2000401C26FFF0E006EFEEF30F021C873F8A8
:1054F20022C874F8200E0801756F0B0E766F000E2D
:10550200776F3AEC0CF01FC8E9FF20C8EAFFEE50B3
:105512002E0A12E1010E1F25E96E000E2021EA6E0D
:10552200EE50000A09E121C8E1FF22C8E2FF2E0E77
:10553200E66E006AFEEF30F01FC8E9FF20C8EAFFFE
:10554200EE502E0A23E1010E1F25E96E000E2021E6
:10555200EA6EEE502E0A1AE1020E1F25E96E000EC7
:105562002021EA6EEE50000A11E121C8E1FF22C8B3
:10557200E2FF2E0EE66E010E2125E16E000E2221C3
:10558200E26E2E0EE66E006AFEEF30F01FC8E9FFF3
:1055920020C8EAFFEE502E0A07E1E20E0401C26FB4
:1055A200FF0E006EFEEF30F01FC861F820C862F8EF
:1055B200A3EC12F000C031F801C032F81FC840F865
:1055C20020C841F87AEC1DF000C02EF80050FF0A06
:1055D20004E1FF0E006EFEEF30F0010E0801315DB6
:1055E200006E000E3259016E00501F25E96E015007
:1055F2002021EA6EEE502E0A10E0010E315D006E9F
:10560200000E3259016E00501F25E96E0150202113
:10561200EA6EEE50200A01E015D0800E006E800E78
:105622003219005C02E1315100080CE231511F25B0
:10563200E16E32512021E26EE66A010E315F000E08
:10564200325BCBD7000E321902E1000E311904E1B0
:10565200FF0E006EFEEF30F0000E2EBFFF0E006E4A
:10566200000E001802E1000E2E190BE0000E2EBFF4
:10567200FF0E006E000E001802E1020E2E1901E06C
:105682008BD0296B286B080E285D2DE229511F252E
:10569200E96E000E2021EA6EEE502E0A0AE0295130
:1056A2001F25E96E000E2021EA6EEE50000A01E08D
:1056B20001D019D028512125336F000E2221346FD9
:1056C20029511F25E96E000E2021EA6EEECF61F806
:1056D200E5EC0EF033C8E1FF34C8E2FF00C0E6FF9C
:1056E200292B282BD0D729511F25E96E000E202106
:1056F200EA6EEE50000A0AE121C840F822C841F8D9
:10570200426B436B7FEC1EF0FEEF30F00801295133
:105712001F25E96E000E2021EA6EEE502E0A02E1EC
:10572200292B07D0E20E0401C26FFF0E006EFEEFBE
:1057320030F0080E0801286F0B0E285D23E2295174
:105742001F25E96E000E2021EA6EEE50000A01E1EB
:1057520019D028512125336F000E2221346F29518F
:105762001F25E96E000E2021EA6EEECF61F8E5EC0E
:105772000EF033C8E1FF34C8E2FF00C0E6FF292B78
:10578200282BDAD721C840F822C841F8426B436B74
:105792007FEC1EF0FEEF30F0000E08012EBFFF0E70
:1057A200006E000E001802E1010E2E19D8A4FBEFC4
:1057B20030F031C82BF8010E315D2C6F000E3259DA
:1057C2002D6F2C511F25E96E2D512021EA6EEE50CE
:1057D2002E0A0EE0800E006E800E2D19005C02E192
:1057E2002C51000805E2010E2C5F000E2D5BE9D75B
:1057F200800E006E800E2D19005C02E12C51000813
:105802004DE22CC82BF82C4B2D2B080E286F0B0EBB
:10581200285D44E22C511F25E96E2D512021EA6EAC
:10582200EE50000A3BE02C511F25E96E2D5120213C
:10583200EA6EEECF73F81DEC0CF0005219E108018C
:1058420028512125336F000E2221346F2C511F2540
:10585200E96E2D512021EA6EEECF61F8E5EC0EF0F3
:1058620033C8E1FF34C8E2FF00C0E6FF282B13D0A3
:1058720008012C511F25E96E2D512021EA6EEE50B0
:10588200200A09E028512125E16E000E2221E26E54
:105892005F0EE66E282B2C4B2D2BB9D72BC82CF87C
:1058A200000E2D6F296B286B080E285D56E22951D8
:1058B2001F25E96E000E2021EA6EEE50000A01E17A
:1058C2004CD0000E2D1902E12C51291901E145D0CD
:1058D20029511F25E96E000E2021EA6EEE502E0A94
:1058E2000AE029511F25E96E000E2021EA6EEE50D2
:1058F200200A01E001D02FD029511F25E96E000EA8
:105902002021EA6EEECF73F81DEC0CF0005219E183
:10591200080128512125336F000E2221346F2951AD
:105922001F25E96E000E2021EA6EEECF61F8E5EC4C
:105932000EF033C8E1FF34C8E2FF00C0E6FF282BB7
:105942000AD0080128512125E16E000E2221E26EC3
:105952005F0EE66E282B292BA7D7010E2F6F060E9E
:10596200285D03E228C823F802D0060E236F23C85D
:105972002BF823512125E16E000E2221E26E7E0ECC
:10598200E66E010E2A6F2A5109083BE32F51000AE5
:1059920038E02B51010F006E016A000E0122005007
:1059A2002125E16E01502221E26E300E2A25006E81
:1059B20000C0E6FF21C840F822C841F8426B436BA1
:1059C2007FEC1EF000C02FF80050FF0A04E1FF0E2A
:1059D200006EFEEF30F008012F51010A0FE11FC8DF
:1059E20040F820C841F8B3EC1FF000C030F8005076
:1059F200000A04E030C800F0FEEF30F008012A2B64
