:1000000069EF41F00000000000EF00F00000000088
:0A0010000000000000000000F3D71C
:0E001C00ACB202D00000FCD70DC9ADFF12003F
:0C002A0072B201D0FDD70DC973FF1200A7
:100036000DC9C9FFC7B002D00000FCD7C9CF00F078
:020046001200A6
:100048000DC96FFF6DB002D00000FCD76FCF00F074
:02005800120094
:10005A00F250026EF29E0500FF6A0150FE6E0050D9
:08006A00FD6E02BEF28E1200D1
:100072009E96FFC8C9FF5CC009F95DC00AF95EC05F
:100082000BF95FC00CF9C7A421D05C505D105E1063
:100092005F101BE0090109510A110B110C110EE14D
:1000A2008CC6E1FF8DC6E2FF040EE66E8AC600F042
:1000B2008BC601F0D1DF010E006E3AD0010E0901AC
:1000C200095F000E0A5B0B5B0C5BDDD75CC009F9B4
:1000D2005DC00AF95EC00BF95FC00CF99EB621D073
:1000E2005C505D105E105F101BE0090109510A119E
:1000F2000B110C110EE18CC6E1FF8DC6E2FF040E5E
:10010200E66E8AC600F08BC601F0A6DF010E006E15
:100112000FD0010E0901095F000E0A5B0B5B0C5B3D
:10012200DDD7C5BC02D0006A03D0C584020E006EC2
:020132001200B9
:10013400FFC86FFF6DB002D00000FCD76FCF00F096
:020144001200A7
:100146005CC009F95DC00AF95EC00BF95FC00CF925
:100156009E96C5869EB61FD05C505D105E105F10E1
:1001660019E0090109510A110B110C110CE18CC699
:10017600E1FF8DC6E2FF030EE66E8AC600F08BC66F
:1001860001F068DF08D0010E0901095F000E0A5B65
:100196000B5B0C5BDFD7C9CF00F90801FF51000AE2
:1001A60002E1C58A01D0C59A9E96C5885CC009F948
:1001B6005DC00AF95EC00BF95FC00CF99EB61FD090
:1001C6005C505D105E105F1019E0090109510A11BB
:1001D6000B110C110CE18CC6E1FF8DC6E2FF030E7C
:1001E600E66E8AC600F08BC601F034DF08D0010E39
:1001F6000901095F000E0A5B0B5B0C5BDFD700C9C8
:0402060000F01200F2
:10020A00FFC8C9FFC7B002D00000FCD7C9CF00F0B1
:02021A001200D0
:10021C00A49EFFC86FFF61C009F962C00AF963C0F0
:10022C000BF964C00CF96DA422D00001615162116C
:10023C00631164111BE0090109510A110B110C1116
:10024C000EE188C6E1FF89C6E2FF040EE66E86C6A3
:10025C0000F087C601F0FBDE010E006E3BD0010EF4
:10026C000901095F000E0A5B0B5B0C5BDCD761C0FC
:10027C0009F962C00AF963C00BF964C00CF9A4BE99
:10028C0022D0000161516211631164111BE009015C
:10029C0009510A110B110C110EE188C6E1FF89C638
:1002AC00E2FF040EE66E86C600F087C601F0CFDED4
:1002BC00010E006E0FD0010E0901095F000E0A5BE2
:1002CC000B5B0C5BDCD76BBC02D0006A03D06B847D
:0602DC00020E006E12008C
:1002E20061C009F962C00AF963C00BF964C00CF974
:1002F200A49E6B86A4BE20D00001615162116311DD
:10030200641119E0090109510A110B110C110CE1D8
:1003120088C6E1FF89C6E2FF030EE66E86C600F0DC
:1003220087C601F099DE08D0010E0901095F000EAF
:100332000A5B0B5B0C5BDED76FCF00F90801FF5144
:10034200000A02E16B8A01D06B9AA49E6B8861C09D
:1003520009F962C00AF963C00BF964C00CF9A4BEC2
:1003620020D00001615162116311641119E0090189
:1003720009510A110B110C110CE188C6E1FF89C663
:10038200E2FF030EE66E86C600F087C601F064DE69
:1003920008D0010E0901095F000E0A5B0B5B0C5BC2
:0803A200DED700C900F01200D3
:1003AA0083886BC6E1FF6CC6E2FFFF0EE66E69C684
:0A03BA0000F06AC601F04CDE1200EC
:1003C4006BC6E1FF6CC6E2FF4C0EE66E69C600F038
:1003D4006AC601F040DE6BC6E1FF6CC6E2FFE66A66
:1003E40069C600F06AC601F036DE6BC6E1FF6CC672
:1003F400E2FFE66A69C600F06AC601F02CDE6BC64D
:10040400E1FF6CC6E2FFE66A69C600F06AC601F065
:1004140022DE6BC6E1FF6CC6E2FFE66A69C600F045
:100424006AC601F018DE6BC6E1FF6CC6E2FFFF0E80
:10043400E66E69C600F06AC601F00DDE0901016BC3
:10044400026B6BC6E1FF6CC6E2FFFF0EE66E69C687
:1004540000F06AC601F0FFDD00C0FEF80901014B9F
:10046400022B800E0014016E0150000A07E0000EFA
:10047400025D02E1640E015D01E2E3D70801FEAF13
:1004840004D091DFFEC800F012D06BC6E1FF6CC649
:10049400E2FFFF0EE66E69C600F06AC601F0DBDD1E
:1004A40000C0FEF80050000AF0E07DDF006A120090
:1004B400400E09010125006E6BC6E1FF6CC6E2FF28
:1004C40000C0E6FF69C600F06AC601F0C4DD6BC671
:1004D400E1FF6CC6E2FF05C9E6FF69C600F06AC623
:1004E40001F0B9DD6BC6E1FF6CC6E2FF04C9E6FFAB
:1004F40069C600F06AC601F0AEDD6BC6E1FF6CC6EA
:10050400E2FF03C9E6FF69C600F06AC601F0A3DD95
:100514006BC6E1FF6CC6E2FF02C9E6FF69C600F0E4
:100524006AC601F098DD6BC6E1FF6CC6E2FF06C93E
:10053400E6FF69C600F06AC601F08DDD0901076BAC
:10054400086B6BC6E1FF6CC6E2FFFF0EE66E69C680
:1005540000F06AC601F07FDD00C0FEF80901074B18
:10056400082B800E0014016E0150000A07E0000EF3
:10057400085D02E1640E075D01E2E3D7FEC800F006
:02058400120063
:040586008398120044
:10058A00FDDF000E000A02E1040E5B1809E1F0C863
:10059A00F8F8F1C8F9F8F2C8FAF8F3C8FBF814D079
:1005AA00090E006EF0C8F8F8F1C8F9F8F2C8FAF8BE
:1005BA00F3C8FBF8005008E00801F837F891F9375A
:1005CA00FA37FB37FF0FF7D7110E0901016FF8C889
:1005DA0002F9F9C803F9FAC804F9FBC805F9FF0ECC
:1005EA00066F63DF005204E0DBDE010E006E4BD0C3
:1005FA006BC6E1FF6CC6E2FFFF0EE66E69C600F04D
:10060A006AC601F025DD0050FE0A01E0F1D70801B3
:10061A00F66BF76B020EF75D02E1000EF65D1BE268
:10062A00F651F425FC6FF751F521FD6F6BC6E1FF1A
:10063A006CC6E2FFFF0EE66E69C600F06AC601F0FC
:10064A0007DDFCC8E1FFFDC8E2FF00C0E6FF0801C4
:10065A00F64BF72BDFD76BC6E1FF6CC6E2FFFF0E46
:10066A00E66E69C600F06AC601F0F2DC6BC6E1FF0D
:10067A006CC6E2FFFF0EE66E69C600F06AC601F0BC
:08068A00E7DC8EDE006A1200BD
:1006920098DE0050000A03E0FF0E006E01D0006AEF
:0206A200120044
:1006A400EAC8F0F8EBC8F1F8ECC8F2F8EDC8F3F8D2
:1006B400EEC8F4F8EFC8F5F866DF0050000A03E06E
:0A06C400FF0E006E01D0006A120064
:1006CE0000016051000A04E06051020A01E002D00C
:1006DE00006A0DD0D7DF000E001806E0FF0E0401F1
:1006EE00FE6FFF0E006E03D00001606B006A1200F9
:1006FE0000016051030A20E1E3DF0050000A06E02A
:10070E00FF0E0401FE6FFF0E006E5DD0020105515B
:10071E000801E9190EE1020104510801E81909E185
:10072E00020103510801E71904E102010251080117
:10073E00E61902E1006A47D000016051010A06E1A4
:10074E00FF0E0401FE6FFF0E006E3DD00801E95151
:10075E00020105190EE10801E8510201041909E12F
:10076E000801E7510201031904E10801E6510201F3
:10077E00021928E0E6C8EAF8E7C8EBF8E8C8ECF892
:10078E00E9C8EDF8060E0801EE6F020EEF6F83DF7B
:10079E00000E00180FE0FF0E0201026FFF0E036F36
:1007AE00FF0E046FFF0E056FFF0E0401FE6FFF0EAE
:1007BE00006E09D0E6C802F2E7C803F2E8C804F2F8
:0807CE00E9C805F2006A1200FF
:1007D6000801E2517A0806E3610EE25D03E3010EC9
:0807E600006E01D0006A120050
:1007EE00026A110E025C17E2890E0224F66E850E65
:1007FE00F76E000EF722000EF86E000EF8220900BA
:10080E00F5CF01F001500801E21903E1010E006E6F
:0A081E0003D0022AE6D7006A120098
:100828000801E2515A0806E3410EE25D03E3010EB6
:08083800006E01D0006A1200FD
:10084000E2C805F0E3C806F0E4C807F0E5C808F020
:1008500005012351055E2451065A2551075A265198
:10086000085A8EC604F005C000F006C001F007C0AB
:1008700002F008C003F0045007E000360090013693
:1008800002360336FF0FF8D7295100262A510122DC
:0A0890002B5102222C51032212000A
:10089A000801E251390806E3300EE25D03E3010E76
:0808AA00006E01D0006A12008B
:1008B2006BC6E1FF6CC6E2FFFF0EE66E69C600F092
:1008C2006AC601F02DEC00F00050FE0A01E0F0D7FC
:0208D200120012
:1008D400050126510801E55D0EE1050125510801D8
:1008E400E45D09E1050124510801E35D04E105012A
:1008F40023510801E25D15E3040185510801E55D1A
:100904000EE1040184510801E45D09E1040183510D
:100914000801E35D04E1040182510801E25D01E2A2
:100924000CD0F40E0401FE6FFF0E006EFF0E016E7C
:10093400FF0E026E0F0E036E64D0FFC400F0E2C817
:10094400E6F8E3C8E7F8E4C8E8F8E5C8E9F80050D1
:1009540008E00801E933E833E733E633E99FFF0FA2
:10096400F7D705011F510801E627050120510801A9
:10097400E723050121510801E8230501225108015B
:10098400E923BBDE0050000A09E0FF0E006EFF0EF3
:10099400016EFF0E026E0F0E036E33D079C600F0A7
:1009A4007AC601F07BC602F07CC603F0010E005E3D
:1009B400000E015A025A035A00500801E215046E4F
:1009C4000150E315056E0250E415066E0350E5155B
:1009D400076E04C000F005C001F000360090013637
:1009E400003600900136060E0024E96E020E012046
:1009F400EA6EEECF00F0EECF01F0EECF02F0EECFD4
:040A040003F01200E9
:100A0800CDC804F0CEC805F0CBC802F0CCC803F0BE
:100A1800CFC800F0D0C801F0010E0801CF5F000E6A
:100A2800D05B005001100FE004C0E9FF05C0EAFFE9
:100A380002C0E1FF03C0E2FFEECFE6FF024A032A4D
:100A4800044A052AE5D7CBC800F0CCC801F012004B
:100A58000801CB515A0804E3410ECB5DD8B0CB8BCB
:060A6800CBC800F01200F3
:100A6E00CBC8E2F813DF005211E1CBC8E2F8D5DEB5
:100A7E0000520CE1CBC8E2F8A7DE005207E1CBC86A
:100A8E00E2F8AEDE005202E1006A02D0010E006E04
:020A9E00120044
:100AA00008DF0801CD6BCE6B020ECE5D02E1000EB9
:100AB000CD5D1CE2CD51CB25CF6FCE51CC21D06F77
:100AC0006BC6E1FF6CC6E2FFFF0EE66E69C600F082
:100AD0006AC601F02DEC00F0CFC8E1FFD0C8E2FFFC
:100AE00000C0E6FF0801CD4BCE2BDED76BC6E1FF81
:100AF0006CC6E2FFFF0EE66E69C600F06AC601F042
:100B00002DEC00F06BC6E1FF6CC6E2FFFF0EE66E57
:0E0B100069C600F06AC601F02DEC00F012007C
:100B1E0033DD000E000A02E1040E5B1809E1CBC8BA
:100B2E00CFF8CCC8D0F8CDC8D1F8CEC8D2F814D0F2
:100B3E00090E006ECBC8CFF8CCC8D0F8CDC8D1F80E
:100B4E00CEC8D2F8005008E00801CF37CF91D03789
:100B5E00D137D237FF0FF7D7120E0901016FCFC869
:100B6E0002F9D0C803F9D1C804F9D2C805F9FF0EAD
:100B7E00066F99DC005204E011DC010E006E01D00C
:040B8E00006A1200E7
:100B920002C2DDF803C2DEF804C2DFF805C2E0F8E3
:100BA200CBC8D5F8CCC8D6F8CDC8D7F8CEC8D8F8B7
:100BB200050126510801CE5D0EE10501255108010E
:100BC200CD5D09E1050124510801CC5D04E1050177
:100BD20023510801CB5D15E3040185510801D85D5D
:100BE2000EE1040184510801D75D09E1040183513A
:100BF2000801D65D04E1040182510801D55D01E2DC
:100C020006D0F40E0401FE6FFF0E006ECED0080176
:100C1200E16B7DC600F0CFC801F0D0C802F0D1C8A8
:100C220003F0D2C804F0005007E00432033202326B
:100C32000132049EFF0FF8D70450000809E1035067
:100C4200000806E10250000803E108010150E15DDD
:100C520055E2D5C8E2F8D6C8E3F8D7C8E4F8D8C850
:100C6200E5F837DE00C0D5F801C0D6F802C0D7F8E3
:100C720003C0D8F803500F0A08E10250FF0A05E149
:100C82000150FF0A02E10050FF0A06E1F10E0401E1
:100C9200FE6FFF0E006E89D0050126510801D85D56
:100CA2000EE1050125510801D75D09E10501245135
:100CB2000801D65D04E1050123510801D55D15E364
:100CC200040185510801D85D0EE104018451080137
:100CD200D75D09E1040183510801D65D04E10401F5
:100CE20082510801D55D01E206D0F40E0401FE6FC7
:100CF200FF0E006E5AD00801E12B8BD7080106C403
:100D020000F007C401F008C402F009C403F0010EA8
:100D1200005E000E015A025A035A0050CF15D96FD5
:100D22000150D015DA6F0250D115DB6F0350D21586
:100D3200DC6FD5C8E2F8D6C8E3F8D7C8E4F8D8C85B
:100D4200E5F87DDD7EC608F0D9C804F0DAC805F002
:100D5200DBC806F0DCC807F0085007E007320632AD
:100D620005320432079EFF0FF8D7D3C8E1FFD4C87B
:100D7200E2FF04500024E66E05500120E66E0650A4
:100D82000220E66E07500320E66EDDC8E6F8DEC8F4
:100D9200E7F8DFC8E8F8E0C8E9F8B0DC0050000A7C
:0C0DA20003E0FF0E006E01D0006A12009A
:100DAE000B6A0A6A096A00500402F4CF09F0F3CF05
:100DBE0008F001500502F4CF0BF0F3CF0AF000500B
:100DCE000502F3500926F4500A22E86A0B2201505C
:100DDE000402F3500926F4500A22E86A0B2208C0D6
:100DEE0000F009C001F00AC002F00BC003F01200BF
:100DFE00010E0801B725E96E000EB821EA6EB9C8DA
:100E0E00E1FFBAC8E2FFEECFE6FF010EB925E16EB3
:100E1E00000EBA21E26E030EB725E96E000EB82160
:100E2E00EA6EEECFE6FF020EB925E16E000EBA2194
:100E3E00E26E050EB725E96E000EB821EA6EEECF12
:100E4E00E6FF030EB925E16E000EBA21E26E070E23
:100E5E00B725E96E000EB821EA6EEECFE6FF040E5E
:100E6E00B925E16E000EBA21E26E090EB725E96EC4
:100E7E00000EB821EA6EEECFE6FF050EB925E16E43
:100E8E00000EBA21E26E0E0EB725E96E000EB821E5
:100E9E00EA6EEECFE6FF060EB925E16E000EBA2120
:100EAE00E26E100EB725E96E000EB821EA6EEECF97
:100EBE00E6FF070EB925E16E000EBA21E26E120EA4
:100ECE00B725E96E000EB821EA6EEECFE6FF080EEA
:100EDE00B925E16E000EBA21E26E140EB725E96E49
:100EEE00000EB821EA6EEECFE6FF090EB925E16ECF
:100EFE00000EBA21E26E160EB725E96E000EB8216D
:100F0E00EA6EEECFE6FF0A0EB925E16E000EBA21AB
:100F1E00E26E180EB725E96E000EB821EA6EEECF1E
:100F2E00E6FF0B0EB925E16E000EBA21E26E1C0E25
:100F3E00B725E96E000EB821EA6EEECFE6FF0C0E75
:100F4E00B925E16E000EBA21E26E1E0EB725E96ECE
:0E0F5E00000EB821EA6EEECFE6FF006A120028
:100F6C00056A046A0B0E055C22E2010E0414016E84
:100F7C00070E006E01C003F0005004E0033603902E
:100F8C00FF0FFBD7FE0E0414026E02C000F00032FD
:100F9C00009E00500310046E05500801B725D96E51
:100FAC00000EB821DA6EDE500426052ADBD704C009
:040FBC0000F012002F
:100FC000B7C8CBF8B8C8CCF8B9C8CDF8BAC8CEF80D
:100FD000BBC8CFF8BCC8D0F8BDC8D1F8BEC8D2F8DD
:100FE000BFC8D3F8C0C8D4F8D4DD0050000A03E06D
:100FF000FF0E006E15D0BFC8E9FFC0C8EAFFEECFF4
:10100000E6F8EECFE7F8EECFE8F8EECFE9F87FECC0
:1010100003F00050000A03E0FF0E006E01D0006AEA
:021020001200BC
:0E102200B7C8CBF8B8C8CCF83ADD006A1200A7
:10103000B7C8CBF8B8C8CCF8B9C8CDF8BAC8CEF89C
:101040006EDD0050000A03E0FF0E006E01D0006A62
:0210500012008C
:10105200BE0E0801CB6F080ECC6FB7C8CDF8B8C86A
:10106200CEF80B0ECF6F000ED06FCDDCBB6B0B0E2C
:10107200BB5D3EE2BD6BBE0EE96E080EEA6EBB5171
:10108200E926D8B0EA2AEECFCBF8F0DC0050010A0C
:1010920003E1010E0801BD6F0801BE0EE96E080EE4
:1010A200EA6EBB51E926D8B0EA2AEE50200A02E1E4
:1010B200010EBD6FBE0EE96E080EEA6EBB51E92647
:1010C200D8B0EA2AEE502E0A02E1010EBD6FBD51E0
:1010D200000A0BE1B9C8E1FFBAC8E2FFE66AC40E32
:1010E2000401FE6FFF0E006EB2D00801BB2BBFD70A
:1010F200BC6BBB6B080EBB5D42E2BE0EE96E080E16
:10110200EA6EBB51E926D8B0EA2AEE50200A33E053
:101112000C0EB725E96E000EB821EA6EEECF01F093
:1011220001A618D0BC51B925C96F000EBA21CA6FE9
:10113200BE0EE96E080EEA6EBB51E926D8B0EA2A65
:10114200EECFCBF888DCC9C8E1FFCAC8E2FF00C015
:10115200E6FF10D0BC51B925E16E000EBA21E26E55
:10116200BE0EE96E080EEA6EBB51E926D8B0EA2A35
:10117200EECFE6FF01D003D0BC2BBB2BBBD7C651B1
:10118200200A09E1BC51B925E16E000EBA21E26ED6
:10119200E66A006A5CD0BC51B925E16E000EBA2144
:1011A200E26E2E0EE66EBC2B080EBB6F0B0EBB5D05
:1011B20045E2BE0EE96E080EEA6EBB51E926D8B0D2
:1011C200EA2AEECFCBF852DC0050000A01E136D019
:1011D2000C0E0801B725E96E000EB821EA6EEECFBB
:1011E20001F001A818D0BC51B925C96F000EBA216F
:1011F200CA6FBE0EE96E080EEA6EBB51E926D8B080
:10120200EA2AEECFCBF827DCC9C8E1FFCAC8E2FF61
:1012120000C0E6FF10D0BC51B925E16E000EBA2124
:10122200E26EBE0EE96E080EEA6EBB51E926D8B038
:10123200EA2AEECFE6FFBC2BBB2BB8D70801BC5184
:10124200B925E16E000EBA21E26EE66A006A12006A
:10125200C3EC02F0000E000A02E1040E5B1809E181
:10126200B7C8BFF8B8C8C0F8B9C8C1F8BAC8C2F898
:1012720014D0090E006EB7C8BFF8B8C8C0F8B9C814
:10128200C1F8BAC8C2F8005008E00801BF37BF91E0
:10129200C037C137C237FF0FF7D7180E0901016FE8
:1012A200BFC802F9C0C803F9C1C804F9C2C805F928
:1012B200FF0E066F5AEC02F0005205E0D5EC01F089
:1012C200010E006E95D06BC6E1FF6CC6E2FFFF0E09
:1012D200E66E69C600F06AC601F02DEC00F06BC63E
:1012E200E1FF6CC6E2FFFF0EE66E69C600F06AC659
:1012F20001F02DEC00F06BC6E1FF6CC6E2FFFE0EC2
:10130200E66E69C600F06AC601F02DEC00F0080135
:10131200BD6BBE6BBE51010802E1BD51FF0816E371
:10132200BD51BB25E96EBE51BC21EA6E6BC6E1FF21
:101332006CC6E2FFEECFE6FF69C600F06AC601F0B6
:101342002DEC00F00801BD4BBE2BE4D76BC6E1FFCC
:101352006CC6E2FFFF0EE66E69C600F06AC601F0D7
:101362002DEC00F06BC6E1FF6CC6E2FFFF0EE66EED
:1013720069C600F06AC601F02DEC00F06BC6E1FF11
:101382006CC6E2FFFF0EE66E69C600F06AC601F0A7
:101392002DEC00F000C0BDF8000E0801BE6F1F0E5C
:1013A200BD15016EBEC802F0000E021601C0BDF8E6
:1013B20002C0BEF8000E021802E1050E011805E097
:1013C200D5EC01F0020E006E13D06BC6E1FF6CC6C5
:1013D200E2FFFF0EE66E69C600F06AC601F02DEC70
:1013E20000F00050FF0A01E0F0D7D5EC01F0006AEE
:0213F2001200E7
:1013F40000016051030A0BE167EC03F00050000A9E
:1014040006E0FF0E0401FE6FFF0E006E50D00001D7
:101414006051010A06E1FF0E0401FE6FFF0E006E2B
:1014240046D002010551080178190EE10201045168
:101434000801771909E1020103510801761904E151
:10144400020102510801751905E1020E0001606FE5
:10145400006A2DD075C8B7F876C8B8F877C8B9F857
:1014640078C8BAF8E3DD0050000A06E0FF0E040174
:10147400FE6FFF0E006E1BD0060E0801B76F020E42
:10148400B86FCDDD0050000A06E0FF0E0401FE6FC8
:10149400FF0E006E0CD0010E0001606F75C802F2E1
:1014A40076C803F277C804F278C805F2006A12001D
:1014B400026A080E025C17E2A30E0224F66E850E81
:1014C400F76E000EF722000EF86E000EF8220900E7
:1014D400F5CF01F001500801751903E1010E006E0A
:0A14E40003D0022AE6D7006A1200C6
:1014EE0077C8B7F878C8B8F879C8B9F87AC8BAF82A
:1014FE007BC8BBF87CC8BCF87DC8BDF87EC8BEF8FA
:10150E00B30E0801BF6F080EC06F53DD0050000A06
:10151E0003E0FF0E006E9CD1F7C100F0F8C101F0A0
:10152E00F9C102F0FAC103F0010E005E000E015A7D
:10153E00025A035A005008017B15046E01507C15A7
:10154E00056E02507D15066E03507E15076E050E54
:10155E00026E04C000F005C001F0025005E0003636
:10156E0000900136FF0FFAD70801060E0024B16F66
:10157E00020E0120B26F010E7F6F080E7F5D0CE22E
:10158E007F51B125E96E000EB221EA6EEE507E0A51
:10159E0001E102D07F2BF1D77F51080A0AE1B1C8D1
:1015AE00B7F8B2C8B8F875C8B9F876C8BAF84ADD4F
:1015BE004FD1910E0801CB6F080ECC6FB1C8CDF88C
:1015CE00B2C8CEF8200ECF6F000ED06F04EC05F02F
:1015DE0077C8B7F878C8B8F879C8B9F87AC8BAF839
:1015EE00010E7B5F000E7C5B7D5B7E5B7BC8BBF878
:1015FE007CC8BCF87DC8BDF87EC8BEF8B30EBF6F00
:10160E00080EC06FD6DC0050000A03E0FF0E006E1D
:10161E001FD1F7C100F0F8C101F0F9C102F0FAC113
:10162E0003F0010E005E000E015A025A035A0050DA
:10163E0008017B15046E01507C15056E02507D1558
:10164E00066E03507E15076E050E026E04C000F086
:10165E0005C001F0025005E0003600900136FF0F84
:10166E00FAD7060E0026020E012200C08FF801C026
:10167E0090F80B0E0024E96E000E0120EA6E3F0E6C
:10168E00EE14016E01500F0A0BE00801910EB76FB8
:10169E00080EB86F75C8B9F876C8BAF8D3DCD8D0CA
:1016AE00910E0801B76F080EB86F59DC00C081F8B3
:1016BE00010E0801806F0B0E8F25E96E000E902132
:1016CE00EA6E3F0EEE14016E01500F0A06E0C00ED8
:1016DE000401FE6FFF0E006EBBD00D0E08018F25AC
:1016EE00E96E000E9021EA6EEE50811906E0C10EF1
:1016FE000401FE6FFF0E006EABD08FC8E9FF90C8DD
:10170E00EAFFEECF00F01F0E0014016E015008012B
:10171E00801906E0C20E0401FE6FFF0E006E98D017
:10172E008FC8B7F890C8B8F8820E0801B96F080EC6
:10173E00BA6FFFEC06F07F6B8005006E016A000E3B
:10174E00015A0D0E046E000E056ED7EC06F07F5199
:10175E000026000E012200507525E16E0150762103
:10176E00E26E820EE96E080EEA6E7F51E926D8B05F
:10177E00EA2AEECFE6FF7F2B0D0E7F5D0CE2820E86
:10178E00E96E080EEA6E7F51E926D8B0EA2AEE50CD
:10179E00000A01E0D1D78FC8E9FF90C8EAFFEECF6B
:1017AE0001F001AC02D0006A53D0802B77C8B7F895
:1017BE0078C8B8F879C8B9F87AC8BAF8010E7B5F5C
:1017CE00000E7C5B7D5B7E5B7BC8BBF87CC8BCF887
:1017DE007DC8BDF87EC8BEF8B30EBF6F080EC06FD1
:1017EE00E0EC07F00050000A03E0FF0E006E30D070
:1017FE00F7C100F0F8C101F0F9C102F0FAC103F02F
:10180E00010E005E000E015A025A035A00500801E2
:10181E007B15046E01507C15056E02507D15066E0B
:10182E0003507E15076E050E026E04C000F005C053
:10183E0001F0025005E0003600900136FF0FFAD796
:10184E000801060E00248F6F020E0120906F33D711
:02185E00120076
:1018600075C8B7F876C8B8F877C8B9F878C8BAF8BC
:1018700079C8BBF87AC8BCF8ECDC0050000A03E079
:0A188000FF0E006E01D0006A120096
:0E188A0075C8E9FF76C8EAFFEECF00F0120045
:1018980075C802F076C803F078C800F079C801F07E
:1018A800010E0801785F000E795B0050011009E015
:1018B80002C0E1FF03C0E2FF77C8E6FF024A032A3D
:0C18C800EBD775C800F076C801F01200E4
:1018D400030E08017525E96E000E7621EA6EEECF3F
:1018E40009F0000E0A6E0B6E0C6E000E0A6E0B6E83
:1018F4000C6E0BC003F00AC002F009C001F0006ACC
:1019040000C009F001C00AF002C00BF003C00CF0E3
:10191400020E7525D96E000E7621DA6EDE50002493
:10192400056E000E0120066E000E0220076E000EEA
:101934000320086E05C009F006C00AF007C00BF0CA
:1019440008C00CF007C003F006C002F005C001F0A7
:10195400006A00C009F001C00AF002C00BF003C025
:101964000CF0010E7525D96E000E7621DA6EDE506C
:101974000024056E000E0120066E000E0220076E84
:10198400000E0320086E05C009F006C00AF007C067
:101994000BF008C00CF007C003F006C002F005C04D
:1019A40001F0006A00C009F001C00AF002C00BF0A7
:1019B40003C00CF075C8D9FF76C8DAFFDE500026E4
:1019C400000E01220222032200C009F001C00AF025
:1019D40002C00BF003C00CF000C009F001C00AF013
:0A19E40002C00BF003C00CF012006B
:1019EE00010E08017525E96E000E7621EA6EEECF26
:1019FE0003F0000E046E000E046E03C001F0006AC8
:101A0E0000C003F001C004F075C8D9FF76C8DAFF34
:101A1E00DE500026000E012200C003F001C004F0CB
:0A1A2E0000C003F001C004F0120034
:101A38000801E66BE76BE86BE96B7FEC03F000509D
:101A4800000A03E0FF0E006E27D1060E0801646F3E
:101A5800020E656F060E666F020E676FFE0E642536
:101A6800756F010E6521766FBEDF0150AA0A02E18B
:101A7800550E001806E0FC0E0401FE6FFF0E006E06
:101A88000BD166C8E9FF67C8EAFFEECF01F0015045
:101A9800E90A15E066C8E9FF67C8EAFFEECF01F07A
:101AA8000150EB0A0BE1020E08016625E96E000EF3
:101AB8006721EA6EEE50900A01E101D006D0FB0ED4
:101AC8000401FE6FFF0E006EE7D00801636B010E84
:101AD800635DD8B0E0D00A0E006E000E016E63C8D8
:101AE80004F0000E056ED7EC06F0090E0026050E70
:101AF800012200C068F801C069F8BE0E6425756F40
:101B0800010E6521766F040E026E63C800F0000EA8
:101B1800016E025005E0003600900136FF0FFAD73B
:101B28000050752701507623ACDE68C8E1FF69C80C
:101B3800E2FF00C0E6FF0A0E006E000E016E63C8E9
:101B480004F0000E056ED7EC06F0090E0026050E0F
:101B58000122010E0024686F000E0120696FBE0E7D
:101B68006425756F010E6521766F040E026E63C8D9
:101B780000F0000E016E025005E0003600900136BC
:101B8800FF0FFAD70050752701507623040E7527EA
:101B9800000E762376DE68C8E1FF69C8E2FF00C060
:101BA800E6FF0A0E006E000E016E63C804F0000E18
:101BB800056ED7EC06F0090E0026050E0122020E6E
:101BC8000024686F000E0120696FBE0E6425756FD2
:101BD800010E6521766F040E026E63C800F0000ED8
:101BE800016E025005E0003600900136FF0FFAD76B
:101BF8000050752701507623080E7527000E7623AE
:101C080065DE68C8E1FF69C8E2FF00C0E6FF01C001
:101C1800E6FF02C0E6FF03C0E6FF0A0E006E000EF4
:101C2800016E63C804F0000E056ED7EC06F0090ECD
:101C38000026050E0122060E0024686F000E012002
:101C4800696FBE0E6425756F010E6521766F040EEF
:101C5800026E63C800F0000E016E025005E0003607
:101C680000900136FF0FFAD70050752701507623F0
:101C78000C0E7527000E762329DE68C8E1FF69C8B7
:101C8800E2FF00C0E6FF01C0E6FF02C0E6FF03C0B6
:0A1C9800E6FF632B1CD7006A120060
:101CA200010E066E000E076E086E096E056A800E42
:101CB200006E800E000A005C02E1200E055C23E249
:101CC200065008016311016E07506411026E08503C
:101CD2006511036E09506611046E0450091808E17B
:101CE2000350081805E10250071802E101500618D6
:101CF20003E105C000F009D0063606900736083623
:0C1D02000936052AD4D7FF0E006E12002F
:101D0E0000016051030A0BE167EC03F00050000A7A
:101D1E0006E0FF0E0401FE6FFF0E006E33D00001D1
:101D2E006051010A06E1FE0E0401FE6FFF0E006E09
:101D3E0029D063C875F864C876F865C877F866C8A0
:101D4E0078F8060E0801796F020E7A6F82DD000EAA
:101D5E0000180FE0FF0E0201026FFF0E036FFF0E61
:101D6E00046FFF0E056FFE0E0401FE6FFF0E006E78
:101D7E0009D063C802F264C803F265C804F266C8EB
:061D8E0005F2006A1200DC
:101D94000E0E08016325756F000E6421766F25DE33
:101DA4000B0E046E00C002F001C003F0045005E005
:101DB40003320232039EFF0FFAD71F0E0214006E85
:101DC40000C0FFF10E0E6325756F000E6421766F5F
:101DD4000CDE050E046E00C002F001C003F00450D6
:101DE40005E003320232039EFF0FFAD73F0E0214BE
:101DF400006E00C000F20E0E6325756F000E6421A4
:101E0400766FF3DD00C002F0023602903F0E02143A
:101E1400006E00C001F2100E6325756F000E642180
:101E2400766FE3DD090E046E00C002F001C003F01A
:101E3400045005E003320232039EFF0FFAD77F0EEF
:101E44000214006E03C001F0000E011600C0FBF185
:101E540001C0FCF1BC0E0026070E012200C0FBF1FC
:101E640001C0FCF1100E6325756F000E6421766FBE
:101E7400BCDD050E046E00C002F001C003F0045086
:101E840005E003320232039EFF0FFAD70F0E02144D
:101E9400006E00C0FDF1100E6325756F000E642105
:101EA400766FA3DD1F0E0014006E00C0FEF1006A01
:021EB40012001A
:101EB600FF0E080165256F6F000E6621706F0B0E11
:101EC6006325756F000E6421766FDCDC6FC8E1FF59
:101ED60070C8E2FF00C0E6FF000E65256F6F010EB9
:101EE6006621706F1C0E6325756F000E6421766F78
:101EF600EEDC6FC8E1FF70C8E2FF00C0E6FF01C07C
:101F0600E6FF02C0E6FF03C0E6FF040E6525736F19
:101F1600010E6621746F140E6325756F000E642121
:101F2600766F62DD00C003F001C004F0000E056E9E
:101F3600066E04C072F803C071F86F6B706B1A0EF0
:101F46006325756F000E6421766F4EDD000E026EFE
:101F5600036E6F5100267051012271510222725197
:101F6600032273C8E1FF74C8E2FF00C0E6FF01C0A8
:101F7600E6FF02C0E6FF03C0E6FF0B0E6325E96E2F
:101F8600000E6421EA6E3F0EEE14016E01500F0A38
:101F960027E065C875F866C876F8776BFF0E786F28
:101FA600000E796F76DC65C875F866C876F867C87E
:101FB60077F868C878F869C879F86AC87AF86BC893
:101FC6007BF86CC87CF86DC87DF86EC87EF877EC37
:101FD6000AF00050000A03E0FF0E006E07D005D09D
:0E1FE60065C8E1FF66C8E2FFE66A006A120005
:101FF4000801646B656B270E655D02E1100E645D7C
:10200400D8B0AED0000E000A02E1000E631919E147
:10201400C3EC02F0010E0901016F026B036B046B48
:10202400056BFF0E066F5AEC02F000C066F8D5ECA3
:1020340001F008016651000A03E15B6A006A92D06C
:102044008CD0C3EC02F0370E0901016F026B036BF5
:10205400046B056BFF0E066F5AEC02F000C066F8C5
:10206400D5EC01F008016651010AD8A475D0C3EC7F
:1020740002F0290E0901016F000E026F000E036FBA
:10208400000E046F400E056FFF0E066F5AEC02F04F
:1020940000C066F8D5EC01F008016651000A5BE166
:1020A400000E000A02E1020E631951E1C3EC02F0D2
:1020B4003A0E0901016F026B036B046B056BFF0E93
:1020C400066F5AEC02F000C066F86BC6E1FF6CC6FE
:1020D400E2FFFF0EE66E69C600F06AC601F02DEC61
:1020E40000F000C067F86BC6E1FF6CC6E2FFFF0EAC
:1020F400E66E69C600F06AC601F02DEC00F06BC60E
:10210400E1FF6CC6E2FFFF0EE66E69C600F06AC628
:1021140001F02DEC00F06BC6E1FF6CC6E2FFFF0E90
:10212400E66E69C600F06AC601F02DEC00F0D5EC4D
:1021340001F008016651000A09E167AD03D0040EFD
:102144005B6E02D0030E5B6E006A0CD004D0010EED
:102154005B6E006A07D001D003D0644B652B4BD76C
:06216400010E006E1200E6
:10216A000134083609360450085E0550D8A0053CEB
:10217A00095E003601360F0E0C6E01340836093638
:10218A00045000A006D0085E0550D8A0053C095EA0
:10219A0005D008260550D8B0053C09260036013678
:1021AA000C2EEBD700B006D0045008260550D8B044
:0821BA00053C0926000012009B
:1021C20067C801F068C802F0010E0801675F000EDF
:1021D200685B000E021802E1000E01181FE063C8DE
:1021E200E9FF64C8EAFF65C8D9FF66C8DAFFEE50A6
:1021F200DE180FE063C8E9FF64C8EAFF65C8D9FFCB
:1022020066C8DAFFDE50EE5C006E016A000E015A0B
:1022120007D0634B642B654B662BD2D7006A016AE9
:022222001200A8
:1022240063C8CBF837EC05F0005208E163C875F8D1
:102234005AEC0AF0005202E1006A02D0010E006E6C
:02224400120086
:102246000B1E0A1E091E081E082AD8B4092AD8B46D
:082256000A2AD8B40B2A120079
:10225E00080163517A0804E3610E635DD8B0639B95
:06226E0063C800F012003D
:1022740063C802F064C803F002C000F003C001F0B8
:10228400024A032A00C0E9FF01C0EAFFEE5201E05E
:10229400F3D708016351025C006E64510358016E68
:0A22A400010E005E000E015A120048
:1022AE000450085E0550D8A0053C095E0650D8A023
:1022BE00063C0A5E0750D8A0073C0B5E0336070E9D
:1022CE000C6E0334083609360A360B36045003A05A
:1022DE000ED0085E0550D8A0053C095E0650D8A069
:1022EE00063C0A5E0750D8A0073C0B5E0DD00826B0
:1022FE000550D8B0053C09260650D8B0063C0A2633
:10230E000750D8B0073C0B2603360C2EDAD7023412
:10231E00083609360A360B36045003A00ED0085E76
:10232E000550D8A0053C095E0650D8A0063C0A5EB2
:10233E000750D8A0073C0B5E0DD008260550D8B02C
:10234E00053C09260650D8B0063C0A260750D8B0E0
:10235E00073C0B260236070E0C6E02340836093681
:10236E000A360B36045002A00ED0085E0550D8A0D7
:10237E00053C095E0650D8A0063C0A5E0750D8A060
:10238E00073C0B5E0DD008260550D8B0053C09263B
:10239E000650D8B0063C0A260750D8B0073C0B268C
:1023AE0002360C2EDAD70134083609360A360B36C9
:1023BE00045002A00ED0085E0550D8A0053C095E60
:1023CE000650D8A0063C0A5E0750D8A0073C0B5E0C
:1023DE000DD008260550D8B0053C09260650D8B0B9
:1023EE00063C0A260750D8B0073C0B260136070ECE
:1023FE000C6E0134083609360A360B36045001A02D
:10240E000ED0085E0550D8A0053C095E0650D8A037
:10241E00063C0A5E0750D8A0073C0B5E0DD008267E
:10242E000550D8B0053C09260650D8B0063C0A2601
:10243E000750D8B0073C0B2601360C2EDAD70034E5
:10244E00083609360A360B36045001A00ED0085E47
:10245E000550D8A0053C095E0650D8A0063C0A5E81
:10246E000750D8A0073C0B5E0DD008260550D8B0FB
:10247E00053C09260650D8B0063C0A260750D8B0AF
:10248E00073C0B260036070E0C6E00340836093654
:10249E000A360B36045000A00ED0085E0550D8A0A8
:1024AE00053C095E0650D8A0063C0A5E0750D8A02F
:1024BE00073C0B5E0DD008260550D8B0053C09260A
:1024CE000650D8B0063C0A260750D8B0073C0B265B
:1024DE0000360C2EDAD700B00ED004500826055068
:1024EE00D8B0053C09260650D8B0063C0A2607503F
:0824FE00D8B0073C0B261200C8
:10250600160E08016325756F000E6421766FF7ECD1
:102516000CF00B0E046E00C002F001C003F0045074
:1025260005E003320232039EFF0FFAD71F0E021494
:10253600006E00C016F4160E6325756F000E64213A
:10254600766FF7EC0CF0050E046E00C002F001C0C9
:1025560003F0045005E003320232039EFF0FFAD760
:102566003F0E0214006E00C017F4160E6325756F39
:10257600000E6421766FF7EC0CF000C002F0023614
:1025860002903F0E0214006E00C018F4180E632568
:10259600756F000E6421766FF7EC0CF0090E046E71
:1025A60000C002F001C003F0045005E0033202321D
:1025B600039EFF0FFAD77F0E0214006E03C001F0D0
:1025C600000E011600C012F401C013F4BC0E002662
:1025D600070E012200C012F401C013F4180E632581
:1025E600756F000E6421766FF7EC0CF0050E046E25
:1025F60000C002F001C003F0045005E003320232CD
:10260600039EFF0FFAD70F0E0214006E00C014F4DB
:10261600180E6325756F000E6421766FF7EC0CF0CB
:0E2626001F0E0014006E00C015F4006A1200B2
:1026340000016051020A17E1010E0201022508019E
:10264400756F000E020103210801766F000E02016E
:1026540004210801776F000E020105210801786F3B
:10266400FAEC09F030D000016051000A06E1FF0ED7
:102674000401FE6FFF0E006E26D0060E0801B76F30
:10268400020EB86F11EC08F00050000A06E0FF0ECD
:102694000401FE6FFF0E006E16D0010E020102252A
:1026A400006E000E0321016E000E0421026E000E66
:1026B4000521036E00C002F201C003F202C004F25D
:0826C40003C005F2006A1200D8
:1026CC0005010851FF0A08E10751FF0A05E106510F
:1026DC00FF0A02E10551FF0A06E1F60E0401FE6F46
:1026EC00FF0E006E7BD201C544F802C545F803C548
:1026FC0046F804C547F805012651045D08E125514B
:10270C00035D05E12451025D02E12351015D15E3F6
:10271C00040185510801475D0EE104018451080153
:10272C00465D09E1040183510801455D04E10401A2
:10273C0082510801445D01E206D0F40E0401FE6FE3
:10274C00FF0E006E4BD208014E6B7DC600F005C526
:10275C0001F006C502F007C503F008C504F00050EF
:10276C0007E00432033202320132049EFF0FF8D725
:10277C000450000809E10350000806E1025000086B
:10278C0003E1080101504E5D56E244C8E2F845C829
:10279C00E3F846C8E4F847C8E5F86AEC04F000C072
:1027AC0044F801C045F802C046F803C047F803508E
:1027BC000F0A08E10250FF0A05E10150FF0A02E18D
:1027CC000050FF0A06E1F10E0401FE6FFF0E006ED1
:1027DC0005D2050126510801475D0EE10501255181
:1027EC000801465D09E1050124510801455D04E13C
:1027FC00050123510801445D15E3040185510801CD
:10280C00475D0EE1040184510801465D09E10401B4
:10281C0083510801455D04E1040182510801445DC6
:10282C0001E206D0F40E0401FE6FFF0E006ED6D14D
:10283C0008014E2B8AD706C400F007C401F008C467
:10284C0002F009C403F0010E005E000E015A025A98
:10285C00035A00500501051508014A6F0150050186
:10286C00061508014B6F02500501071508014C6F46
:10287C0003500501081508014D6F44C8E2F845C81E
:10288C00E3F846C8E4F847C8E5F820EC04F07EC647
:10289C0008F04AC804F04BC805F04CC806F04DC807
:1028AC0007F0085007E00732063205320432079E63
:1028BC00FF0FF8D7045000240801756F0550012054
:1028CC00766F06500220776F07500320786FF7C1A0
:1028DC0000F0F8C101F0F9C102F0FAC103F0010EE9
:1028EC00005E000E015A025A035A00504A15046E3B
:1028FC0001504B15056E02504C15066E03504D15CC
:10290C00076E050E026E04C000F005C001F0025007
:10291C0005E0003600900136FF0FFAD70801060ECD
:10292C000024486F020E0120496FFAEC09F00050A8
:10293C00000A03E0FF0E006E51D148C8E9FF49C8F8
:10294C00EAFFEECF01F00150E50A0AE048C8E9FFC2
:10295C0049C8EAFFEECF01F0200E015C01E318D06C
:10296C0048C8E9FF49C8EAFFEECF01F0140E015C3C
:10297C000EE20B0E08014825E96E000E4921EA6EA5
:10298C003F0EEE14016E01500F0A01E101D095D0FB
:10299C0067EC03F00050000A03E0FF0E006E1ED13E
:1029AC000B0E08014825E96E000E4921EA6EEECFA8
:1029BC0001F001A62ED042C875F843C876F8776BA3
:1029CC00100E786F010E796F4CEC0CF0FF0E422557
:1029DC004F6F000E4321506F0B0E4825756F000E84
:1029EC004921766F45EC0CF04FC8E1FF50C8E2FF6F
:1029FC0000C0E6FF42C8CBF843C8CCF848C8CDF8B5
:102A0C0049C8CEF80B0ECF6F000ED06F04EC05F05A
:102A1C004AD04251431147E048C863F849C864F8AA
:102A2C0042C865F843C866F801C567F802C568F87E
:102A3C0003C569F804C56AF805C56BF806C56CF8DA
:102A4C0007C56DF808C56EF85BEC0FF00050000A76
:102A5C0003E0FF0E006EC2D048C863F849C864F8A2
:102A6C00CAEC0EF048C863F849C864F846DD080E95
:102A7C004225E16E010E4321E26E01C5E6FF02C55F
:102A8C00E6FF03C5E6FF04C5E6FF0C0E4225E16E2A
:102A9C00010E4321E26E05C5E6FF06C5E6FF07C53C
:102AAC00E6FF08C5E6FF010E05010527000E06230B
:102ABC0007230823010E006E91D0010E08014A274E
:102ACC00000E4B234C234D23200E4825016E000E87
:102ADC004921026E01C048F802C049F8010E0501F7
:102AEC000527000E062307230823025004010B19A7
:102AFC0002E10A510118D8A470D0060E0801486FE3
:102B0C00020E496F4D51040109190EE108014C5197
:102B1C000401081909E108014B510401071904E1EA
:102B2C0008014A510401061951E167EC03F0005009
:102B3C00000A03E0FF0E006E51D008014A6B4B6B8C
:102B4C004C6B4D6B44C8E2F845C8E3F846C8E4F852
:102B5C0047C8E5F86AEC04F000C044F801C045F839
:102B6C0002C046F803C047F803500F0A08E10250B0
:102B7C00FF0A05E10150FF0A02E10050FF0A0BE1D8
:102B8C00FF0E0501056FFF0E066FFF0E076FFF0EA0
:102B9C00086F006A23D044C8E2F845C8E3F846C879
:102BAC00E4F847C8E5F820EC04F000C075F801C063
:102BBC0076F802C077F803C078F8FAEC09F0005008
:102BCC00000A03E0FF0E006E09D007D02DDD005087
:0E2BDC00000A03E0FF0E006E01D0AFD612001B
:102BEA0035C542F836C543F837C544F838C545F8FF
:102BFA0005012651385D08E12551375D05E124516B
:102C0A00365D02E12351355D15E304018551080162
:102C1A00455D0EE1040184510801445D09E10401A6
:102C2A0083510801435D04E1040182510801425DB8
:102C3A0001E208D023C542F824C543F825C544F863
:102C4A0026C545F842C846F843C847F844C848F874
:102C5A0045C849F8FFC404F042C800F043C801F06F
:102C6A0044C802F045C803F0045007E003320232B8
:102C7A0001320032039EFF0FF8D7005005011F25CD
:102C8A000801756F0150050120210801766F025075
:102C9A00050121210801776F03500501222108014E
:102CAA00786F79C600F07AC601F07BC602F07CC65E
:102CBA0003F0010E005E000E015A025A035A005038
:102CCA004215046E01504315056E02504415066EF6
:102CDA0003504515076E04C000F005C001F0003628
:102CEA0000900136003600900136060E00244A6F25
:102CFA00020E01204B6FFAEC09F00050000A09E0BD
:102D0A00FF0E006EFF0E016EFF0E026E0F0E036EB7
:102D1A006DD108014C6B4AC8E9FF4BC8EAFFEECFF8
:102D2A0001F0EECF02F0EECF03F0EECF04F0045044
:102D3A00000A08E10350000A05E10250000A02E114
:102D4A000150000A04E10801010E4C6FC0D00801CD
:102D5A00040E4A27000E4B23010E4227000E43237E
:102D6A0044234523040185510801455D0EE1040110
:102D7A0084510801445D09E1040183510801435D5E
:102D8A0004E1040182510801425D76E323C542F859
:102D9A0024C543F825C544F826C545F867EC03F071
:102DAA000050000A09E0FF0E006EFF0E016EFF0ED2
:102DBA00026E0F0E036E1AD1FFC404F042C800F06F
:102DCA0043C801F044C802F045C803F0045007E0C4
:102DDA000332023201320032039EFF0FF8D700504D
:102DEA0005011F250801756F015005012021080101
:102DFA00766F0250050121210801776F0350050102
:102E0A0022210801786F79C600F07AC601F07BC6E4
:102E1A0002F07CC603F0010E005E000E015A025A4F
:102E2A00035A00504215046E01504315056E0250B4
:102E3A004415066E03504515076E04C000F005C020
:102E4A0001F0003600900136003600900136060E79
:102E5A0000244A6F020E01204B6FFAEC09F0005071
:102E6A00000A09E0FF0E006EFF0E016EFF0E026EF1
:102E7A000F0E036EBBD01CD008014B5104010B1975
:102E8A0003E10A5108014A1913E10801060E4A6FC3
:102E9A00020E4B6F1AEC13F00050000A09E0FF0E05
:102EAA00006EFF0E016EFF0E026E0F0E036E9ED0B5
:102EBA0008014551491908E14451481905E14351AE
:102ECA00471902E14251461901E101D024D767ECC2
:102EDA0003F00050000A09E0FF0E006EFF0E016EBB
:102EEA00FF0E026E0F0E036E81D008014C5309E1EA
:102EFA00FF0E006EFF0E016EFF0E026E0F0E036EC6
:102F0A0075D04AC8E1FF4BC8E2FFFF0EE66EFF0E1E
:102F1A00E66EFF0EE66E0F0EE66EFFC404F042C8C0
:102F2A0000F043C801F044C802F045C803F0045059
:102F3A0007E00332023201320032039EFF0FF8D754
:102F4A00005005011F250801636F0150050120216A
:102F5A000801646F0250050121210801656F0350C1
:102F6A00050122210801666F87EC0EF00050000A65
:102F7A0007E0FF0E006EFF0E016E026E036E36D082
:102F8A0005013451FF0A08E13351FF0A05E13251C4
:102F9A00FF0A02E13151FF0A16E031C500F032C5DD
:102FAA0001F033C502F034C503F0010E005E000ED5
:102FBA00015A025A035A00C031F501C032F502C063
:102FCA0033F503C034F542C835F543C836F544C86D
:102FDA0037F545C838F5010E0401116F42C800F0F3
:0E2FEA0043C801F044C802F045C803F01200CD
:102FF800160E08014225006E000E4321016E010ED7
:103008000024E16E000E0120E26E83C600F0003657
:103018000090003600900036009000C0E6FF160EC3
:103028004225006E000E4321016E010E0024026E3F
:10303800000E0120036E84C600F00032009E0032AC
:10304800009E0032009E02C0E9FF03C0EAFFEE5076
:10305800002602C0E1FF03C0E2FF00C0E6FF160E33
:103068004225E16E000E4321E26E050E016E84C614
:1030780000F0015004E000360090FF0FFBD700C0BD
:10308800E6FF160E4225026E000E4321036E85C62A
:1030980000F00032009E02C0E9FF03C0EAFFEE50D4
:1030A800002602C0E1FF03C0E2FF00C0E6FF180EE1
:1030B8004225006E000E4321016E010E0024E16ED0
:1030C800000E0120E26EBC0E06017F5D026E02C09A
:1030D80000F00036009000C0E6FF180E08014225F7
:1030E800006E000E4321016E010E0024026E000ED8
:1030F8000120036E81C600F00032009E0032009E5F
:103108000032009E02C0E9FF03C0EAFFEE5000262D
:1031180002C0E1FF03C0E2FF00C0E6FF180E42252F
:10312800E16E000E4321E26E050E016E81C600F0CD
:10313800015004E000360090FF0FFBD700C0E6FF07
:10314800180E4225016E000E4321026E01C0E9FFF0
:1031580002C0EAFF06018251EE24006E01C0E1FFC1
:0C31680002C0E2FF00C0E6FF006A120097
:103174000E0E08014225006E000E4321016E010E61
:103184000024E16E000E0120E26E83C600F00036DA
:103194000090003600900036009000C0E6FF0E0E4E
:1031A4004225006E000E4321016E010E0024026EC2
:1031B400000E0120036E84C600F00032009E00322F
:1031C400009E0032009E02C0E9FF03C0EAFFEE50F9
:1031D400002602C0E1FF03C0E2FF00C0E6FF0E0EBE
:1031E4004225E16E000E4321E26E050E016E84C697
:1031F40000F0015004E000360090FF0FFBD700C040
:10320400E6FF0E0E4225026E000E4321036E85C6B4
:1032140000F00032009E02C0E9FF03C0EAFFEE5056
:10322400002602C0E1FF03C0E2FF00C0E6FF100E6B
:103234004225006E000E4321016E010E0024E16E52
:10324400000E0120E26EBC0E06017F5D026E02C01C
:1032540000F00036009000C0E6FF100E0801422581
:10326400006E000E4321016E010E0024026E000E5A
:103274000120036E81C600F00032009E0032009EE1
:103284000032009E02C0E9FF03C0EAFFEE500026B0
:1032940002C0E1FF03C0E2FF00C0E6FF100E4225BA
:1032A400E16E000E4321E26E050E016E81C600F050
:1032B400015004E000360090FF0FFBD700C0E6FF8A
:1032C400100E4225016E000E4321026E01C0E9FF7B
:1032D40002C0EAFF06018251EE24006E01C0E1FF44
:0C32E40002C0E2FF00C0E6FF006A12001A
:1032F0001CEC0DF0060E0801436F020E446F040132
:10330000FE51FF0A03E1FF0E006E76D2FE51FC0A69
:1033100003E1FF0E006E70D2FE51000AD8A466D001
:103320000F0E05010A15016E01C045F801500B0A88
:103330000AE0080145510C0A06E0F80E0401FE6F90
:10334000FF0E006E59D20BC5E6F80CC5E7F80DC5A7
:10335000E8F80EC5E9F87FEC03F00050000A03E03E
:10336000FF0E006E49D2060E0801436F020E446F35
:10337000FE0E4325756F010E4421766FF7EC0CF0BD
:103380000150AA0A02E1550E001806E0FC0E0401E5
:10339000FE6FFF0E006E30D243C8E9FF44C8EAFF5B
:1033A000EECF01F00150E90A16E043C8E9FF44C836
:1033B000EAFFEECF01F00150EB0A0BE1020E08012B
:1033C0004325E96E000E4421EA6EEE50900A01E1B9
:1033D00002D0006A02D0010E006E005206E1FB0E20
:1033E0000401FE6FFF0E006E07D21ED00401FE51D5
:1033F000FB0A1AE1800E0501096F0B6B0C6B0D6B5C
:103400000E6B200E08014325756F000E4421766F68
:103410006AEC0CF000C00FF501C010F502C011F508
:1034200003C012F50401FE6B0401FE51000AD8A48A
:10343000DED10B0E08014325756F000E4421766F17
:10344000F7EC0CF000C013F501C014F50D0E432588
:10345000756F000E4421766F45EC0CF000C015F539
:103460000E0E4325756F000E4421766FF7EC0CF0BD
:1034700000C016F501C017F5100E4325756F000E3C
:103480004421766F45EC0CF000C018F5240E43255E
:10349000756F000E4421766F6AEC0CF000C019F5D0
:1034A00001C01AF502C01BF503C01CF5280E432508
:1034B000756F000E4421766FF7EC0CF000C01DF51F
:1034C00001C01EF5050116510B25006E17510C2188
:1034D000016E000E0D21026E000E0E21036E00C063
:1034E0001FF501C020F502C021F503C022F52C0E06
:1034F00008014325756F000E4421766F6AEC0CF0CD
:1035000000C023F501C024F502C025F503C026F54F
:10351000110E4325756F000E4421766FF7EC0CF009
:1035200000C027F501C028F5300E4325756F000E49
:103530004421766FF7EC0CF0000E026E036E05016D
:103540000B5100260C5101220D5102220E51032273
:1035500000C02DF501C02EF502C02FF503C030F5D7
:103560001FC529F520C52AF521C52BF522C52CF547
:103570000801426B050118510801425D18E205017E
:1035800019512925006E1A512A21016E1B512B2138
:10359000026E1C512C21036E00C029F501C02AF5D2
:1035A00002C02BF503C02CF50801422BE3D7050E12
:1035B000006E13C5F7F114C5F8F1000E0101F96FA3
:1035C000FA6F005005E0F833F733F89FFF0FFAD792
:1035D000000EF96FFA6F13C579F614C57AF6000E6E
:1035E00006017B6F7C6F7A3379337A9F7A33793334
:1035F0007A9F000E7B6F7C6F13C563F814C564F867
:10360000000E0801656F666F51EC0EF000C010F4FB
:1036100015C563F8000E0801646F656F666F51ECA5
:103620000EF000C08EF6F7C163F8F8C164F8F9C176
:1036300065F8FAC166F851EC0EF000C07EF679C666
:1036400063F87AC664F87BC665F87CC666F851EC08
:103650000EF000C0FFF406018E5104011025006E2B
:1036600000C081F4010E0C6F000E0D6F000E0E6F86
:10367000000E0F6F005007E00C370C910D370E371E
:103680000F37FF0FF8D7200E0801636F000E646F2D
:10369000656F666F51EC0EF000500401815D006EA5
:1036A000016A000E00BEFF0E015A00C004F0010EB8
:1036B000006E000E016E000E026E000E036E0450CE
:1036C00007E000360090013602360336FF0FF8D7C8
:1036D00000C006F401C007F402C008F403C009F4F6
:1036E00000C063F801C064F802C065F803C066F862
:1036F00051EC0EF000C07DF623C501F524C502F59E
:1037000025C503F526C504F50501056B066B076B9A
:10371000086B29C500F02AC501F02BC502F02CC5A5
:1037200003F00B51005E0C51015A0D51025A0E511B
:10373000035A0FC582F410C583F411C584F412C571
:1037400085F400500401825F0150835B0250845B6A
:103750000350855B8EC600F0005007E0853384334C
:1037600083338233859FFF0FF8D7020E8227000E26
:1037700083238423852305010A5325E1000E0401D8
:10378000855D08E1000E845D05E1FF0E835D02E1C9
:10379000F70E825D04E30B0E05010A6F14D0000ED4
:1037A0000401855D08E1000E845D05E10F0E835D77
:1037B00002E1F70E825D04E3060E05010A6F03D0F5
:1037C0000501010E0A6F0F0E0A15016E01C045F8C2
:1037D00001500B0A0AE0080145510C0A06E0F80EF8
:1037E0000401FE6FFF0E006E07D0006A05D00401D1
:0A37F000FB0EFE6FFF0E006E1200CC
:1037FA00050E5B6E9598D5EC01F00801426B436BA0
:10380A00000E435D02E10A0E425D10E26BC6E1FF63
:10381A006CC6E2FFFF0EE66E69C600F06AC601F0EA
:10382A002DEC00F00801424B432BEAD7C3EC02F01F
:10383A000901016B026B036B046B056B950E066F36
:10384A005AEC02F000C044F8D5EC01F008014451EA
:10385A00010A03E0010E006E81D0C3EC02F0080EEB
:10386A000901016FAA0E026F010E036F000E046FA9
:10387A00056F870E066F5AEC02F000C044F86BC65B
:10388A00E1FF6CC6E2FFFF0EE66E69C600F06AC68B
:10389A0001F02DEC00F06BC6E1FF6CC6E2FFFF0EF3
:1038AA00E66E69C600F06AC601F02DEC00F06BC640
:1038BA00E1FF6CC6E2FFFF0EE66E69C600F06AC65B
:1038CA0001F02DEC00F06BC6E1FF6CC6E2FFFF0EC3
:1038DA00E66E69C600F06AC601F02DEC00F0D5EC80
:1038EA0001F008014451010A0AE0010E636FFAEC83
:1038FA000FF0005203E0636BFAEC0FF004D0020EF3
:10390A00636FFAEC0FF0000E000A02E1050E5B1875
:10391A0003E1020E006E22D0000E000A02E1040E3C
:10392A005B181BE0C3EC02F0100E0901016F000ED8
:10393A00026F020E036F000E046F056FFF0E066F13
:10394A005AEC02F000C044F8D5EC01F008014451E9
:0E395A00000A03E0030E006E01D0006A1200A6
:10396800FFC404F046C800F047C801F048C802F098
:1039780049C803F0045007E0033202320132003232
:10398800039EFF0FF8D700C04BF801C04CF802C0E7
:103998004DF803C04EF805011F510024086E205150
:1039A8000120096E215102200A6E225103200B6E5C
:1039B80008C04BF809C04CF80AC04DF80BC04EF8C7
:1039C80079C600F07AC601F07BC602F07CC603F027
:1039D800010E005E000E015A025A035A00500801F7
:1039E8004615046E01504715056E02504815066EBF
:1039F80003504915076E04C000F005C001F00036F9
:103A080000900136003600900136060E0024536FF0
:103A1800020E0120546F08C0E6F809C0E7F80AC092
:103A2800E8F80BC0E9F87FEC03F00050000A03E067
:103A3800FF0E006E46D053C8E1FF54C8E2FF42C8EB
:103A4800E6FF43C8E6FF44C8E6FF45C8E6FF4BC8A3
:103A58004FF84CC850F84DC851F84EC852F80801F4
:103A68004A6B0501185108014A5D22E24FC863F804
:103A780050C864F851C865F852C866F887EC0EF06B
:103A88000050000A03E0FF0E006E1BD0050119511B
:103A980008014F2705011A510801502305011B5140
:103AA8000801512305011C51080152234A2BD9D77B
:103AB8004BC802F24CC803F24DC804F24EC805F2D6
:043AC800006A12007E
:103ACC001A0E08014225E16E000E4321E26E44C835
:103ADC00E6FF1A0E4225006E000E4321016E010E08
:103AEC000024E16E000E0120E26E45C8E6FF140EC4
:103AFC004225E16E000E4321E26E46C8E6FF140E2D
:103B0C004225006E000E4321016E010E0024E16E71
:0E3B1C00000E0120E26E47C8E6FF006A1200AC
:103B2A0005C55AF806C55BF807C55CF808C55DF80F
:103B3A0001C5B7F802C5B8F803C5B9F804C5BAF89B
:103B4A0005C5BBF806C5BCF807C5BDF808C5BEF86B
:103B5A005E0E0801BF6F080EC06FE0EC07F0005060
:103B6A00000A03E0FF0E006E79D1F7C100F0F8C138
:103B7A0001F0F9C102F0FAC103F0010E005E000E75
:103B8A00015A025A035A005005010515046E0150E4
:103B9A000615056E02500715066E03500815076EC6
:103BAA0004C056F805C057F806C058F807C059F8B7
:103BBA00050E026E04C000F005C001F0025005E0D7
:103BCA00003600900136FF0FFAD7060E00240801CE
:103BDA00B76F020E0120B86F010E456FB6EC07F001
:103BEA0000C046F8010E0501055F000E065B075B83
:103BFA00085B000E006E0801591908E100505819B7
:103C0A0005E10050571902E15651000A2BE106C49A
:103C1A0056F807C457F808C458F809C459F8010EE9
:103C2A00565F000E575B585B595B01C5B7F802C572
:103C3A00B8F803C5B9F804C5BAF805C5BBF806C58E
:103C4A00BCF807C5BDF808C5BEF85E0EBF6F080E02
:103C5A00C06FE0EC07F00050000A03E0FF0E006EB0
:103C6A00FDD007D0010E0801565F000E575B585B66
:103C7A00595B0801F7C100F0F8C101F0F9C102F07F
:103C8A00FAC103F0010E005E000E015A025A035AED
:103C9A0000505615046E01505715056E02505815FE
:103CAA00066E03505915076E050E026E04C000F029
:103CBA0005C001F0025005E0003600900136FF0F02
:103CCA00FAD7060E0026020E012200C054F801C0DF
:103CDA0055F80B0E0024E96E000E0120EA6E3F0E25
:103CEA00EE14016E01500F0A06E0C00E0401FE6FC9
:103CFA00FF0E006EB3D00D0E08015425E96E000EBA
:103D0A005521EA6EEE50461906E0C10E0401FE6F17
:103D1A00FF0E006EA3D054C8E9FF55C8EAFFEECFE4
:103D2A0000F01F0E0014016E01500801451906E04B
:103D3A00C20E0401FE6FFF0E006E90D054C8B7F891
:103D4A0055C8B8F8470E0801B96F080EBA6FFFECEC
:103D5A0006F0446B470EE96E080EEA6E4451E926F6
:103D6A00D8B0EA2AEECF63F82FEC11F000C062F85F
:103D7A004505006E016A000E015A0D0E046E000E12
:103D8A00056ED7EC06F044510026000E01220050C1
:103D9A004225E96E01504321EA6EEECF63F82FEC1B
:103DAA0011F0625100180AE05AC805F55BC806F519
:103DBA005CC807F55DC808F5006A50D0442B0D0EA3
:103DCA00445D0CE2470EE96E080EEA6E4451E9269C
:103DDA00D8B0EA2AEE50000A01E0BCD70D0E445DC5
:103DEA002AE2470EE96E080EEA6E4451E926D8B077
:103DFA00EA2A4505006E016A000E015A0D0E046E8C
:103E0A00000E056ED7EC06F044510026000E012282
:103E1A0000504225D96E01504321DA6EEE50DE1869
:103E2A000AE05AC805F55BC806F55CC807F55DC81F
:103E3A0008F5006A13D0452B54C8E9FF55C8EAFFB4
:103E4A00EECF01F001ACCED65AC805F55BC806F52F
:0E3E5A005CC807F55DC808F5010E006E120089
:103E680001C546F802C547F803C548F804C549F82E
:103E78000501056B066B076B086B050126510801E8
:103E8800495D0EE1050125510801485D09E105017B
:103E980024510801475D04E1050123510801465DED
:103EA80015E3040185510801495D0EE104018451BF
:103EB8000801485D09E1040183510801475D04E1F7
:103EC800040182510801465D01E206D0F40E0401A6
:103ED800FE6FFF0E006EF7D0060E08014E6F020E41
:103EE8004F6F46C8E2F847C8E3F848C8E4F849C83D
:103EF800E5F820EC04F000C075F801C076F802C0BF
:103F080077F803C078F8FAEC09F00050000A03E0EB
:103F1800FF0E006ED8D008014A6B4B6B4C6B4D6B93
:103F28000401095108014D5D0EE104010851080121
:103F38004C5D09E10401075108014B5D04E10401EE
:103F4800065108014A5DD8B095D04F5104010B19AC
:103F580003E10A5108014E190DE10801060E4E6FE2
:103F6800020E4F6F1AEC13F00050000A03E0FF0E28
:103F7800006EA9D04EC863F84FC864F842C865F807
:103F880043C866F80B0E0801676F000E686FE1EC16
:103F980010F0000E011802E1000E001858E167EC5D
:103FA80003F00050000A03E0FF0E006E8CD00801F9
:103FB800445145113DE04EC863F84FC864F844C801
:103FC80065F845C866F801C567F802C568F803C50D
:103FD80069F804C56AF805C56BF806C56CF807C525
:103FE8006DF808C56EF85BEC0FF00050000A03E0AE
:103FF800FF0E006E68D0080E08014425E16E010E20
:104008004521E26E01C5E6FF02C5E6FF03C5E6FFEE
:1040180004C5E6FF0C0E4425E16E010E4521E26E53
:1040280005C5E6FF06C5E6FF07C5E6FF08C5E6FFC6
:104038004EC863F84FC864F8CAEC0EF04EC863F86F
:104048004FC864F883EC12F0010E006E3CD00801F2
:10405800200E4E27000E4F23010E4A27000E4B2339
:104068004C234D23010E05010527000E06230723C7
:10407800082356D767EC03F00050000A03E0FF0E50
:10408800006E21D046C8E2F847C8E3F848C8E4F80B
:1040980049C8E5F86AEC04F000C046F801C047F8E2
:1040A80002C048F803C049F803500F0A08E102505B
:1040B800FF0A05E10150FF0A02E10050FF0A02E190
:0840C800006A01D0DAD61200F3
:1040D000010E0801466F476B486B496B4A6B4B6B8F
:1040E0004C6B42C8E9FF43C8EAFFEE50000A06E104
:1040F000C40E0401FE6FFF0E006EEED042C863F8DE
:1041000043C864F83AEC11F000C045F8446B42C86B
:1041100063F843C864F83AEC11F0800E026E800E2A
:104120000118025C02E10050445D15E24451422551
:10413000E96E000E4321EA6EEECF63F812EC11F047
:10414000005206E1C30E0401FE6FFF0E006EC4D0E4
:104150000801442BDCD74505006E000E45BFFF0E5D
:10416000016E000E015A00504225E96E01504321B4
:10417000EA6EEE502E0A02E14507EDD7800E000AE6
:10418000006E800E4519005C06E3E20E0401FE6F2E
:10419000FF0E006EA1D042C863F843C864F83AEC41
:1041A00011F0800E45BF7F0E026E800E0118025C7A
:1041B00002E10050455D09E245514225E16E000EE5
:1041C00045BFFF0E4321E26EE66A446B800E006E2F
:1041D000800E45BF7F0E005C02E14551445D12E256
:1041E00044514225E96E000E4321EA6EEECF75F888
:1041F0005AEC0AF0005203E0010E006E6DD0080187
:10420000442BE4D7800E0C0A006E800E4519005C2A
:1042100003E2010E006E60D0446B800E006E800ED3
:1042200045BF7F0E005C02E14551445D3FE24451D1
:104230004225E96E000E4321EA6EEECFE2F8EBEC88
:1042400003F0005203E0010E476F29D0445142258C
:10425000E96E000E4321EA6EEECFE2F814EC04F0B2
:10426000005203E0010E486F1AD044514225E96E16
:10427000000E4321EA6EEE502E0A11E14A530CE182
:10428000475304E0485302E0010E496F010E4A6FA4
:10429000466B476B486B08D0010E006E1DD046532D
:1042A00002E04B2B01D04C2B442BB7D7475304E0F3
:1042B000485302E0010E496F4B51080804E34C518A
:1042C000030801E303D0010E006E06D0495303E05A
:0A42D000020E006E01D0006A120019
:1042DA0042C863F843C864F83AEC11F000C047F8E2
:1042EA0001C048F844C863F845C864F83AEC11F0CC
:1042FA004851011802E10050471902E0006A2FD024
:10430A00466B44C863F845C864F83AEC11F0800E6D
:10431A00026E800E0118025C02E10050465D1DE249
:10432A0046514225E96E000E4321EA6EEECF63F84C
:10433A002FEC11F000C047F846514425E96E000EF3
:10434A004521EA6EEECF63F82FEC11F047510018C1
:10435A0002E0006A04D0462BD4D7010E006E120088
:10436A00086A080E0C6E003408360450085ED8B08D
:0E437A0002D00826D89000360C2EF5D712007F
:104388000450000A12E10550000A0FE10650000A25
:104398000CE10750000A09E1FF0E006EFF0E016EE6
:1043A800FF0E026E7F0E036E99D00C6A07BE0C2AB0
:1043B8000D6A0B6A0A6A096A086A0350021001103A
:1043C8000010D8B485D0035007180E6E0EBE0D1E0F
:1043D80007AE0BD0041E051E061E071E042AD8B4FD
:1043E800052AD8B4062AD8B4072A03AE0BD0001E73
:1043F800011E021E031E002AD8B4012AD8B4022ABC
:10440800D8B4032A035007100E6E0EBE1DD057EC09
:1044180011F00CBE36D00DAE5BD0001E011E021E80
:10442800031E002AD8B4012AD8B4022AD8B4032A11
:10443800081E091E0A1E0B1E082AD8B4092AD8B459
:104448000A2AD8B40B2A44D007AE15D003BE0DD023
:1044580003500B6E02500A6E0150096E0050086E30
:10446800036A026A016A006AD6D7036A026A016AA5
:10447800006A002A000C031E021E011E001E0C8E7C
:10448800C6D7082AD8B4092AD8B40A2AD8B40B2A15
:104498000450085CD8A4BFD70550095CD8A4BBD782
:1044A80006500A5CD8A4B7D707500B5CD8A4B3D77A
:1044B8000B6A0A6A096A086A002AD8B4012AD8B4B9
:1044C800022AD8B4032A03AEA6D70E6A0E88FF0CB8
:0E44D8000E6A0CA002D023EC11F0000F1200AF
:1044E6000450000A08E10550000A05E1FF0E006EBF
:1044F6007F0E016E58D00D6A096A086A01500010D5
:10450600D8B4000C015005180A6E0ABE0D1E0B6ABF
:1045160005AE05D0041E051E042AD8B4052A01AE30
:1045260005D0001E011E002AD8B4012A015005102C
:104536000A6E0ABE10D0B5EC10F00BB020D00DAE4E
:10454600000C001E011E002AD8B4012A081E091EEE
:10455600082AD8B4092A000C05AE0DD001BE07D032
:104566000150096E0050086E016A006AE8D7016AB8
:10457600006A002A000C011E001E0B2ADDD7082A3D
:10458600D8B4092A0450085CD8A4D9D70550095CC8
:10459600D8A4D5D7096A086A002AD8B4012A01AE78
:0845A600CED70000FF0C12004B
:1045AE001C0E08012125E16E000E2221E26E23C8A9
:1045BE00E6FF1C0E2125006E000E2221016E010E5B
:1045CE000024E16E000E0120E26E24C8E6FF1C0EF0
:1045DE002125006E000E2221016E020E0024E16ED6
:1045EE00000E0120E26E25C8E6FF1C0E2125006E8E
:1045FE00000E2221016E030E0024E16E000E01203A
:0A460E00E26E26C8E6FF006A120003
:104618000401115302E1006A63D0060E0801216FFC
:10462800020E226F060E756F020E766F776B000E04
:10463800786F020E796F4CEC0CF021C8E1FF22C8AC
:10464800E2FF520EE66E520EE66E610EE66E410E07
:10465800E66EE40E2125E16E010E2221E26E720E55
:10466800E66E720EE66E410EE66E610EE66EE80EBE
:104678002125E16E010E2221E26E31C5E6FF32C529
:10468800E6FF33C5E6FF34C5E6FFEC0E2125E16EF3
:10469800010E2221E26E35C5E6FF36C5E6FF37C5B5
:1046A800E6FF38C5E6FFFE0E2125E16E010E222148
:1046B800E26E550EE66EAA0EE66E2DC563F82EC59F
:1046C80064F82FC565F830C566F887EC0EF0005021
:1046D800000A03E0FF0E006E03D00401116B006AAC
:0246E8001200BE
:1046EA00FDEC1BF0000E001803E0FF0E006E01D077
:0446FA00006A120040
:1046FE00086A096A100E0C6E013408360936045029
:10470E00085E0550D8A0053C095ED8B007D004500D
:10471E0008260550D8B0053C0926D890003601363B
:06472E000C2EEAD7120078
:0A4734001D0E0D6E0D2EFED71200B3
:10473E0021C8E9FF22C8EAFFEE50000A06E1C40EC6
:10474E000401FE6FFF0E006EB3D001C525F802C541
:10475E0026F803C527F804C528F80501056B066B76
:10476E00076B086B08012E6B23C842F824C843F868
:10477E0066EC13F00050010AD8A491D0FF0E080188
:10478E002325E96E000E2421EA6E3F0EEE14016E13
:10479E0001500F0A03E1010E2E6FE6D7010E05013F
:1047AE00055F000E065B075B085B08012E533AE0BF
:1047BE0021C842F822C843F895EC1DF000C02DF830
:1047CE000050FF0A03E1FF0E006E72D008012D515A
:1047DE00010A27E101C5B7F802C5B8F803C5B9F853
:1047EE0004C5BAF805C5BBF806C5BCF807C5BDF8C3
:1047FE0008C5BEF8290EBF6F080EC06FE0EC07F0BB
:10480E000050000A03E0FF0E006E52D025C801F5DD
:10481E0026C802F527C803F528C804F5010E006E58
:10482E0047D033D023C842F824C843F821C844F8EF
:10483E0022C845F84BDD0050010A27E101C5B7F843
:10484E0002C5B8F803C5B9F804C5BAF805C5BBF872
:10485E0006C5BCF807C5BDF808C5BEF8290EBF6F62
:10486E00080EC06FE0EC07F00050000A03E0FF0EE8
:10487E00006E1ED025C801F526C802F527C803F51F
:10488E0028C804F5010E006E13D0010E0501052790
:10489E00000E06230723082308012E6B65D725C8B3
:1048AE0001F526C802F527C803F528C804F5006AE5
:0248BE001200E6
:1048C00078EC19F0060E0801216F020E226F060E19
:1048D000236F020E246F0401FE51FF0A03E1FF0E55
:1048E000006EA3D0FE51FC0A03E1FF0E006E9DD0C6
:1048F000FE51000AD8A494D0300E08012125756F0E
:10490000000E2221766FF7EC0CF0005005010B250C
:104910000801E66F015005010C210801E76F000E48
:1049200005010D210801E86F000E05010E210801A7
:10493000E96F7FEC03F00050000A03E0FF0E006E09
:1049400074D0060E0801236F020E246FFE0E23257D
:10495000756F010E2421766FF7EC0CF00150AA0A56
:1049600002E1550E001806E0FC0E0401FE6FFF0E7A
:10497000006E5BD023C875F824C876F86AEC0CF09A
:104980000350410A08E10250610A05E10150520A50
:1049900002E10050520A06E0FA0E0401FE6FFF0E1B
:1049A000006E43D0E40E08012325756F010E24210B
:1049B000766F6AEC0CF00350610A08E10250410A7C
:1049C00005E10150720A02E10050720A06E0FA0E97
:1049D0000401FE6FFF0E006E28D0E80E08012325AB
:1049E000756F010E2421766F6AEC0CF000C031F572
:1049F00001C032F502C033F503C034F5EC0E2325B7
:104A0000756F010E2421766F6AEC0CF000C035F54D
:104A100001C036F502C037F503C038F5006A05D08D
:0C4A2000FA0E0401FE6FFF0E006E120083
:104A2C006DB409D01F0E6B14016E0150000A03E126
:0A4A3C00010E006E01D0006A1200A6
:104A46007F0E0801756F060E766F776B070E786F0F
:104A5600000E796F4CEC0CF0FB0E756F010E766F45
:104A6600776B070E786F000E796F4CEC0CF0120E18
:104A7600756F040E766F776B070E786F000E796F81
:104A86004CEC0CF0090E756F050E766F776B300ED9
:104A9600786F000E796F4CEC0CF0020E756F020EFB
:104AA600766F776B040E786F020E796F4CEC0CF014
:104AB600190E756F040E766F776B040E006E000E7E
:104AC600016E1A0E0002F3CF78F8F4CF79F84CECA9
:104AD6000CF08F0E756F060E766F776B0C0E786F77
:104AE600000E796F4CEC0CF0FF0E0201026FFF0E08
:104AF600036FFF0E046FFF0E056F060E04010A6FAB
:104B0600040E0B6F0001606B0401116B826B836BEB
:104B1600846B856B0501016B026B036B046B056B84
:104B2600066B076B086B006B430E06018F6F040163
:044B3600FE6B120000
:104B3A00800E08012119006E800E000A005C0CE349
:104B4A00800E21BF7F0E006E000E800A005C02E11B
:104B5A00040E215D01E206D0D80E0401FE6FFF0E9D
:104B6A00006E67D11A0E006E000E016E21C804F0A5
:104B7A00000E080121BFFF0E056ED7EC06F0190ED4
:104B8A000026040E012200C02AF801C02BF8180ED4
:104B9A000024E96E000E0120EA6EEE50000A06E1DA
:104BAA00DC0E0401FE6FFF0E006E43D1140E0801E5
:104BBA002A25D96E000E2B21DA6EDECF01F0DECF68
:104BCA0002F0DECF03F0DECF04F02551045C08E1E9
:104BDA002451035C05E12351025C02E12251015C8C
:104BEA0006E2DB0E0401FE6FFF0E006E22D1100EEC
:104BFA0008012A25E96E000E2B21EA6EEECF01F09C
:104C0A00EECF02F0EECF03F0EECF04F004502519F8
:104C1A0008E10350241905E10250231902E1015069
:104C2A00221902E1006A05D1100E2A25E96E000E4A
:104C3A002B21EA6EEECF01F0EECF02F0EECF03F0B9
:104C4A00EECF04F081C400F001C005F002C006F006
:104C5A0003C007F004C008F0005007E0083207322A
:104C6A0006320532089EFF0FF8D781C400F022C829
:104C7A0001F023C802F024C803F025C804F000504C
:104C8A0007E00432033202320132049EFF0FF8D7E2
:104C9A000850041808E10750031805E106500218E5
:104CAA0002E10550011811E10801100E2A25E16EF2
:104CBA00000E2B21E26E22C8E6FF23C8E6FF24C8B5
:104CCA00E6FF25C8E6FF006AB4D00801100E2A25BF
:104CDA00E16E000E2B21E26E22C8E6FF23C8E6FF32
:104CEA0024C8E6FF25C8E6FF100E2A25E96E000E45
:104CFA002B21EA6EEECF01F0EECF02F0EECF03F0F9
:104D0A00EECF04F081C400F001C026F802C027F8F3
:104D1A0003C028F804C029F8005007E029332833D3
:104D2A0027332633299FFF0FF8D7040E2A25E16E71
:104D3A00000E2B21E26E2AC8E9FF2BC8EAFFEECF4C
:104D4A0000F0EECF01F0EECF02F0EECF03F000C09C
:104D5A00E6FF01C0E6FF02C0E6FF03C0E6FF2951F5
:104D6A00000808E12851000805E12751000802E17E
:104D7A00265100085DE2040E2A252C6F000E2B2115
:104D8A002D6F2CC8E9FF2DC8EAFFEECFE2F8EECF6F
:104D9A00E3F8EECFE4F8EECFE5F86AEC04F02CC8BD
:104DAA00E1FF2DC8E2FF00C0E6FF01C0E6FF02C036
:104DBA00E6FF03C0E6FF040E08012A25D96E000E9D
:104DCA002B21DA6EDECF01F0DECF02F0DECF03F068
:104DDA00DECF04F00F0E041808E1FF0E031805E1F8
:104DEA00FF0E021802E1FF0E01181AE1100E2A2521
:104DFA00E16E000E2B21E26E140E2A25E96E000EDA
:104E0A002B21EA6EEECFE6FFEECFE6FFEECFE6FF0E
:104E1A00EECFE6FFDB0E0401FE6FFF0E006E09D037
:104E2A00010E0801265F000E275B285B295B97D7D6
:044E3A00006A1200F8
:104E3E0021C8E1FF22C8E2FF23C8E6FF006A120084
:104E4E00260E0801756F080E766FFF0E776F0D0E2A
:104E5E00786F000E796F4CEC0CF0256B0D0E255D06
:104E6E001CE2260EE16E080EE26E2551E126D8B048
:104E7E00E22A25512325E96E000E2421EA6EEECF9B
:104E8E00E6FF25512325E96E000E2421EA6EEE5031
:104E9E00000A01E102D0252BE1D7010E2125E16E9A
:104EAE00000E2221E26E26C8E6FF030E2125E16EDA
:104EBE00000E2221E26E27C8E6FF050E2125E16EC7
:104ECE00000E2221E26E28C8E6FF070E2125E16EB4
:104EDE00000E2221E26E29C8E6FF090E2125E16EA1
:104EEE00000E2221E26E2AC8E6FF0E0E2125E16E8B
:104EFE00000E2221E26E2BC8E6FF100E2125E16E78
:104F0E00000E2221E26E2CC8E6FF120E2125E16E64
:104F1E00000E2221E26E2DC8E6FF140E2125E16E51
:104F2E00000E2221E26E2EC8E6FF160E2125E16E3E
:104F3E00000E2221E26E2FC8E6FF180E2125E16E2B
:104F4E00000E2221E26E30C8E6FF1C0E2125E16E16
:104F5E00000E2221E26E31C8E6FF1E0E2125E16E03
:104F6E00000E2221E26E32C8E6FF2551010F026EBD
:104F7E00036A000E0322B7D0010E2125006E000E2B
:104F8E002221016E010E0024E16E000E0120E26E60
:104F9E00FF0EE66E030E2125006E000E2221016E1D
:104FAE00010E0024E16E000E0120E26EFF0EE66E91
:104FBE00050E2125006E000E2221016E010E002429
:104FCE00E16E000E0120E26EFF0EE66E070E212549
:104FDE00006E000E2221016E010E0024E16E000E05
:104FEE000120E26EFF0EE66E090E2125006E000E08
:104FFE002221016E010E0024E16E000E0120E26EF0
:10500E00FF0EE66E0E0E2125006E000E2221016EA1
:10501E00010E0024E16E000E0120E26EFF0EE66E20
:10502E00100E2125006E000E2221016E010E0024AD
:10503E00E16E000E0120E26EFF0EE66E120E2125CD
:10504E00006E000E2221016E010E0024E16E000E94
:10505E000120E26EFF0EE66E140E2125006E000E8C
:10506E002221016E010E0024E16E000E0120E26E7F
:10507E00FF0EE66E160E2125006E000E2221016E29
:10508E00010E0024E16E000E0120E26EFF0EE66EB0
:10509E00180E2125006E000E2221016E010E002435
:1050AE00E16E000E0120E26EFF0EE66E1C0E212553
:1050BE00006E000E2221016E010E0024E16E000E24
:1050CE000120E26EFF0EE66E1E0E2125006E000E12
:1050DE002221016E010E0024E16E000E0120E26E0F
:1050EE00FF0EE66E58D0000E031802E1000E0218F5
:1050FE00D8B442D7000E031802E1010E0218D8B43C
:10510E0049D7000E031802E1020E0218D8B450D788
:10511E00000E031802E1030E0218D8B457D7000E82
:10512E00031802E1040E0218D8B45ED7000E03185D
:10513E0002E1050E0218D8B465D7000E031802E17D
:10514E00060E0218D8B46CD7000E031802E1070E33
:10515E000218D8B473D7000E031802E1080E021815
:10516E00D8B47AD7000E031802E1090E021882E0B5
:10517E00000E031802E10A0E02188AE0000E031850
:10518E0002E10B0E021892E0000E031802E10C0E63
:0A519E0002189AE0A7D7006A120079
:1051A8000D0E08012125E16E000E2221E26E23C8B2
:0651B800E6FF006A120090
:1051BE000B0E08012125E16E000E2221E26E23C89E
:0651CE00E6FF006A12007A
:1051D4000601475108012125016E060148510801C5
:1051E4002221026E0250010802E101500E0806E27B
:1051F400BE0E0401FE6FFF0E006E01D0006A1200A5
:1052040021C8E9FF22C8EAFFEE50000A07E1C40EF4
:105214000401FE6FFF0E006E97EF2FF023C875F8A0
:1052240024C876F8200E0801776F0B0E786F000EF5
:10523400796F4CEC0CF021C8E9FF22C8EAFFEE506C
:105244002E0A12E1010E2125E96E000E2221EA6EDA
:10525400EE50000A09E123C8E1FF24C8E2FF2E0E44
:10526400E66E006A97EF2FF021C8E9FF22C8EAFF33
:10527400EE502E0A23E1010E2125E96E000E2221B3
:10528400EA6EEE502E0A1AE1020E2125E96E000E96
:105294002221EA6EEE50000A11E123C8E1FF24C87E
:1052A400E2FF2E0EE66E010E2325E16E000E242190
:1052B400E26E2E0EE66E006A97EF2FF021C8E9FF2A
:1052C40022C8EAFFEE502E0A07E1E20E0401FE6F47
:1052D400FF0E006E97EF2FF021C863F822C864F820
:1052E4003AEC11F000C033F801C034F821C842F898
:1052F40022C843F868EC20F000C030F80050FF0AE0
:1053040004E1FF0E006E97EF2FF0010E0801335DEC
:10531400006E000E3459016E00502125E96E0150D3
:105324002221EA6EEE502E0A10E0010E335D006E6B
:10533400000E3459016E00502125E96E01502221DE
:10534400EA6EEE50200A01E015D0800E006E800E49
:105354003419005C02E1335100080CE23351212579
:10536400E16E34512221E26EE66A010E335F000ED3
:10537400345BCBD7000E341902E1000E331904E17B
:10538400FF0E006E97EF2FF0000E30BFFF0E006E81
:10539400000E001802E1000E30190BE0000E30BFC1
:1053A400FF0E006E000E001802E1020E301901E03B
:1053B4008BD02B6B2A6B080E2A5D2DE22B512125F5
:1053C400E96E000E2221EA6EEE502E0A0AE02B51FD
:1053D4002125E96E000E2221EA6EEE50000A01E05A
:1053E40001D019D02A512325356F000E2421366FA0
:1053F4002B512125E96E000E2221EA6EEECF63F8CF
:105404002FEC11F035C8E1FF36C8E2FF00C0E6FF1B
:105414002B2B2A2BD0D72B512125E96E000E2221CC
:10542400EA6EEE50000A0AE123C842F824C843F8A1
:10543400446B456B34EC1FF097EF2FF008012B51B0
:105444002125E96E000E2221EA6EEE502E0A02E1B9
:105454002B2B07D0E20E0401FE6FFF0E006E97EFB8
:105464002FF0080E08012A6F0B0E2A5D23E22B5140
:105474002125E96E000E2221EA6EEE50000A01E1B8
:1054840019D02A512325356F000E2421366F2B5154
:105494002125E96E000E2221EA6EEECF63F82FEC8F
:1054A40011F035C8E1FF36C8E2FF00C0E6FF2B2B40
:1054B4002A2BDAD723C842F824C843F8446B456B37
:1054C40034EC1FF097EF2FF0000E080130BFFF0EF1
:1054D400006E000E001802E1010E3019D8A494EFFA
:1054E4002FF033C82DF8010E335D2E6F000E3459A2
:1054F4002F6F2E512125E96E2F512221EA6EEE5095
:105504002E0A0EE0800E006E800E2F19005C02E160
:105514002E51000805E2010E2E5F000E2F5BE9D725
:10552400800E006E800E2F19005C02E12E510008DF
:105534004DE22EC82DF82E4B2F2B080E2A6F0B0E82
:105544002A5D44E22E512125E96E2F512221EA6E73
:10555400EE50000A3BE02E512125E96E2F51222105
:10556400EA6EEECF75F85AEC0AF0005219E1080120
:105574002A512325356F000E2421366F2E51212503
:10558400E96E2F512221EA6EEECF63F82FEC11F071
:1055940035C8E1FF36C8E2FF00C0E6FF2A2B13D06E
:1055A40008012E512125E96E2F512221EA6EEE5079
:1055B400200A09E02A512325E16E000E2421E26E1F
:1055C4005F0EE66E2A2B2E4B2F2BB9D72DC82EF843
:1055D400000E2F6F2B6B2A6B080E2A5D56E22B519F
:1055E4002125E96E000E2221EA6EEE50000A01E147
:1055F4004CD0000E2F1902E12E512B1901E145D098
:105604002B512125E96E000E2221EA6EEE502E0A5E
:105614000AE02B512125E96E000E2221EA6EEE509C
:10562400200A01E001D02FD02B512125E96E000E74
:105634002221EA6EEECF75F85AEC0AF0005219E115
:1056440008012A512325356F000E2421366F2B5172
:105654002125E96E000E2221EA6EEECF63F82FECCD
:1056640011F035C8E1FF36C8E2FF00C0E6FF2A2B7F
:105674000AD008012A512325E16E000E2421E26E8E
:105684005F0EE66E2A2B2B2BA7D7010E316F060E69
:105694002A5D03E22AC825F802D0060E256F25C824
:1056A4002DF825512325E16E000E2421E26E7E0E95
:1056B400E66E010E2C6F2C5109083BE33151000AB0
:1056C40038E02D51010F006E016A000E01220050D6
:1056D4002325E16E01502421E26E300E2C25006E4C
:1056E40000C0E6FF23C842F824C843F8446B456B66
:1056F40034EC1FF000C031F80050FF0A04E1FF0E43
:10570400006E97EF2FF008013151010A0FE121C813
:1057140042F822C843F895EC1DF000C032F800505E
:10572400000A04E032C800F097EF2FF008012C2B98
:10573400C2D73151000AD8B475D0050E2A5D03E2F0
:105744002AC826F802D0050E266F26C82DF8265141
:105754002325E16E000E2421E26E7E0EE66E0A0E13
:105764002C6F2C5163085EE33151000A5BE02D512C
:10577400010F006E016A000E012200502325356FCF
:1057840001502421366F0A0E046E2CC800F0B5ECCB
:1057940021F0300E002635C8E1FF36C8E2FF00C014
:1057A400E6FF020E2D25006E016A000E0122005054
:1057B4002325356F01502421366F0A0E046E2CC840
:1057C40000F0B5EC21F008C000F0300E002635C81A
:1057D400E1FF36C8E2FF00C0E6FF23C842F824C850
:1057E40043F8446B456B34EC1FF000C031F80050B3
:1057F400FF0A03E1FF0E006E98D308013151010A3C
:105804000EE121C842F822C843F895EC1DF000C00F
:1058140032F80050000A03E032C800F086D30801D1
:105824002C2B9FD73151000AD8B49DD0040E2A5D89
:1058340003E22AC827F802D0040E276F27C82DF8E0
:1058440027512325E16E000E2421E26E7E0EE66EC2
:10585400640E2C6F800E030A006E800E005C02E161
:105864002C51E708D8A07FD03151000AD8B47BD09E
:105874002D51010F006E016A000E012200502325F4
:10588400356F01502421366F640E046E2CC800F06D
:10589400B5EC21F0300E002635C8E1FF36C8E2FF32
:1058A40000C0E6FF020E2D25006E016A000E0122E3
:1058B40000502325356F01502421366F0A0E046EE3
:1058C4002CC800F0B5EC21F00A0E046EB5EC21F002
:1058D40008C000F0300E002635C8E1FF36C8E2FFEC
:1058E40000C0E6FF030E2D25006E016A000E0122A2
:1058F40000502325356F01502421366F0A0E046EA3
:105904002CC800F0B5EC21F008C000F0300E0026E1
:1059140035C8E1FF36C8E2FF00C0E6FF23C842F8FD
:1059240024C843F8446B456B34EC1FF000C031F8D5
:105934000050FF0A03E1FF0E006EF7D20801315157
:10594400010A0EE121C842F822C843F895EC1DF083
:1059540000C032F80050000A03E032C800F0E5D27B
:1059640008012C2B77D73151000AD8B4C2D0030ECA
:105974002A5D03E22AC828F802D0030E286F28C83B
:105984002DF828512325E16E000E2421E26E7E0EAF
:10599400E66EE80E2C6F800E270A006E800E005C07
:1059A40002E12C510F08D8A0A4D03151000AD8B478
:1059B400A0D02D51010F006E016A000E012200508B
:1059C4002325356F01502421366FE80E046E030E33
:1059D400056E2CC800F0000E016E73EC22F0300E40
:1059E400002635C8E1FF36C8E2FF00C0E6FF020E1C
:1059F40008012D25006E016A000E012200502325A6
:105A0400356F01502421366F640E046E2CC800F0EB
:105A1400B5EC21F00A0E046EB5EC21F008C000F0DC
