:100000008FEF41F00000000000EF00F00000000062
:0A0010000000000000000000F3D71C
:10001C009CC96FFF6DB002D00000FCD76FCF00F011
:02002C001200C0
:10002E009CC9C9FFC7B002D00000FCD7C9CF00F0F1
:02003E001200AE
:10004000F250026EF29E0500FF6A0150FE6E0050F3
:08005000FD6E02BEF28E1200EB
:10005800838827C7E1FF28C7E2FFFF0EE66E25C7A2
:0A00680000F026C701F0E8DF1200E7
:10007200400E09019325006E27C7E1FF28C7E2FF62
:1000820000C0E6FF25C700F026C701F0D8DF27C76A
:10009200E1FF28C7E2FF97C9E6FF25C700F026C7A0
:1000A20001F0CDDF27C7E1FF28C7E2FF96C9E6FFCF
:1000B20025C700F026C701F0C2DF27C7E1FF28C726
:1000C200E2FF95C9E6FF25C700F026C701F0B7DFBA
:1000D20027C7E1FF28C7E2FF94C9E6FF25C700F062
:1000E20026C701F0ACDF27C7E1FF28C7E2FF98C9A6
:1000F200E6FF25C700F026C701F0A1DF09019A6BD0
:100102009B6B27C7E1FF28C7E2FFFF0EE66E25C7FC
:1001120000F026C701F093DF00C099F909019A4B5C
:100122009B2B800E0014016E0150000A07E0000EA6
:100132009B5D02E1640E9A5D01E2E3D799C900F08A
:020142001200A9
:04014400839812008A
:1001480027C7E1FF28C7E2FF4C0EE66E25C700F07F
:1001580026C701F071DF27C7E1FF28C7E2FFE66A7B
:1001680025C700F026C701F067DF27C7E1FF28C7CA
:10017800E2FFE66A25C700F026C701F05DDF27C762
:10018800E1FF28C7E2FFE66A25C700F026C701F0AD
:1001980053DF27C7E1FF28C7E2FFE66A25C700F05B
:1001A80026C701F049DF27C7E1FF28C7E2FFFF0E96
:1001B800E66E25C700F026C701F03EDF0901946B03
:1001C800956B27C7E1FF28C7E2FFFF0EE66E25C73C
:1001D80000F026C701F030DF00C093F90901944B05
:1001E800952B800E0014016E0150000A07E0000EE6
:1001F800955D02E1640E945D01E2E3D793AF04D00C
:1002080027DF93C900F012D027C7E1FF28C7E2FF14
:10021800FF0EE66E25C700F026C701F00DDF00C00F
:0E02280093F90050000AF0E013DF006A1200A4
:1002360086DF000E000A03E1040E0101E11909E15F
:1002460085C98DF986C98EF987C98FF988C990F94C
:1002560014D0090E006E85C98DF986C98EF987C935
:100266008FF988C990F9005008E009018D378D9102
:100276008E378F379037FF0FF7D70901110E936F1F
:100286008DC994F98EC995F98FC996F990C997F9D0
:10029600FF0E986FEBDE005204E0DBDE010E006E0F
:1002A6004BD027C7E1FF28C7E2FFFF0EE66E25C742
:1002B60000F026C701F0C1DE0050FE0A01E0F1D7CA
:1002C60009018B6B8C6B020E8C5D02E1000E8B5D5F
:1002D6001BE28B518925916F8C518A21926F27C71A
:1002E600E1FF28C7E2FFFF0EE66E25C700F026C72E
:1002F60001F0A3DE91C9E1FF92C9E2FF00C0E6FF6B
:1003060009018B4B8C2BDFD727C7E1FF28C7E2FFFC
:10031600FF0EE66E25C700F026C701F08EDE27C762
:10032600E1FF28C7E2FFFF0EE66E25C700F026C7ED
:0A03360001F083DE8EDE006A120083
:1003400003DF0050000A03E0FF0E006E01D0006AD8
:02035000120099
:1003520006018C51000A04E08C51020A01E002D02D
:10036200006A0DD0ECDF000E001806E0FF0E03015C
:10037200286FFF0E006E03D006018C6B006A12001C
:100382007FC985F980C986F981C987F982C988F947
:1003920083C989F984C98AF94DDF0050000A03E054
:0A03A200FF0E006E01D0006A120089
:1003AC0006018C51030A20E1CEDF0050000A06E062
:1003BC00FF0E0301286FFF0E006E5CD003012C5161
:1003CC0009017E190EE103012B5109017D1909E187
:1003DC0003012A5109017C1904E103012951090186
:1003EC007B1902E1006A46D006018C51010A06E134
:1003FC00FF0E0301286FFF0E006E3CD009017E51E9
:10040C0003012C190EE109017D5103012B1909E19E
:10041C0009017C5103012A1904E109017B510301F3
:10042C00291927E07BC97FF97CC980F97DC981F93D
:10043C007EC982F92D0E0901836F030E846F9BDF39
:10044C00000E00180EE0FF0E0301296FFF0E2A6F3D
:10045C00FF0E2B6FFF0E2C6FFF0E286FFF0E006E22
:10046C0009D07BC929F37CC92AF37DC92BF37EC93A
:06047C002CF3006A1200DF
:10048200090177517A0806E3610E775D03E3010EF5
:08049200006E01D0006A1200A7
:10049A00026A110E025C17E2EC0E0224F66E850E59
:1004AA00F76E000EF722000EF86E000EF822090011
:1004BA00F5CF01F001500901771903E1010E006E31
:0A04CA0003D0022AE6D7006A1200F0
:1004D40027C7E1FF28C7E2FFFF0EE66E25C700F03D
:1004E40026C701F0ABDD0050FE0A01E0F1D712008F
:1004F40077C905F078C906F079C907F07AC908F018
:1005040005014F51055E5051065A5151075A525137
:10051400085A8FC604F005C000F006C001F007C0F9
:1005240002F008C003F0045007E0003600900136E2
:1005340002360336FF0FF8D75551002656510122D3
:0A0544005751022258510322120001
:10054E0009017751390806E3300E775D03E3010E9A
:08055E00006E01D0006A1200DA
:10056600090177515A0806E3410E775D03E3010E50
:08057600006E01D0006A1200C2
:10057E000501525109017A5D0EE105015151090142
:10058E00795D09E1050150510901785D04E105012C
:10059E004F510901775D15E30501305109017A5D6F
:1005AE000EE105012F510901795D09E105012E5179
:1005BE000901785D04E105012D510901775D01E224
:1005CE000CD0F40E0301286FFF0E006EFF0E016EAD
:1005DE00FF0E026E0F0E036E64D023C300F077C9B8
:1005EE007BF978C97CF979C97DF97AC97EF9005011
:1005FE0008E009017E337D337C337B337E9FFF0F12
:10060E00F7D705014B5109017B2705014C51090113
:10061E007C2305014D5109017D2305014E51090130
:10062E007E23BDDE0050000A09E0FF0E006EFF0EB5
:10063E00016EFF0E026E0F0E036E33D01FC300F05D
:10064E0020C301F021C302F022C303F0010E005EAD
:10065E00000E015A025A035A005009017715046E12
:10066E0001507815056E02507915066E03507A15F5
:10067E00076E04C000F005C001F000360090013690
:10068E000036009001362D0E0024E96E030E012077
:10069E00EA6EEECF00F0EECF01F0EECF02F0EECF2D
:0406AE0003F0120043
:1006B20048DD000E000A03E1040E0101E11909E11F
:1006C20060C964F961C965F962C966F963C967F904
:1006D20014D0090E006E60C964F961C965F962C976
:1006E20066F963C967F9005008E00901643764914B
:1006F200653766376737FF0FF7D70901120E936F19
:1007020064C994F965C995F966C996F967C997F9F3
:10071200FF0E986FADDC005204E09DDC010E006E0E
:0607220001D0006A120084
:1007280060C977F910DF005211E160C977F917DF66
:1007380000520CE160C977F9A0DE005207E160C9F8
:1007480077F9A7DE005202E1006A02D0010E006EBE
:0207580012008D
:10075A00BCDE0901626B636B020E635D02E1000E8F
:10076A00625D1BE262516025646F63516121656FAE
:10077A0027C7E1FF28C7E2FFFF0EE66E25C700F094
:10078A0026C701F058DC64C9E1FF65C9E2FF00C071
:10079A00E6FF0901624B632BDFD727C7E1FF28C7B2
:1007AA00E2FFFF0EE66E25C700F026C701F043DC24
:1007BA0027C7E1FF28C7E2FFFF0EE66E25C700F054
:0807CA0026C701F038DC120023
:1007D20029C372F92AC373F92BC374F92CC375F9AF
:1007E20060C96AF961C96BF962C96CF963C96DF9CB
:1007F200050152510901635D0EE1050151510901E3
:10080200625D09E1050150510901615D04E10501E3
:100812004F510901605D15E30501305109016D5D1C
:100822000EE105012F5109016C5D09E105012E510F
:1008320009016B5D04E105012D5109016A5D01E2C7
:1008420006D0F40E0301286FFF0E006ECED0090110
:10085200766B8EC600F064C901F065C902F066C904
:1008620003F067C904F0005007E004320332023299
:100872000132049EFF0FF8D70450000809E103502B
:10088200000806E10250000803E109010150765D0B
:1008920055E26AC977F96BC978F96CC979F96DC9FA
:1008A2007AF96CDE00C06AF901C06BF902C06CF91A
:1008B20003C06DF903500F0A08E10250FF0A05E177
:1008C2000150FF0A02E10050FF0A06E1F10E0301A6
:1008D200286FFF0E006E89D00501525109016D5D2E
:1008E2000EE10501515109016C5D09E1050150510B
:1008F20009016B5D04E105014F5109016A5D15E3D0
:100902000501305109016D5D0EE105012F5109010B
:100912006C5D09E105012E5109016B5D04E10501E0
:100922002D5109016A5D01E206D0F40E0301286F20
:10093200FF0E006E5AD00901762B8BD709011BC31B
:1009420000F01CC301F01DC302F01EC303F0010E30
:10095200005E000E015A025A035A005064156E6F6F
:10096200015065156F6F02506615706F0350671561
:10097200716F6AC977F96BC978F96CC979F96DC970
:100982007AF9B7DD8DC608F06EC904F06FC905F0BB
:1009920070C906F071C907F0085007E00732063245
:1009A20005320432079EFF0FF8D768C9E1FF69C913
:1009B200E2FF04500024E66E05500120E66E065068
:1009C2000220E66E07500320E66E72C97BF973C9F6
:1009D2007CF974C97DF975C97EF9E7DC0050000A1B
:0C09E20003E0FF0E006E01D0006A12005E
:1009EE00090160515A0804E3410E605DD8B0608B76
:0609FE0060C900F01200C8
:100A040062C904F063C905F060C902F061C903F06A
:100A140064C900F065C901F0010E0901645F000EAC
:100A2400655B005001100FE004C0E9FF05C0EAFF58
:100A340002C0E1FF03C0E2FFEECFE6FF024A032A51
:100A4400044A052AE5D760C900F061C901F0120023
:100A54000B6A0A6A096A00500402F4CF09F0F3CF62
:100A640008F001500502F4CF0BF0F3CF0AF0005068
:100A74000502F3500926F4500A22E86A0B220150B9
:100A84000402F3500926F4500A22E86A0B2208C033
:100A940000F009C001F00AC002F00BC003F012001C
:0E0AA4004CC960F94DC961F956DE006A1200B6
:100AB200056A046A0B0E055C22E2010E0414016E43
:100AC200070E006E01C003F0005004E003360390ED
:100AD200FF0FFBD7FE0E0414026E02C000F00032BC
:100AE200009E00500310046E055009014C25D96E7A
:100AF200000E4D21DA6EDE500426052ADBD704C033
:040B020000F01200ED
:100B0600010E09014C25E96E000E4D21EA6E4EC913
:100B1600E1FF4FC9E2FFEECFE6FF010E4E25E16E83
:100B2600000E4F21E26E030E4C25E96E000E4D219C
:100B3600EA6EEECFE6FF020E4E25E16E000E4F2165
:100B4600E26E050E4C25E96E000E4D21EA6EEECFE3
:100B5600E6FF030E4E25E16E000E4F21E26E070EF4
:100B66004C25E96E000E4D21EA6EEECFE6FF040E2F
:100B76004E25E16E000E4F21E26E090E4C25E96E00
:100B8600000E4D21EA6EEECFE6FF050E4E25E16E14
:100B9600000E4F21E26E0E0E4C25E96E000E4D2121
:100BA600EA6EEECFE6FF060E4E25E16E000E4F21F1
:100BB600E26E100E4C25E96E000E4D21EA6EEECF68
:100BC600E6FF070E4E25E16E000E4F21E26E120E75
:100BD6004C25E96E000E4D21EA6EEECFE6FF080EBB
:100BE6004E25E16E000E4F21E26E140E4C25E96E85
:100BF600000E4D21EA6EEECFE6FF090E4E25E16EA0
:100C0600000E4F21E26E160E4C25E96E000E4D21A8
:100C1600EA6EEECFE6FF0A0E4E25E16E000E4F217C
:100C2600E26E180E4C25E96E000E4D21EA6EEECFEF
:100C3600E6FF0B0E4E25E16E000E4F21E26E1C0EF6
:100C46004C25E96E000E4D21EA6EEECFE6FF0C0E46
:100C56004E25E16E000E4F21E26E1E0E4C25E96E0A
:0E0C6600000E4D21EA6EEECFE6FF006A12008E
:100C74004CC960F94DC961F94EC962F94FC963F9AC
:100C840016DD0050000A03E0FF0E006E01D0006A7A
:020C940012004C
:100C96004CC960F94DC961F94EC962F94FC963F98A
:100CA60050C964F951C965F952C966F953C967F95A
:100CB60054C968F955C969F989DD0050000A03E08D
:100CC600FF0E006E15D054C9E9FF55C9EAFFEECFF5
:100CD6007BF9EECF7CF9EECF7DF9EECF7EF9D6EC3F
:100CE60001F00050000A03E0FF0E006E01D0006A1A
:020CF6001200EA
:100CF800A2EC00F0000E000A03E1040E0101E11964
:100D080009E14CC954F94DC955F94EC956F94FC9AD
:100D180057F914D0090E006E4CC954F94DC955F94C
:100D28004EC956F94FC957F9005008E00901543720
:100D38005491553756375737FF0FF7D70901180E13
:100D4800936F54C994F955C995F956C996F957C975
:100D580097F9FF0E986F39EC00F0005205E02CEC83
:100D680000F0010E006E95D027C7E1FF28C7E2FF0B
:100D7800FF0EE66E25C700F026C701F020EC00F054
:100D880027C7E1FF28C7E2FFFF0EE66E25C700F080
:100D980026C701F020EC00F027C7E1FF28C7E2FFD3
:100DA800FE0EE66E25C700F026C701F020EC00F025
:100DB8000901526B536B5351010802E15251FF086C
:100DC80016E352515025E96E53515121EA6E27C757
:100DD800E1FF28C7E2FFEECFE6FF25C700F026C7F0
:100DE80001F020EC00F00901524B532BE4D727C740
:100DF800E1FF28C7E2FFFF0EE66E25C700F026C711
:100E080001F020EC00F027C7E1FF28C7E2FFFF0E42
:100E1800E66E25C700F026C701F020EC00F027C7D2
:100E2800E1FF28C7E2FFFF0EE66E25C700F026C7E0
:100E380001F020EC00F000C052F9000E0901536FD8
:100E48001F0E5215016E53C902F0000E021601C0A2
:100E580052F902C053F9000E021802E1050E0118FA
:100E680005E02CEC00F0020E006E13D027C7E1FF5E
:100E780028C7E2FFFF0EE66E25C700F026C701F07F
:100E880020EC00F00050FF0A01E0F0D72CEC00F055
:040E9800006A1200DA
:100E9C00530E0901606F090E616F4CC962F94DC99F
:100EAC0063F90B0E646F000E656FA6DD506B0B0EB5
:100EBC00505D3EE2526B530EE96E090EEA6E5051D4
:100ECC00E926D8B0EA2AEECF60F928DC0050010AF6
:100EDC0003E1010E0901526F0901530EE96E090E6F
:100EEC00EA6E5051E926D8B0EA2AEE50200A02E107
:100EFC00010E526F530EE96E090EEA6E5051E9263F
:100F0C00D8B0EA2AEE502E0A02E1010E526F52516D
:100F1C00000A0BE14EC9E1FF4FC9E2FFE66AC40EBD
:100F2C000301286FFF0E006EB3D00901502BBFD701
:100F3C00516B506B080E505D42E2530EE96E090E78
:100F4C00EA6E5051E926D8B0EA2AEE50200A33E076
:100F5C000C0E4C25E96E000E4D21EA6EEECF01F021
:100F6C0001A618D051514E255E6F000E4F215F6FB8
:100F7C00530EE96E090EEA6E5051E926D8B0EA2AF2
:100F8C00EECF60F92EDD5EC9E1FF5FC9E2FF00C064
:100F9C00E6FF10D051514E25E16E000E4F21E26E4E
:100FAC00530EE96E090EEA6E5051E926D8B0EA2AC2
:100FBC00EECFE6FF01D003D0512B502BBBD75B51AA
:100FCC00200A09E151514E25E16E000E4F21E26ECF
:100FDC00E66A006A5DD051514E25E16E000E4F213C
:100FEC00E26E2E0EE66E512B080E506F0B0E505DFE
:100FFC0046E2530EE96E090EEA6E5051E926D8B05E
:10100C00EA2AEECF60F994EC03F00050000A01E1FB
:10101C0036D00C0E09014C25E96E000E4D21EA6EFE
:10102C00EECF01F001A818D051514E255E6F000E85
:10103C004F215F6F530EE96E090EEA6E5051E9268F
:10104C00D8B0EA2AEECF60F9CCDC5EC9E1FF5FC90B
:10105C00E2FF00C0E6FF10D051514E25E16E000EAC
:10106C004F21E26E530EE96E090EEA6E5051E926DD
:10107C00D8B0EA2AEECFE6FF512B502BB7D7090197
:10108C0051514E25E16E000E4F21E26EE66A006A68
:02109C00120040
:10109E00026A080E025C17E21E0E0224F66E860E1F
:1010AE00F76E000EF722000EF86E000EF822090001
:1010BE00F5CF01F001500801FE1903E1010E006E9B
:0A10CE0003D0022AE6D7006A1200E0
:1010D80006018C51030A0BE1A9EC01F00050000A4B
:1010E80006E0FF0E0301286FFF0E006E50D00601C8
:1010F8008C51010A06E1FF0E0301286FFF0E006EF6
:1011080046D003012C51090110190EE103012B519E
:1011180009010F1909E103012A5109010E1904E116
:101128000301295109010D1905E1020E06018C6F11
:10113800006A2DD00DC94CF90EC94DF90FC94EF9E9
:1011480010C94FF993DD0050000A06E0FF0E0301B5
:10115800286FFF0E006E1BD02D0E09014C6F030E79
:101168004D6F9CDC0050000A06E0FF0E0301286F5B
:10117800FF0E006E0CD0010E06018C6F0DC929F30D
:101188000EC92AF30FC92BF310C92CF3006A1200F9
:101198000DC94CF90EC94DF90FC94EF910C94FF9CF
:1011A80011C950F912C951F9A3DD0050000A03E032
:0A11B800FF0E006E01D0006A120065
:1011C2000DC902F00EC903F010C900F011C901F0F7
:1011D200010E0901105F000E115B0050011009E0C1
:1011E20002C0E1FF03C0E2FF0FC9E6FF024A032A81
:0C11F200EBD70DC900F00EC901F012008F
:1011FE000FC94CF910C94DF911C94EF912C94FF961
:10120E0013C950F914C951F915C952F916C953F930
:10121E00480E0901546F090E556F36DD0050000A55
:10122E0003E0FF0E006EA6D165C500F066C501F0A5
:10123E0067C502F068C503F0010E005E000E015A8C
:10124E00025A035A005009011315046E0150141569
:10125E00056E02501515066E03501615076E050E17
:10126E00026E04C000F005C001F0025005E0003629
:10127E0000900136FF0FFAD709012D0E0024466F9C
:10128E00030E0120476F010E0801FE6F080EFE5D72
:10129E000EE2FE5109014625E96E000E4721EA6E67
:1012AE00EE507E0A01E103D00801FE2BEFD70801B4
:1012BE00FE51080A0AE146C94CF947C94DF90DC954
:1012CE004EF90EC94FF9E3DD55D1260E0901606FB7
:1012DE00090E616F46C962F947C963F9200E646F42
:1012EE00000E656F02EC05F00FC94CF910C94DF9EF
:1012FE0011C94EF912C94FF9010E135F000E145B9E
:10130E00155B165B13C950F914C951F915C952F979
:10131E0016C953F9480E546F090E556FB5DC0050BF
:10132E00000A03E0FF0E006E25D165C500F066C50C
:10133E0001F067C502F068C503F0010E005E000EF5
:10134E00015A025A035A005009011315046E015036
:10135E001415056E02501515066E03501615076E00
:10136E00050E026E04C000F005C001F0025005E04B
:10137E00003600900136FF0FFAD72D0E0026030E11
:10138E00012200C024F901C025F90B0E0024E96EDC
:10139E00000E0120EA6E3F0EEE14016E01500F0A90
:1013AE000BE00901260E4C6F090E4D6F0DC94EF95B
:1013BE000EC94FF96CDDDED0260E09014C6F090EF9
:1013CE004D6F59EC05F000C000F9010E0801FF6FDA
:1013DE000B0E09012425E96E000E2521EA6E3F0E43
:1013EE00EE14016E01500F0A06E0C00E0301286FC5
:1013FE00FF0E006EBFD00D0E09012425E96E000E02
:10140E002521EA6EEE50001906E0C10E0301286F89
:10141E00FF0E006EAFD024C9E9FF25C9EAFFEECF5B
:10142E0000F01F0E0014016E01500801FF1906E0B6
:10143E00C20E0301286FFF0E006E9CD024C94CF91A
:10144E0025C94DF9170E09014E6F090E4F6F83EC2A
:10145E0005F00801FE6BFF05006E016A000E015AD1
:10146E000D0E046E000E056E2AEC05F0FE510026E0
:10147E00000E0122005009010D25E16E01500E21D2
:10148E00E26E170EE96E090EEA6E0801FE51E926AC
:10149E00D8B0EA2AEECFE6FFFE2B0D0EFE5D0CE273
:1014AE00170EE96E090EEA6EFE51E926D8B0EA2A49
:1014BE00EE50000A01E0CFD724C9E9FF25C9EAFFA3
:1014CE00EECF01F001AC02D0006A54D0FF2B0FC951
:1014DE004CF910C94DF911C94EF912C94FF9010E47
:1014EE000901135F000E145B155B165B13C950F9EF
:1014FE0014C951F915C952F916C953F9480E546F4A
:10150E00090E556F4BEC06F00050000A03E0FF0E7B
:10151E00006E30D065C500F066C501F067C502F0FB
:10152E0068C503F0010E005E000E015A025A035AFE
:10153E00005009011315046E01501415056E02506A
:10154E001515066E03501615076E050E026E04C0B5
:10155E0000F005C001F0025005E0003600900136A3
:10156E00FF0FFAD709012D0E0024246F030E012060
:06157E00256F2ED71200BC
:0E158400FEC8E9FFFFC8EAFFEECF00F012003C
:10159200010E0801FE25E96E000EFF21EA6EEECF74
:1015A20003F0000E046E000E046E03C001F0006A28
:1015B20000C003F001C004F0FEC8D9FFFFC8DAFF83
:1015C200DE500026000E012200C003F001C004F02C
:0A15D20000C003F001C004F0120095
:1015DC00030E0801FE25E96E000EFF21EA6EEECF28
:1015EC0009F0000E0A6E0B6E0C6E000E0A6E0B6E7E
:1015FC000C6E0BC003F00AC002F009C001F0006AC7
:10160C0000C009F001C00AF002C00BF003C00CF0DE
:10161C00020EFE25D96E000EFF21DA6EDE5000247C
:10162C00056E000E0120066E000E0220076E000EE5
:10163C000320086E05C009F006C00AF007C00BF0C5
:10164C0008C00CF007C003F006C002F005C001F0A2
:10165C00006A00C009F001C00AF002C00BF003C020
:10166C000CF0010EFE25D96E000EFF21DA6EDE5055
:10167C000024056E000E0120066E000E0220076E7F
:10168C00000E0320086E05C009F006C00AF007C062
:10169C000BF008C00CF007C003F006C002F005C048
:1016AC0001F0006A00C009F001C00AF002C00BF0A2
:1016BC0003C00CF0FEC8D9FFFFC8DAFFDE500026CD
:1016CC00000E01220222032200C009F001C00AF020
:1016DC0002C00BF003C00CF000C009F001C00AF00E
:0A16EC0002C00BF003C00CF0120066
:1016F60009017B6B7C6B7D6B7E6BD6EC01F0005039
:10170600000A03E0FF0E006E27D12D0E0801F86FC8
:10171600030EF96F2D0EFA6F030EFB6FFE0EF82502
:10172600FE6F010EF921FF6F31DF0150AA0A02E1B7
:10173600550E001806E0FC0E0301286FFF0E006E22
:101746000BD1FAC8E9FFFBC8EAFFEECF01F0015062
:10175600E90A15E0FAC8E9FFFBC8EAFFEECF01F097
:101766000150EB0A0BE1020E0801FA25E96E000EA4
:10177600FB21EA6EEE50900A01E101D006D0FB0E85
:101786000301286FFF0E006EE7D00801F76B010E0C
:10179600F75DD8B0E0D00A0E006E000E016EF7C8F5
:1017A60004F0000E056E2AEC05F0350E0026050E37
:1017B600012200C0FCF801C0FDF8BE0EF825FE6F40
:1017C600010EF921FF6F040E026EF7C800F0000E3D
:1017D600016E025005E0003600900136FF0FFAD781
:1017E6000050FE270150FF23CADEFCC8E1FFFDC8FA
:1017F600E2FF00C0E6FF0A0E006E000E016EF7C89B
:1018060004F0000E056E2AEC05F0350E0026050ED6
:101816000122010E0024FC6F000E0120FD6FBE0E9A
:10182600F825FE6F010EF921FF6F040E026EF7C850
:1018360000F0000E016E025005E000360090013601
:10184600FF0FFAD70050FE270150FF23040EFE2794
:10185600000EFF2394DEFCC8E1FFFDC8E2FF00C0D6
:10186600E6FF0A0E006E000E016EF7C804F0000EC9
:10187600056E2AEC05F0350E0026050E0122020E35
:101886000024FC6F000E0120FD6FBE0EF825FE6FD2
:10189600010EF921FF6F040E026EF7C800F0000E6C
:1018A600016E025005E0003600900136FF0FFAD7B0
:1018B6000050FE270150FF23080EFE27000EFF23CF
:1018C6008ADEFCC8E1FFFDC8E2FF00C0E6FF01C0FA
:1018D600E6FF02C0E6FF03C0E6FF0A0E006E000E3A
:1018E600016EF7C804F0000E056E2AEC05F0350E01
:1018F6000026050E0122060E0024FC6F000E0120B4
:10190600FD6FBE0EF825FE6F010EF921FF6F040E66
:10191600026EF7C800F0000E016E025005E00036B8
:1019260000900136FF0FFAD70050FE270150FF2323
:101936000C0EFE27000EFF234EDEFCC8E1FFFDC89D
:10194600E2FF00C0E6FF01C0E6FF02C0E6FF03C0FB
:0A195600E6FFF72B1CD7006A120011
:10196000010E066E000E076E086E096E056A800E87
:10197000006E800E000A005C02E1200E055C23E28E
:1019800006500801F711016E0750F811026E085059
:10199000F911036E0950FA11046E0450091808E198
:1019A0000350081805E10250071802E1015006181B
:1019B00003E105C000F009D0063606900736083668
:0C19C0000936052AD4D7FF0E006E120075
:1019CC0006018C51030A0BE1A9EC01F00050000A4E
:1019DC0006E0FF0E0301286FFF0E006E33D00601E8
:1019EC008C51010A06E1FE0E0301286FFF0E006EFA
:1019FC0029D0F7C80DF9F8C80EF9F9C80FF9FAC8CB
:101A0C0010F92D0E0901116F030E126FCCEC08F0BA
:101A1C00000E00180EE0FF0E0301296FFF0E2A6F57
:101A2C00FF0E2B6FFF0E2C6FFE0E286FFF0E006E3D
:101A3C0009D0F7C829F3F8C82AF3F9C82BF3FAC868
:061A4C002CF3006A1200F9
:101A52000801F86BF96B270EF95D02E1100EF85DD3
:101A6200D8B0B3D0000E000A02E1000EF7191AE155
:101A7200A2EC00F0010E0901936F946B956B966BCB
:101A8200976BFF0E986F39EC00F000C0FAF82CEC5F
:101A920000F00801FA51000A04E10101E16B006A59
:101AA20096D08FD0A2EC00F0370E0901936F946BA1
:101AB200956B966B976BFF0E986F39EC00F000C038
:101AC200FAF82CEC00F00801FA51010AD8A478D0F7
:101AD200A2EC00F0290E0901936F000E946F000E24
:101AE200956F000E966F400E976FFF0E986F39EC50
:101AF20000F000C0FAF82CEC00F00801FA51000ADC
:101B02005EE1000E000A02E1020EF71953E1A2ECB7
:101B120000F03A0E0901936F946B956B966B976B7D
:101B2200FF0E986F39EC00F000C0FAF827C7E1FF0A
:101B320028C7E2FFFF0EE66E25C700F026C701F0B8
:101B420020EC00F000C0FBF827C7E1FF28C7E2FF46
:101B5200FF0EE66E25C700F026C701F020EC00F06C
:101B620027C7E1FF28C7E2FFFF0EE66E25C700F098
:101B720026C701F020EC00F027C7E1FF28C7E2FFEB
:101B8200FF0EE66E25C700F026C701F020EC00F03C
:101B92002CEC00F00801FA51000A0BE1FBAD04D075
:101BA200040E0101E16F03D00101030EE16F006A2F
:101BB2000ED005D00101010EE16F006A08D001D0FC
:101BC20004D00801F84BF92B46D7010E006E120023
:101BD200160E0801F725FE6F000EF821FF6FD8DC04
:101BE2000B0E046E00C002F001C003F0045005E0C9
:101BF20003320232039EFF0FFAD71F0E0214006E49
:101C020000C074F5160EF725FE6F000EF821FF6F67
:101C1200BFDC050E046E00C002F001C003F00450E8
:101C220005E003320232039EFF0FFAD73F0E021481
:101C3200006E00C075F5160EF725FE6F000EF82136
:101C4200FF6FA6DC00C002F0023602903F0E0214C3
:101C5200006E00C076F5180EF725FE6F000EF82113
:101C6200FF6F96DC090E046E00C002F001C003F0A3
:101C7200045005E003320232039EFF0FFAD77F0EB3
:101C82000214006E03C001F0000E011600C070F5D0
:101C920001C071F5BC0E0026070E012200C070F5CE
:101CA20001C071F5180EF725FE6F000EF821FF6FC7
:101CB2006FDC050E046E00C002F001C003F0045098
:101CC20005E003320232039EFF0FFAD70F0E021411
:101CD200006E00C072F5180EF725FE6F000EF82197
:101CE200FF6F56DC1F0E0014006E00C073F5006A11
:021CF2001200DE
:101CF4000E0E0801F725FE6F000EF821FF6F47DC7A
:101D04000B0E046E00C002F001C003F0045005E0A5
:101D140003320232039EFF0FFAD71F0E0214006E25
:101D240000C06DF50E0EF725FE6F000EF821FF6F53
:101D34002EDC050E046E00C002F001C003F0045056
:101D440005E003320232039EFF0FFAD73F0E02145E
:101D5400006E00C06EF50E0EF725FE6F000EF82122
:101D6400FF6F15DC00C002F0023602903F0E021431
:101D7400006E00C06FF5100EF725FE6F000EF821FF
:101D8400FF6F05DC090E046E00C002F001C003F011
:101D9400045005E003320232039EFF0FFAD77F0E90
:101DA4000214006E03C001F0000E011600C069F5B4
:101DB40001C06AF5BC0E0026070E012200C069F5B9
:101DC40001C06AF5100EF725FE6F000EF821FF6FB3
:101DD400C9EC0AF0050E046E00C002F001C003F065
:101DE400045005E003320232039EFF0FFAD70F0EB0
:101DF4000214006E00C06BF5100EF725FE6F000E86
:101E0400F821FF6FC9EC0AF01F0E0014006E00C029
:061E14006CF5006A1200EB
:101E1A00FF0E090103250801F76F000E09010421CD
:101E2A000801F86F0B0E090101250801FE6F000E6B
:101E3A00090102210801FF6FC2EC0AF0F7C8E1FFAD
:101E4A00F8C8E2FF00C0E6FF000E090103250801F9
:101E5A00F76F010E090104210801F86F1C0E090130
:101E6A0001250801FE6F000E090102210801FF6F1A
:101E7A00EEEC0AF0F7C8E1FFF8C8E2FF00C0E6FF9F
:101E8A0001C0E6FF02C0E6FF03C0E6FF040E090137
:101E9A0003250801FB6F010E090104210801FC6FEB
:101EAA00140E090101250801FE6F000E0901022125
:101EBA000801FF6FC9EC0AF000C003F001C004F08A
:101ECA00000E056E066E04C0FAF803C0F9F8F76B47
:101EDA00F86B1A0E090101250801FE6F000E0901AF
:101EEA0002210801FF6FC9EC0AF0000E026E036EB0
:101EFA00F7510026F8510122F9510222FA51032220
:101F0A00FBC8E1FFFCC8E2FF00C0E6FF01C0E6FF34
:101F1A0002C0E6FF03C0E6FF0B0E09010125E96EC8
:101F2A00000E0221EA6E3F0EEE14016E01500F0AF6
:101F3A0028E003C90DF904C90EF90F6BFF0E106FE3
:101F4A00000E116FE1EC08F003C90DF904C90EF98E
:101F5A0005C90FF906C910F907C911F908C912F913
:101F6A0009C913F90AC914F90BC915F90CC916F9E3
:101F7A00FFEC08F00050000A03E0FF0E006E07D0E5
:101F8A0005D003C9E1FF04C9E2FFE66A006A12004C
:101F9A00FBC801F0FCC802F0010E0801FB5F000E4D
:101FAA00FC5B000E021802E1000E01181FE0F7C8E0
:101FBA00E9FFF8C8EAFFF9C8D9FFFAC8DAFFEE5014
:101FCA00DE180FE0F7C8E9FFF8C8EAFFF9C8D9FF39
:101FDA00FAC8DAFFDE50EE5C006E016A000E015AA2
:101FEA0007D0F74BF82BF94BFA2BD2D7006A016AC4
:021FFA001200D3
:101FFC00F7C860F994EC03F0005208E1F7C8FEF85A
:10200C004FEC08F0005202E1006A02D0010E006EA3
:02201C001200B0
:10201E000B1E0A1E091E081E082AD8B4092AD8B497
:08202E000A2AD8B40B2A1200A3
:102036000450085E0550D8A0053C095E0650D8A09D
:10204600063C0A5E0750D8A0073C0B5E0336070E17
:102056000C6E0334083609360A360B36045003A0D4
:102066000ED0085E0550D8A0053C095E0650D8A0E3
:10207600063C0A5E0750D8A0073C0B5E0DD008262A
:102086000550D8B0053C09260650D8B0063C0A26AD
:102096000750D8B0073C0B2603360C2EDAD702348D
:1020A600083609360A360B36045003A00ED0085EF1
:1020B6000550D8A0053C095E0650D8A0063C0A5E2D
:1020C6000750D8A0073C0B5E0DD008260550D8B0A7
:1020D600053C09260650D8B0063C0A260750D8B05B
:1020E600073C0B260236070E0C6E023408360936FC
:1020F6000A360B36045002A00ED0085E0550D8A052
:10210600053C095E0650D8A0063C0A5E0750D8A0DA
:10211600073C0B5E0DD008260550D8B0053C0926B5
:102126000650D8B0063C0A260750D8B0073C0B2606
:1021360002360C2EDAD70134083609360A360B3643
:10214600045002A00ED0085E0550D8A0053C095EDA
:102156000650D8A0063C0A5E0750D8A0073C0B5E86
:102166000DD008260550D8B0053C09260650D8B033
:10217600063C0A260750D8B0073C0B260136070E48
:102186000C6E0134083609360A360B36045001A0A7
:102196000ED0085E0550D8A0053C095E0650D8A0B2
:1021A600063C0A5E0750D8A0073C0B5E0DD00826F9
:1021B6000550D8B0053C09260650D8B0063C0A267C
:1021C6000750D8B0073C0B2601360C2EDAD7003460
:1021D600083609360A360B36045001A00ED0085EC2
:1021E6000550D8A0053C095E0650D8A0063C0A5EFC
:1021F6000750D8A0073C0B5E0DD008260550D8B076
:10220600053C09260650D8B0063C0A260750D8B029
:10221600073C0B260036070E0C6E003408360936CE
:102226000A360B36045000A00ED0085E0550D8A022
:10223600053C095E0650D8A0063C0A5E0750D8A0A9
:10224600073C0B5E0DD008260550D8B0053C092684
:102256000650D8B0063C0A260750D8B0073C0B26D5
:1022660000360C2EDAD700B00ED0045008260550E2
:10227600D8B0053C09260650D8B0063C0A260750B9
:08228600D8B0073C0B26120042
:10228E000134083609360450085E0550D8A0053CC6
:10229E00095E003601360F0E0C6E01340836093613
:1022AE00045000A006D0085E0550D8A0053C095E7B
:1022BE0005D008260550D8B0053C09260036013653
:1022CE000C2EEBD700B006D0045008260550D8B01F
:0822DE00053C09260000120076
:1022E6000801F7517A0804E3610EF75DD8B0F79B51
:0622F600F7C800F0120021
:1022FC00F7C802F0F8C803F002C000F003C001F008
:10230C00024A032A00C0E9FF01C0EAFFEE5201E0D5
:10231C00F3D70801F751025C006EF8510358016EB7
:0A232C00010E005E000E015A1200BF
:1023360006018C51020A17E1010E03012925090144
:102346000D6F000E03012A2109010E6F000E030115
:102356002B2109010F6F000E03012C210901106FBB
:102366006CEC08F030D006018C51000A06E1FF0E35
:102376000301286FFF0E006E26D02D0E09014C6F4B
:10238600030E4D6F52EC05F00050000A06E0FF0EFA
:102396000301286FFF0E006E16D00301010E2925DA
:1023A600006E000E2A21016E000E2B21026E000E19
:1023B6002C21036E00C029F301C02AF302C02BF3BF
:0823C60003C02CF3006A1200B1
:1023CE00050E0101E16F95982CEC00F00801D66B1B
:1023DE00D76B000ED75D02E10A0ED65D10E227C75D
:1023EE00E1FF28C7E2FFFF0EE66E25C700F026C705
:1023FE0001F020EC00F00801D64BD72BEAD7A2EC67
:10240E0000F00901936B946B956B966B976B950E21
:10241E00986F39EC00F000C0D8F82CEC00F00801F1
:10242E00D851010A03E0010E006E85D0A2EC00F037
:10243E00080E0901936FAA0E946F010E956F000E90
:10244E00966F976F870E986F39EC00F000C0D8F832
:10245E0027C7E1FF28C7E2FFFF0EE66E25C700F093
:10246E0026C701F020EC00F027C7E1FF28C7E2FFE6
:10247E00FF0EE66E25C700F026C701F020EC00F037
:10248E0027C7E1FF28C7E2FFFF0EE66E25C700F063
:10249E0026C701F020EC00F027C7E1FF28C7E2FFB6
:1024AE00FF0EE66E25C700F026C701F020EC00F007
:1024BE002CEC00F00801D851010A0BE0010EF76F69
:1024CE0029EC0DF0005204E00801F76B29EC0DF039
:1024DE0005D0020E0801F76F29EC0DF0000E000A70
:1024EE0003E1050E0101E11903E1020E006E23D096
:1024FE00000E000A03E10101040EE1191BE0A2EC3B
:10250E0000F0100E0901936F000E946F020E956F7E
:10251E00000E966F976FFF0E986F39EC00F000C0AB
:10252E00D8F82CEC00F00801D851000A03E0030E95
:08253E00006E01D0006A1200DA
:1025460061C5D6F862C5D7F863C5D8F864C5D9F8A9
:1025560005015251645D08E15151635D05E1505139
:10256600625D02E14F51615D14E330510801D95DAE
:102576000EE105012F510801D85D09E105012E5133
:102586000801D75D04E105012D510801D65D01E280
:1025960008D04FC5D6F850C5D7F851C5D8F852C59A
:1025A600D9F8D6C8DAF8D7C8DBF8D8C8DCF8D9C85D
:1025B600DDF823C304F0D6C800F0D7C801F0D8C8A8
:1025C60002F0D9C803F0045007E0033202320132A8
:1025D6000032039EFF0FF8D7005005014B25090175
:1025E6000D6F015005014C2109010E6F02500501C6
:1025F6004D2109010F6F035005014E210901106F8E
:102606001FC300F020C301F021C302F022C303F070
:10261600010E005E000E015A025A035A00500801CC
:10262600D615046E0150D715056E0250D815066EE4
:102636000350D915076E04C000F005C001F000363E
:10264600009001360036009001362D0E0024DE6F14
:10265600030E0120DF6F6CEC08F00050000A09E061
:10266600FF0E006EFF0E016EFF0E026E0F0E036E62
:102676006DD10801E06BDEC8E9FFDFC8EAFFEECFE7
:1026860001F0EECF02F0EECF03F0EECF04F00450EF
:10269600000A08E10350000A05E10250000A02E1BF
:1026A6000150000A04E10801010EE06FC1D00801E3
:1026B600040EDE27000EDF23010ED627000ED723D9
:1026C600D823D923050130510801D95D0EE1050152
:1026D6002F510801D85D09E105012E510801D75D8A
:1026E60004E105012D510801D65DD8A077D04FC56C
:1026F600D6F850C5D7F851C5D8F852C5D9F8A9ECBF
:1027060001F00050000A09E0FF0E006EFF0E016E98
:10271600FF0E026E0F0E036E19D123C304F0D6C846
:1027260000F0D7C801F0D8C802F0D9C803F00450A9
:1027360007E00332023201320032039EFF0FF8D760
:10274600005005014B2509010D6F015005014C2173
:1027560009010E6F025005014D2109010F6F03504B
:1027660005014E210901106F1FC300F020C301F0BF
:1027760021C302F022C303F0010E005E000E015ACF
:10278600025A035A00500801D615046E0150D71597
:10279600056E0250D815066E0350D915076E04C093
:1027A60000F005C001F000360090013600360090BA
:1027B60001362D0E0024DE6F030E0120DF6F6CEC58
:1027C60008F00050000A09E0FF0E006EFF0E016ED1
:1027D600FF0E026E0F0E036EB9D01BD00801DF513B
:1027E60003011A1903E119510801DE1912E1080162
:1027F6002D0EDE6F030EDF6F9BDD0050000A09E031
:10280600FF0E006EFF0E016EFF0E026E0F0E036EC0
:102816009DD00801D951DD1908E1D851DC1905E12F
:10282600D751DB1902E1D651DA1901E101D023D7DC
:10283600A9EC01F00050000A09E0FF0E006EFF0E41
:10284600016EFF0E026E0F0E036E80D00801E0537C
:1028560009E1FF0E006EFF0E016EFF0E026E0F0EF7
:10286600036E74D0DEC8E1FFDFC8E2FFFF0EE66E3E
:10287600FF0EE66EFF0EE66E0F0EE66E23C304F045
:10288600D6C800F0D7C801F0D8C802F0D9C803F0FE
:10289600045007E00332023201320032039EFF0F7A
:1028A600F8D7005005014B250801F76F01500501C7
:1028B6004C210801F86F025005014D210801F96FFE
:1028C600035005014E210801FA6FE6EC0CF00050AA
:1028D600000A07E0FF0E006EFF0E016E026E036E29
:1028E60035D005016051FF0A08E15F51FF0A05E195
:1028F6005E51FF0A02E15D51FF0A16E05DC500F078
:102906005EC501F05FC502F060C503F0010E005E12
:10291600000E015A025A035A00C05DF501C05EF569
:1029260002C05FF503C060F5D6C861F5D7C862F589
:10293600D8C863F5D9C864F5010E7B6FD6C800F018
:0E294600D7C801F0D8C802F0D9C803F01200BB
:1029540005013451FF0A08E13351FF0A05E1325100
:10296400FF0A02E13151FF0A06E1F60E0301286F66
:10297400FF0E006E89D224C3D8F825C3D9F826C324
:10298400DAF827C3DBF8050152510301275D0EE194
:10299400050151510301265D09E10501505103016F
:1029A400255D04E105014F510301245D15E3050193
:1029B40030510801DB5D0EE105012F510801DA5D9C
:1029C40009E105012E510801D95D04E105012D51EC
:1029D4000801D85D01E206D0F40E0301286FFF0E52
:1029E400006E52D20801E26B8EC600F031C501F0D0
:1029F40032C502F033C503F034C504F0005007E0DB
:102A04000432033202320132049EFF0FF8D704501D
:102A1400000809E10350000806E10250000803E140
:102A240008010150E25D56E2D8C877F9D9C878F9AF
:102A3400DAC879F9DBC87AF9BFEC02F000C0D8F83B
:102A440001C0D9F802C0DAF803C0DBF803500F0A5A
:102A540008E10250FF0A05E10150FF0A02E10050BB
:102A6400FF0A06E1F10E0301286FFF0E006E0CD27F
:102A7400050152510801DB5D0EE1050151510801C8
:102A8400DA5D09E1050150510801D95D04E1050150
:102A94004F510801D85D15E3050130510801DB5D94
:102AA4000EE105012F510801DA5D09E105012E51FE
:102AB4000801D95D04E105012D510801D85D01E249
:102AC40006D0F40E0301286FFF0E006EDDD108015D
:102AD400E22B8AD71BC300F01CC301F01DC302F014
:102AE4001EC303F0010E005E000E015A025A035A7F
:102AF4000050050131150801DE6F01500501321542
:102B04000801DF6F0250050133150801E06F03501F
:102B1400050134150801E16FD8C877F9D9C878F9E7
:102B2400DAC879F9DBC87AF97AEC02F08DC608F0D4
:102B3400DEC804F0DFC805F0E0C806F0E1C807F01D
:102B4400085007E00732063205320432079EFF0FB1
:102B5400F8D70450002409010D6F055001200E6FB1
:102B6400065002200F6F07500320106F65C500F058
:102B740066C501F067C502F068C503F0010E005E8A
:102B8400000E015A025A035A00500801DE15046E61
:102B94000150DF15056E0250E015066E0350E11575
:102BA400076E050E026E04C000F005C001F002506D
:102BB40005E0003600900136FF0FFAD708012D0E0C
:102BC4000024DC6F030E0120DD6F6CEC08F0005074
:102BD400000A03E0FF0E006E57D1DCC8E9FFDDC830
:102BE400EAFFEECF01F00150E50A0AE0DCC8E9FF94
:102BF400DDC8EAFFEECF01F0200E015C01E318D03E
:102C0400DCC8E9FFDDC8EAFFEECF01F0140E015C79
:102C14000EE20B0E0801DC25E96E000EDD21EA6EE2
:102C24003F0EEE14016E01500F0A01E101D09AD05B
:102C3400A9EC01F00050000A03E0FF0E006E24D15D
:102C44000B0E0801DC25E96E000EDD21EA6EEECFE5
:102C540001F001A631D0D6C80DF9D7C80EF9090183
:102C64000F6B100E106F010E116FE1EC08F0FF0EE8
:102C74000801D625E36F000ED721E46F0B0EDC2587
:102C8400FE6F000EDD21FF6FC2EC0AF0E3C8E1FF26
:102C9400E4C8E2FF00C0E6FFD6C860F9D7C861F90E
:102CA400DCC862F9DDC863F90B0E0901646F000E1C
:102CB400656F02EC05F04CD00801D651D71148E0FD
:102CC400DCC801F9DDC802F9D6C803F9D7C804F98C
:102CD40024C305F925C306F926C307F927C308F950
:102CE40031C509F932C50AF933C50BF934C50CF9F4
:102CF4000DEC0FF00050000A03E0FF0E006EC4D08C
:102D0400DCC8F7F8DDC8F8F87AEC0EF0DCC8F7F8A0
:102D1400DDC8F8F8E9EC0DF0080ED625E16E010ED9
:102D2400D721E26E24C3E6FF25C3E6FF26C3E6FFF0
:102D340027C3E6FF0C0ED625E16E010ED721E26E05
:102D440031C5E6FF32C5E6FF33C5E6FF34C5E6FF0D
:102D5400010E05013127000E322333233423010EE3
:102D6400006E92D0010E0801DE27000EDF23E0235F
:102D7400E123200EDC25016E000EDD21026E01C070
:102D8400DCF802C0DDF8010E05013127000E322304
:102D940033233423025003011A1902E11951011893
:102DA400D8A471D02D0E0801DC6F030EDD6FE15144
:102DB40003011E190EE10801E05103011D1909E187
:102DC4000801DF5103011C1904E10801DE5103016C
:102DD4001B1951E1A9EC01F00050000A03E0FF0EB9
:102DE400006E52D00801DE6BDF6BE06BE16BD8C87C
:102DF40077F9D9C878F9DAC879F9DBC87AF9BFEC78
:102E040002F000C0D8F801C0D9F802C0DAF803C053
:102E1400DBF803500F0A08E10250FF0A05E10150F4
:102E2400FF0A02E10050FF0A0BE1FF0E0501316FBA
:102E3400FF0E326FFF0E336FFF0E346F006A24D023
:102E4400D8C877F9D9C878F9DAC879F9DBC87AF932
:102E54007AEC02F000C00DF901C00EF902C00FF9BE
:102E640003C010F96CEC08F00050000A03E0FF0EF8
:102E7400006E0AD008D09BEC11F00050000A03E069
:0A2E8400FF0E006E01D0A9D6120067
:102E8E00160E0801D625006E000ED721016E010E1A
:102E9E000024E16E000E0120E26E94C600F00036B2
:102EAE000090003600900036009000C0E6FF160E2F
:102EBE00D625006E000ED721016E010E0024026E83
:102ECE00000E0120036E95C600F00032009E003207
:102EDE00009E0032009E02C0E9FF03C0EAFFEE50E2
:102EEE00002602C0E1FF03C0E2FF00C0E6FF160E9F
:102EFE00D625E16E000ED721E26E050E016E95C647
:102F0E0000F0015004E000360090FF0FFBD700C028
:102F1E00E6FF160ED625026E000ED721036E96C65C
:102F2E0000F00032009E02C0E9FF03C0EAFFEE503F
:102F3E00002602C0E1FF03C0E2FF00C0E6FF180E4C
:102F4E00D625006E000ED721016E010E0024E16E13
:102F5E00000E0120E26EBC0E0601905D026E02C0F4
:102F6E0000F00036009000C0E6FF180E0801D625CE
:102F7E00006E000ED721016E010E0024026E000EAF
:102F8E000120036E92C600F00032009E0032009EB9
:102F9E000032009E02C0E9FF03C0EAFFEE50002699
:102FAE0002C0E1FF03C0E2FF00C0E6FF180ED62507
:102FBE00E16E000ED721E26E050E016E92C600F094
:102FCE00015004E000360090FF0FFBD700C0E6FF73
:102FDE00180ED625016E000ED721026E01C0E9FF34
:102FEE0002C0EAFF06019351EE24006E01C0E1FF1C
:0C2FFE0002C0E2FF00C0E6FF006A120003
:10300A007BEC0BF02D0E0801D76F030ED86F03016E
:10301A002851FF0A03E1FF0E006E6FD22851FC0A05
:10302A0003E1FF0E006E69D22851000AD8A466D0C7
:10303A000F0E05013615016E01C0D9F801500B0AB1
:10304A000AE00801D9510C0A06E0F80E0301286FBC
:10305A00FF0E006E52D237C57BF938C57CF939C5E7
:10306A007DF93AC57EF9D6EC01F00050000A03E07A
:10307A00FF0E006E42D22D0E0801D76F030ED86FD5
:10308A00FE0ED725FE6F010ED821FF6FC9EC0AF09C
:10309A000150AA0A02E1550E001806E0FC0E0301CF
:1030AA00286FFF0E006E29D2D7C8E9FFD8C8EAFFF9
:1030BA00EECF01F00150E90A16E0D7C8E9FFD8C8F7
:1030CA00EAFFEECF01F00150EB0A0BE1020E080114
:1030DA00D725E96E000ED821EA6EEE50900A01E17A
:1030EA0002D0006A02D0010E006E005206E1FB0E09
:1030FA000301286FFF0E006E00D21ED00301285173
:10310A00FB0A1AE1800E0501356F376B386B396B94
:10311A003A6B200E0801D725FE6F000ED821FF6FEB
:10312A00EEEC0AF000C03BF501C03CF502C03DF5EB
:10313A0003C03EF50301286B03012851000AD8A4F5
:10314A00D7D10B0E0801D725FE6F000ED821FF6FCD
:10315A00C9EC0AF000C03FF501C040F50D0ED725B5
:10316A00FE6F000ED821FF6FC2EC0AF000C041F5D5
:10317A000E0ED725FE6F000ED821FF6FC9EC0AF09C
:10318A0000C042F501C043F5100ED725FE6F000EB0
:10319A00D821FF6FC2EC0AF000C044F5240ED725EF
:1031AA00FE6F000ED821FF6FEEEC0AF000C045F565
:1031BA0001C046F502C047F503C048F5280ED725D9
:1031CA00FE6F000ED821FF6FC9EC0AF000C049F566
:1031DA0001C04AF5050142513725006E4351382195
:1031EA00016E000E3921026E000E3A21036E00C0F4
:1031FA004BF501C04CF502C04DF503C04EF52C0E3F
:10320A000801D725FE6F000ED821FF6FEEEC0AF0F9
:10321A0000C04FF501C050F502C051F503C052F588
:10322A00110ED725FE6F000ED821FF6FC9EC0AF0E8
:10323A0000C053F501C054F5300ED725FE6F000EBD
:10324A00D821FF6FC9EC0AF0000E026E036E050169
:10325A003751002638510122395102223A510322AC
:10326A0000C059F501C05AF502C05BF503C05CF510
:10327A004BC555F54CC556F54DC557F54EC558F5D0
:10328A000801D66B050144510801D65D18E2050113
:10329A0045515525006E46515621016E4751572119
:1032AA00026E48515821036E00C055F501C056F50B
:1032BA0002C057F503C058F50801D62BE3D7050E0F
:1032CA00006E3FC565F540C566F5000E0501676FDE
:1032DA00686F005005E066336533669FFF0FFAD7C3
:1032EA00000E676F686F3FC51FF340C520F3000EDD
:1032FA000301216F226F20331F33209F20331F3396
:10330A00209F000E216F226F3FC5F7F840C5F8F8DD
:10331A00000E0801F96FFA6FB0EC0CF000C000F76C
:10332A0041C5F7F8000E0801F86FF96FFA6FB0ECB3
:10333A000CF000C08FF665C5F7F866C5F8F867C5E2
:10334A00F9F868C5FAF8B0EC0CF000C08DF61FC3A6
:10335A00F7F820C3F8F821C3F9F822C3FAF8B0EC59
:10336A000CF000C023F306018F5107010025006EFF
:10337A0000C097F6010E016F000E026F000E036F78
:10338A00000E046F005007E001370191023703373E
:10339A000437FF0FF8D7200E0801F76F000EF86FF9
:1033AA00F96FFA6FB0EC0CF000500601975D006EF1
:1033BA00016A000E00BEFF0E015A00C004F0010EA1
:1033CA00006E000E016E000E026E000E036E0450B7
:1033DA0007E000360090013602360336FF0FF8D7B1
:1033EA0000C01BF301C01CF302C01DF303C01EF38F
:1033FA0000C0F7F801C0F8F802C0F9F803C0FAF8FB
:10340A00B0EC0CF000C08EF64FC524F350C525F37E
:10341A0051C526F352C527F30501316B326B336B65
:10342A00346B55C500F056C501F057C502F058C5B2
:10343A0003F03751005E3851015A3951025A3A5154
:10344A00035A3BC52DF53CC52EF53DC52FF53EC5A6
:10345A0030F500502D5F01502E5B02502F5B035058
:10346A00305B8FC600F0005007E030332F332E3325
:10347A002D33309FFF0FF8D7020E2D27000E2E2373
:10348A002F233023365320E1000E305D08E1000E71
:10349A002F5D05E1FF0E2E5D02E1F70E2D5D03E3C0
:1034AA000B0E366F11D0000E305D08E1000E2F5D55
:1034BA0005E10F0E2E5D02E1F70E2D5D03E3060E08
:1034CA00366F02D0010E366F0F0E3615016E01C02F
:1034DA00D9F801500B0A0AE00801D9510C0A06E092
:1034EA00F80E0301286FFF0E006E07D0006A05D0A0
:0C34FA000301FB0E286FFF0E006E120095
:103506001A0E0801D625E16E000ED721E26ED8C844
:10351600E6FF1A0ED625006E000ED721016E010EAB
:103526000024E16E000E0120E26ED9C8E6FF140EFB
:10353600D625E16E000ED721E26EDAC8E6FF140E3C
:10354600D625006E000ED721016E010E0024E16E15
:0E355600000E0120E26EDBC8E6FF006A1200E4
:1035640023C304F0DAC800F0DBC801F0DCC802F0C1
:10357400DDC803F0045007E00332023201320032A6
:10358400039EFF0FF8D700C0DFF801C0E0F802C0C7
:10359400E1F803C0E2F805014B510024086E4C51D8
:1035A4000120096E4D5102200A6E4E5103200B6E0C
:1035B40008C0DFF809C0E0F80AC0E1F80BC0E2F87F
:1035C4001FC300F020C301F021C302F022C303F0A3
:1035D400010E005E000E015A025A035A00500801FF
:1035E400DA15046E0150DB15056E0250DC15066E0B
:1035F4000350DD15076E04C000F005C001F000366D
:10360400009001360036009001362D0E0024E76F3D
:10361400030E0120E86F08C07BF909C07CF90AC0D9
:103624007DF90BC07EF9D6EC01F00050000A03E0EE
:10363400FF0E006E46D0E7C8E1FFE8C8E2FFD6C837
:10364400E6FFD7C8E6FFD8C8E6FFD9C8E6FFDFC85B
:10365400E3F8E0C8E4F8E1C8E5F8E2C8E6F80801F0
:10366400DE6B050144510801DE5D22E2E3C8F7F890
:10367400E4C8F8F8E5C8F9F8E6C8FAF8E6EC0CF09E
:103684000050000A03E0FF0E006E1BD005014551F7
:103694000801E327050146510801E42305014751C8
:1036A4000801E523050148510801E623DE2BD9D79B
:1036B400DFC829F3E0C82AF3E1C82BF3E2C82CF3EE
:0436C400006A120086
:1036C8000E0E0801D625006E000ED721016E010EE0
:1036D8000024E16E000E0120E26E94C600F0003670
:1036E8000090003600900036009000C0E6FF0E0EF5
:1036F800D625006E000ED721016E010E0024026E41
:10370800000E0120036E95C600F00032009E0032C4
:10371800009E0032009E02C0E9FF03C0EAFFEE509F
:10372800002602C0E1FF03C0E2FF00C0E6FF0E0E64
:10373800D625E16E000ED721E26E050E016E95C604
:1037480000F0015004E000360090FF0FFBD700C0E6
:10375800E6FF0E0ED625026E000ED721036E96C622
:1037680000F00032009E02C0E9FF03C0EAFFEE50FD
:10377800002602C0E1FF03C0E2FF00C0E6FF100E12
:10378800D625006E000ED721016E010E0024E16ED1
:10379800000E0120E26EBC0E0601905D026E02C0B2
:1037A80000F00036009000C0E6FF100E0801D62594
:1037B800006E000ED721016E010E0024026E000E6D
:1037C8000120036E92C600F00032009E0032009E77
:1037D8000032009E02C0E9FF03C0EAFFEE50002657
:1037E80002C0E1FF03C0E2FF00C0E6FF100ED625CD
:1037F800E16E000ED721E26E050E016E92C600F052
:10380800015004E000360090FF0FFBD700C0E6FF30
:10381800100ED625016E000ED721026E01C0E9FFF9
:1038280002C0EAFF06019351EE24006E01C0E1FFD9
:0C38380002C0E2FF00C0E6FF006A1200C0
:10384400D6C8F7F8D7C8F8F87EEC11F000C0DBF85A
:1038540001C0DCF8D8C8F7F8D9C8F8F87EEC11F044
:10386400DC51011802E10050DB1902E0006A2FD09C
:10387400DA6BD8C8F7F8D9C8F8F87EEC11F0800EE6
:10388400026E800E0118025C02E10050DA5D1DE256
:10389400DA51D625E96E000ED721EA6EEECFF7F89D
:1038A40073EC11F000C0DBF8DA51D825E96E000E94
:1038B400D921EA6EEECFF7F873EC11F0DB51001862
:1038C40002E0006A04D0DA2BD4D7010E006E120095
:1038D400086A080E0C6E003408360450085ED8B02E
:0E38E40002D00826D89000360C2EF5D7120020
:1038F20031C5EEF832C5EFF833C5F0F834C5F1F84A
:1039020024C34CF925C34DF926C34EF927C34FF9F9
:1039120031C550F932C551F933C552F934C553F99D
:10392200F20E0901546F080E556F4BEC06F0005071
:10393200000A03E0FF0E006E7CD165C500F066C58B
:1039420001F067C502F068C503F0010E005E000ECB
:10395200015A025A035A005005013115046E0150F2
:103962003215056E02503315066E03503415076E7C
:1039720004C0EAF805C0EBF806C0ECF807C0EDF8A1
:10398200050E026E04C000F005C001F0025005E011
:10399200003600900136FF0FFAD72D0E00240901E0
:1039A2004C6F030E01204D6F010E0801D96F59ECC7
:1039B20005F000C0DAF8010E0501315F000E325B3E
:1039C200335B345B000E006E0801ED1908E1005014
:1039D200EC1905E10050EB1902E1EA51000A2CE171
:1039E2001BC3EAF81CC3EBF81DC3ECF81EC3EDF8C9
:1039F200010EEA5F000EEB5BEC5BED5B24C34CF95E
:103A020025C34DF926C34EF927C34FF931C550F9E5
:103A120032C551F933C552F934C553F9F20E0901D1
:103A2200546F080E556F4BEC06F00050000A03E08D
:103A3200FF0E006EFED007D0010E0801EA5F000EF5
:103A4200EB5BEC5BED5B080165C500F066C501F060
:103A520067C502F068C503F0010E005E000E015A50
:103A6200025A035A0050EA15046E0150EB15056E16
:103A72000250EC15066E0350ED15076E050E026E30
:103A820004C000F005C001F0025005E000360090CD
:103A92000136FF0FFAD72D0E0026030E012200C0B9
:103AA200E8F801C0E9F80B0E0024E96E000E0120CF
:103AB200EA6E3F0EEE14016E01500F0A06E0C00ED0
:103AC2000301286FFF0E006EB4D00D0E0801E82529
:103AD200E96E000EE921EA6EEE50DA1906E0C10E37
:103AE2000301286FFF0E006EA4D0E8C8E9FFE9C801
:103AF200EAFFEECF00F01F0E0014016E0150080124
:103B0200D91906E0C20E0301286FFF0E006E91D094
:103B1200E8C84CF9E9C84DF9DB0E09014E6F080EF1
:103B22004F6F83EC05F00801D86BDB0EE96E080ECF
:103B3200EA6ED851E926D8B0EA2AEECFF7F873EC4C
:103B420011F000C0F6F8D905006E016A000E015AA4
:103B52000D0E046E000E056E2AEC05F0D8510026FB
:103B6200000E01220050D625E96E0150D721EA6EDF
:103B7200EECFF7F873EC11F0F65100180AE0EEC838
:103B820031F5EFC832F5F0C833F5F1C834F5006A03
:103B920050D0D82B0D0ED85D0CE2DB0EE96E080E6C
:103BA200EA6ED851E926D8B0EA2AEE50000A01E0BE
:103BB200BCD70D0ED85D2AE2DB0EE96E080EEA6E66
:103BC200D851E926D8B0EA2AD905006E016A000E5A
:103BD200015A0D0E046E000E056E2AEC05F0D85146
:103BE2000026000E01220050D625D96E0150D721A1
:103BF200DA6EEE50DE180AE0EEC831F5EFC832F5A3
:103C0200F0C833F5F1C834F5006A13D0D92BE8C8EF
:103C1200E9FFE9C8EAFFEECF01F001ACCCD6EEC86D
:103C220031F5EFC832F5F0C833F5F1C834F5010EBD
:043C3200006E12000E
:103C360024C3DAF825C3DBF826C3DCF827C3DDF88E
:103C46000501316B326B336B346B05015251080140
:103C5600DD5D0EE1050151510801DC5D09E105015B
:103C660050510801DB5D04E105014F510801DA5DA1
:103C760015E3050130510801DD5D0EE105012F5107
:103C86000801DC5D09E105012E510801DB5D04E157
:103C960005012D510801DA5D01E206D0F40E03019B
:103CA600286FFF0E006EF7D02D0E0801E26F030E8F
:103CB600E36FDAC877F9DBC878F9DCC879F9DDC8CB
:103CC6007AF97AEC02F000C00DF901C00EF902C0D3
:103CD6000FF903C010F96CEC08F00050000A03E07D
:103CE600FF0E006ED8D00801DE6BDF6BE06BE16B78
:103CF60003011E510801E15D0EE103011D5108019A
:103D0600E05D09E103011C510801DF5D04E10301E7
:103D16001B510801DE5DD8B095D0E35103011A1995
:103D260003E119510801E2190DE108012D0EE26FB8
:103D3600030EE36F9BEC11F00050000A03E0FF0E48
:103D4600006EA9D0E2C8F7F8E3C8F8F8D6C8F9F8C3
:103D5600D7C8FAF80B0E0801FB6F000EFC6FCDEC0E
:103D66000FF0000E011802E1000E001858E1A9EC50
:103D760001F00050000A03E0FF0E006E8CD008012F
:103D8600D851D9113DE0E2C801F9E3C802F9D8C813
:103D960003F9D9C804F924C305F925C306F926C3CE
:103DA60007F927C308F931C509F932C50AF933C538
:103DB6000BF934C50CF90DEC0FF00050000A03E0C6
:103DC600FF0E006E68D0080E0801D825E16E010EC0
:103DD600D921E26E24C3E6FF25C3E6FF26C3E6FF2C
:103DE60027C3E6FF0C0ED825E16E010ED921E26E3F
:103DF60031C5E6FF32C5E6FF33C5E6FF34C5E6FF4B
:103E0600E2C8F7F8E3C8F8F87AEC0EF0E2C8F7F87B
:103E1600E3C8F8F8E9EC0DF0010E006E3CD008019D
:103E2600200EE227000EE323010EDE27000EDF231D
:103E3600E023E123010E05013127000E322333234F
:103E4600342356D7A9EC01F00050000A03E0FF0E18
:103E5600006E21D0DAC877F9DBC878F9DCC879F9C1
:103E6600DDC87AF9BFEC02F000C0DAF801C0DBF871
:103E760002C0DCF803C0DDF803500F0A08E1025067
:103E8600FF0A05E10150FF0A02E10050FF0A02E1C4
:083E9600006A01D0DAD6120027
:103E9E00010E0801DA6FDB6BDC6BDD6BDE6BDF6B4B
:103EAE00E06BD6C8E9FFD7C8EAFFEE50000A06E17C
:103EBE00C40E0301286FFF0E006EF2D0D6C8F7F8BD
:103ECE00D7C8F8F87EEC11F000C0D9F8D86BD6C878
:103EDE00F7F8D7C8F8F87EEC11F0800E026E800E5F
:103EEE000118025C02E10050D85D15E2D851D625CA
:103EFE00E96E000ED721EA6EEECFF7F8FEEC0FF06A
:103F0E00005206E1C30E0301286FFF0E006EC8D0EB
:103F1E000801D82BDCD7D905006E000ED9BFFF0ED5
:103F2E00016E000E015A0050D625E96E0150D721C0
:103F3E00EA6EEE502E0A02E1D907EDD7800E000A86
:103F4E00006E800ED919005C06E3E20E0301286FA5
:103F5E00FF0E006EA5D0D6C8F7F8D7C8F8F87EECDD
:103F6E0011F0800ED9BF7F0E026E800E0118025C1A
:103F7E0002E10050D95D09E2D951D625E16E000E5D
:103F8E00D9BFFF0ED721E26EE66AD86B800E006EA7
:103F9E00800ED9BF7F0E005C02E1D951D85D12E2CE
:103FAE00D851D625E96E000ED721EA6EEECFFEF877
:103FBE004FEC08F0005203E0010E006E71D00801C4
:103FCE00D82BE4D7800E0C0A006E800ED919005C37
:103FDE0003E2010E006E64D0D86B800E006E800E70
:103FEE00D9BF7F0E005C02E1D951D85D43E2D851B2
:103FFE00D625E96E000ED721EA6EEECF77F941ECA9
:10400E0002F0005204E0010E0801DB6F2CD0080113
:10401E00D851D625E96E000ED721EA6EEECF77F98C
:10402E00B3EC02F0005204E0010E0801DC6F1BD06D
:10403E000801D851D625E96E000ED721EA6EEE5052
:10404E002E0A11E1DE530CE1DB5304E0DC5302E0F7
:10405E00010EDD6F010EDE6FDA6BDB6BDC6B08D0F1
:10406E00010E006E1DD0DA5302E0DF2B01D0E02BE3
:10407E00D82BB3D7DB5304E0DC5302E0010EDD6F27
:10408E00DF51080804E3E051030801E303D0010EF9
:10409E00006E06D0DD5303E0020E006E01D0006A02
:0240AE001200FE
:1040B0000450000A12E10550000A0FE10650000A00
:1040C0000CE10750000A09E1FF0E006EFF0E016EC1
:1040D000FF0E026E7F0E036E99D00C6A07BE0C2A8B
:1040E0000D6A0B6A0A6A096A086A03500210011015
:1040F0000010D8B485D0035007180E6E0EBE0D1EEA
:1041000007AE0BD0041E051E061E071E042AD8B4D7
:10411000052AD8B4062AD8B4072A03AE0BD0001E4D
:10412000011E021E031E002AD8B4012AD8B4022A96
:10413000D8B4032A035007100E6E0EBE1DD01BEC20
:1041400010F00CBE36D00DAE5BD0001E011E021E5C
:10415000031E002AD8B4012AD8B4022AD8B4032AEC
:10416000081E091E0A1E0B1E082AD8B4092AD8B434
:104170000A2AD8B40B2A44D007AE15D003BE0DD0FE
:1041800003500B6E02500A6E0150096E0050086E0B
:10419000036A026A016A006AD6D7036A026A016A80
:1041A000006A002A000C031E021E011E001E0C8E57
:1041B000C6D7082AD8B4092AD8B40A2AD8B40B2AF0
:1041C0000450085CD8A4BFD70550095CD8A4BBD75D
:1041D00006500A5CD8A4B7D707500B5CD8A4B3D755
:1041E0000B6A0A6A096A086A002AD8B4012AD8B494
:1041F000022AD8B4032A03AEA6D70E6A0E88FF0C93
:0E4200000E6A0CA002D00FEC10F0000F12009E
:10420E000450000A08E10550000A05E1FF0E006E99
:10421E007F0E016E58D00D6A096A086A01500010AF
:10422E00D8B4000C015005180A6E0ABE0D1E0B6A9A
:10423E0005AE05D0041E051E042AD8B4052A01AE0B
:10424E0005D0001E011E002AD8B4012A0150051007
:10425E000A6E0ABE10D047EC11F00BB020D00DAE96
:10426E00000C001E011E002AD8B4012A081E091EC9
:10427E00082AD8B4092A000C05AE0DD001BE07D00D
:10428E000150096E0050086E016A006AE8D7016A93
:10429E00006A002A000C011E001E0B2ADDD7082A18
:1042AE00D8B4092A0450085CD8A4D9D70550095CA3
:1042BE00D8A4D5D7096A086A002AD8B4012A01AE53
:0842CE00CED70000FF0C120026
:0E42D600ACB202D00000FCD7B5C8ADFF12009C
:1042E40005017B5302E1006A65D02D0E0801B56F0C
:1042F400030EB66F2D0E09010D6F030E0E6F0F6BBB
:10430400000E106F020E116FE1EC08F0B5C8E1FF6A
:10431400B6C8E2FF520EE66E520EE66E610EE66E0F
:10432400410EE66EE40E0801B525E16E010EB621DC
:10433400E26E720EE66E720EE66E410EE66E610E6F
:10434400E66EE80EB525E16E010EB621E26E5DC59E
:10435400E6FF5EC5E6FF5FC5E6FF60C5E6FFEC0E5F
:10436400B525E16E010EB621E26E61C5E6FF62C5B8
:10437400E6FF63C5E6FF64C5E6FFFE0EB525E16E04
:10438400010EB621E26E550EE66EAA0EE66E59C512
:10439400F7F85AC5F8F85BC5F9F85CC5FAF8E6EC25
:1043A4000CF00050000A03E0FF0E006E03D005017C
:0643B4007B6B006A1200A1
:1043BA00800E0801B519006E800E000A005C0CE33D
:1043CA00800EB5BF7F0E006E000E800A005C02E10F
:1043DA00040EB55D01E206D0D80E0301286FFF0E68
:1043EA00006E67D11A0E006E000E016EB5C804F099
:1043FA00000E0801B5BFFF0E056E2AEC05F0980EF7
:10440A000026060E012200C0BEF801C0BFF8180E31
:10441A000024E96E000E0120EA6EEE50000A06E161
:10442A00DC0E0301286FFF0E006E43D1140E080143
:10443A00BE25D96E000EBF21DA6EDECF01F0DECFC7
:10444A0002F0DECF03F0DECF04F0B951045C08E1DC
:10445A00B851035C05E1B751025C02E1B651015C57
:10446A0006E2DB0E0301286FFF0E006E22D1100E4A
:10447A000801BE25E96E000EBF21EA6EEECF01F0FB
:10448A00EECF02F0EECF03F0EECF04F00450B919EC
:10449A0008E10350B81905E10250B71902E10150C9
:1044AA00B61902E1006A05D1100EBE25E96E000EAA
:1044BA00BF21EA6EEECF01F0EECF02F0EECF03F0AD
:1044CA00EECF04F097C600F001C005F002C006F076
:1044DA0003C007F004C008F0005007E008320732B2
:1044EA0006320532089EFF0FF8D797C600F0B6C805
:1044FA0001F0B7C802F0B8C803F0B9C804F0005018
:10450A0007E00432033202320132049EFF0FF8D769
:10451A000850041808E10750031805E1065002186C
:10452A0002E10550011811E10801100EBE25E16EE5
:10453A00000EBF21E26EB6C8E6FFB7C8E6FFB8C8EC
:10454A00E6FFB9C8E6FF006AB4D00801100EBE251E
:10455A00E16E000EBF21E26EB6C8E6FFB7C8E6FFFD
:10456A00B8C8E6FFB9C8E6FF100EBE25E96E000E10
:10457A00BF21EA6EEECF01F0EECF02F0EECF03F0EC
:10458A00EECF04F097C600F001C0BAF802C0BBF83B
:10459A0003C0BCF804C0BDF8005007E0BD33BC330B
:1045AA00BB33BA33BD9FFF0FF8D7040EBE25E16EA9
:1045BA00000EBF21E26EBEC8E9FFBFC8EAFFEECF18
:1045CA0000F0EECF01F0EECF02F0EECF03F000C024
:1045DA00E6FF01C0E6FF02C0E6FF03C0E6FFBD51E9
:1045EA00000808E1BC51000805E1BB51000802E1DE
:1045FA00BA5100085DE2040EBE25C06F000EBF214D
:10460A00C16FC0C8E9FFC1C8EAFFEECF77F9EECFA4
:10461A0078F9EECF79F9EECF7AF9BFEC02F0C0C89B
:10462A00E1FFC1C8E2FF00C0E6FF01C0E6FF02C029
:10463A00E6FF03C0E6FF040E0801BE25D96E000E90
:10464A00BF21DA6EDECF01F0DECF02F0DECF03F05B
:10465A00DECF04F00F0E041808E1FF0E031805E17F
:10466A00FF0E021802E1FF0E01181AE1100EBE2514
:10467A00E16E000EBF21E26E140EBE25E96E000E39
:10468A00BF21EA6EEECFE6FFEECFE6FFEECFE6FF02
:10469A00EECFE6FFDB0E0301286FFF0E006E09D096
:1046AA00010E0801BA5F000EBB5BBC5BBD5B97D70E
:0446BA00006A120080
:1046BE001C0E0801B525E16E000EB621E26EB7C8DC
:1046CE00E6FF1C0EB525006E000EB621016E010E22
:1046DE000024E16E000E0120E26EB8C8E6FF1C0E4B
:1046EE00B525006E000EB621016E020E0024E16E9D
:1046FE00000E0120E26EB9C8E6FF1C0EB525006E55
:10470E00000EB621016E030E0024E16E000E012094
:0A471E00E26EBAC8E6FF006A12005E
:1047280005EC18F02D0E0801B56F030EB66F2D0EAF
:10473800B76F030EB86F03012851FF0A03E1FF0E9C
:10474800006EA3D02851FC0A03E1FF0E006E9DD035
:104758002851000AD8A494D0300E0801B525FE6F60
:10476800000EB621FF6FC9EC0AF00050050137258D
:1047780009017B6F01500501382109017C6F000E8A
:104788000501392109017D6F000E05013A21090152
:104798007E6FD6EC01F00050000A03E0FF0E006EB9
:1047A80074D02D0E0801B76F030EB86FFE0EB72533
:1047B800FE6F010EB821FF6FC9EC0AF00150AA0A7A
:1047C80002E1550E001806E0FC0E0301286FFF0EEB
:1047D800006E5BD0B7C8FEF8B8C8FFF8EEEC0AF078
:1047E8000350410A08E10250610A05E10150520AEA
:1047F80002E10050520A06E0FA0E0301286FFF0E8C
:10480800006E43D0E40E0801B725FE6F010EB821F3
:10481800FF6FEEEC0AF00350610A08E10250410A0A
:1048280005E10150720A02E10050720A06E0FA0E30
:104838000301286FFF0E006E28D0E80E0801B72587
:10484800FE6F010EB821FF6FEEEC0AF000C05DF5B7
:1048580001C05EF502C05FF503C060F5EC0EB72538
:10486800FE6F010EB821FF6FEEEC0AF000C061F593
:1048780001C062F502C063F503C064F5006A05D0A3
:0C488800FA0E0301286FFF0E006E1200F4
:10489400900E09010D6F060E0E6F0F6B070E106F51
:1048A400000E116FE1EC08F0690E0D6F050E0E6F2E
:1048B4000F6B070E106F000E116FE1EC08F0700E15
:1048C4000D6F050E0E6F0F6B070E106F000E116F3C
:1048D400E1EC08F0350E0D6F050E0E6F0F6B300E08
:1048E400106F000E116FE1EC08F0290E0D6F030E2E
:1048F4000E6F0F6B040E106F020E116FE1EC08F0D7
:10490400980E0D6F060E0E6F0F6B040E006E000EE8
:10491400016E1A0E0002F3CF10F9F4CF11F9E1EC95
:1049240008F0150E0D6F070E0E6F0F6B0C0E106F47
:10493400000E116FE1EC08F0FF0E0301296FFF0E6A
:104944002A6FFF0E2B6FFF0E2C6F2D0E196F050EA5
:104954001A6F06018C6B05017B6B2D6B2E6B2F6B15
:10496400306B0301246B256B266B276B0501316BC0
:10497400326B336B346B0701296B430E156F0301E4
:04498400286B12008A
:10498800E7EC11F0000E001803E0FF0E006E01D0F6
:04499800006A12009F
:10499C00B5C8E9FFB6C8EAFFEE50000A06E1C40E3E
:1049AC000301286FFF0E006EB6D024C3B9F825C3DF
:1049BC00BAF826C3BBF827C3BCF80501316B326BC0
:1049CC00336B346B0801C26BB7C8D6F8B8C8D7F8CC
:1049DC00AAEC14F00050010AD8A494D0FF0E0801E0
:1049EC00B725E96E000EB821EA6E3F0EEE14016E8B
:1049FC0001500F0A03E1010EC26FE6D7010E05014B
:104A0C00315F000E325B335B345B0801C2533BE019
:104A1C00B5C8D6F8B6C8D7F879EC1CF000C0C1F808
:104A2C000050FF0A03E1FF0E006E75D00801C15162
:104A3C00010A28E124C34CF925C34DF926C34EF9CC
:104A4C0027C34FF931C550F932C551F933C552F965
:104A5C0034C553F9BD0E0901546F080E556F4BEC5C
:104A6C0006F00050000A03E0FF0E006E54D0B9C8E7
:104A7C0024F3BAC825F3BBC826F3BCC827F3010E30
:104A8C00006E49D035D0B7C8D6F8B8C8D7F8B5C875
:104A9C00D8F8B6C8D9F822EC1CF00050010A28E16D
:104AAC0024C34CF925C34DF926C34EF927C34FF93E
:104ABC0031C550F932C551F933C552F934C553F9E2
:104ACC00BD0E0901546F080E556F4BEC06F00050EB
:104ADC00000A03E0FF0E006E1ED0B9C824F3BAC85A
:104AEC0025F3BBC826F3BCC827F3010E006E13D008
:104AFC00010E05013127000E322333233423080124
:104B0C00C26B62D7B9C824F3BAC825F3BBC826F365
:084B1C00BCC827F3006A120077
:0A4B24001D0E0D6E0D2EFED71200BF
:104B2E00086A096A100E0C6E0134083609360450F4
:104B3E00085E0550D8A0053C095ED8B007D00450D9
:104B4E0008260550D8B0053C0926D8900036013607
:064B5E000C2EEAD7120044
:104B6400B5C8E1FFB6C8E2FFB7C8E6FF006A1200A5
:104B7400BA0E09010D6F080E0E6FFF0E0F6F0D0EAA
:104B8400106F000E116FE1EC08F00801B96B0D0E07
:104B9400B95D1CE2BA0EE16E080EE26EB951E1266F
:104BA400D8B0E22AB951B725E96E000EB821EA6EF1
:104BB400EECFE6FFB951B725E96E000EB821EA6ED3
:104BC400EE50000A01E102D0B92BE1D7010EB52560
:104BD400E16E000EB621E26EBAC8E6FF030EB525FB
:104BE400E16E000EB621E26EBBC8E6FF050EB525E8
:104BF400E16E000EB621E26EBCC8E6FF070EB525D5
:104C0400E16E000EB621E26EBDC8E6FF090EB525C1
:104C1400E16E000EB621E26EBEC8E6FF0E0EB525AB
:104C2400E16E000EB621E26EBFC8E6FF100EB52598
:104C3400E16E000EB621E26EC0C8E6FF120EB52585
:104C4400E16E000EB621E26EC1C8E6FF140EB52572
:104C5400E16E000EB621E26EC2C8E6FF160EB5255F
:104C6400E16E000EB621E26EC3C8E6FF180EB5254C
:104C7400E16E000EB621E26EC4C8E6FF1C0EB52537
:104C8400E16E000EB621E26EC5C8E6FF1E0EB52524
:104C9400E16E000EB621E26EC6C8E6FFB951010FFF
:104CA400026E036A000E0322B7D0010EB525006E12
:104CB400000EB621016E010E0024E16E000E0120EB
:104CC400E26EFF0EE66E030EB525006E000EB621F1
:104CD400016E010E0024E16E000E0120E26EFF0E53
:104CE400E66E050EB525006E000EB621016E010EAE
:104CF4000024E16E000E0120E26EFF0EE66E070E48
:104D0400B525006E000EB621016E010E0024E16E81
:104D1400000E0120E26EFF0EE66E090EB525006E50
:104D2400000EB621016E010E0024E16E000E01207A
:104D3400E26EFF0EE66E0E0EB525006E000EB62175
:104D4400016E010E0024E16E000E0120E26EFF0EE2
:104D5400E66E100EB525006E000EB621016E010E32
:104D64000024E16E000E0120E26EFF0EE66E120ECC
:104D7400B525006E000EB621016E010E0024E16E11
:104D8400000E0120E26EFF0EE66E140EB525006ED5
:104D9400000EB621016E010E0024E16E000E01200A
:104DA400E26EFF0EE66E160EB525006E000EB621FD
:104DB400016E010E0024E16E000E0120E26EFF0E72
:104DC400E66E180EB525006E000EB621016E010EBA
:104DD4000024E16E000E0120E26EFF0EE66E1C0E52
:104DE400B525006E000EB621016E010E0024E16EA1
:104DF400000E0120E26EFF0EE66E1E0EB525006E5B
:104E0400000EB621016E010E0024E16E000E012099
:104E1400E26EFF0EE66E58D0000E031802E1000E9B
:104E24000218D8B442D7000E031802E1010E02188A
:104E3400D8B449D7000E031802E1020E0218D8B400
:104E440050D7000E031802E1030E0218D8B457D746
:104E5400000E031802E1040E0218D8B45ED7000E47
:104E6400031802E1050E0218D8B465D7000E031822
:104E740002E1060E0218D8B46CD7000E031802E142
:104E8400070E0218D8B473D7000E031802E1080EF7
:104E94000218D8B47AD7000E031802E1090E0218DA
:104EA40082E0000E031802E10A0E02188AE0000EE6
:104EB400031802E10B0E021892E0000E031802E13F
:0C4EC4000C0E02189AE0A7D7006A12003A
:104ED0000D0E0801B525E16E000EB621E26EB7C8D1
:064EE000E6FF006A12006B
:104EE6000B0E0801B525E16E000EB621E26EB7C8BD
:064EF600E6FF006A120055
:104EFC0006018A510801B525016E06018B51080186
:104F0C00B621026E0250010802E101500E0806E2C1
:104F1C00BE0E0301286FFF0E006E01D0006A120056
:104F2C00B5C8E9FFB6C8EAFFEE50000A07E1C40EA7
:104F3C000301286FFF0E006E2DEF2EF0B7C80DF990
:104F4C00B8C80EF9200E09010F6F0B0E106F000E72
:104F5C00116FE1EC08F0B5C8E9FFB6C8EAFFEE50F6
:104F6C002E0A13E1010E0801B525E96E000EB621DB
:104F7C00EA6EEE50000A09E1B7C8E1FFB8C8E2FFDB
:104F8C002E0EE66E006A2DEF2EF0B5C8E9FFB6C8FE
:104F9C00EAFFEE502E0A24E10801010EB525E96E58
:104FAC00000EB621EA6EEE502E0A1AE1020EB5255D
:104FBC00E96E000EB621EA6EEE50000A11E1B7C898
:104FCC00E1FFB8C8E2FF2E0EE66E010EB725E16ECA
:104FDC00000EB821E26E2E0EE66E006A2DEF2EF05A
:104FEC00B5C8E9FFB6C8EAFFEE502E0A07E1E20E9B
:104FFC000301286FFF0E006E2DEF2EF0B5C8F7F8E9
:10500C00B6C8F8F87EEC11F000C0C7F801C0C8F8BB
:10501C00B5C8D6F8B6C8D7F84FEC1FF000C0C4F826
:10502C000050FF0A04E1FF0E006E2DEF2EF0010E72
:10503C000801C75D006E000EC859016E0050B52501
:10504C00E96E0150B621EA6EEE502E0A10E0010E08
:10505C00C75D006E000EC859016E0050B525E96E93
:10506C000150B621EA6EEE50200A01E015D0800EF8
:10507C00006E800EC819005C02E1C75100080CE2FA
:10508C00C751B525E16EC851B621E26EE66A010E34
:10509C00C75F000EC85BCBD7000EC81902E1000E2B
:1050AC00C71904E1FF0E006E2DEF2EF0000EC4BFE9
:1050BC00FF0E006E000E001802E1000EC4190BE08A
:1050CC00000EC4BFFF0E006E000E001802E1020EAF
:1050DC00C41901E08BD0BF6BBE6B080EBE5D2DE218
:1050EC00BF51B525E96E000EB621EA6EEE502E0AC0
:1050FC000AE0BF51B525E96E000EB621EA6EEE50FE
:10510C00000A01E001D019D0BE51B725C96F000EBD
:10511C00B821CA6FBF51B525E96E000EB621EA6EF3
:10512C00EECFF7F873EC11F0C9C8E1FFCAC8E2FF83
:10513C0000C0E6FFBF2BBE2BD0D7BF51B525E96E03
:10514C00000EB621EA6EEE50000A0AE1B7C8D6F896
:10515C00B8C8D7F8D86BD96B1BEC1EF02DEF2EF01E
:10516C000801BF51B525E96E000EB621EA6EEE506E
:10517C002E0A02E1BF2B07D0E20E0301286FFF0EAF
:10518C00006E2DEF2EF0080E0801BE6F0B0EBE5DEB
:10519C0023E2BF51B525E96E000EB621EA6EEE5042
:1051AC00000A01E119D0BE51B725C96F000EB82114
:1051BC00CA6FBF51B525E96E000EB621EA6EEECF6F
:1051CC00F7F873EC11F0C9C8E1FFCAC8E2FF00C0E0
:1051DC00E6FFBF2BBE2BDAD7B7C8D6F8B8C8D7F8BE
:1051EC00D86BD96B1BEC1EF02DEF2EF0000E0801C6
:1051FC00C4BFFF0E006E000E001802E1010EC419B0
:10520C00D8A42AEF2EF0C7C8C1F8010EC75DC26F33
:10521C00000EC859C36FC251B525E96EC351B621F2
:10522C00EA6EEE502E0A0EE0800E006E800EC31950
:10523C00005C02E1C251000805E2010EC25F000EE3
:10524C00C35BE9D7800E006E800EC319005C02E1CF
:10525C00C25100084DE2C2C8C1F8C24BC32B080EA4
:10526C00BE6F0B0EBE5D44E2C251B525E96EC35153
:10527C00B621EA6EEE50000A3BE0C251B525E96E4C
:10528C00C351B621EA6EEECFFEF84FEC08F0005297
:10529C0019E10801BE51B725C96F000EB821CA6FBC
:1052AC00C251B525E96EC351B621EA6EEECFF7F8BF
:1052BC0073EC11F0C9C8E1FFCAC8E2FF00C0E6FFF9
:1052CC00BE2B13D00801C251B525E96EC351B621CE
:1052DC00EA6EEE50200A09E0BE51B725E16E000ED1
:1052EC00B821E26E5F0EE66EBE2BC24BC32BB9D754
:1052FC00C1C8C2F8000EC36FBF6BBE6B080EBE5D9B
:10530C0056E2BF51B525E96E000EB621EA6EEE509D
:10531C00000A01E14CD0000EC31902E1C251BF19C1
:10532C0001E145D0BF51B525E96E000EB621EA6EFC
:10533C00EE502E0A0AE0BF51B525E96E000EB621DB
:10534C00EA6EEE50200A01E001D02FD0BF51B525F6
:10535C00E96E000EB621EA6EEECFFEF84FEC08F0C7
:10536C00005219E10801BE51B725C96F000EB821D2
:10537C00CA6FBF51B525E96E000EB621EA6EEECFAD
:10538C00F7F873EC11F0C9C8E1FFCAC8E2FF00C01E
:10539C00E6FFBE2B0AD00801BE51B725E16E000E08
:1053AC00B821E26E5F0EE66EBE2BBF2BA7D7010EA7
:1053BC00C56F060EBE5D03E2BEC8B9F802D0060E7C
:1053CC00B96FB9C8C1F8B951B725E16E000EB82153
:1053DC00E26E7E0EE66E010EC06FC05109083BE313
:1053EC00C551000A38E0C151010F006E016A000E70
:1053FC0001220050B725E16E0150B821E26E300E4B
:10540C00C025006E00C0E6FFB7C8D6F8B8C8D7F8FC
:10541C00D86BD96B1BEC1EF000C0C5F80050FF0A0E
:10542C0004E1FF0E006E2DEF2EF00801C551010AAC
:10543C000FE1B5C8D6F8B6C8D7F879EC1CF000C0A7
:10544C00C6F80050000A04E0C6C800F02DEF2EF09C
:10545C000801C02BC2D7C551000AD8B475D0050EAF
:10546C00BE5D03E2BEC8BAF802D0050EBA6FBAC868
:10547C00C1F8BA51B725E16E000EB821E26E7E0E6E
:10548C00E66E0A0EC06FC05163085EE3C551000A98
:10549C005BE0C151010F006E016A000E0122005049
:1054AC00B725C96F0150B821CA6F0A0E046EC0C867
:1054BC0000F06AEC1CF0300E0026C9C8E1FFCAC827
:1054CC00E2FF00C0E6FF020EC125006E016A000E6D
:1054DC0001220050B725C96F0150B821CA6F0A0EBE
:1054EC00046EC0C800F06AEC1CF008C000F0300E6E
:1054FC000026C9C8E1FFCAC8E2FF00C0E6FFB7C872
:10550C00D6F8B8C8D7F8D86BD96B1BEC1EF000C016
:10551C00C5F80050FF0A03E1FF0E006E98D3080196
:10552C00C551010A0EE1B5C8D6F8B6C8D7F879EC62
:10553C001CF000C0C6F80050000A03E0C6C800F01A
:10554C0086D30801C02B9FD7C551000AD8B49DD073
:10555C00040EBE5D03E2BEC8BBF802D0040EBB6FE6
:10556C00BBC8C1F8BB51B725E16E000EB821E26E85
:10557C007E0EE66E640EC06F800E030A006E800E07
:10558C00005C02E1C051E708D8A07FD0C551000AE9
:10559C00D8B47BD0C151010F006E016A000E0122FC
:1055AC000050B725C96F0150B821CA6F640E046E44
:1055BC00C0C800F06AEC1CF0300E0026C9C8E1FF30
:1055CC00CAC8E2FF00C0E6FF020EC125006E016AE8
:1055DC00000E01220050B725C96F0150B821CA6FC7
:1055EC000A0E046EC0C800F06AEC1CF00A0E046EC1
:1055FC006AEC1CF008C000F0300E0026C9C8E1FFB0
:10560C00CAC8E2FF00C0E6FF030EC125006E016AA6
:10561C00000E01220050B725C96F0150B821CA6F86
:10562C000A0E046EC0C800F06AEC1CF008C000F052
:10563C00300E0026C9C8E1FFCAC8E2FF00C0E6FF71
:10564C00B7C8D6F8B8C8D7F8D86BD96B1BEC1EF016
:10565C0000C0C5F80050FF0A03E1FF0E006EF7D240
:10566C000801C551010A0EE1B5C8D6F8B6C8D7F87D
:10567C0079EC1CF000C0C6F80050000A03E0C6C864
:10568C0000F0E5D20801C02B77D7C551000AD8B479
:10569C00C2D0030EBE5D03E2BEC8BCF802D0030E3E
:1056AC00BC6FBCC8C1F8BC51B725E16E000EB82167
:1056BC00E26E7E0EE66EE80EC06F800E270A006E5C
:1056CC00800E005C02E1C0510F08D8A0A4D0C551D7
:1056DC00000AD8B4A0D0C151010F006E016A000EAF
:1056EC0001220050B725C96F0150B821CA6FE80ECE
:1056FC00046E030E056EC0C800F0000E016E07ECC0
:10570C0021F0300E0026C9C8E1FFCAC8E2FF00C074
:10571C00E6FF020E0801C125006E016A000E01228F
:10572C000050B725C96F0150B821CA6F640E046EC2
:10573C00C0C800F06AEC1CF00A0E046E6AEC1CF097
:10574C0008C000F0300E0026C9C8E1FFCAC8E2FF4D
:10575C0000C0E6FF030EC125006E016A000E012297
:10576C000050B725C96F0150B821CA6F0A0E046EDC
:10577C00C0C800F06AEC1CF00A0E046E6AEC1CF057
:10578C0008C000F0300E0026C9C8E1FFCAC8E2FF0D
:10579C0000C0E6FF040EC125006E016A000E012256
:1057AC000050B725C96F0150B821CA6F0A0E046E9C
:1057BC00C0C800F06AEC1CF008C000F0300E0026E7
:1057CC00C9C8E1FFCAC8E2FF00C0E6FFB7C8D6F8F7
:1057DC00B8C8D7F8D86BD96B1BEC1EF000C0C5F855
:1057EC000050FF0A03E1FF0E006E31D20801C551D3
:1057FC00010A0EE1B5C8D6F8B6C8D7F879EC1CF09A
:10580C0000C0C6F80050000A03E0C6C800F01FD262
:10581C000801C02B52D7C551000AD8B4F1D0020EE2
:10582C00BE5D03E2BEC8BDF802D0020EBD6FBDC89E
:10583C00C1F8BD51B725E16E000EB821E26E7E0EA7
:10584C00E66E100EC06F800E000A006E800E005CBB
:10585C0008E1000E010805E1000E860802E1C051C6
:10586C009F08D8A0CDD0C551000AD8B4C9D0C15119
:10587C00010F006E016A000E01220050B725C96F9E
:10588C000150B821CA6F100E046E270E056EC0C8E9
:10589C0000F0000E016E07EC21F0300E0026C9C896
:1058AC00E1FFCAC8E2FF00C0E6FF020E0801C125F5
:1058BC00006E016A000E01220050B725C96F01501D
:1058CC00B821CA6FE80E046E030E056EC0C800F056
:1058DC00000E016E07EC21F00A0E046E000E056E30
:1058EC0007EC21F008C000F009C001F0300E0026D2
:1058FC00C9C8E1FFCAC8E2FF00C0E6FF030E0801F9
:10590C00C125006E016A000E01220050B725C96F37
:10591C000150B821CA6F640E046EC0C800F06AEC66
:10592C001CF00A0E046E6AEC1CF008C000F0300E7D
:10593C000026C9C8E1FFCAC8E2FF00C0E6FF040E9A
:10594C00C125006E016A000E01220050B725C96FF7
:10595C000150B821CA6F0A0E046EC0C800F06AEC80
:10596C001CF00A0E046E6AEC1CF008C000F0300E3D
:10597C000026C9C8E1FFCAC8E2FF00C0E6FF050E59
:10598C00C125006E016A000E01220050B725C96FB7
:10599C000150B821CA6F0A0E046EC0C800F06AEC40
:1059AC001CF008C000F0300E0026C9C8E1FFCAC8C0
:1059BC00E2FF00C0E6FFB7C8D6F8B8C8D7F8D86B76
:1059CC00D96B1BEC1EF000C0C5F80050FF0A03E1B8
:1059DC00FF0E006E3CD10801C551010A0EE1B5C89D
:1059EC00D6F8B6C8D7F879EC1CF000C0C6F8005051
:1059FC00000A03E0C6C800F02AD10801C02B23D747
:105A0C00C551000AD8B416D1010EB725E16E000EAF
:105A1C00B821E26E7E0EE66EA00EC06F800E000AFC
:105A2C00006E800E005C08E1000E0F0805E1000E10
