:1000000035EF41F00000000000EF00F000000000BC
:0A0010000000000000000000F3D71C
:0E001C00ACB202D00000FCD79AC9ADFF1200B2
:0C002A0072B201D0FDD79AC973FF12001A
:100036009AC9C9FFC7B002D00000FCD7C9CF00F0EB
:020046001200A6
:100048009AC96FFF6DB002D00000FCD76FCF00F0E7
:02005800120094
:10005A00F250026EF29E0500FF6A0150FE6E0050D9
:08006A00FD6E02BEF28E1200D1
:100072009E9694C9C9FF98C095F999C096F99AC0FD
:1000820097F99BC098F9C7A422D000019851991101
:100092009A119B111BE00901955196119711981124
:1000A2000EE10FC6E1FF10C6E2FF040EE66E0DC6BA
:1000B20000F00EC601F0D0DF010E006E3BD0010E43
:1000C2000901955F000E965B975B985BDCD798C041
:1000D20095F999C096F99AC097F99BC098F99EB67E
:1000E20022D00001985199119A119B111BE009012C
:1000F20095519611971198110EE10FC6E1FF10C6A6
:10010200E2FF040EE66E0DC600F00EC601F0A4DF9B
:10011200010E006E0FD0010E0901955F000E965B75
:10012200975B985BDCD7C5BC02D0006A03D0C5845C
:06013200020E006E120037
:1001380094C96FFF6DB002D00000FCD76FCF00F0FC
:020148001200A3
:10014A0098C096F999C097F99AC098F99BC099F9FD
:10015A009E96C5869EB620D00001985199119A1193
:10016A009B1119E0090196519711981199110CE107
:10017A000FC6E1FF10C6E2FF030EE66E0DC600F0E1
:10018A000EC601F065DF08D0010E0901965F000E68
:10019A00975B985B995BDED70901C9CF95F99451B2
:1001AA00000A02E1C58A01D0C59A9E96C58898C000
:1001BA0096F999C097F99AC098F99BC099F99EB691
:1001CA0020D00001985199119A119B1119E0090147
:1001DA0096519711981199110CE10FC6E1FF10C6BB
:1001EA00E2FF030EE66E0DC600F00EC601F030DF28
:1001FA0008D0010E0901965F000E975B985B995B28
:08020A00DED795C900F01200D7
:1002120094C9C9FFC7B002D00000FCD7C9CF00F013
:020222001200C8
:10022400A49E94C96FFF94C095F995C096F996C0A1
:1002340097F997C098F96DA422D0000194519511B3
:10024400961197111BE00901955196119711981178
:100254000EE1E7C5E1FFE8C5E2FF040EE66EE5C581
:1002640000F0E6C501F0F7DE010E006E3BD0010E92
:100274000901955F000E965B975B985BDCD794C091
:1002840095F995C096F996C097F997C098F9A4BEC8
:1002940022D0000194519511961197111BE0090188
:1002A40095519611971198110EE1E7C5E1FFE8C544
:1002B400E2FF040EE66EE5C500F0E6C501F0CBDE14
:1002C400010E006E0FD0010E0901955F000E965BC2
:1002D400975B985BDCD76BBC02D0006A03D06B845D
:0602E400020E006E120084
:1002EA0094C096F995C097F996C098F997C099F96C
:1002FA00A49E6B86A4BE20D000019451951196113C
:10030A00971119E0090196519711981199110CE169
:10031A00E7C5E1FFE8C5E2FF030EE66EE5C500F0BA
:10032A00E6C501F095DE08D0010E0901965F000EC0
:10033A00975B985B995BDED709016FCF95F994516A
:10034A00000A02E16B8A01D06B9AA49E6B8894C062
:10035A0096F995C097F996C098F997C099F9A4BEED
:10036A0020D00001945195119611971119E00901B5
:10037A0096519711981199110CE1E7C5E1FFE8C56B
:10038A00E2FF030EE66EE5C500F0E6C501F060DEA9
:10039A0008D0010E0901965F000E975B985B995B86
:0803AA00DED795C900F0120036
:1003B2008388A7C6E1FFA8C6E2FFFF0EE66EA5C6C8
:0A03C20000F0A6C601F048DE1200AC
:1003CC00A7C6E1FFA8C6E2FF4C0EE66EA5C600F07C
:1003DC00A6C601F03CDEA7C6E1FFA8C6E2FFE66AAE
:1003EC00A5C600F0A6C601F032DEA7C6E1FFA8C67E
:1003FC00E2FFE66AA5C600F0A6C601F028DEA7C695
:10040C00E1FFA8C6E2FFE66AA5C600F0A6C601F0A9
:10041C001EDEA7C6E1FFA8C6E2FFE66AA5C600F08D
:10042C00A6C601F014DEA7C6E1FFA8C6E2FFFF0EC8
:10043C00E66EA5C600F0A6C601F009DE09018C6BBC
:10044C008D6BA7C6E1FFA8C6E2FFFF0EE66EA5C640
:10045C0000F0A6C601F0FBDD00C08BF909018C4B46
:10046C008D2B800E0014016E0150000A07E0000E67
:10047C008D5D02E1640E8C5D01E2E3D78BAF04D09D
:10048C0092DF8BC900F012D0A7C6E1FFA8C6E2FF2D
:10049C00FF0EE66EA5C600F0A6C601F0D8DD00C0C2
:0E04AC008BF90050000AF0E07EDF006A1200BB
:1004BA00400E09018B25006EA7C6E1FFA8C6E2FF20
:1004CA0000C0E6FFA5C600F0A6C601F0C1DDA7C6BA
:1004DA00E1FFA8C6E2FF8FC9E6FFA5C600F0A6C6DF
:1004EA0001F0B6DDA7C6E1FFA8C6E2FF8EC9E6FFA6
:1004FA00A5C600F0A6C601F0ABDDA7C6E1FFA8C6F7
:10050A00E2FF8DC9E6FFA5C600F0A6C601F0A0DD90
:10051A00A7C6E1FFA8C6E2FF8CC9E6FFA5C600F0A0
:10052A00A6C601F095DDA7C6E1FFA8C6E2FF90C9FD
:10053A00E6FFA5C600F0A6C601F08ADD0901926BA6
:10054A00936BA7C6E1FFA8C6E2FFFF0EE66EA5C63B
:10055A0000F0A6C601F07CDD00C091F90901924BBA
:10056A00932B800E0014016E0150000A07E0000E62
:10057A00935D02E1640E925D01E2E3D791C900F056
:02058A0012005D
:04058C00839812003E
:10059000FDDF000E000A03E1040E0201011909E16A
:1005A0007DC985F97EC986F97FC987F980C988F92F
:1005B00014D0090E006E7DC985F97EC986F97FC900
:1005C00087F980C988F9005008E0090185378591CD
:1005D000863787378837FF0FF7D70901110E8B6FE2
:1005E00085C98CF986C98DF987C98EF988C98FF9B3
:1005F000FF0E906F62DF005204E0DBDE010E006E42
:100600004BD0A7C6E1FFA8C6E2FFFF0EE66EA5C667
:1006100000F0A6C601F021DD0050FE0A01E0F1D78E
:100620000901836B846B020E845D02E1000E835D21
:100630001BE283518125896F845182218A6FA7C66D
:10064000E1FFA8C6E2FFFF0EE66EA5C600F0A6C653
:1006500001F003DD89C9E1FF8AC9E2FF00C0E6FFBE
:100660000901834B842BDFD7A7C6E1FFA8C6E2FFB1
:10067000FF0EE66EA5C600F0A6C601F0EEDCA7C62A
:10068000E1FFA8C6E2FFFF0EE66EA5C600F0A6C613
:0A06900001F0E3DC8EDE006A1200C8
:10069A0098DE0050000A03E0FF0E006E01D0006AE7
:0206AA0012003C
:1006AC0077C97DF978C97EF979C97FF97AC980F95A
:1006BC007BC981F97CC982F965DF0050000A03E02F
:0A06CC00FF0E006E01D0006A12005C
:1006D60006010051000A04E00051020A01E002D0BE
:1006E600006A0DD0D7DF000E001806E0FF0E0201EB
:1006F600886FFF0E006E03D00601006B006A1200C1
:1007060006010051030A20E1E3DF0050000A06E07B
:10071600FF0E0201886FFF0E006E5CD0020194513D
:10072600090176190EE1020193510901751909E1D2
:10073600020192510901741904E102019151090162
:10074600731902E1006A46D006010051010A06E16A
:10075600FF0E0201886FFF0E006E3CD00901765134
:10076600020194190EE1090175510201931909E17B
:10077600090174510201921904E109017351020140
:10078600911927E073C977F974C978F975C979F9A8
:1007960076C97AF9950E09017B6F020E7C6F83DFAD
:1007A600000E00180EE0FF0E0201916FFF0E926F11
:1007B600FF0E936FFF0E946FFF0E886FFF0E006E95
:1007C60009D073C991F274C992F275C993F276C9C8
:0607D60094F2006A12001B
:1007DC0009016F517A0806E3610E6F5D03E3010EA8
:0807EC00006E01D0006A12004A
:1007F400026A110E025C17E2010E0224F66E860EE6
:10080400F76E000EF722000EF86E000EF8220900B3
:10081400F5CF01F0015009016F1903E1010E006EDB
:0A08240003D0022AE6D7006A120092
:10082E0009016F515A0806E3410E6F5D03E3010E95
:08083E00006E01D0006A1200F7
:100846006FC905F070C906F071C907F072C908F0E2
:100856000401B351055EB451065AB551075AB65153
:10086600085AFAC504F005C000F006C001F007C03A
:1008760002F008C003F0045007E00036009001368D
:1008860002360336FF0FF8D7B9510026BA510122B6
:0A089600BB510222BC5103221200E4
:1008A00009016F51390806E3300E6F5D03E3010E55
:0808B000006E01D0006A120085
:1008B800A7C6E1FFA8C6E2FFFF0EE66EA5C600F0D8
:1008C800A6C601F02DEC00F00050FE0A01E0F0D7BA
:0208D80012000C
:1008DA000401B6510901725D0EE10401B551090125
:1008EA00715D09E10401B4510901705D04E104017B
:1008FA00B35109016F5D15E3020190510901725D5F
:10090A000EE102018F510901715D09E102018E5167
:10091A000901705D04E102018D5109016F5D01E277
:10092A000CD0F40E0201886FFF0E006EFF0E016EEE
:10093A00FF0E026E0F0E036E64D097C600F06FC9E9
:10094A0073F970C974F971C975F972C976F90050E9
:10095A0008E009017633753374337333769FFF0FDA
:10096A00F7D70401AF51090173270401B0510901F6
:10097A0074230401B151090175230401B25109011B
:10098A007623BCDE0050000A09E0FF0E006EFF0E5F
:10099A00016EFF0E026E0F0E036E33D0F5C500F026
:1009AA00F6C501F0F7C502F0F8C503F0010E005EC6
:1009BA00000E015A025A035A005009016F15046EBB
:1009CA0001507015056E02507115066E03507215AE
:1009DA00076E04C000F005C001F000360090013631
:1009EA00003600900136950E0024E96E020E0120B1
:1009FA00EA6EEECF00F0EECF01F0EECF02F0EECFCE
:040A0A0003F01200E3
:100A0E0058C96FF946DF005211E158C96FF908DF76
:100A1E0000520CE158C96FF9DADE005207E158C9ED
:100A2E006FF9E1DE005202E1006A02D0010E006EA3
:020A3E001200A4
:100A40005AC904F05BC905F058C902F059C903F04E
:100A50005CC900F05DC901F0010E09015C5F000E88
:100A60005D5B005001100FE004C0E9FF05C0EAFF24
:100A700002C0E1FF03C0E2FFEECFE6FF024A032A15
:100A8000044A052AE5D758C900F059C901F01200F7
:100A9000090158515A0804E3410E585DD8B0588BEB
:060AA00058C900F012002D
:100AA60072DD000E000A03E1040E0201011909E1DC
:100AB60058C95CF959C95DF95AC95EF95BC95FF94C
:100AC60014D0090E006E58C95CF959C95DF95AC9A6
:100AD6005EF95BC95FF9005008E009015C375C917B
:100AE6005D375E375F37FF0FF7D70901120E8B6F41
:100AF6005CC98CF95DC98DF95EC98EF95FC98FF93C
:100B0600FF0E906FD7DC005204E050DC010E006E41
:060B160001D0006A12008C
:100B1C00CDDE09015A6B5B6B020E5B5D02E1000ED0
:100B2C005A5D1CE25A5158255C6F5B5159215D6F1F
:100B3C00A7C6E1FFA8C6E2FFFF0EE66EA5C600F051
:100B4C00A6C601F02DEC00F05CC9E1FF5DC9E2FF27
:100B5C0000C0E6FF09015A4B5B2BDED7A7C6E1FFAD
:100B6C00A8C6E2FFFF0EE66EA5C600F0A6C601F011
:100B7C002DEC00F0A7C6E1FFA8C6E2FFFF0EE66E63
:0E0B8C00A5C600F0A6C601F02DEC00F0120088
:100B9A0091C26AF992C26BF993C26CF994C26DF967
:100BAA0058C962F959C963F95AC964F95BC965F93F
:100BBA000401B65109015B5D0EE10401B551090159
:100BCA005A5D09E10401B4510901595D04E10401C6
:100BDA00B3510901585D15E3020190510901655DA0
:100BEA000EE102018F510901645D09E102018E5192
:100BFA000901635D04E102018D510901625D01E2AF
:100C0A0006D0F40E0201886FFF0E006ECED00901E5
:100C1A006E6B95C600F05CC901F05DC902F05EC951
:100C2A0003F05FC904F0005007E0043203320232D5
:100C3A000132049EFF0FF8D70450000809E103505F
:100C4A00000806E10250000803E1090101506E5D47
:100C5A0055E262C96FF963C970F964C971F965C966
:100C6A0072F936DE00C062F901C063F902C064F9A4
:100C7A0003C065F903500F0A08E10250FF0A05E1B3
:100C8A000150FF0A02E10050FF0A06E1F10E0201DB
:100C9A00886FFF0E006E89D00401B6510901655DA7
:100CAA000EE10401B5510901645D09E10401B45181
:100CBA000901635D04E10401B3510901625D15E3B1
:100CCA00020190510901655D0EE102018F5109018E
:100CDA00645D09E102018E510901635D04E10201CB
:100CEA008D510901625D01E206D0F40E0201886F9E
:100CFA00FF0E006E5AD009016E2B8BD7090195C4DD
:100D0A0000F096C401F097C402F098C403F0010EF3
:100D1A00005E000E015A025A035A00505C15666FB3
:100D2A0001505D15676F02505E15686F03505F15BD
:100D3A00696F62C96FF963C970F964C971F965C9E4
:100D4A0072F97CDD96C608F066C904F067C905F039
:100D5A0068C906F069C907F0085007E00732063289
:100D6A0005320432079EFF0FF8D760C9E1FF61C957
:100D7A00E2FF04500024E66E05500120E66E06509C
:100D8A000220E66E07500320E66E6AC973F96BC942
:100D9A0074F96CC975F96DC976F9B0DC0050000AAE
:0C0DAA0003E0FF0E006E01D0006A120092
:100DB6000B6A0A6A096A00500402F4CF09F0F3CFFD
:100DC60008F001500502F4CF0BF0F3CF0AF0005003
:100DD6000502F3500926F4500A22E86A0B22015054
:100DE6000402F3500926F4500A22E86A0B2208C0CE
:100DF60000F009C001F00AC002F00BC003F01200B7
:100E0600010E09014425E96E000E4521EA6E46C928
:100E1600E1FF47C9E2FFEECFE6FF010E4625E16E90
:100E2600000E4721E26E030E4425E96E000E4521B1
:100E3600EA6EEECFE6FF020E4625E16E000E472172
:100E4600E26E050E4425E96E000E4521EA6EEECFF0
:100E5600E6FF030E4625E16E000E4721E26E070E01
:100E66004425E96E000E4521EA6EEECFE6FF040E3C
:100E76004625E16E000E4721E26E090E4425E96E15
:100E8600000E4521EA6EEECFE6FF050E4625E16E21
:100E9600000E4721E26E0E0E4425E96E000E452136
:100EA600EA6EEECFE6FF060E4625E16E000E4721FE
:100EB600E26E100E4425E96E000E4521EA6EEECF75
:100EC600E6FF070E4625E16E000E4721E26E120E82
:100ED6004425E96E000E4521EA6EEECFE6FF080EC8
:100EE6004625E16E000E4721E26E140E4425E96E9A
:100EF600000E4521EA6EEECFE6FF090E4625E16EAD
:100F0600000E4721E26E160E4425E96E000E4521BD
:100F1600EA6EEECFE6FF0A0E4625E16E000E472189
:100F2600E26E180E4425E96E000E4521EA6EEECFFC
:100F3600E6FF0B0E4625E16E000E4721E26E1C0E03
:100F46004425E96E000E4521EA6EEECFE6FF0C0E53
:100F56004625E16E000E4721E26E1E0E4425E96E1F
:0E0F6600000E4521EA6EEECFE6FF006A120093
:100F7400056A046A0B0E055C22E2010E0414016E7C
:100F8400070E006E01C003F0005004E00336039026
:100F9400FF0FFBD7FE0E0414026E02C000F00032F5
:100FA400009E00500310046E055009014425D96EBB
:100FB400000E4521DA6EDE500426052ADBD704C074
:040FC40000F0120027
:0E0FC80044C958F945C959F9A5DD006A12005F
:100FD60044C958F945C959F946C95AF947C95BF987
:100FE60048C95CF949C95DF94AC95EF94BC95FF957
:100FF6004CC960F94DC961F9CDDD0050000A03E026
:10100600FF0E006E15D04CC9E9FF4DC9EAFFEECFC1
:1010160073F9EECF74F9EECF75F9EECF76F983EC6E
:1010260003F00050000A03E0FF0E006E01D0006AD4
:021036001200A6
:1010380044C958F945C959F946C95AF947C95BF924
:101048002EDD0050000A03E0FF0E006E01D0006A9A
:02105800120084
:10105A00C6EC02F0000E000A03E1040E02010119B7
:10106A0009E144C94CF945C94DF946C94EF947C980
:10107A004FF914D0090E006E44C94CF945C94DF90F
:10108A0046C94EF947C94FF9005008E009014C37E3
:10109A004C914D374E374F37FF0FF7D70901180ECE
:1010AA008B6F4CC98CF94DC98DF94EC98EF94FC950
:1010BA008FF9FF0E906F5DEC02F0005205E0D9EC5B
:1010CA0001F0010E006E95D0A7C6E1FFA8C6E2FFA7
:1010DA00FF0EE66EA5C600F0A6C601F02DEC00F0E4
:1010EA00A7C6E1FFA8C6E2FFFF0EE66EA5C600F09E
:1010FA00A6C601F02DEC00F0A7C6E1FFA8C6E2FFE4
:10110A00FE0EE66EA5C600F0A6C601F02DEC00F0B4
:10111A0009014A6B4B6B4B51010802E14A51FF0826
:10112A0016E34A514825E96E4B514921EA6EA7C692
:10113A00E1FFA8C6E2FFEECFE6FFA5C600F0A6C60D
:10114A0001F02DEC00F009014A4B4B2BE4D7A7C65E
:10115A00E1FFA8C6E2FFFF0EE66EA5C600F0A6C62E
:10116A0001F02DEC00F0A7C6E1FFA8C6E2FFFF0ED2
:10117A00E66EA5C600F0A6C601F02DEC00F0A7C6E3
:10118A00E1FFA8C6E2FFFF0EE66EA5C600F0A6C6FE
:10119A0001F02DEC00F000C04AF9000E09014B6F76
:1011AA001F0E4A15016E4BC902F0000E021601C04D
:1011BA004AF902C04BF9000E021802E1050E0118A5
:1011CA0005E0D9EC01F0020E006E13D0A7C6E1FFCC
:1011DA00A8C6E2FFFF0EE66EA5C600F0A6C601F09D
:1011EA002DEC00F00050FF0A01E0F0D7D9EC01F035
:0411FA00006A120075
:1011FE004B0E0901586F090E596F44C95AF945C96A
:10120E005BF90B0E5C6F000E5D6F13DC486B0B0E03
:10121E00485D3FE24A6B4B0EE96E090EEA6E48518D
:10122E00E926D8B0EA2AEECF58F907EC05F00050BF
:10123E00010A03E1010E09014A6F09014B0EE96E25
:10124E00090EEA6E4851E926D8B0EA2AEE50200A75
:10125E0002E1010E4A6F4B0EE96E090EEA6E48511D
:10126E00E926D8B0EA2AEE502E0A02E1010E4A6FA4
:10127E004A51000A0BE146C9E1FF47C9E2FFE66A9F
:10128E00C40E0201886FFF0E006EB5D00901482B07
:10129E00BED7496B486B080E485D43E24B0EE96EB4
:1012AE00090EEA6E4851E926D8B0EA2AEE50200A15
:1012BE0034E00C0E4425E96E000E4521EA6EEECFA9
:1012CE0001F001A619D049514625566F000E47214F
:1012DE00576F4B0EE96E090EEA6E4851E926D8B0EB
:1012EE00EA2AEECF58F948EC05F056C9E1FF57C986
:1012FE00E2FF00C0E6FF10D049514625E16E000E18
:10130E004721E26E4B0EE96E090EEA6E4851E92650
:10131E00D8B0EA2AEECFE6FF01D003D0492B482BF6
:10132E00BAD75351200A09E149514625E16E000E04
:10133E004721E26EE66A006A5ED049514625E16EAB
:10134E00000E4721E26E2E0EE66E492B080E486FF8
:10135E000B0E485D47E24B0EE96E090EEA6E4851E0
:10136E00E926D8B0EA2AEECF58F907EC05F000507E
:10137E00000A01E137D00C0E09014425E96E000E7A
:10138E004521EA6EEECF01F001A819D0495146254C
:10139E00566F000E4721576F4B0EE96E090EEA6E1F
:1013AE004851E926D8B0EA2AEECF58F948EC05F0B4
:1013BE0056C9E1FF57C9E2FF00C0E6FF10D0495100
:1013CE004625E16E000E4721E26E4B0EE96E090EC8
:1013DE00EA6E4851E926D8B0EA2AEECFE6FF492B4D
:1013EE00482BB6D7090149514625E16E000E47211B
:0813FE00E26EE66A006A1200CB
:10140600026A080E025C17E21B0E0224F66E860EB6
:10141600F76E000EF722000EF86E000EF822090095
:10142600F5CF01F001500901021903E1010E006E2A
:0A14360003D0022AE6D7006A120074
:1014400002C944F903C945F904C946F905C947F970
:1014500006C948F907C949F900DE0050000A03E04F
:0A146000FF0E006E01D0006A1200BA
:10146A0006010051030A0BE16BEC03F00050000A7D
:10147A0006E0FF0E0201886FFF0E006E50D00601D3
:10148A000051010A06E1FF0E0201886FFF0E006E8D
:10149A0046D002019451090105190EE10201935146
:1014AA000901041909E1020192510901031904E130
:1014BA00020191510901021905E1020E0601006FAC
:1014CA00006A2DD002C944F903C945F904C946F98D
:1014DA0005C947F9ACDD0050000A06E0FF0E02011B
:1014EA00886FFF0E006E1BD0950E0901446F020E25
:1014FA00456F65DD0050000A06E0FF0E0201886FA5
:10150A00FF0E006E0CD0010E0601006F02C991F2A7
:10151A0003C992F204C993F205C994F2006A12004F
:10152A0004C944F905C945F906C946F907C947F97D
:10153A0008C948F909C949F90AC94AF90BC94BF94D
:10154A00400E09014C6F090E4D6F40DD0050000A34
:10155A0003E0FF0E006E9CD191C600F092C601F026
:10156A0093C602F094C603F0010E005E000E015A03
:10157A00025A035A005009010815046E0150091550
:10158A00056E02500A15066E03500B15076E050EFE
:10159A00026E04C000F005C001F0025005E00036FA
:1015AA0000900136FF0FFAD70901950E00243E6F0D
:1015BA00020E01203F6F010E0C6F080E0C5D0CE24B
:1015CA000C513E25E96E000E3F21EA6EEE507E0A6E
:1015DA0001E102D00C2BF1D70C51080A0AE13EC9ED
:1015EA0044F93FC945F902C946F903C947F902DE78
:1015FA004FD11E0E0901586F090E596F3EC95AF98B
:10160A003FC95BF9200E5C6F000E5D6F20EC05F0A0
:10161A0004C944F905C945F906C946F907C947F98C
:10162A00010E085F000E095B0A5B0B5B08C948F9EB
:10163A0009C949F90AC94AF90BC94BF9400E4C6F55
:10164A00090E4D6FC3DC0050000A03E0FF0E006E66
:10165A001FD191C600F092C601F093C602F094C65B
:10166A0003F0010E005E000E015A025A035A00509E
:10167A0009010815046E01500915056E02500A1574
:10168A00066E03500B15076E050E026E04C000F0BD
:10169A0005C001F0025005E0003600900136FF0F48
:1016AA00FAD7950E0026020E012200C01CF901C0CD
:1016BA001DF90B0E0024E96E000E0120EA6E3F0EA2
:1016CA00EE14016E01500F0A0BE009011E0E446F61
:1016DA00090E456F02C946F903C947F98BDDD8D00F
:1016EA001E0E0901446F090E456F3FDC00C00EF95A
:1016FA00010E09010D6F0B0E1C25E96E000E1D214E
:10170A00EA6E3F0EEE14016E01500F0A06E0C00E9B
:10171A000201886FFF0E006EBBD00D0E09011C2559
:10172A00E96E000E1D21EA6EEE500E1906E0C10E9A
:10173A000201886FFF0E006EABD01CC9E9FF1DC9FC
:10174A00EAFFEECF00F01F0E0014016E01500901EE
:10175A000D1906E0C20E0201886FFF0E006E98D0C6
:10176A001CC944F91DC945F90F0E0901466F090E36
:10177A00476F03EC07F00C6B0D05006E016A000E53
:10178A00015A0D0E046E000E056EDBEC06F00C51CC
:10179A000026000E012200500225E16E01500321AD
:1017AA00E26E0F0EE96E090EEA6E0C51E926D8B008
:1017BA00EA2AEECFE6FF0C2B0D0E0C5D0CE20F0EA3
:1017CA00E96E090EEA6E0C51E926D8B0EA2AEE5003
:1017DA00000A01E0D1D71CC9E9FF1DC9EAFFEECF13
:1017EA0001F001AC02D0006A53D00D2B04C944F9B0
:1017FA0005C945F906C946F907C947F9010E085F3F
:10180A00000E095B0A5B0B5B08C948F909C949F96B
:10181A000AC94AF90BC94BF9400E4C6F090E4D6FB4
:10182A00EBEC07F00050000A03E0FF0E006E30D028
:10183A0091C600F092C601F093C602F094C603F076
:10184A00010E005E000E015A025A035A00500901A5
:10185A000815046E01500915056E02500A15066E28
:10186A0003500B15076E050E026E04C000F005C08A
:10187A0001F0025005E0003600900136FF0FFAD75A
:10188A000901950E00241C6F020E01201D6F33D72B
:02189A0012003A
:10189C0002C902F003C903F005C900F006C901F042
:1018AC00010E0901055F000E065B0050011009E0F6
:1018BC0002C0E1FF03C0E2FF04C9E6FF024A032AAB
:0C18CC00EBD702C900F003C901F01200C4
:1018D800030E09010225E96E000E0321EA6EEECF20
:1018E80009F0000E0A6E0B6E0C6E000E0A6E0B6E7F
:1018F8000C6E0BC003F00AC002F009C001F0006AC8
:1019080000C009F001C00AF002C00BF003C00CF0DF
:10191800020E0225D96E000E0321DA6EDE50002475
:10192800056E000E0120066E000E0220076E000EE6
:101938000320086E05C009F006C00AF007C00BF0C6
:1019480008C00CF007C003F006C002F005C001F0A3
:10195800006A00C009F001C00AF002C00BF003C021
:101968000CF0010E0225D96E000E0321DA6EDE504E
:101978000024056E000E0120066E000E0220076E80
:10198800000E0320086E05C009F006C00AF007C063
:101998000BF008C00CF007C003F006C002F005C049
:1019A80001F0006A00C009F001C00AF002C00BF0A3
:1019B80003C00CF002C9D9FF03C9DAFFDE500026C4
:1019C800000E01220222032200C009F001C00AF021
:1019D80002C00BF003C00CF000C009F001C00AF00F
:0A19E80002C00BF003C00CF0120067
:1019F200010E09010225E96E000E0321EA6EEECF07
:101A020003F0000E046E000E046E03C001F0006AC3
:101A120000C003F001C004F002C9D9FF03C9DAFF14
:101A2200DE500026000E012200C003F001C004F0C7
:0A1A320000C003F001C004F0120030
:0E1A3C0002C9E9FF03C9EAFFEECF00F0120075
:101A4A000134083609360450085E0550D8A0053C12
:101A5A00095E003601360F0E0C6E0134083609365F
:101A6A00045000A006D0085E0550D8A0053C095EC7
:101A7A0005D008260550D8B0053C0926003601369F
:101A8A000C2EEBD700B006D0045008260550D8B06B
:081A9A00053C092600001200C2
:101AA2000450085E0550D8A0053C095E0650D8A037
:101AB200063C0A5E0750D8A0073C0B5E0336070EB1
:101AC2000C6E0334083609360A360B36045003A06E
:101AD2000ED0085E0550D8A0053C095E0650D8A07D
:101AE200063C0A5E0750D8A0073C0B5E0DD00826C4
:101AF2000550D8B0053C09260650D8B0063C0A2647
:101B02000750D8B0073C0B2603360C2EDAD7023426
:101B1200083609360A360B36045003A00ED0085E8A
:101B22000550D8A0053C095E0650D8A0063C0A5EC6
:101B32000750D8A0073C0B5E0DD008260550D8B040
:101B4200053C09260650D8B0063C0A260750D8B0F4
:101B5200073C0B260236070E0C6E02340836093695
:101B62000A360B36045002A00ED0085E0550D8A0EB
:101B7200053C095E0650D8A0063C0A5E0750D8A074
:101B8200073C0B5E0DD008260550D8B0053C09264F
:101B92000650D8B0063C0A260750D8B0073C0B26A0
:101BA20002360C2EDAD70134083609360A360B36DD
:101BB200045002A00ED0085E0550D8A0053C095E74
:101BC2000650D8A0063C0A5E0750D8A0073C0B5E20
:101BD2000DD008260550D8B0053C09260650D8B0CD
:101BE200063C0A260750D8B0073C0B260136070EE2
:101BF2000C6E0134083609360A360B36045001A041
:101C02000ED0085E0550D8A0053C095E0650D8A04B
:101C1200063C0A5E0750D8A0073C0B5E0DD0082692
:101C22000550D8B0053C09260650D8B0063C0A2615
:101C32000750D8B0073C0B2601360C2EDAD70034F9
:101C4200083609360A360B36045001A00ED0085E5B
:101C52000550D8A0053C095E0650D8A0063C0A5E95
:101C62000750D8A0073C0B5E0DD008260550D8B00F
:101C7200053C09260650D8B0063C0A260750D8B0C3
:101C8200073C0B260036070E0C6E00340836093668
:101C92000A360B36045000A00ED0085E0550D8A0BC
:101CA200053C095E0650D8A0063C0A5E0750D8A043
:101CB200073C0B5E0DD008260550D8B0053C09261E
:101CC2000650D8B0063C0A260750D8B0073C0B266F
:101CD20000360C2EDAD700B00ED00450082605507C
:101CE200D8B0053C09260650D8B0063C0A26075053
:081CF200D8B0073C0B261200DC
:101CFA00FF0E0801F225FC6F000EF321FD6F0B0E9B
:101D0A00F0250901026F000E0801F1210901036F94
:101D1A0090DEFCC8E1FFFDC8E2FF00C0E6FF000E4E
:101D2A000801F225FC6F010EF321FD6F1C0EF02550
:101D3A000901026F000E0801F1210901036FC7DDD5
:101D4A00FCC8E1FFFDC8E2FF00C0E6FF01C0E6FFF4
:101D5A0002C0E6FF03C0E6FF040E0801F2250901EE
:101D6A00006F010E0801F3210901016F140E080129
:101D7A00F0250901026F000E0801F1210901036F24
:101D8A0033DE00C003F001C004F0000E056E066EDB
:101D9A0004C0FFF803C0FEF80801FC6BFD6B1A0EC5
:101DAA00F0250901026F000E0801F1210901036FF4
:101DBA001BDE000E026E036E0801FC510026FD5167
:101DCA000122FE510222FF51032200C9E1FF01C98B
:101DDA00E2FF00C0E6FF01C0E6FF02C0E6FF03C063
:101DEA00E6FF0B0EF025E96E000EF121EA6E3F0EBA
:101DFA00EE14016E01500F0A28E0F2C802F9F3C886
:101E0A0003F90901046BFF0E056F000E066F41DD31
:101E1A00F2C802F9F3C803F9F4C804F9F5C805F9D8
:101E2A00F6C806F9F7C807F9F8C808F9F9C809F9A8
:101E3A00FAC80AF9FBC80BF995EC0AF00050000A37
:101E4A0003E0FF0E006E07D005D0F2C8E1FFF3C829
:081E5A00E2FFE66A006A1200D3
:101E62000901736B746B756B766B83EC03F0005036
:101E7200000A03E0FF0E006E3ED1950E0801F16FDD
:101E8200020EF26F950EF36F020EF46FFE0EF12545
:101E92000901026F010E0801F2210901036FA8DD99
:101EA2000150AA0A02E1550E001806E0FC0E0201DA
:101EB200886FFF0E006E1FD1F3C8E9FFF4C8EAFF76
:101EC200EECF01F00150E90A15E0F3C8E9FFF4C8CA
:101ED200EAFFEECF01F00150EB0A0BE1020E08011E
:101EE200F325E96E000EF421EA6EEE50900A01E14C
:101EF20001D006D0FB0E0201886FFF0E006EFBD0F0
:101F02000801F06B010EF05DD8B0F4D00A0E006E3D
:101F1200000E016EF0C804F0000E056EDBEC06F058
:101F2200990E0026040E012200C0F5F801C0F6F851
:101F3200BE0EF1250901026F010E0801F22109010D
:101F4200036F040E026EF0C800F0000E016E025024
:101F520005E0003600900136FF0FFAD70901005064
:101F620002270150032369DDF5C8E1FFF6C8E2FF4D
:101F720000C0E6FF0A0E006E000E016EF0C804F00B
:101F8200000E056EDBEC06F0990E0026040E01220F
:101F9200010E00240801F56F000E0120F66FBE0E3F
:101FA200F1250901026F010E0801F2210901036FF7
:101FB200040E026EF0C800F0000E016E025005E041
:101FC200003600900136FF0FFAD7090100500227B0
:101FD20001500323040E0227000E03232EDDF5C851
:101FE200E1FFF6C8E2FF00C0E6FF0A0E006E000E37
:101FF200016EF0C804F0000E056EDBEC06F0990EDF
:102002000026040E0122020E00240801F56F000EC4
:102012000120F66FBE0EF1250901026F010E0801C3
:10202200F2210901036F040E026EF0C800F0000EE7
:10203200016E025005E0003600900136FF0FFAD71C
:1020420009010050022701500323080E0227000E47
:10205200032341DCF5C8E1FFF6C8E2FF00C0E6FF5A
:1020620001C0E6FF02C0E6FF03C0E6FF0A0E006EF3
:10207200000E016EF0C804F0000E056EDBEC06F0F7
:10208200990E0026040E0122060E00240801F56FA7
:10209200000E0120F66FBE0EF1250901026F010E3E
:1020A2000801F2210901036F040E026EF0C800F06C
:1020B200000E016E025005E0003600900136FF0F5F
:1020C200FAD7090100500227015003230C0E022700
:1020D200000E032300DCF5C8E1FFF6C8E2FF00C0F2
:1020E200E6FF01C0E6FF02C0E6FF03C0E6FF08010B
:0820F200F02B08D7006A120070
:1020FA000801F16BF26B270EF25D02E1100EF15D41
:10210A00D8B0B3D0000E000A02E1000EF0191AE1AD
:10211A00C6EC02F0010E09018B6F8C6B8D6B8E6B16
:10212A008F6BFF0E906F5DEC02F000C0F3F8D9ECF4
:10213A0001F00801F351000A04E10201016B006A8F
:10214A0096D08FD0C6EC02F0370E09018B6F8C6BDC
:10215A008D6B8E6B8F6BFF0E906F5DEC02F000C083
:10216A00F3F8D9EC01F00801F351010AD8A478D0A8
:10217A00C6EC02F0290E09018B6F000E8C6F000E5F
:10218A008D6F000E8E6F400E8F6FFF0E906F5DEC9D
:10219A0002F000C0F3F8D9EC01F00801F351000A8B
:1021AA005EE1000E000A02E1020EF01953E1C6ECEC
:1021BA0002F03A0E09018B6F8C6B8D6B8E6B8F6BF5
:1021CA00FF0E906F5DEC02F000C0F3F8A7C6E1FFC6
:1021DA00A8C6E2FFFF0EE66EA5C600F0A6C601F08D
:1021EA002DEC00F000C0F4F8A7C6E1FFA8C6E2FF94
:1021FA00FF0EE66EA5C600F0A6C601F02DEC00F0B3
:10220A00A7C6E1FFA8C6E2FFFF0EE66EA5C600F06C
:10221A00A6C601F02DEC00F0A7C6E1FFA8C6E2FFB2
:10222A00FF0EE66EA5C600F0A6C601F02DEC00F082
:10223A00D9EC01F00801F351000A0BE1F4AD04D026
:10224A00040E0201016F03D00201030E016F006A3E
:10225A000ED005D00201010E016F006A08D001D02C
:10226A0004D00801F14BF22B46D7010E006E120082
:10227A00F0C802F0F1C803F002C000F003C001F098
:10228A00024A032A00C0E9FF01C0EAFFEE5201E058
:10229A00F3D70801F051025C006EF1510358016E48
:0A22AA00010E005E000E015A120042
:1022B400F0C858F907EC05F0005208E1F0C802F93B
:1022C40003EC0AF0005202E1006A02D0010E006E33
:0222D4001200F6
:1022D60006010051030A0BE16BEC03F00050000A03
:1022E60006E0FF0E0201886FFF0E006E33D0060176
:1022F6000051010A06E1FE0E0201886FFF0E006E14
:1023060029D0F0C802F9F1C803F9F2C804F9F3C8F4
:1023160005F9950E0901066F020E076F20EC0AF00B
:10232600000E00180EE0FF0E0201916FFF0E926F75
:10233600FF0E936FFF0E946FFE0E886FFF0E006EFA
:1023460009D0F0C891F2F1C892F2F2C893F2F3C83C
:0623560094F2006A12007F
:10235C00F4C801F0F5C802F0010E0801F45F000E9C
:10236C00F55B000E021802E1000E01181FE0F0C828
:10237C00E9FFF1C8EAFFF2C8D9FFF3C8DAFFEE5063
:10238C00DE180FE0F0C8E9FFF1C8EAFFF2C8D9FF88
:10239C00F3C8DAFFDE50EE5C006E016A000E015AE3
:1023AC0007D0F04BF12BF24BF32BD2D7006A016A1A
:0223BC0012000D
:1023BE000801F0517A0804E3610EF05DD8B0F09B8D
:0623CE00F0C800F012004F
:1023D4000B1E0A1E091E081E082AD8B4092AD8B4DE
:0823E4000A2AD8B40B2A1200EA
:1023EC00010E066E000E076E086E096E056A800EF1
:1023FC00006E800E000A005C02E1200E055C23E2F8
:10240C0006500801F011016E0750F111026E0850D0
:10241C00F211036E0950F311046E0450091808E10F
:10242C000350081805E10250071802E10150061884
:10243C0003E105C000F009D00636069007360836D1
:0C244C000936052AD4D7FF0E006E1200DE
:102458000E0E0801F0250901026F000E0801F12196
:102468000901036FF9EC0CF00B0E046E00C002F0CA
:1024780001C003F0045005E003320232039EFF0F4F
:10248800FAD71F0E0214006E00C08CF60E0E08015B
:10249800F0250901026F000E0801F1210901036FFF
:1024A800F9EC0CF0050E046E00C002F001C003F058
:1024B800045005E003320232039EFF0FFAD73F0EA5
:1024C8000214006E00C08DF60E0E0801F0250901F9
:1024D800026F000E0801F1210901036FF9EC0CF0FD
:1024E80000C002F0023602903F0E0214006E00C0D7
:1024F8008EF6100E0801F0250901026F000E080182
:10250800F1210901036FF9EC0CF0090E046E00C00B
:1025180002F001C003F0045005E003320232039ECA
:10252800FF0FFAD77F0E0214006E03C001F0000EF1
:10253800011600C088F601C089F6BC0E0026070EF9
:10254800012200C088F601C089F6100E0801F025A6
:102558000901026F000E0801F1210901036FF9EC6E
:102568000CF0050E046E00C002F001C003F0045028
:1025780005E003320232039EFF0FFAD70F0E021452
:10258800006E00C08AF6100E0801F0250901026FDE
:10259800000E0801F1210901036FF9EC0CF01F0E80
:0C25A8000014006E00C08BF6006A1200E8
:1025B40006010051020A17E1010E020191250901E9
:1025C400026F000E020192210901036F000E020145
:1025D40093210901046F000E020194210901056F82
:1025E40035EC0AF030D006010051000A06E1FF0E76
:1025F4000201886FFF0E006E26D0950E0901446F0C
:10260400020E456FE4EC07F00050000A06E0FF0EEE
:102614000201886FFF0E006E16D00201010E912593
:10262400006E000E9221016E000E9321026E000EC8
:102634009421036E00C091F201C092F202C093F2A1
:0826440003C094F2006A1200C9
:10264C00160E0801F0250901026F000E0801F12198
:10265C000901036FF9EC0CF00B0E046E00C002F0D4
:10266C0001C003F0045005E003320232039EFF0F59
:10267C00FAD71F0E0214006E00C01DF6160E0801CC
:10268C00F0250901026F000E0801F1210901036F09
:10269C00F9EC0CF0050E046E00C002F001C003F062
:1026AC00045005E003320232039EFF0FFAD73F0EAF
:1026BC000214006E00C01EF6160E0801F02509016A
:1026CC00026F000E0801F1210901036FF9EC0CF007
:1026DC0000C002F0023602903F0E0214006E00C0E1
:1026EC001FF6180E0801F0250901026F000E0801F3
:1026FC00F1210901036FF9EC0CF0090E046E00C016
:10270C0002F001C003F0045005E003320232039ED4
:10271C00FF0FFAD77F0E0214006E03C001F0000EFB
:10272C00011600C019F601C01AF6BC0E0026070EE1
:10273C00012200C019F601C01AF6180E0801F02586
:10274C000901026F000E0801F1210901036FF9EC78
:10275C000CF0050E046E00C002F001C003F0045032
:10276C0005E003320232039EFF0FFAD70F0E02145C
:10277C00006E00C01BF6180E0801F0250901026F4F
:10278C00000E0801F1210901036FF9EC0CF01F0E8A
:0C279C000014006E00C01CF6006A120061
:1027A800050E0201016F9598D9EC01F00801CF6B75
:1027B800D06B000ED05D02E10A0ECF5D10E2A7C615
:1027C800E1FFA8C6E2FFFF0EE66EA5C600F0A6C6AA
:1027D80001F02DEC00F00801CF4BD02BEAD7C6EC66
:1027E80002F009018B6B8C6B8D6B8E6B8F6B950E6A
:1027F800906F5DEC02F000C0D1F8D9EC01F008014F
:10280800D151010A03E0010E006E82D0C6EC02F03D
:10281800080E09018B6FAA0E8C6F010E8D6F000ECA
:102828008E6F8F6F870E906F5DEC02F000C0D1F84D
:10283800A7C6E1FFA8C6E2FFFF0EE66EA5C600F038
:10284800A6C601F02DEC00F0A7C6E1FFA8C6E2FF7E
:10285800FF0EE66EA5C600F0A6C601F02DEC00F04E
:10286800A7C6E1FFA8C6E2FFFF0EE66EA5C600F008
:10287800A6C601F02DEC00F0A7C6E1FFA8C6E2FF4E
:10288800FF0EE66EA5C600F0A6C601F02DEC00F01E
:10289800D9EC01F00801D151010A09E0010EF06FED
:1028A80028DC005203E00801F06B23DC04D0020EA0
:1028B8000801F06F1EDC000E000A03E1050E02019C
:1028C800011903E1020E006E23D0000E000A03E195
:1028D8000201040E01191BE0C6EC02F0100E0901FA
:1028E8008B6F000E8C6F020E8D6F000E8E6F8F6FC8
:1028F800FF0E906F5DEC02F000C0D1F8D9EC01F04A
:102908000801D151000A03E0030E006E01D0006AED
:022918001200AB
:10291A0031EC0FF0950E0801D06F020ED16F020153
:10292A008851FF0A03E1FF0E006E9FD28851FC0A0C
:10293A0003E1FF0E006E99D28851000AD8A469D02B
:10294A000F0E04019A15016E01C0D2F801500B0A4C
:10295A000AE00801D2510C0A06E0F80E0201886F5B
:10296A00FF0E006E82D29BC473F99CC474F99DC495
:10297A0075F99EC476F983EC03F00050000A03E06F
:10298A00FF0E006E72D2950E0801D06F020ED16F43
:10299A00FE0ED0250901026F010E0801D12109019D
:1029AA00036FF9EC0CF00150AA0A02E1550E001867
:1029BA0006E0FC0E0201886FFF0E006E56D2D0C8E8
:1029CA00E9FFD1C8EAFFEECF01F00150E90A16E0AB
:1029DA00D0C8E9FFD1C8EAFFEECF01F00150EB0AF7
:1029EA000BE1020E0801D025E96E000ED121EA6E34
:1029FA00EE50900A01E102D0006A02D0010E006E88
:102A0A00005206E1FB0E0201886FFF0E006E2DD206
:102A1A0021D002018851FB0A1DE1800E0401996F41
:102A2A009B6B9C6B9D6B9E6B200E0801D025090148
:102A3A00026F000E0801D1210901036F6CEC0CF042
:102A4A0000C09FF401C0A0F402C0A1F403C0A2F424
:102A5A000201886B02018851000AD8A401D20B0E28
:102A6A000801D0250901026F000E0801D1210901D0
:102A7A00036FF9EC0CF000C0A3F401C0A4F40D0E2E
:102A8A000801D0250901026F000E0801D1210901B0
:102A9A00036F1EEC0DF000C0A5F40E0E0801D02540
:102AAA000901026F000E0801D1210901036FF9EC37
:102ABA000CF000C0A6F401C0A7F4100E0801D0253E
:102ACA000901026F000E0801D1210901036F1EECF2
:102ADA000DF000C0A8F4240E0801D0250901026FE8
:102AEA00000E0801D1210901036F6CEC0CF000C043
:102AFA00A9F401C0AAF402C0ABF403C0ACF4280ED6
:102B0A000801D0250901026F000E0801D12109012F
:102B1A00036FF9EC0CF000C0ADF401C0AEF404018F
:102B2A00A6519B25006EA7519C21016E000E9D2186
:102B3A00026E000E9E21036E00C0AFF401C0B0F415
:102B4A0002C0B1F403C0B2F42C0E0801D025090169
:102B5A00026F000E0801D1210901036F6CEC0CF021
:102B6A0000C0B3F401C0B4F402C0B5F403C0B6F4B3
:102B7A00110E0801D0250901026F000E0801D121AA
:102B8A000901036FF9EC0CF000C0B7F401C0B8F406
:102B9A00300E0801D0250901026F000E0801D1216B
:102BAA000901036FF9EC0CF0000E026E036E0401CA
:102BBA009B5100269C5101229D5102229E510322C3
:102BCA0000C0BDF401C0BEF402C0BFF403C0C0F42B
:102BDA00AFC4B9F4B0C4BAF4B1C4BBF4B2C4BCF45F
:102BEA000801CF6B0401A8510801CF5D18E2040166
:102BFA00A951B925006EAA51BA21016EAB51BB2168
:102C0A00026EAC51BC21036E00C0B9F401C0BAF423
:102C1A0002C0BBF403C0BCF40801CF2BE3D7050EF6
:102C2A00006EA3C491F6A4C492F6000E0601936F37
:102C3A00946F005005E092339133929FFF0FFAD7B9
:102C4A00000E936F946FA3C4F5F5A4C4F6F5000EB5
:102C5A000501F76FF86FF633F533F69FF633F53360
:102C6A00F69F000EF76FF86FA3C4F0F8A4C4F1F84A
:102C7A00000E0801F26FF36FF6EC11F000C0A4F633
:102C8A00A5C4F0F8000E0801F16FF26FF36FF6ECCD
:102C9A0011F000C0FAF591C6F0F892C6F1F893C6A1
:102CAA00F2F894C6F3F8F6EC11F000C096F6F5C502
:102CBA00F0F8F6C5F1F8F7C5F2F8F8C5F3F8F6EC4E
:102CCA0011F000C097F60501FA510601A425006E1D
:102CDA0000C0FFF5010EA06F000EA16F000EA26FDB
:102CEA00000EA36F005007E0A037A091A137A237CA
:102CFA00A337FF0FF8D7200E0801F06F000EF16F0F
:102D0A00F26FF36FF6EC11F000500501FF5D006EF3
:102D1A00016A000E00BEFF0E015A00C004F0010E47
:102D2A00006E000E016E000E026E000E036E04505D
:102D3A0007E000360090013602360336FF0FF8D757
:102D4A0000C095F401C096F402C097F403C098F449
:102D5A0000C0F0F801C0F1F802C0F2F803C0F3F8BD
:102D6A00F6EC11F000C095F6B3C4D9F5B4C4DAF59F
:102D7A00B5C4DBF5B6C4DCF50501DD6BDE6BDF6BD4
:102D8A00E06BB9C400F0BAC401F0BBC402F0BCC421
:102D9A0003F004019B51005E9C51015A9D51025A55
:102DAA009E51035A9FC48DF2A0C48EF2A1C48FF221
:102DBA00A2C490F2005002018D5F01508E5B025056
:102DCA008F5B0350905BFAC500F0005007E0903328
:102DDA008F338E338D33909FFF0FF8D7020E8D27D6
:102DEA00000E8E238F23902304019A5325E1000EAF
:102DFA000201905D08E1000E8F5D05E1FF0E8E5D18
:102E0A0002E1F70E8D5D04E30B0E04019A6F14D0F4
:102E1A00000E0201905D08E1000E8F5D05E10F0EC4
:102E2A008E5D02E1F70E8D5D04E3060E04019A6FD2
:102E3A0003D00401010E9A6F0F0E9A15016E01C09C
:102E4A00D2F801500B0A0AE00801D2510C0A06E036
:102E5A00F80E0201886FFF0E006E07D0006A05D0D7
:0C2E6A000201FB0E886FFF0E006E1200CC
:102E7600C5C4CFF8C6C4D0F8C7C4D1F8C8C4D2F800
:102E86000401B651C85D08E1B551C75D05E1B4510D
:102E9600C65D02E1B351C55D15E30201905108011B
:102EA600D25D0EE102018F510801D15D09E10201F7
:102EB6008E510801D05D04E102018D510801CF5DFC
:102EC60001E208D0B3C4CFF8B4C4D0F8B5C4D1F881
:102ED600B6C4D2F8CFC8D3F8D0C8D4F8D1C8D5F87C
:102EE600D2C8D6F897C604F0CFC800F0D0C801F013
:102EF600D1C802F0D2C803F0045007E00332023210
:102F060001320032039EFF0FF8D700500401AF25AF
:102F16000901026F01500401B0210901036F02503B
:102F26000401B1210901046F03500401B221090112
:102F3600056FF5C500F0F6C501F0F7C502F0F8C556
:102F460003F0010E005E000E015A025A035A0050A9
:102F56000801CF15046E0150D015056E0250D1152B
:102F6600066E0350D215076E04C000F005C001F0CE
:102F7600003600900136003600900136950E00248A
:102F8600D76F020E0120D86F35EC0AF00050000A08
:102F960009E0FF0E006EFF0E016EFF0E026E0F0EB1
:102FA600036E6FD10801D96BD7C8E9FFD8C8EAFF0D
:102FB600EECF01F0EECF02F0EECF03F0EECF04F04D
:102FC6000450000A08E10350000A05E10250000A15
:102FD60002E10150000A04E10801010ED96FC2D0D6
:102FE6000801040ED727000ED823010ECF27000EA6
:102FF600D023D123D223020190510801D25D0EE1E4
:1030060002018F510801D15D09E102018E510801CB
:10301600D05D04E102018D510801CF5DD8A077D0C3
:10302600B3C4CFF8B4C4D0F8B5C4D1F8B6C4D2F896
:103036006BEC03F00050000A09E0FF0E006EFF0E75
:10304600016EFF0E026E0F0E036E1BD197C604F0C3
:10305600CFC800F0D0C801F0D1C802F0D2C803F042
:10306600045007E00332023201320032039EFF0FA2
:10307600F8D700500401AF250901026F0150040181
:10308600B0210901036F02500401B1210901046F47
:1030960003500401B2210901056FF5C500F0F6C51C
:1030A60001F0F7C502F0F8C503F0010E005E000E50
:1030B600015A025A035A00500801CF15046E0150F6
:1030C600D015056E0250D115066E0350D215076E47
:1030D60004C000F005C001F000360090013600364D
:1030E60000900136950E0024D76F020E0120D86F8E
:1030F60035EC0AF00050000A09E0FF0E006EFF0EE4
:10310600016EFF0E026E0F0E036EBBD01CD00801BF
:10311600D8510601901903E18F510801D71913E11F
:103126000801950ED76F020ED86FDAEC12F0005038
:10313600000A09E0FF0E006EFF0E016EFF0E026E22
:103146000F0E036E9ED00801D251D61908E1D15157
:10315600D51905E1D051D41902E1CF51D31901E1B6
:1031660001D022D76BEC03F00050000A09E0FF0EF5
:10317600006EFF0E016EFF0E026E0F0E036E81D003
:103186000801D95309E1FF0E006EFF0E016EFF0E16
:10319600026E0F0E036E75D0D7C8E1FFD8C8E2FFE6
:1031A600FF0EE66EFF0EE66EFF0EE66E0F0EE66E85
:1031B60097C604F0CFC800F0D0C801F0D1C802F01D
:1031C600D2C803F0045007E0033202320132003263
:1031D600039EFF0FF8D700500401AF250801F06FDA
:1031E60001500401B0210801F16F02500401B12120
:1031F6000801F26F03500401B2210801F36F6BEC72
:1032060011F00050000A07E0FF0E006EFF0E016E7F
:10321600026E036E36D00401C451FF0A08E1C351A1
:10322600FF0A05E1C251FF0A02E1C151FF0A16E099
:10323600C1C400F0C2C401F0C3C402F0C4C403F0A8
:10324600010E005E000E015A025A035A00C0C1F474
:1032560001C0C2F402C0C3F403C0C4F4CFC8C5F4AD
:10326600D0C8C6F4D1C8C7F4D2C8C8F4010E060146
:10327600986FCFC800F0D0C801F0D1C802F0D2C80C
:0432860003F012003F
:10328A006DB409D01F0E6B14016E0150000A03E1E0
:0A329A00010E006E01D0006A120060
:1032A40097C604F0D3C800F0D4C801F0D5C802F022
:1032B400D6C803F0045007E0033202320132003270
:1032C400039EFF0FF8D700C0D8F801C0D9F802C098
:1032D400DAF803C0DBF80401AF510024086EB051E2
:1032E4000120096EB15102200A6EB25103200B6E07
:1032F40008C0D8F809C0D9F80AC0DAF80BC0DBF85E
:10330400F5C500F0F6C501F0F7C502F0F8C503F005
:10331400010E005E000E015A025A035A00500801C1
:10332400D315046E0150D415056E0250D515066EE2
:103334000350D615076E04C000F005C001F0003636
:1033440000900136003600900136950E0024E06F9F
:10335400020E0120E16F08C073F909C074F90AC0B4
:1033640075F90BC076F983EC03F00050000A03E012
:10337400FF0E006E46D0E0C8E1FFE1C8E2FFCFC80F
:10338400E6FFD0C8E6FFD1C8E6FFD2C8E6FFD8C83A
:10339400DCF8D9C8DDF8DAC8DEF8DBC8DFF80801E4
:1033A400D76B0401A8510801D75D22E2DCC8F0F80C
:1033B400DDC8F1F8DEC8F2F8DFC8F3F86BEC11F001
:1033C4000050000A03E0FF0E006E1BD00401A95157
:1033D4000801DC270401AA510801DD230401AB51D3
:1033E4000801DE230401AC510801DF23D72BD9D710
:1033F400D8C891F2D9C892F2DAC893F2DBC894F231
:04340400006A120048
:103408000E0E0801CF25006E000ED021016E010EB0
:103418000024E16E000E0120E26E9DC600F0003629
:103428000090003600900036009000C0E6FF0E0EB7
:10343800CF25006E000ED021016E010E0024026E11
:10344800000E0120036E9EC600F00032009E00327E
:10345800009E0032009E02C0E9FF03C0EAFFEE5062
:10346800002602C0E1FF03C0E2FF00C0E6FF0E0E27
:10347800CF25E16E000ED021E26E050E016E9EC6CC
:1034880000F0015004E000360090FF0FFBD700C0A9
:10349800E6FF0E0ECF25026E000ED021036E9FC6EA
:1034A80000F00032009E02C0E9FF03C0EAFFEE50C0
:1034B800002602C0E1FF03C0E2FF00C0E6FF100ED5
:1034C800CF25006E000ED021016E010E0024E16EA2
:1034D800000E0120E26EBC0E0601995D026E02C06C
:1034E80000F00036009000C0E6FF100E0801CF255E
:1034F800006E000ED021016E010E0024026E000E37
:103508000120036E9BC600F00032009E0032009E30
:103518000032009E02C0E9FF03C0EAFFEE50002619
:1035280002C0E1FF03C0E2FF00C0E6FF100ECF2596
:10353800E16E000ED021E26E050E016E9BC600F012
:10354800015004E000360090FF0FFBD700C0E6FFF3
:10355800100ECF25016E000ED021026E01C0E9FFCA
:1035680002C0EAFF06019C51EE24006E01C0E1FF93
:0C35780002C0E2FF00C0E6FF006A120083
:103584000501E051FF0A08E1DF51FF0A05E1DE51C0
:10359400FF0A02E1DD51FF0A06E1F60E0201886F1F
:1035A400FF0E006E8CD2D9C5D1F8DAC5D2F8DBC5CE
:1035B400D3F8DCC5D4F80401B6510501DC5D0EE195
:1035C4000401B5510501DB5D09E10401B4510501B4
:1035D400DA5D04E10401B3510501D95D15E302018B
:1035E40090510801D45D0EE102018F510801D35DB1
:1035F40009E102018E510801D25D04E102018D51FD
:103604000801D15D01E206D0F40E0201886FFF0EBD
:10361400006E55D20801DB6B95C600F0DDC501F0E4
:10362400DEC502F0DFC503F0E0C504F0005007E09A
:103634000432033202320132049EFF0FF8D70450E1
:10364400000809E10350000806E10250000803E104
:1036540008010150DB5D56E2D1C86FF9D2C870F998
:10366400D3C871F9D4C872F96DEC04F000C0D1F874
:1036740001C0D2F802C0D3F803C0D4F803500F0A33
:1036840008E10250FF0A05E10150FF0A02E100507F
:10369400FF0A06E1F10E0201886FFF0E006E0FD2E1
:1036A4000401B6510801D45D0EE10401B5510801CD
:1036B400D35D09E10401B4510801D25D04E10401C0
:1036C400B3510801D15D15E3020190510801D45DA5
:1036D4000EE102018F510801D35D09E102018E510F
:1036E4000801D25D04E102018D510801D15D01E2BE
:1036F40006D0F40E0201886FFF0E006EE0D10801BF
:10370400DB2B8AD795C400F096C401F097C402F06D
:1037140098C403F0010E005E000E015A025A035AC7
:1037240000500501DD150801D76F01500501DE15B4
:103734000801D86F02500501DF150801D96F035045
:103744000501E0150801DA6FD1C86FF9D2C870F924
:10375400D3C871F9D4C872F923EC04F096C608F002
:10376400D7C804F0D8C805F0D9C806F0DAC807F0FD
:10377400085007E00732063205320432079EFF0F75
:10378400F8D7045000240901026F05500120036F8B
:1037940006500220046F07500320056F91C600F005
:1037A40092C601F093C602F094C603F0010E005EC7
:1037B400000E015A025A035A00500801D715046E2C
:1037C4000150D815056E0250D915066E0350DA154E
:1037D400076E050E026E04C000F005C001F0025031
:1037E40005E0003600900136FF0FFAD70801950E68
:1037F4000024D56F020E0120D66F35EC0AF000507C
:10380400000A03E0FF0E006E5AD1D5C8E9FFD6C8FE
:10381400EAFFEECF01F00150E50A0AE0D5C8E9FF5E
:10382400D6C8EAFFEECF01F0200E015C01E318D008
:10383400D5C8E9FFD6C8EAFFEECF01F0140E015C4B
:103844000EE20B0E0801D525E96E000ED621EA6EB4
:103854003F0EEE14016E01500F0A01E101D09DD01C
:103864006BEC03F00050000A03E0FF0E006E27D15A
:103874000B0E0801D525E96E000ED621EA6EEECFB7
:1038840001F001A633D0CFC802F9D0C803F9090169
:10389400046B100E056F010E066F4EEC0CF0FF0E5C
:1038A4000801CF25DC6F000ED021DD6F0B0ED5256E
:1038B4000901026F000E0801D6210901036F1EECF5
:1038C4000DF0DCC8E1FFDDC8E2FF00C0E6FFCFC8B1
:1038D40058F9D0C859F9D5C85AF9D6C85BF90B0EAE
:1038E4005C6F000E5D6F20EC05F04DD00801CF51E8
:1038F400D01149E0D5C8F0F8D6C8F1F8CFC8F2F82D
:10390400D0C8F3F8D9C5F4F8DAC5F5F8DBC5F6F88C
:10391400DCC5F7F8DDC5F8F8DEC5F9F8DFC5FAF857
:10392400E0C5FBF87DEC0EF00050000A03E0FF0E4A
:10393400006EC5D0D5C8F0F8D6C8F1F82CEC12F05A
:10394400D5C8F0F8D6C8F1F826EC13F0080E080133
:10395400CF25E16E010ED021E26ED9C5E6FFDAC5AE
:10396400E6FFDBC5E6FFDCC5E6FF0C0ECF25E16E06
:10397400010ED021E26EDDC5E6FFDEC5E6FFDFC540
:10398400E6FFE0C5E6FF010E0501DD27000EDE239C
:10399400DF23E023010E006E92D0010E0801D72729
:1039A400000ED823D923DA23200ED525016E000E6C
:1039B400D621026E01C0D5F802C0D6F8010E050169
:1039C400DD27000EDE23DF23E023025006019019D9
:1039D40002E18F510118D8A471D0950E0801D56F5A
:1039E400020ED66FDA51040198190EE10801D9517B
:1039F4000401971909E10801D8510401961904E159
:103A04000801D7510401951951E16BEC03F0005002
:103A1400000A03E0FF0E006E52D00801D76BD86B8A
:103A2400D96BDA6BD1C86FF9D2C870F9D3C871F900
:103A3400D4C872F96DEC04F000C0D1F801C0D2F81A
:103A440002C0D3F803C0D4F803500F0A08E10250AF
:103A5400FF0A05E10150FF0A02E10050FF0A0BE1F1
:103A6400FF0E0501DD6FFF0EDE6FFF0EDF6FFF0E31
:103A7400E06F006A24D0D1C86FF9D2C870F9D3C8F6
:103A840071F9D4C872F923EC04F000C002F901C042
:103A940003F902C004F903C005F935EC0AF000503B
:103AA400000A03E0FF0E006E0AD008D0DAEC12F030
:103AB4000050000A03E0FF0E006E01D0A6D61200EB
:103AC400160E0801CF25006E000ED021016E010EE6
:103AD4000024E16E000E0120E26E9DC600F0003667
:103AE4000090003600900036009000C0E6FF160EED
:103AF400CF25006E000ED021016E010E0024026E4F
:103B0400000E0120036E9EC600F00032009E0032BB
:103B1400009E0032009E02C0E9FF03C0EAFFEE509F
:103B2400002602C0E1FF03C0E2FF00C0E6FF160E5C
:103B3400CF25E16E000ED021E26E050E016E9EC609
:103B440000F0015004E000360090FF0FFBD700C0E6
:103B5400E6FF160ECF25026E000ED021036E9FC61F
:103B640000F00032009E02C0E9FF03C0EAFFEE50FD
:103B7400002602C0E1FF03C0E2FF00C0E6FF180E0A
:103B8400CF25006E000ED021016E010E0024E16EDF
:103B9400000E0120E26EBC0E0601995D026E02C0A9
:103BA40000F00036009000C0E6FF180E0801CF2593
:103BB400006E000ED021016E010E0024026E000E74
:103BC4000120036E9BC600F00032009E0032009E6E
:103BD4000032009E02C0E9FF03C0EAFFEE50002657
:103BE40002C0E1FF03C0E2FF00C0E6FF180ECF25CC
:103BF400E16E000ED021E26E050E016E9BC600F050
:103C0400015004E000360090FF0FFBD700C0E6FF30
:103C1400180ECF25016E000ED021026E01C0E9FFFF
:103C240002C0EAFF06019C51EE24006E01C0E1FFD0
:0C3C340002C0E2FF00C0E6FF006A1200C0
:103C40001A0E0801CF25E16E000ED021E26ED1C818
:103C5000E6FF1A0ECF25006E000ED021016E010E78
:103C60000024E16E000E0120E26ED2C8E6FF140EC1
:103C7000CF25E16E000ED021E26ED3C8E6FF140E10
:103C8000CF25006E000ED021016E010E0024E16EE2
:0E3C9000000E0120E26ED4C8E6FF006A1200AA
:103C9E000450000A08E10550000A05E1FF0E006E0F
:103CAE007F0E016E58D00D6A096A086A0150001025
:103CBE00D8B4000C015005180A6E0ABE0D1E0B6A10
:103CCE0005AE05D0041E051E042AD8B4052A01AE81
:103CDE0005D0001E011E002AD8B4012A015005107D
:103CEE000A6E0ABE10D025EC0DF00BB020D00DAE32
:103CFE00000C001E011E002AD8B4012A081E091E3F
:103D0E00082AD8B4092A000C05AE0DD001BE07D082
:103D1E000150096E0050086E016A006AE8D7016A08
:103D2E00006A002A000C011E001E0B2ADDD7082A8D
:103D3E00D8B4092A0450085CD8A4D9D70550095C18
:103D4E00D8A4D5D7096A086A002AD8B4012A01AEC8
:083D5E00CED70000FF0C12009B
:103D6600010E0801D36FD46BD56BD66BD76BD86BAE
:103D7600D96BCFC8E9FFD0C8EAFFEE50000A06E1CA
:103D8600C40E0201886FFF0E006EF2D0CFC8F0F8A5
:103D9600D0C8F1F83DEC11F000C0D2F8D16BCFC815
:103DA600F0F8D0C8F1F83DEC11F0800E026E800EEE
:103DB6000118025C02E10050D15D15E2D151CF2518
:103DC600E96E000ED021EA6EEECFF0F85AEC11F053
:103DD600005206E1C30E0201886FFF0E006EC8D0C6
:103DE6000801D12BDCD7D205006E000ED2BFFF0E24
:103DF600016E000E015A0050CF25E96E0150D02108
:103E0600EA6EEE502E0A02E1D207EDD7800E000AC6
:103E1600006E800ED219005C06E3E20E0201886F86
:103E2600FF0E006EA5D0CFC8F0F8D0C8F1F83DEC73
:103E360011F0800ED2BF7F0E026E800E0118025C5A
:103E460002E10050D25D09E2D251CF25E16E000EAB
:103E5600D2BFFF0ED021E26EE66AD16B800E006EF5
:103E6600800ED2BF7F0E005C02E1D251D15D12E21C
:103E7600D151CF25E96E000ED021EA6EEECF02F9C0
:103E860003EC0AF0005203E0010E006E71D0080147
:103E9600D12BE4D7800E0C0A006E800ED219005C7E
:103EA60003E2010E006E64D0D16B800E006E800EB0
:103EB600D2BF7F0E005C02E1D251D15D43E2D15107
:103EC600CF25E96E000ED021EA6EEECF6FF9EEEC4B
:103ED60003F0005204E0010E0801D46F2CD0080153
:103EE600D151CF25E96E000ED021EA6EEECF6FF9E3
:103EF60017EC04F0005204E0010E0801D56F1BD048
:103F06000801D151CF25E96E000ED021EA6EEE50A0
:103F16002E0A11E1D7530CE1D45304E0D55302E045
:103F2600010ED66F010ED76FD36BD46BD56B08D04D
:103F3600010E006E1DD0D35302E0D82B01D0D92B31
:103F4600D12BB3D7D45304E0D55302E0010ED66F7C
:103F5600D851080804E3D951030801E303D0010E40
:103F6600006E06D0D65303E0020E006E01D0006A42
:023F7600120037
:103F7800086A080E0C6E003408360450085ED8B083
:0E3F880002D00826D89000360C2EF5D7120075
:103F9600DDC5E7F8DEC5E8F8DFC5E9F8E0C5EAF80B
:103FA600D9C544F9DAC545F9DBC546F9DCC547F993
:103FB600DDC548F9DEC549F9DFC54AF9E0C54BF963
:103FC600EB0E09014C6F080E4D6FEBEC07F000503D
:103FD600000A03E0FF0E006E7CD191C600F092C687
:103FE60001F093C602F094C603F0010E005E000EC7
:103FF600015A025A035A00500501DD15046E01509C
:10400600DE15056E0250DF15066E0350E015076ECD
:1040160004C0E3F805C0E4F806C0E5F807C0E6F812
:10402600050E026E04C000F005C001F0025005E066
:10403600003600900136FF0FFAD7950E00240901CD
:10404600446F020E0120456F010E0801D26FBAECD3
:1040560007F000C0D3F8010E0501DD5F000EDE5B40
:10406600DF5BE05B000E006E0801E61908E1005018
:10407600E51905E10050E41902E1E351000A2CE1DB
:1040860095C4E3F896C4E4F897C4E5F898C4E6F84E
:10409600010EE35F000EE45BE55BE65BD9C544F920
:1040A600DAC545F9DBC546F9DCC547F9DDC548F98A
:1040B600DEC549F9DFC54AF9E0C54BF9EB0E090142
:1040C6004C6F080E4D6FEBEC07F00050000A03E052
:1040D600FF0E006EFED007D0010E0801E35F000E52
:1040E600E45BE55BE65B080191C600F092C601F071
:1040F60093C602F094C603F0010E005E000E015A4C
:10410600025A035A0050E315046E0150E415056E79
:104116000250E515066E0350E615076E050E026E93
:1041260004C000F005C001F0025005E00036009022
:104136000136FF0FFAD7950E0026020E012200C0A7
:10414600E1F801C0E2F80B0E0024E96E000E012032
:10415600EA6E3F0EEE14016E01500F0A06E0C00E25
:104166000201886FFF0E006EB4D00D0E0801E12526
:10417600E96E000EE221EA6EEE50D31906E0C10E9A
:104186000201886FFF0E006EA4D0E1C8E9FFE2C805
:10419600EAFFEECF00F01F0E0014016E0150080179
:1041A600D21906E0C20E0201886FFF0E006E91D092
:1041B600E1C844F9E2C845F9D40E0901466F080E74
:1041C600476F03EC07F00801D16BD40EE96E080EB9
:1041D600EA6ED151E926D8B0EA2AEECFF0F8DFEC44
:1041E60011F000C0EFF8D205006E016A000E015A08
:1041F6000D0E046E000E056EDBEC06F0D1510026A6
:10420600000E01220050CF25E96E0150D021EA6E42
:10421600EECFF0F8DFEC11F0EF5100180AE0E7C836
:10422600DDF5E8C8DEF5E9C8DFF5EAC8E0F5006ABD
:1042360050D0D12B0D0ED15D0CE2D40EE96E080ED6
:10424600EA6ED151E926D8B0EA2AEE50000A01E01A
:10425600BCD70D0ED15D2AE2D40EE96E080EEA6EC9
:10426600D151E926D8B0EA2AD205006E016A000EBD
:10427600015A0D0E046E000E056EDBEC06F0D151F0
:104286000026000E01220050CF25D96E0150D02104
:10429600DA6EEE50DE180AE0E7C8DDF5E8C8DEF5AE
:1042A600E9C8DFF5EAC8E0F5006A13D0D22BE1C809
:1042B600E9FFE2C8EAFFEECF01F001ACCCD6E7C8D1
:1042C600DDF5E8C8DEF5E9C8DFF5EAC8E0F5010E78
:0442D600006E120064
:1042DA00D9C5D3F8DAC5D4F8DBC5D5F8DCC5D6F824
:1042EA000501DD6BDE6BDF6BE06B0401B651080183
:1042FA00D65D0EE10401B5510801D55D09E104015D
:10430A00B4510801D45D04E10401B3510801D35D3D
:10431A0015E3020190510801D65D0EE102018F51A9
:10432A000801D55D09E102018E510801D45D04E15D
:10433A0002018D510801D35D01E206D0F40E02019B
:10434A00886FFF0E006EF7D0950E0801DB6F020E24
:10435A00DC6FD3C86FF9D4C870F9D5C871F9D6C85B
:10436A0072F923EC04F000C002F901C003F902C09B
:10437A0004F903C005F935EC0AF00050000A03E01D
:10438A00FF0E006ED8D00801D76BD86BD96BDA6BE9
:10439A00040198510801DA5D0EE104019751080100
:1043AA00D95D09E1040196510801D85D04E10401CF
:1043BA0095510801D75DD8B095D0DC510601901906
:1043CA0003E18F510801DB190DE10801950EDB6F3E
:1043DA00020EDC6FDAEC12F00050000A03E0FF0E66
:1043EA00006EA9D0DBC8F0F8DCC8F1F8CFC8F2F843
:1043FA00D0C8F3F80B0E0801F46F000EF56FAEEC9F
:10440A0011F0000E011802E1000E001858E16BECE1
:10441A0003F00050000A03E0FF0E006E8CD0080182
:10442A00D151D2113DE0DBC8F0F8DCC8F1F8D1C8AF
:10443A00F2F8D2C8F3F8D9C5F4F8DAC5F5F8DBC54D
:10444A00F6F8DCC5F7F8DDC5F8F8DEC5F9F8DFC51A
:10445A00FAF8E0C5FBF87DEC0EF00050000A03E024
:10446A00FF0E006E68D0080E0801D125E16E010E1C
:10447A00D221E26ED9C5E6FFDAC5E6FFDBC5E6FF63
:10448A00DCC5E6FF0C0ED125E16E010ED221E26EEB
:10449A00DDC5E6FFDEC5E6FFDFC5E6FFE0C5E6FFF0
:1044AA00DBC8F0F8DCC8F1F82CEC12F0DBC8F0F845
:1044BA00DCC8F1F826EC13F0010E006E3CD0200E99
:1044CA000801DB27000EDC23010ED727000ED823B4
:1044DA00D923DA23010E0501DD27000EDE23DF23AF
:1044EA00E02356D76BEC03F00050000A03E0FF0EFE
:1044FA00006E21D0D3C86FF9D4C870F9D5C871F944
:10450A00D6C872F96DEC04F000C0D3F801C0D4F833
:10451A0002C0D5F803C0D6F803500F0A08E10250CA
:10452A00FF0A05E10150FF0A02E10050FF0A02E119
:08453A00006A01D0DAD612007C
:10454200CFC8F0F8D0C8F1F83DEC11F000C0D4F8B3
:1045520001C0D5F8D1C8F0F8D2C8F1F83DEC11F09D
:10456200D551011802E10050D41902E0006A2FD09F
:10457200D36BD1C8F0F8D2C8F1F83DEC11F0800E3F
:10458200026E800E0118025C02E10050D35D1DE252
:10459200D351CF25E96E000ED021EA6EEECFF0F8AE
:1045A200DFEC11F000C0D4F8D351D125E96E000E32
:1045B200D221EA6EEECFF0F8DFEC11F0D451001800
:1045C20002E0006A04D0D32BD4D7010E006E120091
:1045D2000450000A12E10550000A0FE10650000AD9
:1045E2000CE10750000A09E1FF0E006EFF0E016E9A
:1045F200FF0E026E7F0E036E99D00C6A07BE0C2A64
:104602000D6A0B6A0A6A096A086A035002100110ED
:104612000010D8B485D0035007180E6E0EBE0D1EC2
:1046220007AE0BD0041E051E061E071E042AD8B4B0
:10463200052AD8B4062AD8B4072A03AE0BD0001E26
:10464200011E021E031E002AD8B4012AD8B4022A6F
:10465200D8B4032A035007100E6E0EBE1DD051ECC3
:104662000DF00CBE36D00DAE5BD0001E011E021E38
:10467200031E002AD8B4012AD8B4022AD8B4032AC5
:10468200081E091E0A1E0B1E082AD8B4092AD8B40D
:104692000A2AD8B40B2A44D007AE15D003BE0DD0D7
:1046A20003500B6E02500A6E0150096E0050086EE4
:1046B200036A026A016A006AD6D7036A026A016A59
:1046C200006A002A000C031E021E011E001E0C8E30
:1046D200C6D7082AD8B4092AD8B40A2AD8B40B2AC9
:1046E2000450085CD8A4BFD70550095CD8A4BBD736
:1046F20006500A5CD8A4B7D707500B5CD8A4B3D72E
:104702000B6A0A6A096A086A002AD8B4012AD8B46C
:10471200022AD8B4032A03AEA6D70E6A0E88FF0C6B
:0E4722000E6A0CA002D0EAEC11F0000F12009B
:10473000D4EC13F0000E001803E0FF0E006E01D061
:04474000006A1200F9
:1047440094C0B0F895C0B1F896C0B2F897C0B3F869
:104754000801AE6BAF6BAF51120802E1AE518E0887
:1047640009E345EC19F0005201E004D00801AE4B16
:10477400AF2BF1D70801120EAF5D02E18F0EAE5DD3
:1047840003E37B0E006E27D06B806BA023D0000167
:1047940094519511961197111CE00801B051B11173
:1047A400B211B3110FE1E7C5E1FFE8C5E2FF050E61
:1047B400E66EE5C500F0E6C501F02DEC00F0010E53
:1047C400006E09D0010E0801B05F000EB15BB25B50
:0847D400B35BDBD7006A1200A1
:1047DC001C0E0801AE25E16E000EAF21E26EB0C8D2
:1047EC00E6FF1C0EAE25006E000EAF21016E010E11
:1047FC000024E16E000E0120E26EB1C8E6FF1C0E33
:10480C00AE25006E000EAF21016E020E0024E16E8B
:10481C00000E0120E26EB2C8E6FF1C0EAE25006E43
:10482C00000EAF21016E030E0024E16E000E01207C
:0A483C00E26EB3C8E6FF006A120046
:104846000601985302E1006A65D0950E0801AE6F25
:10485600020EAF6F950E0901026F020E036F046B15
:10486600000E056F020E066F4EEC0CF0AEC8E1FFAF
:10487600AFC8E2FF520EE66E520EE66E610EE66EAF
:10488600410EE66EE40E0801AE25E16E010EAF2183
:10489600E26E720EE66E720EE66E410EE66E610E08
:1048A600E66EE80EAE25E16E010EAF21E26EC1C4E2
:1048B600E6FFC2C4E6FFC3C4E6FFC4C4E6FFEC0ECF
:1048C600AE25E16E010EAF21E26EC5C4E6FFC6C499
:1048D600E6FFC7C4E6FFC8C4E6FFFE0EAE25E16EDE
:1048E600010EAF21E26E550EE66EAA0EE66EBDC44F
:1048F600F0F8BEC4F1F8BFC4F2F8C0C4F3F86BEC2C
:1049060011F00050000A03E0FF0E006E03D006010E
:06491600986B006A12001C
:10491C008DEC14F0950E0801AE6F020EAF6F950E74
:10492C00B06F020EB16F02018851FF0A03E1FF0E56
:10493C00006EB3D08851FC0A03E1FF0E006EADD0BF
:10494C008851000AD8A4A4D0300E0801AE25090164
:10495C00026F000E0801AF210901036FF9EC0CF096
:10496C00005004019B250901736F015004019C2127
:10497C000901746F000E04019D210901756F000E71
:10498C0004019E210901766F83EC03F00050000AAC
:10499C0003E0FF0E006E81D0950E0801B06F020E81
:1049AC00B16FFE0EB0250901026F010E0801B12195
:1049BC000901036FF9EC0CF00150AA0A02E1550E43
:1049CC00001806E0FC0E0201886FFF0E006E65D029
:1049DC00B0C802F9B1C803F96CEC0CF00350410AF1
:1049EC0008E10250610A05E10150520A02E100504F
:1049FC00520A06E0FA0E0201886FFF0E006E4DD0CF
:104A0C00E40E0801B0250901026F010E0801B12165
:104A1C000901036F6CEC0CF00350610A08E10250C1
:104A2C00410A05E10150720A02E10050720A06E0E7
:104A3C00FA0E0201886FFF0E006E2FD0E80E0801EF
:104A4C00B0250901026F010E0801B1210901036FA4
:104A5C006CEC0CF000C0C1F401C0C2F402C0C3F491
:104A6C0003C0C4F4EC0E0801B0250901026F010E5D
:104A7C000801B1210901036F6CEC0CF000C0C5F406
:104A8C0001C0C6F402C0C7F403C0C8F4006A05D064
:0C4A9C00FA0E0201886FFF0E006E12007F
:104AA800990E0901026F060E036F046B070E056F5E
:104AB800000E066F4EEC0CF0880E026F060E036FA8
:104AC800046B070E056F000E066F4EEC0CF0190E06
:104AD800026F060E036F046B070E056F000E066F5C
:104AE8004EEC0CF0990E026F040E036F046B300E3F
:104AF800056F000E066F4EEC0CF0910E026F020E61
:104B0800036F046B040E056F020E066F4EEC0CF07B
:104B1800200E026F060E036F046B040E006E000E6B
:104B2800016E1A0E0002F3CF05F9F4CF06F94EEC28
:104B38000CF0E90E026F050E036F046B0C0E056F87
:104B4800000E066F4EEC0CF0FF0E0201916FFF0E87
:104B5800926FFF0E936FFF0E946F950E06018F6F85
:104B6800040E906F006B986B02018D6B8E6B8F6BD0
:104B7800906B0501D96BDA6BDB6BDC6BDD6BDE6B85
:104B8800DF6BE06BF96B430EE96F0201886B120073
:104B9800086A096A100E0C6E01340836093604508A
:104BA800085E0550D8A0053C095ED8B007D004506F
:104BB80008260550D8B0053C0926D890003601369D
:064BC8000C2EEAD71200DA
:0A4BCE001D0E0D6E0D2EFED7120015
:104BD800AEC8E9FFAFC8EAFFEE50000A06E1C40E0E
:104BE8000201886FFF0E006EB5D0D9C5B2F8DAC5DC
:104BF800B3F8DBC5B4F8DCC5B5F80501DD6BDE6BD1
:104C0800DF6BE06B0801BB6BB0C8CFF8B1C8D0F858
:104C1800C2EC1AF00050010AD8A493D0FF0E080184
:104C2800B025E96E000EB121EA6E3F0EEE14016E5A
:104C380001500F0A03E1010EBB6FE6D7010E050113
:104C4800DD5F000EDE5BDF5BE05B0801BB533BE032
:104C5800AEC8CFF8AFC8D0F8CBEC1FF000C0BAF898
:104C68000050FF0A03E1FF0E006E74D00801BA512C
:104C7800010A28E1D9C544F9DAC545F9DBC546F981
:104C8800DCC547F9DDC548F9DEC549F9DFC54AF98C
:104C9800E0C54BF9B60E09014C6F080E4D6FEBECF1
:104CA80007F00050000A03E0FF0E006E53D0B2C8B0
:104CB800D9F5B3C8DAF5B4C8DBF5B5C8DCF5010E2B
:104CC800006E48D034D0B0C8CFF8B1C8D0F8AEC85C
:104CD800D1F8AFC8D2F831DC0050010A28E1D9C5B3
:104CE80044F9DAC545F9DBC546F9DCC547F9DDC540
:104CF80048F9DEC549F9DFC54AF9E0C54BF9B60EF2
:104D080009014C6F080E4D6FEBEC07F00050000ADC
:104D180003E0FF0E006E1ED0B2C8D9F5B3C8DAF5AD
:104D2800B4C8DBF5B5C8DCF5010E006E13D0010E72
:104D38000501DD27000EDE23DF23E0230801BB6B1E
:104D480063D7B2C8D9F5B3C8DAF5B4C8DBF5B5C8C6
:064D5800DCF5006A120008
:104D5E00AEC8E9FFAFC8EAFFEE50000A07E1C40E85
:104D6E000201886FFF0E006E46EF2DF0B0C802F9FB
:104D7E00B1C803F9200E0901046F0B0E056F000E6A
:104D8E00066F4EEC0CF0AEC8E9FFAFC8EAFFEE506E
:104D9E002E0A13E1010E0801AE25E96E000EAF21B9
:104DAE00EA6EEE50000A09E1B0C8E1FFB1C8E2FFB9
:104DBE002E0EE66E006A46EF2DF0AEC8E9FFAFC8C4
:104DCE00EAFFEE502E0A24E10801010EAE25E96E2F
:104DDE00000EAF21EA6EEE502E0A1AE1020EAE253B
:104DEE00E96E000EAF21EA6EEE50000A11E1B0C876
:104DFE00E1FFB1C8E2FF2E0EE66E010EB025E16EA8
:104E0E00000EB121E26E2E0EE66E006A46EF2DF018
:104E1E00AEC8E9FFAFC8EAFFEE502E0A07E1E20E78
:104E2E000201886FFF0E006E46EF2DF0AEC8F0F84F
:104E3E00AFC8F1F83DEC11F000C0C0F801C0C1F8E8
:104E4E00AEC8CFF8AFC8D0F8B3EC1EF000C0BDF8B6
:104E5E000050FF0A04E1FF0E006E46EF2DF0010E2A
:104E6E000801C05D006E000EC159016E0050AE25E6
:104E7E00E96E0150AF21EA6EEE502E0A10E0010EDF
:104E8E00C05D006E000EC159016E0050AE25E96E78
:104E9E000150AF21EA6EEE50200A01E015D0800ECF
:104EAE00006E800EC119005C02E1C05100080CE2D8
:104EBE00C051AE25E16EC151AF21E26EE66A010E20
:104ECE00C05F000EC15BCBD7000EC11902E1000E10
:104EDE00C01904E1FF0E006E46EF2DF0000EBDBFAF
:104EEE00FF0E006E000E001802E1000EBD190BE061
:104EFE00000EBDBFFF0E006E000E001802E1020E86
:104F0E00BD1901E08BD0B86BB76B080EB75D2DE203
:104F1E00B851AE25E96E000EAF21EA6EEE502E0AA4
:104F2E000AE0B851AE25E96E000EAF21EA6EEE50E2
:104F3E00000A01E001D019D0B751B025C26F000EA2
:104F4E00B121C36FB851AE25E96E000EAF21EA6EE6
:104F5E00EECFF0F8DFEC11F0C2C8E1FFC3C8E2FFFC
:104F6E0000C0E6FFB82BB72BD0D7B851AE25E96EEF
:104F7E00000EAF21EA6EEE50000A0AE1B0C8CFF87B
:104F8E00B1C8D0F8D16BD26B6DEC21F046EF2DF09D
:104F9E000801B851AE25E96E000EAF21EA6EEE5053
:104FAE002E0A02E1B82B07D0E20E0201886FFF0E27
:104FBE00006E46EF2DF0080E0801B76F0B0EB75DB1
:104FCE0023E2B851AE25E96E000EAF21EA6EEE5027
:104FDE00000A01E119D0B751B025C26F000EB12100
:104FEE00C36FB851AE25E96E000EAF21EA6EEECF5B
:104FFE00F0F8DFEC11F0C2C8E1FFC3C8E2FF00C059
:10500E00E6FFB82BB72BDAD7B0C8CFF8B1C8D0F8B7
:10501E00D16BD26B6DEC21F046EF2DF0000E080136
:10502E00BDBFFF0E006E000E001802E1010EBD198D
:10503E00D8A443EF2DF0C0C8BAF8010EC05DBB6F07
:10504E00000EC159BC6FBB51AE25E96EBC51AF21EC
:10505E00EA6EEE502E0A0EE0800E006E800EBC1927
:10506E00005C02E1BB51000805E2010EBB5F000EC1
:10507E00BC5BE9D7800E006E800EBC19005C02E1AD
:10508E00BB5100084DE2BBC8BAF8BB4BBC2B080E97
:10509E00B76F0B0EB75D44E2BB51AE25E96EBC5146
:1050AE00AF21EA6EEE50000A3BE0BB51AE25E96E31
:1050BE00BC51AF21EA6EEECF02F903EC0AF00052BA
:1050CE0019E10801B751B025C26F000EB121C36FAF
:1050DE00BB51AE25E96EBC51AF21EA6EEECFF0F8B2
:1050EE00DFEC11F0C2C8E1FFC3C8E2FF00C0E6FF6B
:1050FE00B72B13D00801BB51AE25E96EBC51AF21C1
:10510E00EA6EEE50200A09E0B751B025E16E000EAE
:10511E00B121E26E5F0EE66EB72BBB4BBC2BB9D73F
:10512E00BAC8BBF8000EBC6FB86BB76B080EB75D94
:10513E0056E2B851AE25E96E000EAF21EA6EEE5082
:10514E00000A01E14CD0000EBC1902E1BB51B819A6
:10515E0001E145D0B851AE25E96E000EAF21EA6EE1
:10516E00EE502E0A0AE0B851AE25E96E000EAF21C0
:10517E00EA6EEE50200A01E001D02FD0B851AE25D4
:10518E00E96E000EAF21EA6EEECF02F903EC0AF0E3
:10519E00005219E10801B751B025C26F000EB121BE
:1051AE00C36FB851AE25E96E000EAF21EA6EEECF99
:1051BE00F0F8DFEC11F0C2C8E1FFC3C8E2FF00C097
:1051CE00E6FFB72B0AD00801B751B025E16E000EED
:1051DE00B121E26E5F0EE66EB72BB82BA7D7010E8C
:1051EE00BE6F060EB75D03E2B7C8B2F802D0060E68
:1051FE00B26FB2C8BAF8B251B025E16E000EB1214D
:10520E00E26E7E0EE66E010EB96FB95109083BE3F0
:10521E00BE51000A38E0BA51010F006E016A000E4D
:10522E0001220050B025E16E0150B121E26E300E28
:10523E00B925006E00C0E6FFB0C8CFF8B1C8D0F8EF
:10524E00D16BD26B6DEC21F000C0BEF80050FF0A9E
:10525E0004E1FF0E006E46EF2DF00801BE51010A6B
:10526E000FE1AEC8CFF8AFC8D0F8CBEC1FF000C03E
:10527E00BFF80050000A04E0BFC800F046EF2DF062
:10528E000801B92BC2D7BE51000AD8B475D0050E8D
:10529E00B75D03E2B7C8B3F802D0050EB36FB3C85B
:1052AE00BAF8B351B025E16E000EB121E26E7E0E5A
:1052BE00E66E0A0EB96FB95163085EE3BE51000A7D
:1052CE005BE0BA51010F006E016A000E0122005020
:1052DE00B025C26F0150B121C36F0A0E046EB9C85A
:1052EE0000F0BCEC1FF0300E0026C2C8E1FFC3C8B0
:1052FE00E2FF00C0E6FF020EBA25006E016A000E44
:10530E0001220050B025C26F0150B121C36F0A0EA9
:10531E00046EB9C800F0BCEC1FF008C000F0300EEF
:10532E000026C2C8E1FFC3C8E2FF00C0E6FFB0C856
:10533E00CFF8B1C8D0F8D16BD26B6DEC21F000C0B4
:10534E00BEF80050FF0A03E1FF0E006E98D308016D
:10535E00BE51010A0EE1AEC8CFF8AFC8D0F8CBEC03
:10536E001FF000C0BFF80050000A03E0BFC800F0F5
:10537E0086D30801B92B9FD7BE51000AD8B49DD051
:10538E00040EB75D03E2B7C8B4F802D0040EB46FD2
:10539E00B4C8BAF8B451B025E16E000EB121E26E78
:1053AE007E0EE66E640EB96F800E030A006E800EDE
:1053BE00005C02E1B951E708D8A07FD0BE51000AC7
:1053CE00D8B47BD0BA51010F006E016A000E0122D3
:1053DE000050B025C26F0150B121C36F640E046E30
:1053EE00B9C800F0BCEC1FF0300E0026C2C8E1FFB9
:1053FE00C3C8E2FF00C0E6FF020EBA25006E016AC6
:10540E00000E01220050B025C26F0150B121C36FB2
:10541E000A0E046EB9C800F0BCEC1FF00A0E046E42
:10542E00BCEC1FF008C000F0300E0026C2C8E1FF31
:10543E00C3C8E2FF00C0E6FF030EBA25006E016A84
:10544E00000E01220050B025C26F0150B121C36F72
:10545E000A0E046EB9C800F0BCEC1FF008C000F0D4
:10546E00300E0026C2C8E1FFC3C8E2FF00C0E6FF4F
:10547E00B0C8CFF8B1C8D0F8D16BD26B6DEC21F0BB
:10548E0000C0BEF80050FF0A03E1FF0E006EF7D217
:10549E000801BE51010A0EE1AEC8CFF8AFC8D0F870
:1054AE00CBEC1FF000C0BFF80050000A03E0BFC8ED
:1054BE0000F0E5D20801B92B77D7BE51000AD8B457
:1054CE00C2D0030EB75D03E2B7C8B5F802D0030E23
:1054DE00B56FB5C8BAF8B551B025E16E000EB12161
:1054EE00E26E7E0EE66EE80EB96F800E270A006E33
:1054FE00800E005C02E1B9510F08D8A0A4D0BE51B5
:10550E00000AD8B4A0D0BA51010F006E016A000E85
:10551E0001220050B025C26F0150B121C36FE80EB9
:10552E00046E030E056EB9C800F0000E016E4FEC4E
:10553E001EF0300E0026C2C8E1FFC3C8E2FF00C055
:10554E00E6FF020E0801BA25006E016A000E012266
:10555E000050B025C26F0150B121C36F640E046EAE
:10556E00B9C800F0BCEC1FF00A0E046EBCEC1FF0C4
:10557E0008C000F0300E0026C2C8E1FFC3C8E2FF2B
:10558E0000C0E6FF030EBA25006E016A000E01226E
:10559E000050B025C26F0150B121C36F0A0E046EC8
:1055AE00B9C800F0BCEC1FF00A0E046EBCEC1FF084
:1055BE0008C000F0300E0026C2C8E1FFC3C8E2FFEB
:1055CE0000C0E6FF040EBA25006E016A000E01222D
:1055DE000050B025C26F0150B121C36F0A0E046E88
:1055EE00B9C800F0BCEC1FF008C000F0300E002669
:1055FE00C2C8E1FFC3C8E2FF00C0E6FFB0C8CFF8E3
:10560E00B1C8D0F8D16BD26B6DEC21F000C0BEF8F2
:10561E000050FF0A03E1FF0E006E31D20801BE51A9
:10562E00010A0EE1AEC8CFF8AFC8D0F8CBEC1FF030
:10563E0000C0BFF80050000A03E0BFC800F01FD240
:10564E000801B92B52D7BE51000AD8B4F1D0020EC0
:10565E00B75D03E2B7C8B6F802D0020EB66FB6C891
:10566E00BAF8B651B025E16E000EB121E26E7E0E93
:10567E00E66E100EB96F800E000A006E800E005C92
:10568E0008E1000E010805E1000E860802E1B9519D
:10569E009F08D8A0CDD0BE51000AD8B4C9D0BA51F7
:1056AE00010F006E016A000E01220050B025C26F7C
:1056BE000150B121C36F100E046E270E056EB9C8CE
:1056CE0000F0000E016E4FEC1EF0300E0026C2C828
:1056DE00E1FFC3C8E2FF00C0E6FF020E0801BA25D3
:1056EE00006E016A000E01220050B025C26F0150FB
:1056FE00B121C36FE80E046E030E056EB9C800F03B
:10570E00000E016E4FEC1EF00A0E046E000E056EBA
:10571E004FEC1EF008C000F009C001F0300E00265C
:10572E00C2C8E1FFC3C8E2FF00C0E6FF030E0801D6
:10573E00BA25006E016A000E01220050B025C26F1C
:10574E000150B121C36F640E046EB9C800F0BCECF9
:10575E001FF00A0E046EBCEC1FF008C000F0300EF5
:10576E000026C2C8E1FFC3C8E2FF00C0E6FF040E78
:10577E00BA25006E016A000E01220050B025C26FDC
:10578E000150B121C36F0A0E046EB9C800F0BCEC13
:10579E001FF00A0E046EBCEC1FF008C000F0300EB5
:1057AE000026C2C8E1FFC3C8E2FF00C0E6FF050E37
:1057BE00BA25006E016A000E01220050B025C26F9C
:1057CE000150B121C36F0A0E046EB9C800F0BCECD3
:1057DE001FF008C000F0300E0026C2C8E1FFC3C89B
:1057EE00E2FF00C0E6FFB0C8CFF8B1C8D0F8D16B69
:1057FE00D26B6DEC21F000C0BEF80050FF0A03E141
:10580E00FF0E006E3CD10801BE51010A0EE1AEC87A
:10581E00CFF8AFC8D0F8CBEC1FF000C0BFF80050E7
:10582E00000A03E0BFC800F02AD10801B92B23D724
:10583E00BE51000AD8B416D1010EB025E16E000E8D
:10584E00B121E26E7E0EE66EA00EB96F800E000ADA
:10585E00006E800E005C08E1000E0F0805E1000EE0
:10586E00420802E1B9513F08D8A0FCD0BE51000A4F
:10587E00D8B4F8D0020EBA25006E016A000E0122CD
:10588E000050B025C26F0150B121C36FA00E046E3F
:10589E00860E056E010E066E000E076EB9C800F07C
:1058AE00000E016E026E036EE9EC22F0300E002641
:1058BE00C2C8E1FFC3C8E2FF00C0E6FF030E080145
:1058CE00BA25006E016A000E01220050B025C26F8B
:1058DE000150B121C36F100E046E270E056EB9C8AC
:1058EE0000F0000E016E4FEC1EF00A0E046E000E5C
:1058FE00056E4FEC1EF008C000F009C001F0300E2E
:10590E000026C2C8E1FFC3C8E2FF00C0E6FF040ED6
:10591E000801BA25006E016A000E01220050B02562
:10592E00C26F0150B121C36FE80E046E030E056EF7
:10593E00B9C800F0000E016E4FEC1EF00A0E046E98
:10594E00000E056E4FEC1EF008C000F009C001F00D
:10595E00300E0026C2C8E1FFC3C8E2FF00C0E6FF5A
:10596E00050E0801BA25006E016A000E01220050D4
:10597E00B025C26F0150B121C36F640E046EB9C859
:10598E0000F0BCEC1FF00A0E046EBCEC1FF008C059
:10599E0000F0300E0026C2C8E1FFC3C8E2FF00C00F
:1059AE00E6FF060EBA25006E016A000E01220050B7
:1059BE00B025C26F0150B121C36F0A0E046EB9C873
:1059CE0000F0BCEC1FF00A0E046EBCEC1FF008C019
:1059DE0000F0300E0026C2C8E1FFC3C8E2FF00C0CF
:1059EE00E6FF070EBA25006E016A000E0122005076
:1059FE00B025C26F0150B121C36F0A0E046EB9C833
:105A0E0000F0BCEC1FF008C000F0300E0026C2C83B
:105A1E00E1FFC3C8E2FF00C0E6FFB0C8CFF8B1C8CF
