:1000000073EF3EF00000000000EF00F00000000081
:0A0010000000000000000000F3D71C
:10001C0084C96FFF6DB002D00000FCD76FCF00F029
:02002C001200C0
:10002E0084C9C9FFC7B002D00000FCD7C9CF00F009
:02003E001200AE
:10004000F250026EF29E0500FF6A0150FE6E0050F3
:08005000FD6E02BEF28E1200EB
:10005800838881C5E1FF82C5E2FFFF0EE66E7FC59A
:0A00680000F080C501F0E8DF12008F
:1000720081C5E1FF82C5E2FF4C0EE66E7FC500F04E
:1000820080C501F0DCDF81C5E1FF82C5E2FFE66ADF
:100092007FC500F080C501F0D2DF81C5E1FF82C5D6
:1000A200E2FFE66A7FC500F080C501F0C8DF81C5C6
:1000B200E1FF82C5E2FFE66A7FC500F080C501F07C
:1000C200BEDF81C5E1FF82C5E2FFE66A7FC500F0BF
:1000D20080C501F0B4DF81C5E1FF82C5E2FFFF0EFA
:1000E200E66E7FC500F080C501F0A9DF09017C6BD7
:1000F2007D6B81C5E1FF82C5E2FFFF0EE66E7FC523
:1001020000F080C501F09BDF00C07BF909017C4B48
:100112007D2B800E0014016E0150000A07E0000ED4
:100122007D5D02E1640E7C5D01E2E3D77BAF04D02A
:1001320092DF7BC900F012D081C5E1FF82C5E2FFE8
:10014200FF0EE66E7FC500F080C501F078DF00C0CB
:0E0152007BF90050000AF0E07EDF006A120028
:04016000839812006E
:10016400400E09017B25006E81C5E1FF82C5E2FFD7
:1001740000C0E6FF7FC500F080C501F05FDF81C5E8
:10018400E1FF82C5E2FF7FC9E6FF7FC500F080C5BD
:1001940001F054DF81C5E1FF82C5E2FF7EC9E6FFBD
:1001A4007FC500F080C501F049DF81C5E1FF82C54C
:1001B400E2FF7DC9E6FF7FC500F080C501F03EDFA8
:1001C40081C5E1FF82C5E2FF7CC9E6FF7FC500F07F
:1001D40080C501F033DF81C5E1FF82C5E2FF80C93C
:1001E400E6FF7FC500F080C501F028DF0901826BBE
:1001F400836B81C5E1FF82C5E2FFFF0EE66E7FC51A
:1002040000F080C501F01ADF00C081F90901824BBA
:10021400832B800E0014016E0150000A07E0000ECB
:10022400835D02E1640E825D01E2E3D781C900F0DF
:020234001200B6
:100236001DDF0050000A03E0FF0E006E01D0006AC9
:020246001200A4
:100248008BDF000E000A03E1040E0101181909E111
:100258006DC975F96EC976F96FC977F970C978F9FA
:1002680014D0090E006E6DC975F96EC976F96FC99B
:1002780077F970C978F9005008E009017537759168
:10028800763777377837FF0FF7D70901110E7B6F6D
:1002980075C97CF976C97DF977C97EF978C97FF97E
:1002A800FF0E806F5BDF005204E0D2DE010E006EAD
:1002B8004BD081C5E1FF82C5E2FFFF0EE66E7FC528
:1002C80000F080C501F0B8DE0050FE0A01E0F1D769
:1002D8000901736B746B020E745D02E1000E735DAD
:1002E8001BE273517125796F745172217A6F81C540
:1002F800E1FF82C5E2FFFF0EE66E7FC500F080C514
:1003080001F09ADE79C9E1FF7AC9E2FF00C0E6FF91
:100318000901734B742BDFD781C5E1FF82C5E2FF6A
:10032800FF0EE66E7FC500F080C501F085DE81C551
:10033800E1FF82C5E2FFFF0EE66E7FC500F080C5D3
:0A03480001F07ADE85DE006A120083
:1003520007012151000A04E02151020A01E002D002
:10036200006A0DD067DF000E001806E0FF0E0201E2
:10037200A46FFF0E006E03D00701216B006A12000A
:1003820067C96DF968C96EF969C96FF96AC970F907
:100392006BC971F96CC972F956DF0050000A03E0AB
:0A03A200FF0E006E01D0006A120089
:1003AC0007012151030A20E1CEDF0050000A06E0CC
:1003BC00FF0E0201A46FFF0E006E5CD00201AC5167
:1003CC00090166190EE10201AB510901651909E138
:1003DC000201AA510901641904E10201A9510901A0
:1003EC00631902E1006A46D007012151010A06E1B6
:1003FC00FF0E0201A46FFF0E006E3CD00901665186
:10040C000201AC190EE1090165510201AB1909E1B8
:10041C00090164510201AA1904E1090163510201A5
:10042C00A91927E063C967F964C968F965C969F94D
:10043C0066C96AF9AD0E09016B6F020E6C6F9BDF1A
:10044C00000E00180EE0FF0E0201A96FFF0EAA6F3E
:10045C00FF0EAB6FFF0EAC6FFF0EA46FFF0E006EA6
:10046C0009D063C9A9F264C9AAF265C9ABF266C91D
:06047C00ACF2006A120060
:1004820009015F51390806E3300E5F5D03E3010E97
:08049200006E01D0006A1200A7
:10049A0009015F517A0806E3610E5F5D03E3010E0D
:0804AA00006E01D0006A12008F
:1004B20009015F515A0806E3410E5F5D03E3010E35
:0804C200006E01D0006A120077
:1004CA005FC905F060C906F061C907F062C908F0A2
:1004DA000401D151055ED251065AD351075AD4515B
:1004EA00085A69C504F005C000F006C001F007C04B
:1004FA0002F008C003F0045007E00036009001360D
:10050A0002360336FF0FF8D7D7510026D8510122F9
:0A051A00D9510222DA510322120027
:100524000401D4510901625D0EE10401D3510901B2
:10053400615D09E10401D2510901605D04E1040136
:10054400D15109015F5D15E30401EA510901625DBE
:100554000EE10401E9510901615D09E10401E85179
:100564000901605D04E10401E75109015F5D01E2F5
:100574000CD0F40E0201A46FFF0E006EFF0E016E8C
:10058400FF0E026E0F0E036E64D0AAC600F05FC9A0
:1005940063F960C964F961C965F962C966F9005013
:1005A40008E009016633653364336333669FFF0FE4
:1005B400F7D70401CD51090163270401CE51090184
:1005C40064230401CF51090165230401D0510901B9
:1005D4006623EADE0050000A09E0FF0E006EFF0EFB
:1005E400016EFF0E026E0F0E036E33D0ABC600F029
:1005F400ACC601F0ADC602F0AEC603F0010E005E5B
:10060400000E015A025A035A005009015F15046E84
:1006140001506015056E02506115066E0350621597
:10062400076E04C000F005C001F0003600900136EA
:10063400003600900136AD0E0024E96E020E012052
:10064400EA6EEECF00F0EECF01F0EECF02F0EECF87
:0406540003F012009D
:10065800026A110E025C17E2170E0224F66E830E70
:10066800F76E000EF722000EF86E000EF822090051
:10067800F5CF01F0015009015F1903E1010E006E89
:0A06880003D0022AE6D7006A120030
:1006920081C5E1FF82C5E2FFFF0EE66E7FC500F075
:1006A20080C501F0CCDC0050FE0A01E0F1D7120057
:1006B200090148515A0804E3410E485DD8B0488BFD
:0606C20048C900F012001F
:1006C80048C95FF9DADE005211E148C95FF9EDDE89
:1006D80000520CE148C95FF9DCDE005207E148C965
:1006E8005FF9B6DF005202E1006A02D0010E006E27
:0206F8001200EE
:1006FA0032DD000E000A03E1040E0101181909E1B6
:10070A0048C94CF949C94DF94AC94EF94BC94FF97B
:10071A0014D0090E006E48C94CF949C94DF94AC9A5
:10072A004EF94BC94FF9005008E009014C374C917A
:10073A004D374E374F37FF0FF7D70901120E7B6F30
:10074A004CC97CF94DC97DF94EC97EF94FC97FF96B
:10075A00FF0E806F02DD005204E079DC010E006EAC
:06076A0001D0006A12003C
:1007700090DF09014A6B4B6B020E4B5D02E1000EEC
:100780004A5D1BE24A5148254C6F4B5149214D6F40
:1007900081C5E1FF82C5E2FFFF0EE66E7FC500F076
:1007A00080C501F04DDC4CC9E1FF4DC9E2FF00C03E
:1007B000E6FF09014A4B4B2BDFD781C5E1FF82C51C
:1007C000E2FFFF0EE66E7FC500F080C501F038DC69
:1007D00081C5E1FF82C5E2FFFF0EE66E7FC500F036
:0807E00080C501F02DDC1200C0
:1007E8004AC904F04BC905F048C902F049C903F0E9
:1007F8004CC900F04DC901F0010E09014C5F000E13
:100808004D5B005001100FE004C0E9FF05C0EAFF8E
:1008180002C0E1FF03C0E2FFEECFE6FF024A032A6F
:10082800044A052AE5D748C900F049C901F0120071
:10083800A9C25AF9AAC25BF9ABC25CF9ACC25DF9AC
:1008480048C952F949C953F94AC954F94BC955F924
:100858000401D45109014B5D0EE10401D351090192
:100868004A5D09E10401D2510901495D04E104012D
:10087800D1510901485D15E30401EA510901555DAB
:100888000EE10401E9510901545D09E10401E8514F
:100898000901535D04E10401E7510901525D01E2D8
:1008A80006D0F40E0201A46FFF0E006ECED009012F
:1008B8005E6B6AC500F04CC901F04DC902F04EC923
:1008C80003F04FC904F0005007E00432033202324B
:1008D8000132049EFF0FF8D70450000809E10350C5
:1008E800000806E10250000803E1090101505E5DBD
:1008F80055E252C95FF953C960F954C961F955C93C
:1009080062F90CDE00C052F901C053F902C054F973
:1009180003C055F903500F0A08E10250FF0A05E128
:100928000150FF0A02E10050FF0A06E1F10E020140
:10093800A46FFF0E006E89D00401D4510901555DE2
:100948000EE10401D3510901545D09E10401D251BA
:100958000901535D04E10401D1510901525D15E318
:100968000401EA510901555D0EE10401E95109014B
:10097800545D09E10401E8510901535D04E10401F2
:10098800E7510901525D01E206D0F40E0201A46F9D
:10099800FF0E006E5AD009015E2B8BD70901ADC43A
:1009A80000F0AEC401F0AFC402F0B0C403F0010E11
:1009B800005E000E015A025A035A00504C15566F39
:1009C80001504D15576F02504E15586F03504F1573
:1009D800596F52C95FF953C960F954C961F955C9CA
:1009E80062F96FDD6BC508F056C904F057C905F008
:1009F80058C906F059C907F0085007E0073206320F
:100A080005320432079EFF0FF8D750C9E1FF51C9DC
:100A1800E2FF04500024E66E05500120E66E065001
:100A28000220E66E07500320E66E5AC963F95BC9D7
:100A380064F95CC965F95DC966F9B4DC0050000A5F
:0C0A480003E0FF0E006E01D0006A1200F7
:100A540034C948F935C949F936C94AF937C94BF98E
:100A64004ADE0050000A03E0FF0E006E01D0006A67
:020A740012006E
:0E0A760034C948F935C949F978DE006A120022
:100A84000B6A0A6A096A00500402F4CF09F0F3CF32
:100A940008F001500502F4CF0BF0F3CF0AF0005038
:100AA4000502F3500926F4500A22E86A0B22015089
:100AB4000402F3500926F4500A22E86A0B2208C003
:100AC40000F009C001F00AC002F00BC003F01200EC
:100AD400056A046A0B0E055C22E2010E0414016E21
:100AE400070E006E01C003F0005004E003360390CB
:100AF400FF0FFBD7FE0E0414026E02C000F000329A
:100B0400009E00500310046E055009013425D96E6F
:100B1400000E3521DA6EDE500426052ADBD704C028
:040B240000F01200CB
:100B2800010E09013425E96E000E3521EA6E36C939
:100B3800E1FF37C9E2FFEECFE6FF010E3625E16E91
:100B4800000E3721E26E030E3425E96E000E3521C2
:100B5800EA6EEECFE6FF020E3625E16E000E372173
:100B6800E26E050E3425E96E000E3521EA6EEECFF1
:100B7800E6FF030E3625E16E000E3721E26E070E02
:100B88003425E96E000E3521EA6EEECFE6FF040E3D
:100B98003625E16E000E3721E26E090E3425E96E26
:100BA800000E3521EA6EEECFE6FF050E3625E16E22
:100BB800000E3721E26E0E0E3425E96E000E352147
:100BC800EA6EEECFE6FF060E3625E16E000E3721FF
:100BD800E26E100E3425E96E000E3521EA6EEECF76
:100BE800E6FF070E3625E16E000E3721E26E120E83
:100BF8003425E96E000E3521EA6EEECFE6FF080EC9
:100C08003625E16E000E3721E26E140E3425E96EAA
:100C1800000E3521EA6EEECFE6FF090E3625E16EAD
:100C2800000E3721E26E160E3425E96E000E3521CE
:100C3800EA6EEECFE6FF0A0E3625E16E000E37218A
:100C4800E26E180E3425E96E000E3521EA6EEECFFD
:100C5800E6FF0B0E3625E16E000E3721E26E1C0E04
:100C68003425E96E000E3521EA6EEECFE6FF0C0E54
:100C78003625E16E000E3721E26E1E0E3425E96E30
:0E0C8800000E3521EA6EEECFE6FF006A120084
:100C960034C948F935C949F936C94AF937C94BF94A
:100CA60038C94CF939C94DF93AC94EF93BC94FF91A
:100CB6003CC950F93DC951F9BCDD0050000A03E0BA
:100CC600FF0E006E15D03CC9E9FF3DC9EAFFEECF25
:100CD60063F9EECF64F9EECF65F9EECF66F9D6EC9F
:100CE60001F00050000A03E0FF0E006E01D0006A1A
:020CF6001200EA
:100CF800B0EC00F0000E000A03E1040E010118191F
:100D080009E134C93CF935C93DF936C93EF937C955
:100D18003FF914D0090E006E34C93CF935C93DF9C4
:100D280036C93EF937C93FF9005008E009013C3798
:100D38003C913D373E373F37FF0FF7D70901180E73
:100D48007B6F3CC97CF93DC97DF93EC97EF93FC935
:100D58007FF9FF0E806FB2EC00F0005205E02CEC3A
:100D680000F0010E006E95D081C5E1FF82C5E2FF5B
:100D7800FF0EE66E7FC500F080C501F020EC00F0A4
:100D880081C5E1FF82C5E2FFFF0EE66E7FC500F078
:100D980080C501F020EC00F081C5E1FF82C5E2FFCB
:100DA800FE0EE66E7FC500F080C501F020EC00F075
:100DB80009013A6B3B6B3B51010802E13A51FF08CC
:100DC80016E33A513825E96E3B513921EA6E81C55F
:100DD800E1FF82C5E2FFEECFE6FF7FC500F080C5E8
:100DE80001F020EC00F009013A4B3B2BE4D781C518
:100DF800E1FF82C5E2FFFF0EE66E7FC500F080C509
:100E080001F020EC00F081C5E1FF82C5E2FFFF0E92
:100E1800E66E7FC500F080C501F020EC00F081C5CA
:100E2800E1FF82C5E2FFFF0EE66E7FC500F080C5D8
:100E380001F020EC00F000C03AF9000E09013B6F08
:100E48001F0E3A15016E3BC902F0000E021601C0D2
:100E58003AF902C03BF9000E021802E1050E01182A
:100E680005E02CEC00F0020E006E13D081C5E1FF06
:100E780082C5E2FFFF0EE66E7FC500F080C501F077
:100E880020EC00F00050FF0A01E0F0D72CEC00F055
:040E9800006A1200DA
:100E9C003B0E0901486F090E496F34C94AF935C92F
:100EAC004BF90B0E4C6F000E4D6F98DC386B0B0E24
:100EBC00385D3FE23A6B3B0EE96E090EEA6E385133
:100ECC00E926D8B0EA2AEECF48F964EC03F00050DA
:100EDC00010A03E1010E09013A6F09013B0EE96EAB
:100EEC00090EEA6E3851E926D8B0EA2AEE50200AEB
:100EFC0002E1010E3A6F3B0EE96E090EEA6E3851B3
:100F0C00E926D8B0EA2AEE502E0A02E1010E3A6F19
:100F1C003A51000A0BE136C9E1FF37C9E2FFE66A34
:100F2C00C40E0201A46FFF0E006EB5D00901382B60
:100F3C00BED7396B386B080E385D43E23B0EE96E59
:100F4C00090EEA6E3851E926D8B0EA2AEE50200A8A
:100F5C0034E00C0E3425E96E000E3521EA6EEECF2E
:100F6C0001F001A619D039513625466F000E3721F4
:100F7C00476F3B0EE96E090EEA6E3851E926D8B080
:100F8C00EA2AEECF48F959EC03F046C9E1FF47C90C
:100F9C00E2FF00C0E6FF10D039513625E16E000E9D
:100FAC003721E26E3B0EE96E090EEA6E3851E926E6
:100FBC00D8B0EA2AEECFE6FF01D003D0392B382B7C
:100FCC00BAD74351200A09E139513625E16E000E9A
:100FDC003721E26EE66A006A5ED039513625E16E41
:100FEC00000E3721E26E2E0EE66E392B080E386F8E
:100FFC000B0E385D47E23B0EE96E090EEA6E385176
:10100C00E926D8B0EA2AEECF48F964EC03F0005098
:10101C00000A01E137D00C0E09013425E96E000EEF
:10102C003521EA6EEECF01F001A819D039513625E1
:10103C00466F000E3721476F3B0EE96E090EEA6EC4
:10104C003851E926D8B0EA2AEECF48F959EC03F02A
:10105C0046C9E1FF47C9E2FF00C0E6FF10D0395195
:10106C003625E16E000E3721E26E3B0EE96E090E5D
:10107C00EA6E3851E926D8B0EA2AEECFE6FF392BD2
:10108C00382BB6D7090139513625E16E000E3721C0
:08109C00E26EE66A006A120030
:0E10A400F2C8E9FFF3C8EAFFEECF00F0120039
:1010B20007012151030A0BE1A9EC01F00050000ADB
:1010C20006E0FF0E0201A46FFF0E006E50D0070172
:1010D2002151010A06E1FF0E0201A46FFF0E006E0C
:1010E20046D00201AC510801F5190EE10201AB51E3
:1010F2000801F41909E10201AA510801F31904E1F6
:101102000201A9510801F21905E1020E0701216F3E
:10111200006A2DD0F2C834F9F3C835F9F4C836F9AB
:10112200F5C837F996DC0050000A06E0FF0E02010E
:10113200A46FFF0E006E1BD0AD0E0901346F020EBC
:10114200356F98DC0050000A06E0FF0E0201A46F22
:10115200FF0E006E0CD0010E0701216FF2C8A9F23A
:10116200F3C8AAF2F4C8ABF2F5C8ACF2006A1200F6
:10117200030E0801F225E96E000EF321EA6EEECFAE
:1011820009F0000E0A6E0B6E0C6E000E0A6E0B6EEC
:101192000C6E0BC003F00AC002F009C001F0006A35
:1011A20000C009F001C00AF002C00BF003C00CF04D
:1011B200020EF225D96E000EF321DA6EDE50002403
:1011C200056E000E0120066E000E0220076E000E54
:1011D2000320086E05C009F006C00AF007C00BF034
:1011E20008C00CF007C003F006C002F005C001F011
:1011F200006A00C009F001C00AF002C00BF003C08F
:101202000CF0010EF225D96E000EF321DA6EDE50DB
:101212000024056E000E0120066E000E0220076EED
:10122200000E0320086E05C009F006C00AF007C0D0
:101232000BF008C00CF007C003F006C002F005C0B6
:1012420001F0006A00C009F001C00AF002C00BF010
:1012520003C00CF0F2C8D9FFF3C8DAFFDE50002653
:10126200000E01220222032200C009F001C00AF08E
:1012720002C00BF003C00CF000C009F001C00AF07C
:0A12820002C00BF003C00CF01200D4
:10128C00026A080E025C17E2490E0224F66E830E07
:10129C00F76E000EF722000EF86E000EF822090011
:1012AC00F5CF01F001500801F21903E1010E006EB7
:0A12BC0003D0022AE6D7006A1200F0
:1012C600F4C834F9F5C835F9F6C836F9F7C837F968
:1012D600F8C838F9F9C839F9FAC83AF9FBC83BF938
:1012E600300E09013C6F090E3D6FD2DC0050000A3A
:1012F60003E0FF0E006EA7D11DC700F01EC701F068
:101306001FC702F020C703F0010E005E000E015A4F
:10131600025A035A00500801F815046E0150F915D7
:10132600056E0250FA15066E0350FB15076E050E84
:10133600026E04C000F005C001F0025005E0003660
:1013460000900136FF0FFAD7AD0E002409012E6F6B
:10135600020E01202F6F010E0801FC6F080EFC5DC6
:101366000EE2FC5109012E25E96E000E2F21EA6ED0
:10137600EE507E0A01E103D00801FC2BEFD70801ED
:10138600FC51080A0AE12EC934F92FC935F9F2C809
:1013960036F9F3C837F97FDD56D10E0E0901486FCD
:1013A600090E496F2EC94AF92FC94BF9200E4C6F09
:1013B600000E4D6FF4EC03F0F4C834F9F5C835F9B6
:1013C600F6C836F9F7C837F9010E0801F85F000EBE
:1013D600F95BFA5BFB5BF8C838F9F9C839F9FAC862
:1013E6003AF9FBC83BF9300E09013C6F090E3D6F17
:1013F6004FDC0050000A03E0FF0E006E24D11DC72B
:1014060000F01EC701F01FC702F020C703F0010E4F
:10141600005E000E015A025A035A00500801F815E0
:10142600046E0150F915056E0250FA15066E03504A
:10143600FB15076E050E026E04C000F005C001F034
:10144600025005E0003600900136FF0FFAD7AD0EC8
:101456000026020E012200C00CF901C00DF90B0E88
:101466000024E96E000E0120EA6E3F0EEE14016EB6
:1014760001500F0A0BE00E0E0901346F090E356F8D
:10148600F2C836F9F3C837F906DDDDD00E0E0901CC
:10149600346F090E356F6AEC05F000C0FEF8010ED8
:1014A6000801FD6F0B0E09010C25E96E000E0D21DA
:1014B600EA6E3F0EEE14016E01500F0A06E0C00EF2
:1014C6000201A46FFF0E006EBED00D0E09010C25A1
:1014D600E96E000E0D21EA6EEE500801FE1906E0D7
:1014E600C10E0201A46FFF0E006EADD00CC9E9FF5C
:1014F6000DC9EAFFEECF00F01F0E0014016E015079
:101506000801FD1906E0C20E0201A46FFF0E006E6F
:101516009AD00CC934F90DC935F9FF0E0901366F99
:10152600080E376F94EC05F00801FC6BFD05006EA4
:10153600016A000E015A0D0E046E000E056E42EC95
:1015460005F0FC510026000E01220050F225E16E46
:101556000150F321E26EFF0EE96E080EEA6EFC51B1
:10156600E926D8B0EA2AEECFE6FFFC2B0D0EFC5D8D
:101576000CE2FF0EE96E080EEA6EFC51E926D8B0C1
:10158600EA2AEE50000A01E0D1D70CC9E9FF0DC9DD
:10159600EAFFEECF01F001AC02D0006A54D0FD2B79
:1015A600F4C834F9F5C835F9F6C836F9F7C837F985
:1015B600010EF85F000EF95BFA5BFB5BF8C838F9C1
:1015C600F9C839F9FAC83AF9FBC83BF9300E0901EE
:1015D6003C6F090E3D6F4BEC06F00050000A03E02D
:1015E600FF0E006E30D01DC700F01EC701F01FC7EA
:1015F60002F020C703F0010E005E000E015A025AE7
:10160600035A00500801F815046E0150F915056ECD
:101616000250FA15066E0350FB15076E050E026E94
:1016260004C000F005C001F0025005E0003600904D
:101636000136FF0FFAD7AD0E002409010C6F020E1A
:0816460001200D6F2FD71200E7
:10164E00F2C802F0F3C803F0F5C800F0F6C801F0D6
:10165E00010E0801F55F000EF65B0050011009E067
:10166E0002C0E1FF03C0E2FFF4C8E6FF024A032A0C
:0C167E00EBD7F2C800F0F3C801F0120036
:10168A00010E0801F225E96E000EF321EA6EEECF93
:10169A0003F0000E046E000E046E03C001F0006A2F
:1016AA0000C003F001C004F0F2C8D9FFF3C8DAFFA2
:1016BA00DE500026000E012200C003F001C004F033
:0A16CA0000C003F001C004F012009C
:1016D400F2C834F9F3C835F9F4C836F9F5C837F95E
:1016E400F6C838F9F7C839F97CEC06F00050000A5E
:0C16F40003E0FF0E006E01D0006A12003F
:1017000007012151030A0BE1A9EC01F00050000A86
:1017100006E0FF0E0201A46FFF0E006E32D007013B
:101720002151010A06E1FE0E0201A46FFF0E006EB8
:1017300028D0E0C8F2F8E1C8F3F8E2C8F4F8E3C84A
:10174000F5F8AD0E0801F66F020EF76FC3DF000E5D
:1017500000180EE0FF0E0201A96FFF0EAA6FFF0E28
:10176000AB6FFF0EAC6FFE0EA46FFF0E006E09D0C4
:10177000E0C8A9F2E1C8AAF2E2C8ABF2E3C8ACF251
:04178000006A1200E9
:10178400E0C802F0E1C803F002C000F003C001F0B9
:10179400024A032A00C0E9FF01C0EAFFEE5201E059
:1017A400F3D70801E051025C006EE1510358016E69
:0A17B400010E005E000E015A120043
:1017BE000134083609360450085E0550D8A0053CA1
:1017CE00095E003601360F0E0C6E013408360936EE
:1017DE00045000A006D0085E0550D8A0053C095E56
:1017EE0005D008260550D8B0053C0926003601362E
:1017FE000C2EEBD700B006D0045008260550D8B0FA
:08180E00053C09260000120050
:10181600FF0E0801E225EC6F000EE321ED6F0B0EC3
:10182600E025F26F000EE121F36F39DCECC8E1FF31
:10183600EDC8E2FF00C0E6FF000EE225EC6F010EE8
:10184600E321ED6F1C0EE025F26F000EE121F36F30
:101856008DDCECC8E1FFEDC8E2FF00C0E6FF01C089
:10186600E6FF02C0E6FF03C0E6FF040EE225F06FC6
:10187600010EE321F16F140EE025F26F000EE12157
:10188600F36F00DF00C003F001C004F0000E056E28
:10189600066E04C0EFF803C0EEF8EC6BED6B1A0EA3
:1018A600E025F26F000EE121F36FECDE000E026E12
:1018B600036EEC510026ED510122EE510222EF514A
:1018C6000322F0C8E1FFF1C8E2FF00C0E6FF01C055
:1018D600E6FF02C0E6FF03C0E6FF0B0EE025E96E59
:1018E600000EE121EA6E3F0EEE14016E01500F0A62
:1018F60026E0E2C8F2F8E3C8F3F8F46BFF0EF56FE2
:10190600000EF66FA1DEE2C8F2F8E3C8F3F8E4C809
:10191600F4F8E5C8F5F8E6C8F6F8E7C8F7F8E8C851
:10192600F8F8E9C8F9F8EAC8FAF8EBC8FBF8C8DC31
:101936000050000A03E0FF0E006E07D005D0E2C893
:0C194600E1FFE3C8E2FFE66A006A12005D
:101952000901636B646B656B666BD6EC01F000503A
:10196200000A03E0FF0E006E2BD1AD0E0801E16FFD
:10197200020EE26FAD0EE36F020EE46FFE0EE12582
:10198200F26F010EE221F36F7FDE0150AA0A02E13B
:10199200550E001806E0FC0E0201A46FFF0E006E49
:1019A2000FD1E3C8E9FFE4C8EAFFEECF01F001502E
:1019B200E90A15E0E3C8E9FFE4C8EAFFEECF01F067
:1019C2000150EB0A0BE1020E0801E325E96E000E5D
:1019D200E421EA6EEE50900A01E101D006D0FB0E3E
:1019E2000201A46FFF0E006EEBD00801E06B010E46
:1019F200E05DD8B0E4D00A0E006E000E016EE0C8C1
:101A020004F0000E056E42EC05F0B70E0026040E3F
:101A1200012200C0E5F801C0E6F8BE0EE125F26F32
:101A2200010EE221F36F040E026EE0C800F0000E18
:101A3200016E025005E0003600900136FF0FFAD722
:101A42000050F2270150F32352EC08F0E5C8E1FF01
:101A5200E6C8E2FF00C0E6FF0A0E006E000E016E4D
:101A6200E0C804F0000E056E42EC05F0B70E002649
:101A7200040E0122010E0024E56F000E0120E66F24
:101A8200BE0EE125F26F010EE221F36F040E026E2B
:101A9200E0C800F0000E016E025005E00036009032
:101AA2000136FF0FFAD70050F2270150F323040E3C
:101AB200F227000EF32352EC08F0E5C8E1FFE6C876
:101AC200E2FF00C0E6FF0A0E006E000E016EE0C8E3
:101AD20004F0000E056E42EC05F0B70E0026040E6F
:101AE2000122020E0024E56F000E0120E66FBE0EF9
:101AF200E125F26F010EE221F36F040E026EE0C8DF
:101B020000F0000E016E025005E000360090013632
:101B1200FF0FFAD70050F2270150F323080EF227E5
:101B2200000EF323B9EC08F0E5C8E1FFE6C8E2FFD6
:101B320000C0E6FF01C0E6FF02C0E6FF03C0E6FF09
:101B42000A0E006E000E016EE0C804F0000E056E73
:101B520042EC05F0B70E0026040E0122060E002408
:101B6200E56F000E0120E66FBE0EE125F26F010E59
:101B7200E221F36F040E026EE0C800F0000E016E67
:101B8200025005E0003600900136FF0FFAD70050F0
:101B9200F2270150F3230C0EF227000EF323B9ECC7
:101BA20008F0E5C8E1FFE6C8E2FF00C0E6FF01C0B9
:101BB200E6FF02C0E6FF03C0E6FFE02B18D7006A8B
:021BC20012000F
:101BC400E0C848F964EC03F0005208E1E0C8F2F818
:101BD40046EC09F0005202E1006A02D0010E006EE8
:021BE4001200ED
:101BE6000B1E0A1E091E081E082AD8B4092AD8B4D4
:081BF6000A2AD8B40B2A1200E0
:101BFE00E4C801F0E5C802F0010E0801E45F000E32
:101C0E00E55B000E021802E1000E01181FE0E0C8AD
:101C1E00E9FFE1C8EAFFE2C8D9FFE3C8DAFFEE50F8
:101C2E00DE180FE0E0C8E9FFE1C8EAFFE2C8D9FF1D
:101C3E00E3C8DAFFDE50EE5C006E016A000E015A58
:101C4E0007D0E04BE12BE24BE32BD2D7006A016ABF
:021C5E00120072
:101C60000801E0517A0804E3610EE05DD8B0E09B22
:061C7000E0C800F01200C4
:101C76000450085E0550D8A0053C095E0650D8A061
:101C8600063C0A5E0750D8A0073C0B5E0336070EDB
:101C96000C6E0334083609360A360B36045003A098
:101CA6000ED0085E0550D8A0053C095E0650D8A0A7
:101CB600063C0A5E0750D8A0073C0B5E0DD00826EE
:101CC6000550D8B0053C09260650D8B0063C0A2671
:101CD6000750D8B0073C0B2603360C2EDAD7023451
:101CE600083609360A360B36045003A00ED0085EB5
:101CF6000550D8A0053C095E0650D8A0063C0A5EF1
:101D06000750D8A0073C0B5E0DD008260550D8B06A
:101D1600053C09260650D8B0063C0A260750D8B01E
:101D2600073C0B260236070E0C6E023408360936BF
:101D36000A360B36045002A00ED0085E0550D8A015
:101D4600053C095E0650D8A0063C0A5E0750D8A09E
:101D5600073C0B5E0DD008260550D8B0053C092679
:101D66000650D8B0063C0A260750D8B0073C0B26CA
:101D760002360C2EDAD70134083609360A360B3607
:101D8600045002A00ED0085E0550D8A0053C095E9E
:101D96000650D8A0063C0A5E0750D8A0073C0B5E4A
:101DA6000DD008260550D8B0053C09260650D8B0F7
:101DB600063C0A260750D8B0073C0B260136070E0C
:101DC6000C6E0134083609360A360B36045001A06B
:101DD6000ED0085E0550D8A0053C095E0650D8A076
:101DE600063C0A5E0750D8A0073C0B5E0DD00826BD
:101DF6000550D8B0053C09260650D8B0063C0A2640
:101E06000750D8B0073C0B2601360C2EDAD7003423
:101E1600083609360A360B36045001A00ED0085E85
:101E26000550D8A0053C095E0650D8A0063C0A5EBF
:101E36000750D8A0073C0B5E0DD008260550D8B039
:101E4600053C09260650D8B0063C0A260750D8B0ED
:101E5600073C0B260036070E0C6E00340836093692
:101E66000A360B36045000A00ED0085E0550D8A0E6
:101E7600053C095E0650D8A0063C0A5E0750D8A06D
:101E8600073C0B5E0DD008260550D8B0053C092648
:101E96000650D8B0063C0A260750D8B0073C0B2699
:101EA60000360C2EDAD700B00ED0045008260550A6
:101EB600D8B0053C09260650D8B0063C0A2607507D
:081EC600D8B0073C0B26120006
:101ECE00010E066E000E076E086E096E056A800E14
:101EDE00006E800E000A005C02E1200E055C23E21B
:101EEE0006500801E011016E0750E111026E085014
:101EFE00E211036E0950E311046E0450091808E153
:101F0E000350081805E10250071802E101500618A7
:101F1E0003E105C000F009D00636069007360836F4
:0C1F2E000936052AD4D7FF0E006E120001
:101F3A0007012151020A17E1010E0201A925080130
:101F4A00F26F000E0201AA210801F36F000E0201CE
:101F5A00AB210801F46F000E0201AC210801F56FF4
:101F6A0059EC08F030D007012151000A06E1FF0EB2
:101F7A000201A46FFF0E006E26D0AD0E0901346F68
:101F8A00020E356F3BEC05F00050000A06E0FF0E2A
:101F9A000201A46FFF0E006E16D00201010EA925E0
:101FAA00006E000EAA21016E000EAB21026E000E19
:101FBA00AC21036E00C0A9F201C0AAF202C0ABF2C2
:081FCA0003C0ACF2006A120032
:101FD2000E0E0801E025F26F000EE121F36F45ECD1
:101FE2000BF00B0E046E00C002F001C003F00450AF
:101FF20005E003320232039EFF0FFAD71F0E0214CE
:10200200006E00C0A0F60E0EE025F26F000EE12178
:10201200F36F45EC0BF0050E046E00C002F001C038
:1020220003F0045005E003320232039EFF0FFAD799
:102032003F0E0214006E00C0A1F60E0EE025F26FF4
:10204200000EE121F36F45EC0BF000C002F0023606
:1020520002903F0E0214006E00C0A2F6100EE025A0
:10206200F26F000EE121F36F45EC0BF0090E046EE6
:1020720000C002F001C003F0045005E00332023256
:10208200039EFF0FFAD77F0E0214006E03C001F009
:10209200000E011600C09CF601C09DF6BC0E002683
:1020A200070E012200C09CF601C09DF6100EE0252D
:1020B200F26F000EE121F36F45EC0BF0050E046E9A
:1020C20000C002F001C003F0045005E00332023206
:1020D200039EFF0FFAD70F0E0214006E00C09EF689
:1020E200100EE025F26F000EE121F36F45EC0BF0CC
:0E20F2001F0E0014006E00C09FF6006A120060
:102100000801E16BE26B270EE25D02E1100EE15D7A
:10211000D8B0B3D0000E000A02E1000EE0191AE1B7
:10212000B0EC00F0010E09017B6F7C6B7D6B7E6B68
:102130007F6BFF0E806FB2EC00F000C0E3F82CEC78
:1021400000F00801E351000A04E10101186B006A84
:1021500096D08FD0B0EC00F0370E09017B6F7C6B0E
:102160007D6B7E6B7F6BFF0E806FB2EC00F000C06A
:10217000E3F82CEC00F00801E351010AD8A478D070
:10218000B0EC00F0290E09017B6F000E7C6F000E91
:102190007D6F000E7E6F400E7F6FFF0E806FB2EC82
:1021A00000F000C0E3F82CEC00F00801E351000A55
:1021B0005EE1000E000A02E1020EE01953E1B0EC0C
:1021C00000F03A0E09017B6F7C6B7D6B7E6B7F6B41
:1021D000FF0E806FB2EC00F000C0E3F881C5E1FFB4
:1021E00082C5E2FFFF0EE66E7FC500F080C501F0FC
:1021F00020EC00F000C0E4F881C5E1FF82C5E2FFF9
:10220000FF0EE66E7FC500F080C501F020EC00F007
:1022100081C5E1FF82C5E2FFFF0EE66E7FC500F0DB
:1022200080C501F020EC00F081C5E1FF82C5E2FF2E
:10223000FF0EE66E7FC500F080C501F020EC00F0D7
:102240002CEC00F00801E351000A0BE1E4AD04D0EE
:10225000040E0101186F03D00101030E186F006A0C
:102260000ED005D00101010E186F006A08D001D010
:1022700004D00801E14BE22B46D7010E006E12009C
:10228000160E0801E025F26F000EE121F36F45EC18
:102290000BF00B0E046E00C002F001C003F00450FE
:1022A00005E003320232039EFF0FFAD71F0E02141D
:1022B000006E00C0A7F6160EE025F26F000EE121B9
:1022C000F36F45EC0BF0050E046E00C002F001C088
:1022D00003F0045005E003320232039EFF0FFAD7E9
:1022E0003F0E0214006E00C0A8F6160EE025F26F35
:1022F000000EE121F36F45EC0BF000C002F0023656
:1023000002903F0E0214006E00C0A9F6180EE025E0
:10231000F26F000EE121F36F45EC0BF0090E046E35
:1023200000C002F001C003F0045005E003320232A5
:10233000039EFF0FFAD77F0E0214006E03C001F058
:10234000000E011600C0A3F601C0A4F6BC0E0026C4
:10235000070E012200C0A3F601C0A4F6180EE02566
:10236000F26F000EE121F36F45EC0BF0050E046EE9
:1023700000C002F001C003F0045005E00332023255
:10238000039EFF0FFAD70F0E0214006E00C0A5F6D1
:10239000180EE025F26F000EE121F36F45EC0BF013
:0E23A0001F0E0014006E00C0A6F6006A1200A8
:1023AE00160E0801BF25006E000EC021016E010E33
:1023BE000024E16E000E0120E26E70C500F00036C2
:1023CE000090003600900036009000C0E6FF160E1A
:1023DE00BF25006E000EC021016E010E0024026E9C
:1023EE00000E0120036E71C500F00032009E003217
:1023FE00009E0032009E02C0E9FF03C0EAFFEE50CD
:10240E00002602C0E1FF03C0E2FF00C0E6FF160E89
:10241E00BF25E16E000EC021E26E050E016E71C584
:10242E0000F0015004E000360090FF0FFBD700C013
:10243E00E6FF160EBF25026E000EC021036E72C59A
:10244E0000F00032009E02C0E9FF03C0EAFFEE502A
:10245E00002602C0E1FF03C0E2FF00C0E6FF180E37
:10246E00BF25006E000EC021016E010E0024E16E2C
:10247E00000E0120E26EBC0E05016C5D026E02C004
:10248E0000F00036009000C0E6FF180E0801BF25D0
:10249E00006E000EC021016E010E0024026E000EB1
:1024AE000120036E6EC500F00032009E0032009EC9
:1024BE000032009E02C0E9FF03C0EAFFEE50002684
:1024CE0002C0E1FF03C0E2FF00C0E6FF180EBF2509
:1024DE00E16E000EC021E26E050E016E6EC500F0BB
:1024EE00015004E000360090FF0FFBD700C0E6FF5E
:1024FE00180EBF25016E000EC021026E01C0E9FF4D
:10250E0002C0EAFF05016F51EE24006E01C0E1FF2B
:0C251E0002C0E2FF00C0E6FF006A1200ED
:10252A00A9EC0CF0AD0E0801C06F020EC16F0201DA
:10253A00A451FF0A03E1FF0E006E6FD2A451FC0AF8
:10254A0003E1FF0E006E69D2A451000AD8A466D036
:10255A000F0E0401B815016E01C0C2F801500B0A32
:10256A000AE00801C2510C0A06E0F80E0201A46F43
:10257A00FF0E006E52D2B9C463F9BAC464F9BBC47F
:10258A0065F9BCC466F9D6EC01F00050000A03E014
:10259A00FF0E006E42D2AD0E0801C06F020EC16F6F
:1025AA00FE0EC025F26F010EC121F36F45EC0BF050
:1025BA000150AA0A02E1550E001806E0FC0E0201BB
:1025CA00A46FFF0E006E29D2C0C8E9FFC1C8EAFF96
:1025DA00EECF01F00150E90A16E0C0C8E9FFC1C810
:1025EA00EAFFEECF01F00150EB0A0BE1020E0801FF
:1025FA00C025E96E000EC121EA6EEE50900A01E193
:10260A0002D0006A02D0010E006E005206E1FB0EF3
:10261A000201A46FFF0E006E00D21ED00201A45167
:10262A00FB0A1AE1800E0401B76FB96BBA6BBB6B78
:10263A00BC6B200E0801C025F26F000EC121F36F9A
:10264A00B9EC08F000C0BDF401C0BEF402C0BFF48A
:10265A0003C0C0F40201A46B0201A451000AD8A469
:10266A00D7D10B0E0801C025F26F000EC121F36FFE
:10267A0045EC0BF000C0C1F401C0C2F40D0EC02538
:10268A00F26F000EC121F36F52EC08F000C0C3F4E0
:10269A000E0EC025F26F000EC121F36F45EC0BF050
:1026AA0000C0C4F401C0C5F4100EC025F26F000EBC
:1026BA00C121F36F52EC08F000C0C6F4240EC02505
:1026CA00F26F000EC121F36FB9EC08F000C0C7F435
:1026DA0001C0C8F402C0C9F403C0CAF4280EC02558
:1026EA00F26F000EC121F36F45EC0BF000C0CBF482
:1026FA0001C0CCF40401C451B925006EC551BA21F8
:10270A00016E000EBB21026E000EBC21036E00C0DA
:10271A00CDF401C0CEF402C0CFF403C0D0F42C0E25
:10272A000801C025F26F000EC121F36FB9EC08F061
:10273A0000C0D1F401C0D2F402C0D3F403C0D4F46F
:10274A00110EC025F26F000EC121F36F45EC0BF09C
:10275A0000C0D5F401C0D6F4300EC025F26F000EC9
:10276A00C121F36F45EC0BF0000E026E036E0401FB
:10277A00B9510026BA510122BB510222BC5103228F
:10278A0000C0DBF401C0DCF402C0DDF403C0DEF4F7
:10279A00CDC4D7F4CEC4D8F4CFC4D9F4D0C4DAF4B3
:1027AA000801BF6B0401C6510801BF5D18E20401AC
:1027BA00C751D725006EC851D821016EC951D921F8
:1027CA00026ECA51DA21036E00C0D7F401C0D8F4F0
:1027DA0002C0D9F403C0DAF40801BF2BE3D7050E0F
:1027EA00006EC1C41DF7C2C41EF7000E07011F6F99
:1027FA00206F005005E01E331D331E9FFF0FFAD7CE
:10280A00000E1F6F206FC1C4ABF6C2C4ACF6000E37
:10281A000601AD6FAE6FAC33AB33AC9FAC33AB33A9
:10282A00AC9F000EAD6FAE6FC1C4E0F8C2C4E1F850
:10283A00000E0801E26FE36F67EC0FF000C08BF542
:10284A00C3C4E0F8000E0801E16FE26FE36F67ECC2
:10285A000FF000C069F51DC7E0F81EC7E1F81FC7F1
:10286A00E2F820C7E3F867EC0FF000C06BF5ABC6DF
:10287A00E0F8ACC6E1F8ADC6E2F8AEC6E3F867EC3C
:10288A000FF000C0AAF6050169518B25006E00C041
:10289A0018F7010E0701196F000E1A6F000E1B6F51
:1028AA00000E1C6F005007E0193719911A371B37B1
:1028BA001C37FF0FF8D7200E0801E06F000EE16FFA
:1028CA00E26FE36F67EC0FF000500701185D006ECE
:1028DA00016A000E00BEFF0E015A00C004F0010E8C
:1028EA00006E000E016E000E026E000E036E0450A2
:1028FA0007E000360090013602360336FF0FF8D79C
:10290A0000C0ADF401C0AEF402C0AFF403C0B0F42D
:10291A0000C0E0F801C0E1F802C0E2F803C0E3F841
:10292A0067EC0FF000C06AF5D1C4A5F2D2C4A6F2D2
:10293A00D3C4A7F2D4C4A8F20401B36BB46BB56BC9
:10294A00B66BD7C400F0D8C401F0D9C402F0DAC417
:10295A0003F0B951005EBA51015ABB51025ABC5137
:10296A00035ABDC4E7F4BEC4E8F4BFC4E9F4C0C462
:10297A00EAF40050E75F0150E85B0250E95B03505C
:10298A00EA5B69C500F0005007E0EA33E933E8334F
:10299A00E733EA9FFF0FF8D7020EE727000EE82376
:1029AA00E923EA23B85320E1000EEA5D08E1000EAC
:1029BA00E95D05E1FF0EE85D02E1F70EE75D03E37D
:1029CA000B0EB86F11D0000EEA5D08E1000EE95D4A
:1029DA0005E10F0EE85D02E1F70EE75D03E3060E7F
:1029EA00B86F02D0010EB86F0F0EB815016E01C094
:1029FA00C2F801500B0A0AE00801C2510C0A06E0AB
:102A0A00F80E0201A46FFF0E006E07D0006A05D00F
:0C2A1A000201FB0EA46FFF0E006E120004
:102A2600E3C4BFF8E4C4C0F8E5C4C1F8E6C4C2F81C
:102A36000401D451E65D08E1D351E55D05E1D251CB
:102A4600E45D02E1D151E35D14E3EA510801C25DA0
:102A56000EE10401E9510801C15D09E10401E851F3
:102A66000801C05D04E10401E7510801BF5D01E210
:102A760008D0D1C4BFF8D2C4C0F8D3C4C1F8D4C4F6
:102A8600C2F8BFC8C3F8C0C8C4F8C1C8C5F8C2C830
:102A9600C6F8AAC604F0BFC800F0C0C801F0C1C895
:102AA60002F0C2C803F0045007E0033202320132DA
:102AB6000032039EFF0FF8D700500401CD25080110
:102AC600F26F01500401CE210801F36F0250040198
:102AD600CF210801F46F03500401D0210801F56FDE
:102AE600ABC600F0ACC601F0ADC602F0AEC603F050
:102AF600010E005E000E015A025A035A0050BF151D
:102B0600046E0150C015056E0250C115066E0350C5
:102B1600C215076E04C000F005C001F00036009033
:102B26000136003600900136AD0E0024C76F020E46
:102B36000120C86F59EC08F00050000A09E0FF0EAA
:102B4600006EFF0E016EFF0E026E0F0E036E6DD14C
:102B56000801C96BC7C8E9FFC8C8EAFFEECF01F094
:102B6600EECF02F0EECF03F0EECF04F00450000AF1
:102B760008E10350000A05E10250000A02E1015093
:102B8600000A04E10801010EC96FC0D00801040E55
:102B9600C727000EC823010EBF27000EC023C1237E
:102BA600C2230401EA510801C25D0EE10401E951A4
:102BB6000801C15D09E10401E8510801C05D04E1B5
:102BC6000401E7510801BF5D76E3D1C4BFF8D2C462
:102BD600C0F8D3C4C1F8D4C4C2F8A9EC01F00050BF
:102BE600000A09E0FF0E006EFF0E016EFF0E026E78
:102BF6000F0E036E1AD1AAC604F0BFC800F0C0C8F3
:102C060001F0C1C802F0C2C803F0045007E0033265
:102C1600023201320032039EFF0FF8D70050040142
:102C2600CD250801F26F01500401CE210801F36F92
:102C360002500401CF210801F46F03500401D02192
:102C46000801F56FABC600F0ACC601F0ADC602F0E8
:102C5600AEC603F0010E005E000E015A025A035A78
:102C66000050BF15046E0150C015056E0250C11507
:102C7600066E0350C215076E04C000F005C001F0D1
:102C8600003600900136003600900136AD0E002465
:102C9600C76F020E0120C86F59EC08F00050000AF9
:102CA60009E0FF0E006EFF0E016EFF0E026E0F0EA4
:102CB600036EBBD01CD00801C8510401B21903E150
:102CC600B1510801C71913E10801AD0EC76F020E15
:102CD600C86F9DEC0FF00050000A09E0FF0E006E71
:102CE600FF0E016EFF0E026E0F0E036E9ED00801E0
:102CF600C251C61908E1C151C51905E1C051C4192F
:102D060002E1BF51C31901E101D024D7A9EC01F0BA
:102D16000050000A09E0FF0E006EFF0E016EFF0E66
:102D2600026E0F0E036E81D00801C95309E1FF0E32
:102D3600006EFF0E016EFF0E026E0F0E036E75D053
:102D4600C7C8E1FFC8C8E2FFFF0EE66EFF0EE66EDB
:102D5600FF0EE66E0F0EE66EAAC604F0BFC800F0C0
:102D6600C0C801F0C1C802F0C2C803F0045007E0B1
:102D76000332023201320032039EFF0FF8D70050B1
:102D86000401CD250801E06F01500401CE210801A0
:102D9600E16F02500401CF210801E26F03500401E4
:102DA600D0210801E36F80EC0BF00050000A07E029
:102DB600FF0E006EFF0E016E026E036E36D004012A
:102DC600E251FF0A08E1E151FF0A05E1E051FF0A7D
:102DD60002E1DF51FF0A16E0DFC400F0E0C401F0B3
:102DE600E1C402F0E2C403F0010E005E000E015AD7
:102DF600025A035A00C0DFF401C0E0F402C0E1F455
:102E060003C0E2F4BFC8E3F4C0C8E4F4C1C8E5F403
:102E1600C2C8E6F4010E0601AF6FBFC800F0C0C815
:0C2E260001F0C1C802F0C2C803F01200A5
:102E3200050E0101186F95982CEC00F00801BF6B8C
:102E4200C06B000EC05D02E10A0EBF5D10E281C5DB
:102E5200E1FF82C5E2FFFF0EE66E7FC500F080C58E
:102E620001F020EC00F00801BF4BC02BEAD7B0EC18
:102E720000F009017B6B7C6B7D6B7E6B7F6B950E2B
:102E8200806FB2EC00F000C0C1F82CEC00F0080139
:102E9200C151010A03E0010E006E85D0B0EC00F0D2
:102EA200080E09017B6FAA0E7C6F010E7D6F000E6A
:102EB2007E6F7F6F870E806FB2EC00F000C0C1F8AA
:102EC20081C5E1FF82C5E2FFFF0EE66E7FC500F01D
:102ED20080C501F020EC00F081C5E1FF82C5E2FF70
:102EE200FF0EE66E7FC500F080C501F020EC00F019
:102EF20081C5E1FF82C5E2FFFF0EE66E7FC500F0ED
:102F020080C501F020EC00F081C5E1FF82C5E2FF3F
:102F1200FF0EE66E7FC500F080C501F020EC00F0E8
:102F22002CEC00F00801C151010A0BE0010EE06F28
:102F320080EC10F0005204E00801E06B80EC10F02D
:102F420005D0020E0801E06F80EC10F0000E000ABE
:102F520003E1050E0101181903E1020E006E23D0F0
:102F6200000E000A03E10101040E18191BE0B0EC87
:102F720000F0100E09017B6F000E7C6F020E7D6F58
:102F8200000E7E6F7F6FFF0E806FB2EC00F000C00C
:102F9200C1F82CEC00F00801C151000A03E0030E55
:082FA200006E01D0006A12006C
:102FAA001A0E0801BF25E16E000EC021E26EC1C8EB
:102FBA00E6FF1A0EBF25006E000EC021016E010E3B
:102FCA000024E16E000E0120E26EC2C8E6FF140E74
:102FDA00BF25E16E000EC021E26EC3C8E6FF140EE3
:102FEA00BF25006E000EC021016E010E0024E16EA5
:0E2FFA00000E0120E26EC4C8E6FF006A12005D
:103008000401B651FF0A08E1B551FF0A05E1B451C0
:10301800FF0A02E1B351FF0A06E1F60E0201A46FAE
:10302800FF0E006E85D2A5C2C1F8A6C2C2F8A7C21B
:10303800C3F8A8C2C4F80401D4510201A85D0EE186
:103048000401D3510201A75D09E10401D251020133
:10305800A65D04E10401D1510201A55D15E3040157
:10306800EA510801C45D0EE10401E9510801C35D9C
:1030780009E10401E8510801C25D04E10401E751D6
:103088000801C15D01E206D0F40E0201A46FFF0E33
:10309800006E4ED20801CB6B6AC500F0B3C401F0D4
:1030A800B4C402F0B5C403F0B6C404F0005007E09D
:1030B8000432033202320132049EFF0FF8D7045063
:1030C800000809E10350000806E10250000803E186
:1030D80008010150CB5D56E2C1C85FF9C2C860F96A
:1030E800C3C861F9C4C862F992EC02F000C0C1F823
:1030F80001C0C2F802C0C3F803C0C4F803500F0AE5
:1031080008E10250FF0A05E10150FF0A02E1005000
:10311800FF0A06E1F10E0201A46FFF0E006E08D24D
:103128000401D4510801C45D0EE10401D351080122
:10313800C35D09E10401D2510801C25D04E1040143
:10314800D1510801C15D15E30401EA510801C45DCC
:103158000EE10401E9510801C35D09E10401E851E8
:103168000801C25D04E10401E7510801C15D01E203
:1031780006D0F40E0201A46FFF0E006ED9D108012B
:10318800CB2B8AD7ADC400F0AEC401F0AFC402F0B7
:10319800B0C403F0010E005E000E015A025A035A31
:1031A80000500401B3150801C76F01500401B4159C
:1031B8000801C86F02500401B5150801C96F035012
:1031C8000401B6150801CA6FC1C85FF9C2C860F921
:1031D800C3C861F9C4C862F965EC02F06BC508F0B0
:1031E800C7C804F0C8C805F0C9C806F0CAC807F0BF
:1031F800085007E00732063205320432079EFF0FF7
:10320800F8D7045000240801F26F05500120F36F2D
:1032180006500220F46F07500320F56F1DC700F019
:103228001EC701F01FC702F020C703F0010E005EA1
:10323800000E015A025A035A0050C715046E015075
:10324800C815056E0250C915066E0350CA15076EDB
:10325800050E026E04C000F005C001F0025005E042
:10326800003600900136FF0FFAD70801AD0E002492
:10327800C56F020E0120C66F59EC08F00050000A15
:1032880003E0FF0E006E54D1C5C8E9FFC6C8EAFFC7
:10329800EECF01F00150E50A0AE0C5C8E9FFC6C84B
:1032A800EAFFEECF01F0200E015C01E318D0C5C89B
:1032B800E9FFC6C8EAFFEECF01F0140E015C0EE28A
:1032C8000B0E0801C525E96E000EC621EA6E3F0EF9
:1032D800EE14016E01500F0A01E101D098D0A9EC5B
:1032E80001F00050000A03E0FF0E006E21D10B0E22
:1032F8000801C525E96E000EC621EA6EEECF01F081
:1033080001A62FD0BFC8F2F8C0C8F3F8F46B100EAE
:10331800F56F010EF66F27EC0BF0FF0EBF25CC6F93
:10332800000EC021CD6F0B0EC525F26F000EC62111
:10333800F36F52EC08F0CCC8E1FFCDC8E2FF00C043
:10334800E6FFBFC848F9C0C849F9C5C84AF9C6C8A0
:103358004BF90B0E09014C6F000E4D6FF4EC03F0A6
:103368004CD00801BF51C01148E0C5C8E0F8C6C834
:10337800E1F8BFC8E2F8C0C8E3F8A5C2E4F8A6C2FD
:10338800E5F8A7C2E6F8A8C2E7F8B3C4E8F8B4C4F9
:10339800E9F8B5C4EAF8B6C4EBF80BEC0CF0005049
:1033A800000A03E0FF0E006EC3D0C5C8E0F8C6C827
:1033B800E1F8E9EC0FF0C5C8E0F8C6C8E1F840EC60
:1033C80011F0080EBF25E16E010EC021E26EA5C204
:1033D800E6FFA6C2E6FFA7C2E6FFA8C2E6FF0C0EFC
:1033E800BF25E16E010EC021E26EB3C4E6FFB4C48E
:1033F800E6FFB5C4E6FFB6C4E6FF010E0401B32735
:10340800000EB423B523B623010E006E91D0010E31
:103418000801C727000EC823C923CA23200EC525C3
:10342800016E000EC621026E01C0C5F802C0C6F8C2
:10343800010E0401B327000EB423B523B6230250AE
:10344800B21902E1B1510118D8A471D0AD0E08012A
:10345800C56F020EC66FCA510401B0190EE108010A
:10346800C9510401AF1909E10801C8510401AE1995
:1034780004E10801C7510401AD1951E1A9EC01F0BB
:103488000050000A03E0FF0E006E52D00801C76B1F
:10349800C86BC96BCA6BC1C85FF9C2C860F9C3C839
:1034A80061F9C4C862F992EC02F000C0C1F801C029
:1034B800C2F802C0C3F803C0C4F803500F0A08E1F9
:1034C8000250FF0A05E10150FF0A02E10050FF0A1D
:1034D8000BE1FF0E0401B36FFF0EB46FFF0EB56F63
:1034E800FF0EB66F006A24D0C1C85FF9C2C860F980
:1034F800C3C861F9C4C862F965EC02F000C0F2F80B
:1035080001C0F3F802C0F4F803C0F5F859EC08F06C
:103518000050000A03E0FF0E006E0AD008D09DECB0
:103528000FF00050000A03E0FF0E006E01D0ACD689
:0235380012007F
:10353A000E0E0801BF25006E000EC021016E010E9D
:10354A000024E16E000E0120E26E70C500F0003624
:10355A000090003600900036009000C0E6FF0E0E84
:10356A00BF25006E000EC021016E010E0024026EFE
:10357A00000E0120036E71C500F00032009E003279
:10358A00009E0032009E02C0E9FF03C0EAFFEE502F
:10359A00002602C0E1FF03C0E2FF00C0E6FF0E0EF4
:1035AA00BF25E16E000EC021E26E050E016E71C5E7
:1035BA0000F0015004E000360090FF0FFBD700C076
:1035CA00E6FF0E0EBF25026E000EC021036E72C505
:1035DA0000F00032009E02C0E9FF03C0EAFFEE508D
:1035EA00002602C0E1FF03C0E2FF00C0E6FF100EA2
:1035FA00BF25006E000EC021016E010E0024E16E8F
:10360A00000E0120E26EBC0E05016C5D026E02C066
:10361A0000F00036009000C0E6FF100E0801BF253A
:10362A00006E000EC021016E010E0024026E000E13
:10363A000120036E6EC500F00032009E0032009E2B
:10364A000032009E02C0E9FF03C0EAFFEE500026E6
:10365A0002C0E1FF03C0E2FF00C0E6FF100EBF2573
:10366A00E16E000EC021E26E050E016E6EC500F01D
:10367A00015004E000360090FF0FFBD700C0E6FFC0
:10368A00100EBF25016E000EC021026E01C0E9FFB7
:10369A0002C0EAFF05016F51EE24006E01C0E1FF8E
:0C36AA0002C0E2FF00C0E6FF006A120050
:1036B600AAC604F0C3C800F0C4C801F0C5C802F029
:1036C600C6C803F0045007E003320232013200326A
:1036D600039EFF0FF8D700C0C8F801C0C9F802C0A2
:1036E600CAF803C0CBF80401CD510024086ECE51B0
:1036F6000120096ECF5102200A6ED05103200B6EB5
:1037060008C0C8F809C0C9F80AC0CAF80BC0CBF887
:10371600ABC600F0ACC601F0ADC602F0AEC603F013
:10372600010E005E000E015A025A035A00500801AB
:10373600C315046E0150C415056E0250C515066EFC
:103746000350C615076E04C000F005C001F0003630
:1037560000900136003600900136AD0E0024D06F81
:10376600020E0120D16F08C063F909C064F90AC0CE
:1037760065F90BC066F9D6EC01F00050000A03E0CB
:10378600FF0E006E46D0D0C8E1FFD1C8E2FFBFC829
:10379600E6FFC0C8E6FFC1C8E6FFC2C8E6FFC8C864
:1037A600CCF8C9C8CDF8CAC8CEF8CBC8CFF808013E
:1037B600C76B0401C6510801C75D22E2CCC8E0F818
:1037C600CDC8E1F8CEC8E2F8CFC8E3F880EC0BF03C
:1037D6000050000A03E0FF0E006E1BD00401C75123
:1037E6000801CC270401C8510801CD230401C951A1
:1037F6000801CE230401CA510801CF23C72BD9D70C
:10380600C8C8A9F2C9C8AAF2CAC8ABF2CBC8ACF2FA
:04381600006A120032
:10381A000450000A08E10550000A05E1FF0E006E97
:10382A007F0E016E58D00D6A096A086A01500010AD
:10383A00D8B4000C015005180A6E0ABE0D1E0B6A98
:10384A0005AE05D0041E051E042AD8B4052A01AE09
:10385A0005D0001E011E002AD8B4012A0150051005
:10386A000A6E0ABE10D0DFEC0BF00BB020D00DAE02
:10387A00000C001E011E002AD8B4012A081E091EC7
:10388A00082AD8B4092A000C05AE0DD001BE07D00B
:10389A000150096E0050086E016A006AE8D7016A91
:1038AA00006A002A000C011E001E0B2ADDD7082A16
:1038BA00D8B4092A0450085CD8A4D9D70550095CA1
:1038CA00D8A4D5D7096A086A002AD8B4012A01AE51
:0838DA00CED70000FF0C120024
:1038E200BFC8E0F8C0C8E1F8C2EC0BF000C0C4F8F1
:1038F20001C0C5F8C1C8E0F8C2C8E1F8C2EC0BF0DB
:10390200C551011802E10050C41902E0006A2FD02B
:10391200C36BC1C8E0F8C2C8E1F8C2EC0BF0800E7C
:10392200026E800E0118025C02E10050C35D1DE2CE
:10393200C351BF25E96E000EC021EA6EEECFE0F85A
:1039420030EC0EF000C0C4F8C351C125E96E000E80
:10395200C221EA6EEECFE0F830EC0EF0C45100184E
:1039620002E0006A04D0C32BD4D7010E006E12000D
:10397200010E0801C36FC46BC56BC66BC76BC86B06
:10398200C96BBFC8E9FFC0C8EAFFEE50000A06E1F2
:10399200C40E0201A46FFF0E006EF2D0BFC8E0F8A1
:1039A200C0C8E1F8C2EC0BF000C0C2F8C16BBFC8DE
:1039B200E0F8C0C8E1F8C2EC0BF0800E026E800E97
:1039C2000118025C02E10050C15D15E2C151BF2540
:1039D200E96E000EC021EA6EEECFE0F8E2EC0DF0E7
:1039E200005206E1C30E0201A46FFF0E006EC8D0A2
:1039F2000801C12BDCD7C205006E000EC2BFFF0E4C
:103A0200016E000E015A0050BF25E96E0150C0211F
:103A1200EA6EEE502E0A02E1C207EDD7800E000ACE
:103A2200006E800EC219005C06E3E20E0201A46F72
:103A3200FF0E006EA5D0BFC8E0F8C0C8E1F8C2EC26
:103A42000BF0800EC2BF7F0E026E800E0118025C68
:103A520002E10050C25D09E2C251BF25E16E000ED3
:103A6200C2BFFF0EC021E26EE66AC16B800E006E1D
:103A7200800EC2BF7F0E005C02E1C251C15D12E244
:103A8200C151BF25E96E000EC021EA6EEECFF2F8F9
:103A920046EC09F0005203E0010E006E71D00801FD
:103AA200C12BE4D7800E0C0A006E800EC219005C96
:103AB20003E2010E006E64D0C16B800E006E800EB8
:103AC200C2BF7F0E005C02E1C251C15D43E2C1513F
:103AD200BF25E96E000EC021EA6EEECF5FF94DEC14
:103AE20002F0005204E0010E0801C46F2CD008015C
:103AF200C151BF25E96E000EC021EA6EEECF5FF91B
:103B020059EC02F0005204E0010E0801C56F1BD00F
:103B12000801C151BF25E96E000EC021EA6EEE50C8
:103B22002E0A11E1C7530CE1C45304E0C55302E06D
:103B3200010EC66F010EC76FC36BC46BC56B08D095
:103B4200010E006E1DD0C35302E0C82B01D0C92B59
:103B5200C12BB3D7C45304E0C55302E0010EC66FB4
:103B6200C851080804E3C951030801E303D0010E58
:103B7200006E06D0C65303E0020E006E01D0006A4A
:023B820012002F
:103B84000450000A12E10550000A0FE10650000A31
:103B94000CE10750000A09E1FF0E006EFF0E016EF2
:103BA400FF0E026E7F0E036E99D00C6A07BE0C2ABC
:103BB4000D6A0B6A0A6A096A086A03500210011046
:103BC4000010D8B485D0035007180E6E0EBE0D1E1B
:103BD40007AE0BD0041E051E061E071E042AD8B409
:103BE400052AD8B4062AD8B4072A03AE0BD0001E7F
:103BF400011E021E031E002AD8B4012AD8B4022AC8
:103C0400D8B4032A035007100E6E0EBE1DD03BEC31
:103C14000EF00CBE36D00DAE5BD0001E011E021E8F
:103C2400031E002AD8B4012AD8B4022AD8B4032A1D
:103C3400081E091E0A1E0B1E082AD8B4092AD8B465
:103C44000A2AD8B40B2A44D007AE15D003BE0DD02F
:103C540003500B6E02500A6E0150096E0050086E3C
:103C6400036A026A016A006AD6D7036A026A016AB1
:103C7400006A002A000C031E021E011E001E0C8E88
:103C8400C6D7082AD8B4092AD8B40A2AD8B40B2A21
:103C94000450085CD8A4BFD70550095CD8A4BBD78E
:103CA40006500A5CD8A4B7D707500B5CD8A4B3D786
:103CB4000B6A0A6A096A086A002AD8B4012AD8B4C5
:103CC400022AD8B4032A03AEA6D70E6A0E88FF0CC4
:0E3CD4000E6A0CA002D0F3EC0DF0000F1200EF
:103CE200086A080E0C6E003408360450085ED8B01C
:0E3CF20002D00826D89000360C2EF5D712000E
:103D0000A5C2C3F8A6C2C4F8A7C2C5F8A8C2C6F81F
:103D10000401B36BB46BB56BB66B0401D4510801ED
:103D2000C65D0EE10401D3510801C55D09E104013E
:103D3000D2510801C45D04E10401D1510801C35D01
:103D400015E30401EA510801C65D0EE10401E951E1
:103D50000801C55D09E10401E8510801C45D04E101
:103D60000401E7510801C35D01E206D0F40E02012F
:103D7000A46FFF0E006EF7D0AD0E0801CB6F020EE0
:103D8000CC6FC3C85FF9C4C860F9C5C861F9C6C8BB
:103D900062F965EC02F000C0F2F801C0F3F802C06D
:103DA000F4F803C0F5F859EC08F00050000A03E0FD
:103DB000FF0E006ED8D00801C76BC86BC96BCA6B09
:103DC0000401B0510801CA5D0EE10401AF510801C0
:103DD000C95D09E10401AE510801C85D04E10401B7
:103DE000AD510801C75DD8B095D0CC510401B219CE
:103DF00003E1B1510801CB190DE10801AD0ECB6F04
:103E0000020ECC6F9DEC0FF00050000A03E0FF0E95
:103E1000006EA9D0CBC8E0F8CCC8E1F8BFC8E2F882
:103E2000C0C8E3F80B0E0801E46F000EE56FFFEC6D
:103E30000DF0000E011802E1000E001858E1A9EC87
:103E400001F00050000A03E0FF0E006E8CD0080164
:103E5000C151C2113DE0CBC8E0F8CCC8E1F8C1C8FF
:103E6000E2F8C2C8E3F8A5C2E4F8A6C2E5F8A7C222
:103E7000E6F8A8C2E7F8B3C4E8F8B4C4E9F8B5C4F2
:103E8000EAF8B6C4EBF80BEC0CF00050000A03E0C3
:103E9000FF0E006E68D0080E0801C125E16E010E0C
:103EA000C221E26EA5C2E6FFA6C2E6FFA7C2E6FFF8
:103EB000A8C2E6FF0C0EC125E16E010EC221E26E22
:103EC000B3C4E6FFB4C4E6FFB5C4E6FFB6C4E6FF7C
:103ED000CBC8E0F8CCC8E1F8E9EC0FF0CBC8E0F8CB
:103EE000CCC8E1F840EC11F0010E006E3CD00801A6
:103EF000200ECB27000ECC23010EC727000EC823AF
:103F0000C923CA23010E0401B327000EB423B5232D
:103F1000B62356D7A9EC01F00050000A03E0FF0ECB
:103F2000006E21D0C3C85FF9C4C860F9C5C861F983
:103F3000C6C862F992EC02F000C0C3F801C0C4F830
:103F400002C0C5F803C0C6F803500F0A08E10250CA
:103F5000FF0A05E10150FF0A02E10050FF0A02E1F9
:083F6000006A01D0DAD612005C
:103F6800B3C4D7F8B4C4D8F8B5C4D9F8B6C4DAF825
:103F7800A5C234F9A6C235F9A7C236F9A8C237F9DD
:103F8800B3C438F9B4C439F9B5C43AF9B6C43BF97D
:103F9800DB0E09013C6F080E3D6F4BEC06F000503C
:103FA800000A03E0FF0E006E7CD11DC700F01EC79B
:103FB80001F01FC702F020C703F0010E005E000EDB
:103FC800015A025A035A00500401B315046E0150F5
:103FD800B415056E0250B515066E0350B615076E7A
:103FE80004C0D3F805C0D4F806C0D5F807C0D6F881
:103FF800050E026E04C000F005C001F0025005E095
:10400800003600900136FF0FFAD7AD0E00240901E3
:10401800346F020E0120356F010E0801C26F6AEC81
:1040280005F000C0C3F8010E0401B35F000EB45BD5
:10403800B55BB65B000E006E0801D61908E10050AA
:10404800D51905E10050D41902E1D351000A2CE139
:10405800ADC4D3F8AEC4D4F8AFC4D5F8B0C4D6F85C
:10406800010ED35F000ED45BD55BD65BA5C234F9D5
:10407800A6C235F9A7C236F9A8C237F9B3C438F9C8
:10408800B4C439F9B5C43AF9B6C43BF9DB0E090131
:104098003C6F080E3D6F4BEC06F00050000A03E041
:1040A800FF0E006EFED007D0010E0801D35F000E90
:1040B800D45BD55BD65B08011DC700F01EC701F0B5
:1040C8001FC702F020C703F0010E005E000E015A60
:1040D800025A035A0050D315046E0150D415056EC8
:1040E8000250D515066E0350D615076E050E026EE2
:1040F80004C000F005C001F0025005E00036009051
:104108000136FF0FFAD7AD0E0026020E012200C0BD
:10411800D1F801C0D2F80B0E0024E96E000E012080
:10412800EA6E3F0EEE14016E01500F0A06E0C00E53
:104138000201A46FFF0E006EB4D00D0E0801D12548
:10414800E96E000ED221EA6EEE50C31906E0C10EE8
:104158000201A46FFF0E006EA4D0D1C8E9FFD2C837
:10416800EAFFEECF00F01F0E0014016E01500801A7
:10417800C21906E0C20E0201A46FFF0E006E91D0B4
:10418800D1C834F9D2C835F9C40E0901366F080E02
:10419800376F94EC05F00801C16BC40EE96E080E88
:1041A800EA6EC151E926D8B0EA2AEECFE0F830EC41
:1041B8000EF000C0DFF8C205006E016A000E015A59
:1041C8000D0E046E000E056E42EC05F0C15100267E
:1041D800000E01220050BF25E96E0150C021EA6E91
:1041E800EECFE0F830EC0EF0DF5100180AE0D7C847
:1041F800B3F4D8C8B4F4D9C8B5F4DAC8B6F4006AC8
:1042080050D0C12B0D0EC15D0CE2C40EE96E080E34
:10421800EA6EC151E926D8B0EA2AEE50000A01E058
:10422800BCD70D0EC15D2AE2C40EE96E080EEA6E17
:10423800C151E926D8B0EA2AC205006E016A000E0B
:10424800015A0D0E046E000E056E42EC05F0C151C8
:104258000026000E01220050BF25D96E0150C02152
:10426800DA6EEE50DE180AE0D7C8B3F4D8C8B4F452
:10427800D9C8B5F4DAC8B6F4006A13D0C22BD1C8CD
:10428800E9FFD2C8EAFFEECF01F001ACCCD6D7C81F
:10429800B3F4D8C8B4F4D9C8B5F4DAC8B6F4010E82
:0442A800006E120092
:1042AC000601AF5302E1006A63D0AD0E08019E6FA8
:1042BC00020E9F6FAD0EF26F020EF36FF46B000ED9
:1042CC00F56F020EF66F27EC0BF09EC8E1FF9FC84E
:1042DC00E2FF520EE66E520EE66E610EE66E410E77
:1042EC00E66EE40E9E25E16E010E9F21E26E720ECB
:1042FC00E66E720EE66E410EE66E610EE66EE80E2E
:10430C009E25E16E010E9F21E26EDFC4E6FFE0C444
:10431C00E6FFE1C4E6FFE2C4E6FFEC0E9E25E16E8B
:10432C00010E9F21E26EE3C4E6FFE4C4E6FFE5C4A0
:10433C00E6FFE6C4E6FFFE0E9E25E16E010E9F2110
:10434C00E26E550EE66EAA0EE66EDBC4E0F8DCC437
:10435C00E1F8DDC4E2F8DEC4E3F880EC0BF00050C9
:10436C00000A03E0FF0E006E03D00601AF6B006A7B
:02437C0012002D
:10437E009EC8E9FF9FC8EAFFEE50000A07E1C40E8F
:10438E000201A46FFF0E006E54EF28F0A0C8F2F8E1
:10439E00A1C8F3F8200E0801F46F0B0EF56F000E96
:1043AE00F66F27EC0BF09EC8E9FF9FC8EAFFEE50B0
:1043BE002E0A12E1010E9E25E96E000E9F21EA6E75
:1043CE00EE50000A09E1A0C8E1FFA1C8E2FF2E0EDF
:1043DE00E66E006A54EF28F09EC8E9FF9FC8EAFF18
:1043EE00EE502E0A23E1010E9E25E96E000E9F214E
:1043FE00EA6EEE502E0A1AE1020E9E25E96E000EAE
:10440E009F21EA6EEE50000A11E1A0C8E1FFA1C89B
:10441E00E2FF2E0EE66E010EA025E16E000EA1212A
:10442E00E26E2E0EE66E006A54EF28F09EC8E9FF8B
:10443E009FC8EAFFEE502E0A07E1E20E0201A46FBA
:10444E00FF0E006E54EF28F09EC8E0F89FC8E1F80A
:10445E00C2EC0BF000C0B0F801C0B1F89EC8BFF8B6
:10446E009FC8C0F8B9EC1CF000C0ADF80050FF0AB0
:10447E0004E1FF0E006E54EF28F0010E0801B05D4E
:10448E00006E000EB159016E00509E25E96E01506E
:10449E009F21EA6EEE502E0A10E0010EB05D006E06
:1044AE00000EB159016E00509E25E96E01509F21FC
:1044BE00EA6EEE50200A01E015D0800E006E800EDE
:1044CE00B119005C02E1B05100080CE2B0519E251A
:1044DE00E16EB1519F21E26EE66A010EB05F000EF1
:1044EE00B15BCBD7000EB11902E1000EB01904E199
:1044FE00FF0E006E54EF28F0000EADBFFF0E006EE3
:10450E00000E001802E1000EAD190BE0000EADBF5B
:10451E00FF0E006E000E001802E1020EAD1901E052
:10452E008BD0A86BA76B080EA75D2DE2A8519E2518
:10453E00E96E000E9F21EA6EEE502E0A0AE0A85197
:10454E009E25E96E000E9F21EA6EEE50000A01E0F4
:10455E0001D019D0A751A025B26F000EA121B36FC3
:10456E00A8519E25E96E000E9F21EA6EEECFE0F86F
:10457E0030EC0EF0B2C8E1FFB3C8E2FF00C0E6FFB8
:10458E00A82BA72BD0D7A8519E25E96E000E9F21F0
:10459E00EA6EEE50000A0AE1A0C8BFF8A1C8C0F842
:1045AE00C16BC26B80EC1EF054EF28F00801A851CD
:1045BE009E25E96E000E9F21EA6EEE502E0A02E154
:1045CE00A82B07D0E20E0201A46FFF0E006E54EF6F
:1045DE0028F0080E0801A76F0B0EA75D23E2A85165
:1045EE009E25E96E000E9F21EA6EEE50000A01E153
:1045FE0019D0A751A025B26F000EA121B36FA851FB
:10460E009E25E96E000E9F21EA6EEECFE0F830ECAB
:10461E000EF0B2C8E1FFB3C8E2FF00C0E6FFA82B60
:10462E00A72BDAD7A0C8BFF8A1C8C0F8C16BC26B60
:10463E0080EC1EF054EF28F0000E0801ADBFFF0E07
:10464E00006E000E001802E1010EAD19D8A451EF54
:10465E0028F0B0C8AAF8010EB05DAB6F000EB159CC
:10466E00AC6FAB519E25E96EAC519F21EA6EEE50B8
:10467E002E0A0EE0800E006E800EAC19005C02E178
:10468E00AB51000805E2010EAB5F000EAC5BE9D743
:10469E00800E006E800EAC19005C02E1AB5100087A
:1046AE004DE2ABC8AAF8AB4BAC2B080EA76F0B0EA6
:1046BE00A75D44E2AB519E25E96EAC519F21EA6E97
:1046CE00EE50000A3BE0AB519E25E96EAC519F21A6
:1046DE00EA6EEECFF2F846EC09F0005219E108014D
:1046EE00A751A025B26F000EA121B36FAB519E252D
:1046FE00E96EAC519F21EA6EEECFE0F830EC0EF091
:10470E00B2C8E1FFB3C8E2FF00C0E6FFA72B13D08B
:10471E000801AB519E25E96EAC519F21EA6EEE5019
:10472E00200A09E0A751A025E16E000EA121E26E3C
:10473E005F0EE66EA72BAB4BAC2BB9D7AAC8ABF866
:10474E00000EAC6FA86BA76B080EA75D56E2A851C2
:10475E009E25E96E000E9F21EA6EEE50000A01E1E1
:10476E004CD0000EAC1902E1AB51A81901E145D0B5
:10477E00A8519E25E96E000E9F21EA6EEE502E0A7C
:10478E000AE0A8519E25E96E000E9F21EA6EEE50BA
:10479E00200A01E001D02FD0A8519E25E96E000E0F
:1047AE009F21EA6EEECFF2F846EC09F0005219E1C5
:1047BE000801A751A025B26F000EA121B36FA85119
:1047CE009E25E96E000E9F21EA6EEECFE0F830ECEA
:1047DE000EF0B2C8E1FFB3C8E2FF00C0E6FFA72BA0
:1047EE000AD00801A751A025E16E000EA121E26EAC
:1047FE005F0EE66EA72BA82BA7D7010EAE6F060E87
:10480E00A75D03E2A7C8A2F802D0060EA26FA2C847
:10481E00AAF8A251A025E16E000EA121E26E7E0E35
:10482E00E66E010EA96FA95109083BE3AE51000ACD
:10483E0038E0AA51010F006E016A000E01220050ED
:10484E00A025E16E0150A121E26E300EA925006E69
:10485E0000C0E6FFA0C8BFF8A1C8C0F8C16BC26B0C
:10486E0080EC1EF000C0AEF80050FF0A04E1FF0E0F
:10487E00006E54EF28F00801AE51010A0FE19EC8F8
:10488E00BFF89FC8C0F8B4EC1FF000C0AFF80050DE
:10489E00000A04E0AFC800F054EF28F00801A92B7D
:1048AE00C2D7AE51000AD8B475D0050EA75D03E28B
:1048BE00A7C8A3F802D0050EA36FA3C8AAF8A351E8
:1048CE00A025E16E000EA121E26E7E0EE66E0A0EAE
:1048DE00A96FA95163085EE3AE51000A5BE0AA51CD
:1048EE00010F006E016A000E01220050A025B26F6A
:1048FE000150A121B36F0A0E046EA9C800F071EC2D
:10490E001EF0300E0026B2C8E1FFB3C8E2FF00C0B1
:10491E00E6FF020EAA25006E016A000E012200506B
:10492E00A025B26F0150A121B36F0A0E046EA9C863
:10493E0000F071EC1EF008C000F0300E0026B2C878
:10494E00E1FFB3C8E2FF00C0E6FFA0C8BFF8A1C8F0
:10495E00C0F8C16BC26B80EC1EF000C0AEF8005008
:10496E00FF0A03E1FF0E006E98D30801AE51010A53
:10497E000EE19EC8BFF89FC8C0F8B4EC1FF000C08F
:10498E00AFF80050000A03E0AFC800F086D308016C
:10499E00A92B9FD7AE51000AD8B49DD0040EA75DA7
:1049AE0003E2A7C8A4F802D0040EA46FA4C8AAF804
:1049BE00A451A025E16E000EA121E26E7E0EE66EE0
:1049CE00640EA96F800E030A006E800E005C02E179
:1049DE00A951E708D8A07FD0AE51000AD8B47BD039
:1049EE00AA51010F006E016A000E01220050A0258F
:1049FE00B26F0150A121B36F640E046EA9C800F00E
:104A0E0071EC1EF0300E0026B2C8E1FFB3C8E2FF13
:104A1E0000C0E6FF020EAA25006E016A000E0122FA
:104A2E000050A025B26F0150A121B36F0A0E046E83
:104A3E00A9C800F071EC1EF00A0E046E71EC1EF0A7
:104A4E0008C000F0300E0026B2C8E1FFB3C8E2FF86
:104A5E0000C0E6FF030EAA25006E016A000E0122B9
:104A6E000050A025B26F0150A121B36F0A0E046E43
:104A7E00A9C800F071EC1EF008C000F0300E002640
:104A8E00B2C8E1FFB3C8E2FF00C0E6FFA0C8BFF89E
:104A9E00A1C8C0F8C16BC26B80EC1EF000C0AEF8AE
:104AAE000050FF0A03E1FF0E006EF7D20801AE516F
:104ABE00010A0EE19EC8BFF89FC8C0F8B4EC1FF003
:104ACE0000C0AFF80050000A03E0AFC800F0E5D216
:104ADE000801A92B77D7AE51000AD8B4C2D0030E65
:104AEE00A75D03E2A7C8A5F802D0030EA56FA5C85F
:104AFE00AAF8A551A025E16E000EA121E26E7E0E50
:104B0E00E66EE80EA96F800E270A006E800E005C1E
:104B1E0002E1A9510F08D8A0A4D0AE51000AD8B412
:104B2E00A0D0AA51010F006E016A000E01220050A2
:104B3E00A025B26F0150A121B36FE80E046E030ED3
:104B4E00056EA9C800F0000E016E0DEC1CF0300EC3
:104B5E000026B2C8E1FFB3C8E2FF00C0E6FF020EB6
:104B6E000801AA25006E016A000E01220050A02540
:104B7E00B26F0150A121B36F640E046EA9C800F08C
:104B8E0071EC1EF00A0E046E71EC1EF008C000F0FF
:104B9E00300E0026B2C8E1FFB3C8E2FF00C0E6FF48
:104BAE00030EAA25006E016A000E01220050A025F8
:104BBE00B26F0150A121B36F0A0E046EA9C800F0A6
:104BCE0071EC1EF00A0E046E71EC1EF008C000F0BF
:104BDE00300E0026B2C8E1FFB3C8E2FF00C0E6FF08
:104BEE00040EAA25006E016A000E01220050A025B7
:104BFE00B26F0150A121B36F0A0E046EA9C800F066
:104C0E0071EC1EF008C000F0300E0026B2C8E1FFB5
:104C1E00B3C8E2FF00C0E6FFA0C8BFF8A1C8C0F845
:104C2E00C16BC26B80EC1EF000C0AEF80050FF0AE4
:104C3E0003E1FF0E006E31D20801AE51010A0EE102
:104C4E009EC8BFF89FC8C0F8B4EC1FF000C0AFF804
:104C5E000050000A03E0AFC800F01FD20801A92BD4
:104C6E0052D7AE51000AD8B4F1D0020EA75D03E2BE
:104C7E00A7C8A6F802D0020EA66FA6C8AAF8A6511B
:104C8E00A025E16E000EA121E26E7E0EE66E100EE4
:104C9E00A96F800E000A006E800E005C08E1000E07
:104CAE00010805E1000E860802E1A9519F08D8A06F
:104CBE00CDD0AE51000AD8B4C9D0AA51010F006EA2
:104CCE00016A000E01220050A025B26F0150A121F1
:104CDE00B36F100E046E270E056EA9C800F0000EFD
:104CEE00016E0DEC1CF0300E0026B2C8E1FFB3C809
:104CFE00E2FF00C0E6FF020E0801AA25006E016A5F
:104D0E00000E01220050A025B26F0150A121B36FF9
:104D1E00E80E046E030E056EA9C800F0000E016EBB
:104D2E000DEC1CF00A0E046E000E056E0DEC1CF060
:104D3E0008C000F009C001F0300E0026B2C8E1FF35
:104D4E00B3C8E2FF00C0E6FF030E0801AA25006EFD
:104D5E00016A000E01220050A025B26F0150A12160
:104D6E00B36F640E046EA9C800F071EC1EF00A0E4B
:104D7E00046E71EC1EF008C000F0300E0026B2C8B2
:104D8E00E1FFB3C8E2FF00C0E6FF040EAA25006EE5
:104D9E00016A000E01220050A025B26F0150A12120
:104DAE00B36F0A0E046EA9C800F071EC1EF00A0E65
:104DBE00046E71EC1EF008C000F0300E0026B2C872
:104DCE00E1FFB3C8E2FF00C0E6FF050EAA25006EA4
:104DDE00016A000E01220050A025B26F0150A121E0
:104DEE00B36F0A0E046EA9C800F071EC1EF008C075
:104DFE0000F0300E0026B2C8E1FFB3C8E2FF00C0DB
:104E0E00E6FFA0C8BFF8A1C8C0F8C16BC26B80ECAA
:104E1E001EF000C0AEF80050FF0A03E1FF0E006E58
:104E2E003CD10801AE51010A0EE19EC8BFF89FC8E1
:104E3E00C0F8B4EC1FF000C0AFF80050000A03E059
:104E4E00AFC800F02AD10801A92B23D7AE51000A12
:104E5E00D8B416D1010EA025E16E000EA121E26E8E
:104E6E007E0EE66EA00EA96F800E000A006E800EFA
:104E7E00005C08E1000E0F0805E1000E420802E199
:104E8E00A9513F08D8A0FCD0AE51000AD8B4F8D032
:104E9E00020EAA25006E016A000E01220050A02506
:104EAE00B26F0150A121B36FA00E046E860E056E77
:104EBE00010E066E000E076EA9C800F0000E016E00
:104ECE00026E036EC2EC1DF0300E0026B2C8E1FF7A
:104EDE00B3C8E2FF00C0E6FF030E0801AA25006E6C
:104EEE00016A000E01220050A025B26F0150A121CF
:104EFE00B36F100E046E270E056EA9C800F0000EDB
:104F0E00016E0DEC1CF00A0E046E000E056E0DEC1B
:104F1E001CF008C000F009C001F0300E0026B2C827
:104F2E00E1FFB3C8E2FF00C0E6FF040E0801AA25A8
:104F3E00006E016A000E01220050A025B26F0150D2
:104F4E00A121B36FE80E046E030E056EA9C800F022
:104F5E00000E016E0DEC1CF00A0E046E000E056EB6
:104F6E000DEC1CF008C000F009C001F0300E002658
:104F7E00B2C8E1FFB3C8E2FF00C0E6FF050E0801AC
:104F8E00AA25006E016A000E01220050A025B26F04
:104F9E000150A121B36F640E046EA9C800F071EC2C
:104FAE001EF00A0E046E71EC1EF008C000F0300EFA
:104FBE000026B2C8E1FFB3C8E2FF00C0E6FF060E4E
:104FCE00AA25006E016A000E01220050A025B26FC4
:104FDE000150A121B36F0A0E046EA9C800F071EC46
:104FEE001EF00A0E046E71EC1EF008C000F0300EBA
:104FFE000026B2C8E1FFB3C8E2FF00C0E6FF070E0D
:10500E00AA25006E016A000E01220050A025B26F83
:10501E000150A121B36F0A0E046EA9C800F071EC05
:10502E001EF008C000F0300E0026B2C8E1FFB3C873
:10503E00E2FF00C0E6FFA0C8BFF8A1C8C0F8C16B70
:10504E00C26B80EC1EF000C0AEF80050FF0A03E108
:10505E00FF0E006E22D00801AE51010A0EE19EC86D
:10506E00BFF89FC8C0F8B4EC1FF000C0AFF80050F6
:10507E00000A03E0AFC800F010D00801A92BF4D647
:10508E00AE51000A06E0BF0E0201A46FFF0E006EC5
:0C509E0004D003D0FF0E006E00D0120002
:1050AA009EC8E9FF9FC8EAFFEE50000A06E1C40E57
:1050BA000201A46FFF0E006EB6D0A5C2A2F8A6C266
:1050CA00A3F8A7C2A4F8A8C2A5F80401B36BB46BED
:1050DA00B56BB66B0801AB6BA0C8BFF8A1C8C0F826
:1050EA0004EC18F00050010AD8A494D0FF0E08016D
:1050FA00A025E96E000EA121EA6E3F0EEE14016EA4
:10510A0001500F0A03E1010EAB6FE6D7010E04014D
:10511A00B35F000EB45BB55BB65B0801AB533BE013
:10512A009EC8BFF89FC8C0F8B4EC1FF000C0AAF828
:10513A000050FF0A03E1FF0E006E75D00801AA5164
:10514A00010A28E1A5C234F9A6C235F9A7C236F97F
:10515A00A8C237F9B3C438F9B4C439F9B5C43AF9AD
:10516A00B6C43BF9A60E09013C6F080E3D6F4BEC25
:10517A0006F00050000A03E0FF0E006E54D0A2C8E9
:10518A00A5F2A3C8A6F2A4C8A7F2A5C8A8F2010E60
:10519A00006E49D035D0A0C8BFF8A1C8C0F89EC8D3
:1051AA00C1F89FC8C2F871EC1CF00050010A28E14E
:1051BA00A5C234F9A6C235F9A7C236F9A8C237F989
:1051CA00B3C438F9B4C439F9B5C43AF9B6C43BF929
:1051DA00A60E09013C6F080E3D6F4BEC06F000501D
:1051EA00000A03E0FF0E006E1ED0A2C8A5F2A3C8F3
:1051FA00A6F2A4C8A7F2A5C8A8F2010E006E13D0A1
:10520A00010E0401B327000EB423B523B623080107
:10521A00AB6B62D7A2C8A5F2A3C8A6F2A4C8A7F22C
:08522A00A5C8A8F2006A1200F9
:105232006C0E0801F26F050EF36FF46B070EF56F3B
:10524200000EF66F27EC0BF09C0EF26F060EF36F5A
:10525200F46B070EF56F000EF66F27EC0BF0A30E42
:10526200F26F060EF36FF46B070EF56F000EF66F1A
:1052720027EC0BF0B70EF26F040EF36FF46B300EE7
:10528200F56F000EF66F27EC0BF0A90EF26F020E0F
:10529200F36FF46B040EF56F020EF66F27EC0BF052
:1052A200B00EF26F060EF36FF46B040E006E000E7A
:1052B200016E1A0E0002F3CFF5F8F4CFF6F827ECE0
:1052C2000BF05D0EF26F050EF36FF46B0C0EF56FC3
:1052D200000EF66F27EC0BF0FF0E0201A96FFF0E16
:1052E200AA6FFF0EAB6FFF0EAC6FAD0E0401B16F74
:1052F200040EB26F0701216B0601AF6B0401E76B6D
:10530200E86BE96BEA6B0201A56BA66BA76BA86B56
:105312000401B36BB46BB56BB66B0701226B430E22
:0A53220005015D6F0201A46B12008B
:10532C0019EC17F0000E001803E0FF0E006E01D010
:04533C00006A1200F1
:0E534000ACB202D00000FCD79EC8ADFF120038
:10534E00800E08019E19006E800E000A005C0CE3B0
:10535E00800E9EBF7F0E006E000E800A005C02E182
:10536E00040E9E5D01E206D0D80E0201A46FFF0E60
:10537E00006E67D11A0E006E000E016E9EC804F00C
:10538E00000E08019EBFFF0E056E42EC05F0B00E3A
:10539E000026060E012200C0A7F801C0A8F8180EBC
:1053AE000024E96E000E0120EA6EEE50000A06E1BE
:1053BE00DC0E0201A46FFF0E006E43D1140E080125
:1053CE00A725D96E000EA821DA6EDECF01F0DECF52
:1053DE0002F0DECF03F0DECF04F0A251045C08E150
:1053EE00A151035C05E1A051025C02E19F51015CF9
:1053FE0006E2DB0E0201A46FFF0E006E22D1100E2C
:10540E000801A725E96E000EA821EA6EEECF01F085
:10541E00EECF02F0EECF03F0EECF04F00450A2195F
:10542E0008E10350A11905E10250A01902E1015053
:10543E009F1902E1006A05D1100EA725E96E000E34
:10544E00A821EA6EEECF01F0EECF02F0EECF03F020
:10545E00EECF04F018C700F001C005F002C006F050
:10546E0003C007F004C008F0005007E0083207320E
:10547E0006320532089EFF0FF8D718C700F09FC8F6
:10548E0001F0A0C802F0A1C803F0A2C804F00050B9
:10549E0007E00432033202320132049EFF0FF8D7C6
:1054AE000850041808E10750031805E106500218C9
:1054BE0002E10550011811E10801100EA725E16E59
:1054CE00000EA821E26E9FC8E6FFA0C8E6FFA1C8A5
:1054DE00E6FFA2C8E6FF006AB4D00801100EA725A9
:1054EE00E16E000EA821E26E9FC8E6FFA0C8E6FF9F
:1054FE00A1C8E6FFA2C8E6FF100EA725E96E000EB2
:10550E00A821EA6EEECF01F0EECF02F0EECF03F05F
:10551E00EECF04F018C700F001C0A3F802C0A4F843
:10552E0003C0A5F804C0A6F8005007E0A633A533C3
:10553E00A433A333A69FFF0FF8D7040EA725E16E61
:10554E00000EA821E26EA7C8E9FFA8C8EAFFEECFB9
:10555E0000F0EECF01F0EECF02F0EECF03F000C080
:10556E00E6FF01C0E6FF02C0E6FF03C0E6FFA6515C
:10557E00000808E1A551000805E1A451000802E168
:10558E00A35100085DE2040EA725A96F000EA82105
:10559E00AA6FA9C8E9FFAAC8EAFFEECF5FF9EECF5E
:1055AE0060F9EECF61F9EECF62F992EC02F0A9C884
:1055BE00E1FFAAC8E2FF00C0E6FF01C0E6FF02C09D
:1055CE00E6FF03C0E6FF040E0801A725D96E000E04
:1055DE00A821DA6EDECF01F0DECF02F0DECF03F0CF
:1055EE00DECF04F00F0E041808E1FF0E031805E1DC
:1055FE00FF0E021802E1FF0E01181AE1100EA72588
:10560E00E16E000EA821E26E140EA725E96E000EC3
:10561E00A821EA6EEECFE6FFEECFE6FFEECFE6FF75
:10562E00EECFE6FFDB0E0201A46FFF0E006E09D077
:10563E00010E0801A35F000EA45BA55BA65B97D7C6
:04564E00006A1200DC
:105652001C0E08019E25E16E000E9F21E26EA0C87D
:10566200E6FF1C0E9E25006E000E9F21016E010EAC
:105672000024E16E000E0120E26EA1C8E6FF1C0EBE
:105682009E25006E000E9F21016E020E0024E16E27
:10569200000E0120E26EA2C8E6FF1C0E9E25006EDF
:1056A200000E9F21016E030E0024E16E000E012008
:0A56B200E26EA3C8E6FF006A1200D2
:1056BC0095EC12F0AD0E08019E6F020E9F6FAD0EB1
:1056CC00A06F020EA16F0201A451FF0A03E1FF0EAD
:1056DC00006EA3D0A451FC0A03E1FF0E006E9DD016
:1056EC00A451000AD8A494D0300E08019E25F26F64
:1056FC00000E9F21F36F45EC0BF000500401B9250F
:10570C000901636F01500401BA210901646F000E95
:10571C000401BB210901656F000E0401BC210901C4
:10572C00666FD6EC01F00050000A03E0FF0E006E2D
:10573C0074D0AD0E0801A06F020EA16FFE0EA02555
:10574C00F26F010EA121F36F45EC0BF00150AA0A88
:10575C0002E1550E001806E0FC0E0201A46FFF0ECC
:10576C00006E5BD0A0C8F2F8A1C8F3F8B9EC08F051
:10577C000350410A08E10250610A05E10150520A46
:10578C0002E10050520A06E0FA0E0201A46FFF0E6D
:10579C00006E43D0E40E0801A025F26F010EA1218A
:1057AC00F36FB9EC08F00350610A08E10250410AAA
:1057BC0005E10150720A02E10050720A06E0FA0E8D
:1057CC000201A46FFF0E006E28D0E80E0801A02580
:1057DC00F26F010EA121F36FB9EC08F000C0DFF4F9
:1057EC0001C0E0F402C0E1F403C0E2F4EC0EA02529
:1057FC00F26F010EA121F36FB9EC08F000C0E3F4D5
:10580C0001C0E4F402C0E5F403C0E6F4006A05D07C
:0C581C00FA0E0201A46FFF0E006E1200D5
:105828009EC802F09FC803F0A0C8F6FFA1C8F7FF02
:10583800A2C8F8FF0900F5CF00F09EC8E1FF9FC895
:10584800E2FF00C0E6FFA0C8F6FFA1C8F7FFA2C8A4
:10585800F8FF0900F5CF01F00150000A01E109D075
:10586800010E0801A027000EA123A2239E4B9F2B07
:0C587800DBD702C000F003C001F01200FA
:105884009EC8E1FF9FC8E2FFA0C8E6FF006A1200BD
:105894000B0E08019E25E16E000E9F21E26EA0C84A
:0658A400E6FF006A12009D
:1058AA000D0E08019E25E16E000E9F21E26EA0C832
:0658BA00E6FF006A120087
:1058C000A30E0801F26F080EF36FFF0EF46F0D0EBA
:1058D000F56F000EF66F27EC0BF0A26B0D0EA25DBC
:1058E0001CE2A30EE16E080EE26EA251E126D8B0D2
:1058F000E22AA251A025E96E000EA121EA6EEECFA8
:10590000E6FFA251A025E96E000EA121EA6EEE503D
:10591000000A01E102D0A22BE1D7010E9E25E16E23
:10592000000E9F21E26EA3C8E6FF030E9E25E16EE6
:10593000000E9F21E26EA4C8E6FF050E9E25E16ED3
:10594000000E9F21E26EA5C8E6FF070E9E25E16EC0
:10595000000E9F21E26EA6C8E6FF090E9E25E16EAD
:10596000000E9F21E26EA7C8E6FF0E0E9E25E16E97
:10597000000E9F21E26EA8C8E6FF100E9E25E16E84
:10598000000E9F21E26EA9C8E6FF120E9E25E16E71
:10599000000E9F21E26EAAC8E6FF140E9E25E16E5E
:1059A000000E9F21E26EABC8E6FF160E9E25E16E4B
:1059B000000E9F21E26EACC8E6FF180E9E25E16E38
:1059C000000E9F21E26EADC8E6FF1C0E9E25E16E23
:1059D000000E9F21E26EAEC8E6FF1E0E9E25E16E10
:1059E000000E9F21E26EAFC8E6FFA251010F026ECA
:1059F000036A000E0322B7D0010E9E25006E000E32
:105A00009F21016E010E0024E16E000E0120E26E66
:105A1000FF0EE66E030E9E25006E000E9F21016EA6
:105A2000010E0024E16E000E0120E26EFF0EE66E14
:105A3000050E9E25006E000E9F21016E010E0024B2
