:1000000026EF41F00000000000EF00F000000000CB
:0A0010000000000000000000F3D71C
:10001C00B1C96FFF6DB002D00000FCD76FCF00F0FC
:02002C001200C0
:10002E00B1C9C9FFC7B002D00000FCD7C9CF00F0DC
:02003E001200AE
:10004000F250026EF29E0500FF6A0150FE6E0050F3
:08005000FD6E02BEF28E1200EB
:1000580083889FC5E1FFA0C5E2FFFF0EE66E9DC540
:0A00680000F09EC501F0E8DF120071
:10007200400E0901A825006E9FC5E1FFA0C5E2FF61
:1000820000C0E6FF9DC500F09EC501F0D8DF9FC508
:10009200E1FFA0C5E2FFACC9E6FF9DC500F09EC529
:1000A20001F0CDDF9FC5E1FFA0C5E2FFABC9E6FFCE
:1000B2009DC500F09EC501F0C2DF9FC5E1FFA0C54E
:1000C200E2FFAAC9E6FF9DC500F09EC501F0B7DFB9
:1000D2009FC5E1FFA0C5E2FFA9C9E6FF9DC500F0EB
:1000E2009EC501F0ACDF9FC5E1FFA0C5E2FFADC92F
:1000F200E6FF9DC500F09EC501F0A1DF0901AF6BCF
:10010200B06B9FC5E1FFA0C5E2FFFF0EE66E9DC585
:1001120000F09EC501F093DF00C0AEF90901AF4BBC
:10012200B02B800E0014016E0150000A07E0000E91
:10013200B05D02E1640EAF5D01E2E3D7AEC900F04B
:020142001200A9
:04014400839812008A
:100148009FC5E1FFA0C5E2FF4C0EE66E9DC500F01D
:100158009EC501F071DF9FC5E1FFA0C5E2FFE66A19
:100168009DC500F09EC501F067DF9FC5E1FFA0C5F2
:10017800E2FFE66A9DC500F09EC501F05DDF9FC500
:10018800E1FFA0C5E2FFE66A9DC500F09EC501F04B
:1001980053DF9FC5E1FFA0C5E2FFE66A9DC500F0F9
:1001A8009EC501F049DF9FC5E1FFA0C5E2FFFF0E34
:1001B800E66E9DC500F09EC501F03EDF0901A96B02
:1001C800AA6B9FC5E1FFA0C5E2FFFF0EE66E9DC5C5
:1001D80000F09EC501F030DF00C0A8F90901A94B65
:1001E800AA2B800E0014016E0150000A07E0000ED1
:1001F800AA5D02E1640EA95D01E2E3D7A8AF04D0CD
:1002080027DFA8C900F012D09FC5E1FFA0C5E2FF13
:10021800FF0EE66E9DC500F09EC501F00DDF00C023
:0E022800A8F90050000AF0E013DF006A12008F
:1002360086DF000E000A03E1040E0001EE1909E153
:100246009AC9A2F99BC9A3F99CC9A4F99DC9A5F9A4
:1002560014D0090E006E9AC9A2F99BC9A3F99CC9CC
:10026600A4F99DC9A5F9005008E00901A237A29199
:10027600A337A437A537FF0FF7D70901110EA86FCB
:10028600A2C9A9F9A3C9AAF9A4C9ABF9A5C9ACF928
:10029600FF0EAD6FEBDE005204E0DBDE010E006EFA
:1002A6004BD09FC5E1FFA0C5E2FFFF0EE66E9DC5E0
:1002B60000F09EC501F0C1DE0050FE0A01E0F1D754
:1002C6000901A06BA16B020EA15D02E1000EA05D0B
:1002D6001BE2A0519E25A66FA1519F21A76F9FC526
:1002E600E1FFA0C5E2FFFF0EE66E9DC500F09EC5CC
:1002F60001F0A3DEA6C9E1FFA7C9E2FF00C0E6FF41
:100306000901A04BA12BDFD79FC5E1FFA0C5E2FFE6
:10031600FF0EE66E9DC500F09EC501F08EDE9FC500
:10032600E1FFA0C5E2FFFF0EE66E9DC500F09EC58B
:0A03360001F083DE8EDE006A120083
:1003400003DF0050000A03E0FF0E006E01D0006AD8
:02035000120099
:1003520007013F51000A04E03F51020A01E002D0C6
:10036200006A0DD0ECDF000E001806E0FF0E02015D
:10037200C66FFF0E006E03D007013F6B006A1200CA
:1003820094C99AF995C99BF996C99CF997C99DF99F
:1003920098C99EF999C99FF94DDF0050000A03E000
:0A03A200FF0E006E01D0006A120089
:1003AC0007013F51030A20E1CEDF0050000A06E0AE
:1003BC00FF0E0201C66FFF0E006E5CD00201CA5127
:1003CC00090193190EE10201C9510901921909E1C0
:1003DC000201C8510901911904E10201C751090137
:1003EC00901902E1006A46D007013F51010A06E16B
:1003FC00FF0E0201C66FFF0E006E3CD00901935137
:10040C000201CA190EE1090192510201C91909E14F
:10041C00090191510201C81904E10901905102012D
:10042C00C71927E090C994F991C995F992C996F921
:10043C0093C997F9CB0E0901986F020E996F9BDF48
:10044C00000E00180EE0FF0E0201C76FFF0EC86F02
:10045C00FF0EC96FFF0ECA6FFF0EC66FFF0E006E48
:10046C0009D090C9C7F291C9C8F292C9C9F293C90F
:06047C00CAF2006A120042
:1004820009018C517A0806E3610E8C5D03E3010ECB
:08049200006E01D0006A1200A7
:10049A00026A110E025C17E2EB0E0224F66E850E5A
:1004AA00F76E000EF722000EF86E000EF822090011
:1004BA00F5CF01F0015009018C1903E1010E006E1C
:0A04CA0003D0022AE6D7006A1200F0
:1004D4009FC5E1FFA0C5E2FFFF0EE66E9DC500F0DB
:1004E4009EC501F0ABDD0050FE0A01E0F1D7120019
:1004F4008CC905F08DC906F08EC907F08FC908F0C4
:100504000401ED51055EEE51065AEF51075AF051C0
:10051400085A7BC504F005C000F006C001F007C00E
:1005240002F008C003F0045007E0003600900136E2
:1005340002360336FF0FF8D7F3510026F451012297
:0A054400F5510222F65103221200C5
:10054E0009018C51390806E3300E8C5D03E3010E70
:08055E00006E01D0006A1200DA
:1005660009018C515A0806E3410E8C5D03E3010E26
:08057600006E01D0006A1200C2
:10057E000401F05109018F5D0EE10401EF510901F3
:10058E008E5D09E10401EE5109018D5D04E1040166
:10059E00ED5109018C5D15E30501065109018F5DD1
:1005AE000EE10501055109018E5D09E105010451B8
:1005BE0009018D5D04E10501035109018C5D01E224
:1005CE000CD0F40E0201C66FFF0E006EFF0E016E10
:1005DE00FF0E026E0F0E036E64D0C8C600F08CC9FB
:1005EE0090F98DC991F98EC992F98FC993F900507E
:1005FE0008E009019333923391339033939FFF0FA9
:10060E00F7D70401E951090190270401EA510901C4
:10061E0091230401EB51090192230401EC510901CC
:10062E009323BDDE0050000A09E0FF0E006EFF0EA0
:10063E00016EFF0E026E0F0E036E33D0C9C600F0B0
:10064E00CAC601F0CBC602F0CCC603F0010E005EA6
:10065E00000E015A025A035A005009018C15046EFD
:10066E0001508D15056E02508E15066E03508F15B6
:10067E00076E04C000F005C001F000360090013690
:10068E00003600900136CB0E0024E96E020E0120DA
:10069E00EA6EEECF00F0EECF01F0EECF02F0EECF2D
:0406AE0003F0120043
:1006B20048DD000E000A03E1040E0001EE1909E113
:1006C20075C979F976C97AF977C97BF978C97CF95C
:1006D20014D0090E006E75C979F976C97AF977C90D
:1006E2007BF978C97CF9005008E0090179377991E2
:1006F2007A377B377C37FF0FF7D70901120EA86FC5
:1007020079C9A9F97AC9AAF97BC9ABF97CC9ACF94B
:10071200FF0EAD6FADDC005204E09DDC010E006EF9
:0607220001D0006A120084
:10072800D5DE0901776B786B020E785D02E1000E69
:10073800775D1BE277517525796F785176217A6F4D
:100748009FC5E1FFA0C5E2FFFF0EE66E9DC500F064
:100758009EC501F071DC79C9E1FF7AC9E2FF00C0EA
:10076800E6FF0901774B782BDFD79FC5E1FFA0C5CE
:10077800E2FFFF0EE66E9DC500F09EC501F05CDC51
:100788009FC5E1FFA0C5E2FFFF0EE66E9DC500F024
:080798009EC501F051DC1200C6
:1007A00077C904F078C905F075C902F076C903F07D
:1007B00079C900F07AC901F0010E0901795F000ED4
:1007C0007A5B005001100FE004C0E9FF05C0EAFFAA
:1007D00002C0E1FF03C0E2FFEECFE6FF024A032AB8
:1007E000044A052AE5D775C900F076C901F0120060
:1007F000090175515A0804E3410E755DD8B0758B37
:0608000075C900F01200B2
:1008060075C98CF9A1DE005211E175C98CF9A8DE13
:1008160000520CE175C98CF931DE005207E175C949
:100826008CF938DE005202E1006A02D0010E006E39
:020836001200AE
:10083800C7C287F9C8C288F9C9C289F9CAC28AF980
:1008480075C97FF976C980F977C981F978C982F9BC
:100858000401F0510901785D0EE10401EF5109012D
:10086800775D09E10401EE510901765D04E10401B7
:10087800ED510901755D15E3050106510901825D18
:100888000EE1050105510901815D09E105010451E8
:100898000901805D04E10501035109017F5D01E261
:1008A80006D0F40E0201C66FFF0E006ECED009010D
:1008B8008B6B88C500F079C901F07AC902F07BC951
:1008C80003F07CC904F0005007E00432033202321E
:1008D8000132049EFF0FF8D70450000809E10350C5
:1008E800000806E10250000803E1090101508B5D90
:1008F80055E27FC98CF980C98DF981C98EF982C901
:100908008FF939DE00C07FF901C080F902C081F992
:1009180003C082F903500F0A08E10250FF0A05E1FB
:100928000150FF0A02E10050FF0A06E1F10E020140
:10093800C66FFF0E006E89D00401F0510901825D77
:100948000EE10401EF510901815D09E10401EE5155
:100958000901805D04E10401ED5109017F5D15E3A2
:10096800050106510901825D0EE1050105510901E4
:10097800815D09E1050104510901805D04E105017A
:10098800035109017F5D01E206D0F40E0201C66F32
:10099800FF0E006E5AD009018B2B8BD70901CBC4EF
:1009A80000F0CCC401F0CDC402F0CEC403F0010EB7
:1009B800005E000E015A025A035A00507915836FDF
:1009C80001507A15846F02507B15856F03507C1592
:1009D800866F7FC98CF980C98DF981C98EF982C962
:1009E8008FF984DD89C508F083C904F084C905F04E
:1009F80085C906F086C907F0085007E007320632B5
:100A080005320432079EFF0FF8D77DC9E1FF7EC982
:100A1800E2FF04500024E66E05500120E66E065001
:100A28000220E66E07500320E66E87C990F988C950
:100A380091F989C992F98AC993F9B4DC0050000A7E
:0C0A480003E0FF0E006E01D0006A1200F7
:100A5400010E09016125E96E000E6221EA6E63C987
:100A6400E1FF64C9E2FFEECFE6FF010E6325E16E0C
:100A7400000E6421E26E030E6125E96E000E622110
:100A8400EA6EEECFE6FF020E6325E16E000E6421EE
:100A9400E26E050E6125E96E000E6221EA6EEECF6C
:100AA400E6FF030E6325E16E000E6421E26E070E7D
:100AB4006125E96E000E6221EA6EEECFE6FF040EB8
:100AC4006325E16E000E6421E26E090E6125E96E74
:100AD400000E6221EA6EEECFE6FF050E6325E16E9D
:100AE400000E6421E26E0E0E6125E96E000E622195
:100AF400EA6EEECFE6FF060E6325E16E000E64217A
:100B0400E26E100E6125E96E000E6221EA6EEECFF0
:100B1400E6FF070E6325E16E000E6421E26E120EFD
:100B24006125E96E000E6221EA6EEECFE6FF080E43
:100B34006325E16E000E6421E26E140E6125E96EF8
:100B4400000E6221EA6EEECFE6FF090E6325E16E28
:100B5400000E6421E26E160E6125E96E000E62211C
:100B6400EA6EEECFE6FF0A0E6325E16E000E642105
:100B7400E26E180E6125E96E000E6221EA6EEECF78
:100B8400E6FF0B0E6325E16E000E6421E26E1C0E7F
:100B94006125E96E000E6221EA6EEECFE6FF0C0ECF
:100BA4006325E16E000E6421E26E1E0E6125E96E7E
:0E0BB400000E6221EA6EEECFE6FF006A12002C
:100BC2000B6A0A6A096A00500402F4CF09F0F3CFF3
:100BD20008F001500502F4CF0BF0F3CF0AF00050F9
:100BE2000502F3500926F4500A22E86A0B2201504A
:100BF2000402F3500926F4500A22E86A0B2208C0C4
:100C020000F009C001F00AC002F00BC003F01200AC
:0E0C120061C975F962C976F986DD006A1200C3
:100C2000056A046A0B0E055C22E2010E0414016ED3
:100C3000070E006E01C003F0005004E0033603907D
:100C4000FF0FFBD7FE0E0414026E02C000F000324C
:100C5000009E00500310046E055009016125D96EF5
:100C6000000E6221DA6EDE500426052ADBD704C0AE
:040C700000F012007E
:100C740061C975F962C976F963C977F964C978F904
:100C840065C979F966C97AF967C97BF968C97CF9D4
:100C940069C97DF96AC97EF9CDDD0050000A03E017
:100CA400FF0E006E15D069C9E9FF6AC9EAFFEECFED
:100CB40090F9EECF91F9EECF92F9EECF93F9D6EC0D
:100CC40001F00050000A03E0FF0E006E01D0006A3C
:020CD40012000C
:100CD600A2EC00F0000E000A03E1040E0001EE197A
:100CE60009E161C969F962C96AF963C96BF964C93D
:100CF6006CF914D0090E006E61C969F962C96AF906
:100D060063C96BF964C96CF9005008E009016937D9
:100D160069916A376B376C37FF0FF7D70901180EE1
:100D2600A86F69C9A9F96AC9AAF96BC9ABF96CC9EF
:100D3600ACF9FF0EAD6F39EC00F0005205E02CEC7B
:100D460000F0010E006E95D09FC5E1FFA0C5E2FF41
:100D5600FF0EE66E9DC500F09EC501F020EC00F08A
:100D66009FC5E1FFA0C5E2FFFF0EE66E9DC500F040
:100D76009EC501F020EC00F09FC5E1FFA0C5E2FF93
:100D8600FE0EE66E9DC500F09EC501F020EC00F05B
:100D96000901676B686B6851010802E16751FF083A
:100DA60016E367516525E96E68516621EA6E9FC5AF
:100DB600E1FFA0C5E2FFEECFE6FF9DC500F09EC5B0
:100DC60001F020EC00F00901674B682BE4D79FC5C2
:100DD600E1FFA0C5E2FFFF0EE66E9DC500F09EC5D1
:100DE60001F020EC00F09FC5E1FFA0C5E2FFFF0E79
:100DF600E66E9DC500F09EC501F020EC00F09FC593
:100E0600E1FFA0C5E2FFFF0EE66E9DC500F09EC5A0
:100E160001F020EC00F000C067F9000E0901686FD0
:100E26001F0E6715016E68C902F0000E021601C09A
:100E360067F902C068F9000E021802E1050E0118F2
:100E460005E02CEC00F0020E006E13D09FC5E1FF0A
:100E5600A0C5E2FFFF0EE66E9DC500F09EC501F03F
:100E660020EC00F00050FF0A01E0F0D72CEC00F077
:040E7600006A1200FC
:100E7A00680E0901756F090E766F61C977F962C943
:100E8A0078F90B0E796F000E7A6F85DC656B0B0EA5
:100E9A00655D3EE2676B680EE96E090EEA6E6551A2
:100EAA00E926D8B0EA2AEECF75F9A8DC0050010A83
:100EBA0003E1010E0901676F0901680EE96E090E67
:100ECA00EA6E6551E926D8B0EA2AEE50200A02E114
:100EDA00010E676F680EE96E090EEA6E6551E92622
:100EEA00D8B0EA2AEE502E0A02E1010E676F675166
:100EFA00000A0BE163C9E1FF64C9E2FFE66AC40EB6
:100F0A000201C66FFF0E006EB3D00901652BBFD771
:100F1A00666B656B080E655D42E2680EE96E090E46
:100F2A00EA6E6551E926D8B0EA2AEE50200A33E083
:100F3A000C0E6125E96E000E6221EA6EEECF01F019
:100F4A0001A618D066516325736F000E6421746F71
:100F5A00680EE96E090EEA6E6551E926D8B0EA2AEA
:100F6A00EECF75F940DC73C9E1FF74C9E2FF00C036
:100F7A00E6FF10D066516325E16E000E6421E26E31
:100F8A00680EE96E090EEA6E6551E926D8B0EA2ABA
:100F9A00EECFE6FF01D003D0662B652BBBD770518D
:100FAA00200A09E166516325E16E000E6421E26EB2
:100FBA00E66A006A5DD066516325E16E000E64211F
:100FCA00E26E2E0EE66E662B080E656F0B0E655DE1
:100FDA0046E2680EE96E090EEA6E6551E926D8B056
:100FEA00EA2AEECF75F90ADC0050000A01E137D08F
:100FFA000C0E09016125E96E000E6221EA6EEECF40
:10100A0001F001A819D066516325736F000E64219F
:10101A00746F680EE96E090EEA6E6551E926D8B05A
:10102A00EA2AEECF75F9F8EC03F073C9E1FF74C947
:10103A00E2FF00C0E6FF10D066516325E16E000EA4
:10104A006421E26E680EE96E090EEA6E6551E926C0
:10105A00D8B0EA2AEECFE6FF662B652BB7D709018F
:10106A0066516325E16E000E6421E26EE66A006A4B
:02107A00120062
:10107C0061C975F962C976F963C977F964C978F9F8
:10108C0059EC03F00050000A03E0FF0E006E01D093
:04109C00006A1200D4
:1010A00007013F51030A0BE1A9EC01F00050000ACF
:1010B00006E0FF0E0201C66FFF0E006E50D0070162
:1010C0003F51010A06E1FF0E0201C66FFF0E006EDE
:1010D00046D00201CA51090122190EE10201C9518B
:1010E0000901211909E10201C8510901201904E18E
:1010F0000201C75109011F1905E1020E07013F6FE7
:10110000006A2DD01FC961F920C962F921C963F9AC
:1011100022C964F9B3DF0050000A06E0FF0E0201A5
:10112000C66FFF0E006E1BD0CB0E0901616F020E61
:10113000626F6FDD0050000A06E0FF0E0201C66F0D
:10114000FF0E006E0CD0010E07013F6F1FC9C7F2E2
:1011500020C9C8F221C9C9F222C9CAF2006A120024
:10116000026A080E025C17E21D0E0224F66E860E5D
:10117000F76E000EF722000EF86E000EF82209003E
:10118000F5CF01F0015009011F1903E1010E006EB6
:0A11900003D0022AE6D7006A12001D
:10119A001FC961F920C962F921C963F922C964F931
:1011AA0023C965F924C966F991DD0050000A03E0F4
:0A11BA00FF0E006E01D0006A120063
:1011C4001FC902F020C903F022C900F023C901F0AD
:1011D400010E0901225F000E235B0050011009E09B
:1011E40002C0E1FF03C0E2FF21C9E6FF024A032A6D
:0C11F400EBD71FC900F020C901F0120069
:1012000021C961F922C962F923C963F924C964F9C2
:1012100025C965F926C966F927C967F928C968F992
:101220005D0E0901696F090E6A6F24DD0050000A26
:1012300003E0FF0E006E9CD13BC700F03CC701F0FD
:101240003DC702F03EC703F0010E005E000E015ADA
:10125000025A035A005009012515046E0150261543
:10126000056E02502715066E03502815076E050EF1
:10127000026E04C000F005C001F0025005E0003627
:1012800000900136FF0FFAD70901CB0E00245B6FE7
:10129000020E01205C6F010E296F080E295D0CE221
:1012A00029515B25E96E000E5C21EA6EEE507E0A44
:1012B00001E102D0292BF1D72951080A0AE15BC9C3
:1012C00061F95CC962F91FC963F920C964F9D5DD08
:1012D0004FD13B0E0901756F090E766F5BC977F927
:1012E0005CC978F9200E796F000E7A6FD0EC03F0AC
:1012F00021C961F922C962F923C963F924C964F9D2
:10130000010E255F000E265B275B285B25C965F96A
:1013100026C966F927C967F928C968F95D0E696F9A
:10132000090E6A6FA7DC0050000A03E0FF0E006E92
:101330001FD13BC700F03CC701F03DC702F03EC7DC
:1013400003F0010E005E000E015A025A035A0050CB
:1013500009012515046E01502615056E025027154A
:10136000066E03502815076E050E026E04C000F0CD
:1013700005C001F0025005E0003600900136FF0F75
:10138000FAD7CB0E0026020E012200C039F901C0A7
:101390003AF90B0E0024E96E000E0120EA6E3F0EB2
:1013A000EE14016E01500F0A0BE009013B0E616F54
:1013B000090E626F1FC963F920C964F95EDDD8D0D8
:1013C0003B0E0901616F090E626F2ADC00C02BF928
:1013D000010E09012A6F0B0E3925E96E000E3A2124
:1013E000EA6E3F0EEE14016E01500F0A06E0C00EC9
:1013F0000201C66FFF0E006EBBD00D0E090139252C
:10140000E96E000E3A21EA6EEE502B1906E0C10E8D
:101410000201C66FFF0E006EABD039C9E9FF3AC9B1
:10142000EAFFEECF00F01F0E0014016E015009011B
:101430002A1906E0C20E0201C66FFF0E006E98D098
:1014400039C961F93AC962F92C0E0901636F090EB5
:10145000646F2AEC05F0296B2A05006E016A000E04
:10146000015A0D0E046E000E056EE1EC05F02951D7
:101470000026000E012200501F25E16E01502021A0
:10148000E26E2C0EE96E090EEA6E2951E926D8B0FB
:10149000EA2AEECFE6FF292B0D0E295D0CE22C0E79
:1014A000E96E090EEA6E2951E926D8B0EA2AEE5013
:1014B000000A01E0D1D739C9E9FF3AC9EAFFEECF06
:1014C00001F001AC02D0006A53D02A2B21C961F986
:1014D00022C962F923C963F924C964F9010E255FA1
:1014E000000E265B275B285B25C965F926C966F9CE
:1014F00027C967F928C968F95D0E696F090E6A6F17
:101500003AEC06F00050000A03E0FF0E006E30D007
:101510003BC700F03CC701F03DC702F03EC703F0F7
:10152000010E005E000E015A025A035A00500901D2
:101530002515046E01502615056E02502715066EFE
:1015400003502815076E050E026E04C000F005C09A
:1015500001F0025005E0003600900136FF0FFAD787
:101560000901CB0E0024396F020E01203A6F33D7E8
:02157000120067
:0E1572001FC9E9FF20C9EAFFEECF00F012000A
:10158000010E09011F25E96E000E2021EA6EEECF43
:1015900003F0000E046E000E046E03C001F0006A3A
:1015A00000C003F001C004F01FC9D9FF20C9DAFF51
:1015B000DE500026000E012200C003F001C004F03E
:0A15C00000C003F001C004F01200A7
:1015CA00030E09011F25E96E000E2021EA6EEECFF7
:1015DA0009F0000E0A6E0B6E0C6E000E0A6E0B6E90
:1015EA000C6E0BC003F00AC002F009C001F0006AD9
:1015FA0000C009F001C00AF002C00BF003C00CF0F1
:10160A00020E1F25D96E000E2021DA6EDE5000244C
:10161A00056E000E0120066E000E0220076E000EF7
:10162A000320086E05C009F006C00AF007C00BF0D7
:10163A0008C00CF007C003F006C002F005C001F0B4
:10164A00006A00C009F001C00AF002C00BF003C032
:10165A000CF0010E1F25D96E000E2021DA6EDE5025
:10166A000024056E000E0120066E000E0220076E91
:10167A00000E0320086E05C009F006C00AF007C074
:10168A000BF008C00CF007C003F006C002F005C05A
:10169A0001F0006A00C009F001C00AF002C00BF0B4
:1016AA0003C00CF01FC9D9FF20C9DAFFDE5000269B
:1016BA00000E01220222032200C009F001C00AF032
:1016CA0002C00BF003C00CF000C009F001C00AF020
:0A16DA0002C00BF003C00CF0120078
:1016E4000901906B916B926B936BD6EC01F00050F7
:1016F400000A03E0FF0E006E2DD1CB0E09010D6F21
:10170400020E0E6FCB0E0F6F020E106FFE0E0D2524
:101714001F6F010E0E21206F31DF0150AA0A02E172
:10172400550E001806E0FC0E0201C66FFF0E006E97
:1017340011D10FC9E9FF10C9EAFFEECF01F0015042
:10174400E90A15E00FC9E9FF10C9EAFFEECF01F07D
:101754000150EB0A0BE1020E09010F25E96E000EA0
:101764001021EA6EEE50900A01E101D006D0FB0E82
:101774000201C66FFF0E006EEDD00801FF6B010E73
:10178400FF5DD8B0E6D00A0E006E000E016EFFC8F1
:1017940004F0000E056EE1EC05F0D30E0026040EF5
:1017A400012200C011F901C012F9BE0E09010D2574
:1017B4001F6F010E0E21206F040E026EFFC800F091
:1017C400000E016E025005E0003600900136FF0F56
:1017D400FAD7090100501F2701502023C8DE11C980
:1017E400E1FF12C9E2FF00C0E6FF0A0E006E000E20
:1017F400016EFFC804F0000E056EE1EC05F0D30E97
:101804000026040E0122010E0024116F000E012097
:10181400126FBE0E0D251F6F010E0E21206F040ED8
:10182400026EFFC800F0000E016E025005E00036A3
:1018340000900136FF0FFAD7090100501F2701500D
:101844002023040E1F27000E202391DE11C9E1FF7F
:1018540012C9E2FF00C0E6FF0A0E006E000E016E20
:10186400FFC804F0000E056EE1EC05F0D30E00266F
:10187400040E0122020E0024116F000E0120126FCB
:10188400BE0E0D251F6F010E0E21206F040E026E79
:10189400FFC800F0000E016E025005E00036009013
:1018A4000136FF0FFAD7090100501F2701502023EA
:1018B400080E1F27000E202386DE11C9E1FF12C97E
:1018C400E2FF00C0E6FF01C0E6FF02C0E6FF03C07E
:1018D400E6FF0A0E006E000E016EFFC804F0000E53
:1018E400056EE1EC05F0D30E0026040E0122060E6F
:1018F4000024116F000E0120126FBE0E0D251F6F04
:10190400010E0E21206F040E026EFFC800F0000EBF
:10191400016E025005E0003600900136FF0FFAD741
:10192400090100501F27015020230C0E1F27000E11
:10193400202349DE11C9E1FF12C9E2FF00C0E6FF1E
:1019440001C0E6FF02C0E6FF03C0E6FF0801FF2B6B
:0619540016D7006A120024
:10195A00010E066E000E076E086E096E056A800E8D
:10196A00006E800E000A005C02E1200E055C23E294
:10197A00065009010D11016E07500E11026E085032
:10198A000F11036E09501011046E0450091808E172
:10199A000350081805E10250071802E10150061821
:1019AA0003E105C000F009D006360690073608366E
:0C19BA000936052AD4D7FF0E006E12007B
:1019C60007013F51030A0BE1A9EC01F00050000AA0
:1019D60006E0FF0E0201C66FFF0E006E33D0070150
:1019E6003F51010A06E1FE0E0201C66FFF0E006EB0
:1019F60029D00DC91FF90EC920F90FC921F910C93F
:101A060022F9CB0E0901236F020E246FCDEC08F0EC
:101A1600000E00180EE0FF0E0201C76FFF0EC86F22
:101A2600FF0EC96FFF0ECA6FFE0EC66FFF0E006E69
:101A360009D00DC9C7F20EC9C8F20FC9C9F210C93B
:061A4600CAF2006A120062
:101A4C000E0E09010D251F6F000E0E21206F92DD69
:101A5C000B0E046E00C002F001C003F0045005E050
:101A6C0003320232039EFF0FFAD71F0E0214006ED0
:101A7C0000C0BEF60E0E0D251F6F000E0E21206F3E
:101A8C0079DD050E046E00C002F001C003F00450B5
:101A9C0005E003320232039EFF0FFAD73F0E021409
:101AAC00006E00C0BFF60E0E0D251F6F000E0E212E
:101ABC00206F60DD00C002F0023602903F0E02146F
:101ACC00006E00C0C0F6100E0D251F6F000E0E210B
:101ADC00206F50DD090E046E00C002F001C003F04F
:101AEC00045005E003320232039EFF0FFAD77F0E3B
:101AFC000214006E03C001F0000E011600C0BAF60D
:101B0C0001C0BBF6BC0E0026070E012200C0BAF6BF
:101B1C0001C0BBF6100E0D251F6F000E0E21206F9D
:101B2C0029DD050E046E00C002F001C003F0045064
:101B3C0005E003320232039EFF0FFAD70F0E021498
:101B4C00006E00C0BCF6100E0D251F6F000E0E218E
:101B5C00206F10DD1F0E0014006E00C0BDF6006A71
:021B6C00120065
:101B6E00FF0E09010F25196F000E10211A6F0B0EB3
:101B7E000D251F6F000E0E21206FF4DC19C9E1FF39
:101B8E001AC9E2FF00C0E6FF000E0F25196F010E05
:101B9E0010211A6F1C0E0D251F6F000E0E21206FC7
:101BAE000DDD19C9E1FF1AC9E2FF00C0E6FF01C051
:101BBE00E6FF02C0E6FF03C0E6FF040E0F251D6F11
:101BCE00010E10211E6F140E0D251F6F000E0E211B
:101BDE00206FCFDC00C003F001C004F0000E056ED4
:101BEE00066E04C01CF903C01BF9196B1A6B1A0E92
:101BFE000D251F6F000E0E21206FBBDC000E026E36
:101C0E00036E195100261A5101221B5102221C513A
:101C1E0003221DC9E1FF1EC9E2FF00C0E6FF01C09D
:101C2E00E6FF02C0E6FF03C0E6FF0B0E0D25E96ED0
:101C3E00000E0E21EA6E3F0EEE14016E01500F0AD9
:101C4E0028E00FC91FF910C920F9216BFF0E226F72
:101C5E00000E236FE2EC08F00FC91FF910C920F92E
:101C6E0011C921F912C922F913C923F914C924F98A
:101C7E0015C925F916C926F917C927F918C928F95A
:101C8E0000EC09F00050000A03E0FF0E006E07D0D2
:101C9E0005D00FC9E1FF10C9E2FFE66A006A120023
:101CAE0009010D6B0E6B270E0E5D02E1100E0D5D20
:101CBE00D8B0B4D0000E000A03E1000E0801FF19DF
:101CCE001AE1A2EC00F0010E0901A86FA96BAA6B34
:101CDE00AB6BAC6BFF0EAD6F39EC00F000C000F9D2
:101CEE002CEC00F009010051000A04E10001EE6B3A
:101CFE00006A96D08FD0A2EC00F0370E0901A86FC3
:101D0E00A96BAA6BAB6BAC6BFF0EAD6F39EC00F031
:101D1E0000C000F92CEC00F009010051010AD8A412
:101D2E0078D0A2EC00F0290EA86F000EA96F000E5D
:101D3E00AA6F000EAB6F400EAC6FFF0EAD6F39EC9D
:101D4E0000F000C000F92CEC00F009010051000A6F
:101D5E005FE1000E000A03E1020E0801FF1953E1D4
:101D6E00A2EC00F03A0E0901A86FA96BAA6BAB6B3F
:101D7E00AC6BFF0EAD6F39EC00F000C000F99FC5E3
:101D8E00E1FFA0C5E2FFFF0EE66E9DC500F09EC509
:101D9E0001F020EC00F000C00FF99FC5E1FFA0C5D7
:101DAE00E2FFFF0EE66E9DC500F09EC501F020EC31
:101DBE0000F09FC5E1FFA0C5E2FFFF0EE66E9DC5D8
:101DCE0000F09EC501F020EC00F09FC5E1FFA0C51C
:101DDE00E2FFFF0EE66E9DC500F09EC501F020EC01
:101DEE0000F02CEC00F009010051000A0BE10FADE0
:101DFE0004D0040E0001EE6F03D00001030EEE6F4F
:101E0E00006A0ED005D00001010EEE6F006A08D0F8
:101E1E0001D004D009010D4B0E2B45D7010E006EDB
:021E2E001200A0
:101E30000134083609360450085E0550D8A0053C28
:101E4000095E003601360F0E0C6E01340836093675
:101E5000045000A006D0085E0550D8A0053C095EDD
:101E600005D008260550D8B0053C092600360136B5
:101E70000C2EEBD700B006D0045008260550D8B081
:081E8000053C092600001200D8
:101E880011C901F012C902F0010E0901115F000E1B
:101E9800125B000E021802E1000E01181FE00DC9C6
:101EA800E9FF0EC9EAFF0FC9D9FF10C9DAFFEE50E2
:101EB800DE180FE00DC9E9FF0EC9EAFF0FC9D9FF07
:101EC80010C9DAFFDE50EE5C006E016A000E015A9E
:101ED80007D00D4B0E2B0F4B102BD2D7006A016A7F
:021EE8001200E6
:101EEA00FFC875F903EC04F0005208E1FFC81FF9B6
:101EFA00B0EC08F0005202E1006A02D0010E006E56
:021F0A001200C3
:101F0C000B1E0A1E091E081E082AD8B4092AD8B4AA
:081F1C000A2AD8B40B2A1200B6
:101F24000801FF517A0804E3610EFF5DD8B0FF9BFE
:061F3400FFC800F01200DE
:101F3A000DC902F00EC903F002C000F003C001F09F
:101F4A00024A032A00C0E9FF01C0EAFFEE5201E09B
:101F5A00F3D709010D51025C006E0E510358016E50
:0A1F6A00010E005E000E015A120085
:101F74000450085E0550D8A0053C095E0650D8A060
:101F8400063C0A5E0750D8A0073C0B5E0336070EDA
:101F94000C6E0334083609360A360B36045003A097
:101FA4000ED0085E0550D8A0053C095E0650D8A0A6
:101FB400063C0A5E0750D8A0073C0B5E0DD00826ED
:101FC4000550D8B0053C09260650D8B0063C0A2670
:101FD4000750D8B0073C0B2603360C2EDAD7023450
:101FE400083609360A360B36045003A00ED0085EB4
:101FF4000550D8A0053C095E0650D8A0063C0A5EF0
:102004000750D8A0073C0B5E0DD008260550D8B069
:10201400053C09260650D8B0063C0A260750D8B01D
:10202400073C0B260236070E0C6E023408360936BE
:102034000A360B36045002A00ED0085E0550D8A014
:10204400053C095E0650D8A0063C0A5E0750D8A09D
:10205400073C0B5E0DD008260550D8B0053C092678
:102064000650D8B0063C0A260750D8B0073C0B26C9
:1020740002360C2EDAD70134083609360A360B3606
:10208400045002A00ED0085E0550D8A0053C095E9D
:102094000650D8A0063C0A5E0750D8A0073C0B5E49
:1020A4000DD008260550D8B0053C09260650D8B0F6
:1020B400063C0A260750D8B0073C0B260136070E0B
:1020C4000C6E0134083609360A360B36045001A06A
:1020D4000ED0085E0550D8A0053C095E0650D8A075
:1020E400063C0A5E0750D8A0073C0B5E0DD00826BC
:1020F4000550D8B0053C09260650D8B0063C0A263F
:102104000750D8B0073C0B2601360C2EDAD7003422
:10211400083609360A360B36045001A00ED0085E84
:102124000550D8A0053C095E0650D8A0063C0A5EBE
:102134000750D8A0073C0B5E0DD008260550D8B038
:10214400053C09260650D8B0063C0A260750D8B0EC
:10215400073C0B260036070E0C6E00340836093691
:102164000A360B36045000A00ED0085E0550D8A0E5
:10217400053C095E0650D8A0063C0A5E0750D8A06C
:10218400073C0B5E0DD008260550D8B0053C092647
:102194000650D8B0063C0A260750D8B0073C0B2698
:1021A40000360C2EDAD700B00ED0045008260550A5
:1021B400D8B0053C09260650D8B0063C0A2607507C
:0821C400D8B0073C0B26120005
:1021CC00160E09010D251F6F000E0E21206FC0EC9D
:1021DC000AF00B0E046E00C002F001C003F00450B4
:1021EC0005E003320232039EFF0FFAD71F0E0214D2
:1021FC00006E00C0C5F6160E0D251F6F000E0E21C9
:10220C00206FC0EC0AF0050E046E00C002F001C095
:10221C0003F0045005E003320232039EFF0FFAD79D
:10222C003F0E0214006E00C0C6F6160E0D251F6F71
:10223C00000E0E21206FC0EC0AF000C002F0023636
:10224C0002903F0E0214006E00C0C7F6180E0D254A
:10225C001F6F000E0E21206FC0EC0AF0090E046EE9
:10226C0000C002F001C003F0045005E0033202325A
:10227C00039EFF0FFAD77F0E0214006E03C001F00D
:10228C00000E011600C0C1F601C0C2F6BC0E00263D
:10229C00070E012200C0C1F601C0C2F6180E0D25B2
:1022AC001F6F000E0E21206FC0EC0AF0050E046E9D
:1022BC0000C002F001C003F0045005E0033202320A
:1022CC00039EFF0FFAD70F0E0214006E00C0C3F668
:1022DC00180E0D251F6F000E0E21206FC0EC0AF09A
:0E22EC001F0E0014006E00C0C4F6006A12003F
:1022FA0007013F51020A17E1010E0201C725090130
:10230A001F6F000E0201C8210901206F000E020191
:10231A00C9210901216F000E0201CA210901226F98
:10232A0050EC08F030D007013F51000A06E1FF0ED9
:10233A000201C66FFF0E006E26D0CB0E0901616F37
:10234A00020E626F09EC06F00050000A06E0FF0E6A
:10235A000201C66FFF0E006E16D00201010EC725DC
:10236A00006E000EC821016E000EC921026E000E19
:10237A00CA21036E00C0C7F201C0C8F202C0C9F286
:08238A0003C0CAF2006A120050
:10239200050E0001EE6F95982CEC00F00801EA6B37
:1023A200EB6B000EEB5D02E10A0EEA5D10E29FC5E7
:1023B200E1FFA0C5E2FFFF0EE66E9DC500F09EC5DF
:1023C20001F020EC00F00801EA4BEB2BEAD7A2EC7B
:1023D20000F00901A86BA96BAA6BAB6BAC6B950EF5
:1023E200AD6F39EC00F000C0ECF82CEC00F0080105
:1023F200EC51010A03E0010E006E82D0A2EC00F063
:10240200080E0901A86FAA0EA96F010EAA6F000E8D
:10241200AB6FAC6F870EAD6F39EC00F000C0ECF81B
:102422009FC5E1FFA0C5E2FFFF0EE66E9DC500F06D
:102432009EC501F020EC00F09FC5E1FFA0C5E2FFC0
:10244200FF0EE66E9DC500F09EC501F020EC00F087
:102452009FC5E1FFA0C5E2FFFF0EE66E9DC500F03D
:102462009EC501F020EC00F09FC5E1FFA0C5E2FF90
:10247200FF0EE66E9DC500F09EC501F020EC00F057
:102482002CEC00F00801EC51010A09E0010EFF6F8B
:102492000DDC005203E00801FF6B08DC04D0020EE1
:1024A2000801FF6F03DC000E000A03E1050E0001C4
:1024B200EE1903E1020E006E23D0000E000A03E1C2
:1024C2000001040EEE191BE0A2EC00F0100E09014F
:1024D200A86F000EA96F020EAA6F000EAB6FAC6F51
:1024E200FF0EAD6F39EC00F000C0ECF82CEC00F000
:1024F2000801EC51000A03E0030E006E01D0006AED
:022502001200C5
:10250400FFC4EAF800C5EBF801C5ECF802C5EDF824
:102514000401F0510501025D0DE10401EF510501D3
:10252400015D08E10401EE510501005D03E10401D0
:10253400ED51FF5D15E3050106510801ED5D0EE166
:10254400050105510801EC5D09E10501045108018B
:10255400EB5D04E1050103510801EA5D01E208D0E5
:10256400EDC4EAF8EEC4EBF8EFC4ECF8F0C4EDF80F
:10257400EAC8EEF8EBC8EFF8ECC8F0F8EDC8F1F8EB
:10258400C8C604F0EAC800F0EBC801F0ECC802F0D9
:10259400EDC803F0045007E0033202320132003286
:1025A400039EFF0FF8D700500401E92509011F6FAE
:1025B40001500401EA210901206F02500401EB21BA
:1025C4000901216F03500401EC210901226FC9C6DE
:1025D40000F0CAC601F0CBC602F0CCC603F0010E6F
:1025E400005E000E015A025A035A00500801EA150F
:1025F400046E0150EB15056E0250EC15066E035087
:10260400ED15076E04C000F005C001F0003600901F
:102614000136003600900136CB0E0024F26F020E14
:102624000120F36F50EC08F00050000A09E0FF0E9F
:10263400006EFF0E016EFF0E026E0F0E036E6ED162
:102644000801F46BF2C8E9FFF3C8EAFFEECF01F02A
:10265400EECF02F0EECF03F0EECF04F00450000A08
:1026640008E10350000A05E10250000A02E10150AA
:10267400000A04E10801010EF46FC1D00801040E40
:10268400F227000EF323010EEA27000EEB23EC23BE
:10269400ED23050106510801ED5D0EE1050105512B
:1026A4000801EC5D09E1050104510801EB5D04E159
:1026B400050103510801EA5DD8A077D0EDC4EAF81A
:1026C400EEC4EBF8EFC4ECF8F0C4EDF8A9EC01F0BB
:1026D4000050000A09E0FF0E006EFF0E016EFF0EAF
:1026E400026E0F0E036E1AD1C8C604F0EAC800F0D9
:1026F400EBC801F0ECC802F0EDC803F0045007E0A9
:102704000332023201320032039EFF0FF8D7005029
:102714000401E92509011F6F01500401EA2109019F
:10272400206F02500401EB210901216F03500401C1
:10273400EC210901226FC9C600F0CAC601F0CBC65C
:1027440002F0CCC603F0010E005E000E015A025ADC
:10275400035A00500801EA15046E0150EB15056E8A
:102764000250EC15066E0350ED15076E04C000F020
:1027740005C001F0003600900136003600900136A5
:10278400CB0E0024F26F020E0120F36F50EC08F020
:102794000050000A09E0FF0E006EFF0E016EFF0EEE
:1027A400026E0F0E036EBAD01BD00801F35105015F
:1027B4007A1903E179510801F21912E10801CB0EEB
:1027C400F26F020EF36F97DD0050000A09E0FF0E6E
:1027D400006EFF0E016EFF0E026E0F0E036E9ED092
:1027E4000801ED51F11908E1EC51F01905E1EB5143
:1027F400EF1902E1EA51EE1901E101D023D7A9EC66
:1028040001F00050000A09E0FF0E006EFF0E016E99
:10281400FF0E026E0F0E036E81D00801F45309E11E
:10282400FF0E006EFF0E016EFF0E026E0F0E036EA2
:1028340075D0F2C8E1FFF3C8E2FFFF0EE66EFF0EAB
:10284400E66EFF0EE66E0F0EE66EC8C604F0EAC82A
:1028540000F0EBC801F0ECC802F0EDC803F004503E
:1028640007E00332023201320032039EFF0FF8D731
:1028740000500401E92509010D6F01500401EA210A
:1028840009010E6F02500401EB2109010F6F03507F
:102894000401EC210901106FE3EC0CF00050000A74
:1028A40007E0FF0E006EFF0E016E026E036E36D05F
:1028B4000401FE51FF0A08E1FD51FF0A05E1FC5144
:1028C400FF0A02E1FB51FF0A16E0FBC400F0FCC45E
:1028D40001F0FDC402F0FEC403F0010E005E000E20
:1028E400015A025A035A00C0FBF401C0FCF402C0AE
:1028F400FDF403C0FEF4EAC8FFF4EBC800F5ECC82D
:1029040001F5EDC802F5010E0601CD6FEAC800F02D
:0E291400EBC801F0ECC802F0EDC803F01200B1
:10292200160E0801EA25006E000EEB21016E010E63
:102932000024E16E000E0120E26E8EC500F000362A
:102942000090003600900036009000C0E6FF160EA0
:10295200EA25006E000EEB21016E010E0024026ECC
:10296200000E0120036E8FC500F00032009E00327F
:10297200009E0032009E02C0E9FF03C0EAFFEE5053
:10298200002602C0E1FF03C0E2FF00C0E6FF160E10
:10299200EA25E16E000EEB21E26E050E016E8FC597
:1029A20000F0015004E000360090FF0FFBD700C09A
:1029B200E6FF160EEA25026E000EEB21036E90C5AD
:1029C20000F00032009E02C0E9FF03C0EAFFEE50B1
:1029D200002602C0E1FF03C0E2FF00C0E6FF180EBE
:1029E200EA25006E000EEB21016E010E0024E16E5D
:1029F200000E0120E26EBC0E05018A5D026E02C06D
:102A020000F00036009000C0E6FF180E0801EA252B
:102A1200006E000EEB21016E010E0024026E000E0C
:102A22000120036E8CC500F00032009E0032009E31
:102A32000032009E02C0E9FF03C0EAFFEE5000260A
:102A420002C0E1FF03C0E2FF00C0E6FF180EEA2564
:102A5200E16E000EEB21E26E050E016E8CC500F0F8
:102A6200015004E000360090FF0FFBD700C0E6FFE4
:102A7200180EEA25016E000EEB21026E01C0E9FF7D
:102A820002C0EAFF05018D51EE24006E01C0E1FF94
:0C2A920002C0E2FF00C0E6FF006A120074
:102A9E000E0E0801EA25006E000EEB21016E010EEE
:102AAE000024E16E000E0120E26E8EC500F00036AD
:102ABE000090003600900036009000C0E6FF0E0E2B
:102ACE00EA25006E000EEB21016E010E0024026E4F
:102ADE00000E0120036E8FC500F00032009E003202
:102AEE00009E0032009E02C0E9FF03C0EAFFEE50D6
:102AFE00002602C0E1FF03C0E2FF00C0E6FF0E0E9B
:102B0E00EA25E16E000EEB21E26E050E016E8FC519
:102B1E0000F0015004E000360090FF0FFBD700C01C
:102B2E00E6FF0E0EEA25026E000EEB21036E90C537
:102B3E0000F00032009E02C0E9FF03C0EAFFEE5033
:102B4E00002602C0E1FF03C0E2FF00C0E6FF100E48
:102B5E00EA25006E000EEB21016E010E0024E16EDF
:102B6E00000E0120E26EBC0E05018A5D026E02C0EF
:102B7E0000F00036009000C0E6FF100E0801EA25B6
:102B8E00006E000EEB21016E010E0024026E000E8F
:102B9E000120036E8CC500F00032009E0032009EB4
:102BAE000032009E02C0E9FF03C0EAFFEE5000268D
:102BBE0002C0E1FF03C0E2FF00C0E6FF100EEA25EF
:102BCE00E16E000EEB21E26E050E016E8CC500F07B
:102BDE00015004E000360090FF0FFBD700C0E6FF67
:102BEE00100EEA25016E000EEB21026E01C0E9FF08
:102BFE0002C0EAFF05018D51EE24006E01C0E1FF17
:0C2C0E0002C0E2FF00C0E6FF006A1200F6
:102C1A0072EC0BF0CB0E0801EB6F020EEC6F0201A7
:102C2A00C651FF0A03E1FF0E006E9ED2C651FC0A8E
:102C3A0003E1FF0E006E98D2C651000AD8A469D0EB
:102C4A000F0E0401D415016E01C0EDF801500B0AF4
:102C5A000AE00801ED510C0A06E0F80E0201C66FFF
:102C6A00FF0E006E81D2D5C490F9D6C491F9D7C4AB
:102C7A0092F9D8C493F9D6EC01F00050000A03E0A7
:102C8A00FF0E006E71D2CB0E0801EB6F020EEC6FD5
:102C9A00FE0EEB2509011F6F010E0801EC21090147
:102CAA00206FC0EC0AF00150AA0A02E1550E001882
:102CBA0006E0FC0E0201C66FFF0E006E55D2EBC88D
:102CCA00E9FFECC8EAFFEECF01F00150E90A16E08D
:102CDA00EBC8E9FFECC8EAFFEECF01F00150EB0ABE
:102CEA000BE1020E0801EB25E96E000EEC21EA6EFB
:102CFA00EE50900A01E102D0006A02D0010E006E85
:102D0A00005206E1FB0E0201C66FFF0E006E2CD2C6
:102D1A0021D00201C651FB0A1DE1800E0401D36FC6
:102D2A00D56BD66BD76BD86B200E0801EB25090142
:102D3A001F6F000E0801EC210901206FE5EC0AF073
:102D4A0000C0D9F401C0DAF402C0DBF403C0DCF439
:102D5A000201C66B0201C651000AD8A400D20B0EAA
:102D6A000801EB2509011F6F000E0801EC2109017A
:102D7A00206FC0EC0AF000C0DDF401C0DEF40D0ED5
:102D8A000801EB2509011F6F000E0801EC2109015A
:102D9A00206FB9EC0AF000C0DFF40E0E0801EB2533
:102DAA0009011F6F000E0801EC210901206FC0EC18
:102DBA000AF000C0E0F401C0E1F4100E0801EB25AE
:102DCA0009011F6F000E0801EC210901206FB9ECFF
:102DDA000AF000C0E2F4240E0801EB2509011F6F76
:102DEA00000E0801EC210901206FE5EC0AF000C091
:102DFA00E3F401C0E4F402C0E5F403C0E6F4280EEB
:102E0A000801EB2509011F6F000E0801EC210901D9
:102E1A00206FC0EC0AF000C0E7F401C0E8F4040136
:102E2A00E051D525006EE151D621016E000ED72161
:102E3A00026E000ED821036E00C0E9F401C0EAF464
:102E4A0002C0EBF403C0ECF42C0E0801EB250901D7
:102E5A001F6F000E0801EC210901206FE5EC0AF052
:102E6A0000C0EDF401C0EEF402C0EFF403C0F0F4C8
:102E7A00110E0801EB2509011F6F000E0801EC2154
:102E8A000901206FC0EC0AF000C0F1F401C0F2F4AD
:102E9A00300E0801EB2509011F6F000E0801EC2115
:102EAA000901206FC0EC0AF0000E026E036E0401E5
:102EBA00D5510026D6510122D7510222D8510322D8
:102ECA0000C0F7F401C0F8F402C0F9F403C0FAF440
:102EDA00E9C4F3F4EAC4F4F4EBC4F5F4ECC4F6F48C
:102EEA000801EA6B0401E2510801EA5D18E20401F3
:102EFA00E351F325006EE451F421016EE551F52109
:102F0A00026EE651F621036E00C0F3F401C0F4F438
:102F1A0002C0F5F403C0F6F40801EA2BE3D7050E64
:102F2A00006EDDC43BF7DEC43CF7000E07013D6FBF
:102F3A003E6F005005E03C333B333C9FFF0FFAD70E
:102F4A00000E3D6F3E6FDDC4C9F6DEC4CAF6000E40
:102F5A000601CB6FCC6FCA33C933CA9FCA33C93390
:102F6A00CA9F000ECB6FCC6FDDC40DF9DEC40EF91B
:102F7A00000E09010F6F106FADEC0CF000C0A9F53F
:102F8A00DFC40DF9000E09010E6F0F6F106FADEC63
:102F9A000CF000C07BF53BC70DF93CC70EF93DC7E5
:102FAA000FF93EC710F9ADEC0CF000C089F5C9C69F
:102FBA000DF9CAC60EF9CBC60FF9CCC610F9ADEC9D
:102FCA000CF000C0C8F605017B51A925006E00C0AF
:102FDA0036F7010E0701376F000E386F000E396F92
:102FEA00000E3A6F005007E03737379138373937D4
:102FFA003A37FF0FF8D7200E09010D6F000E0E6F3A
:10300A000F6F106FADEC0CF000500701365D006ECB
:10301A00016A000E00BEFF0E015A00C004F0010E44
:10302A00006E000E016E000E026E000E036E04505A
:10303A0007E000360090013602360336FF0FF8D754
:10304A0000C0CBF401C0CCF402C0CDF403C0CEF46E
:10305A0000C00DF901C00EF902C00FF903C010F942
:10306A00ADEC0CF000C088F5EDC4BEF2EEC4BFF2C0
:10307A00EFC4C0F2F0C4C1F20401CF6BD06BD16BC4
:10308A00D26BF3C400F0F4C401F0F5C402F0F6C444
:10309A0003F0D551005ED651015AD751025AD85180
:1030AA00035AD9C403F5DAC404F5DBC405F5DCC454
:1030BA0006F500500501035F0150045B0250055BF1
:1030CA000350065B7BC500F0005007E0063305336A
:1030DA0004330333069FFF0FF8D7020E0327000EAF
:1030EA000423052306230401D45325E1000E050118
:1030FA00065D08E1000E055D05E1FF0E045D02E1D3
:10310A00F70E035D04E30B0E0401D46F14D0000E16
:10311A000501065D08E1000E055D05E10F0E045D7F
:10312A0002E1F70E035D04E3060E0401D46F03D037
:10313A000401010ED46F0F0ED415016E01C0EDF813
:10314A0001500B0A0AE00801ED510C0A06E0F80EDC
:10315A000201C66FFF0E006E07D0006A05D0020199
:0A316A00FB0EC66FFF0E006E120090
:103174000401D251FF0A08E1D151FF0A05E1D051FF
:10318400FF0A02E1CF51FF0A06E1F60E0201C66F03
:10319400FF0E006E8CD2BEC2ECF8BFC2EDF8C0C206
:1031A400EEF8C1C2EFF80401F0510201C15D0EE175
:1031B4000401EF510201C05D09E10401EE51020175
:1031C400BF5D04E10401ED510201BE5D15E305019B
:1031D40006510801EF5D0EE1050105510801EE5DA0
:1031E40009E1050104510801ED5D04E10501035104
:1031F4000801EC5D01E206D0F40E0201C66FFF0E79
:10320400006E55D20801F66B88C500F0CFC401F0FA
:10321400D0C402F0D1C403F0D2C404F0005007E0DB
:103224000432033202320132049EFF0FF8D70450F5
:10323400000809E10350000806E10250000803E118
:1032440008010150F65D56E2ECC88CF9EDC88DF921
:10325400EEC88EF9EFC88FF9BFEC02F000C0ECF8AD
:1032640001C0EDF802C0EEF803C0EFF803500F0AF6
:1032740008E10250FF0A05E10150FF0A02E1005093
:10328400FF0A06E1F10E0201C66FFF0E006E0FD2B7
:103294000401F0510801EF5D0EE10401EF51080152
:1032A400EE5D09E10401EE510801ED5D04E1040164
:1032B400ED510801EC5D15E3050106510801EF5DD0
:1032C4000EE1050105510801EE5D09E10501045116
:1032D4000801ED5D04E1050103510801EC5D01E223
:1032E40006D0F40E0201C66FFF0E006EE0D1080195
:1032F400F62B8AD7CBC400F0CCC401F0CDC402F0C5
:10330400CEC403F0010E005E000E015A025A035AA5
:1033140000500401CF150801F26F01500401D015CB
:103324000801F36F02500401D1150801F46F035032
:103334000401D2150801F56FECC88CF9EDC88DF9BC
:10334400EEC88EF9EFC88FF97AEC02F089C508F05F
:10335400F2C804F0F3C805F0F4C806F0F5C807F0A5
:10336400085007E00732063205320432079EFF0F89
:10337400F8D70450002409011F6F05500120206F65
:1033840006500220216F07500320226F3BC700F034
:103394003CC701F03DC702F03EC703F0010E005EDA
:1033A400000E015A025A035A00500801F215046E25
:1033B4000150F315056E0250F415066E0350F51511
:1033C400076E050E026E04C000F005C001F0025045
:1033D40005E0003600900136FF0FFAD70801CB0E46
:1033E4000024F06F020E0120F16F50EC08F0005041
:1033F400000A03E0FF0E006E5AD1F0C8E9FFF1C8DD
:10340400EAFFEECF01F00150E50A0AE0F0C8E9FF57
:10341400F1C8EAFFEECF01F0200E015C01E318D001
:10342400F0C8E9FFF1C8EAFFEECF01F0140E015C29
:103434000EE20B0E0801F025E96E000EF121EA6E92
:103444003F0EEE14016E01500F0A01E101D09DD030
:10345400A9EC01F00050000A03E0FF0E006E27D132
:103464000B0E0801F025E96E000EF121EA6EEECF95
:1034740001F001A633D0EAC81FF9EBC820F909010D
:10348400216B100E226F010E236FE2EC08F0FF0E89
:103494000801EA25F76F000EEB21F86F0B0EF025FB
:1034A40009011F6F000E0801F1210901206FB9EC19
:1034B4000AF0F7C8E1FFF8C8E2FF00C0E6FFEAC877
:1034C40075F9EBC876F9F0C877F9F1C878F90B0EFD
:1034D400796F000E7A6FD0EC03F04DD00801EA51F9
:1034E400EB1149E0F0C80DF9F1C80EF9EAC80FF97B
:1034F400EBC810F9BEC211F9BFC212F9C0C213F968
:10350400C1C214F9CFC415F9D0C416F9D1C417F93E
:10351400D2C418F9B7EC0DF00050000A03E0FF0E16
:10352400006EC5D0F0C80DF9F1C80EF926EC0DF007
:10353400F0C80DF9F1C80EF9E6EC10F0080E080118
:10354400EA25E16E010EEB21E26EBEC2E6FFBFC2C8
:10355400E6FFC0C2E6FFC1C2E6FF0C0EEA25E16E3B
:10356400010EEB21E26ECFC4E6FFD0C4E6FFD1C466
:10357400E6FFD2C4E6FF010E0401CF27000ED023DC
:10358400D123D223010E006E92D0010E0801F2273E
:10359400000EF323F423F523200EF025016E000E14
:1035A400F121026E01C0F0F802C0F1F8010E04012D
:1035B400CF27000ED023D123D223025005017A193C
:1035C40002E179510118D8A471D0CB0E0801F06F33
:1035D400020EF16FF5510401CE190EE10801F45108
:1035E4000401CD1909E10801F3510401CC1904E1E6
:1035F4000801F2510401CB1951E1A9EC01F000508A
:10360400000A03E0FF0E006E52D00801F26BF36B68
:10361400F46BF56BECC88CF9EDC88DF9EEC88EF936
:10362400EFC88FF9BFEC02F000C0ECF801C0EDF870
:1036340002C0EEF803C0EFF803500F0A08E102508D
:10364400FF0A05E10150FF0A02E10050FF0A0BE105
:10365400FF0E0401CF6FFF0ED06FFF0ED16FFF0E70
:10366400D26F006A24D0ECC88CF9EDC88DF9EEC88D
:103674008EF9EFC88FF97AEC02F000C01FF901C08F
:1036840020F902C021F903C022F950EC08F00050DF
:10369400000A03E0FF0E006E0AD008D07DEC11F0A2
:1036A4000050000A03E0FF0E006E01D0A6D61200FF
:1036B400C8C604F0EEC800F0EFC801F0F0C802F08C
:1036C400F1C803F0045007E0033202320132003241
:1036D400039EFF0FF8D700C0F3F801C0F4F802C04E
:1036E400F5F803C0F6F80401E9510024086EEA5124
:1036F4000120096EEB5102200A6EEC5103200B6E7F
:1037040008C0F3F809C0F4F80AC0F5F80BC0F6F8DD
:10371400C9C600F0CAC601F0CBC602F0CCC603F09D
:10372400010E005E000E015A025A035A00500801AD
:10373400EE15046E0150EF15056E0250F015066E7D
:103744000350F115076E04C000F005C001F0003607
:1037540000900136003600900136CB0E0024FB6F3A
:10376400020E0120FC6F08C090F909C091F90AC04B
:1037740092F90BC093F9D6EC01F00050000A03E073
:10378400FF0E006E46D0FBC8E1FFFCC8E2FFEAC8AA
:10379400E6FFEBC8E6FFECC8E6FFEDC8E6FFF3C8BA
:1037A400F7F8F4C8F8F8F5C8F9F8F6C8FAF8080113
:1037B400F26B0401E2510801F25D22E2F7C80DF94F
:1037C400F8C80EF9F9C80FF9FAC810F9E3EC0CF0CF
:1037D4000050000A03E0FF0E006E1BD00401E35109
:1037E4000801F7270401E4510801F8230401E55115
:1037F4000801F9230401E6510801FA23F22BD9D771
:10380400F3C8C7F2F4C8C8F2F5C8C9F2F6C8CAF2D8
:04381400006A120034
:103818001A0E0801EA25E16E000EEB21E26EECC8F3
:10382800E6FF1A0EEA25006E000EEB21016E010E6E
:103838000024E16E000E0120E26EEDC8E6FF140ED2
:10384800EA25E16E000EEB21E26EEEC8E6FF140EEB
:10385800EA25006E000EEB21016E010E0024E16ED8
:0E386800000E0120E26EEFC8E6FF006A1200BB
:10387600010E0801EE6FEF6BF06BF16BF26BF36B01
:10388600F46BEAC8E9FFEBC8EAFFEE50000A06E16E
:10389600C40E0201C66FFF0E006EF7D0EAC80DF91E
:1038A600EBC80EF99DEC0FF000C0EDF80801EC6BCB
:1038B600EAC80DF9EBC80EF99DEC0FF0800E026E0A
:1038C600800E0118025C03E100500801EC5D16E26F
:1038D6000801EC51EA25E96E000EEB21EA6EEECF07
:1038E600FFF875EC0FF0005206E1C30E0201C66F39
:1038F600FF0E006ECAD00801EC2BDAD70801ED05E1
:10390600006E000EEDBFFF0E016E000E015A005054
:10391600EA25E96E0150EB21EA6EEE502E0A02E12D
:10392600ED07ECD7800E000A006E800EED19005CE4
:1039360006E3E20E0201C66FFF0E006EA6D0EAC8CD
:103946000DF9EBC80EF99DEC0FF0800E0801EDBFE6
:103956007F0E026E800E0118025C02E10050ED5DE2
:1039660009E2ED51EA25E16E000EEDBFFF0EEB21F7
:10397600E26EE66AEC6B800E006E800EEDBF7F0E87
:10398600005C02E1ED51EC5D12E2EC51EA25E96ED4
:10399600000EEB21EA6EEECF1FF9B0EC08F00052F4
:1039A60003E0010E006E71D00801EC2BE4D7800E07
:1039B6000C0A006E800EED19005C03E2010E006E2B
:1039C60064D0EC6B800E006E800EEDBF7F0E005C47
:1039D60002E1ED51EC5D43E2EC51EA25E96E000EA1
:1039E600EB21EA6EEECF8CF941EC02F0005204E0D6
:1039F600010E0801EF6F2CD00801EC51EA25E96EA3
:103A0600000EEB21EA6EEECF8CF9B3EC02F0005219
:103A160004E0010E0801F06F1BD00801EC51EA2505
:103A2600E96E000EEB21EA6EEE502E0A11E1F2531A
:103A36000CE1EF5304E0F05302E0010EF16F010ECA
:103A4600F26FEE6BEF6BF06B08D0010E006E1DD0BF
:103A5600EE5302E0F32B01D0F42BEC2BB3D7EF534C
:103A660004E0F05302E0010EF16FF351080804E39D
:103A7600F451030801E303D0010E006E06D0F153A2
:0C3A860003E0020E006E01D0006A120086
:103A9200BEC2EEF8BFC2EFF8C0C2F0F8C1C2F1F880
:103AA2000401CF6BD06BD16BD26B0401F0510801D2
:103AB200F15D0EE10401EF510801F05D09E104013D
:103AC200EE510801EF5D04E10401ED510801EE5DE4
:103AD20015E3050106510801F15D0EE105010551ED
:103AE2000801F05D09E1050104510801EF5D04E1FF
:103AF200050103510801EE5D01E206D0F40E020158
:103B0200C66FFF0E006EF7D0CB0E0801F66F020EE5
:103B1200F76FEEC88CF9EFC88DF9F0C88EF9F1C8CD
:103B22008FF97AEC02F000C01FF901C020F902C03F
:103B320021F903C022F950EC08F00050000A03E01A
:103B4200FF0E006ED8D00801F26BF36BF46BF56BCD
:103B52000401CE510801F55D0EE10401CD510801C9
:103B6200F45D09E10401CC510801F35D04E10401B3
:103B7200CB510801F25DD8B095D0F75105017A1901
:103B820003E179510801F6190DE10801CB0EF66F38
:103B9200020EF76F7DEC11F00050000A03E0FF0EF9
:103BA200006EA9D0F6C80DF9F7C80EF9EAC80FF9E8
:103BB200EBC810F90B0E0901116F000E126F44ECE5
:103BC2000FF0000E011802E1000E001858E1A9ECF6
:103BD20001F00050000A03E0FF0E006E8CD00801D5
:103BE200EC51ED113DE0F6C80DF9F7C80EF9ECC83D
:103BF2000FF9EDC810F9BEC211F9BFC212F9C0C265
:103C020013F9C1C214F9CFC415F9D0C416F9D1C43D
:103C120017F9D2C418F9B7EC0DF00050000A03E00E
:103C2200FF0E006E68D0080E0801EC25E16E010E51
:103C3200ED21E26EBEC2E6FFBFC2E6FFC0C2E6FFF2
:103C4200C1C2E6FF0C0EEC25E16E010EED21E26E23
:103C5200CFC4E6FFD0C4E6FFD1C4E6FFD2C4E6FF7C
:103C6200F6C80DF9F7C80EF926EC0DF0F6C80DF9F5
:103C7200F7C80EF9E6EC10F0010E006E3CD0200EF3
:103C82000801F627000EF723010EF227000EF32398
:103C9200F423F523010E0401CF27000ED023D123F4
:103CA200D22356D7A9EC01F00050000A03E0FF0E20
:103CB200006E21D0EEC88CF9EFC88DF9F0C88EF9EC
:103CC200F1C88FF9BFEC02F000C0EEF801C0EFF8C6
:103CD20002C0F0F803C0F1F803500F0A08E10250E5
:103CE200FF0A05E10150FF0A02E10050FF0A02E16A
:083CF200006A01D0DAD61200CD
:103CFA00CFC405F9D0C406F9D1C407F9D2C408F96A
:103D0A00BEC261F9BFC262F9C0C263F9C1C264F935
:103D1A00CFC465F9D0C466F9D1C467F9D2C468F9C9
:103D2A00090E0901696F090E6A6F3AEC06F0005034
:103D3A00000A03E0FF0E006E7BD13BC700F03CC7D0
:103D4A0001F03DC702F03EC703F0010E005E000E0F
:103D5A00015A025A035A00500401CF15046E015049
:103D6A00D015056E0250D115066E0350D215076E96
:103D7A0004C001F905C002F906C003F907C004F935
:103D8A00050E026E04C000F005C001F0025005E005
:103D9A00003600900136FF0FFAD7CB0E0024090136
:103DAA00616F020E0120626F010E0801ED6F10ECC7
:103DBA0006F000C0EEF8010E0401CF5F000ED05BE2
:103DCA00D15BD25B000E006E0901041908E10050B4
:103DDA00031905E10050021902E10151000A2BE121
:103DEA00CBC401F9CCC402F9CDC403F9CEC404F999
:103DFA00010E015F000E025B035B045BBEC261F948
:103E0A00BFC262F9C0C263F9C1C264F9CFC465F91D
:103E1A00D0C466F9D1C467F9D2C468F9090E696FCA
:103E2A00090E6A6F3AEC06F00050000A03E0FF0E32
:103E3A00006EFED007D0010E0901015F000E025B81
:103E4A00035B045B09013BC700F03CC701F03DC7B7
:103E5A0002F03EC703F0010E005E000E015A025A3C
:103E6A00035A00500115046E01500215056E0250E6
:103E7A000315066E03500415076E050E026E04C084
:103E8A0000F005C001F0025005E00036009001364E
:103E9A00FF0FFAD7CB0E0026020E012200C0FCF853
:103EAA0001C0FDF80B0E0024E96E000E0120EA6E37
:103EBA003F0EEE14016E01500F0A06E0C00E020119
:103ECA00C66FFF0E006EB4D00D0E0801FC25E96E18
:103EDA00000EFD21EA6EEE50EE1906E0C10E020157
:103EEA00C66FFF0E006EA4D0FCC8E9FFFDC8EAFF4A
:103EFA00EECF00F01F0E0014016E01500801ED19FB
:103F0A0006E0C20E0201C66FFF0E006E91D0FCC819
:103F1A0061F9FDC862F9EF0E0901636F080E646F5B
:103F2A002AEC05F00801EC6BEF0EE96E080EEA6E5A
:103F3A00EC51E926D8B0EA2AEECFFFF892EC0FF05E
:103F4A0000C0FEF8ED05006E016A000E015A0D0E62
:103F5A00046E000E056EE1EC05F0EC510026000E31
:103F6A0001220050EA25E96E0150EB21EA6EEECFFC
:103F7A00FFF892EC0FF0FE5100180AE005C9CFF4E1
:103F8A0006C9D0F407C9D1F408C9D2F4006A50D0DE
:103F9A00EC2B0D0EEC5D0CE2EF0EE96E080EEA6EEC
:103FAA00EC51E926D8B0EA2AEE50000A01E0BCD763
:103FBA000D0EEC5D2AE2EF0EE96E080EEA6EEC5188
:103FCA00E926D8B0EA2AED05006E016A000E015A08
:103FDA000D0E046E000E056EE1EC05F0EC510026A4
:103FEA00000E01220050EA25D96E0150EB21DA6E4B
:103FFA00EE50DE180AE005C9CFF406C9D0F407C9A5
:10400A00D1F408C9D2F4006A13D0ED2BFCC8E9FF39
:10401A00FDC8EAFFEECF01F001ACCDD605C9CFF459
:10402A0006C9D0F407C9D1F408C9D2F4010E006E4A
:02403A00120072
:10403C00EAC80DF9EBC80EF99DEC0FF000C0EFF8D3
:10404C0001C0F0F8ECC80DF9EDC80EF99DEC0FF0BD
:10405C000801F051011802E10050EF1902E0006A6A
:10406C0031D0EE6BECC80DF9EDC80EF99DEC0FF0EC
:10407C00800E026E800E0118025C03E100500801F4
:10408C00EE5D1EE20801EE51EA25E96E000EEB2111
:10409C00EA6EEECFFFF892EC0FF000C0EFF8EE51A5
:1040AC00EC25E96E000EED21EA6EEECFFFF892ECF6
:1040BC000FF0EF51001802E0006A04D0EE2BD2D7BB
:0640CC00010E006E12005F
:1040D200086A080E0C6E003408360450085ED8B028
:0E40E20002D00826D89000360C2EF5D712001A
:1040F0000450000A12E10550000A0FE10650000AC0
:104100000CE10750000A09E1FF0E006EFF0E016E80
:10411000FF0E026E7F0E036E99D00C6A07BE0C2A4A
:104120000D6A0B6A0A6A096A086A035002100110D4
:104130000010D8B485D0035007180E6E0EBE0D1EA9
:1041400007AE0BD0041E051E061E071E042AD8B497
:10415000052AD8B4062AD8B4072A03AE0BD0001E0D
:10416000011E021E031E002AD8B4012AD8B4022A56
:10417000D8B4032A035007100E6E0EBE1DD0BAEC41
:104180000FF00CBE36D00DAE5BD0001E011E021E1D
:10419000031E002AD8B4012AD8B4022AD8B4032AAC
:1041A000081E091E0A1E0B1E082AD8B4092AD8B4F4
:1041B0000A2AD8B40B2A44D007AE15D003BE0DD0BE
:1041C00003500B6E02500A6E0150096E0050086ECB
:1041D000036A026A016A006AD6D7036A026A016A40
:1041E000006A002A000C031E021E011E001E0C8E17
:1041F000C6D7082AD8B4092AD8B40A2AD8B40B2AB0
:104200000450085CD8A4BFD70550095CD8A4BBD71C
:1042100006500A5CD8A4B7D707500B5CD8A4B3D714
:104220000B6A0A6A096A086A002AD8B4012AD8B453
:10423000022AD8B4032A03AEA6D70E6A0E88FF0C52
:0E4240000E6A0CA002D086EC0FF0000F1200E8
:10424E000450000A08E10550000A05E1FF0E006E59
:10425E007F0E016E58D00D6A096A086A015000106F
:10426E00D8B4000C015005180A6E0ABE0D1E0B6A5A
:10427E0005AE05D0041E051E042AD8B4052A01AECB
:10428E0005D0001E011E002AD8B4012A01500510C7
:10429E000A6E0ABE10D018EC0FF00BB020D00DAE87
:1042AE00000C001E011E002AD8B4012A081E091E89
:1042BE00082AD8B4092A000C05AE0DD001BE07D0CD
:1042CE000150096E0050086E016A006AE8D7016A53
:1042DE00006A002A000C011E001E0B2ADDD7082AD8
:1042EE00D8B4092A0450085CD8A4D9D70550095C63
:1042FE00D8A4D5D7096A086A002AD8B4012A01AE13
:08430E00CED70000FF0C1200E5
:10431600800E0801C919006E800E000A005C0CE3CD
:10432600800EC9BF7F0E006E000E800A005C02E19F
:10433600040EC95D01E206D0D80E0201C66FFF0E5B
:10434600006E67D11A0E006E000E016EC9C804F029
:10435600000E0801C9BFFF0E056EE1EC05F0CE0E9A
:104366000026060E012200C0D2F801C0D3F8180EAE
:104376000024E96E000E0120EA6EEE50000A06E106
:10438600DC0E0201C66FFF0E006E43D1140E08014B
:10439600D225D96E000ED321DA6EDECF01F0DECF44
:1043A60002F0DECF03F0DECF04F0CD51045C08E16D
:1043B600CC51035C05E1CB51025C02E1CA51015CC0
:1043C60006E2DB0E0201C66FFF0E006E22D1100E52
:1043D6000801D225E96E000ED321EA6EEECF01F078
:1043E600EECF02F0EECF03F0EECF04F00450CD197D
:1043F60008E10350CC1905E10250CB1902E1015046
:10440600CA1902E1006A05D1100ED225E96E000E26
:10441600D321EA6EEECF01F0EECF02F0EECF03F03D
:10442600EECF04F036C700F001C005F002C006F07A
:1044360003C007F004C008F0005007E00832073256
:1044460006320532089EFF0FF8D736C700F0CAC8F5
:1044560001F0CBC802F0CCC803F0CDC804F0005080
:1044660007E00432033202320132049EFF0FF8D70E
:104476000850041808E10750031805E10650021811
:1044860002E10550011811E10801100ED225E16E76
:10449600000ED321E26ECAC8E6FFCBC8E6FFCCC841
:1044A600E6FFCDC8E6FF006AB4D00801100ED2259B
:1044B600E16E000ED321E26ECAC8E6FFCBC8E6FF66
:1044C600CCC8E6FFCDC8E6FF100ED225E96E000E79
:1044D600D321EA6EEECF01F0EECF02F0EECF03F07D
:1044E600EECF04F036C700F001C0CEF802C0CFF818
:1044F60003C0D0F804C0D1F8005007E0D133D03360
:10450600CF33CE33D19FFF0FF8D7040ED225E16EFD
:10451600000ED321E26ED2C8E9FFD3C8EAFFEECF80
:1045260000F0EECF01F0EECF02F0EECF03F000C0C8
:10453600E6FF01C0E6FF02C0E6FF03C0E6FFD15179
:10454600000808E1D051000805E1CF51000802E15A
:10455600CE5100085DE2040ED225D46F000ED321A1
:10456600D56FD4C8E9FFD5C8EAFFEECF8CF9EECFF8
:104576008DF9EECF8EF9EECF8FF9BFEC02F0D4C8ED
:10458600E1FFD5C8E2FF00C0E6FF01C0E6FF02C0BA
:10459600E6FF03C0E6FF040E0801D225D96E000E21
:1045A600D321DA6EDECF01F0DECF02F0DECF03F0EC
:1045B600DECF04F00F0E041808E1FF0E031805E124
:1045C600FF0E021802E1FF0E01181AE1100ED225A5
:1045D600E16E000ED321E26E140ED225E96E000EB6
:1045E600D321EA6EEECFE6FFEECFE6FFEECFE6FF93
:1045F600EECFE6FFDB0E0201C66FFF0E006E09D09E
:10460600010E0801CE5F000ECF5BD05BD15B97D762
:04461600006A120024
:10461A00C9EC11F0000E001803E0FF0E006E01D085
:04462A00006A120010
:10462E000601CD5302E1006A65D0CB0E0801C96FB9
:10463E00020ECA6FCB0E09011F6F020E206F216B87
:10464E00000E226F020E236FE2EC08F0C9C8E1FFE4
:10465E00CAC8E2FF520EE66E520EE66E610EE66EAE
:10466E00410EE66EE40E0801C925E16E010ECA2167
:10467E00E26E720EE66E720EE66E410EE66E610E22
:10468E00E66EE80EC925E16E010ECA21E26EFBC48C
:10469E00E6FFFCC4E6FFFDC4E6FFFEC4E6FFEC0E3B
:1046AE00C925E16E010ECA21E26EFFC4E6FF00C508
:1046BE00E6FF01C5E6FF02C5E6FFFE0EC925E16E67
:1046CE00010ECA21E26E550EE66EAA0EE66EF7C414
:1046DE000DF9F8C40EF9F9C40FF9FAC410F9E3ECA8
:1046EE000CF00050000A03E0FF0E006E03D006012E
:0646FE00CD6B006A120002
:10470400C9C802F0CAC803F0CBC8F6FFCCC8F7FF8B
:10471400CDC8F8FF0900F5CF00F0C9C8E1FFCAC849
:10472400E2FF00C0E6FFCBC8F6FFCCC8F7FFCDC858
:10473400F8FF0900F5CF01F00150000A01E109D0AA
:10474400010E0801CB27000ECC23CD23C94BCA2B65
:0C475400DBD702C000F003C001F012002F
:104760008A0E09011F6F050E206F216B070E226F45
:10477000000E236FE2EC08F0BA0E1F6F060E206FDA
:10478000216B070E226F000E236FE2EC08F0C10EC2
:104790001F6F060E206F216B070E226F000E236F16
:1047A000E2EC08F0D30E1F6F040E206F216B300E69
:1047B000226F000E236FE2EC08F0C70E1F6F020E8F
:1047C000206F216B040E226F020E236FE2EC08F0C3
:1047D000CE0E1F6F060E206F216B040E006E000EB2
:1047E000016E1A0E0002F3CF22F9F4CF23F9E2ECA6
:1047F00008F07C0E1F6F050E206F216B0C0E226FD0
:10480000000E236FE2EC08F0FF0E0201C76FFF0EEF
:10481000C86FFF0EC96FFF0ECA6FCB0E0501796F0F
:10482000040E7A6F07013F6B0601CD6B0501036B28
:10483000046B056B066B0201BE6BBF6BC06BC16B7B
:104840000401CF6BD06BD16BD26B0701406B430E71
:0A48500005017C6F0201C66B120027
:10485A00C9C8E9FFCAC8EAFFEE50000A06E1C40E59
:10486A000201C66FFF0E006EB6D0BEC2CDF8BFC23F
:10487A00CEF8C0C2CFF8C1C2D0F80401CF6BD06B5A
:10488A00D16BD26B0801D66BCBC8EAF8CCC8EBF86F
:10489A00BAEC18F00050010AD8A494D0FF0E08010F
:1048AA00CB25E96E000ECC21EA6E3F0EEE14016EA6
:1048BA0001500F0A03E1010ED66FE6D7010E04017B
:1048CA00CF5F000ED05BD15BD25B0801D6533BE0D1
:1048DA00C9C8EAF8CAC8EBF87DEC1EF000C0D5F8E2
:1048EA000050FF0A03E1FF0E006E75D00801D55192
:1048FA00010A28E1BEC261F9BFC262F9C0C263F906
:10490A00C1C264F9CFC465F9D0C466F9D1C467F9E4
:10491A00D2C468F9D10E0901696F080E6A6F3AECC0
:10492A0006F00050000A03E0FF0E006E54D0CDC816
:10493A00BEF2CEC8BFF2CFC8C0F2D0C8C1F2010ED3
:10494A00006E49D035D0CBC8EAF8CCC8EBF8C9C854
:10495A00ECF8CAC8EDF81EEC20F00050010A28E174
:10496A00BEC261F9BFC262F9C0C263F9C1C264F9C9
:10497A00CFC465F9D0C466F9D1C467F9D2C468F95D
:10498A00D10E0901696F080E6A6F3AEC06F0005001
:10499A00000A03E0FF0E006E1ED0CDC8BEF2CEC8DC
:1049AA00BFF2CFC8C0F2D0C8C1F2010E006E13D058
:1049BA00010E0401CF27000ED023D123D2230801F0
:1049CA00D66B62D7CDC8BEF2CEC8BFF2CFC8C0F28E
:0849DA00D0C8C1F2006A12000E
:1049E2000DEC16F0CB0E0801C96F020ECA6FCB0E8A
:1049F200CB6F020ECC6F0201C651FF0A03E1FF0E1C
:104A0200006EB3D0C651FC0A03E1FF0E006EADD0BA
:104A1200C651000AD8A4A4D0300E0801C925090144
:104A22001F6F000E0801CA210901206FC0EC0AF0B5
:104A320000500401D5250901906F01500401D621CF
:104A42000901916F000E0401D7210901926F000E36
:104A52000401D8210901936FD6EC01F00050000A3D
:104A620003E0FF0E006E81D0CB0E0801CB6F020E69
:104A7200CC6FFE0ECB2509011F6F010E0801CC2160
:104A82000901206FC0EC0AF00150AA0A02E1550E9A
:104A9200001806E0FC0E0201C66FFF0E006E65D024
:104AA200CBC81FF9CCC820F9E5EC0AF00350410A43
:104AB20008E10250610A05E10150520A02E1005088
:104AC200520A06E0FA0E0201C66FFF0E006E4DD0CA
:104AD200E40E0801CB2509011F6F010E0801CC214C
:104AE2000901206FE5EC0AF00350610A08E1025067
:104AF200410A05E10150720A02E10050720A06E021
:104B0200FA0E0201C66FFF0E006E2FD0E80E0801EA
:104B1200CB2509011F6F010E0801CC210901206F6D
:104B2200E5EC0AF000C0FBF401C0FCF402C0FDF4A5
:104B320003C0FEF4EC0E0801CB2509011F6F010E24
:104B42000801CC210901206FE5EC0AF000C0FFF456
:104B520001C000F502C001F503C002F5006A05D0EC
:0C4B6200FA0E0201C66FFF0E006E12007A
:0E4B6E00ACB202D00000FCD7C9C8ADFF1200E7
:104B7C001C0E0801C925E16E000ECA21E26ECBC8DD
:104B8C00E6FF1C0EC925006E000ECA21016E010E37
:104B9C000024E16E000E0120E26ECCC8E6FF1C0E74
:104BAC00C925006E000ECA21016E020E0024E16EB2
:104BBC00000E0120E26ECDC8E6FF1C0EC925006E6A
:104BCC00000ECA21016E030E0024E16E000E0120BE
:0A4BDC00E26ECEC8E6FF006A120088
:104BE600CE0E09011F6F080E206FFF0E216F0D0EEE
:104BF600226F000E236FE2EC08F00801CD6B0D0E5C
:104C0600CD5D1CE2CE0EE16E080EE26ECD51E126C0
:104C1600D8B0E22ACD51CB25E96E000ECC21EA6E42
:104C2600EECFE6FFCD51CB25E96E000ECC21EA6E24
:104C3600EE50000A01E102D0CD2BE1D7010EC925C5
:104C4600E16E000ECA21E26ECEC8E6FF030EC9254C
:104C5600E16E000ECA21E26ECFC8E6FF050EC92539
:104C6600E16E000ECA21E26ED0C8E6FF070EC92526
:104C7600E16E000ECA21E26ED1C8E6FF090EC92513
:104C8600E16E000ECA21E26ED2C8E6FF0E0EC925FD
:104C9600E16E000ECA21E26ED3C8E6FF100EC925EA
:104CA600E16E000ECA21E26ED4C8E6FF120EC925D7
:104CB600E16E000ECA21E26ED5C8E6FF140EC925C4
:104CC600E16E000ECA21E26ED6C8E6FF160EC925B1
:104CD600E16E000ECA21E26ED7C8E6FF180EC9259E
:104CE600E16E000ECA21E26ED8C8E6FF1C0EC92589
:104CF600E16E000ECA21E26ED9C8E6FF1E0EC92576
:104D0600E16E000ECA21E26EDAC8E6FFCD51010F50
:104D1600026E036A000E0322B7D0010EC925006E8B
:104D2600000ECA21016E010E0024E16E000E012064
:104D3600E26EFF0EE66E030EC925006E000ECA2156
:104D4600016E010E0024E16E000E0120E26EFF0EE0
:104D5600E66E050EC925006E000ECA21016E010E13
:104D66000024E16E000E0120E26EFF0EE66E070ED5
:104D7600C925006E000ECA21016E010E0024E16EE7
:104D8600000E0120E26EFF0EE66E090EC925006ECA
:104D9600000ECA21016E010E0024E16E000E0120F4
:104DA600E26EFF0EE66E0E0EC925006E000ECA21DB
:104DB600016E010E0024E16E000E0120E26EFF0E70
:104DC600E66E100EC925006E000ECA21016E010E98
:104DD6000024E16E000E0120E26EFF0EE66E120E5A
:104DE600C925006E000ECA21016E010E0024E16E77
:104DF600000E0120E26EFF0EE66E140EC925006E4F
:104E0600000ECA21016E010E0024E16E000E012083
:104E1600E26EFF0EE66E160EC925006E000ECA2162
:104E2600016E010E0024E16E000E0120E26EFF0EFF
:104E3600E66E180EC925006E000ECA21016E010E1F
:104E46000024E16E000E0120E26EFF0EE66E1C0EDF
:104E5600C925006E000ECA21016E010E0024E16E06
:104E6600000E0120E26EFF0EE66E1E0EC925006ED4
:104E7600000ECA21016E010E0024E16E000E012013
:104E8600E26EFF0EE66E58D0000E031802E1000E29
:104E96000218D8B442D7000E031802E1010E021818
:104EA600D8B449D7000E031802E1020E0218D8B48E
:104EB60050D7000E031802E1030E0218D8B457D7D4
:104EC600000E031802E1040E0218D8B45ED7000ED5
:104ED600031802E1050E0218D8B465D7000E0318B0
:104EE60002E1060E0218D8B46CD7000E031802E1D0
:104EF600070E0218D8B473D7000E031802E1080E85
:104F06000218D8B47AD7000E031802E1090E021867
:104F160082E0000E031802E10A0E02188AE0000E73
:104F2600031802E10B0E021892E0000E031802E1CC
:0C4F36000C0E02189AE0A7D7006A1200C7
:104F4200C9C8E1FFCAC8E2FFCBC8E6FF006A120087
:104F52000B0E0801C925E16E000ECA21E26ECBC814
:064F6200E6FF006A1200E8
:104F6800BEC2D8F8BFC2D9F8C0C2DAF8C1C2DBF8ED
:104F78000801E86B0401F0510801DB5D0EE1040152
:104F8800EF510801DA5D09E10401EE510801D95D2C
:104F980004E10401ED510801D85D15E3050106514E
:104FA8000801DB5D0EE1050105510801DA5D09E143
:104FB800050104510801D95D04E105010351080107
:104FC800D85D01E206D0F40E0201C66FFF0E006E36
:104FD8009BD1CB0E0801CE6F020ECF6FD8C88CF9CB
:104FE800D9C88DF9DAC88EF9DBC88FF97AEC02F0E6
:104FF80000C0E4F801C0E5F802C0E6F803C0E7F82D
:1050080000C090F901C091F902C092F903C093F968
:10501800D6EC01F00050000A03E0FF0E006E74D1D8
:105028000801D06BD16BD26BD36B0401CE51080150
:10503800D35D0EE10401CD510801D25D09E10401FF
:10504800CC510801D15D04E10401CB510801D05DC8
:10505800D8B08ED0CF5105017A1903E179510801F2
:10506800CE191BE10801010EE427000EE523E62313
:10507800E723CB0ECE6F020ECF6FE4C890F9E5C8D8
:1050880091F9E6C892F9E7C893F9D6EC01F0005017
:10509800000A03E0FF0E006E37D1CEC8E9FFCFC883
:1050A800EAFFEECF01F00150E50A0AE0CEC8E9FFB9
:1050B800CFC8EAFFEECF01F0200E015C01E318D063
:1050C800CEC8E9FFCFC8EAFFEECF01F0140E015CAD
:1050D8000EE20B0E0801CE25E96E000ECF21EA6E16
:1050E8003F0EEE14016E01500F0A01E101D003D00A
:1050F8000801E86B32D00801E851000A10E1D0C875
:10510800D4F8D1C8D5F8D2C8D6F8D3C8D7F8D8C8F3
:10511800E0F8D9C8E1F8DAC8E2F8DBC8E3F8E82B28
:10512800E851C9191AE1CCC8E1FFCDC8E2FFD4C8DB
:10513800E6FFD5C8E6FFD6C8E6FFD7C8E6FFCAC867
:10514800E1FFCBC8E2FFE0C8E6FFE1C8E6FFE2C83E
:10515800E6FFE3C8E6FF006AD7D0200ECE27000E90
:10516800CF23010ED027000ED123D223D3235DD71E
:10517800D8C88CF9D9C88DF9DAC88EF9DBC88FF987
:10518800BFEC02F000C0DCF801C0DDF802C0DEF8B8
:1051980003C0DFF803500F0A08E10250FF0A05E1D7
:1051A8000150FF0A02E10050FF0AD8A4A4D082EC03
:1051B80012F000C0DCF801C0DDF802C0DEF803C060
:1051C800DFF803500F0A08E10250FF0A05E1015019
:1051D800FF0A02E10050FF0A06E1F20E0201C66F63
:1051E800FF0E006E91D0DCC8EAF8DDC8EBF8DEC827
:1051F800ECF8DFC8EDF8D8C8EEF8D9C8EFF8DAC887
:10520800F0F8DBC8F1F85AEC1BF00050000A03E094
:10521800FF0E006E79D0CB0E09011F6F020E206FB2
:10522800216B000E226F020E236FE2EC08F0DCC83F
:105238008CF9DDC88DF9DEC88EF9DFC88FF97AECF4
:1052480002F000C0E4F801C0E5F802C0E6F803C0C7
:10525800E7F80801E96B0401DF510801E95D19E28B
:10526800E4C80DF9E5C80EF9E6C80FF9E7C810F962
:10527800010EE427000EE523E623E723E3EC0CF018
:105288000050000A03E0FF0E006E3ED00801E92B33
:10529800E2D7E851000A15E1CCC8E1FFCDC8E2FF2A
:1052A800E66AE66AE66AE66ACAC8E1FFCBC8E2FFD0
:1052B800DCC8E6FFDDC8E6FFDEC8E6FFDFC8E6FFBC
:1052C80018D0CCC8E1FFCDC8E2FFD4C8E6FFD5C8E6
:1052D800E6FFD6C8E6FFD7C8E6FFCAC8E1FFCBC8D5
:1052E800E2FFE0C8E6FFE1C8E6FFE2C8E6FFE3C880
:1052F800E6FF006A09D0DCC8D8F8DDC8D9F8DEC8EE
:0A530800DAF8DFC8DBF836D6120031
:10531200C9C8E9FFCAC8EAFFEE50000A07E1C40E95
:105322000201C66FFF0E006E20EF30F0CBC81FF9EE
:10533200CCC820F9200E0901216F0B0E226F000E3E
:10534200236FE2EC08F0C9C8E9FFCAC8EAFFEE50D1
:105352002E0A13E1010E0801C925E96E000ECA21C9
:10536200EA6EEE50000A09E1CBC8E1FFCCC8E2FFC9
:105372002E0EE66E006A20EF30F0C9C8E9FFCAC8F7
:10538200EAFFEE502E0A24E10801010EC925E96E5A
:10539200000ECA21EA6EEE502E0A1AE1020EC9254B
:1053A200E96E000ECA21EA6EEE50000A11E1CBC886
:1053B200E1FFCCC8E2FF2E0EE66E010ECB25E16EB8
:1053C200000ECC21E26E2E0EE66E006A20EF30F067
:1053D200C9C8E9FFCAC8EAFFEE502E0A07E1E20E89
:1053E2000201C66FFF0E006E20EF30F0C9C80DF942
:1053F200CAC80EF99DEC0FF000C0DBF801C0DCF862
:10540200C9C8EAF8CAC8EBF83BEC1CF000C0D8F8EF
:105412000050FF0A04E1FF0E006E20EF30F0010E93
:105422000801DB5D006E000EDC59016E0050C925DB
:10543200E96E0150CA21EA6EEE502E0A10E0010E0A
:10544200DB5D006E000EDC59016E0050C925E96E6D
:105452000150CA21EA6EEE50200A01E015D0800EFA
:10546200006E800EDC19005C02E1DB5100080CE2E8
:10547200DB51C925E16EDC51CA21E26EE66A010EFA
:10548200DB5F000EDC5BCBD7000EDC1902E1000E05
:10549200DB1904E1FF0E006E20EF30F0000ED8BFE2
:1054A200FF0E006E000E001802E1000ED8190BE08C
:1054B200000ED8BFFF0E006E000E001802E1020EB1
:1054C200D81901E08BD0D36BD26B080ED25D2DE2DE
:1054D200D351C925E96E000ECA21EA6EEE502E0A9A
:1054E2000AE0D351C925E96E000ECA21EA6EEE50D8
:1054F200000A01E001D019D0D251CB25DD6F000E98
:10550200CC21DE6FD351C925E96E000ECA21EA6EA5
:10551200EECFFFF892EC0FF0DDC8E1FFDEC8E2FF4C
:1055220000C0E6FFD32BD22BD0D7D351C925E96EC9
:10553200000ECA21EA6EEE50000A0AE1CBC8EAF870
:10554200CCC8EBF8EC6BED6B49EC1DF020EF30F0C2
:105552000801D351C925E96E000ECA21EA6EEE5048
:105562002E0A02E1D32B07D0E20E0201C66FFF0E14
:10557200006E20EF30F0080E0801D26F0B0ED25DE4
:1055820023E2D351C925E96E000ECA21EA6EEE501C
:10559200000A01E119D0D251CB25DD6F000ECC21DA
:1055A200DE6FD351C925E96E000ECA21EA6EEECF35
:1055B200FFF892EC0FF0DDC8E1FFDEC8E2FF00C0A9
:1055C200E6FFD32BD22BDAD7CBC8EAF8CCC8EBF85C
:1055D200EC6BED6B49EC1DF020EF30F0000E080192
:1055E200D8BFFF0E006E000E001802E1010ED8199E
:1055F200D8A41DEF30F0DBC8D5F8010EDB5DD66F05
:10560200000EDC59D76FD651C925E96ED751CA2190
:10561200EA6EEE502E0A0EE0800E006E800ED71952
:10562200005C02E1D651000805E2010ED65F000ED1
:10563200D75BE9D7800E006E800ED719005C02E1BD
:10564200D65100084DE2D6C8D5F8D64BD72B080E56
:10565200D26F0B0ED25D44E2D651C925E96ED75105
:10566200CA21EA6EEE50000A3BE0D651C925E96E26
:10567200D751CA21EA6EEECF1FF9B0EC08F0005202
:1056820019E10801D251CB25DD6F000ECC21DE6F6E
:10569200D651C925E96ED751CA21EA6EEECFFFF87D
:1056A20092EC0FF0DDC8E1FFDEC8E2FF00C0E6FFCA
:1056B200D22B13D00801D651C925E96ED751CA2180
:1056C200EA6EEE50200A09E0D251CB25E16E000EBF
:1056D200CC21E26E5F0EE66ED22BD64BD72BB9D71A
:1056E200D5C8D6F8000ED76FD36BD26B080ED25D39
:1056F20056E2D351C925E96E000ECA21EA6EEE5078
:10570200000A01E14CD0000ED71902E1D651D3199B
:1057120001E145D0D351C925E96E000ECA21EA6ED6
:10572200EE502E0A0AE0D351C925E96E000ECA21B5
:10573200EA6EEE50200A01E001D02FD0D351C925E4
:10574200E96E000ECA21EA6EEECF1FF9B0EC08F046
:10575200005219E10801D251CB25DD6F000ECC2198
:10576200DE6FD351C925E96E000ECA21EA6EEECF73
:10577200FFF892EC0FF0DDC8E1FFDEC8E2FF00C0E7
:10578200E6FFD22B0AD00801D251CB25E16E000EE2
:10579200CC21E26E5F0EE66ED22BD32BA7D7010E81
:1057A200D96F060ED25D03E2D2C8CDF802D0060E42
:1057B200CD6FCDC8D5F8CD51CB25E16E000ECC21F1
:1057C200E26E7E0EE66E010ED46FD45109083BE301
:1057D200D951000A38E0D551010F006E016A000E5E
:1057E20001220050CB25E16E0150CC21E26E300E39
:1057F200D425006E00C0E6FFCBC8EAF8CCC8EBF8AF
:10580200EC6BED6B49EC1DF000C0D9F80050FF0ABB
:1058120004E1FF0E006E20EF30F00801D951010AB9
:105822000FE1C9C8EAF8CAC8EBF87DEC1EF000C067
:10583200DAF80050000A04E0DAC800F020EF30F095
:105842000801D42BC2D7D951000AD8B475D0050E9D
:10585200D25D03E2D2C8CEF802D0050ECE6FCEC81A
:10586200D5F8CE51CB25E16E000ECC21E26E7E0E34
:10587200E66E0A0ED46FD45163085EE3D951000A72
:105882005BE0D551010F006E016A000E012200504B
:10589200CB25DD6F0150CC21DE6F0A0E046ED4C819
:1058A20000F069EC20F0300E0026DDC8E1FFDEC812
:1058B200E2FF00C0E6FF020ED525006E016A000E6F
:1058C20001220050CB25DD6F0150CC21DE6F0A0E84
:1058D200046ED4C800F069EC20F008C000F0300E6D
:1058E2000026DDC8E1FFDEC8E2FF00C0E6FFCBC84C
:1058F200EAF8CCC8EBF8EC6BED6B49EC1DF000C09C
:10590200D9F80050FF0A03E1FF0E006E98D3080198
:10591200D951010A0EE1C9C8EAF8CAC8EBF87DEC10
:105922001EF000C0DAF80050000A03E0DAC800F006
:1059320086D30801D42B9FD7D951000AD8B49DD061
:10594200040ED25D03E2D2C8CFF802D0040ECF6FAC
:10595200CFC8D5F8CF51CB25E16E000ECC21E26E37
:105962007E0EE66E640ED46F800E030A006E800E09
:10597200005C02E1D451E708D8A07FD0D951000AD7
:10598200D8B47BD0D551010F006E016A000E0122FE
:105992000050CB25DD6F0150CC21DE6F640E046E0A
:1059A200D4C800F069EC20F0300E0026DDC8E1FF1B
:1059B200DEC8E2FF00C0E6FF020ED525006E016AD6
:1059C200000E01220050CB25DD6F0150CC21DE6F8D
:1059D2000A0E046ED4C800F069EC20F00A0E046EC0
:1059E20069EC20F008C000F0300E0026DDC8E1FFAF
:1059F200DEC8E2FF00C0E6FF030ED525006E016A95
:105A0200000E01220050CB25DD6F0150CC21DE6F4C
:105A12000A0E046ED4C800F069EC20F008C000F051
:105A2200300E0026DDC8E1FFDEC8E2FF00C0E6FF5F
