:100000005CEF3FF00000000000EF00F00000000097
:0A0010000000000000000000F3D71C
:0E001C00ACB202D00000FCD7ECC8ADFF120061
:10002A00ECC86FFF6DB002D00000FCD76FCF00F0B4
:02003A001200B2
:10003C00ECC8C9FFC7B002D00000FCD7C9CF00F094
:02004C001200A0
:0C004E0072B201D0FDD7ECC873FF1200A5
:10005A00F250026EF29E0500FF6A0150FE6E0050D9
:08006A00FD6E02BEF28E1200D1
:100072006BC0E8F86CC0E9F86DC0EAF86EC0EBF846
:100082009E96C5869EB620D000016B516C116D11F3
:100092006E1119E00801E851E911EA11EB110CE1C6
:1000A200CEC5E1FFCFC5E2FF030EE66ECCC500F080
:1000B200CDC501F0D1DF08D0010E0801E85F000EC6
:1000C200E95BEA5BEB5BDED70801C9CFE7F8E651F3
:1000D200000A02E1C58A01D0C59A9E96C5886BC006
:1000E200E8F86CC0E9F86DC0EAF86EC0EBF89EB6AD
:1000F20020D000016B516C116D116E1119E00801D5
:10010200E851E911EA11EB110CE1CEC5E1FFCFC5CF
:10011200E2FF030EE66ECCC500F0CDC501F09CDF18
:1001220008D0010E0801E85F000EE95BEA5BEB5BB9
:08013200DED7E7C800F012005F
:10013A006FC0E8F870C0E9F871C0EAF872C0EBF86D
:10014A00A49E6B86A4BE20D000016F51701171115C
:10015A00721119E00801E851E911EA11EB110CE1F9
:10016A00D2C5E1FFD3C5E2FF030EE66ED0C500F0AB
:10017A00D1C501F06DDF08D0010E0801E85F000E5D
:10018A00E95BEA5BEB5BDED708016FCFE7F8E65184
:10019A00000A02E16B8A01D06B9AA49E6B886FC039
:1001AA00E8F870C0E9F871C0EAF872C0EBF8A4BECA
:1001BA0020D000016F5170117111721119E00801FC
:1001CA00E851E911EA11EB110CE1D2C5E1FFD3C5FF
:1001DA00E2FF030EE66ED0C500F0D1C501F038DFAC
:1001EA0008D0010E0801E85F000EE95BEA5BEB5BF1
:0801FA00DED7E7C800F0120097
:100202009E96E6C8C9FF6BC0E7F86CC0E8F86DC0FF
:10021200E9F86EC0EAF8C7A422D000016B516C1154
:100222006D116E111BE00801E751E811E911EA11A5
:100232000EE1CEC5E1FFCFC5E2FF040EE66ECCC5EE
:1002420000F0CDC501F008DF010E006E3BD0010EBB
:100252000801E75F000EE85BE95BEA5BDCD76BC095
:10026200E7F86CC0E8F86DC0E9F86EC0EAF89EB62F
:1002720022D000016B516C116D116E111BE008014F
:10028200E751E811E911EA110EE1CEC5E1FFCFC550
:10029200E2FF040EE66ECCC500F0CDC501F0DCDE57
:1002A200010E006E0FD0010E0801E75F000EE85B41
:1002B200E95BEA5BDCD7C5BC02D0006A03D0C58427
:0602C200020E006E1200A6
:1002C800E6C8C9FFC7B002D00000FCD7C9CF00F00C
:0202D800120012
:1002DA00E6C86FFF6DB002D00000FCD76FCF00F008
:0202EA00120000
:1002EC00A49EE6C86FFF6FC0E7F870C0E8F871C055
:1002FC00E9F872C0EAF86DA422D000016F517011B8
:10030C00711172111BE00801E751E811E911EA11B2
:10031C000EE1D2C5E1FFD3C5E2FF040EE66ED0C5F7
:10032C0000F0D1C501F093DE010E006E3BD0010E42
:10033C000801E75F000EE85BE95BEA5BDCD76FC0A6
:10034C00E7F870C0E8F871C0E9F872C0EAF8A4BE2A
:10035C0022D000016F517011711172111BE0080154
:10036C00E751E811E911EA110EE1D2C5E1FFD3C55D
:10037C00E2FF040EE66ED0C500F0D1C501F067DED9
:10038C00010E006E0FD0010E0801E75F000EE85B56
:10039C00E95BEA5BDCD76BBC02D0006A03D06B84F0
:0603AC00020E006E1200BB
:1003B2008388D6C5E1FFD7C5E2FFFF0EE66ED4C53E
:0A03C20000F0D5C501F048DE12007E
:0403CC008398120000
:1003D000400E0801DD25006ED6C5E1FFD7C5E2FF5E
:1003E00000C0E6FFD4C500F0D5C501F036DED6C5A5
:1003F000E1FFD7C5E2FFE1C8E6FFD4C500F0D5C5EF
:1004000001F02BDED6C5E1FFD7C5E2FFE0C8E6FF6D
:10041000D4C500F0D5C501F020DED6C5E1FFD7C5B3
:10042000E2FFDFC8E6FFD4C500F0D5C501F015DE58
:10043000D6C5E1FFD7C5E2FFDEC8E6FFD4C500F0B0
:10044000D5C501F00ADED6C5E1FFD7C5E2FFE2C897
:10045000E6FFD4C500F0D5C501F0FFDD0801E46B6F
:10046000E56BD6C5E1FFD7C5E2FFFF0EE66ED4C54A
:1004700000F0D5C501F0F1DD00C0E3F80801E44B60
:10048000E52B800E0014016E0150000A07E0000EFB
:10049000E55D02E1640EE45D01E2E3D7E3C800F04C
:0204A000120048
:1004A200D6C5E1FFD7C5E2FF4C0EE66ED4C500F01B
:1004B200D5C501F0D1DDD6C5E1FFD7C5E2FFE66AB9
:1004C200D4C500F0D5C501F0C7DDD6C5E1FFD7C55B
:1004D200E2FFE66AD4C500F0D5C501F0BDDDD6C5A0
:1004E200E1FFD7C5E2FFE66AD4C500F0D5C501F049
:1004F200B3DDD6C5E1FFD7C5E2FFE66AD4C500F099
:10050200D5C501F0A9DDD6C5E1FFD7C5E2FFFF0ED3
:10051200E66ED4C500F0D5C501F09EDD0801DE6BA4
:10052200DF6BD6C5E1FFD7C5E2FFFF0EE66ED4C58D
:1005320000F0D5C501F090DD00C0DDF80801DE4B0A
:10054200DF2B800E0014016E0150000A07E0000E3E
:10055200DF5D02E1640EDE5D01E2E3D7DDAF04D0D0
:1005620027DFDDC800F012D0D6C5E1FFD7C5E2FF14
:10057200FF0EE66ED4C500F0D5C501F06DDD00C0FA
:0E058200DDF80050000AF0E013DF006A1200FE
:100590001DDF000E000A03E1040E00016A1909E1E3
:1005A000CFC8D7F8D0C8D8F8D1C8D9F8D2C8DAF8A7
:1005B00014D0090E006ECFC8D7F8D0C8D8F8D1C86B
:1005C000D9F8D2C8DAF8005008E00801D737D79137
:1005D000D837D937DA37FF0FF7D70801110EDD6F9B
:1005E000D7C8DEF8D8C8DFF8D9C8E0F8DAC8E1F82B
:1005F000FF0EE26FEDDE005204E0DBDE010E006E66
:100600004BD0D6C5E1FFD7C5E2FFFF0EE66ED4C5DD
:1006100000F0D5C501F021DD0050FE0A01E0F1D760
:100620000801D56BD66B020ED65D02E1000ED55DDA
:100630001BE2D551D325DB6FD651D421DC6FD6C553
:10064000E1FFD7C5E2FFFF0EE66ED4C500F0D5C5C9
:1006500001F003DDDBC8E1FFDCC8E2FF00C0E6FF1C
:100660000801D54BD62BDFD7D6C5E1FFD7C5E2FFB2
:10067000FF0EE66ED4C500F0D5C501F0EEDCD6C5A0
:10068000E1FFD7C5E2FFFF0EE66ED4C500F0D5C589
:0A06900001F0E3DC8EDE006A1200C8
:10069A0003DF0050000A03E0FF0E006E01D0006A7B
:0206AA0012003C
:1006AC00C9C8CFF8CAC8D0F8CBC8D1F8CCC8D2F8D2
:1006BC00CDC8D3F8CEC8D4F865DF0050000A03E0EB
:0A06CC00FF0E006E01D0006A12005C
:1006D6000501BE51000A04E0BE51020A01E002D043
:1006E600006A0DD0D7DF000E001806E0FF0E0501E8
:1006F600C36FFF0E006E03D00501BE6B006A1200C9
:100706000501BE51030A1FE1E3DF0050000A05E0C0
:10071600FF0EC36FFF0E006E5CD00301415108014E
:10072600C8190EE1030140510801C71909E1030187
:100736003F510801C61904E103013E510801C519DC
:1007460002E1006A46D00501BE51010A05E1FF0E2D
:10075600C36FFF0E006E3DD00801C8510301411959
:100766000EE10801C7510301401909E10801C6510C
:1007760003013F1904E10801C55103013E1928E0B0
:10078600C5C8C9F8C6C8CAF8C7C8CBF8C8C8CCF81F
:10079600420E0801CD6F030ECE6F85DF000E0018E6
:1007A6000FE0FF0E03013E6FFF0E3F6FFF0E406F1F
:1007B600FF0E416FFF0E0501C36FFF0E006E09D0DD
:1007C600C5C83EF3C6C83FF3C7C840F3C8C841F31F
:0407D600006A1200A3
:1007DA000801C1515A0806E3410EC15D03E3010E47
:0807EA00006E01D0006A12004C
:1007F2000801C151390806E3300EC15D03E3010E61
:08080200006E01D0006A120033
:10080A000801C1517A0806E3610EC15D03E3010ED6
:08081A00006E01D0006A12001B
:10082200D6C5E1FFD7C5E2FFFF0EE66ED4C500F0E4
:10083200D5C501F011DC0050FE0A01E0F1D712002B
:10084200026A110E025C17E2D90E0224F66E800EC5
:10085200F76E000EF722000EF86E000EF822090065
:10086200F5CF01F001500801C11903E1010E006E3C
:0A08720003D0022AE6D7006A120044
:10087C00030123510801C45D0EE10301225108015B
:10088C00C35D09E1030121510801C25D04E10301CB
:10089C0020510801C15D15E3050145510801C45DF6
:1008AC000EE1050144510801C35D09E10501435105
:1008BC000801C25D04E1050142510801C15D01E27C
:1008CC000CD0F40E0501C36FFF0E006EFF0E016E0F
:1008DC00FF0E026E0F0E036E64D00EC600F0C1C880
:1008EC00C5F8C2C8C6F8C3C8C7F8C4C8C8F8005011
:1008FC0008E00801C833C733C633C533C89FFF0FA0
:10090C00F7D703011C510801C52703011D5108012C
:10091C00C62303011E510801C72303011F510801FF
:10092C00C823EBDE0050000A09E0FF0E006EFF0E3C
:10093C00016EFF0E026E0F0E036E33D009C600F06F
:10094C000AC601F00BC602F00CC603F0010E005EE5
:10095C00000E015A025A035A00500801C115046EC8
:10096C000150C215056E0250C315066E0350C41516
:10097C00076E04C000F005C001F00036009001368F
:10098C00003600900136420E0024E96E030E012061
:10099C00EA6EEECF00F0EECF01F0EECF02F0EECF2C
:0409AC0003F0120042
:1009B000C1C805F0C2C806F0C3C807F0C4C808F033
:1009C00003012051055E2151065A2251075A235135
:1009D000085AECC504F005C000F006C001F007C0DD
:1009E00002F008C003F0045007E000360090013622
:1009F00002360336FF0FF8D7265100262751012271
:0A0A0000285102222951032212009E
:100A0A003EC3BCF83FC3BDF840C3BEF841C3BFF8FC
:100A1A00AAC8B4F8ABC8B5F8ACC8B6F8ADC8B7F848
:100A2A00030123510801AD5D0EE1030122510801C2
:100A3A00AC5D09E1030121510801AB5D04E1030149
:100A4A0020510801AA5D15E3050145510801B75D6A
:100A5A000EE1050144510801B65D09E10501435162
:100A6A000801B55D04E1050142510801B45D01E2E6
:100A7A0006D0F40E0501C36FFF0E006ECED008013A
:100A8A00C06BFBC500F0AEC801F0AFC802F0B0C839
:100A9A0003F0B1C804F0005007E004320332023216
:100AAA000132049EFF0FF8D70450000809E10350F1
:100ABA00000806E10250000803E108010150C05D88
:100ACA0055E2B4C8C1F8B5C8C2F8B6C8C3F8B7C8C1
:100ADA00C4F8CFDE00C0B4F801C0B5F802C0B6F859
:100AEA0003C0B7F803500F0A08E10250FF0A05E1F4
:100AFA000150FF0A02E10050FF0A06E1F10E05016A
:100B0A00C36FFF0E006E89D0030123510801B75D40
:100B1A000EE1030122510801B65D09E103012151E9
:100B2A000801B55D04E1030120510801B45D15E334
:100B3A00050145510801B75D0EE10501445108015F
:100B4A00B65D09E1050143510801B55D04E10501FE
:100B5A0042510801B45D01E206D0F40E0501C36FEB
:100B6A00FF0E006E5AD00801C02B8BD7080136C37E
:100B7A0000F037C301F038C302F039C303F0010EA5
:100B8A00005E000E015A025A035A0050AE15B86FA1
:100B9A000150AF15B96F0250B015BA6F0350B115B5
:100BAA00BB6FB4C8C1F8B5C8C2F8B6C8C3F8B7C8ED
:100BBA00C4F8F9DE0DC608F0B8C804F0B9C805F0E3
:100BCA00BAC806F0BBC807F0085007E00732063279
:100BDA0005320432079EFF0FF8D7B2C8E1FFB3C847
:100BEA00E2FF04500024E66E05500120E66E06502E
:100BFA000220E66E07500320E66EBCC8C5F8BDC8E1
:100C0A00C6F8BEC8C7F8BFC8C8F878DD0050000AE1
:0C0C1A0003E0FF0E006E01D0006A120023
:100C2600E6EC01F0000E000A03E1040E00016A1969
:100C360009E1AAC8AEF8ABC8AFF8ACC8B0F8ADC801
:100C4600B1F814D0090E006EAAC8AEF8ABC8AFF85A
:100C5600ACC8B0F8ADC8B1F8005008E00801AE372E
:100C6600AE91AF37B037B137FF0FF7D70801120E85
:100C7600DD6FAEC8DEF8AFC8DFF8B0C8E0F8B1C8BF
:100C8600E1F8FF0EE26FE8EC01F0005205E0D9EC66
:0C0C960001F0010E006E01D0006A120097
:100CA2000801AA515A0804E3410EAA5DD8B0AA8BE2
:060CB200AAC800F01200C8
:100CB800ACC804F0ADC805F0AAC802F0ABC803F090
:100CC800AEC800F0AFC801F0010E0801AE5F000E1B
:100CD800AF5B005001100FE004C0E9FF05C0EAFF58
:100CE80002C0E1FF03C0E2FFEECFE6FF024A032A9B
:100CF800044A052AE5D7AAC800F0ABC801F01200DB
:100D0800AAC8C1F872DD005211E1AAC8C1F861DDB4
:100D180000520CE1AAC8C1F874DD005207E1AAC864
:100D2800C1F88BDD005202E1006A02D0010E006EAC
:020D38001200A7
:100D3A0073DD0801AC6BAD6B020EAD5D02E1000E16
:100D4A00AC5D1CE2AC51AA25AE6FAD51AB21AF6FC1
:100D5A00D6C5E1FFD7C5E2FFFF0EE66ED4C500F0A7
:100D6A00D5C501F02DEC00F0AEC8E1FFAFC8E2FF37
:100D7A0000C0E6FF0801AC4BAD2BDED7D6C5E1FFBC
:100D8A00D7C5E2FFFF0EE66ED4C500F0D5C501F067
:100D9A002DEC00F0D6C5E1FFD7C5E2FFFF0EE66EE7
:0E0DAA00D4C500F0D5C501F02DEC00F012000C
:100DB80096C8AAF897C8ABF898C8ACF899C8ADF81F
:100DC8002EDF0050000A03E0FF0E006E01D0006A1B
:020DD800120007
:0E0DDA0096C8AAF897C8ABF8ABDF006A120003
:100DE80096C8AAF897C8ABF898C8ACF899C8ADF8EF
:100DF8009AC8AEF89BC8AFF89CC8B0F89DC8B1F8BF
:100E08009EC8B2F89FC8B3F8FCDD0050000A03E0A2
:100E1800FF0E006E14D09EC8E9FF9FC8EAFFEECF10
:100E2800C5F8EECFC6F8EECFC7F8EECFC8F867DC46
:100E38000050000A03E0FF0E006E01D0006A1200A5
:100E48009D0E0801AA6F080EAB6F96C8ACF897C83C
:100E5800ADF80B0EAE6F000EAF6F2ADF9A6B0B0E5C
:100E68009A5D3EE29C6B9D0EE96E080EEA6E9A5101
:100E7800E926D8B0EA2AEECFAAF842DF0050010AE4
:100E880003E1010E08019C6F08019D0EE96E080E32
:100E9800EA6E9A51E926D8B0EA2AEE50200A02E111
:100EA800010E9C6F9D0EE96E080EEA6E9A51E926B6
:100EB800D8B0EA2AEE502E0A02E1010E9C6F9C512E
:100EC800000A0BE198C8E1FF99C8E2FFE66AC40E80
:100ED8000501C36FFF0E006EB2D008019A2BBFD771
:100EE8009B6B9A6B080E9A5D42E29D0EE96E080EA6
:100EF800EA6E9A51E926D8B0EA2AEE50200A33E081
:100F08000C0E9625E96E000E9721EA6EEECF01F0E1
:100F180001A618D09B519825A86F000E9921A96F9A
:100F28009D0EE96E080EEA6E9A51E926D8B0EA2AB3
:100F3800EECFAAF8B2DEA8C8E1FFA9C8E2FF00C058
:100F4800E6FF10D09B519825E16E000E9921E26EC4
:100F58009D0EE96E080EEA6E9A51E926D8B0EA2A83
:100F6800EECFE6FF01D003D09B2B9A2BBBD7A55120
:100F7800200A09E19B519825E16E000E9921E26E45
:100F8800E66A006A5CD09B519825E16E000E9921B3
:100F9800E26E2E0EE66E9B2B080E9A6F0B0E9A5D74
:100FA80045E29D0EE96E080EEA6E9A51E926D8B020
:100FB800EA2AEECFAAF8A4DE0050000A01E136D0F2
:100FC8000C0E08019625E96E000E9721EA6EEECF09
:100FD80001F001A818D09B519825A86F000E9921FF
:100FE800A96F9D0EE96E080EEA6E9A51E926D8B0EF
:100FF800EA2AEECFAAF851DEA8C8E1FFA9C8E2FFA5
:1010080000C0E6FF10D09B519825E16E000E992193
:10101800E26E9D0EE96E080EEA6E9A51E926D8B086
:10102800EA2AEECFE6FF9B2B9A2BB8D708019B51F3
:101038009825E16E000E9921E26EE66A006A1200B8
:10104800056A046A0B0E055C22E2010E0414016EA7
:10105800070E006E01C003F0005004E00336039051
:10106800FF0FFBD7FE0E0414026E02C000F0003220
:10107800009E00500310046E055008019625D96E95
:10108800000E9721DA6EDE500426052ADBD704C04D
:0410980000F0120052
:10109C000B6A0A6A096A00500402F4CF09F0F3CF14
:1010AC0008F001500502F4CF0BF0F3CF0AF000501A
:1010BC000502F3500926F4500A22E86A0B2201506B
:1010CC000402F3500926F4500A22E86A0B2208C0E5
:1010DC0000F009C001F00AC002F00BC003F01200CE
:1010EC00010E08019625E96E000E9721EA6E98C84C
:1010FC00E1FF99C8E2FFEECFE6FF010E9825E16E05
:10110C00000E9921E26E030E9625E96E000E9721D2
:10111C00EA6EEECFE6FF020E9825E16E000E9921E5
:10112C00E26E050E9625E96E000E9721EA6EEECF63
:10113C00E6FF030E9825E16E000E9921E26E070E74
:10114C009625E96E000E9721EA6EEECFE6FF040EAF
:10115C009825E16E000E9921E26E090E9625E96E36
:10116C00000E9721EA6EEECFE6FF050E9825E16E94
:10117C00000E9921E26E0E0E9625E96E000E972157
:10118C00EA6EEECFE6FF060E9825E16E000E992171
:10119C00E26E100E9625E96E000E9721EA6EEECFE8
:1011AC00E6FF070E9825E16E000E9921E26E120EF5
:1011BC009625E96E000E9721EA6EEECFE6FF080E3B
:1011CC009825E16E000E9921E26E140E9625E96EBB
:1011DC00000E9721EA6EEECFE6FF090E9825E16E20
:1011EC00000E9921E26E160E9625E96E000E9721DF
:1011FC00EA6EEECFE6FF0A0E9825E16E000E9921FD
:10120C00E26E180E9625E96E000E9721EA6EEECF6F
:10121C00E6FF0B0E9825E16E000E9921E26E1C0E76
:10122C009625E96E000E9721EA6EEECFE6FF0C0EC6
:10123C009825E16E000E9921E26E1E0E9625E96E40
:0E124C00000E9721EA6EEECFE6FF006A120058
:10125A00E6EC01F0000E000A03E1040E00016A192F
:10126A0009E196C89EF897C89FF898C8A0F899C847
:10127A00A1F814D0090E006E96C89EF897C89FF878
:10128A0098C8A0F899C8A1F8005008E008019E374C
:10129A009E919F37A037A137FF0FF7D70801180E85
:1012AA00DD6F9EC8DEF89FC8DFF8A0C8E0F8A1C8C5
:1012BA00E1F8FF0EE26FE8EC01F0005205E0D9EC2C
:1012CA0001F0010E006E95D0D6C5E1FFD7C5E2FF49
:1012DA00FF0EE66ED4C500F0D5C501F02DEC00F086
:1012EA00D6C5E1FFD7C5E2FFFF0EE66ED4C500F012
:1012FA00D5C501F02DEC00F0D6C5E1FFD7C5E2FF58
:10130A00FE0EE66ED4C500F0D5C501F02DEC00F056
:10131A0008019C6B9D6B9D51010802E19C51FF08DD
:10132A0016E39C519A25E96E9D519B21EA6ED6C51A
:10133A00E1FFD7C5E2FFEECFE6FFD4C500F0D5C581
:10134A0001F02DEC00F008019C4B9D2BE4D7D6C58B
:10135A00E1FFD7C5E2FFFF0EE66ED4C500F0D5C5A2
:10136A0001F02DEC00F0D6C5E1FFD7C5E2FFFF0E74
:10137A00E66ED4C500F0D5C501F02DEC00F0D6C557
:10138A00E1FFD7C5E2FFFF0EE66ED4C500F0D5C572
:10139A0001F02DEC00F000C09CF8000E08019D6FD2
:1013AA001F0E9C15016E9DC802F0000E021601C0A8
:1013BA009CF802C09DF8000E021802E1050E011801
:1013CA0005E0D9EC01F0020E006E13D0D6C5E1FF9C
:1013DA00D7C5E2FFFF0EE66ED4C500F0D5C501F011
:1013EA002DEC00F00050FF0A01E0F0D7D9EC01F033
:0413FA00006A120073
:1013FE00026A080E025C17E2F30E0224F66E800EED
:10140E00F76E000EF722000EF86E000EF82209009D
:10141E00F5CF01F001500801541903E1010E006EE1
:0A142E0003D0022AE6D7006A12007C
:10143800010E08015425E96E000E5521EA6EEECF23
:1014480003F0000E046E000E046E03C001F0006A83
:1014580000C003F001C004F054C8D9FF55C8DAFF32
:10146800DE500026000E012200C003F001C004F087
:0A14780000C003F001C004F01200F0
:10148200030E08015425E96E000E5521EA6EEECFD7
:1014920009F0000E0A6E0B6E0C6E000E0A6E0B6ED9
:1014A2000C6E0BC003F00AC002F009C001F0006A22
:1014B20000C009F001C00AF002C00BF003C00CF03A
:1014C200020E5425D96E000E5521DA6EDE5000242C
:1014D200056E000E0120066E000E0220076E000E41
:1014E2000320086E05C009F006C00AF007C00BF021
:1014F20008C00CF007C003F006C002F005C001F0FE
:10150200006A00C009F001C00AF002C00BF003C07B
:101512000CF0010E5425D96E000E5521DA6EDE5004
:101522000024056E000E0120066E000E0220076EDA
:10153200000E0320086E05C009F006C00AF007C0BD
:101542000BF008C00CF007C003F006C002F005C0A3
:1015520001F0006A00C009F001C00AF002C00BF0FD
:1015620003C00CF054C8D9FF55C8DAFFDE5000267C
:10157200000E01220222032200C009F001C00AF07B
:1015820002C00BF003C00CF000C009F001C00AF069
:0A15920002C00BF003C00CF01200C1
:10159C000501BE51030A0AE16BEC03F00050000A8E
:1015AC0005E0FF0EC36FFF0E006E50D0BE51010A56
:1015BC0005E1FF0EC36FFF0E006E48D003014151D1
:1015CC00080157190EE1030140510801561909E1B0
:1015DC0003013F510801551904E103013E51080173
:1015EC00541905E1020E0501BE6F006A2FD054C8D4
:1015FC0096F855C897F856C898F857C899F8DCEC7F
:10160C0006F00050000A06E0FF0E0501C36FFF0E46
:10161C00006E1CD0420E0801966F030E976FEDEC16
:10162C0006F00050000A06E0FF0E0501C36FFF0E26
:10163C00006E0CD00501010EBE6F54C83EF355C8A8
:0E164C003FF356C840F357C841F3006A12003E
:0E165A0054C8E9FF55C8EAFFEECF00F01200B9
:1016680054C896F855C897F856C898F857C899F8BE
:1016780058C89AF859C89BF8ECDD0050000A03E0F6
:0A168800FF0E006E01D0006A120090
:1016920056C896F857C897F858C898F859C899F88C
:1016A2005AC89AF85BC89BF85CC89CF85DC89DF85C
:1016B200920E08019E6F080E9F6FF4EC06F0005028
:1016C200000A03E0FF0E006EA0D13AC300F03BC354
:1016D20001F03CC302F03DC303F0010E005E000EB8
:1016E200015A025A035A005008015A15046E015059
:1016F2005B15056E02505C15066E03505D15076E94
:10170200050E026E04C000F005C001F0025005E0B3
:10171200003600900136FF0FFAD70801420E00246E
:10172200906F030E0120916F010E5E6F080E5E5DD9
:101732000CE25E519025E96E000E9121EA6EEE50A8
:101742007E0A01E102D05E2BF1D75E51080A0BE15D
:1017520090C896F891C897F854C898F855C899F85F
:1017620024EC07F052D1700E0801AA6F080EAB6F7D
:1017720090C8ACF891C8ADF8200EAE6F000EAF6FF6
:101782005CEC06F056C896F857C897F858C898F80F
:1017920059C899F8010E5A5F000E5B5B5C5B5D5B9A
:1017A2005AC89AF85BC89BF85CC89CF85DC89DF85B
:1017B200920E9E6F080E9F6FF4EC06F00050000A26
:1017C20003E0FF0E006E21D13AC300F03BC301F0EB
:1017D2003CC302F03DC303F0010E005E000E015A4D
:1017E200025A035A005008015A15046E01505B1543
:1017F200056E02505C15066E03505D15076E050EF0
:10180200026E04C000F005C001F0025005E000368F
:1018120000900136FF0FFAD7420E0026030E012276
:1018220000C06EF801C06FF80B0E0024E96E000EC6
:101832000120EA6E3F0EEE14016E01500F0A0CE019
:101842000801700E966F080E976F54C898F855C825
:1018520099F824EC07F0D9D0700E0801966F080EA3
:10186200976F24EC08F000C060F8010E08015F6F6A
:101872000B0E6E25E96E000E6F21EA6E3F0EEE141E
:10188200016E01500F0A06E0C00E0501C36FFF0E84
:10189200006EBBD00D0E08016E25E96E000E6F21A1
:1018A200EA6EEE50601906E0C10E0501C36FFF0E2D
:1018B200006EABD06EC8E9FF6FC8EAFFEECF00F052
:1018C2001F0E0014016E015008015F1906E0C20EDE
:1018D2000501C36FFF0E006E98D06EC896F86FC8F0
:1018E20097F8610E0801986F080E996F76EC08F070
:1018F2005E6B5F05006E016A000E015A0D0E046EEA
:10190200000E056E4EEC08F05E510026000E01221C
:1019120000505425E16E01505521E26E610EE96ED0
:10192200080EEA6E5E51E926D8B0EA2AEECFE6FF4B
:101932005E2B0D0E5E5D0CE2610EE96E080EEA6E24
:101942005E51E926D8B0EA2AEE50000A01E0D1D76A
:101952006EC8E9FF6FC8EAFFEECF01F001AC02D01A
:10196200006A53D05F2B56C896F857C897F858C8E4
:1019720098F859C899F8010E5A5F000E5B5B5C5BE0
:101982005D5B5AC89AF85BC89BF85CC89CF85DC856
:101992009DF8920E9E6F080E9F6FF4EC06F00050B9
:1019A200000A03E0FF0E006E30D03AC300F03BC3E2
:1019B20001F03CC302F03DC303F0010E005E000ED5
:1019C200015A025A035A005008015A15046E015076
:1019D2005B15056E02505C15066E03505D15076EB1
:1019E200050E026E04C000F005C001F0025005E0D1
:1019F200003600900136FF0FFAD70801420E00248C
:0C1A02006E6F030E01206F6F33D71200CF
:101A0E0054C802F055C803F057C800F058C801F08A
:101A1E00010E0801575F000E585B0050011009E0DF
:101A2E0002C0E1FF03C0E2FF56C8E6FF024A032AE6
:0C1A3E00EBD754C800F055C801F01200AE
:101A4A000501BE51020A16E1010E03013E250801F5
:101A5A00546F000E03013F210801556F000E030168
:101A6A0040210801566F000E030141210801576FFA
:101A7A0090DD2ED0BE51000A05E1FF0EC36FFF0EA6
:101A8A00006E26D0420E0801966F030E976FEDEC9A
:101A9A0006F00050000A06E0FF0E0501C36FFF0EB4
:101AAA00006E16D0010E03013E25006E000E3F2186
:101ABA00016E000E4021026E000E4121036E00C02D
:101ACA003EF301C03FF302C040F303C041F3006A92
:021ADA001200F8
:101ADC00160E08014225546F000E4321556FA6DCEB
:101AEC000B0E046E00C002F001C003F0045005E0C0
:101AFC0003320232039EFF0FFAD71F0E0214006E40
:101B0C0000C0B9F5160E4225546F000E4321556FD7
:101B1C008DDC050E046E00C002F001C003F0045011
:101B2C0005E003320232039EFF0FFAD73F0E021478
:101B3C00006E00C0BAF5160E4225546F000E4321FC
:101B4C00556F74DC00C002F0023602903F0E021496
:101B5C00006E00C0BBF5180E4225546F000E4321D9
:101B6C00556F64DC090E046E00C002F001C003F076
:101B7C00045005E003320232039EFF0FFAD77F0EAA
:101B8C000214006E03C001F0000E011600C0B5F582
:101B9C0001C0B6F5BC0E0026070E012200C0B5F53B
:101BAC0001C0B6F5180E4225546F000E4321556F37
:101BBC003DDC050E046E00C002F001C003F00450C1
:101BCC0005E003320232039EFF0FFAD70F0E021408
:101BDC00006E00C0B7F5180E4225546F000E43215D
:101BEC00556F24DC1F0E0014006E00C0B8F5006A9F
:021BFC001200D5
:101BFE00080142517A0804E3610E425DD8B0429B5F
:061C0E0042C800F01200C4
:101C140046C801F047C802F0010E0801465F000EF5
:101C2400475B000E021802E1000E01181FE042C8D3
:101C3400E9FF43C8EAFF44C8D9FF45C8DAFFEE50BC
:101C4400DE180FE042C8E9FF43C8EAFF44C8D9FFE1
:101C540045C8DAFFDE50EE5C006E016A000E015AE0
:101C640007D0424B432B444B452BD2D7006A016A21
:021C740012005C
:101C760042C802F043C803F002C000F003C001F0FE
:101C8600024A032A00C0E9FF01C0EAFFEE5201E062
:101C9600F3D708014251025C006E43510358016EAE
:0A1CA600010E005E000E015A12004C
:101CB00042C8AAF884EC06F0005208E142C854F881
:101CC000FFEC09F0005202E1006A02D0010E006E42
:021CD000120000
:101CD200FF0E080144254E6F000E45214F6F0B0E7B
:101CE2004225546F000E4321556FB6DC4EC8E1FF0A
:101CF2004FC8E2FF00C0E6FF000E44254E6F010E02
:101D020045214F6F1C0E4225546F000E4321556F23
:101D120041EC0AF04EC8E1FF4FC8E2FF00C0E6FF07
:101D220001C0E6FF02C0E6FF03C0E6FF040E442541
:101D3200526F010E4521536F140E4225546F000E4F
:101D42004321556F1CEC0AF000C003F001C004F0FF
:101D5200000E056E066E04C051F803C050F84E6BBB
:101D62004F6B1A0E4225546F000E4321556F1CEC27
:101D72000AF0000E026E036E4E5100264F510122F0
:101D8200505102225151032252C8E1FF53C8E2FFCF
:101D920000C0E6FF01C0E6FF02C0E6FF03C0E6FFA7
:101DA2000B0E4225E96E000E4321EA6E3F0EEE1441
:101DB200016E01500F0A26E044C854F845C855F890
:101DC200566BFF0E576F000E586F20DE44C854F852
:101DD20045C855F846C856F847C857F848C858F88D
:101DE20049C859F84AC85AF84BC85BF84CC85CF85D
:101DF2004DC85DF84DDC0050000A03E0FF0E006E96
:101E020007D005D044C8E1FF45C8E2FFE66A006A90
:021E12001200BC
:101E1400010E066E000E076E086E096E056A800ECE
:101E2400006E800E000A005C02E1200E055C23E2D5
:101E3400065008014211016E07504311026E08500A
:101E44004411036E09504511046E0450091808E149
:101E54000350081805E10250071802E10150061862
:101E640003E105C000F009D00636069007360836AF
:0C1E74000936052AD4D7FF0E006E1200BC
:101E80000450085E0550D8A0053C095E0650D8A055
:101E9000063C0A5E0750D8A0073C0B5E0336070ECF
:101EA0000C6E0334083609360A360B36045003A08C
:101EB0000ED0085E0550D8A0053C095E0650D8A09B
:101EC000063C0A5E0750D8A0073C0B5E0DD00826E2
:101ED0000550D8B0053C09260650D8B0063C0A2665
:101EE0000750D8B0073C0B2603360C2EDAD7023445
:101EF000083609360A360B36045003A00ED0085EA9
:101F00000550D8A0053C095E0650D8A0063C0A5EE4
:101F10000750D8A0073C0B5E0DD008260550D8B05E
:101F2000053C09260650D8B0063C0A260750D8B012
:101F3000073C0B260236070E0C6E023408360936B3
:101F40000A360B36045002A00ED0085E0550D8A009
:101F5000053C095E0650D8A0063C0A5E0750D8A092
:101F6000073C0B5E0DD008260550D8B0053C09266D
:101F70000650D8B0063C0A260750D8B0073C0B26BE
:101F800002360C2EDAD70134083609360A360B36FB
:101F9000045002A00ED0085E0550D8A0053C095E92
:101FA0000650D8A0063C0A5E0750D8A0073C0B5E3E
:101FB0000DD008260550D8B0053C09260650D8B0EB
:101FC000063C0A260750D8B0073C0B260136070E00
:101FD0000C6E0134083609360A360B36045001A05F
:101FE0000ED0085E0550D8A0053C095E0650D8A06A
:101FF000063C0A5E0750D8A0073C0B5E0DD00826B1
:102000000550D8B0053C09260650D8B0063C0A2633
:102010000750D8B0073C0B2601360C2EDAD7003417
:10202000083609360A360B36045001A00ED0085E79
:102030000550D8A0053C095E0650D8A0063C0A5EB3
:102040000750D8A0073C0B5E0DD008260550D8B02D
:10205000053C09260650D8B0063C0A260750D8B0E1
:10206000073C0B260036070E0C6E00340836093686
:102070000A360B36045000A00ED0085E0550D8A0DA
:10208000053C095E0650D8A0063C0A5E0750D8A061
:10209000073C0B5E0DD008260550D8B0053C09263C
:1020A0000650D8B0063C0A260750D8B0073C0B268D
:1020B00000360C2EDAD700B00ED00450082605509A
:1020C000D8B0053C09260650D8B0063C0A26075071
:0820D000D8B0073C0B261200FA
:1020D8000E0E08014225546F000E4321556F1CEC6B
:1020E8000AF00B0E046E00C002F001C003F00450A9
:1020F80005E003320232039EFF0FFAD71F0E0214C7
:10210800006E00C04AF50E0E4225546F000E4321A2
:10211800556F1CEC0AF0050E046E00C002F001C0F9
:1021280003F0045005E003320232039EFF0FFAD792
:102138003F0E0214006E00C04BF50E0E4225546F80
:10214800000E4321556F1CEC0AF000C002F0023665
:1021580002903F0E0214006E00C04CF5100E42258E
:10216800546F000E4321556F1CEC0AF0090E046EE3
:1021780000C002F001C003F0045005E0033202324F
:10218800039EFF0FFAD77F0E0214006E03C001F002
:10219800000E011600C046F501C047F5BC0E00262A
:1021A800070E012200C046F501C047F5100E422572
:1021B800546F000E4321556F1CEC0AF0050E046E97
:1021C80000C002F001C003F0045005E003320232FF
:1021D800039EFF0FFAD70F0E0214006E00C048F5D9
:1021E800100E4225546F000E4321556F1CEC0AF067
:0E21F8001F0E0014006E00C049F5006A1200B0
:102206000B1E0A1E091E081E082AD8B4092AD8B4AD
:082216000A2AD8B40B2A1200B9
:10221E000801436B446B270E445D02E1100E435DD3
:10222E00D8B0B0D0000E000A02E1000E421919E13A
:10223E00E6EC01F0010EDD6FDE6BDF6BE06BE16B48
:10224E00FF0EE26FE8EC01F000C045F8D9EC01F0AA
:10225E0008014551000A04E100016A6B006A94D03E
:10226E008DD0E6EC01F0370E0801DD6FDE6BDF6B13
:10227E00E06BE16BFF0EE26FE8EC01F000C045F899
:10228E00D9EC01F008014551010AD8A476D0E6EC4C
:10229E0001F0290EDD6F000EDE6F000EDF6F000EF7
:1022AE00E06F400EE16FFF0EE26FE8EC01F000C050
:1022BE0045F8D9EC01F008014551000A5DE1000E28
:1022CE00000A02E1020E421952E1E6EC01F03A0E6A
:1022DE00DD6FDE6BDF6BE06BE16BFF0EE26FE8EC48
:1022EE0001F000C045F8D6C5E1FFD7C5E2FFFF0EED
:1022FE00E66ED4C500F0D5C501F02DEC00F000C09F
:10230E0046F8D6C5E1FFD7C5E2FFFF0EE66ED4C58F
:10231E0000F0D5C501F02DEC00F0D6C5E1FFD7C514
:10232E00E2FFFF0EE66ED4C500F0D5C501F02DEC30
:10233E0000F0D6C5E1FFD7C5E2FFFF0EE66ED4C5AD
:10234E0000F0D5C501F02DEC00F0D9EC01F008013C
:10235E004551000A0BE146AD04D0040E00016A6F30
:10236E0003D00001030E6A6F006A0ED005D0000183
:10237E00010E6A6F006A08D001D004D00801434BE9
:0A238E00442B49D7010E006E120027
:102398000134083609360450085E0550D8A0053CBB
:1023A800095E003601360F0E0C6E01340836093608
:1023B800045000A006D0085E0550D8A0053C095E70
:1023C80005D008260550D8B0053C09260036013648
:1023D8000C2EEBD700B006D0045008260550D8B014
:0823E800053C0926000012006B
:1023F0000801C56BC66BC76BC86B83EC03F000505C
:10240000000A03E0FF0E006E2CD1420E0801436F5C
:10241000030E446F420E456F030E466FFE0E4325BA
:10242000546F010E4421556F1CEC0AF00150AA0AAA
:1024300002E1550E001806E0FC0E0501C36FFF0E09
:10244000006E0FD145C8E9FF46C8EAFFEECF01F0A4
:102450000150E90A15E045C8E9FF46C8EAFFEECF9A
:1024600001F00150EB0A0BE1020E08014525E96E6F
:10247000000E4621EA6EEE50900A01E101D006D02E
:10248000FB0E0501C36FFF0E006EEBD00801426B1F
:10249000010E425DD8B0E4D00A0E006E000E016E4F
:1024A00042C804F0000E056E4EEC08F0060E002641
:1024B000030E012200C047F801C048F8BE0E4325B4
:1024C000546F010E4421556F040E026E42C800F095
:1024D000000E016E025005E0003600900136FF0F3D
:1024E000FAD700505427015055232DEC0BF047C864
:1024F000E1FF48C8E2FF00C0E6FF0A0E006E000ED2
:10250000016E42C804F0000E056E4EEC08F0060E97
:102510000026030E0122010E0024476F000E012049
:10252000486FBE0E4325546F010E4421556F040EB3
:10253000026E42C800F0000E016E025005E0003647
:1025400000900136FF0FFAD7005054270150552351
:10255000040E5427000E55232DEC0BF047C8E1FF65
:1025600048C8E2FF00C0E6FF0A0E006E000E016ED2
:1025700042C804F0000E056E4EEC08F0060E002670
:10258000030E0122020E0024476F000E0120486F47
:10259000BE0E4325546F010E4421556F040E026E8A
:1025A00042C800F0000E016E025005E000360090B7
:1025B0000136FF0FFAD70050542701505523080E5B
:1025C0005427000E552341EC0AF047C8E1FF48C8E4
:1025D000E2FF00C0E6FF01C0E6FF02C0E6FF03C065
:1025E000E6FF0A0E006E000E016E42C804F0000EF7
:1025F000056E4EEC08F0060E0026030E0122060EB4
:102600000024476F000E0120486FBE0E4325546F13
:10261000010E4421556F040E026E42C800F0000EF8
:10262000016E025005E0003600900136FF0FFAD728
:1026300000505427015055230C0E5427000E5523EB
:1026400041EC0AF047C8E1FF48C8E2FF00C0E6FFDE
:1026500001C0E6FF02C0E6FF03C0E6FF422B18D729
:04266000006A1200FA
:102664000501BE51030A0AE16BEC03F00050000AB5
:1026740005E0FF0EC36FFF0E006E32D0BE51010A9B
:1026840005E1FE0EC36FFF0E006E2AD042C854F857
:1026940043C855F844C856F845C857F8420E0801CF
:1026A400586F030E596F34EC0BF0000E00180FE056
:1026B400FF0E03013E6FFF0E3F6FFF0E406FFF0ED4
:1026C400416FFE0E0501C36FFF0E006E09D042C8B4
:1026D4003EF343C83FF344C840F345C841F3006A9E
:0226E4001200E2
:1026E6001A0E08012125E16E000E2221E26E23C892
:1026F600E6FF1A0E2125006E000E2221016E010E44
:102706000024E16E000E0120E26E24C8E6FF140EDE
:102716002125E16E000E2221E26E25C8E6FF140E89
:102726002125006E000E2221016E010E0024E16EAD
:0E273600000E0120E26E26C8E6FF006A1200C7
:1027440055DE420E0801226F030E236F0501C351AB
:10275400FF0A03E1FF0E006E76D2C351FC0A03E1C7
:10276400FF0E006E70D2C351000AD8A466D00F0EBB
:1027740003010715016E01C024F801500B0A0AE099
:10278400080124510C0A06E0F80E0501C36FFF0E80
:10279400006E59D208C3C5F809C3C6F80AC3C7F8FE
:1027A4000BC3C8F883EC03F00050000A03E0FF0EEB
:1027B400006E49D2420E0801226F030E236FFE0EF3
:1027C4002225546F010E2321556F1CEC0AF0015091
:1027D400AA0A02E1550E001806E0FC0E0501C36FBB
:1027E400FF0E006E30D222C8E9FF23C8EAFFEECF05
:1027F40001F00150E90A16E022C8E9FF23C8EAFF04
:10280400EECF01F00150EB0A0BE1020E0801222584
:10281400E96E000E2321EA6EEE50900A01E102D027
:10282400006A02D0010E006E005206E1FB0E0501A3
:10283400C36FFF0E006E07D21ED00501C351FB0A01
:102844001AE1800E0301066F086B096B0A6B0B6BB0
:10285400200E08012225546F000E2321556F41ECF0
:102864000AF000C00CF301C00DF302C00EF303C064
:102874000FF30501C36B0501C351000AD8A4DED1CF
:102884000B0E08012225546F000E2321556F1CECFA
:102894000AF000C010F301C011F30D0E2225546F8D
:1028A400000E2321556F2DEC0BF000C012F30E0E19
:1028B4002225546F000E2321556F1CEC0AF000C032
:1028C40013F301C014F3100E2225546F000E2321BC
:1028D400556F2DEC0BF000C015F3240E2225546F18
:1028E400000E2321556F41EC0AF000C016F301C01D
:1028F40017F302C018F303C019F3280E2225546FEE
:10290400000E2321556F1CEC0AF000C01AF301C01D
:102914001BF3030113510825006E14510921016EA4
:10292400000E0A21026E000E0B21036E00C01CF380
:1029340001C01DF302C01EF303C01FF32C0E0801D7
:102944002225546F000E2321556F41EC0AF000C07C
:1029540020F301C021F302C022F303C023F3110EBC
:102964002225546F000E2321556F1CEC0AF000C081
:1029740024F301C025F3300E2225546F000E2321C9
:10298400556F1CEC0AF0000E026E036E0301085131
:102994000026095101220A5102220B51032200C0D0
:1029A4002AF301C02BF302C02CF303C02DF31CC384
:1029B40026F31DC327F31EC328F31FC329F30801FD
:1029C400216B030115510801215D18E20301165121
:1029D4002625006E17512721016E18512821026EF9
:1029E40019512921036E00C026F301C027F302C048
:1029F40028F303C029F30801212BE3D7050E006E49
:102A040010C33AF311C33BF3000E03013C6F3D6F57
:102A1400005005E03B333A333B9FFF0FFAD7000EDB
:102A24003C6F3D6F10C309F611C30AF6000E060190
:102A34000B6F0C6F0A3309330A9F0A3309330A9F59
:102A4400000E0B6F0C6F10C342F811C343F8000E55
:102A54000801446F456F0AEC0FF000C0EDF512C396
:102A640042F8000E0801436F446F456F0AEC0FF003
:102A740000C0ECF53AC342F83BC343F83CC344F806
:102A84003DC345F80AEC0FF000C00DF609C642F844
:102A94000AC643F80BC644F80CC645F80AEC0FF016
:102AA40000C00EF60501EC51ED25006E00C0F3F5F3
:102AB400010EEF6F000EF06F000EF16F000EF26F5B
:102AC400005007E0EF37EF91F037F137F237FF0F9F
:102AD400F8D7200E0801426F000E436F446F456F14
:102AE4000AEC0FF000500501F35D006E016A000E60
:102AF40000BEFF0E015A00C004F0010E006E000E6D
:102B0400016E000E026E000E036E045007E00036E4
:102B14000090013602360336FF0FF8D700C036F3B3
:102B240001C037F302C038F303C039F300C042F8E0
:102B340001C043F802C044F803C045F80AEC0FF0A2
:102B440000C0FBF520C3BFF521C3C0F522C3C1F506
:102B540023C3C2F50501C46BC56BC66BC76B26C323
:102B640000F027C301F028C302F029C303F00301D6
:102B74000851005E0951015A0A51025A0B51035A75
:102B84000CC342F50DC343F50EC344F50FC345F51D
:102B940000500501425F0150435B0250445B035007
:102BA400455BECC500F0005007E045334433433344
:102BB4004233459FFF0FF8D7020E4227000E4323EE
:102BC400442345230301075325E1000E0501455D18
:102BD40008E1000E445D05E1FF0E435D02E1F70EDE
:102BE400425D04E30B0E0301076F14D0000E0501D0
:102BF400455D08E1000E445D05E10F0E435D02E111
:102C0400F70E425D04E3060E0301076F03D00301D0
:102C1400010E076F0F0E0715016E01C024F8015055
:102C24000B0A0AE0080124510C0A06E0F80E05011B
:102C3400C36FFF0E006E07D0006A05D00501FB0EBE
:082C4400C36FFF0E006E1200C9
:102C4C00160E08012125006E000E2221016E010EC8
:102C5C000024E16E000E0120E26EF8C500F0003693
:102C6C000090003600900036009000C0E6FF160E73
:102C7C002125006E000E2221016E010E0024026E31
:102C8C00000E0120036EF9C500F00032009E0032E8
:102C9C00009E0032009E02C0E9FF03C0EAFFEE5026
:102CAC00002602C0E1FF03C0E2FF00C0E6FF160EE3
:102CBC002125E16E000E2221E26E050E016EF9C592
:102CCC0000F0015004E000360090FF0FFBD700C06D
:102CDC00E6FF160E2125026E000E2221036EFAC5A8
:102CEC0000F00032009E02C0E9FF03C0EAFFEE5084
:102CFC00002602C0E1FF03C0E2FF00C0E6FF180E91
:102D0C002125006E000E2221016E010E0024E16EC1
:102D1C00000E0120E26EBC0E0501F45D026E02C0D5
:102D2C0000F00036009000C0E6FF180E08012125C7
:102D3C00006E000E2221016E010E0024026E000EA8
:102D4C000120036EF6C500F00032009E0032009E9A
:102D5C000032009E02C0E9FF03C0EAFFEE500026DD
:102D6C0002C0E1FF03C0E2FF00C0E6FF180E212500
:102D7C00E16E000E2221E26E050E016EF6C500F02A
:102D8C00015004E000360090FF0FFBD700C0E6FFB7
:102D9C00180E2125016E000E2221026E01C0E9FFE2
:102DAC0002C0EAFF0501F751EE24006E01C0E1FFFD
:0C2DBC0002C0E2FF00C0E6FF006A120047
:102DC8000E0E08012125006E000E2221016E010E53
:102DD8000024E16E000E0120E26EF8C500F0003616
:102DE8000090003600900036009000C0E6FF0E0EFE
:102DF8002125006E000E2221016E010E0024026EB4
:102E0800000E0120036EF9C500F00032009E00326A
:102E1800009E0032009E02C0E9FF03C0EAFFEE50A8
:102E2800002602C0E1FF03C0E2FF00C0E6FF0E0E6D
:102E38002125E16E000E2221E26E050E016EF9C514
:102E480000F0015004E000360090FF0FFBD700C0EF
:102E5800E6FF0E0E2125026E000E2221036EFAC532
:102E680000F00032009E02C0E9FF03C0EAFFEE5006
:102E7800002602C0E1FF03C0E2FF00C0E6FF100E1B
:102E88002125006E000E2221016E010E0024E16E44
:102E9800000E0120E26EBC0E0501F45D026E02C058
:102EA80000F00036009000C0E6FF100E0801212552
:102EB800006E000E2221016E010E0024026E000E2B
:102EC8000120036EF6C500F00032009E0032009E1D
:102ED8000032009E02C0E9FF03C0EAFFEE50002660
:102EE80002C0E1FF03C0E2FF00C0E6FF100E21258B
:102EF800E16E000E2221E26E050E016EF6C500F0AD
:102F0800015004E000360090FF0FFBD700C0E6FF39
:102F1800100E2125016E000E2221026E01C0E9FF6C
:102F280002C0EAFF0501F751EE24006E01C0E1FF7F
:0C2F380002C0E2FF00C0E6FF006A1200C9
:102F44000501C751FF0A08E1C651FF0A05E1C55151
:102F5400FF0A02E1C451FF0A05E1F60EC36FFF0E3A
:102F6400006E82D2BFC523F8C0C524F8C1C525F8B8
:102F7400C2C526F8030123510501C25D0EE1030118
:102F840022510501C15D09E1030121510501C05D23
:102F940004E1030120510501BF5D14E3455108011B
:102FA400265D0EE1050144510801255D09E1050195
:102FB40043510801245D04E1050142510801235DE8
:102FC40001E206D0F40E0501C36FFF0E006E4CD271
:102FD40008012D6BFBC500F0C4C501F0C5C502F0A6
:102FE400C6C503F0C7C504F0005007E0043203323D
:102FF40002320132049EFF0FF8D70450000809E1A1
:103004000350000806E10250000803E108010150E2
:103014002D5D56E223C8C1F824C8C2F825C8C3F8F8
:1030240026C8C4F83EEC04F000C023F801C024F81C
:1030340002C025F803C026F803500F0A08E1025025
:10304400FF0A05E10150FF0A02E10050FF0A06E110
:10305400F10E0501C36FFF0E006E06D2030123516A
:103064000801265D0EE1030122510801255D09E1F5
:10307400030121510801245D04E1030120510801E9
:10308400235D15E3050145510801265D0EE10501A7
:1030940044510801255D09E1050143510801245DFE
:1030A40004E1050142510801235D01E206D0F40E5A
:1030B4000501C36FFF0E006ED7D108012D2B8AD7EF
:1030C40036C300F037C301F038C302F039C303F04C
:1030D400010E005E000E015A025A035A0050050107
:1030E400C4150801296F01500501C51508012A6F8F
:1030F40002500501C61508012B6F03500501C715C1
:1031040008012C6F23C8C1F824C8C2F825C8C3F825
:1031140026C8C4F8D8EC04F00DC608F029C804F099
:103124002AC805F02BC806F02CC807F0085007E0A1
:103134000732063205320432079EFF0FF8D70450D7
:1031440000240801546F05500120556F06500220D9
:10315400566F07500320576F3AC300F03BC301F08A
:103164003CC302F03DC303F0010E005E000E015AA1
:10317400025A035A00502915046E01502A15056E8F
:1031840002502B15066E03502C15076E050E026EA9
:1031940004C000F005C001F0025005E000360090C4
:1031A4000136FF0FFAD70801420E0024276F030EE1
:1031B4000120286FCEEC0AF00050000A03E0FF0E55
:1031C400006E52D127C8E9FF28C8EAFFEECF01F00C
:1031D4000150E50A0AE027C8E9FF28C8EAFFEECF54
:1031E40001F0200E015C01E318D027C8E9FF28C8CC
:1031F400EAFFEECF01F0140E015C0EE20B0E0801A3
:103204002725E96E000E2821EA6E3F0EEE14016EAA
:1032140001500F0A01E101D096D06BEC03F000508D
:10322400000A03E0FF0E006E1FD10B0E08012725D4
:10323400E96E000E2821EA6EEECF01F001A62ED031
:1032440021C854F822C855F8566B100E576F010E5A
:10325400586F07EC0DF0FF0E21252E6F000E222172
:103264002F6F0B0E2725546F000E2821556F2DEC60
:103274000BF02EC8E1FF2FC8E2FF00C0E6FF21C813
:10328400AAF822C8ABF827C8ACF828C8ADF80B0ECA
:10329400AE6F000EAF6F5CEC06F04BD021512211E3
:1032A40048E027C842F828C843F821C844F822C88F
:1032B40045F8BFC546F8C0C547F8C1C548F8C2C5FA
:1032C40049F8C4C54AF8C5C54BF8C6C54CF8C7C5C6
:1032D4004DF869EC0EF00050000A03E0FF0E006E9A
:1032E400C3D027C842F828C843F86CEC10F027C8AC
:1032F40042F828C843F86EEC0DF0080E2125E16E63
:10330400010E2221E26EBFC5E6FFC0C5E6FFC1C5BE
:10331400E6FFC2C5E6FF0C0E2125E16E010E222157
:10332400E26EC4C5E6FFC5C5E6FFC6C5E6FFC7C570
:10333400E6FF010E0501C427000EC523C623C723DB
:10334400010E006E91D0010E08012927000E2A23D8
:103354002B232C23200E2725016E000E2821026E1C
:1033640001C027F802C028F8010E0501C427000E89
:10337400C523C623C7230250BD1902E1BC5101185D
:10338400D8A471D0420E0801276F030E286F2C5168
:10339400030139190EE108012B510301381909E120
:1033A40008012A510301371904E1080129510301D5
:1033B400361951E16BEC03F00050000A03E0FF0EF4
:1033C400006E52D00801296B2A6B2B6B2C6B23C81F
:1033D400C1F824C8C2F825C8C3F826C8C4F83EEC0E
:1033E40004F000C023F801C024F802C025F803C08B
:1033F40026F803500F0A08E10250FF0A05E10150C4
:10340400FF0A02E10050FF0A0BE1FF0E0501C46F41
:10341400FF0EC56FFF0EC66FFF0EC76F006A24D084
:1034240023C8C1F824C8C2F825C8C3F826C8C4F8FC
:10343400D8EC04F000C054F801C055F802C056F8A6
:1034440003C057F8CEEC0AF00050000A03E0FF0E68
:10345400006E0AD008D025EC0DF00050000A03E0FD
:0A346400FF0E006E01D0AED612007C
:10346E00BFC525F8C0C526F8C1C527F8C2C528F8BE
:10347E000501C46BC56BC66BC76B030123510801F5
:10348E00285D0EE1030122510801275D09E10301C8
:10349E0021510801265D04E1030120510801255D3B
:1034AE0015E3050145510801285D0EE10501445162
:1034BE000801275D09E1050143510801265D04E17C
:1034CE00050142510801255D01E206D0F40E050109
:1034DE00C36FFF0E006EF7D0420E08012D6F030E64
:1034EE002E6F25C8C1F826C8C2F827C8C3F828C849
:1034FE00C4F8D8EC04F000C054F801C055F802C06E
:10350E0056F803C057F8CEEC0AF00050000A03E05C
:10351E00FF0E006ED8D00801296B2A6B2B6B2C6B1B
:10352E000301395108012C5D0EE1030138510801E8
:10353E002B5D09E10301375108012A5D04E1030106
:10354E0036510801295DD8B095D02E510501BD190F
:10355E0003E1BC5108012D190DE10801420E2D6F3A
:10356E00030E2E6F25EC0DF00050000A03E0FF0E47
:10357E00006EA9D02DC842F82EC843F821C844F8D1
:10358E0022C845F80B0E0801466F000E476F0AEC75
:10359E000EF0000E011802E1000E001858E16BEC5F
:1035AE0003F00050000A03E0FF0E006E8CD00801FD
:1035BE00235124113DE02DC842F82EC843F823C8EC
:1035CE0044F824C845F8BFC546F8C0C547F8C1C57C
:1035DE0048F8C2C549F8C4C54AF8C5C54BF8C6C5B2
:1035EE004CF8C7C54DF869EC0EF00050000A03E028
:1035FE00FF0E006E68D0080E08012325E16E010E45
:10360E002421E26EBFC5E6FFC0C5E6FFC1C5E6FFD9
:10361E00C2C5E6FF0C0E2325E16E010E2421E26EDB
:10362E00C4C5E6FFC5C5E6FFC6C5E6FFC7C5E6FFCE
:10363E002DC842F82EC843F86CEC10F02DC842F895
:10364E002EC843F86EEC0DF0010E006E3CD0080152
:10365E00200E2D27000E2E23010E2927000E2A23C1
:10366E002B232C23010E0501C427000EC523C623D0
:10367E00C72356D76BEC03F00050000A03E0FF0E91
:10368E00006E21D025C8C1F826C8C2F827C8C3F8D5
:10369E0028C8C4F83EEC04F000C025F801C026F896
:1036AE0002C027F803C028F803500F0A08E10250A1
:1036BE00FF0A05E10150FF0A02E10050FF0A02E194
:0836CE00006A01D0DAD61200F7
:1036D600086A080E0C6E003408360450085ED8B02E
:0E36E60002D00826D89000360C2EF5D7120020
:1036F400C4C539F8C5C53AF8C6C53BF8C7C53CF8D2
:10370400BFC596F8C0C597F8C1C598F8C2C599F861
:10371400C4C59AF8C5C59BF8C6C59CF8C7C59DF82D
:103724003D0E08019E6F080E9F6FF4EC06F00050EA
:10373400000A03E0FF0E006E79D13AC300F03BC3E8
:1037440001F03CC302F03DC303F0010E005E000E25
:10375400015A025A035A00500501C415046E01505F
:10376400C515056E0250C615066E0350C715076EC3
:1037740004C035F805C036F806C037F807C038F875
:10378400050E026E04C000F005C001F0025005E011
:10379400003600900136FF0FFAD7420E00240801CC
:1037A400966F030E0120976F010E246F24EC08F02E
:1037B40000C025F8010E0501C45F000EC55BC65BA1
:1037C400C75B000E006E0801381908E10050371974
:1037D40005E10050361902E13551000A2BE136C3E8
:1037E40035F837C336F838C337F839C338F8010E1B
:1037F400355F000E365B375B385BBFC596F8C0C5D6
:1038040097F8C1C598F8C2C599F8C4C59AF8C5C552
:103814009BF8C6C59CF8C7C59DF83D0E9E6F080E63
:103824009F6FF4EC06F00050000A03E0FF0E006EF8
:10383400FDD007D0010E0801355F000E365B375B03
:10384400385B08013AC300F03BC301F03CC302F00B
:103854003DC303F0010E005E000E015A025A035AE2
:1038640000503515046E01503615056E025037159B
:10387400066E03503815076E050E026E04C000F084
:1038840005C001F0025005E0003600900136FF0F3C
:10389400FAD7420E0026030E012200C033F801C0FD
:1038A40034F80B0E0024E96E000E0120EA6E3F0E80
:1038B400EE14016E01500F0A06E0C00E0501C36F3D
:1038C400FF0E006EB3D00D0E08013325E96E000E15
:1038D4003421EA6EEE50251906E0C10E0501C36FCE
:1038E400FF0E006EA3D033C8E9FF34C8EAFFEECF61
:1038F40000F01F0E0014016E01500801241906E0A7
:10390400C20E0501C36FFF0E006E90D033C896F847
:1039140034C897F8260E0801986F080E996F76EC54
:1039240008F0236B260EE96E080EEA6E2351E92691
:10393400D8B0EA2AEECF42F8FFEC0DF000C041F80F
:103944002405006E016A000E015A0D0E046E000E6D
:10395400056E4EEC08F023510026000E01220050A3
:103964002125E96E01502221EA6EEECF42F8FFECE8
:103974000DF0415100180AE039C8C4F53AC8C5F53C
:103984003BC8C6F53CC8C7F5006A50D0232B0D0EC2
:10399400235D0CE2260EE96E080EEA6E2351E92639
:1039A400D8B0EA2AEE50000A01E0BCD70D0E235D20
:1039B4002AE2260EE96E080EEA6E2351E926D8B0F3
:1039C400EA2A2405006E016A000E015A0D0E046EE7
:1039D400000E056E4EEC08F023510026000E012265
:1039E40000502125D96E01502221DA6EEE50DE18E6
:1039F4000AE039C8C4F53AC8C5F53BC8C6F53CC8A1
:103A0400C7F5006A13D0242B33C8E9FF34C8EAFF92
:103A1400EECF01F001ACCED639C8C4F53AC8C5F52D
:0E3A24003BC8C6F53CC8C7F5010E006E120087
:103A3200010E0801256F266B276B286B296B2A6BF9
:103A42002B6B21C8E9FF22C8EAFFEE50000A06E10B
:103A5200C40E0501C36FFF0E006EEED021C842F8FE
:103A620022C843F83BEC0EF000C024F8236B21C8B7
:103A720042F822C843F83BEC0EF0800E026E800E34
:103A82000118025C02E10050235D15E22351212559
:103A9200E96E000E2221EA6EEECF42F858EC0EF0EB
:103AA200005206E1C30E0501C36FFF0E006EC4D0C3
:103AB2000801232BDCD72405006E000E24BFFF0E65
:103AC200016E000E015A00502125E96E015022219B
:103AD200EA6EEE502E0A02E12407EDD7800E000AAC
:103AE200006E800E2419005C06E3E20E0501C36F2E
:103AF200FF0E006EA1D021C842F822C843F83BEC69
:103B02000EF0800E24BF7F0E026E800E0118025C42
:103B120002E10050245D09E224512125E16E000EEC
:103B220024BFFF0E2221E26EE66A236B800E006E36
:103B3200800E24BF7F0E005C02E12451235D12E25D
:103B420023512125E96E000E2221EA6EEECF54F8B0
:103B5200FFEC09F0005203E0010E006E6DD0080187
:103B6200232BE4D7800E0C0A006E800E2419005C11
:103B720003E2010E006E60D0236B800E006E800E99
:103B820024BF7F0E005C02E12451235D3FE22351FA
:103B92002125E96E000E2221EA6EEECFC1F805EC76
:103BA20004F0005203E0010E266F29D02351212593
:103BB200E96E000E2221EA6EEECFC1F8EDEC03F0C1
:103BC200005203E0010E276F1AD023512125E96E1E
:103BD200000E2221EA6EEE502E0A11E129530CE169
:103BE200265304E0275302E0010E286F010E296FCD
:103BF200256B266B276B08D0010E006E1DD0255356
:103C020002E02A2B01D02B2B232BB7D7265304E01B
:103C1200275302E0010E286F2A51080804E32B51B2
:103C2200030801E303D0010E006E06D0285303E01F
:0A3C3200020E006E01D0006A1200BD
:103C3C0021C842F822C843F83BEC0EF000C026F82D
:103C4C0001C027F823C842F824C843F83BEC0EF017
:103C5C002751011802E10050261902E0006A2FD00A
:103C6C00256B23C842F824C843F83BEC0EF0800EB9
:103C7C00026E800E0118025C02E10050255D1DE20F
:103C8C0025512125E96E000E2221EA6EEECF42F875
:103C9C00FFEC0DF000C026F825512325E96E000E2F
:103CAC002421EA6EEECF42F8FFEC0DF026510018FD
:103CBC0002E0006A04D0252BD4D7010E006E12004E
:103CCC000450000A08E10550000A05E1FF0E006EE1
:103CDC007F0E016E58D00D6A096A086A01500010F7
:103CEC00D8B4000C015005180A6E0ABE0D1E0B6AE2
:103CFC0005AE05D0041E051E042AD8B4052A01AE53
:103D0C0005D0001E011E002AD8B4012A015005104E
:103D1C000A6E0ABE10D0CCEC11F00BB020D00DAE58
:103D2C00000C001E011E002AD8B4012A081E091E10
:103D3C00082AD8B4092A000C05AE0DD001BE07D054
:103D4C000150096E0050086E016A006AE8D7016ADA
:103D5C00006A002A000C011E001E0B2ADDD7082A5F
:103D6C00D8B4092A0450085CD8A4D9D70550095CEA
:103D7C00D8A4D5D7096A086A002AD8B4012A01AE9A
:083D8C00CED70000FF0C12006D
:103D940032C321F833C322F834C323F835C324F8DB
:103DA40003012351355D08E12251345D05E12151C0
:103DB400335D02E12051325D15E3050145510801EF
:103DC400245D0EE1050144510801235D09E105016B
:103DD40043510801225D04E1050142510801215DBE
:103DE40001E208D020C321F821C322F822C323F81A
:103DF40023C324F821C825F822C826F823C827F8A5
:103E040024C828F80EC604F021C800F022C801F026
:103E140023C802F024C803F0045007E0033202323E
:103E240001320032039EFF0FF8D7005003011C2516
:103E34000801546F015003011D210801556F025000
:103E440003011E210801566F035003011F210801BD
:103E5400576F09C600F00AC601F00BC602F00CC683
:103E640003F0010E005E000E015A025A035A00507C
:103E74002115046E01502215056E02502315066E9D
:103E840003502415076E04C000F005C001F000368D
:103E940000900136003600900136420E0024296F4E
:103EA400030E01202A6FCEEC0AF00050000A09E04C
:103EB400FF0E006EFF0E016EFF0E026E0F0E036EFC
:103EC4006DD108012B6B29C8E9FF2AC8EAFFEECFA0
:103ED40001F0EECF02F0EECF03F0EECF04F0045089
:103EE400000A08E10350000A05E10250000A02E159
:103EF4000150000A04E10801010E2B6FC0D0080133
:103F0400040E2927000E2A23010E2127000E222346
:103F140023232423050145510801245D0EE10501F5
:103F240044510801235D09E1050143510801225D63
:103F340004E1050142510801215D76E320C321F823
:103F440021C322F822C323F823C324F86BEC03F023
:103F54000050000A09E0FF0E006EFF0E016EFF0E16
:103F6400026E0F0E036E1AD10EC604F021C800F0C3
:103F740022C801F023C802F024C803F0045007E06B
:103F84000332023201320032039EFF0FF8D7005091
:103F940003011C250801546F015003011D21080170
:103FA400556F025003011E210801566F035003018F
:103FB4001F210801576F09C600F00AC601F00BC69D
:103FC40002F00CC603F0010E005E000E015A025A04
:103FD400035A00502115046E01502215056E02503B
:103FE4002315066E03502415076E04C000F005C0A7
:103FF40001F0003600900136003600900136420E82
:104004000024296F030E01202A6FCEEC0AF0005021
:10401400000A09E0FF0E006EFF0E016EFF0E026E35
:104024000F0E036EBBD01CD008012A510501BD1927
:1040340003E1BC510801291913E10801420E296F5B
:10404400030E2A6F25EC0DF00050000A09E0FF0E64
:10405400006EFF0E016EFF0E026E0F0E036E9ED0F9
:1040640008012451281908E12351271905E1225197
:10407400261902E12151251901E101D024D76BEC65
:1040840003F00050000A09E0FF0E006EFF0E016EFF
:10409400FF0E026E0F0E036E81D008012B5309E14F
:1040A400FF0E006EFF0E016EFF0E026E0F0E036E0A
:1040B40075D029C8E1FF2AC8E2FFFF0EE66EFF0EA5
:1040C400E66EFF0EE66E0F0EE66E0EC604F021C815
:1040D40000F022C801F023C802F024C803F0045001
:1040E40007E00332023201320032039EFF0FF8D799
:1040F400005003011C250801426F015003011D21DA
:104104000801436F025003011E210801446F03504C
:1041140003011F210801456F32EC13F00050000A1F
:1041240007E0FF0E006EFF0E016E026E036E36D0C6
:1041340003013151FF0A08E13051FF0A05E12F5113
:10414400FF0A02E12E51FF0A16E02EC300F02FC32E
:1041540001F030C302F031C303F0010E005E000E23
:10416400015A025A035A00C02EF301C02FF302C0B1
:1041740030F303C031F321C832F322C833F323C828
:1041840034F324C835F3010E0501EE6F21C800F0A5
:0E41940022C801F023C802F024C803F0120074
:1041A2000EC604F025C800F026C801F027C802F0A8
:1041B20028C803F0045007E0033202320132003211
:1041C200039EFF0FF8D700C02AF801C02BF802C0E7
:1041D2002CF803C02DF803011C510024086E1D5158
:1041E2000120096E1E5102200A6E1F5103200B6E20
:1041F20008C02AF809C02BF80AC02CF80BC02DF809
:1042020009C600F00AC601F00BC602F00CC603F0A4
:10421200010E005E000E015A025A035A00500801B4
:104222002515046E01502615056E02502715066EDF
:1042320003502815076E04C000F005C001F00036D7
:1042420000900136003600900136420E0024326F93
:10425200030E0120336F08C0C5F809C0C6F80AC0B2
:10426200C7F80BC0C8F883EC03F00050000A03E063
:10427200FF0E006E46D032C8E1FF33C8E2FF21C80C
:10428200E6FF22C8E6FF23C8E6FF24C8E6FF2AC8E5
:104292002EF82BC82FF82CC830F82DC831F8080199
:1042A200296B030115510801295D22E22EC842F84B
:1042B2002FC843F830C844F831C845F832EC13F03F
:1042C2000050000A03E0FF0E006E1BD003011651DE
:1042D20008012E270301175108012F23030118514A
:1042E200080130230301195108013123292BD9D7A1
:1042F2002AC83EF32BC83FF32CC840F32DC841F324
:04430200006A12003B
:10430600050E00016A6F9598D9EC01F00801216B42
:10431600226B000E225D02E10A0E215D10E2D6C577
:10432600E1FFD7C5E2FFFF0EE66ED4C500F0D5C5A6
:1043360001F02DEC00F00801214B222BEAD7E6EC28
:1043460001F0DD6BDE6BDF6BE06BE16B950EE26F10
:10435600E8EC01F000C023F8D9EC01F00801235184
:10436600010A03E0010E006E84D0E6EC01F0080EAF
:10437600DD6FAA0EDE6F010EDF6F000EE06FE16FDC
:10438600870EE26FE8EC01F000C023F8D6C5E1FF26
:10439600D7C5E2FFFF0EE66ED4C500F0D5C501F025
:1043A6002DEC00F0D6C5E1FFD7C5E2FFFF0EE66EA5
:1043B600D4C500F0D5C501F02DEC00F0D6C5E1FF5F
:1043C600D7C5E2FFFF0EE66ED4C500F0D5C501F0F5
:1043D6002DEC00F0D6C5E1FFD7C5E2FFFF0EE66E75
:1043E600D4C500F0D5C501F02DEC00F0D9EC01F0F4
:1043F60008012351010A0BE0010E426F0FEC11F088
:10440600005204E00801426B0FEC11F005D0020ED9
:104416000801426F0FEC11F0000E000A03E1050ED1
:1044260000016A1903E1020E006E23D0000E000A95
:1044360003E10001040E6A191BE0E6EC01F0100E20
:104446000801DD6F000EDE6F020EDF6F000EE06FFB
:10445600E16FFF0EE26FE8EC01F000C023F8D9EC43
:1044660001F008012351000A03E0030E006E01D09B
:04447600006A1200C6
:10447A000450000A12E10550000A0FE10650000A32
:10448A000CE10750000A09E1FF0E006EFF0E016EF3
:10449A00FF0E026E7F0E036E99D00C6A07BE0C2ABD
:1044AA000D6A0B6A0A6A096A086A03500210011047
:1044BA000010D8B485D0035007180E6E0EBE0D1E1C
:1044CA0007AE0BD0041E051E061E071E042AD8B40A
:1044DA00052AD8B4062AD8B4072A03AE0BD0001E80
:1044EA00011E021E031E002AD8B4012AD8B4022AC9
:1044FA00D8B4032A035007100E6E0EBE1DD040EC2E
:10450A000FF00CBE36D00DAE5BD0001E011E021E8F
:10451A00031E002AD8B4012AD8B4022AD8B4032A1E
:10452A00081E091E0A1E0B1E082AD8B4092AD8B466
:10453A000A2AD8B40B2A44D007AE15D003BE0DD030
:10454A0003500B6E02500A6E0150096E0050086E3D
:10455A00036A026A016A006AD6D7036A026A016AB2
:10456A00006A002A000C031E021E011E001E0C8E89
:10457A00C6D7082AD8B4092AD8B40A2AD8B40B2A22
:10458A000450085CD8A4BFD70550095CD8A4BBD78F
:10459A0006500A5CD8A4B7D707500B5CD8A4B3D787
:1045AA000B6A0A6A096A086A002AD8B4012AD8B4C6
:1045BA00022AD8B4032A03AEA6D70E6A0E88FF0CC5
:0E45CA000E6A0CA002D003EC11F0000F1200DC
:0A45D8001D0E0D6E0D2EFED7120011
:1045E200086A096A100E0C6E013408360936045046
:1045F200085E0550D8A0053C095ED8B007D004502B
:1046020008260550D8B0053C0926D8900036013658
:064612000C2EEAD7120095
:10461800F40E0801546F050E556F566B070E576F51
:10462800000E586F07EC0DF0460E546F050E556FCF
:10463800566B070E576F000E586F07EC0DF0B50E4E
:10464800546F050E556F566B070E576F000E586F57
:1046580007EC0DF0060E546F030E556F566B300EB7
:10466800576F000E586F07EC0DF03E0E546F030E97
:10467800556F566B040E576F020E586F07EC0DF00E
:104688004D0E546F050E556F566B040E006E000EDE
:10469800016E1A0E0002F3CF57F8F4CF58F807EC62
:1046A8000DF0FD0E546F050E556F566B0C0E576FBF
:1046B800000E586F07EC0DF0FF0E03013E6FFF0E62
:1046C8003F6FFF0E406FFF0E416F420E0501BC6F3A
:1046D800050EBD6FBE6BEE6B426B436B446B456B57
:1046E800BF6BC06BC16BC26BC46BC56BC66BC76B52
:0A46F800FC6B430EFD6FC36B120054
:1047020001DE000E001803E0FF0E006E01D0006A09
:02471200120093
:1047140001C8E9FF02C8EAFFEE50000A06E1C40E30
:104724000501C36FFF0E006EB4D00501BFC505F8C7
:10473400C0C506F8C1C507F8C2C508F8C46BC56B87
:10474400C66BC76B08010D6B03C821F804C822F8B7
:10475400A2EC17F00050010AD8A492D0FF0E080171
:104764000325E96E000E0421EA6E3F0EEE14016E7D
:1047740001500F0A03E1010E0D6FE6D7010E05018A
:10478400C45F000EC55BC65BC75B08010D533AE00E
:1047940001C821F802C822F87AEC1BF000C000F826
:1047A4000050FF0A03E1FF0E006E73D008010051B0
:1047B400010A27E1BFC596F8C0C597F8C1C598F8A6
:1047C400C2C599F8C4C59AF8C5C59BF8C6C59CF876
:1047D400C7C59DF8090E9E6F080E9F6FF4EC06F096
:1047E4000050000A03E0FF0E006E53D005C8BFF569
:1047F40006C8C0F507C8C1F508C8C2F5010E006EA9
:1048040048D034D003C821F804C822F801C823F8DA
:1048140002C824F81EEC1EF00050010A27E1BFC5AF
:1048240096F8C0C597F8C1C598F8C2C599F8C4C52B
:104834009AF8C5C59BF8C6C59CF8C7C59DF8090E6E
:104844009E6F080E9F6FF4EC06F00050000A03E020
:10485400FF0E006E1ED005C8BFF506C8C0F507C818
:10486400C1F508C8C2F5010E006E13D0010E050192
:10487400C427000EC523C623C72308010D6B64D7C4
:1048840005C8BFF506C8C0F507C8C1F508C8C2F514
:04489400006A1200A4
:10489800A2EC13F0420E0801016F030E026F420EE4
:1048A800036F030E046F0501C351FF0A03E1FF0EF6
:1048B800006EA3D0C351FC0A03E1FF0E006E9DD029
:1048C800C351000AD8A494D0300E08010125546FB2
:1048D800000E0221556F1CEC0AF000500301082558
:1048E8000801C56F0150030109210801C66F000EB8
:1048F80003010A210801C76F000E03010B210801FB
:10490800C86F83EC03F00050000A03E0FF0E006E4E
:1049180074D0420E0801036F030E046FFE0E0325C8
:10492800546F010E0421556F1CEC0AF00150AA0ABD
:1049380002E1550E001806E0FC0E0501C36FFF0EDC
:10494800006E5BD003C854F804C855F841EC0AF06F
:104958000350410A08E10250610A05E10150520A78
:1049680002E10050520A06E0FA0E0501C36FFF0E7D
:10497800006E43D0E40E08010325546F010E042194
:10498800556F41EC0AF00350610A08E10250410AF0
:1049980005E10150720A02E10050720A06E0FA0EBF
:1049A8000501C36FFF0E006E28D0E80E080103252D
:1049B800546F010E0421556F41EC0AF000C02EF32C
:1049C80001C02FF302C030F303C031F3EC0E03250E
:1049D800546F010E0421556F41EC0AF000C032F308
:1049E80001C033F302C034F303C035F3006A05D0C5
:0C49F800FA0E0501C36FFF0E006E1200E6
:104A04000D0E08010125E16E000E0221E26E03C8BD
:064A1400E6FF006A12003B
:104A1A000B0E08010125E16E000E0221E26E03C8A9
:064A2A00E6FF006A120025
:104A300007C8C1F808C8C2F809C8C3F80AC8C4F84A
:104A4000D8EC04F00DC608F00BC804F00CC805F053
:104A50000DC806F00EC807F0085007E0073206320E
:104A600005320432079EFF0FF8D704500024086E69
:104A700005500120096E065002200A6E07500320DF
:104A80000B6E08C011F809C012F80AC013F80BC069
:104A900014F83AC300F03BC301F03CC302F03DC33D
:104AA00003F0010E005E000E015A025A035A005034
:104AB00008010B15046E01500C15056E02500D1502
:104AC000066E03500E15076E050E026E04C000F050
:104AD00005C001F0025005E0003600900136FF0FDE
:104AE000FAD70801420E00240F6F030E0120106F49
:104AF00008C0C5F809C0C6F80AC0C7F80BC0C8F896
:104B000083EC03F00050000A03E0FF0E006E3DD07E
:104B10000FC8AAF810C8ABF801C8ACF802C8ADF8C5
:104B2000200E0801AE6F000EAF6F5CEC06F00501C1
:104B3000FC531AE10FC821F810C822F803C823F863
:104B400004C824F805C825F806C826F873EC13F045
:104B50000FC821F810C822F8E4EC16F00FC821F8AD
:104B600010C822F826EC16F011C842F812C843F813
:104B700013C844F814C845F832EC13F00050000A8A
:0C4B800003E0FF0E006E01D0006A12007E
:104B8C000801006B0C0E0125E16E000E0221E26E95
:104B9C00E66A00510325E96E000E0421EA6EEE5020
:104BAC002E0A2AE000510325E96E000E0421EA6E5C
:104BBC00EE50000A21E000510325E96E000E04219D
:104BCC00EA6EEECFC1F805EC04F0005213E00C0EC7
:104BDC000125016E000E0221026E01C0E9FF02C028
:104BEC00EAFF080EEE10006E01C0E1FF02C0E2FF0A
:104BFC0000C0E6FF002BCDD7002B00510325E96E3A
:104C0C00000E0421EA6EEE50000A21E0005103254B
:104C1C00E96E000E0421EA6EEECFC1F805EC04F04B
:104C2C00005213E00C0E0125016E000E0221026EE3
:104C3C0001C0E9FF02C0EAFF100EEE10006E01C0C9
:104C4C00E1FF02C0E2FF00C0E6FF002BD6D7006AEE
:024C5C00120044
:104C5E0001C8AAF802C8ABF803C8ACF804C8ADF88E
:104C6E000B0E0801AE6F000EAF6F5CEC06F0006A23
:024C7E00120022
:104C800001C8E1FF02C8E2FF03C8E6FF006A1200A4
:104C90000301045108010125016E030105510801BA
:104CA0000221026E0250010802E101500E0806E2E4
:104CB000BE0E0501C36FFF0E006E01D0006A120028
:104CC00001C8E9FF02C8EAFFEE50000A07E1C40E7E
:104CD0000501C36FFF0E006EF5EF2CF003C854F80A
:104CE00004C855F8200E0801566F0B0E576F000EC2
:104CF000586F07EC0DF001C8E9FF02C8EAFFEE505B
:104D00002E0A12E1010E0125E96E000E0221EA6E63
:104D1000EE50000A09E103C8E1FF04C8E2FF2E0ECD
:104D2000E66E006AF5EF2CF001C8E9FF02C8EAFF61
:104D3000EE502E0A23E1010E0125E96E000E02213C
:104D4000EA6EEE502E0A1AE1020E0125E96E000EFF
:104D50000221EA6EEE50000A11E103C8E1FF04C827
:104D6000E2FF2E0EE66E010E0325E16E000E042119
:104D7000E26E2E0EE66E006AF5EF2CF001C8E9FF38
:104D800002C8EAFFEE502E0A07E1E20E0501C36FEA
:104D9000FF0E006EF5EF2CF001C842F802C843F890
:104DA0003BEC0EF000C012F801C013F801C821F866
:104DB00002C822F819EC1DF000C00FF80050FF0ADD
:104DC00004E1FF0E006EF5EF2CF0010E0801125DFC
:104DD000006E000E1359016E00500125E96E01505E
:104DE0000221EA6EEE502E0A10E0010E125D006EF6
:104DF000000E1359016E00500125E96E0150022189
:104E0000EA6EEE50200A01E015D0800E006E800E92
:104E10001319005C02E1125100080CE21251012545
:104E2000E16E13510221E26EE66A010E125F000E7E
:104E3000135BCBD7000E131902E1000E121904E127
:104E4000FF0E006EF5EF2CF0000E0FBFFF0E006E90
:104E5000000E001802E1000E0F190BE0000E0FBF4C
:104E6000FF0E006E000E001802E1020E0F1901E0A5
:104E70008BD00A6B096B080E095D2DE20A510125E2
:104E8000E96E000E0221EA6EEE502E0A0AE00A5187
:104E90000125E96E000E0221EA6EEE50000A01E0E3
:104EA00001D019D009510325146F000E0421156F8C
:104EB0000A510125E96E000E0221EA6EEECF42F89A
:104EC000FFEC0DF014C8E1FF15C8E2FF00C0E6FFDB
:104ED0000A2B092BD0D70A510125E96E000E0221B9
:104EE000EA6EEE50000A0AE103C821F804C822F86D
:104EF000236B246B37EC1AF0F5EF2CF008010A5104
:104F00000125E96E000E0221EA6EEE502E0A02E142
:104F10000A2B07D0E20E0501C36FFF0E006EF5EFFE
:104F20002CF0080E0801096F0B0E095D23E20A51EF
:104F30000125E96E000E0221EA6EEE50000A01E141
:104F400019D009510325146F000E0421156F0A5161
:104F50000125E96E000E0221EA6EEECF42F8FFEC69
:104F60000DF014C8E1FF15C8E2FF00C0E6FF0A2BF0
:104F7000092BDAD703C821F804C822F8236B246B65
:104F800037EC1AF0F5EF2CF0000E08010FBFFF0E02
:104F9000006E000E001802E1010E0F19D8A4F2EF06
:104FA0002CF012C80CF8010E125D0D6F000E135993
:104FB0000E6F0D510125E96E0E510221EA6EEE5081
:104FC0002E0A0EE0800E006E800E0E19005C02E1CB
:104FD0000D51000805E2010E0D5F000E0E5BE9D7D2
:104FE000800E006E800E0E19005C02E10D5100086B
:104FF0004DE20DC80CF80D4B0E2B080E096F0B0E71
:10500000095D44E20D510125E96E0E510221EA6E5F
:10501000EE50000A3BE00D510125E96E0E510221D0
:10502000EA6EEECF54F8FFEC09F0005219E10801E6
:1050300009510325146F000E0421156F0D51012530
:10504000E96E0E510221EA6EEECF42F8FFEC0DF050
:1050500014C8E1FF15C8E2FF00C0E6FF092B13D01A
:1050600008010D510125E96E0E510221EA6EEE5044
:10507000200A09E009510325E16E000E0421E26EC9
:105080005F0EE66E092B0D4B0E2BB9D70CC80DF831
:10509000000E0E6F0A6B096B080E095D56E20A518D
:1050A0000125E96E000E0221EA6EEE50000A01E1D0
:1050B0004CD0000E0E1902E10D510A1901E145D044
:1050C0000A510125E96E000E0221EA6EEE502E0A09
:1050D0000AE00A510125E96E000E0221EA6EEE5047
:1050E000200A01E001D02FD00A510125E96E000EFF
:1050F0000221EA6EEECF54F8FFEC09F0005219E1FC
:10510000080109510325146F000E0421156F0A517F
:105110000125E96E000E0221EA6EEECF42F8FFECA7
:105120000DF014C8E1FF15C8E2FF00C0E6FF092B2F
:105130000AD0080109510325E16E000E0421E26E38
:105140005F0EE66E092B0A2BA7D7010E106F060E15
:10515000095D03E209C800F802D0060E006F00C81E
:105160000CF800510325E16E000E0421E26E7E0E64
:10517000E66E010E0B6F0B5109083BE31051000A5C
:1051800038E00C51010F006E016A000E0122005040
:105190000325E16E01500421E26E300E0B25006EF6
:1051A00000C0E6FF03C821F804C822F8236B246B73
:1051B00037EC1AF000C010F80050FF0A04E1FF0EAF
:1051C000006EF5EF2CF008011051010A0FE101C843
:1051D00021F802C822F87AEC1BF000C011F8005048
:1051E000000A04E011C800F0F5EF2CF008010B2BC9
:1051F000C2D71051000AD8B475D0050E095D03E27C
:1052000009C805F802D0050E056F05C80CF8055150
:105210000325E16E000E0421E26E7E0EE66E0A0E9C
:105220000B6F0B5163085EE31051000A5BE00C51F9
:10523000010F006E016A000E012200500325146F59
:1052400001500421156F0A0E046E0BC800F06BECC0
:105250001BF0300E002614C8E1FF15C8E2FF00C0A5
:10526000E6FF020E0C25006E016A000E01220050BE
:105270000325146F01500421156F0A0E046E0BC82C
:1052800000F06BEC1BF008C000F0300E002614C8D4
:10529000E1FF15C8E2FF00C0E6FF03C821F804C81B
:1052A00022F8236B246B37EC1AF000C010F8005082
:1052B000FF0A03E1FF0E006E98D308011051010AA6
:1052C0000EE101C821F802C822F87AEC1BF000C0F8
:1052D00011F80050000A03E011C800F086D308015D
:1052E0000B2B9FD71051000AD8B49DD0040E095D36
:1052F00003E209C806F802D0040E066F06C80CF8CF
:1053000006510325E16E000E0421E26E7E0EE66E6C
:10531000640E0B6F800E030A006E800E005C02E1CB
:105320000B51E708D8A07FD01051000AD8B47BD029
:105330000C51010F006E016A000E0122005003257E
:10534000146F01500421156F640E046E0BC800F039
:105350006BEC1BF0300E002614C8E1FF15C8E2FF0D
:1053600000C0E6FF020E0C25006E016A000E01224D
:1053700000500325146F01500421156F0A0E046EAE
:105380000BC800F06BEC1BF00A0E046E6BEC1BF00C
:1053900008C000F0300E002614C8E1FF15C8E2FF77
:1053A00000C0E6FF030E0C25006E016A000E01220C
:1053B00000500325146F01500421156F0A0E046E6E
:1053C0000BC800F06BEC1BF008C000F0300E00269C
:1053D00014C8E1FF15C8E2FF00C0E6FF03C821F8CA
:1053E00004C822F8236B246B37EC1AF000C010F8C5
:1053F0000050FF0A03E1FF0E006EF7D208011051C2
:10540000010A0EE101C821F802C822F87AEC1BF06B
:1054100000C011F80050000A03E011C800F0E5D206
:1054200008010B2B77D71051000AD8B4C2D0030E55
:10543000095D03E209C807F802D0030E076F07C829
:105440000CF807510325E16E000E0421E26E7E0E7A
:10545000E66EE80E0B6F800E270A006E800E005C71
:1054600002E10B510F08D8A0A4D01051000AD8B403
:10547000A0D00C51010F006E016A000E01220050F5
:105480000325146F01500421156FE80E046E030EFE
:10549000056E0BC800F0000E016E66EC1EF0300EBB
:1054A000002614C8E1FF15C8E2FF00C0E6FF020EA7
:1054B00008010C25006E016A000E01220050032530
:1054C000146F01500421156F640E046E0BC800F0B8
:1054D0006BEC1BF00A0E046E6BEC1BF008C000F0C6
:1054E000300E002614C8E1FF15C8E2FF00C0E6FF39
:1054F000030E0C25006E016A000E012200500325E8
:10550000146F01500421156F0A0E046E0BC800F0D1
:105510006BEC1BF00A0E046E6BEC1BF008C000F085
:10552000300E002614C8E1FF15C8E2FF00C0E6FFF8
:10553000040E0C25006E016A000E012200500325A6
:10554000146F01500421156F0A0E046E0BC800F091
:105550006BEC1BF008C000F0300E002614C8E1FF11
:1055600015C8E2FF00C0E6FF03C821F804C822F80E
:10557000236B246B37EC1AF000C010F80050FF0AC0
:1055800003E1FF0E006E31D208011051010A0EE155
:1055900001C821F802C822F87AEC1BF000C011F80B
:1055A0000050000A03E011C800F01FD208010B2BC5
:1055B00052D71051000AD8B4F1D0020E095D03E2AF
:1055C00009C808F802D0020E086F08C80CF8085184
:1055D0000325E16E000E0421E26E7E0EE66E100ED3
:1055E0000B6F800E000A006E800E005C08E1000E5A
:1055F000010805E1000E860802E10B519F08D8A0C2
:10560000CDD01051000AD8B4C9D00C51010F006E92
:10561000016A000E012200500325146F015004217D
:10562000156F100E046E270E056E0BC800F0000EED
:10563000016E66EC1EF0300E002614C8E1FF15C89E
:10564000E2FF00C0E6FF020E08010C25006E016AB1
:10565000000E012200500325146F01500421156F24
:10566000E80E046E030E056E0BC800F0000E016E0E
:1056700066EC1EF00A0E046E000E056E66EC1EF05F
:1056800008C000F009C001F0300E002614C8E1FF88
:1056900015C8E2FF00C0E6FF030E08010C25006EEE
:1056A000016A000E012200500325146F01500421ED
:1056B000156F640E046E0BC800F06BEC1BF00A0E45
:1056C000046E6BEC1BF008C000F0300E002614C80E
:1056D000E1FF15C8E2FF00C0E6FF040E0C25006ED6
:1056E000016A000E012200500325146F01500421AD
:1056F000156F0A0E046E0BC800F06BEC1BF00A0E5F
:10570000046E6BEC1BF008C000F0300E002614C8CD
:10571000E1FF15C8E2FF00C0E6FF050E0C25006E94
:10572000016A000E012200500325146F015004216C
:10573000156F0A0E046E0BC800F06BEC1BF008C06E
:1057400000F0300E002614C8E1FF15C8E2FF00C0CB
:10575000E6FF03C821F804C822F8236B246B37EC5A
:105760001AF000C010F80050FF0A03E1FF0E006EAF
:105770003CD108011051010A0EE101C821F802C80C
:1057800022F87AEC1BF000C011F80050000A03E088
:1057900011C800F02AD108010B2B23D71051000AA1
:1057A000D8B416D1010E0325E16E000E0421E26E7D
:1057B0007E0EE66EA00E0B6F800E000A006E800E4D
:1057C000005C08E1000E0F0805E1000E420802E14E
:1057D0000B513F08D8A0FCD01051000AD8B4F8D023
:1057E000020E0C25006E016A000E012200500325F6
:1057F000146F01500421156FA00E046E860E056E05
:10580000010E066E000E076E0BC800F0000E016E52
:10581000026E036E3DEC22F0300E002614C8E1FF4C
:1058200015C8E2FF00C0E6FF030E08010C25006E5C
:10583000016A000E012200500325146F015004215B
:10584000156F100E046E270E056E0BC800F0000ECB
:10585000016E66EC1EF00A0E046E000E056E66EC1C
:105860001EF008C000F009C001F0300E002614C878
:10587000E1FF15C8E2FF00C0E6FF040E08010C2599
:10588000006E016A000E012200500325146F0150C2
:105890000421156FE80E046E030E056E0BC800F0B0
:1058A000000E016E66EC1EF00A0E046E000E056E10
:1058B00066EC1EF008C000F009C001F0300E0026B2
:1058C00014C8E1FF15C8E2FF00C0E6FF050E08019D
:1058D0000C25006E016A000E012200500325146F92
:1058E00001500421156F640E046E0BC800F06BECC0
:1058F0001BF00A0E046E6BEC1BF008C000F0300EBB
:10590000002614C8E1FF15C8E2FF00C0E6FF060E3E
:105910000C25006E016A000E012200500325146F51
:1059200001500421156F0A0E046E0BC800F06BECD9
:105930001BF00A0E046E6BEC1BF008C000F0300E7A
:10594000002614C8E1FF15C8E2FF00C0E6FF070EFD
:105950000C25006E016A000E012200500325146F11
:1059600001500421156F0A0E046E0BC800F06BEC99
:105970001BF008C000F0300E002614C8E1FF15C867
:10598000E2FF00C0E6FF03C821F804C822F8236B39
:10599000246B37EC1AF000C010F80050FF0A03E146
:1059A000FF0E006E22D008011051010A0EE101C85D
:1059B00021F802C822F87AEC1BF000C011F8005060
:1059C000000A03E011C800F010D008010B2BF4D638
:1059D0001051000A06E0BF0E0501C36FFF0E006EF6
:0C59E00004D003D0FF0E006E00D01200B7
:1059EC0001C842F802C843F83BEC0EF0800E026E80
:1059FC00800E0118025C02E10050080803E3010E5E
:105A0C00006E11D001C842F802C843F83BEC0EF00E
:105A1C00010E005E000E015A0D0E046E000E056E96
