:1000000073EF3EF00000000000EF00F00000000081
:0A0010000000000000000000F3D71C
:10001C007EC96FFF6DB002D00000FCD76FCF00F02F
:02002C001200C0
:10002E007EC9C9FFC7B002D00000FCD7C9CF00F00F
:02003E001200AE
:10004000F250026EF29E0500FF6A0150FE6E0050F3
:08005000FD6E02BEF28E1200EB
:1000580083887CC5E1FF7DC5E2FFFF0EE66E7AC5A9
:0A00680000F07BC501F0E8DF120094
:100072007CC5E1FF7DC5E2FF4C0EE66E7AC500F05D
:100082007BC501F0DCDF7CC5E1FF7DC5E2FFE66AEE
:100092007AC500F07BC501F0D2DF7CC5E1FF7DC5EA
:1000A200E2FFE66A7AC500F07BC501F0C8DF7CC5D5
:1000B200E1FF7DC5E2FFE66A7AC500F07BC501F08B
:1000C200BEDF7CC5E1FF7DC5E2FFE66A7AC500F0CE
:1000D2007BC501F0B4DF7CC5E1FF7DC5E2FFFF0E09
:1000E200E66E7AC500F07BC501F0A9DF0901766BE7
:1000F200776B7CC5E1FF7DC5E2FFFF0EE66E7AC538
:1001020000F07BC501F09BDF00C075F90901764B59
:10011200772B800E0014016E0150000A07E0000EDA
:10012200775D02E1640E765D01E2E3D775AF04D03C
:1001320092DF75C900F012D07CC5E1FF7DC5E2FFF8
:10014200FF0EE66E7AC500F07BC501F078DF00C0D5
:0E01520075F90050000AF0E07EDF006A12002E
:04016000839812006E
:10016400400E09017525006E7CC5E1FF7DC5E2FFE7
:1001740000C0E6FF7AC500F07BC501F05FDF7CC5F7
:10018400E1FF7DC5E2FF79C9E6FF7AC500F07BC5D2
:1001940001F054DF7CC5E1FF7DC5E2FF78C9E6FFCD
:1001A4007AC500F07BC501F049DF7CC5E1FF7DC560
:1001B400E2FF77C9E6FF7AC500F07BC501F03EDFB8
:1001C4007CC5E1FF7DC5E2FF76C9E6FF7AC500F094
:1001D4007BC501F033DF7CC5E1FF7DC5E2FF7AC951
:1001E400E6FF7AC500F07BC501F028DF09017C6BCE
:1001F4007D6B7CC5E1FF7DC5E2FFFF0EE66E7AC52F
:1002040000F07BC501F01ADF00C07BF909017C4BCB
:100214007D2B800E0014016E0150000A07E0000ED1
:100224007D5D02E1640E7C5D01E2E3D77BC900F0F1
:020234001200B6
:100236001DDF0050000A03E0FF0E006E01D0006AC9
:020246001200A4
:100248008BDF000E000A03E1040E0101121909E117
:1002580067C96FF968C970F969C971F96AC972F92A
:1002680014D0090E006E67C96FF968C970F969C9B9
:1002780071F96AC972F9005008E009016F376F9186
:10028800703771377237FF0FF7D70901110E756F85
:100298006FC976F970C977F971C978F972C979F9AE
:1002A800FF0E7A6F5BDF005204E0D2DE010E006EB3
:1002B8004BD07CC5E1FF7DC5E2FFFF0EE66E7AC537
:1002C80000F07BC501F0B8DE0050FE0A01E0F1D76E
:1002D80009016D6B6E6B020E6E5D02E1000E6D5DC5
:1002E8001BE26D516B25736F6E516C21746F7CC569
:1002F800E1FF7DC5E2FFFF0EE66E7AC500F07BC523
:1003080001F09ADE73C9E1FF74C9E2FF00C0E6FF9D
:1003180009016D4B6E2BDFD77CC5E1FF7DC5E2FF80
:10032800FF0EE66E7AC500F07BC501F085DE7CC560
:10033800E1FF7DC5E2FFFF0EE66E7AC500F07BC5E2
:0A03480001F07ADE85DE006A120083
:100352000601B351000A04E0B351020A01E002D0DF
:10036200006A0DD067DF000E001806E0FF0E0201E2
:100372009E6FFF0E006E03D00601B36B006A12007F
:1003820061C967F962C968F963C969F964C96AF937
:1003920065C96BF966C96CF956DF0050000A03E0C3
:0A03A200FF0E006E01D0006A120089
:1003AC000601B351030A20E1CEDF0050000A06E03B
:1003BC00FF0E02019E6FFF0E006E5CD00201A65173
:1003CC00090160190EE10201A55109015F1909E14A
:1003DC000201A45109015E1904E10201A3510901B2
:1003EC005D1902E1006A46D00601B351010A06E12B
:1003FC00FF0E02019E6FFF0E006E3CD00901605192
:10040C000201A6190EE109015F510201A51909E1CA
:10041C0009015E510201A41904E109015D510201B7
:10042C00A31927E05DC961F95EC962F95FC963F977
:10043C0060C964F9A70E0901656F020E666F9BDF38
:10044C00000E00180EE0FF0E0201A36FFF0EA46F4A
:10045C00FF0EA56FFF0EA66FFF0E9E6FFF0E006EB8
:10046C0009D05DC9A3F25EC9A4F25FC9A5F260C947
:06047C00A6F2006A120066
:1004820009015951390806E3300E595D03E3010EA3
:08049200006E01D0006A1200A7
:10049A00090159517A0806E3610E595D03E3010E19
:0804AA00006E01D0006A12008F
:1004B200090159515A0806E3410E595D03E3010E41
:0804C200006E01D0006A120077
:1004CA0059C905F05AC906F05BC907F05CC908F0BA
:1004DA000401CB51055ECC51065ACD51075ACE5173
:1004EA00085A64C504F005C000F006C001F007C050
:1004FA0002F008C003F0045007E00036009001360D
:10050A0002360336FF0FF8D7D1510026D251012205
:0A051A00D3510222D4510322120033
:100524000401CE5109015C5D0EE10401CD510901C4
:100534005B5D09E10401CC5109015A5D04E1040148
:10054400CB510901595D15E30401E45109015C5DD6
:100554000EE10401E35109015B5D09E10401E2518B
:1005640009015A5D04E10401E1510901595D01E207
:100574000CD0F40E02019E6FFF0E006EFF0E016E92
:10058400FF0E026E0F0E036E64D057C500F059C9FA
:100594005DF95AC95EF95BC95FF95CC960F900503D
:1005A40008E0090160335F335E335D33609FFF0F02
:1005B400F7D70401C75109015D270401C851090196
:1005C4005E230401C95109015F230401CA510901D1
:1005D4006023EADE0050000A09E0FF0E006EFF0E01
:1005E400016EFF0E026E0F0E036E33D098C500F03D
:1005F40099C501F09AC502F09BC503F0010E005E97
:10060400000E015A025A035A005009015915046E8A
:1006140001505A15056E02505B15066E03505C15A9
:10062400076E04C000F005C001F0003600900136EA
:10063400003600900136A70E0024E96E020E012058
:10064400EA6EEECF00F0EECF01F0EECF02F0EECF87
:0406540003F012009D
:10065800026A110E025C17E2DD0E0224F66E820EAB
:10066800F76E000EF722000EF86E000EF822090051
:10067800F5CF01F001500901591903E1010E006E8F
:0A06880003D0022AE6D7006A120030
:100692007CC5E1FF7DC5E2FFFF0EE66E7AC500F084
:1006A2007BC501F0CCDC0050FE0A01E0F1D712005C
:1006B200090142515A0804E3410E425DD8B0428B0F
:0606C20042C900F0120025
:1006C80042C959F9DADE005211E142C959F9EDDEA1
:1006D80000520CE142C959F9DCDE005207E142C977
:1006E80059F9B6DF005202E1006A02D0010E006E2D
:0206F8001200EE
:1006FA0032DD000E000A03E1040E0101121909E1BC
:10070A0042C946F943C947F944C948F945C949F9AB
:10071A0014D0090E006E42C946F943C947F944C9C3
:10072A0048F945C949F9005008E009014637469198
:10073A00473748374937FF0FF7D70901120E756F48
:10074A0046C976F947C977F948C978F949C979F99B
:10075A00FF0E7A6F02DD005204E079DC010E006EB2
:06076A0001D0006A12003C
:1007700090DF0901446B456B020E455D02E1000EFE
:10078000445D1BE244514225466F45514321476F6A
:100790007CC5E1FF7DC5E2FFFF0EE66E7AC500F085
:1007A0007BC501F04DDC46C9E1FF47C9E2FF00C04F
:1007B000E6FF0901444B452BDFD77CC5E1FF7DC532
:1007C000E2FFFF0EE66E7AC500F07BC501F038DC73
:1007D0007CC5E1FF7DC5E2FFFF0EE66E7AC500F045
:0807E0007BC501F02DDC1200C5
:1007E80044C904F045C905F042C902F043C903F001
:1007F80046C900F047C901F0010E0901465F000E25
:10080800475B005001100FE004C0E9FF05C0EAFF94
:1008180002C0E1FF03C0E2FFEECFE6FF024A032A6F
:10082800044A052AE5D742C900F043C901F012007D
:10083800A3C254F9A4C255F9A5C256F9A6C257F9DC
:1008480042C94CF943C94DF944C94EF945C94FF954
:100858000401CE510901455D0EE10401CD510901A4
:10086800445D09E10401CC510901435D04E104013F
:10087800CB510901425D15E30401E45109014F5DC3
:100888000EE10401E35109014E5D09E10401E25161
:1008980009014D5D04E10401E15109014C5D01E2EA
:1008A80006D0F40E02019E6FFF0E006ECED0090135
:1008B800586B65C500F046C901F047C902F048C940
:1008C80003F049C904F0005007E004320332023251
:1008D8000132049EFF0FF8D70450000809E10350C5
:1008E800000806E10250000803E109010150585DC3
:1008F80055E24CC959F94DC95AF94EC95BF94FC966
:100908005CF90CDE00C04CF901C04DF902C04EF98B
:1009180003C04FF903500F0A08E10250FF0A05E12E
:100928000150FF0A02E10050FF0A06E1F10E020140
:100938009E6FFF0E006E89D00401CE5109014F5DF4
:100948000EE10401CD5109014E5D09E10401CC51CC
:1009580009014D5D04E10401CB5109014C5D15E32A
:100968000401E45109014F5D0EE10401E35109015D
:100978004E5D09E10401E25109014D5D04E1040104
:10098800E15109014C5D01E206D0F40E02019E6FAF
:10099800FF0E006E5AD00901582B8BD70901A7C446
:1009A80000F0A8C401F0A9C402F0AAC403F0010E23
:1009B800005E000E015A025A035A00504615506F45
:1009C80001504715516F02504815526F0350491591
:1009D800536F4CC959F94DC95AF94EC95BF94FC9FA
:1009E8005CF96FDD66C508F050C904F051C905F01F
:1009F80052C906F053C907F0085007E0073206321B
:100A080005320432079EFF0FF8D74AC9E1FF4BC9E8
:100A1800E2FF04500024E66E05500120E66E065001
:100A28000220E66E07500320E66E54C95DF955C9E9
:100A38005EF956C95FF957C960F9B4DC0050000A7D
:0C0A480003E0FF0E006E01D0006A1200F7
:100A54002EC942F92FC943F930C944F931C945F9BE
:100A64004ADE0050000A03E0FF0E006E01D0006A67
:020A740012006E
:0E0A76002EC942F92FC943F978DE006A12003A
:100A84000B6A0A6A096A00500402F4CF09F0F3CF32
:100A940008F001500502F4CF0BF0F3CF0AF0005038
:100AA4000502F3500926F4500A22E86A0B22015089
:100AB4000402F3500926F4500A22E86A0B2208C003
:100AC40000F009C001F00AC002F00BC003F01200EC
:100AD400056A046A0B0E055C22E2010E0414016E21
:100AE400070E006E01C003F0005004E003360390CB
:100AF400FF0FFBD7FE0E0414026E02C000F000329A
:100B0400009E00500310046E055009012E25D96E75
:100B1400000E2F21DA6EDE500426052ADBD704C02E
:040B240000F01200CB
:100B2800010E09012E25E96E000E2F21EA6E30C94B
:100B3800E1FF31C9E2FFEECFE6FF010E3025E16E9D
:100B4800000E3121E26E030E2E25E96E000E2F21D4
:100B5800EA6EEECFE6FF020E3025E16E000E31217F
:100B6800E26E050E2E25E96E000E2F21EA6EEECFFD
:100B7800E6FF030E3025E16E000E3121E26E070E0E
:100B88002E25E96E000E2F21EA6EEECFE6FF040E49
:100B98003025E16E000E3121E26E090E2E25E96E38
:100BA800000E2F21EA6EEECFE6FF050E3025E16E2E
:100BB800000E3121E26E0E0E2E25E96E000E2F2159
:100BC800EA6EEECFE6FF060E3025E16E000E31210B
:100BD800E26E100E2E25E96E000E2F21EA6EEECF82
:100BE800E6FF070E3025E16E000E3121E26E120E8F
:100BF8002E25E96E000E2F21EA6EEECFE6FF080ED5
:100C08003025E16E000E3121E26E140E2E25E96EBC
:100C1800000E2F21EA6EEECFE6FF090E3025E16EB9
:100C2800000E3121E26E160E2E25E96E000E2F21E0
:100C3800EA6EEECFE6FF0A0E3025E16E000E312196
:100C4800E26E180E2E25E96E000E2F21EA6EEECF09
:100C5800E6FF0B0E3025E16E000E3121E26E1C0E10
:100C68002E25E96E000E2F21EA6EEECFE6FF0C0E60
:100C78003025E16E000E3121E26E1E0E2E25E96E42
:0E0C8800000E2F21EA6EEECFE6FF006A12008A
:100C96002EC942F92FC943F930C944F931C945F97A
:100CA60032C946F933C947F934C948F935C949F94A
:100CB60036C94AF937C94BF9BCDD0050000A03E0D2
:100CC600FF0E006E15D036C9E9FF37C9EAFFEECF31
:100CD6005DF9EECF5EF9EECF5FF9EECF60F9D6ECB7
:100CE60001F00050000A03E0FF0E006E01D0006A1A
:020CF6001200EA
:100CF800B0EC00F0000E000A03E1040E0101121925
:100D080009E12EC936F92FC937F930C938F931C97F
:100D180039F914D0090E006E2EC936F92FC937F9E2
:100D280030C938F931C939F9005008E009013637B6
:100D38003691373738373937FF0FF7D70901180E8B
:100D4800756F36C976F937C977F938C978F939C965
:100D580079F9FF0E7A6FB2EC00F0005205E02CEC46
:100D680000F0010E006E95D07CC5E1FF7DC5E2FF65
:100D7800FF0EE66E7AC500F07BC501F020EC00F0AE
:100D88007CC5E1FF7DC5E2FFFF0EE66E7AC500F087
:100D98007BC501F020EC00F07CC5E1FF7DC5E2FFDA
:100DA800FE0EE66E7AC500F07BC501F020EC00F07F
:100DB8000901346B356B3551010802E13451FF08E4
:100DC80016E334513225E96E35513321EA6E7CC57C
:100DD800E1FF7DC5E2FFEECFE6FF7AC500F07BC5F7
:100DE80001F020EC00F00901344B352BE4D77CC529
:100DF800E1FF7DC5E2FFFF0EE66E7AC500F07BC518
:100E080001F020EC00F07CC5E1FF7DC5E2FFFF0E9C
:100E1800E66E7AC500F07BC501F020EC00F07CC5D9
:100E2800E1FF7DC5E2FFFF0EE66E7AC500F07BC5E7
:100E380001F020EC00F000C034F9000E0901356F14
:100E48001F0E3415016E35C902F0000E021601C0DE
:100E580034F902C035F9000E021802E1050E011836
:100E680005E02CEC00F0020E006E13D07CC5E1FF0B
:100E78007DC5E2FFFF0EE66E7AC500F07BC501F086
:100E880020EC00F00050FF0A01E0F0D72CEC00F055
:040E9800006A1200DA
:100E9C00350E0901426F090E436F2EC944F92FC953
:100EAC0045F90B0E466F000E476F98DC326B0B0E3C
:100EBC00325D3FE2346B350EE96E090EEA6E32514B
:100ECC00E926D8B0EA2AEECF42F964EC03F00050E0
:100EDC00010A03E1010E0901346F0901350EE96EB7
:100EEC00090EEA6E3251E926D8B0EA2AEE50200AF1
:100EFC0002E1010E346F350EE96E090EEA6E3251C5
:100F0C00E926D8B0EA2AEE502E0A02E1010E346F1F
:100F1C003451000A0BE130C9E1FF31C9E2FFE66A46
:100F2C00C40E02019E6FFF0E006EB5D00901322B6C
:100F3C00BED7336B326B080E325D43E2350EE96E71
:100F4C00090EEA6E3251E926D8B0EA2AEE50200A90
:100F5C0034E00C0E2E25E96E000E2F21EA6EEECF3A
:100F6C0001F001A619D033513025406F000E31210C
:100F7C00416F350EE96E090EEA6E3251E926D8B092
:100F8C00EA2AEECF42F959EC03F040C9E1FF41C91E
:100F9C00E2FF00C0E6FF10D033513025E16E000EA9
:100FAC003121E26E350EE96E090EEA6E3251E926F8
:100FBC00D8B0EA2AEECFE6FF01D003D0332B322B88
:100FCC00BAD73D51200A09E133513025E16E000EAC
:100FDC003121E26EE66A006A5ED033513025E16E53
:100FEC00000E3121E26E2E0EE66E332B080E326FA0
:100FFC000B0E325D47E2350EE96E090EEA6E325188
:10100C00E926D8B0EA2AEECF42F964EC03F000509E
:10101C00000A01E137D00C0E09012E25E96E000EF5
:10102C002F21EA6EEECF01F001A819D033513025F3
:10103C00406F000E3121416F350EE96E090EEA6EDC
:10104C003251E926D8B0EA2AEECF42F959EC03F036
:10105C0040C9E1FF41C9E2FF00C0E6FF10D03351A7
:10106C003025E16E000E3121E26E350EE96E090E6F
:10107C00EA6E3251E926D8B0EA2AEECFE6FF332BDE
:10108C00322BB6D7090133513025E16E000E3121D8
:08109C00E26EE66A006A120030
:0E10A400ECC8E9FFEDC8EAFFEECF00F0120045
:1010B2000601B351030A0BE1A9EC01F00050000A4A
:1010C20006E0FF0E02019E6FFF0E006E50D0060179
:1010D200B351010A06E1FF0E02019E6FFF0E006E80
:1010E20046D00201A6510801EF190EE10201A551F5
:1010F2000801EE1909E10201A4510801ED1904E108
:101102000201A3510801EC1905E1020E0601B36FB9
:10111200006A2DD0ECC82EF9EDC82FF9EEC830F9CF
:10112200EFC831F996DC0050000A06E0FF0E02011A
:101132009E6FFF0E006E1BD0A70E09012E6F020ECE
:101142002F6F98DC0050000A06E0FF0E02019E6F2E
:10115200FF0E006E0CD0010E0601B36FECC8A3F2B5
:10116200EDC8A4F2EEC8A5F2EFC8A6F2006A12001A
:10117200030E0801EC25E96E000EED21EA6EEECFBA
:1011820009F0000E0A6E0B6E0C6E000E0A6E0B6EEC
:101192000C6E0BC003F00AC002F009C001F0006A35
:1011A20000C009F001C00AF002C00BF003C00CF04D
:1011B200020EEC25D96E000EED21DA6EDE5000240F
:1011C200056E000E0120066E000E0220076E000E54
:1011D2000320086E05C009F006C00AF007C00BF034
:1011E20008C00CF007C003F006C002F005C001F011
:1011F200006A00C009F001C00AF002C00BF003C08F
:101202000CF0010EEC25D96E000EED21DA6EDE50E7
:101212000024056E000E0120066E000E0220076EED
:10122200000E0320086E05C009F006C00AF007C0D0
:101232000BF008C00CF007C003F006C002F005C0B6
:1012420001F0006A00C009F001C00AF002C00BF010
:1012520003C00CF0ECC8D9FFEDC8DAFFDE5000265F
:10126200000E01220222032200C009F001C00AF08E
:1012720002C00BF003C00CF000C009F001C00AF07C
:0A12820002C00BF003C00CF01200D4
:10128C00026A080E025C17E20F0E0224F66E830E41
:10129C00F76E000EF722000EF86E000EF822090011
:1012AC00F5CF01F001500801EC1903E1010E006EBD
:0A12BC0003D0022AE6D7006A1200F0
:1012C600EEC82EF9EFC82FF9F0C830F9F1C831F998
:1012D600F2C832F9F3C833F9F4C834F9F5C835F968
:1012E6002A0E0901366F090E376FD2DC0050000A4C
:1012F60003E0FF0E006EA7D194C500F095C501F07E
:1013060096C502F097C503F0010E005E000E015A65
:10131600025A035A00500801F215046E0150F315E3
:10132600056E0250F415066E0350F515076E050E90
:10133600026E04C000F005C001F0025005E0003660
:1013460000900136FF0FFAD7A70E00240901286F77
:10135600020E0120296F010E0801F66F080EF65DD8
:101366000EE2F65109012825E96E000E2921EA6EE2
:10137600EE507E0A01E103D00801F62BEFD70801F3
:10138600F651080A0AE128C92EF929C92FF9ECC82D
:1013960030F9EDC831F97FDD56D1080E0901426FEB
:1013A600090E436F28C944F929C945F9200E466F2D
:1013B600000E476FF4EC03F0EEC82EF9EFC82FF9D4
:1013C600F0C830F9F1C831F9010E0801F25F000EDC
:1013D600F35BF45BF55BF2C832F9F3C833F9F4C892
:1013E60034F9F5C835F92A0E0901366F090E376F3B
:1013F6004FDC0050000A03E0FF0E006E24D194C5B6
:1014060000F095C501F096C502F097C503F0010EF0
:10141600005E000E015A025A035A00500801F215E6
:10142600046E0150F315056E0250F415066E035056
:10143600F515076E050E026E04C000F005C001F03A
:10144600025005E0003600900136FF0FFAD7A70ECE
:101456000026020E012200C006F901C007F90B0E94
:101466000024E96E000E0120EA6E3F0EEE14016EB6
:1014760001500F0A0BE0080E09012E6F090E2F6F9F
:10148600ECC830F9EDC831F906DDDDD0080E0901EA
:101496002E6F090E2F6F6AEC05F000C0F8F8010EEA
:1014A6000801F76F0B0E09010625E96E000E0721EC
:1014B600EA6E3F0EEE14016E01500F0A06E0C00EF2
:1014C60002019E6FFF0E006EBED00D0E09010625AD
:1014D600E96E000E0721EA6EEE500801F81906E0E3
:1014E600C10E02019E6FFF0E006EADD006C9E9FF68
:1014F60007C9EAFFEECF00F01F0E0014016E01507F
:101506000801F71906E0C20E02019E6FFF0E006E7B
:101516009AD006C92EF907C92FF9F90E0901306FBD
:10152600080E316F94EC05F00801F66BF705006EB6
:10153600016A000E015A0D0E046E000E056E42EC95
:1015460005F0F6510026000E01220050EC25E16E52
:101556000150ED21E26EF90EE96E080EEA6EF651C3
:10156600E926D8B0EA2AEECFE6FFF62B0D0EF65D99
:101576000CE2F90EE96E080EEA6EF651E926D8B0CD
:10158600EA2AEE50000A01E0D1D706C9E9FF07C9E9
:10159600EAFFEECF01F001AC02D0006A54D0F72B7F
:1015A600EEC82EF9EFC82FF9F0C830F9F1C831F9B5
:1015B600010EF25F000EF35BF45BF55BF2C832F9E5
:1015C600F3C833F9F4C834F9F5C835F92A0E090118
:1015D600366F090E376F4BEC06F00050000A03E039
:1015E600FF0E006E30D094C500F095C501F096C58B
:1015F60002F097C503F0010E005E000E015A025A72
:10160600035A00500801F215046E0150F315056ED9
:101616000250F415066E0350F515076E050E026EA0
:1016260004C000F005C001F0025005E0003600904D
:101636000136FF0FFAD7A70E00240901066F020E26
:081646000120076F2FD71200ED
:10164E00ECC802F0EDC803F0EFC800F0F0C801F0EE
:10165E00010E0801EF5F000EF05B0050011009E073
:10166E0002C0E1FF03C0E2FFEEC8E6FF024A032A12
:0C167E00EBD7ECC800F0EDC801F0120042
:10168A00010E0801EC25E96E000EED21EA6EEECF9F
:10169A0003F0000E046E000E046E03C001F0006A2F
:1016AA0000C003F001C004F0ECC8D9FFEDC8DAFFAE
:1016BA00DE500026000E012200C003F001C004F033
:0A16CA0000C003F001C004F012009C
:1016D400ECC82EF9EDC82FF9EEC830F9EFC831F98E
:1016E400F0C832F9F1C833F97CEC06F00050000A76
:0C16F40003E0FF0E006E01D0006A12003F
:101700000601B351030A0BE1A9EC01F00050000AF5
:1017100006E0FF0E02019E6FFF0E006E32D0060142
:10172000B351010A06E1FE0E02019E6FFF0E006E2C
:1017300028D0DAC8ECF8DBC8EDF8DCC8EEF8DDC874
:10174000EFF8A70E0801F06F020EF16FC3DF000E75
:1017500000180EE0FF0E0201A36FFF0EA46FFF0E34
:10176000A56FFF0EA66FFE0E9E6FFF0E006E09D0D6
:10177000DAC8A3F2DBC8A4F2DCC8A5F2DDC8A6F281
:04178000006A1200E9
:10178400DAC802F0DBC803F002C000F003C001F0C5
:10179400024A032A00C0E9FF01C0EAFFEE5201E059
:1017A400F3D70801DA51025C006EDB510358016E75
:0A17B400010E005E000E015A120043
:1017BE000134083609360450085E0550D8A0053CA1
:1017CE00095E003601360F0E0C6E013408360936EE
:1017DE00045000A006D0085E0550D8A0053C095E56
:1017EE0005D008260550D8B0053C0926003601362E
:1017FE000C2EEBD700B006D0045008260550D8B0FA
:08180E00053C09260000120050
:10181600FF0E0801DC25E66F000EDD21E76F0B0EDB
:10182600DA25EC6F000EDB21ED6F39DCE6C8E1FF4F
:10183600E7C8E2FF00C0E6FF000EDC25E66F010EFA
:10184600DD21E76F1C0EDA25EC6F000EDB21ED6F54
:101856008DDCE6C8E1FFE7C8E2FF00C0E6FF01C095
:10186600E6FF02C0E6FF03C0E6FF040EDC25EA6FD2
:10187600010EDD21EB6F140EDA25EC6F000EDB2175
:10188600ED6F00DF00C003F001C004F0000E056E2E
:10189600066E04C0E9F803C0E8F8E66BE76B1A0EBB
:1018A600DA25EC6F000EDB21ED6FECDE000E026E2A
:1018B600036EE6510026E7510122E8510222E95162
:1018C6000322EAC8E1FFEBC8E2FF00C0E6FF01C061
:1018D600E6FF02C0E6FF03C0E6FF0B0EDA25E96E5F
:1018E600000EDB21EA6E3F0EEE14016E01500F0A68
:1018F60026E0DCC8ECF8DDC8EDF8EE6BFF0EEF6F06
:10190600000EF06FA1DEDCC8ECF8DDC8EDF8DEC82D
:10191600EEF8DFC8EFF8E0C8F0F8E1C8F1F8E2C881
:10192600F2F8E3C8F3F8E4C8F4F8E5C8F5F8C8DC5B
:101936000050000A03E0FF0E006E07D005D0DCC899
:0C194600E1FFDDC8E2FFE66A006A120063
:1019520009015D6B5E6B5F6B606BD6EC01F0005052
:10196200000A03E0FF0E006E2BD1A70E0801DB6F09
:10197200020EDC6FA70EDD6F020EDE6FFE0EDB25A0
:10198200EC6F010EDC21ED6F7FDE0150AA0A02E14D
:10199200550E001806E0FC0E02019E6FFF0E006E4F
:1019A2000FD1DDC8E9FFDEC8EAFFEECF01F001503A
:1019B200E90A15E0DDC8E9FFDEC8EAFFEECF01F073
:1019C2000150EB0A0BE1020E0801DD25E96E000E63
:1019D200DE21EA6EEE50900A01E101D006D0FB0E44
:1019E20002019E6FFF0E006EEBD00801DA6B010E52
:1019F200DA5DD8B0E4D00A0E006E000E016EDAC8CD
:101A020004F0000E056E42EC05F0B10E0026040E45
:101A1200012200C0DFF801C0E0F8BE0EDB25EC6F4A
:101A2200010EDC21ED6F040E026EDAC800F0000E2A
:101A3200016E025005E0003600900136FF0FFAD722
:101A42000050EC270150ED2352EC08F0DFC8E1FF13
:101A5200E0C8E2FF00C0E6FF0A0E006E000E016E53
:101A6200DAC804F0000E056E42EC05F0B10E002655
:101A7200040E0122010E0024DF6F000E0120E06F30
:101A8200BE0EDB25EC6F010EDC21ED6F040E026E43
:101A9200DAC800F0000E016E025005E00036009038
:101AA2000136FF0FFAD70050EC270150ED23040E48
:101AB200EC27000EED2352EC08F0DFC8E1FFE0C88E
:101AC200E2FF00C0E6FF0A0E006E000E016EDAC8E9
:101AD20004F0000E056E42EC05F0B10E0026040E75
:101AE2000122020E0024DF6F000E0120E06FBE0E05
:101AF200DB25EC6F010EDC21ED6F040E026EDAC8FD
:101B020000F0000E016E025005E000360090013632
:101B1200FF0FFAD70050EC270150ED23080EEC27F7
:101B2200000EED23B9EC08F0DFC8E1FFE0C8E2FFE8
:101B320000C0E6FF01C0E6FF02C0E6FF03C0E6FF09
:101B42000A0E006E000E016EDAC804F0000E056E79
:101B520042EC05F0B10E0026040E0122060E00240E
:101B6200DF6F000E0120E06FBE0EDB25EC6F010E71
:101B7200DC21ED6F040E026EDAC800F0000E016E79
:101B8200025005E0003600900136FF0FFAD70050F0
:101B9200EC270150ED230C0EEC27000EED23B9ECDF
:101BA20008F0DFC8E1FFE0C8E2FF00C0E6FF01C0C5
:101BB200E6FF02C0E6FF03C0E6FFDA2B18D7006A91
:021BC20012000F
:101BC400DAC842F964EC03F0005208E1DAC8ECF830
:101BD40046EC09F0005202E1006A02D0010E006EE8
:021BE4001200ED
:101BE6000B1E0A1E091E081E082AD8B4092AD8B4D4
:081BF6000A2AD8B40B2A1200E0
:101BFE00DEC801F0DFC802F0010E0801DE5F000E44
:101C0E00DF5B000E021802E1000E01181FE0DAC8B9
:101C1E00E9FFDBC8EAFFDCC8D9FFDDC8DAFFEE500A
:101C2E00DE180FE0DAC8E9FFDBC8EAFFDCC8D9FF2F
:101C3E00DDC8DAFFDE50EE5C006E016A000E015A5E
:101C4E0007D0DA4BDB2BDC4BDD2BD2D7006A016AD7
:021C5E00120072
:101C60000801DA517A0804E3610EDA5DD8B0DA9B34
:061C7000DAC800F01200CA
:101C76000450085E0550D8A0053C095E0650D8A061
:101C8600063C0A5E0750D8A0073C0B5E0336070EDB
:101C96000C6E0334083609360A360B36045003A098
:101CA6000ED0085E0550D8A0053C095E0650D8A0A7
:101CB600063C0A5E0750D8A0073C0B5E0DD00826EE
:101CC6000550D8B0053C09260650D8B0063C0A2671
:101CD6000750D8B0073C0B2603360C2EDAD7023451
:101CE600083609360A360B36045003A00ED0085EB5
:101CF6000550D8A0053C095E0650D8A0063C0A5EF1
:101D06000750D8A0073C0B5E0DD008260550D8B06A
:101D1600053C09260650D8B0063C0A260750D8B01E
:101D2600073C0B260236070E0C6E023408360936BF
:101D36000A360B36045002A00ED0085E0550D8A015
:101D4600053C095E0650D8A0063C0A5E0750D8A09E
:101D5600073C0B5E0DD008260550D8B0053C092679
:101D66000650D8B0063C0A260750D8B0073C0B26CA
:101D760002360C2EDAD70134083609360A360B3607
:101D8600045002A00ED0085E0550D8A0053C095E9E
:101D96000650D8A0063C0A5E0750D8A0073C0B5E4A
:101DA6000DD008260550D8B0053C09260650D8B0F7
:101DB600063C0A260750D8B0073C0B260136070E0C
:101DC6000C6E0134083609360A360B36045001A06B
:101DD6000ED0085E0550D8A0053C095E0650D8A076
:101DE600063C0A5E0750D8A0073C0B5E0DD00826BD
:101DF6000550D8B0053C09260650D8B0063C0A2640
:101E06000750D8B0073C0B2601360C2EDAD7003423
:101E1600083609360A360B36045001A00ED0085E85
:101E26000550D8A0053C095E0650D8A0063C0A5EBF
:101E36000750D8A0073C0B5E0DD008260550D8B039
:101E4600053C09260650D8B0063C0A260750D8B0ED
:101E5600073C0B260036070E0C6E00340836093692
:101E66000A360B36045000A00ED0085E0550D8A0E6
:101E7600053C095E0650D8A0063C0A5E0750D8A06D
:101E8600073C0B5E0DD008260550D8B0053C092648
:101E96000650D8B0063C0A260750D8B0073C0B2699
:101EA60000360C2EDAD700B00ED0045008260550A6
:101EB600D8B0053C09260650D8B0063C0A2607507D
:081EC600D8B0073C0B26120006
:101ECE00010E066E000E076E086E096E056A800E14
:101EDE00006E800E000A005C02E1200E055C23E21B
:101EEE0006500801DA11016E0750DB11026E085020
:101EFE00DC11036E0950DD11046E0450091808E15F
:101F0E000350081805E10250071802E101500618A7
:101F1E0003E105C000F009D00636069007360836F4
:0C1F2E000936052AD4D7FF0E006E120001
:101F3A000601B351020A17E1010E0201A3250801A5
:101F4A00EC6F000E0201A4210801ED6F000E0201E0
:101F5A00A5210801EE6F000E0201A6210801EF6F0C
:101F6A0059EC08F030D00601B351000A06E1FF0E21
:101F7A0002019E6FFF0E006E26D0A70E09012E6F7A
:101F8A00020E2F6F3BEC05F00050000A06E0FF0E30
:101F9A0002019E6FFF0E006E16D00201010EA325EC
:101FAA00006E000EA421016E000EA521026E000E25
:101FBA00A621036E00C0A3F201C0A4F202C0A5F2DA
:081FCA0003C0A6F2006A120038
:101FD2000E0E0801DA25EC6F000EDB21ED6F45ECE9
:101FE2000BF00B0E046E00C002F001C003F00450AF
:101FF20005E003320232039EFF0FFAD71F0E0214CE
:10200200006E00C08AF50E0EDA25EC6F000EDB21A1
:10201200ED6F45EC0BF0050E046E00C002F001C03E
:1020220003F0045005E003320232039EFF0FFAD799
:102032003F0E0214006E00C08BF50E0EDA25EC6F17
:10204200000EDB21ED6F45EC0BF000C002F0023612
:1020520002903F0E0214006E00C08CF5100EDA25BD
:10206200EC6F000EDB21ED6F45EC0BF0090E046EF8
:1020720000C002F001C003F0045005E00332023256
:10208200039EFF0FFAD77F0E0214006E03C001F009
:10209200000E011600C086F501C087F5BC0E0026B1
:1020A200070E012200C086F501C087F5100EDA2561
:1020B200EC6F000EDB21ED6F45EC0BF0050E046EAC
:1020C20000C002F001C003F0045005E00332023206
:1020D200039EFF0FFAD70F0E0214006E00C088F5A0
:1020E200100EDA25EC6F000EDB21ED6F45EC0BF0E4
:0E20F2001F0E0014006E00C089F5006A120077
:102100000801DB6BDC6B270EDC5D02E1100EDB5D92
:10211000D8B0B3D0000E000A02E1000EDA191AE1BD
:10212000B0EC00F0010E0901756F766B776B786B80
:10213000796BFF0E7A6FB2EC00F000C0DDF82CEC8A
:1021400000F00801DD51000A04E10101126B006A90
:1021500096D08FD0B0EC00F0370E0901756F766B1A
:10216000776B786B796BFF0E7A6FB2EC00F000C082
:10217000DDF82CEC00F00801DD51010AD8A478D07C
:10218000B0EC00F0290E0901756F000E766F000E9D
:10219000776F000E786F400E796FFF0E7A6FB2EC9A
:1021A00000F000C0DDF82CEC00F00801DD51000A61
:1021B0005EE1000E000A02E1020EDA1953E1B0EC12
:1021C00000F03A0E0901756F766B776B786B796B5F
:1021D000FF0E7A6FB2EC00F000C0DDF87CC5E1FFC5
:1021E0007DC5E2FFFF0EE66E7AC500F07BC501F00B
:1021F00020EC00F000C0DEF87CC5E1FF7DC5E2FF09
:10220000FF0EE66E7AC500F07BC501F020EC00F011
:102210007CC5E1FF7DC5E2FFFF0EE66E7AC500F0EA
:102220007BC501F020EC00F07CC5E1FF7DC5E2FF3D
:10223000FF0EE66E7AC500F07BC501F020EC00F0E1
:102240002CEC00F00801DD51000A0BE1DEAD04D0FA
:10225000040E0101126F03D00101030E126F006A18
:102260000ED005D00101010E126F006A08D001D016
:1022700004D00801DB4BDC2B46D7010E006E1200A8
:10228000160E0801DA25EC6F000EDB21ED6F45EC30
:102290000BF00B0E046E00C002F001C003F00450FE
:1022A00005E003320232039EFF0FFAD71F0E02141D
:1022B000006E00C091F5160EDA25EC6F000EDB21E2
:1022C000ED6F45EC0BF0050E046E00C002F001C08E
:1022D00003F0045005E003320232039EFF0FFAD7E9
:1022E0003F0E0214006E00C092F5160EDA25EC6F58
:1022F000000EDB21ED6F45EC0BF000C002F0023662
:1023000002903F0E0214006E00C093F5180EDA25FD
:10231000EC6F000EDB21ED6F45EC0BF0090E046E47
:1023200000C002F001C003F0045005E003320232A5
:10233000039EFF0FFAD77F0E0214006E03C001F058
:10234000000E011600C08DF501C08EF5BC0E0026F2
:10235000070E012200C08DF501C08EF5180EDA259A
:10236000EC6F000EDB21ED6F45EC0BF0050E046EFB
:1023700000C002F001C003F0045005E00332023255
:10238000039EFF0FFAD70F0E0214006E00C08FF5E8
:10239000180EDA25EC6F000EDB21ED6F45EC0BF02B
:0E23A0001F0E0014006E00C090F5006A1200BF
:1023AE00160E0801B925006E000EBA21016E010E3F
:1023BE000024E16E000E0120E26E6BC500F00036C7
:1023CE000090003600900036009000C0E6FF160E1A
:1023DE00B925006E000EBA21016E010E0024026EA8
:1023EE00000E0120036E6CC500F00032009E00321C
:1023FE00009E0032009E02C0E9FF03C0EAFFEE50CD
:10240E00002602C0E1FF03C0E2FF00C0E6FF160E89
:10241E00B925E16E000EBA21E26E050E016E6CC595
:10242E0000F0015004E000360090FF0FFBD700C013
:10243E00E6FF160EB925026E000EBA21036E6DC5AB
:10244E0000F00032009E02C0E9FF03C0EAFFEE502A
:10245E00002602C0E1FF03C0E2FF00C0E6FF180E37
:10246E00B925006E000EBA21016E010E0024E16E38
:10247E00000E0120E26EBC0E0501675D026E02C009
:10248E0000F00036009000C0E6FF180E0801B925D6
:10249E00006E000EBA21016E010E0024026E000EB7
:1024AE000120036E69C500F00032009E0032009ECE
:1024BE000032009E02C0E9FF03C0EAFFEE50002684
:1024CE0002C0E1FF03C0E2FF00C0E6FF180EB9250F
:1024DE00E16E000EBA21E26E050E016E69C500F0C6
:1024EE00015004E000360090FF0FFBD700C0E6FF5E
:1024FE00180EB925016E000EBA21026E01C0E9FF59
:10250E0002C0EAFF05016A51EE24006E01C0E1FF30
:0C251E0002C0E2FF00C0E6FF006A1200ED
:10252A00A9EC0CF0A70E0801BA6F020EBB6F0201EC
:10253A009E51FF0A03E1FF0E006E6ED29E51FC0A05
:10254A0003E1FF0E006E68D29E51000AD8A466D03D
:10255A000F0E0401B215016E01C0BCF801500B0A3E
:10256A000AE00801BC510C0A06E0F80E02019E6F4F
:10257A00FF0E006E51D2B3C45DF9B4C45EF9B5C49E
:10258A005FF9B6C460F9D6EC01F00050000A03E026
:10259A00FF0E006E41D2A70E0801BA6F020EBB6F82
:1025AA00FE0EBA25EC6F010EBB21ED6F45EC0BF068
:1025BA000150AA0A02E1550E001806E0FC0E0201BB
:1025CA009E6FFF0E006E28D2BAC8E9FFBBC8EAFFA9
:1025DA00EECF01F00150E90A16E0BAC8E9FFBBC81C
:1025EA00EAFFEECF01F00150EB0A0BE1020E0801FF
:1025FA00BA25E96E000EBB21EA6EEE50900A01E19F
:10260A0002D0006A02D0010E006E005206E1FB0EF3
:10261A0002019E6FFF0E006EFFD11ED002019E5175
:10262A00FB0A1AE1800E0401B16FB36BB46BB56B90
:10263A00B66B200E0801BA25EC6F000EBB21ED6FB8
:10264A00B9EC08F000C0B7F401C0B8F402C0B9F49C
:10265A0003C0BAF402019E6B02019E51000AD8A47B
:10266A00D6D10B0E0801BA25EC6F000EBB21ED6F17
:10267A0045EC0BF000C0BBF401C0BCF40D0EBA254A
:10268A00EC6F000EBB21ED6F52EC08F000C0BDF4F8
:10269A000E0EBA25EC6F000EBB21ED6F45EC0BF068
:1026AA0000C0BEF401C0BFF4100EBA25EC6F000ED4
:1026BA00BB21ED6F52EC08F000C0C0F4240EBA251D
:1026CA00EC6F000EBB21ED6FB9EC08F000C0C1F44D
:1026DA0001C0C2F402C0C3F403C0C4F4280EBA2570
:1026EA00EC6F000EBB21ED6F45EC0BF000C0C5F49A
:1026FA0001C0C6F40401BE51B325006EBF51B42116
:10270A00016E000EB521026E000EB621036E00C0E6
:10271A00C7F401C0C8F402C0C9F403C0CAF42C0E3D
:10272A000801BA25EC6F000EBB21ED6FB9EC08F079
:10273A0000C0CBF401C0CCF402C0CDF403C0CEF487
:10274A00110EBA25EC6F000EBB21ED6F45EC0BF0B4
:10275A0000C0CFF401C0D0F4300EBA25EC6F000EE1
:10276A00BB21ED6F45EC0BF0000E026E036E040107
:10277A00B3510026B4510122B5510222B6510322A7
:10278A0000C0D5F401C0D6F402C0D7F403C0D8F40F
:10279A00C7C4D1F4C8C4D2F4C9C4D3F4CAC4D4F4E3
:1027AA000801B96B0401C0510801B95D18E20401BE
:1027BA00C151D125006EC251D221016EC351D3211C
:1027CA00026EC451D421036E00C0D1F401C0D2F408
:1027DA0002C0D3F403C0D4F40801B92BE3D7050E21
:1027EA00006EBBC494F5BCC495F5000E0501966F46
:1027FA00976F005005E095339433959FFF0FFAD7F2
:10280A00000E966F976FBBC498F5BCC499F5000E7D
:10281A009A6F9B6F99339833999F99339833999FFD
:10282A00000E9A6F9B6FBBC4DAF8BCC4DBF8000ECB
:10283A000801DC6FDD6F67EC0FF000C0B2F6BDC4B3
:10284A00DAF8000E0801DB6FDC6FDD6F67EC0FF062
:10285A0000C064F594C5DAF895C5DBF896C5DCF8CE
:10286A0097C5DDF867EC0FF000C066F598C5DAF891
:10287A0099C5DBF89AC5DCF89BC5DDF867EC0FF063
:10288A0000C057F5050164510601B225006E00C06B
:10289A00ADF6010EAE6F000EAF6F000EB06F000EF8
:1028AA00B16F005007E0AE37AE91AF37B037B137EE
:1028BA00FF0FF8D7200E0801DA6F000EDB6FDC6F0E
:1028CA00DD6F67EC0FF000500601AD5D006E016A26
:1028DA00000E00BEFF0E015A00C004F0010E006E89
:1028EA00000E016E000E026E000E036E045007E029
:1028FA0000360090013602360336FF0FF8D700C0C3
:10290A00A7F401C0A8F402C0A9F403C0AAF400C045
:10291A00DAF801C0DBF802C0DCF803C0DDF867ECC6
:10292A000FF000C065F5CBC49FF2CCC4A0F2CDC4B1
:10293A00A1F2CEC4A2F20401AD6BAE6BAF6BB06B69
:10294A00D1C400F0D2C401F0D3C402F0D4C403F05D
:10295A00B351005EB451015AB551025AB651035AE5
:10296A00B7C4E1F4B8C4E2F4B9C4E3F4BAC4E4F411
:10297A000050E15F0150E25B0250E35B0350E45B0D
:10298A0064C500F0005007E0E433E333E233E13397
:10299A00E49FFF0FF8D7020EE127000EE223E3239C
:1029AA00E423B25320E1000EE45D08E1000EE35D8A
:1029BA0005E1FF0EE25D02E1F70EE15D03E30B0EB6
:1029CA00B26F11D0000EE45D08E1000EE35D05E18F
:1029DA000F0EE25D02E1F70EE15D03E3060EB26F50
:1029EA0002D0010EB26F0F0EB215016E01C0BCF813
:1029FA0001500B0A0AE00801BC510C0A06E0F80E65
:102A0A0002019E6FFF0E006E07D0006A05D0020118
:0A2A1A00FB0E9E6FFF0E006E12000F
:102A2400DDC4B9F8DEC4BAF8DFC4BBF8E0C4BCF84E
:102A34000401CE51E05D08E1CD51DF5D05E1CC51EB
:102A4400DE5D02E1CB51DD5D14E3E4510801BC5DC0
:102A54000EE10401E3510801BB5D09E10401E25107
:102A64000801BA5D04E10401E1510801B95D01E224
:102A740008D0CBC4B9F8CCC4BAF8CDC4BBF8CEC422
:102A8400BCF8B9C8BDF8BAC8BEF8BBC8BFF8BCC862
:102A9400C0F857C504F0B9C800F0BAC801F0BBC803
:102AA40002F0BCC803F0045007E0033202320132E2
:102AB4000032039EFF0FF8D700500401C725080118
:102AC400EC6F01500401C8210801ED6F02500401AC
:102AD400C9210801EE6F03500401CA210801EF6FF8
:102AE40098C500F099C501F09AC502F09BC503F0A2
:102AF400010E005E000E015A025A035A0050B91525
:102B0400046E0150BA15056E0250BB15066E0350D3
:102B1400BC15076E04C000F005C001F0003600903B
:102B24000136003600900136A70E0024C16F020E54
:102B34000120C26F59EC08F00050000A09E0FF0EB2
:102B4400006EFF0E016EFF0E026E0F0E036E6DD14E
:102B54000801C36BC1C8E9FFC2C8EAFFEECF01F0A8
:102B6400EECF02F0EECF03F0EECF04F00450000AF3
:102B740008E10350000A05E10250000A02E1015095
:102B8400000A04E10801010EC36FC0D00801040E5D
:102B9400C127000EC223010EB927000EBA23BB239E
:102BA400BC230401E4510801BC5D0EE10401E351BE
:102BB4000801BB5D09E10401E2510801BA5D04E1C9
:102BC4000401E1510801B95D76E3CBC4B9F8CCC482
:102BD400BAF8CDC4BBF8CEC4BCF8A9EC01F00050DF
:102BE400000A09E0FF0E006EFF0E016EFF0E026E7A
:102BF4000F0E036E1AD157C504F0B9C800F0BAC855
:102C040001F0BBC802F0BCC803F0045007E0033273
:102C1400023201320032039EFF0FF8D70050040144
:102C2400C7250801EC6F01500401C8210801ED6FAC
:102C340002500401C9210801EE6F03500401CA21A6
:102C44000801EF6F98C500F099C501F09AC502F02C
:102C54009BC503F0010E005E000E015A025A035A8E
:102C64000050B915046E0150BA15056E0250BB151B
:102C7400066E0350BC15076E04C000F005C001F0D9
:102C8400003600900136003600900136A70E00246D
:102C9400C16F020E0120C26F59EC08F00050000A07
:102CA40009E0FF0E006EFF0E016EFF0E026E0F0EA6
:102CB400036EBBD01CD00801C2510401AC1903E15E
:102CC400AB510801C11913E10801A70EC16F020E2F
:102CD400C26F9DEC0FF00050000A09E0FF0E006E79
:102CE400FF0E016EFF0E026E0F0E036E9ED00801E2
:102CF400BC51C01908E1BB51BF1905E1BA51BE1955
:102D040002E1B951BD1901E101D024D7A9EC01F0C8
:102D14000050000A09E0FF0E006EFF0E016EFF0E68
:102D2400026E0F0E036E81D00801C35309E1FF0E3A
:102D3400006EFF0E016EFF0E026E0F0E036E75D055
:102D4400C1C8E1FFC2C8E2FFFF0EE66EFF0EE66EE9
:102D5400FF0EE66E0F0EE66E57C504F0B9C800F01C
:102D6400BAC801F0BBC802F0BCC803F0045007E0C5
:102D74000332023201320032039EFF0FF8D70050B3
:102D84000401C7250801DA6F01500401C8210801B4
:102D9400DB6F02500401C9210801DC6F03500401F8
:102DA400CA210801DD6F80EC0BF00050000A07E037
:102DB400FF0E006EFF0E016E026E036E36D004012C
:102DC400DC51FF0A08E1DB51FF0A05E1DA51FF0A91
:102DD40002E1D951FF0A16E0D9C400F0DAC401F0C7
:102DE400DBC402F0DCC403F0010E005E000E015AE5
:102DF400025A035A00C0D9F401C0DAF402C0DBF469
:102E040003C0DCF4B9C8DDF4BAC8DEF4BBC8DFF42F
:102E1400BCC8E0F4010E05019C6FB9C800F0BAC843
:0C2E240001F0BBC802F0BCC803F01200B3
:102E3000050E0101126F95982CEC00F00801B96B9A
:102E4000BA6B000EBA5D02E10A0EB95D10E27CC5F4
:102E5000E1FF7DC5E2FFFF0EE66E7AC500F07BC59F
:102E600001F020EC00F00801B94BBA2BEAD7B0EC26
:102E700000F00901756B766B776B786B796B950E4B
:102E80007A6FB2EC00F000C0BBF82CEC00F0080147
:102E9000BB51010A03E0010E006E85D0B0EC00F0DA
:102EA000080E0901756FAA0E766F010E776F000E7E
:102EB000786F796F870E7A6FB2EC00F000C0BBF8C4
:102EC0007CC5E1FF7DC5E2FFFF0EE66E7AC500F02E
:102ED0007BC501F020EC00F07CC5E1FF7DC5E2FF81
:102EE000FF0EE66E7AC500F07BC501F020EC00F025
:102EF0007CC5E1FF7DC5E2FFFF0EE66E7AC500F0FE
:102F00007BC501F020EC00F07CC5E1FF7DC5E2FF50
:102F1000FF0EE66E7AC500F07BC501F020EC00F0F4
:102F20002CEC00F00801BB51010A0BE0010EDA6F36
:102F300080EC10F0005204E00801DA6B80EC10F035
:102F400005D0020E0801DA6F80EC10F0000E000AC6
:102F500003E1050E0101121903E1020E006E23D0F8
:102F6000000E000A03E10101040E12191BE0B0EC8F
:102F700000F0100E0901756F000E766F020E776F6C
:102F8000000E786F796FFF0E7A6FB2EC00F000C020
:102F9000BBF82CEC00F00801BB51000A03E0030E63
:082FA000006E01D0006A12006E
:102FA8001A0E0801B925E16E000EBA21E26EBBC8FF
:102FB800E6FF1A0EB925006E000EBA21016E010E49
:102FC8000024E16E000E0120E26EBCC8E6FF140E7C
:102FD800B925E16E000EBA21E26EBDC8E6FF140EF7
:102FE800B925006E000EBA21016E010E0024E16EB3
:0E2FF800000E0120E26EBEC8E6FF006A120065
:103006000401B051FF0A08E1AF51FF0A05E1AE51D4
:10301600FF0A02E1AD51FF0A06E1F60E02019E6FBC
:10302600FF0E006E85D29FC2BBF8A0C2BCF8A1C23B
:10303600BDF8A2C2BEF80401CE510201A25D0EE1A6
:103046000401CD510201A15D09E10401CC51020147
:10305600A05D04E10401CB5102019F5D15E304016B
:10306600E4510801BE5D0EE10401E3510801BD5DB6
:1030760009E10401E2510801BC5D04E10401E151EA
:103086000801BB5D01E206D0F40E02019E6FFF0E41
:10309600006E4ED20801C56B65C500F0ADC401F0E7
:1030A600AEC402F0AFC403F0B0C404F0005007E0B1
:1030B6000432033202320132049EFF0FF8D7045065
:1030C600000809E10350000806E10250000803E188
:1030D60008010150C55D56E2BBC859F9BCC85AF98A
:1030E600BDC85BF9BEC85CF992EC02F000C0BBF843
:1030F60001C0BCF802C0BDF803C0BEF803500F0AF9
:1031060008E10250FF0A05E10150FF0A02E1005002
:10311600FF0A06E1F10E02019E6FFF0E006E08D255
:103126000401CE510801BE5D0EE10401CD51080136
:10313600BD5D09E10401CC510801BC5D04E1040157
:10314600CB510801BB5D15E30401E4510801BE5DE6
:103156000EE10401E3510801BD5D09E10401E251FC
:103166000801BC5D04E10401E1510801BB5D01E217
:1031760006D0F40E02019E6FFF0E006ED9D1080133
:10318600C52B8AD7A7C400F0A8C401F0A9C402F0D1
:10319600AAC403F0010E005E000E015A025A035A39
:1031A60000500401AD150801C16F01500401AE15B0
:1031B6000801C26F02500401AF150801C36F035026
:1031C6000401B0150801C46FBBC859F9BCC85AF947
:1031D600BDC85BF9BEC85CF965EC02F066C508F0CF
:1031E600C1C804F0C2C805F0C3C806F0C4C807F0D9
:1031F600085007E00732063205320432079EFF0FF9
:10320600F8D7045000240801EC6F05500120ED6F3B
:1032160006500220EE6F07500320EF6F94C500F0B2
:1032260095C501F096C502F097C503F0010E005E44
:10323600000E015A025A035A0050C115046E01507D
:10324600C215056E0250C315066E0350C415076EEF
:10325600050E026E04C000F005C001F0025005E044
:10326600003600900136FF0FFAD70801A70E00249A
:10327600BF6F020E0120C06F59EC08F00050000A23
:1032860003E0FF0E006E54D1BFC8E9FFC0C8EAFFD5
:10329600EECF01F00150E50A0AE0BFC8E9FFC0C859
:1032A600EAFFEECF01F0200E015C01E318D0BFC8A3
:1032B600E9FFC0C8EAFFEECF01F0140E015C0EE292
:1032C6000B0E0801BF25E96E000EC021EA6E3F0E07
:1032D600EE14016E01500F0A01E101D098D0A9EC5D
:1032E60001F00050000A03E0FF0E006E21D10B0E24
:1032F6000801BF25E96E000EC021EA6EEECF01F08F
:1033060001A62FD0B9C8ECF8BAC8EDF8EE6B100ECE
:10331600EF6F010EF06F27EC0BF0FF0EB925C66FAD
:10332600000EBA21C76F0B0EBF25EC6F000EC02131
:10333600ED6F52EC08F0C6C8E1FFC7C8E2FF00C057
:10334600E6FFB9C842F9BAC843F9BFC844F9C0C8CC
:1033560045F90B0E0901466F000E476FF4EC03F0BA
:103366004CD00801B951BA1148E0BFC8DAF8C0C854
:10337600DBF8B9C8DCF8BAC8DDF89FC2DEF8A0C22F
:10338600DFF8A1C2E0F8A2C2E1F8ADC4E2F8AEC42B
:10339600E3F8AFC4E4F8B0C4E5F80BEC0CF0005069
:1033A600000A03E0FF0E006EC3D0BFC8DAF8C0C83B
:1033B600DBF8E9EC0FF0BFC8DAF8C0C8DBF840EC80
:1033C60011F0080EB925E16E010EBA21E26E9FC218
:1033D600E6FFA0C2E6FFA1C2E6FFA2C2E6FF0C0E10
:1033E600B925E16E010EBA21E26EADC4E6FFAEC4A8
:1033F600E6FFAFC4E6FFB0C4E6FF010E0401AD2749
:10340600000EAE23AF23B023010E006E91D0010E45
:103416000801C127000EC223C323C423200EBF25E3
:10342600016E000EC021026E01C0BFF802C0C0F8D6
:10343600010E0401AD27000EAE23AF23B0230250C8
:10344600AC1902E1AB510118D8A471D0A70E08013E
:10345600BF6F020EC06FC4510401AA190EE1080124
:10346600C3510401A91909E10801C2510401A819AF
:1034760004E10801C1510401A71951E1A9EC01F0C9
:103486000050000A03E0FF0E006E52D00801C16B27
:10349600C26BC36BC46BBBC859F9BCC85AF9BDC86B
:1034A6005BF9BEC85CF992EC02F000C0BBF801C043
:1034B600BCF802C0BDF803C0BEF803500F0A08E10D
:1034C6000250FF0A05E10150FF0A02E10050FF0A1F
:1034D6000BE1FF0E0401AD6FFF0EAE6FFF0EAF6F77
:1034E600FF0EB06F006A24D0BBC859F9BCC85AF9A0
:1034F600BDC85BF9BEC85CF965EC02F000C0ECF82B
:1035060001C0EDF802C0EEF803C0EFF859EC08F080
:103516000050000A03E0FF0E006E0AD008D09DECB2
:103526000FF00050000A03E0FF0E006E01D0ACD68B
:02353600120081
:103538000E0E0801B925006E000EBA21016E010EAB
:103548000024E16E000E0120E26E6BC500F000362B
:103558000090003600900036009000C0E6FF0E0E86
:10356800B925006E000EBA21016E010E0024026E0C
:10357800000E0120036E6CC500F00032009E003280
:10358800009E0032009E02C0E9FF03C0EAFFEE5031
:10359800002602C0E1FF03C0E2FF00C0E6FF0E0EF6
:1035A800B925E16E000EBA21E26E050E016E6CC5FA
:1035B80000F0015004E000360090FF0FFBD700C078
:1035C800E6FF0E0EB925026E000EBA21036E6DC518
:1035D80000F00032009E02C0E9FF03C0EAFFEE508F
:1035E800002602C0E1FF03C0E2FF00C0E6FF100EA4
:1035F800B925006E000EBA21016E010E0024E16E9D
:10360800000E0120E26EBC0E0501675D026E02C06D
:1036180000F00036009000C0E6FF100E0801B92542
:10362800006E000EBA21016E010E0024026E000E1B
:103638000120036E69C500F00032009E0032009E32
:103648000032009E02C0E9FF03C0EAFFEE500026E8
:1036580002C0E1FF03C0E2FF00C0E6FF100EB9257B
:10366800E16E000EBA21E26E050E016E69C500F02A
:10367800015004E000360090FF0FFBD700C0E6FFC2
:10368800100EB925016E000EBA21026E01C0E9FFC5
:1036980002C0EAFF05016A51EE24006E01C0E1FF95
:0C36A80002C0E2FF00C0E6FF006A120052
:1036B40057C504F0BDC800F0BEC801F0BFC802F091
:1036C400C0C803F0045007E0033202320132003272
:1036D400039EFF0FF8D700C0C2F801C0C3F802C0B0
:1036E400C4F803C0C5F80401C7510024086EC851CA
:1036F4000120096EC95102200A6ECA5103200B6EC3
:1037040008C0C2F809C0C3F80AC0C4F80BC0C5F8A1
:1037140098C500F099C501F09AC502F09BC503F065
:10372400010E005E000E015A025A035A00500801AD
:10373400BD15046E0150BE15056E0250BF15066E10
:103744000350C015076E04C000F005C001F0003638
:1037540000900136003600900136A70E0024CA6F8F
:10376400020E0120CB6F08C05DF909C05EF90AC0E2
:103774005FF90BC060F9D6EC01F00050000A03E0D9
:10378400FF0E006E46D0CAC8E1FFCBC8E2FFB9C83D
:10379400E6FFBAC8E6FFBBC8E6FFBCC8E6FFC2C87E
:1037A400C6F8C3C8C7F8C4C8C8F8C5C8C9F808016A
:1037B400C16B0401C0510801C15D22E2C6C8DAF838
:1037C400C7C8DBF8C8C8DCF8C9C8DDF880EC0BF062
:1037D4000050000A03E0FF0E006E1BD00401C1512B
:1037E4000801C6270401C2510801C7230401C351BB
:1037F4000801C8230401C4510801C923C12BD9D726
:10380400C2C8A3F2C3C8A4F2C4C8A5F2C5C8A6F22C
:04381400006A120034
:103818000450000A08E10550000A05E1FF0E006E99
:103828007F0E016E58D00D6A096A086A01500010AF
:10383800D8B4000C015005180A6E0ABE0D1E0B6A9A
:1038480005AE05D0041E051E042AD8B4052A01AE0B
:1038580005D0001E011E002AD8B4012A0150051007
:103868000A6E0ABE10D0DFEC0BF00BB020D00DAE04
:10387800000C001E011E002AD8B4012A081E091EC9
:10388800082AD8B4092A000C05AE0DD001BE07D00D
:103898000150096E0050086E016A006AE8D7016A93
:1038A800006A002A000C011E001E0B2ADDD7082A18
:1038B800D8B4092A0450085CD8A4D9D70550095CA3
:1038C800D8A4D5D7096A086A002AD8B4012A01AE53
:0838D800CED70000FF0C120026
:1038E000B9C8DAF8BAC8DBF8C2EC0BF000C0BEF811
:1038F00001C0BFF8BBC8DAF8BCC8DBF8C2EC0BF0FB
:10390000BF51011802E10050BE1902E0006A2FD039
:10391000BD6BBBC8DAF8BCC8DBF8C2EC0BF0800E9C
:10392000026E800E0118025C02E10050BD5D1DE2D6
:10393000BD51B925E96E000EBA21EA6EEECFDAF874
:1039400030EC0EF000C0BEF8BD51BB25E96E000E94
:10395000BC21EA6EEECFDAF830EC0EF0BE51001862
:1039600002E0006A04D0BD2BD4D7010E006E120015
:10397000010E0801BD6FBE6BBF6BC06BC16BC26B2C
:10398000C36BB9C8E9FFBAC8EAFFEE50000A06E106
:10399000C40E02019E6FFF0E006EF2D0B9C8DAF8B5
:1039A000BAC8DBF8C2EC0BF000C0BCF8BB6BB9C8FE
:1039B000DAF8BAC8DBF8C2EC0BF0800E026E800EAB
:1039C0000118025C02E10050BB5D15E2BB51B92554
:1039D000E96E000EBA21EA6EEECFDAF8E2EC0DF0F5
:1039E000005206E1C30E02019E6FFF0E006EC8D0AA
:1039F0000801BB2BDCD7BC05006E000EBCBFFF0E60
:103A0000016E000E015A0050B925E96E0150BA212D
:103A1000EA6EEE502E0A02E1BC07EDD7800E000AD6
:103A2000006E800EBC19005C06E3E20E02019E6F80
:103A3000FF0E006EA5D0B9C8DAF8BAC8DBF8C2EC40
:103A40000BF0800EBCBF7F0E026E800E0118025C70
:103A500002E10050BC5D09E2BC51B925E16E000EE7
:103A6000BCBFFF0EBA21E26EE66ABB6B800E006E31
:103A7000800EBCBF7F0E005C02E1BC51BB5D12E258
:103A8000BB51B925E96E000EBA21EA6EEECFECF813
:103A900046EC09F0005203E0010E006E71D00801FF
:103AA000BB2BE4D7800E0C0A006E800EBC19005CA4
:103AB00003E2010E006E64D0BB6B800E006E800EC0
:103AC000BCBF7F0E005C02E1BC51BB5D43E2BB5159
:103AD000B925E96E000EBA21EA6EEECF59F94DEC28
:103AE00002F0005204E0010E0801BE6F2CD0080164
:103AF000BB51B925E96E000EBA21EA6EEECF59F935
:103B000059EC02F0005204E0010E0801BF6F1BD017
:103B10000801BB51B925E96E000EBA21EA6EEE50DC
:103B20002E0A11E1C1530CE1BE5304E0BF5302E081
:103B3000010EC06F010EC16FBD6BBE6BBF6B08D0B5
:103B4000010E006E1DD0BD5302E0C22B01D0C32B6D
:103B5000BB2BB3D7BE5304E0BF5302E0010EC06FCE
:103B6000C251080804E3C351030801E303D0010E66
:103B7000006E06D0C05303E0020E006E01D0006A52
:023B8000120031
:103B82000450000A12E10550000A0FE10650000A33
:103B92000CE10750000A09E1FF0E006EFF0E016EF4
:103BA200FF0E026E7F0E036E99D00C6A07BE0C2ABE
:103BB2000D6A0B6A0A6A096A086A03500210011048
:103BC2000010D8B485D0035007180E6E0EBE0D1E1D
:103BD20007AE0BD0041E051E061E071E042AD8B40B
:103BE200052AD8B4062AD8B4072A03AE0BD0001E81
:103BF200011E021E031E002AD8B4012AD8B4022ACA
:103C0200D8B4032A035007100E6E0EBE1DD03BEC33
:103C12000EF00CBE36D00DAE5BD0001E011E021E91
:103C2200031E002AD8B4012AD8B4022AD8B4032A1F
:103C3200081E091E0A1E0B1E082AD8B4092AD8B467
:103C42000A2AD8B40B2A44D007AE15D003BE0DD031
:103C520003500B6E02500A6E0150096E0050086E3E
:103C6200036A026A016A006AD6D7036A026A016AB3
:103C7200006A002A000C031E021E011E001E0C8E8A
:103C8200C6D7082AD8B4092AD8B40A2AD8B40B2A23
:103C92000450085CD8A4BFD70550095CD8A4BBD790
:103CA20006500A5CD8A4B7D707500B5CD8A4B3D788
:103CB2000B6A0A6A096A086A002AD8B4012AD8B4C7
:103CC200022AD8B4032A03AEA6D70E6A0E88FF0CC6
:0E3CD2000E6A0CA002D0F3EC0DF0000F1200F1
:103CE000086A080E0C6E003408360450085ED8B01E
:0E3CF00002D00826D89000360C2EF5D7120010
:103CFE009FC2BDF8A0C2BEF8A1C2BFF8A2C2C0F852
:103D0E000401AD6BAE6BAF6BB06B0401CE5108010D
:103D1E00C05D0EE10401CD510801BF5D09E1040152
:103D2E00CC510801BE5D04E10401CB510801BD5D1B
:103D3E0015E30401E4510801C05D0EE10401E351F5
:103D4E000801BF5D09E10401E2510801BE5D04E115
:103D5E000401E1510801BD5D01E206D0F40E02013D
:103D6E009E6FFF0E006EF7D0A70E0801C56F020EF4
:103D7E00C66FBDC859F9BEC85AF9BFC85BF9C0C8ED
:103D8E005CF965EC02F000C0ECF801C0EDF802C081
:103D9E00EEF803C0EFF859EC08F00050000A03E00B
:103DAE00FF0E006ED8D00801C16BC26BC36BC46B23
:103DBE000401AA510801C45D0EE10401A9510801D4
:103DCE00C35D09E10401A8510801C25D04E10401CB
:103DDE00A7510801C15DD8B095D0C6510401AC19E8
:103DEE0003E1AB510801C5190DE10801A70EC56F1E
:103DFE00020EC66F9DEC0FF00050000A03E0FF0E9E
:103E0E00006EA9D0C5C8DAF8C6C8DBF8B9C8DCF8A8
:103E1E00BAC8DDF80B0E0801DE6F000EDF6FFFEC87
:103E2E000DF0000E011802E1000E001858E1A9EC89
:103E3E0001F00050000A03E0FF0E006E8CD0080166
:103E4E00BB51BC113DE0C5C8DAF8C6C8DBF8BBC82B
:103E5E00DCF8BCC8DDF89FC2DEF8A0C2DFF8A1C254
:103E6E00E0F8A2C2E1F8ADC4E2F8AEC4E3F8AFC424
:103E7E00E4F8B0C4E5F80BEC0CF00050000A03E0D7
:103E8E00FF0E006E68D0080E0801BB25E16E010E14
:103E9E00BC21E26E9FC2E6FFA0C2E6FFA1C2E6FF12
:103EAE00A2C2E6FF0C0EBB25E16E010EBC21E26E36
:103EBE00ADC4E6FFAEC4E6FFAFC4E6FFB0C4E6FF96
:103ECE00C5C8DAF8C6C8DBF8E9EC0FF0C5C8DAF8F1
:103EDE00C6C8DBF840EC11F0010E006E3CD00801B4
:103EEE00200EC527000EC623010EC127000EC223C9
:103EFE00C323C423010E0401AD27000EAE23AF234E
:103F0E00B02356D7A9EC01F00050000A03E0FF0ED3
:103F1E00006E21D0BDC859F9BEC85AF9BFC85BF9A9
:103F2E00C0C85CF992EC02F000C0BDF801C0BEF84A
:103F3E0002C0BFF803C0C0F803500F0A08E10250D8
:103F4E00FF0A05E10150FF0A02E10050FF0A02E1FB
:083F5E00006A01D0DAD612005E
:103F6600ADC4D1F8AEC4D2F8AFC4D3F8B0C4D4F857
:103F76009FC22EF9A0C22FF9A1C230F9A2C231F90F
:103F8600ADC432F9AEC433F9AFC434F9B0C435F9AF
:103F9600D50E0901366F080E376F4BEC06F0005050
:103FA600000A03E0FF0E006E7CD194C500F095C5B3
:103FB60001F096C502F097C503F0010E005E000EF3
:103FC600015A025A035A00500401AD15046E0150FD
:103FD600AE15056E0250AF15066E0350B015076E8E
:103FE60004C0CDF805C0CEF806C0CFF807C0D0F89B
:103FF600050E026E04C000F005C001F0025005E097
:10400600003600900136FF0FFAD7A70E00240901EB
:104016002E6F020E01202F6F010E0801BC6F6AEC95
:1040260005F000C0BDF8010E0401AD5F000EAE5BE9
:10403600AF5BB05B000E006E0801D01908E10050BE
:10404600CF1905E10050CE1902E1CD51000A2CE14D
:10405600A7C4CDF8A8C4CEF8A9C4CFF8AAC4D0F88E
:10406600010ECD5F000ECE5BCF5BD05B9FC22EF9FB
:10407600A0C22FF9A1C230F9A2C231F9ADC432F9FA
:10408600AEC433F9AFC434F9B0C435F9D50E09015D
:10409600366F080E376F4BEC06F00050000A03E04F
:1040A600FF0E006EFED007D0010E0801CD5F000E98
:1040B600CE5BCF5BD05B080194C500F095C501F0DF
:1040C60096C502F097C503F0010E005E000E015A78
:1040D600025A035A0050CD15046E0150CE15056ED6
:1040E6000250CF15066E0350D015076E050E026EF0
:1040F60004C000F005C001F0025005E00036009053
:104106000136FF0FFAD7A70E0026020E012200C0C5
:10411600CBF801C0CCF80B0E0024E96E000E01208E
:10412600EA6E3F0EEE14016E01500F0A06E0C00E55
:1041360002019E6FFF0E006EB4D00D0E0801CB2556
:10414600E96E000ECC21EA6EEE50BD1906E0C10EF6
:1041560002019E6FFF0E006EA4D0CBC8E9FFCCC84B
:10416600EAFFEECF00F01F0E0014016E01500801A9
:10417600BC1906E0C20E02019E6FFF0E006E91D0C2
:10418600CBC82EF9CCC82FF9BE0E0901306F080E28
:10419600316F94EC05F00801BB6BBE0EE96E080E9C
:1041A600EA6EBB51E926D8B0EA2AEECFDAF830EC4F
:1041B6000EF000C0D9F8BC05006E016A000E015A67
:1041C6000D0E046E000E056E42EC05F0BB51002686
:1041D600000E01220050B925E96E0150BA21EA6E9F
:1041E600EECFDAF830EC0EF0D95100180AE0D1C85B
:1041F600ADF4D2C8AEF4D3C8AFF4D4C8B0F4006AF4
:1042060050D0BB2B0D0EBB5D0CE2BE0EE96E080E48
:10421600EA6EBB51E926D8B0EA2AEE50000A01E060
:10422600BCD70D0EBB5D2AE2BE0EE96E080EEA6E25
:10423600BB51E926D8B0EA2ABC05006E016A000E19
:10424600015A0D0E046E000E056E42EC05F0BB51D0
:104256000026000E01220050B925D96E0150BA2160
:10426600DA6EEE50DE180AE0D1C8ADF4D2C8AEF46C
:10427600D3C8AFF4D4C8B0F4006A13D0BC2BCBC8F3
:10428600E9FFCCC8EAFFEECF01F001ACCCD6D1C82D
:10429600ADF4D2C8AEF4D3C8AFF4D4C8B0F4010EAE
:0442A600006E120094
:1042AA0005019C5302E1006A63D0A70E0801986FCA
:1042BA00020E996FA70EEC6F020EED6FEE6B000EF9
:1042CA00EF6F020EF06F27EC0BF098C8E1FF99C868
:1042DA00E2FF520EE66E520EE66E610EE66E410E79
:1042EA00E66EE40E9825E16E010E9921E26E720ED9
:1042FA00E66E720EE66E410EE66E610EE66EE80E30
:10430A009825E16E010E9921E26ED9C4E6FFDAC45E
:10431A00E6FFDBC4E6FFDCC4E6FFEC0E9825E16E9F
:10432A00010E9921E26EDDC4E6FFDEC4E6FFDFC4BA
:10433A00E6FFE0C4E6FFFE0E9825E16E010E992124
:10434A00E26E550EE66EAA0EE66ED5C4DAF8D6C44B
:10435A00DBF8D7C4DCF8D8C4DDF880EC0BF00050E9
:10436A00000A03E0FF0E006E03D005019C6B006A91
:02437A0012002F
:10437C0098C8E9FF99C8EAFFEE50000A07E1C40E9D
:10438C0002019E6FFF0E006E53EF28F09AC8ECF8F6
:10439C009BC8EDF8200E0801EE6F0B0EEF6F000EB0
:1043AC00F06F27EC0BF098C8E9FF99C8EAFFEE50C4
:1043BC002E0A12E1010E9825E96E000E9921EA6E83
:1043CC00EE50000A09E19AC8E1FF9BC8E2FF2E0EED
:1043DC00E66E006A53EF28F098C8E9FF99C8EAFF27
:1043EC00EE502E0A23E1010E9825E96E000E99215C
:1043FC00EA6EEE502E0A1AE1020E9825E96E000EB6
:10440C009921EA6EEE50000A11E19AC8E1FF9BC8AF
:10441C00E2FF2E0EE66E010E9A25E16E000E9B2138
:10442C00E26E2E0EE66E006A53EF28F098C8E9FF94
:10443C0099C8EAFFEE502E0A07E1E20E02019E6FC8
:10444C00FF0E006E53EF28F098C8DAF899C8DBF825
:10445C00C2EC0BF000C0AAF801C0ABF898C8B9F8D0
:10446C0099C8BAF8B8EC1CF000C0A7F80050FF0AC5
:10447C0004E1FF0E006E53EF28F0010E0801AA5D57
:10448C00006E000EAB59016E00509825E96E01507C
:10449C009921EA6EEE502E0A10E0010EAA5D006E14
:1044AC00000EAB59016E00509825E96E0150992110
:1044BC00EA6EEE50200A01E015D0800E006E800EE0
:1044CC00AB19005C02E1AA5100080CE2AA51982534
:1044DC00E16EAB519921E26EE66A010EAA5F000E05
:1044EC00AB5BCBD7000EAB1902E1000EAA1904E1AD
:1044FC00FF0E006E53EF28F0000EA7BFFF0E006EEC
:10450C00000E001802E1000EA7190BE0000EA7BF69
:10451C00FF0E006E000E001802E1020EA71901E05A
:10452C008BD0A26BA16B080EA15D2DE2A251982538
:10453C00E96E000E9921EA6EEE502E0A0AE0A251A5
:10454C009825E96E000E9921EA6EEE50000A01E002
:10455C0001D019D0A1519A25AC6F000E9B21AD6FE3
:10456C00A2519825E96E000E9921EA6EEECFDAF889
:10457C0030EC0EF0ACC8E1FFADC8E2FF00C0E6FFC6
:10458C00A22BA12BD0D7A2519825E96E000E992110
:10459C00EA6EEE50000A0AE19AC8B9F89BC8BAF85C
:1045AC00BB6BBC6B7FEC1EF053EF28F00801A251E3
:1045BC009825E96E000E9921EA6EEE502E0A02E162
:1045CC00A22B07D0E20E02019E6FFF0E006E53EF7E
:1045DC0028F0080E0801A16F0B0EA15D23E2A25179
:1045EC009825E96E000E9921EA6EEE50000A01E161
:1045FC0019D0A1519A25AC6F000E9B21AD6FA25121
:10460C009825E96E000E9921EA6EEECFDAF830ECBF
:10461C000EF0ACC8E1FFADC8E2FF00C0E6FFA22B74
:10462C00A12BDAD79AC8B9F89BC8BAF8BB6BBC6B8C
:10463C007FEC1EF053EF28F0000E0801A7BFFF0E11
:10464C00006E000E001802E1010EA719D8A450EF5D
:10465C0028F0AAC8A4F8010EAA5DA56F000EAB59EC
:10466C00A66FA5519825E96EA6519921EA6EEE50D8
:10467C002E0A0EE0800E006E800EA619005C02E180
:10468C00A551000805E2010EA55F000EA65BE9D757
:10469C00800E006E800EA619005C02E1A551000888
:1046AC004DE2A5C8A4F8A54BA62B080EA16F0B0EC6
:1046BC00A15D44E2A5519825E96EA6519921EA6EB7
:1046CC00EE50000A3BE0A5519825E96EA6519921C0
:1046DC00EA6EEECFECF846EC09F0005219E1080155
:1046EC00A1519A25AC6F000E9B21AD6FA551982559
:1046FC00E96EA6519921EA6EEECFDAF830EC0EF0A5
:10470C00ACC8E1FFADC8E2FF00C0E6FFA12B13D09F
:10471C000801A5519825E96EA6519921EA6EEE5033
:10472C00200A09E0A1519A25E16E000E9B21E26E50
:10473C005F0EE66EA12BA54BA62BB9D7A4C8A5F886
:10474C00000EA66FA26BA16B080EA15D56E2A251E2
:10475C009825E96E000E9921EA6EEE50000A01E1EF
:10476C004CD0000EA61902E1A551A21901E145D0C9
:10477C00A2519825E96E000E9921EA6EEE502E0A90
:10478C000AE0A2519825E96E000E9921EA6EEE50CE
:10479C00200A01E001D02FD0A2519825E96E000E1D
:1047AC009921EA6EEECFECF846EC09F0005219E1D3
:1047BC000801A1519A25AC6F000E9B21AD6FA2513F
:1047CC009825E96E000E9921EA6EEECFDAF830ECFE
:1047DC000EF0ACC8E1FFADC8E2FF00C0E6FFA12BB4
:1047EC000AD00801A1519A25E16E000E9B21E26EC0
:1047FC005F0EE66EA12BA22BA7D7010EA86F060E9B
:10480C00A15D03E2A1C89CF802D0060E9C6F9CC867
:10481C00A4F89C519A25E16E000E9B21E26E7E0E4F
:10482C00E66E010EA36FA35109083BE3A851000AE1
:10483C0038E0A451010F006E016A000E01220050F5
:10484C009A25E16E01509B21E26E300EA325006E7D
:10485C0000C0E6FF9AC8B9F89BC8BAF8BB6BBC6B32
:10486C007FEC1EF000C0A8F80050FF0A04E1FF0E18
:10487C00006E53EF28F00801A851010A0FE198C807
:10488C00B9F899C8BAF8B3EC1FF000C0A9F80050F9
:10489C00000A04E0A9C800F053EF28F00801A32B8C
:1048AC00C2D7A851000AD8B475D0050EA15D03E299
:1048BC00A1C89DF802D0050E9D6F9DC8A4F89D510E
:1048CC009A25E16E000E9B21E26E7E0EE66E0A0EBC
:1048DC00A36FA35163085EE3A851000A5BE0A451E7
:1048EC00010F006E016A000E012200509A25AC6F78
:1048FC0001509B21AD6F0A0E046EA3C800F070EC42
:10490C001EF0300E0026ACC8E1FFADC8E2FF00C0BF
:10491C00E6FF020EA425006E016A000E0122005073
:10492C009A25AC6F01509B21AD6F0A0E046EA3C883
:10493C0000F070EC1EF008C000F0300E0026ACC881
:10494C00E1FFADC8E2FF00C0E6FF9AC8B9F89BC80A
:10495C00BAF8BB6BBC6B7FEC1EF000C0A8F8005023
:10496C00FF0A03E1FF0E006E98D30801A851010A5B
:10497C000EE198C8B9F899C8BAF8B3EC1FF000C0AA
:10498C00A9F80050000A03E0A9C800F086D308017A
:10499C00A32B9FD7A851000AD8B49DD0040EA15DBB
:1049AC0003E2A1C89EF802D0040E9E6F9EC8A4F824
:1049BC009E519A25E16E000E9B21E26E7E0EE66EF4
:1049CC00640EA36F800E030A006E800E005C02E181
:1049DC00A351E708D8A07FD0A851000AD8B47BD047
:1049EC00A451010F006E016A000E012200509A259D
:1049FC00AC6F01509B21AD6F640E046EA3C800F028
:104A0C0070EC1EF0300E0026ACC8E1FFADC8E2FF22
:104A1C0000C0E6FF020EA425006E016A000E012202
:104A2C0000509A25AC6F01509B21AD6F0A0E046E9D
:104A3C00A3C800F070EC1EF00A0E046E70EC1EF0B1
:104A4C0008C000F0300E0026ACC8E1FFADC8E2FF94
:104A5C0000C0E6FF030EA425006E016A000E0122C1
:104A6C0000509A25AC6F01509B21AD6F0A0E046E5D
:104A7C00A3C800F070EC1EF008C000F0300E002649
:104A8C00ACC8E1FFADC8E2FF00C0E6FF9AC8B9F8B8
:104A9C009BC8BAF8BB6BBC6B7FEC1EF000C0A8F8CF
:104AAC000050FF0A03E1FF0E006EF7D20801A85177
:104ABC00010A0EE198C8B9F899C8BAF8B3EC1FF01E
:104ACC0000C0A9F80050000A03E0A9C800F0E5D224
:104ADC000801A32B77D7A851000AD8B4C2D0030E73
:104AEC00A15D03E2A1C89FF802D0030E9F6F9FC87F
:104AFC00A4F89F519A25E16E000E9B21E26E7E0E6A
:104B0C00E66EE80EA36F800E270A006E800E005C26
:104B1C0002E1A3510F08D8A0A4D0A851000AD8B420
:104B2C00A0D0A451010F006E016A000E01220050AA
:104B3C009A25AC6F01509B21AD6FE80E046E030EED
:104B4C00056EA3C800F0000E016E0CEC1CF0300ECC
:104B5C000026ACC8E1FFADC8E2FF00C0E6FF020EC4
:104B6C000801A425006E016A000E012200509A254E
:104B7C00AC6F01509B21AD6F640E046EA3C800F0A6
:104B8C0070EC1EF00A0E046E70EC1EF008C000F003
:104B9C00300E0026ACC8E1FFADC8E2FF00C0E6FF56
:104BAC00030EA425006E016A000E012200509A2506
:104BBC00AC6F01509B21AD6F0A0E046EA3C800F0C0
:104BCC0070EC1EF00A0E046E70EC1EF008C000F0C3
:104BDC00300E0026ACC8E1FFADC8E2FF00C0E6FF16
:104BEC00040EA425006E016A000E012200509A25C5
:104BFC00AC6F01509B21AD6F0A0E046EA3C800F080
:104C0C0070EC1EF008C000F0300E0026ACC8E1FFBE
:104C1C00ADC8E2FF00C0E6FF9AC8B9F89BC8BAF865
:104C2C00BB6BBC6B7FEC1EF000C0A8F80050FF0AF9
:104C3C0003E1FF0E006E31D20801A851010A0EE10A
:104C4C0098C8B9F899C8BAF8B3EC1FF000C0A9F825
:104C5C000050000A03E0A9C800F01FD20801A32BE2
:104C6C0052D7A851000AD8B4F1D0020EA15D03E2CC
:104C7C00A1C8A0F802D0020EA06FA0C8A4F8A05141
:104C8C009A25E16E000E9B21E26E7E0EE66E100EF2
:104C9C00A36F800E000A006E800E005C08E1000E0F
:104CAC00010805E1000E860802E1A3519F08D8A077
:104CBC00CDD0A851000AD8B4C9D0A451010F006EB0
:104CCC00016A000E012200509A25AC6F01509B2105
:104CDC00AD6F100E046E270E056EA3C800F0000E0B
:104CEC00016E0CEC1CF0300E0026ACC8E1FFADC818
:104CFC00E2FF00C0E6FF020E0801A425006E016A67
:104D0C00000E012200509A25AC6F01509B21AD6F13
:104D1C00E80E046E030E056EA3C800F0000E016EC3
:104D2C000CEC1CF00A0E046E000E056E0CEC1CF064
:104D3C0008C000F009C001F0300E0026ACC8E1FF3D
:104D4C00ADC8E2FF00C0E6FF030E0801A425006E0B
:104D5C00016A000E012200509A25AC6F01509B2174
:104D6C00AD6F640E046EA3C800F070EC1EF00A0E5A
:104D7C00046E70EC1EF008C000F0300E0026ACC8BB
:104D8C00E1FFADC8E2FF00C0E6FF040EA425006EF3
:104D9C00016A000E012200509A25AC6F01509B2134
:104DAC00AD6F0A0E046EA3C800F070EC1EF00A0E74
:104DBC00046E70EC1EF008C000F0300E0026ACC87B
:104DCC00E1FFADC8E2FF00C0E6FF050EA425006EB2
:104DDC00016A000E012200509A25AC6F01509B21F4
:104DEC00AD6F0A0E046EA3C800F070EC1EF008C084
:104DFC0000F0300E0026ACC8E1FFADC8E2FF00C0E9
:104E0C00E6FF9AC8B9F89BC8BAF8BB6BBC6B7FECD1
:104E1C001EF000C0A8F80050FF0A03E1FF0E006E60
:104E2C003CD10801A851010A0EE198C8B9F899C8FB
:104E3C00BAF8B3EC1FF000C0A9F80050000A03E068
:104E4C00A9C800F02AD10801A32B23D7A851000A26
:104E5C00D8B416D1010E9A25E16E000E9B21E26E9C
:104E6C007E0EE66EA00EA36F800E000A006E800E02
:104E7C00005C08E1000E0F0805E1000E420802E19B
:104E8C00A3513F08D8A0FCD0A851000AD8B4F8D040
:104E9C00020EA425006E016A000E012200509A2514
:104EAC00AC6F01509B21AD6FA00E046E860E056E8B
:104EBC00010E066E000E076EA3C800F0000E016E08
:104ECC00026E036EC1EC1DF0300E0026ACC8E1FF83
:104EDC00ADC8E2FF00C0E6FF030E0801A425006E7A
:104EEC00016A000E012200509A25AC6F01509B21E3
:104EFC00AD6F100E046E270E056EA3C800F0000EE9
:104F0C00016E0CEC1CF00A0E046E000E056E0CEC1F
:104F1C001CF008C000F009C001F0300E0026ACC82F
:104F2C00E1FFADC8E2FF00C0E6FF040E0801A425B6
:104F3C00006E016A000E012200509A25AC6F0150E0
:104F4C009B21AD6FE80E046E030E056EA3C800F036
:104F5C00000E016E0CEC1CF00A0E046E000E056EB9
:104F6C000CEC1CF008C000F009C001F0300E00265B
:104F7C00ACC8E1FFADC8E2FF00C0E6FF050E0801BA
:104F8C00A425006E016A000E012200509A25AC6F18
:104F9C0001509B21AD6F640E046EA3C800F070EC41
:104FAC001EF00A0E046E70EC1EF008C000F0300EFD
:104FBC000026ACC8E1FFADC8E2FF00C0E6FF060E5C
:104FCC00A425006E016A000E012200509A25AC6FD8
:104FDC0001509B21AD6F0A0E046EA3C800F070EC5B
:104FEC001EF00A0E046E70EC1EF008C000F0300EBD
:104FFC000026ACC8E1FFADC8E2FF00C0E6FF070E1B
:10500C00A425006E016A000E012200509A25AC6F97
:10501C0001509B21AD6F0A0E046EA3C800F070EC1A
:10502C001EF008C000F0300E0026ACC8E1FFADC881
:10503C00E2FF00C0E6FF9AC8B9F89BC8BAF8BB6B90
:10504C00BC6B7FEC1EF000C0A8F80050FF0A03E117
:10505C00FF0E006E22D00801A851010A0EE198C87B
:10506C00B9F899C8BAF8B3EC1FF000C0A9F8005011
:10507C00000A03E0A9C800F010D00801A32BF4D655
:10508C00A851000A06E0BF0E02019E6FFF0E006ED3
:0C509C0004D003D0FF0E006E00D0120004
:1050A80098C8E9FF99C8EAFFEE50000A06E1C40E65
:1050B80002019E6FFF0E006EB6D09FC29CF8A0C280
:1050C8009DF8A1C29EF8A2C29FF80401AD6BAE6B19
:1050D800AF6BB06B0801A56B9AC8B9F89BC8BAF852
:1050E80003EC18F00050010AD8A494D0FF0E080170
:1050F8009A25E96E000E9B21EA6E3F0EEE14016EB2
:1051080001500F0A03E1010EA56FE6D7010E040155
:10511800AD5F000EAE5BAF5BB05B0801A5533BE033
:1051280098C8B9F899C8BAF8B3EC1FF000C0A4F849
:105138000050FF0A03E1FF0E006E75D00801A4516C
:10514800010A28E19FC22EF9A0C22FF9A1C230F9A5
:10515800A2C231F9ADC432F9AEC433F9AFC434F9DF
:10516800B0C435F9A00E0901366F080E376F4BEC45
:1051780006F00050000A03E0FF0E006E54D09CC8F1
:105188009FF29DC8A0F29EC8A1F29FC8A2F2010E8C
:10519800006E49D035D09AC8B9F89BC8BAF898C8F3
:1051A800BBF899C8BCF870EC1CF00050010A28E163
:1051B8009FC22EF9A0C22FF9A1C230F9A2C231F9BB
:1051C800ADC432F9AEC433F9AFC434F9B0C435F95B
:1051D800A00E0901366F080E376F4BEC06F0005031
:1051E800000A03E0FF0E006E1ED09CC89FF29DC807
:1051F800A0F29EC8A1F29FC8A2F2010E006E13D0C1
:10520800010E0401AD27000EAE23AF23B023080121
:10521800A56B62D79CC89FF29DC8A0F29EC8A1F258
:085228009FC8A2F2006A120007
:10523000670E0801EC6F050EED6FEE6B070EEF6F5A
:10524000000EF06F27EC0BF0860EEC6F050EED6F85
:10525000EE6B070EEF6F000EF06F27EC0BF08D0E6C
:10526000EC6F050EED6FEE6B070EEF6F000EF06F3B
:1052700027EC0BF0B10EEC6F040EED6FEE6B300E01
:10528000EF6F000EF06F27EC0BF0A30EEC6F020E29
:10529000ED6FEE6B040EEF6F020EF06F27EC0BF06C
:1052A000B50EEC6F060EED6FEE6B040E006E000E89
:1052B000016E1A0E0002F3CFEFF8F4CFF0F827ECEE
:1052C0000BF0580EEC6F050EED6FEE6B0C0EEF6FE2
:1052D000000EF06F27EC0BF0FF0E0201A36FFF0E24
:1052E000A46FFF0EA56FFF0EA66FA70E0401AB6F94
:1052F000040EAC6F0601B36B05019C6B0401E16BFE
:10530000E26BE36BE46B02019F6BA06BA16BA26B82
:105310000401AD6BAE6BAF6BB06B0601B46B430EAB
:0A5320000501586F02019E6B120098
:10532A0018EC17F0000E001803E0FF0E006E01D013
:04533A00006A1200F3
:0E533E00ACB202D00000FCD798C8ADFF120040
:10534C00800E08019819006E800E000A005C0CE3B8
:10535C00800E98BF7F0E006E000E800A005C02E18A
:10536C00040E985D01E206D0D80E02019E6FFF0E6E
:10537C00006E67D11A0E006E000E016E98C804F014
:10538C00000E080198BFFF0E056E42EC05F0B50E3D
:10539C000026060E012200C0A1F801C0A2F8180ECA
:1053AC000024E96E000E0120EA6EEE50000A06E1C0
:1053BC00DC0E02019E6FFF0E006E43D1140E08012D
:1053CC00A125D96E000EA221DA6EDECF01F0DECF60
:1053DC0002F0DECF03F0DECF04F09C51045C08E158
:1053EC009B51035C05E19A51025C02E19951015C0D
:1053FC0006E2DB0E02019E6FFF0E006E22D1100E34
:10540C000801A125E96E000EA221EA6EEECF01F093
:10541C00EECF02F0EECF03F0EECF04F004509C1967
:10542C0008E103509B1905E102509A1902E1015061
:10543C00991902E1006A05D1100EA125E96E000E42
:10544C00A221EA6EEECF01F0EECF02F0EECF03F028
:10545C00EECF04F0ADC600F001C005F002C006F0BE
:10546C0003C007F004C008F0005007E00832073210
:10547C0006320532089EFF0FF8D7ADC600F099C86A
:10548C0001F09AC802F09BC803F09CC804F00050CD
:10549C0007E00432033202320132049EFF0FF8D7C8
:1054AC000850041808E10750031805E106500218CB
:1054BC0002E10550011811E10801100EA125E16E61
:1054CC00000EA221E26E99C8E6FF9AC8E6FF9BC8BF
:1054DC00E6FF9CC8E6FF006AB4D00801100EA125B7
:1054EC00E16E000EA221E26E99C8E6FF9AC8E6FFB3
:1054FC009BC8E6FF9CC8E6FF100EA125E96E000EC6
:10550C00A221EA6EEECF01F0EECF02F0EECF03F067
:10551C00EECF04F0ADC600F001C09DF802C09EF8BD
:10552C0003C09FF804C0A0F8005007E0A0339F33DD
:10553C009E339D33A09FFF0FF8D7040EA125E16E7B
:10554C00000EA221E26EA1C8E9FFA2C8EAFFEECFCD
:10555C0000F0EECF01F0EECF02F0EECF03F000C082
:10556C00E6FF01C0E6FF02C0E6FF03C0E6FFA05164
:10557C00000808E19F51000805E19E51000802E176
:10558C009D5100085DE2040EA125A36F000EA2211F
:10559C00A46FA3C8E9FFA4C8EAFFEECF59F9EECF78
:1055AC005AF9EECF5BF9EECF5CF992EC02F0A3C89E
:1055BC00E1FFA4C8E2FF00C0E6FF01C0E6FF02C0A5
:1055CC00E6FF03C0E6FF040E0801A125D96E000E0C
:1055DC00A221DA6EDECF01F0DECF02F0DECF03F0D7
:1055EC00DECF04F00F0E041808E1FF0E031805E1DE
:1055FC00FF0E021802E1FF0E01181AE1100EA12590
:10560C00E16E000EA221E26E140EA125E96E000ED1
:10561C00A221EA6EEECFE6FFEECFE6FFEECFE6FF7D
:10562C00EECFE6FFDB0E02019E6FFF0E006E09D07F
:10563C00010E08019D5F000E9E5B9F5BA05B97D7E0
:04564C00006A1200DE
:105650001C0E08019825E16E000E9921E26E9AC891
:10566000E6FF1C0E9825006E000E9921016E010EBA
:105670000024E16E000E0120E26E9BC8E6FF1C0EC6
:105680009825006E000E9921016E020E0024E16E35
:10569000000E0120E26E9CC8E6FF1C0E9825006EED
:1056A000000E9921016E030E0024E16E000E012010
:0A56B000E26E9DC8E6FF006A1200DA
:1056BA0095EC12F0A70E0801986F020E996FA70ECB
:1056CA009A6F020E9B6F02019E51FF0A03E1FF0EC1
:1056DA00006EA3D09E51FC0A03E1FF0E006E9DD01E
:1056EA009E51000AD8A494D0300E08019825EC6F78
:1056FA00000E9921ED6F45EC0BF000500401B32523
:10570A0009015D6F01500401B42109015E6F000EA9
:10571A000401B52109015F6F000E0401B6210901D8
:10572A00606FD6EC01F00050000A03E0FF0E006E35
:10573A0074D0A70E08019A6F020E9B6FFE0E9A256F
:10574A00EC6F010E9B21ED6F45EC0BF00150AA0A9C
:10575A0002E1550E001806E0FC0E02019E6FFF0ED4
:10576A00006E5BD09AC8ECF89BC8EDF8B9EC08F06B
:10577A000350410A08E10250610A05E10150520A48
:10578A0002E10050520A06E0FA0E02019E6FFF0E75
:10579A00006E43D0E40E08019A25EC6F010E9B219E
:1057AA00ED6FB9EC08F00350610A08E10250410AB2
:1057BA0005E10150720A02E10050720A06E0FA0E8F
:1057CA0002019E6FFF0E006E28D0E80E08019A258E
:1057DA00EC6F010E9B21ED6FB9EC08F000C0D9F413
:1057EA0001C0DAF402C0DBF403C0DCF4EC0E9A2543
:1057FA00EC6F010E9B21ED6FB9EC08F000C0DDF4EF
:10580A0001C0DEF402C0DFF403C0E0F4006A05D090
:0C581A00FA0E02019E6FFF0E006E1200DD
:1058260098C802F099C803F09AC8F6FF9BC8F7FF1C
:105836009CC8F8FF0900F5CF00F098C8E1FF99C8A9
:10584600E2FF00C0E6FF9AC8F6FF9BC8F7FF9CC8B8
:10585600F8FF0900F5CF01F00150000A01E109D077
:10586600010E08019A27000E9B239C23984B992B27
:0C587600DBD702C000F003C001F01200FC
:1058820098C8E1FF99C8E2FF9AC8E6FF006A1200D1
:105892000B0E08019825E16E000E9921E26E9AC85E
:0658A200E6FF006A12009F
:1058A8000D0E08019825E16E000E9921E26E9AC846
:0658B800E6FF006A120089
:1058BE009D0E0801EC6F080EED6FFF0EEE6F0D0ED4
:1058CE00EF6F000EF06F27EC0BF09C6B0D0E9C5DD6
:1058DE001CE29D0EE16E080EE26E9C51E126D8B0E0
:1058EE00E22A9C519A25E96E000E9B21EA6EEECFBC
:1058FE00E6FF9C519A25E96E000E9B21EA6EEE5052
:10590E00000A01E102D09C2BE1D7010E9825E16E31
:10591E00000E9921E26E9DC8E6FF030E9825E16EFA
:10592E00000E9921E26E9EC8E6FF050E9825E16EE7
:10593E00000E9921E26E9FC8E6FF070E9825E16ED4
:10594E00000E9921E26EA0C8E6FF090E9825E16EC1
:10595E00000E9921E26EA1C8E6FF0E0E9825E16EAB
:10596E00000E9921E26EA2C8E6FF100E9825E16E98
:10597E00000E9921E26EA3C8E6FF120E9825E16E85
:10598E00000E9921E26EA4C8E6FF140E9825E16E72
:10599E00000E9921E26EA5C8E6FF160E9825E16E5F
:1059AE00000E9921E26EA6C8E6FF180E9825E16E4C
:1059BE00000E9921E26EA7C8E6FF1C0E9825E16E37
:1059CE00000E9921E26EA8C8E6FF1E0E9825E16E24
:1059DE00000E9921E26EA9C8E6FF9C51010F026EDE
:1059EE00036A000E0322B7D0010E9825006E000E3A
:1059FE009921016E010E0024E16E000E0120E26E6F
:105A0E00FF0EE66E030E9825006E000E9921016EB4
:105A1E00010E0024E16E000E0120E26EFF0EE66E16
:105A2E00050E9825006E000E9921016E010E0024C0
