:1000000080EF00F00000000000EF00F000000000B2
:0A0010000000000000000000F3D71C
:0E001C00ACB202D00000FCD785C0ADFF1200D0
:10002A0081C0F6FF82C0F7FF83C0F8FF0900F5CF51
:10003A0000F0005211E081C0F6FF82C0F7FF83C0D2
:10004A00F8FF0900F5CF85F0E4DF010E00018127F2
:0A005A00000E82238323E4D7120076
:100064000001846B81C0E9FF82C0EAFFEECF83F018
:100074008351000A0EE083C085F0CEDF0001842B9B
:1000840084518125E96E000E8221EA6EEECF83F061
:04009400EFD7120090
:100098000900F5CFE6FF0006FBE10106F9E11200D1
:1000A8001C0E00017D6F000E7E6F850E7F6F000EA7
:1000B800806FFF0E796FFF0E7A6F000E7B6F000E58
:1000C8007C6FFF0E716FFF0E726F000E736F000E64
:1000D800746FFF0E756FFF0E766F000E776F000E50
:1000E800786FAC8A900EAB6E948E949C9EAA03D0C7
:0800F800AECF00F0FBD71200AF
:10010000480E156E650E166E6C0E176E6C0E186E20
:100110006F0E196E1A6A700ED36E9B6A0F013A6BDE
:1001200092988988660E0B6E760E0C6EC10E0D6E5F
:100130000D2EFED70C2EFCD70B2EFAD78998B88639
:10014000B06ACF0EAF6EAC84AFDF0C0E856F66DF8A
:10015000150E0B6E4B0E0C6EBE0E0D6E0D2EFED7D9
:100160000C2EFCD70B2EFAD70000410E0001856F34
:1001700055DF420E0001856F51DF5A0E0001856F79
:100180004DDF610E0001856F49DF620E0001856F52
:1001900045DF5A0E0001856F41DF1B0E00016F6FB6
:1001A000000E706F800E6B6F3E0E6C6F000E6D6FE9
:1001B0006E6F470E816F020E826F000E836F35DF08
:1001C0004F0E0001816F020E826F000E836F2DDFD4
:1001D000120E0001816F020E826F000E836F25DF09
:1001E000150E0001816F000E826F3CDF150E0B6E45
:1001F0004B0E0C6EBE0E0D6E0D2EFED70C2EFCD7C8
:100200000B2EFAD700000D0E856F08DF8978E8D72E
:02021000FFD716
:1002120031384634364B323220343070696E7320B6
:10022200464F53433D31364D487A207465737420EE
:1002320055415254312031393230302C382C4E2C29
:05024200310D0A20004F
:0802470020466F7363203D00A7
:07024F00204B487A0D0A0064
:020000040030CA
:0D00010028193CFFBF81FF0FC00FE00F402A
:00000001FF
