:10000000A5EF02F00000000000EF00F0000000008B
:0A0010000000000000000000F3D71C
:0C001C0072B201D0FDD78CC073FF12003F
:0E002800ACB202D00000FCD78CC0ADFF1200BD
:10003600F250026EF29E0500FF6A0150FE6E0050FD
:08004600FD6E02BEF28E1200F5
:10004E000B6A0A6A096A086A0E6A03340836045093
:10005E00085E0550D8A0053C095E0650D8A0063CA7
:10006E000A5E0750D8A0073C0B5EE86AD8A0010EC6
:10007E000E5E0336070E0C6E0334083609360A364A
:10008E000B360E36045003A012D0085E0550D8A0D1
:10009E00053C095E0650D8A0063C0A5E0750D8A063
:1000AE00073C0B5EE86AD8A0010E0E5E11D0082642
:1000BE000550D8B0053C09260650D8B0063C0A2695
:1000CE000750D8B0073C0B26E86AD8B0010E0E26B2
:1000DE0003360C2ED1D70234083609360A360B36C3
:1000EE000E36045003A012D0085E0550D8A0053C71
:1000FE00095E0650D8A0063C0A5E0750D8A0073C01
:10010E000B5EE86AD8A0010E0E5E11D008260550CF
:10011E00D8B0053C09260650D8B0063C0A26075032
:10012E00D8B0073C0B26E86AD8B0010E0E26023670
:10013E00070E0C6E0234083609360A360B360E36AA
:10014E00045002A012D0085E0550D8A0053C095EEE
:10015E000650D8A0063C0A5E0750D8A0073C0B5E9E
:10016E00E86AD8A0010E0E5E11D008260550D8B050
:10017E00053C09260650D8B0063C0A260750D8B0D2
:10018E00073C0B26E86AD8B0010E0E2602360C2E5E
:10019E00D1D70134083609360A360B360E360450DE
:1001AE0002A012D0085E0550D8A0053C095E06508C
:1001BE00D8A0063C0A5E0750D8A0073C0B5EE86A42
:1001CE00D8A0010E0E5E11D008260550D8B0053C01
:1001DE0009260650D8B0063C0A260750D8B0073C70
:1001EE000B26E86AD8B0010E0E260136070E0C6EED
:1001FE000134083609360A360B360E36045001A085
:10020E0012D0085E0550D8A0053C095E0650D8A055
:10021E00063C0A5E0750D8A0073C0B5EE86AD8A0E1
:10022E00010E0E5E11D008260550D8B0053C0926E9
:10023E000650D8B0063C0A260750D8B0073C0B260D
:10024E00E86AD8B0010E0E2601360C2ED1D7003436
:10025E00083609360A360B360E36045001A012D077
:10026E00085E0550D8A0053C095E0650D8A0063C95
:10027E000A5E0750D8A0073C0B5EE86AD8A0010EB4
:10028E000E5E11D008260550D8B0053C0926065042
:10029E00D8B0063C0A260750D8B0073C0B26E86AB1
:1002AE00D8B0010E0E260036070E0C6E003408363E
:1002BE0009360A360B360E36045000A012D0085EF0
:1002CE000550D8A0053C095E0650D8A0063C0A5E33
:1002DE000750D8A0073C0B5EE86AD8A0010E0E5E50
:1002EE0011D008260550D8B0053C09260650D8B0C6
:1002FE00063C0A260750D8B0073C0B26E86AD8B051
:10030E00010E0E2600360C2ED1D700B00ED00450A2
:10031E0008260550D8B0053C09260650D8B0063C34
:0C032E000A260750D8B0073C0B2612002E
:10033A0025C0E1FF26C0E2FF8BC0E6FF23C000F024
:08034A0024C001F073DE120073
:100352000001846B81C0E9FF82C0EAFFEECF83F027
:100362008351000A0EE083C08BF0E6DF0001842B8C
:1003720084518125E96E000E8221EA6EEECF83F070
:04038200EFD712009F
:100386000001846B81C0E9FF82C0EAFFEECF83F0F3
:100396008351000A0EE083C08CF043DE0001842BFB
:1003A60084518125E96E000E8221EA6EEECF83F03C
:0403B600EFD712006B
:1003BA00280E236E000E246E8C0E256E000E266EFD
:1003CA00FF0E276EFF0E286E000E296E000E2A6E93
:1003DA00FF0E1B6EFF0E1C6E000E1D6E000E1E6EB3
:1003EA00FF0E1F6EFF0E206E000E216E000E226E93
:1003FA00AC8A900EAB6E948E949C9EAA03D0AECF1C
:06040A0000F0FBD7120018
:100410000900F5CFE6FF0006FBE10106F9E1120055
:100420000D0E00018C6F00DE0A0E00018C6FFCDDEA
:020430001200B8
:100432000001876B886B000E885D02E10A0E875D02
:100442000BE287518525E16E88518621E26E200EEE
:10045200E66E874B882BEFD787518525E16E885151
:100462008621E26EE66A010E875F000E885B875185
:100472008525896F885186218A6F0A0E046E000EC7
:10048200056E066E076E81C000F082C001F083C067
:1004920002F084C003F0DADD08C000F009C001F008
:1004A2000AC002F00BC003F0300E002689C0E1FF43
:1004B2008AC0E2FF00C0E6FF0A0E046E000E056E5F
:1004C200066E076E81C000F082C001F083C002F0A8
:1004D20084C003F0BBDD00C081F001C082F002C025
:1004E20083F003C084F0000E046E031808E1045088
:1004F200021805E10450011802E10050000A01E16E
:0E05020005D0010E875F000E885BB1D7120096
:1005100081C0F6FF82C0F7FF83C0F8FF0900F5CF66
:1005200000F0005211E081C0F6FF82C0F7FF83C0E7
:10053000F8FF0900F5CF8CF077DD010E000181276F
:0A054000000E82238323E4D712008B
:10054A00480E156E650E166E6C0E176E6C0E186ED2
:10055A006F0E196E1A6A700ED36E9B6A929889880A
:10056A00660E0B6E760E0C6EC10E0D6E0D2EFED73C
:10057A000C2EFCD70B2EFAD78998B886B06ACF0E04
:10058A00AF6EAC8415DF0C0E00018C6F48DD150EC2
:10059A000B6E4B0E0C6EBE0E0D6E0D2EFED70C2E74
:1005AA00FCD70B2EFAD70000410E00018C6F37DD05
:1005BA00420E00018C6F33DD5A0E00018C6F2FDD65
:1005CA00610E00018C6F2BDD620E00018C6F27DD3E
:1005DA005A0E00018C6F23DD1EDF2B0E00017B6F8C
:1005EA00000E7C6F800E7D6F3E0E7E6F000E7F6F59
:1005FA00806FB30E816F060E826F000E836F83DFEA
:10060A007DC081F07EC082F07FC083F080C084F01C
:10061A007BC085F07CC086F007DF7BC081F07CC0A0
:10062A0082F092DEBB0E816F060E826F000E836F20
:10063A006ADF7E0E0001816F060E826F000E836FE5
:10064A0062DF150E0001816F000E826F97DE150EB4
:10065A000B6E4B0E0C6EBE0E0D6E0D2EFED70C2EB3
:10066A00FCD70B2EFAD700000D0E8C6FD8DC8978D8
:04067A00E8D7FFD7E7
:10067E0031384634364B323220343070696E732046
:10068E00464F53433D31364D487A2074657374207E
:10069E0055415254312031393230302C382C4E2CB9
:0506AE00310D0A2000DF
:0806B30020466F7363203D0037
:0706BB00204B487A0D0A00F4
:020000040030CA
:0D000100281E3CFF9980FF0FC00FE00F404C
:0200000400F00A
:100000007061756C666A756A6F2030313730300008
:10001000FFFFFFFFFFFFFFFFFFFFFFFFFFFFFFFFF0
:10002000FFFFFFFFFFFFFFFFFFFFFFFFFFFFFFFFE0
:10003000FFFFFFFFFFFFFFFFFFFFFFFFFFFFFFFFD0
:10004000FFFFFFFFFFFFFFFFFFFFFFFFFFFFFFFFC0
:00000001FF
